:10000000021577E55D2451F8E6055D22784E30074C
:10001000027851E475F00112107502101D2000EBFA
:100020007F2ED2008018EF540F2490D43440D4FF98
:1000300030040BEF24BFB41A0050032461FFE55EC7
:100040006002155E0561E5617002056030070D789C
:100050004EE475F001121075EF021063021A4D7430
:1000600003D2078003E4C207F55D8B4E8A4F8950A7
:10007000E4F55EF560F561E55E60077F2012003E05
:1000800080F5755FFFC201C200C202C203C205C291
:1000900006C20812000CFF700D3007057F00120029
:1000A0004FAF61AE6022B4255FC2D5C20412000C0E
:1000B000FF24D0B40A00501A75F00A785E30D505D6
:1000C00008B6FF0106C6A426F620D5047002D203A6
:1000D00080D924CFB41A00EF5004C2E5D204020242
:1000E0004FD20180C6D20080C0D20280BCD2D5805F
:1000F000BAD20580B47F2012003E2002077401B5F9
:100100005E0040F1120003FF12003E020077D208A9
:10011000D2068095120003FB120003FA120003F9C5
:100120004A4B700679207A037BFF20022EE55E6041
:100130002A7E008E8275830012103660060EEE65F0
:100140005F70F0C2D5EBC0E0EAC0E0E9C0E0EE12BB
:100150000296D0E0F9D0E0FAD0E0FB12101DFF606B
:10016000AAEBC0E0EAC0E0E9C0E012003ED0E02423
:1001700001F9D0E03400FAD0E0FBE55F0460DCD5A3
:100180005FD980877BFF7A027992D202809C7910B6
:1001900080027908C206C2088008D2D5790A800494
:1001A000790AC2D5E55F047002F55FE4FAFDFEFF4F
:1001B000120003FC7B08200113120003FD7B1030AA
:1001C000000A120003FE120003FF7B20EC3382D5ED
:1001D00092D55013C3E43000069FFFE49EFEE42056
:1001E00001039DFDE49CFCE4CBF8C201EC700CCF54
:1001F000CECDCCE824F8F870F38017C3EF33FFEED0
:1002000033FEED33FDEC33FCEB33FB994002FB0F87
:10021000D8E9EB300105F8D0E0C448B201C0E00AEB
:10022000EC4D4E4F78207B0070C2EAB55F0040BCB9
:10023000C0E0120298D0F0D0E0200104C4C0E0C4B5
:10024000B201C0F0120027D0F0D5F0EB0200771217
:100250001085011453018E5800E54C00E1420192D3
:100260004F019A44019A4900FA4301A0550184467E
:1002700001844501844703405000E92D00ED2E0123
:10028000102B00F123010E2003292A00A9480000A9
:1002900001083F3F3F00790AA2D520031430050929
:1002A000B910020404B9080104A2D52006025001C5
:1002B000042002689202B55E005034C0E07F203016
:1002C00003197F30A20272067205500F1202EFC2AC
:1002D00002C206C205C2087F30800F300503E9C0A4
:1002E000E012003E300503D0E0F9D0E0B55ECC303E
:1002F00005177F30B9100C12003E7F583004077F7D
:10030000788003B9080312003E3002057F2D0200F9
:100310003E7F202008F87F2B2006F322920280CF18
:10032000286E756C6C2900D2011200033001F8C2EE
:1003300001785E30D50108F60200A92D50434958D6
:100340001200032403B405004001E490033B931220
:10035000002F743A12002FD203755E0402018E8FB3
:10036000287BFF7A0679CB7551008F52120065AF5A
:10037000281216E8E4F529F52AAF28121226EF60B4
:100380000CE4F529052AE52AD39464500E7F011266
:100390001AA40529E529C3946440DEE5296017AF56
:1003A000281218547BFF7A0679E57551008528528A
:1003B0001200657F0022E52875F005A424A0F8E668
:1003C000FF1218E27BFF7A077911755100852852D8
:1003D00012006512180D8F2AE52A641460030206C4
:1003E00040F529900940E493FFE529C39F501E7B07
:1003F000FF7A07792A74082529F582E43400F58309
:10040000E0755100F552120065052980D67BFF7A10
:1004100007793212006590000CE0F52C90094CE44D
:10042000932528FF1219F88F2AE52A641460030225
:10043000064090094C932528FFE52875F005A42473
:100440009FF8A6077BFF7A0779341200651214EA39
:100450008F2AE52A6414600302064090000DE0F53F
:100460002BE4F52990000AE0FFE529C39F501E7B8D
:10047000FF7A07792A74082529F582E43400F58388
:10048000E0755100F552120065052980D77BFF7A8F
:10049000077932120065900016E0F52DE52C702DDD
:1004A000E52D64087027AF2B121AB58F2AE52A6450
:1004B000146003020640E52875F005A4249EF87632
:1004C000037BFF7A0779451200657F8022E52C7057
:1004D0002DE52D64077027900017E06401701FAFB1
:1004E0002B121AB58F2AE52A641460030206401203
:1004F00018D57BFF7A0779551200657F7022E52CAD
:10050000705EE52D64037058900017E0D39401509D
:100510004FAF2B121AB58F2AE52A64146003020626
:10052000401217B78F2AE52875F005A424A2F8A673
:100530002A1218D5900018E0F52AE52AB4010C7BA0
:10054000FF7A0779661200657F3122E52A6402602E
:10055000030206407BFF7A07797A1200657F322218
:10056000E52C6409600302062E7BFF7A07798B1263
:10057000006512167C8F2AE52A6414600302064087
:10058000F529900008E0FFE529C39F501E7BFF7A04
:1005900007792A74082529F582E43400F583E0758B
:1005A0005100F552120065052980D77BFF7A077943
:1005B0003212006590000AE0FFE52875F005A424DA
:1005C000A2F8EFF6D39404400BE52875F005A424B7
:1005D000A2F87604AF2B121AB58F2AE52A6414709C
:1005E0005F752901E52875F005A424A2F8E529D353
:1005F000965035E52875F014A4245DF8E52975F0CA
:1006000005A428F8E4F67D08AF291219408F2AE5E1
:100610002A6414600F7BFF7A07799E755100852943
:1006200052120065052980BC1218D57F9022AF2B8D
:10063000121AB58F2AE52AB414061218D57FFF22A4
:100640007BFF7A0779C0755100852A52120065E553
:100650002875F005A4249EF876027F011218E27F27
:100660000022485542203020646576696365206920
:100670006E0A004855422030206465766963652023
:100680006F75740A004855422031206465766963AD
:100690006520696E0A0048554220312064657669FC
:1006A0006365206F75740A004855422032206465E6
:1006B0007669636520696E0A0048554220322064DD
:1006C0006576696365206F75740A0053746172748E
:1006D000207265736574204855422530316420705E
:1006E0006F72740A0044697361626C6520485542F8
:1006F0002530316420706F72742062656361757398
:1007000065206F6620646973636F6E6E6563740A3B
:100710000047657444657669636544657363722058
:10072000404855422531643A20003078253032580F
:1007300020000A00476574436F6E666967446573FD
:1007400063723A20005553422D4469736B20526501
:100750006164790A005553422D5072696E742052BB
:10076000656164790A005553422D4B6579626F616A
:1007700072642052656164790A005553422D4D6FB1
:100780007573652052656164790A00476574487520
:100790006244657363726970746F723A20004578C1
:1007A000742D48554220506F7274253031642320D7
:1007B000706F776572206F6E206572726F720A00BB
:1007C000496E6974446576696365204572726F721B
:1007D000203D20253032580A00466F756E64206631
:1007E000756C6C20737065656420646576696365FB
:1007F000206F6E20706F727420253031640A0046BD
:100800006F756E64206C6F7720737065656420640B
:100810006576696365206F6E20706F727420253075
:1008200031640A00526573657420706F72742061C0
:100830006E64207468656E207761697420696E0A41
:1008400000456E756D206465762040457874487566
:10085000622D706F727425303164200040526F6FCA
:1008600074487562253031640A00476574446576C2
:1008700069636544657363723A2000546869732044
:1008800070726F6772616D20646F6E27742073756C
:1008900070706F7274204C6576656C2032204855FC
:1008A000420A005374617274204348333734552030
:1008B000486F73740A0057616974204465766963F0
:1008C0006520496E0A00487562506F7274456E75F6
:1008D0006D206572726F72203D20253032580A00FB
:1008E000416363657373205553422D6469736B0ACA
:1008F000005175657279204D6F7573650A004D6FF3
:1009000075736520646174613A20004D6F7573657D
:10091000206572726F7220253032780A004D6F7533
:100920007365206E6F20696E7465727275707420C5
:10093000656E64706F696E740A00800600010000C5
:100940001200800600020000040000050300000001
:10095000000000090000000000007F32121AA412FB
:100960001BA8121B337BFF7A0879A3120065E4F5FC
:1009700008F524E52475F005A4249EF8E4F6052482
:10098000E524B403EEE4F525121A24121B4B7BFF79
:100990007A0879B6120065121B8DEF6003121B1BDB
:1009A000E50860577FC8121AA4E4F508F524E52489
:1009B00075F005A4249EF8E664017036AF24120396
:1009C0005F8F23E52475F005A424A1F8A623E52371
:1009D0006490701E1210AB8F23E5236414600E7BAD
:1009E000FF7A0879C67551008F521200657F011297
:1009F00018E20524E524C3940340B37F64121AA4CB
:100A0000E52530E148E4F524E52475F005A424A1AA
:100A1000F8E66490702EE52475F005A4249EF8E6AF
:100A2000C39403401FE41210AB8F23E523641460CA
:100A30000E7BFF7A0879C67551008F521200657FD0
:100A4000011218E20524E524C3940340BB0525E503
:100A500025D394324003E4F525E52524EF603C24BA
:100A60000460030209977F801216038E268F27E504
:100A700027F47003E526F47003020997E526F524B0
:100A80007526007BFF7A0879E0120065AD27AF2458
:100A90001217517F011218E20209977F32121603D2
:100AA0008E268F27E527F47003E526F470030209EC
:100AB00097E526F5247526007BFF7A0879F1120068
:100AC00065AD27AF24121751E52745266012E524AE
:100AD00075F014A42461F8E52775F005A4288008B2
:100AE000E52475F005A424A2F8E6FF8F22E5225440
:100AF0007FFF7003020B91E5225480FB7D091214E5
:100B00000F8F23E52364147074632280E527452644
:100B10006012E52475F014A42461F8E52775F0054A
:100B2000A4288008E52475F005A424A2F8A6227F55
:100B30000B121B828F22E52260607B017A0079080C
:100B4000FD7FC012199E7BFF7A0879FE120065E4D2
:100B5000F523E523C39522501C7BFF7A07792A747D
:100B6000082523F582E43400AF82F5518F5212003C
:100B700065052380DD7BFF7A077932801AE52364DF
:100B80002A60177BFF7A09790B7551008523528003
:100B9000067BFF7A09791D1200657F011218E202B7
:100BA00009978F2B8D2C7BFF7A0879417551008531
:100BB0002C521200657BFF7A08795C755100852BF9
:100BC00052120065E52C7002FF22AD2CAF2B1217DC
:100BD000517BFF7A08796A12006512180D8F2EE595
:100BE0002E641460037F002290000CE0F530E52BAA
:100BF00004C454F0252CF52FFF1219F88F2EE52E82
:100C0000641460037F0022E52B75F014A4245EF8C1
:100C1000E52C75F005A428F8A62F7BFF7A07793418
:100C20001200651214EA8F2EE52E641460037F0013
:100C30002290000DE0F52FE4F52D90000AE0FFE58D
:100C40002DC39F501E7BFF7A07792A7408252DF546
:100C500082E43400F583E0755100F5521200650519
:100C60002D80D77BFF7A077932120065900016E05D
:100C7000F531E5307035E5316408702FAF2F121A69
:100C8000B58F2EE52E64146003020D54E52B75F02C
:100C900014A4245DF8E52C75F005A428F876037BF0
:100CA000FF7A0779451200657F8022E5307073E591
:100CB000316403706D900017E0D394015064AF2F3E
:100CC000121AB58F2EE52E64146003020D5412170C
:100CD000B78F2EE52B75F014A42461F8E52C75F080
:100CE00005A428F8A62EE52B75F014A4245DF8E5DC
:100CF0002C75F005A4281218DD900018E0F52EE5FB
:100D00002EB4010C7BFF7A0779661200657F3122D1
:100D1000E52E6402703E7BFF7A07797A1200657FC8
:100D20003222E530B4090B7BFF7A08797B1200652B
:100D30008022AF2F121AB58F2EE52EB41416E52B94
:100D400075F014A4245DF8E52C75F005A42812189C
:100D5000DD7FFF227BFF7A0779C0755100852E5217
:100D6000120065E52B75F014A4245DF8E52C75F0F0
:100D700005A428F876027F011218E27F0022900075
:100D800002F0753900753A00753B00753C00753D01
:100D900000753E007B017A0079008B368A378938EE
:100DA0007D087F401219CB7D087F0B121B0C7FC87A
:100DB000121B7B7547007548C8E4FB7D0DFF1218B8
:100DC000968F3FE53F64146003020F11754301AB3A
:100DD00036AA37A938900006121036F54270030281
:100DE0000ED3E53A453B45397003020ED3854240A8
:100DF00012101D30E770E54060677FC8121B7B75DD
:100E000047007548C8AB437D09E4FF1218968F3F31
:100E1000E53F6414704B7F0B121B828F41AB39AAE4
:100E20003AA93BAD417FC012199EE541253BF53BF8
:100E3000E4353AF53AE541D395405009C3E540958C
:100E400041F5408003E4F540E5416015E50914559E
:100E500041700EE54360047F0080027F018F438074
:100E600095E4F5438066E540605F7FC8121B7BE533
:100E700040C395094004AF098002AF408F41AB39B0
:100E8000AA3AA93BAD417F401219CBAD417F0B126D
:100E90001B0C7547007548C8AB437D01E4FF121871
:100EA000968F3FE53F64147020E541253BF53BE418
:100EB000353AF53AC3E5409541F540E54360047F96
:100EC0000080027F018F43809D754301C3E54295F9
:100ED00040F542E53F64147038FD7F0B121B0C7F18
:100EE000C8121B7BE54360047D0980027D017547C4
:100EF000007548C87B01E4FF1218968F3FE54360F8
:100F000010E53FB4140B7F0B121B82EF6003753F9B
:100F100017E53D453E453C600BAB3CAA3DA93EE58F
:100F200042121063AF3F22E709F608DFFA8046E776
:100F300009F208DFFA803E88828C83E709F0A3DF9C
:100F4000FA8032E309F608DFFA8078E309F208DF75
:100F5000FA807088828C83E309F0A3DFFA806489C9
:100F6000828A83E0A3F608DFFA805889828A83E0C8
:100F7000A3F208DFFA804C80D280FA80C680D48049
:100F80006980F28033801080A680EA809A80A880F1
:100F9000DA80E280CA803389828A83ECFAE493A300
:100FA000C8C582C8CCC583CCF0A3C8C582C8CCC58F
:100FB00083CCDFE9DEE7800D89828A83E493A3F6A0
:100FC00008DFF9ECFAA9F0EDFB2289828A83ECFABA
:100FD000E0A3C8C582C8CCC583CCF0A3C8C582C86D
:100FE000CCC583CCDFEADEE880DB89828A83E493A8
:100FF000A3F208DFF980CC88F0EF60010E4E60C3E9
:1010000088F0ED2402B4040050B9F582EB2402B458
:10101000040050AF2323458223900F7773BB010652
:1010200089828A83E0225002E722BBFE02E3228902
:10103000828A83E49322BB010CE58229F582E58351
:101040003AF583E0225006E92582F8E622BBFE0647
:10105000E92582F8E222E58229F582E5833AF583E3
:10106000E49322BB010689828A83F0225002F72290
:10107000BBFE01F322FAE6FB0808E6F925F0F618B4
:10108000E6CA3AF622D083D082F8E4937012740153
:1010900093700DA3A393F8740193F5828883E4738E
:1010A0007402936860EFA3A3A380DFFDAF2412173F
:1010B00051AF248F28752901E52875F005A424A2D5
:1010C000F8E529D3964003021223E4FDAF28121756
:1010D00051AF291219118F2AE52A64146001229058
:1010E0000008E020E0030211F690000AE020E0038F
:1010F0000211F6E52875F014A4245DF8E52975F0D1
:1011000005A428F87601E52875F014A4245EF8E516
:101110002975F005A428F8E4F6AF291219118F2AD1
:10112000E52A6414600122900009E030E1047F00A8
:1011300080027F01E52875F014A4245FF8E5297585
:10114000F005A428F8EFF67BFF60067A0779D980CE
:10115000047A0779FF7551008529521200657FC80E
:10116000121AA47D04AF291219408F2AE52A6414AB
:101170006001227BFF7A0879241200657F01121A30
:10118000A4AF291219118F2AE52A64146001229054
:101190000008E020E4E67F64121AA47D10AF291253
:1011A000196F8F2AE52A6414600122AF29121911E0
:1011B0008F2AE52A6414600122900008E020E013E1
:1011C000E52875F014A4245DF8E52975F005A42838
:1011D000F8E4F6AD29AF28120BA28F2AE52875F0A6
:1011E00014A42460F8E52975F005A428F8A62A7F40
:1011F000011218E28028900008E020E021E528751F
:10120000F014A4245DF8E52975F005A428F8E4F6A7
:1012100090000AE030E0077D10AF2912196F052910
:101220000210B87F1422AB07EB75F005A4249EF8DA
:10123000E6C3940150027601EB640170497F03120A
:101240001B82EF20E3030213247F03121B82EF2093
:10125000E02A7F02121B82EF20E40E7F03121B8222
:10126000EF6404FD7F03121B0C7F03121B82EF202F
:10127000E2047F0180027F0078A5A6077F03121B8E
:1012800082EF4401804CEB6402704C7F03121B829E
:10129000EF20E7030213247F03121B82EF20E42ACE
:1012A0007F02121B82EF20E50E7F03121B82EF6488
:1012B00040FD7F03121B0C7F03121B82EF20E6040C
:1012C0007F0180027F0078AAA6077F03121B82EFAE
:1012D0004410FD7F0380477F02121B82EF30E344FE
:1012E0007F02121B82EF20E02A7F09121B82EF206F
:1012F000E70E7F02121B82EF6404FD7F02121B0CBB
:101300007F02121B82EF20E2047F0180027F0078BF
:10131000A0A6077F02121B82EF4401FD7F02121B71
:101320000C7F01227F00227F02121B82EF30E30537
:10133000789EE6600C7F02121B82EF5409FFBF0803
:1013400014E4FF121854789E76017BFF7A067962C6
:1013500012006505087F02121B82EF20E316789EBB
:10136000E6C39401400EE4FF1218547BFF7A06791D
:10137000731200657F03121B82EF30E30578A3E64A
:10138000600C7F03121B82EF5409FFBF08147F011A
:1013900012185478A376017BFF7A067985120065CE
:1013A00005087F03121B82EF20E31678A3E6C3949F
:1013B00001400E7F011218547BFF7A0679961200C5
:1013C000657F03121B82EF30E70578A8E6600C7F8B
:1013D00003121B82EF5490FFBF80147F0212185437
:1013E00078A876017BFF7A0679A812006505087F48
:1013F00003121B82EF20E71678A8E6C39401400E83
:101400007F021218547BFF7A0679B9120065228F89
:101410004A8D4B8B4CE4F54DE54BC454F0FFE54A47
:10142000540F4FFD7F0D121B0CE54C60047DC880EE
:10143000027D087F0E121B0C121AD0BFFA01227F08
:1014400009121B82EF30E1161213277D027F091269
:101450001B0C7F09121B82EF20E5037F1622EF3061
:10146000E0667D117F09121B0C7F0A121B82EF546C
:101470000FFEE54B24F7602524FC6004240C704526
:10148000BE02037F1422EE640E6035BE0A02803075
:10149000EF54037003D38001C340408023EF54070F
:1014A000FDBD0307EF30E4337F1422EE640E6003CA
:1014B000BE0A02800BEF54037003D38001C3401BAC
:1014C000EE4420FF227FFA227FC8121B7B7D1F7F04
:1014D00009121B0CE54D60037FFA22054DE54DC353
:1014E000940350030214187F20227B017A007908AC
:1014F0008B328A3389348B398A3A893B753C007543
:101500003D00753E357BFF7A097942120D9AEF64F2
:1015100014706390094893FEE535C39E50047F170D
:101520008054AB32AA33A934900002121036F5353C
:1015300078007C007D017BFF7A0979427E007F087C
:10154000120FF7900006E535F085323985333A857C
:10155000343B753C00753D00753E35120D94BF144B
:1015600015AB32AA33A934900002121036FEE535CD
:10157000C39E50027F1722787FE4F6D8FD7581ACB8
:101580000215BE02095AE493A3F8E493A34003F6BC
:101590008001F208DFF48029E493A3F85407240CB7
:1015A000C8C333C4540F4420C8834004F456800198
:1015B00046F6DFE4800B0102040810204080901BF7
:1015C000ADE47E019360BCA3FF543F30E509541F96
:1015D000FEE493A360010ECF54C025E060A840B89C
:1015E000E493A3FAE493A3F8E493A3C8C582C8CA1A
:1015F000C583CAF0A3C8C582C8CAC583CADFE9DEED
:10160000E780BEAD07121A74EFF46005EF7F00FEAD
:1016100022E4FFEF75F005A424A1F8E66490705170
:10162000EF75F005A4249EF8E6C3940340437C01C3
:10163000EF75F005A424A2F8E6FEECD39E5032EF3D
:1016400075F014A42460F8EC75F005A428F8E66D94
:10165000701CEF75F014A4245DF8EC75F005A42857
:10166000F8E6C394034007EFFEECFDEDFF220C808B
:10167000BF0FEF6403709C7EFF7FFF229000007419
:10168000A0F0A37406F0E4A3F0A37429F0E4A3F09F
:10169000A3F0A304F0E4A3F0753901753A00753B9B
:1016A00008F53C753D00753E2E120D94EF641470E4
:1016B00036900008E0900006F090000074A0F0A3BF
:1016C0007406F0E4A3F0A37429F0E4A3F0A3F0906F
:1016D0000007F0753901753A00753B08F53C753D1A
:1016E00000753E2E120D9422AB07750908121B03DC
:1016F000EB640170157F03121B82EF7F03121A9AAD
:101700007F03121B82EF54FD801DEB6402701D7F6E
:1017100003121B82EF54BF4420FD7F03121A9F7FE8
:1017200003121B82EF54DFFD7F0380167F02121B22
:1017300082EF7F02121A9A7F02121B82EF54FDFD84
:101740007F02121B0C7FFA121B7B7D167F09021B86
:101750000CAB07AA05EA6044EB75F014A4245EF80C
:10176000EA75F005A428F8E6FF121BA1EB75F0144A
:10177000A4245FF8EA75F005A428F8E6700E7F024D
:10178000121B82EF4440FD7F02121B0CEB75F0141C
:10179000A4245FF8EA75F005A4288014EB75F00521
:1017A000A4249FF8E6FF121BA1EB75F005A424A06A
:1017B000F8E6FF1218E222E4FEFD90000AE0FCEDDC
:1017C000C39C504674092DF582E43400F583E0642F
:1017D000057021740B2DF582E43400F583E0B40329
:1017E00013740A2DF582E43400F583E030E70554E4
:1017F0007FFE801674082DF582E43400F583E0FF47
:10180000D394105005EF2DFD80B0AF06227B017AF6
:101810000079088B328A3389347509088B398A3A02
:10182000893B753C00753D00753E357BFF7A097933
:101830003A120D9ABF141CAB32AA33A93490000798
:10184000121036F509900940E493FEE535C39E5029
:10185000027F1722AC07EC75F005A4249EF8E4F68D
:10186000EC75F005A4249FF8E4F6BC010A7F03128E
:101870001B82EF54F0800BBC020D7F03121B82EF22
:10188000540FFD7F03800B7F02121B82EF54F0FD8B
:101890007F02121B0C228F448D458B46E4F549AB29
:1018A00046AD45AF4412140FBF2A06E548454770C0
:1018B00001227F14121B7B0549E549C3942840DFB0
:1018C000C3E54894FFE54794FF50D1E548154870BB
:1018D000CB154780C7E52875F005A4249EF876034C
:1018E0007F01EF7F06601B121B82EF540C44C0FD8A
:1018F0007F06121B0C7F02121B82EF54BFFD7F027A
:10190000800B121B82EF540C44E0FD7F06121B0C6F
:101910002290000074A3F0E4A3F0A3F0A3F0A3EFDF
:10192000F0E4A3F0A37404F0E4A3F0753901753A70
:1019300000753B08F53C753D00753E2B120D942259
:101940009000007423F0A37403F0A3EDF0E4A3F07F
:10195000A3EFF0E4A3F0A3F0A3F0753901753A000A
:10196000753B08F53C753D00753E2E120D94229096
:1019700000007423F0A37401F0A3EDF0E4A3F0A33E
:10198000EFF0E4A3F0A3F0A3F0753901753A007508
:101990003B08F53C753D00753E2B120D94228B449F
:1019A0008A458946AC057DC0121B97AF041CEF60C9
:1019B00017121B60AB440546E546AA457002054573
:1019C00014F9EF12106380E3D294228B448A458984
:1019D00046AC057D80121B97AF041CEF6017AB442B
:1019E0000546E546AA457002054514F912101DFF8B
:1019F000121AEA80E3D294228F3278007C007D01B3
:101A00007BFF7A09794A7E007F08120FF7E53212D0
:101A10000D7EAB07BB1405AF32121BA17F0A121A51
:101A2000A4AF0322E4FD7F06121B0C121B037D1FD3
:101A30007F09121B0C7D037F07121B0C7D407F0565
:101A4000121B0C7D807F06121B0C021B4BEFB40A8D
:101A500007740D121A58740A309811A899B8130C0B
:101A6000C2983098FDA899C298B811F63099FDC275
:101A700099F59922E4FEEE75F005A424A1F8E6B5E7
:101A80000711EE75F005A4249EF8E6C39403400305
:101A9000AF06220EBE03DF7FFF2254FB4402FD127D
:101AA0001B0C7F0FAD07AF051DEF6008121B7412F2
:101AB0001B7480F2228F3278007C007D017BFF7ADC
:101AC0000979527E007F08120FF7E532120D7E224F
:101AD000E4FDFC121B8DEF60037F00220DBD0001B1
:101AE0000CBC27EFBD10EC7FFA22E4FEC297EF306A
:101AF000E704D2958002C295EF25E0FFD2970EBE93
:101B000008EA22E4FF121BA1E4FD7F0EAC057D80F4
:101B1000121B97AF04121AEAD294227F09121B8279
:101B2000EF30E1071213277D0280027D1D7F09122D
:101B30001B0C2275985075878075CAF375CCF375A8
:101B4000CBFF75CDFF75C834D299227DC07F0612B8
:101B50001B0CE4FD7F02121B0CE4FD7F03021B0C37
:101B6000E4FFFEC297EF25E0FF3096010FD2970EFB
:101B7000BE08F0227FFA121B7B7FFAAE071FEE70C1
:101B8000FA227DC0121B97121B60D2942230B2043D
:101B90007F0080027F0122C294121AEAAF05021A66
:101BA000EAAD077F08021B0CD294D29722010908E4
:011BB0000034
:00000001FF
