:1000000002355DE540C39410500712128BEF60017A
:10001000221233ECEF600122C20A786CE6645C6065
:1000200004E6B42F05752D6D8017786DE6643A608F
:10003000030200EF18E6C3944350030200EF752D4E
:100040006FE547B4031090782FE0FCA3E0FDA3E038
:10005000FEA3E0FF8005E4FFFEFDFC8F3D8E3C8D9E
:100060003B8C3AA82DE660030200F274FFF544F5DC
:1000700043F542F541E54764036057753D029078CA
:1000800023E0FCA3E0FDA3E0FEA3E0FF907832E0D4
:10009000FBC3EF9BFFEE9400FEED9400FDEC94009B
:1000A000FC9078231210EF907831E0FEA3E0A830A6
:1000B000088005C333CE33CED8F9FFE48F448E4396
:1000C000F542F541AF22FCFDFE90782F1210EF753E
:1000D0002280853D34853C33853B32853A31E4F5D9
:1000E0004EF54DF54CF54BF5357540127F412275B7
:1000F0002D6CA82DE6B4E5027605E53D700CE53AD9
:100100007008E53B7004E53C6038852235E53D2408
:10011000FEFFE53C34FFFEE53B34FFFDE53A34FFEE
:10012000FC90781AE0F81210B7907823E0F8A3E07A
:10013000F9A3E0FAA3E02FFFEA3EFEE93DFDE83C2B
:100140008024907832E0F535AF35CB907823E0FC11
:10015000A3E0FDA3E0FEA3E0C39BFFEE9400FEED51
:100160009400FDEC9400FC90782A1210EFE53570B5
:1001700003020422122443EF600122E4F53EF53F1E
:10018000D3907828E0953F907827E0953E50030281
:1001900003FEE549253FF52FE548353EF52E852F31
:1001A00082F583E0FF700302044FEF64E570030201
:1001B00003F0BF05027FE5A82DE6FE6F6008EE6440
:1001C0002A60030203F0E4F539FFEFC3940B507883
:1001D000E52F2FF582E4352EF583E0FEAD39E52DD0
:1001E0002DF8EE66605DAD39E52D2DF8E66015ADB4
:1001F00039E52D2DF8E6645C600AAD39E52D2DF862
:10020000E6B42F1FEE6420703FEFC394085010E552
:100210002F2408F582E4352EF583E0642070297FD1
:100220000B8025AE39E52D2EF8E6B42E1BE539649A
:1002300008600EE52F2FF582E4352EF583E0B4201B
:10024000077F070F05398082EFC3940B5003020329
:1002500031E52F240BF582E4352EF583E030E303FE
:10026000020331C20BE52F241AFFE4352EFE1235AE
:1002700046E48F3D8E3CF53BF53AE547B40310E587
:100280002F2414FFE4352EFE1235468E3A8F3BAFF5
:1002900039E52D2FF8E66006200B03020327853D84
:1002A00034853C33853B32853A31E4F54EF54DF5E6
:1002B0004CF54BF535E52F240BF582E4352EF5830F
:1002C000E030E41F74FFF544F543F542F5417D133A
:1002D0007F101233F0EF600122300B047F43800265
:1002E0007F4122E52F241CFFE4352EFE1234BD8F02
:1002F000448E438D428C41E53D7017E53A7013E51D
:100300003B700FE53C700B7535FFF544F543F54246
:10031000F5417D147F101233F0EF600122300B04A1
:100320007F4380027F0022E53904252DF52D020050
:10033000F2AF39E52D2FF8E6642A60030203F0E5F9
:100340002F240BF582E4352EF583E030E30302031E
:10035000F0E53904252DF8E67053E4FFF537E52F75
:100360002FF582E4352EF583E06420602FBF080A64
:10037000AE37E52D2EF8762E0537E52F2FF582E4E2
:10038000352EF583E0FEAD37E52D2DF8EEF6E53799
:100390007008A82DE6B4050276E505370FBF0BBE41
:1003A000AF37E52D2FF8E4F6D20B020265E53904EC
:1003B000252DF8E6F47032E544700CE5417008E54F
:1003C000427004E5436093E54130E703123587E569
:1003D0004424FFF544E54334FFF543E54234FFF59B
:1003E00042E54134FFF5418007E53904252DF81633
:1003F0007420253FF53FE4353EF53E0201809078BC
:100400002AE0FCA3E0FDA3E0FEA3E02401FFE43E1C
:10041000FEE43DFDE43CFC90782A1210EF15350215
:10042000016DE53D700CE53A7008E53B7004E53C74
:10043000601D7F3AE4FD1215A4EF600122200B0F2E
:1004400085363A85373B85383C85393D0200F2E4F4
:10045000FFE52D2FF8E6FE6013642A600FEE645C62
:100460006004EEB42F037FB3220F80E57F4222D2D7
:1004700094C2947F6412326BD2941235307BFF7A2F
:1004800025798E120C761233CC8F501233887BFF75
:100490007A257995120C767F3212326B1228E1EFB1
:1004A00070F57FC812326BE4F5507F3212326B7BED
:1004B000FF7A2579A1120C76123178EF603CE54085
:1004C000C3940250087BFF7A2579AA801FE540C3B8
:1004D00094034007E550D39405501FE540B4021142
:1004E000907834E0600B7BFF7A2579B7120C768028
:1004F000090550E550C3946440B0E540C3940350EF
:1005000014E54064027090907834E0708A7BFF7A42
:100510002579CC8017C294D3907828E09400907805
:1005200027E09408400C7BFF7A2579DC120C7602D8
:100530000835C2957BFF7A2579F3120C76786C7CAE
:10054000007D007BFF7A2579F91211E01200038FFC
:1005500050E55064B36009E5506442600302063B15
:10056000E550B4B3087556267557098006755626AA
:1005700075570C755BFF85565C85575D7BFF7A264A
:100580007915120C76E4F554F555AA56A9577BFF58
:10059000C002C001786C7C007D00D001D002121135
:1005A000E07B007A00796C1234E28F50746C2FF883
:1005B00076FFE4855544855443F542F54112000326
:1005C0008F50E55064426037E550B4431A85545B60
:1005D00085555C755D00755E00755F6C7BFF7A26E6
:1005E0007923120C768007AF50123388801105559D
:1005F000E55570020554C39410E5549427408B755B
:10060000562675573BE4F550855782855683E4930B
:10061000FF74112550F582E43408F583EFF0600F84
:100620000557E557700205560550E550B4FFD975DA
:1006300052008550537551010207B1AF50123388F3
:100640007BFF7A267957120C76E4FF7E70FDFCABB7
:1006500044AA43A942A841D3121093907827E040BE
:1006600015FCA3E0FD7E707F00120F708F51755254
:10067000707553008044FEA3E0FFEF2544FFEE3584
:1006800043FEE43542FDE43541FCEF24FFFFEE3448
:10069000FFFEED34FFFDEC34FFFCC006C007907890
:1006A00027E0FEA3E0FBAA06E4F9F8D007D0061283
:1006B00010018F518543528544537BFF7A26795D23
:1006C00085445E85435D85425C85415B85525F85DF
:1006D0005360756100855162120C76786CA6517872
:1006E000747608087611907828E024FFFF90782728
:1006F000E034FFFEE4FCFDE5442FF544E5433EF520
:1007000043ED3542F542EC3541F54112219F8F50C2
:10071000907828E024FFFF907827E034FFFEFAC3AA
:10072000E5449FF544E5439AF543E5429400F542DC
:10073000E5419400F541AF501233887BFF7A26796A
:1007400077120C76122D318F50123388900875E095
:10075000F550E4F0755B01755C08755D117BFF7AFF
:1007600026797E120C76900875E550F0E4F554F584
:1007700055C3E5559553E55495525035741125559B
:10078000F58274083554F583E0FFC394614018EF97
:10079000D3947A5012EF24E0FF74112555F582743A
:1007A000083554F583EFF00555E55570C4055480C0
:1007B000C0C2967BFF7A26798A120C76786C7C0010
:1007C0007D007BFF7A2679921211E01218688F5013
:1007D0001233887BFF7A26799F120C76786CA651AB
:1007E00078747608087611121ACE8F501233887BEF
:1007F000FF7A2679A6120C76787476FF74FF7872E9
:10080000F608F6787076300876B2AE52AF53E4FC54
:10081000FD786C1210E31227E98F501233887BFFAA
:100820007A267977120C76E4786CF6122D318F5097
:10083000123388D296D2957BFF7A2679AE120C7647
:100840007F0A12326B1228E1EF60F5D2947FC81252
:10085000326B02048EE540D39402400375400212CD
:1008600028E1EF600122907834E0600302095E7FA6
:10087000071235698F37E53754F0FD7F07123500D1
:1008800090782EE060047DC080027D807F06123566
:1008900000E4FD7F0E1235007F0112326B90782E3E
:1008A000E06034B4020C7F03123569EF54F0440267
:1008B000801190782EE0B4030F7F03123569EF5456
:1008C0000F4420FD7F0380137F02123569EF54F03F
:1008D0004402FD7F0280047D817F061235007F0186
:1008E00012326B1231B8EF60061231B8EF70057F2B
:1008F0001912326B90782EE06034B4020C7F031230
:100900003569EF54F04401801190782EE0B4030F64
:100910007F03123569EF540F4410FD7F0380137F6E
:1009200002123569EF54F04401FD7F0280047D809E
:100930007F061235007DC07F061235007538327F84
:100940000512326B7D1F7F09123500AD377F07120C
:1009500035001228E1EF6054D538E47F82227F0A07
:1009600012326B1234F71234CD7D037F4112350001
:100970000D0F123500122ABAE54A60101234CD7DEF
:10098000017F42123500122ABA020B1012350BE514
:100990004A700C854982854883A3A3E030E4ED12B8
:1009A00034CD7D147F42123500122ABA7F321232C2
:1009B0006BE4FD7F081235007C307D5612348C12BA
:1009C0002ABAE54A70B67C307D5E7F0812348C907E
:1009D000782EE0FF60082402FD7F421235009078F7
:1009E00034E0600E907833E0547F2410FD7F421293
:1009F0003500122ABAE54A70837F42123569EFCD7D
:100A00007F081235007F0A12326B7C307D667F08CA
:100A100012348C122ABAE54A6003020B108549820F
:100A2000854883A3A3E0FD7F46123500E4FD0F1245
:100A30003500122ABAE54A6003020B10E549240585
:100A4000F582E43548F583E0F537E549240EF58273
:100A5000E43548F583E0FD6408706AE549240FF544
:100A600082E43548F583E0B406054345208003530E
:100A700045DFE549240BF582E43548F583E09078BD
:100A800011F0E4F538AF38EF75F007A42549FFE51C
:100A9000F03548CF2414CF34008F82F583E0F53948
:100AA000A3A3E06440704DE53930E708540F44904B
:100AB000F52B8008E539540F4410F52C0538E5383E
:100AC000B402C28034ED6409702A907834E0702456
:100AD0007C307D6E7F0812348C122ABAE54A703061
:100AE000E4907833F0854982854883A3A3E0907829
:100AF00034F07005754A1F80177C307D767F0812B0
:100B0000348CAD377F42123500122ABAE54A60456F
:100B1000907833E0603C20E739854A37907834E0BC
:100B2000FF907833E0C39F5021E004F0F53812289D
:100B3000E18F39E539700302095EE539B48203AF0C
:100B40003922907833E538F080D285374AE49078BE
:100B500033F0AF4A22907834E06036907833E0701A
:100B600030907833E004F01234CD7D037F411235AC
:100B7000007D080F123500122ABA907834E0FF90F9
:100B80007833E0C39F40DAE4F07FC812326B02088A
:100B90005FE54F54044408F54F7C307D7E122AAB4C
:100BA000E54A700B854982854883E0F5378012E578
:100BB0004AB42E0AE4FF1232A2E4F5378003AF4AAA
:100BC000227F0212326BE4907829F07D247F12128A
:100BD00032D81229D78F39E5397023E5376018905C
:100BE0007829E07012854982854883E0B405089031
:100BF00078297401F080D47D037F020233F0E53759
:100C0000600E907829E0C394035005E004F080BBA7
:100C100012313222E567245BF8E605672278583006
:100C20000702785BE475F0011212550211FD2000F5
:100C3000EB7F2ED2008018EF540F2490D43440D490
:100C4000FF30040BEF24BFB41A0050032461FFE50A
:100C50006860021568056BE56B7002056A30070D68
:100C60007858E475F001121255EF02124302336115
:100C70007403D2078003E4C207F5678B588A598949
:100C80005AE4F568F56AF56BE56860077F20120C99
:100C90004F80F57569FFC201C200C202C203C205DE
:100CA000C206C208120C1DFF700D3007057F00122E
:100CB0000C60AF6BAE6A22B4255FC2D5C204120CC1
:100CC0001DFF24D0B40A00501A75F00A786830D598
:100CD0000508B6FF0106C6A426F620D5047002D288
:100CE0000380D924CFB41A00EF5004C2E5D2040225
:100CF0000E60D20180C6D20080C0D20280BCD2D5A4
:100D000080BAD20580B47F20120C4F2002077401F4
:100D1000B5680040F1120C14FF120C4F020C88D27F
:100D200008D2068095120C14FB120C14FA120C1443
:100D3000F94A4B700679317A0F7BFF20022EE56865
:100D4000602A7E008E8275830012121660060EEEF7
:100D5000656970F0C2D5EBC0E0EAC0E0E9C0E0EE42
:100D6000120EA7D0E0F9D0E0FAD0E0FB1211FDFF9F
:100D700060AAEBC0E0EAC0E0E9C0E0120C4FD0E0AE
:100D80002401F9D0E03400FAD0E0FBE5690460DC2E
:100D9000D569D980877BFF7A0E79A3D202809C79AE
:100DA0001080027908C206C2088008D2D5790A806C
:100DB00004790AC2D5E569047002F569E4FAFDFE1A
:100DC000FF120C14FC7B08200113120C14FD7B1085
:100DD00030000A120C14FE120C14FF7B20EC33823C
:100DE000D592D55013C3E43000069FFFE49EFEE485
:100DF0002001039DFDE49CFCE4CBF8C201EC700CE7
:100E0000CFCECDCCE824F8F870F38017C3EF33FFD2
:100E1000EE33FEED33FDEC33FCEB33FB994002FB8C
:100E20000FD8E9EB300105F8D0E0C448B201C0E0CA
:100E30000AEC4D4E4F78207B0070C2EAB569004045
:100E4000BCC0E0120EA9D0F0D0E0200104C4C0E084
:100E5000C4B201C0F0120C38D0F0D5F0EB020C880F
:100E60001212650D25530D9F580CF64C0CF2420DD5
:100E7000A34F0DAB440DAB490D0B430DB1550D9573
:100E8000460D95450D95470F51500CFA2D0CFE2E31
:100E90000D212B0D02230D1F200F3A2A0CBA4800FA
:100EA000000D193F3F3F00790AA2D52003143005F9
:100EB00009B910020404B9080104A2D520060250A1
:100EC00001042002689202B568005034C0E07F201F
:100ED0003003197F30A20272067205500F120F0004
:100EE000C202C206C205C2087F30800F300503E986
:100EF000C0E0120C4F300503D0E0F9D0E0B568CC6B
:100F00003005177F30B9100C120C4F7F5830040792
:100F10007F788003B90803120C4F3002057F2D0241
:100F20000C4F7F202008F87F2B2006F322920280AE
:100F3000CF286E756C6C2900D201120C143001F8A8
:100F4000C201786830D50108F6020CBA2D50434929
:100F500058120C142403B405004001E4900F4C9384
:100F6000120C40743A120C40D203756804020D9FB3
:100F7000BC000BBE0029EF8DF084FFADF022E4CC65
:100F8000F875F008EF2FFFEE33FEEC33FCEE9DEC2E
:100F9000984005FCEE9DFE0FD5F0E9E4CEFD22ED74
:100FA000F8F5F0EE8420D21CFEADF075F008EF2FBE
:100FB000FFED33FD4007985006D5F0F222C398FDAF
:100FC0000FD5F0EA2275F008758200EF2FFFEE339F
:100FD000FECD33CDCC33CCC58233C5829BED9AECAC
:100FE00099E58298400CF582EE9BFEED9AFDEC9916
:100FF000FC0FD5F0D6E4CEFBE4CDFAE4CCF9A88220
:1010000022B800C1B90059BA002DEC8BF084CFCEC4
:10101000CDFCE5F0CBF97818EF2FFFEE33FEED3382
:10102000FDEC33FCEB33FB10D703994004EB99FB49
:101030000FD8E5E4F9FA227818EF2FFFEE33FEED32
:1010400033FDEC33FCC933C910D7059BE99A40073F
:10105000EC9BFCE99AF90FD8E0E4C9FAE4CCFB2256
:1010600075F010EF2FFFEE33FEED33FDCC33CCC81F
:1010700033C810D7079BEC9AE899400AED9BFDEC2A
:101080009AFCE899F80FD5F0DAE4CDFBE4CCFAE469
:10109000C8F922EB9FF5F0EA9E42F0E99D42F0E8A4
:1010A0009C45F022E8600FECC313FCED13FDEE133A
:1010B000FEEF13FFD8F122E8600FEFC333FFEE33EA
:1010C000FEED33FDEC33FCD8F122E6FC08E6FD082A
:1010D000E6FE08E6FF22E6FB08E6F908E6FA08E67F
:1010E000CBF822ECF608EDF608EEF608EFF622EC67
:1010F000F0A3EDF0A3EEF0A3EFF022D083D082E4D2
:1011000093F608740193F608740293F60874039337
:10111000F6740473E709F60870FA8046E709F208E6
:1011200070FA803E88828C83E709F0A370FA807E93
:10113000E309F60870FA8076E309F20870FA806E27
:1011400088828C83E309F0A370FA806289828A83A3
:10115000E0A3F60870FA805689828A83E0A3F20839
:1011600070FA804A80D280FA80C680D4806580F28E
:101170008031801080A680EA809A80A880DA80E2A0
:1011800080CA803189828A83ECFAE493A3C8C5823D
:10119000C8CCC583CCF0A3C8C582C8CCC583CC70ED
:1011A000E9800D89828A83E493A3F60870F9ECFA4A
:1011B000A9F0EDFB2289828A83ECFAE0A3C8C582FC
:1011C000C8CCC583CCF0A3C8C582C8CCC583CC70BD
:1011D000EA80DD89828A83E493A3F20870F980CEE5
:1011E00088F0ED2402B4040050C4F582EB2402B46C
:1011F000040050BA232345822390116473BB010677
:1012000089828A83E0225002E722BBFE02E3228920
:10121000828A83E49322BB010CE58229F582E5836F
:101220003AF583E0225006E92582F8E622BBFE0665
:10123000E92582F8E222E58229F582E5833AF58301
:10124000E49322BB010689828A83F0225002F722AE
:10125000BBFE01F322FAE6FB0808E6F925F0F618D2
:10126000E6CA3AF622D083D082F8E4937012740171
:1012700093700DA3A393F8740193F5828883E473AC
:101280007402936860EFA3A3A380DFE540C39403D7
:10129000500A120855EF600122122CA9123550E4B1
:1012A000F52EE4F526F525F524F523122455EF60F7
:1012B0000D1231F5122CA9122455EF600122E52EF2
:1012C000700D854982854883E054FD64E96053E4EC
:1012D000FDED64406049E54924BEFFE5483401FE68
:1012E000ED7A002FFFEA3EF583EF2404F582E43522
:1012F00083F583E06023E54924BEFFE5483401FE21
:10130000ED2FFFEA3ECF2408CF3400FE1234BD8F0C
:10131000268E258D248C23800974102DFD80B27FAC
:101320009222AF26AE25AD24AC239078121210EF96
:10133000122455EF600122854982854883E054FDDF
:1013400064E960037FA122E549240DF582E4354874
:10135000F583E0F522F54790781A7406F0E547200A
:10136000E611E54725E0F54790781AE014F070EDB6
:10137000752201E5492416123541907818EEF0A344
:10138000EFF04E702CE54924241234B88F348E339C
:101390008D328C31E4FBFA7901F8D31210935007A7
:1013A000E52E60037FA222907818E533F0A3E534A0
:1013B000F0E5492414F582E43548F583E0FFE5497A
:1013C0002413F582E43548F583E04F6012E54924A3
:1013D00013123541E48F3D8E3CF53BF53A800FE525
:1013E0004924201234B88F3D8E3C8D3B8C3AE54920
:1013F0002411123541CCEECCCDEFCD907827E0FE14
:10140000A3E07805CEC313CE13D8F9147E002DFFC8
:10141000EE3CFEE53024FBFDEFC8EDC8088005CEAC
:10142000C313CE13D8F9FFE4FCFD90782F1210EF10
:10143000E549240E1235418E3E8F3F907819E02504
:101440003FFF907818E0353EFEE4FCFD90782FE0F9
:10145000F8A3E0F9A3E0FAA3E02FF534EA3EF53370
:10146000ED39F532EC38F531E5492410F582E435F3
:1014700048F583E0D39401401E907818E0FEA3E085
:10148000FFE5342FF534E5333EF533ED3532F532F3
:10149000EC3531F5318007E4907818F0A3F0C3E51E
:1014A0003D9534FFE53C9533FEE53B9532FDE53A4D
:1014B0009531FC90781AE0F81210A490781F121061
:1014C000EFE47BF57AFFF9F8D3121093401FE49014
:1014D0007816F0A3F0907821E0FEA3E094F5EE9466
:1014E0000F50057547018024754702801FE5492488
:1014F00030123541907816EEF0A3EFF0E549242C38
:101500001234B890782F1210EF754703E53F453E2F
:10151000604E90782FE0FCA3E0FDA3E0FEA3E0FF87
:10152000EC4D4E4F603AE5492410F582E43548F51C
:1015300083E0D39401400A907818E07002A3E06041
:101540001FE549240BF582E43548F583E07011E589
:1015500049240CF582E43548F583E0C39402500A2F
:10156000E52E7006752E010212A2E53F2526FFE545
:101570003E3525FEE43524FDE43523FC90781B122E
:1015800010EFE5342526FFE5333525FEE532352419
:10159000FDE5313523FC9078231210EF7D107F0399
:1015A0001233F0228D58EFC8E547B402071210CA73
:1015B00078018008B403121210CA78021210B78F93
:1015C0005C8E5B8D5A8C59802B1210CA8E598F5AA3
:1015D000EF30E00543451080035345EFE559C31351
:1015E000FEE55A13255AFFE5593EFEE48F5C8E5BFB
:1015F000F55AF559907828E024FFFD907827E034DB
:10160000FF5EFEED5F2549F52FEE3548F52EAF5C08
:10161000AE5BAD5AAC5912340C90781BE0F8A3E0E5
:10162000F9A3E0FAA3E02FF55CEA3EF55BE93DF5AE
:101630005AE83CF559E55C652A7012E55B6529704E
:101640000CE55A65287006E5596527601D300907C5
:10165000122EABEF600122855923855A24855B2524
:10166000855C26122455EF600122E5586023B4FF03
:10167000028006E558B4010BE4F55CF55BF55AF51C
:1016800059800C85315C85325B85335A853459D25B
:1016900009E5476402703F852F82852E83E0F53689
:1016A000A3E0F537853639853738E4F536F537AEBA
:1016B00038AF39C3EF94F7EE94FF4003D38001C3F2
:1016C000920BE558600D852F82852E83E559F0A396
:1016D000E55AF07F0022E5476403705A852F828522
:1016E0002E83E0FCA3E0FDA3E0FEA3E0F5398E38F5
:1016F0008D378C36E53954F0FFE55C540F4FF55CBF
:10170000E539540F853639F536AF388537388F3798
:10171000AF36EFC3940F4003D38001C3920BE5585B
:101720006011AF5CAE5BAD5AAC59852F82852E83BC
:101730001210EF7F0022535A0F907828E02549FFBE
:10174000907827E03548CF24FFCF34FFFEEF652F98
:101750007003EE652E6056852F82852E83E0F53668
:10176000852F82852E83A3E0F537E5587003021894
:101770002CE54530E423E559C454F0FFE536540F19
:101780004F852F82852E83F0E55AC454F0FFE5592A
:10179000C4540F4FA3F002182C852F82852E83E5A9
:1017A00059F0E53754F0455AA3F002182C852F82E2
:1017B000852E83E0F536E5586024E54530E40EE5F6
:1017C00059C454F0FFE536540F4FFF8002AF5985DE
:1017D0002F82852E83EFF0122EABEF600122E52AD7
:1017E0002401F526E43529F525E43528F524E435EA
:1017F00027F523122455EF6001228549828548830D
:10180000E0F537E5586025E54530E40FE55AC45466
:10181000F0FFE559C4540F4FFF8007E53754F045FA
:101820005AFF854982854883EFF0D209E54530E4C7
:1018300013E537C454F0FFE536C4540F4FF539E5CE
:1018400037C48005853639E537540FF538E4F53669
:10185000F537AE38AF39C3EF94F7EE940F4003D3AA
:101860008001C3920B7F00221200038F35E5357093
:101870000A122B7EEF70030219DB22E53564426009
:1018800003AF3522907828E024E0FF907827E034F9
:10189000FFFEC3E53F9FE53E9E50030219DBE53D99
:1018A000700FE53A700BE53B7007E53C70030219D9
:1018B00069907826E0FF90782DE0C39FFFE5221421
:1018C000FE5FF535E53F6008EE653560030219DB24
:1018D0007F3AE4FD1215A4EF600122200B030219E8
:1018E000DB12345CEF6001227F3A7D021215A4EF17
:1018F000600122122EABEF600122123550E4FFFE90
:10190000907827E06EFCA3E06F4C6013E5492FF55B
:1019100082E5483EF583E4F00FBF00010E80E1E46C
:10192000F53512309EE53F7012F53EF53FAF26AE1D
:1019300025AD24AC2390782A1210EF852236E536A7
:101940006020122308EF600122E5262401F526E439
:101950003525F525E43524F524E43523F52315361E
:1019600080DC122DB1EF607322E53F706E90782A13
:10197000E0FCA3E0FDA3E0FEA3E024FFFFEE34FFC4
:10198000FEED34FFFDEC34FFFC90782A1210EF12CC
:101990002443EF600122E4F53EF53FD3907828E040
:1019A000953F907827E0953E402EE549253FFFE59D
:1019B00048353E8F82F583E0B4E510E582240BF5CF
:1019C00082E43583F583E0540E60107420253FF5E2
:1019D0003FE4353EF53E80C37FB22212345CEF60B7
:1019E0000122122EABEF6001227F06123569EF54FF
:1019F000BF648060037F112285343D85333C85328E
:101A00003B85313A122DB1EF600122122443EF6081
:101A10000122E549253FFFE548353EFEE4FDEDC3E3
:101A2000940B50047C2080027C00EF2DF582E43E74
:101A3000F583ECF00DBD20E6EF2418F582E43EF5C9
:101A4000837421F0A37430F0EF241CF582E43EF59A
:101A5000837401F0E4FDEDC3940B5021A82DE6FC46
:101A6000601BECB42E047D08052DA82DE6FCEF2D9F
:101A7000F582E43EF583ECF00D052D80D9853D36E9
:101A8000853C37853B38853A39EF241AF582E43EA8
:101A9000F583E536F0A3E537F0EF2414F582E43E54
:101AA0001222FFEF600122853D34853C33853B32B5
:101AB000853A31E4F544F543F542F541F54EF54DEF
:101AC000F54CF54BF5357D147F101233F022E540CF
:101AD000D394145007E540C3941250037FB4227886
:101AE0006CE6FF08F67006300A030230E8E4786C12
:101AF000F6786EF608F6786DE67003021C36E5356A
:101B0000F4704AE53D700CE53A7008E53B7004E579
:101B10003C602DE540B41209E547640360037FB1E2
:101B200022AF34AE33AD32AC3178761210E31234DA
:101B300068EF6001227F767D021215A4EF60082213
:101B4000122E30EF600122786F16E4F53512309EC8
:101B5000786EE66069E530B409047F408014E530B2
:101B6000B40A047F20800BE530B40B047F108002A0
:101B70007F08EF3395E0FE786EE6C39FEE6480F851
:101B8000748098502E786EE6FFE4FCFDFE787012AB
:101B900010D6EF2BFFEE3AFEED39FDEC38FCEF6589
:101BA00026FFEE6525FEED6524FDEC6523FC4D4E1C
:101BB0004F600B121CADEF600122E4786EF6786E78
:101BC000E6700DAF26AE25AD24AC2378701210E37D
:101BD000C3E5229535FF786DE6FEEFD39E400CE617
:101BE0000826F618E62535F535804B786EEF26F693
:101BF000C318E69FF6E670187875E6654970041814
:101C0000E66548700B121CADEF600122E4786EF6B9
:101C10007F31E4FD1215A4EF600122300B0675350B
:101C2000FF021AF6853631853732853833853934E7
:101C3000E4F535021AF6300907122EABEF600122E7
:101C4000786EE66007121CADEF600122786FE660E7
:101C500035AF34AE33AD32AC3178761210E3786FF5
:101C6000E6FFE4EFF53474FFF533F532F531122D6C
:101C7000BBCBEFCB78761210CA8F348E338D328C7B
:101C800031EB6002FF22AF4EAE4DAD4CAC4BAB44DE
:101C9000AA43A942A841C3121093500E854E448511
:101CA0004D43854C42854B41D20A7F0022E4F546E4
:101CB0007F70786EE6FD7B2A122F19E54A602DE5CC
:101CC00030B409047F088014E530B40A047F108022
:101CD0000BE530B40B047F2080027F40786EE6FE77
:101CE000EF8EF0A485F036F537021E4E7DC87F06D4
:101CF000123500E54F30E6047F4080027F80787423
:101D0000E6FC08E6FD1233357874EEF608EFF67D52
:101D1000407F0B123500634F40AD4F7F0E123500F0
:101D2000C20BE530B409047F088014E530B40A041E
:101D30007F10800BE530B40B047F2080027F407859
:101D40006EE6FEEF8EF0A485F036F537E537B40188
:101D500004E536601CE54F30E6047F4080027F805A
:101D60007874E6FC08E6FD1233357874EEF608EF79
:101D7000F61226C9E54A601B7DC07F06123500E5D4
:101D80004A642E6003021E4EE5466003021E4EAFFB
:101D90002C805B634F40E537B40104E5366007AD46
:101DA0004F7F0E123500E537600D1537AF37EF70F6
:101DB0009BE5366008809515361537808F7DC07F8E
:101DC0000612350090BDF1740DF090BCF0E52BF0DB
:101DD000E54FF0D20B634F801226C9E54A601763C6
:101DE0004F80E54A642E7066E5467062AF2B123272
:101DF000A275460180CE7F0B123569EF640D704EDF
:101E00007FCC123569EF703C786EE6786C26F678F8
:101E10006EE6FEE53024F8FDE4C8EDC8088005C391
:101E200033CE33CED8F9FFE4FCFDE54E2FF54EE579
:101E30004D3EF54DED354CF54CEC354BF54B123533
:101E40007B7F00227FCC123569EF6401600BE54A8D
:101E5000B416037F82221231F5E546C39405501271
:101E6000123230E546C39403400312313205460274
:101E70001CB0754A1F12342F12313222E4F534F5AA
:101E800033F532F53190781FE0FCA3E0FDA3E0FECE
:101E9000A3E0FFAB34AA33A932A831D31210934088
:101EA000037FB122E5342401F534E43533F533E41E
:101EB0003532F532E43531F5317F31E4FD1215A4C8
:101EC000EF600122E539700FE536700BE5377007DA
:101ED000E5387003022007E547640160A885482EB5
:101EE00085492FE54764027051907827E0C313FEBF
:101EF000A3E01324FFFFEE34FFF5368F37F5388F5C
:101F0000397402252FF52FF582E4352EF52EF58351
:101F1000E07011A3E0700D852F82852E8374FFF091
:101F2000A3021F8FE5376009D537D6E536600880F4
:101F3000D01536153780CA021FEE907827E0FEA331
:101F4000E07802CEC313CE13D8F924FFFFEE34FF9E
:101F5000F5368F37F5388F397404252FF52FF58234
:101F6000E4352EF52EF583E06003021FD3A3E06075
:101F700003021FD3A3E0705BA3E0540F7055852FBD
:101F800082852E8374FFF0A3F0A3F0A3E0440FF04A
:101F9000AE38AF39EF4534FFEE4533FEE532FDE5AF
:101FA00031FCEEC0E0EFC0E0E53724FFFFE536345A
:101FB000FFCBEFCBFAD0E0FFD0E0FEC3EF9BF534D0
:101FC000EE9AF533ED9400F532EC9400F531D20938
:101FD0007F0022E53760101537E5376003021F5890
:101FE000E536600A021F5815361537021F58AE38FD
:101FF000AF39E5344FF534E5334EF533E532F5329C
:10200000E531F531021E857F317DFF1215A422E4F2
:10201000F5467F70786EE6FD7B28122F19E54A6041
:102020002DE530B409047F088014E530B40A047F3C
:1020300010800BE530B40B047F2080027F40786E67
:10204000E6FEEF8EF0A485F036F53702217190BDE3
:10205000F17406F090BCF074CCF090BDF1740DF00A
:1020600090BCF0E52BF0E54FF0D20B634F40E5302C
:10207000B409047F088014E530B40A047F10800B93
:10208000E530B40B047F2080027F40786EE6FEEFDF
:102090008EF0A485F036F5371226C9E54A60097D31
:1020A000C07F06123500805D634F80E537B40104C0
:1020B000E5366007AD4F7F0E123500E54F30E7047F
:1020C0007FC080027F807874E6FC08E6FD12330949
:1020D0007874EEF608EFF6E5376009D537BAE536DD
:1020E000600880B41536153780AE7DC07F06123586
:1020F00000AD4F7F0E123500634F801226C9E54AAE
:10210000601A634F80E54A642E7066E5467062AFE0
:102110002B1232A275460112351E80DC7F0B123560
:1021200069EF640D704B7FCC123569EF7039786EB2
:10213000E6786C26F6786EE6FEE53024F8FDE4C815
:10214000EDC8088005C333CE33CED8F9FFE4FCFDDB
:10215000E54E2FF54EE54D3EF54DED354CF54CEC8D
:10216000354BF54B7F00227FCC123569EF6401605F
:102170000BE54AB416037F82221231F5E546C3947B
:10218000055012123230E546C39403400312313237
:102190000546022012754A1F12342F12313222E5F1
:1021A00040D394145007E540C3941250037FB422E7
:1021B000786CE608F6E418F6786EF6C3E544954EBA
:1021C000FFE543954DFEE542954CFDE541954BFC01
:1021D00012340C8F398E388D378C36E5377004E524
:1021E000386006786F76FF8004786FA639786DE6E0
:1021F00070030222F4786FE670030222F4E535F4EE
:1022000070030222F412309E786EE66069E530B405
:1022100009047F408014E530B40A047F20800BE578
:1022200030B40B047F1080027F08EF3395E0FE7816
:102230006EE6C39FEE6480F8748098502E786EE648
:10224000FFE4FCFDFE78701210D6EF2BFFEE3AFE95
:10225000ED39FDEC38FCEF6526FFEE6525FEED65FA
:1022600024FDEC6523FC4D4E4F600B12200FEF60F8
:102270000122E4786EF6786EE6700DAF26AE25ADDD
:1022800024AC2378701210E3C3E5229535FFF536B0
:10229000786FE6FEEFD39E4003E6F536E536D37859
:1022A0006D96400CE60826F618E62535F53580498A
:1022B000C3786DE69536F608E53626F6C308E6954A
:1022C00036F6E5362535F535652260030221ED7FCA
:1022D00031FD1215A4EF600122300B067535FF02A7
:1022E00021ED853631853732853833853934E4F54B
:1022F000350221ED786EE6600302200F7F0022F5A3
:1023000083E538F0A3E539F0E4F5467F237B2A7DA9
:1023100001122F19E54A600302241B7DC87F0612B3
:102320003500E54F30E6047F4080027F80AC48AD49
:10233000498C278D281233358E278F287D407F0BBF
:10234000123500634F40AD4F7F0E123500E530B4BB
:1023500009047F088010B40A047F108009B40B04BC
:102360007F2080027F408F37E53764016016E54F9C
:1023700030E6047F4080027F80AD28AC27123335E1
:102380008E278F281226C9E54A60187DC07F061265
:102390003500E54A642E600302241BE546707CAFDD
:1023A0002C8050634F40E53764016007AD4F7F0ECE
:1023B000123500D537B27DC07F0612350090BDF1D1
:1023C000740DF090BCF0E52BF0E54FF0D20B8523B7
:1023D0002785242885252985262A634F801226C92A
:1023E000E54A6017634F80E54A642E702EE546701B
:1023F0002AAF2B1232A275460180C27F0B123569BB
:10240000BF0D187FCC123569EF700612357B7F0047
:10241000227FCC123569EF6401600BE54AB41603E4
:102420007F82221231F5E546C39405500FE546C37D
:1024300094034003123132054602230B1234291251
:1024400031322290782AE0F523A3E0F524A3E0F5C9
:1024500025A3E0F526E526652A7015E52565297092
:102460000FE52465287009E5236527700302257EA2
:10247000E4F5467F237B287D01122F19E54A60038E
:1024800002255790BDF17406F090BCF074CCF0902A
:10249000BDF1740DF090BCF0E52BF0E54FF0D20BE0
:1024A000634F40854827854928E530B409047F08F3
:1024B0008010B40A047F108009B40B047F208002CE
:1024C0007F408F371226C9E54A60097DC07F06121A
:1024D00035008050634F80E53764016007AD4F7F62
:1024E0000E123500E54F30E7047FC080027F80ADDB
:1024F00028AC271233098E278F28D537C77DC07F98
:1025000006123500AD4F7F0E123500852327852436
:102510002885252985262A634F801226C9E54A6029
:102520001A634F80E54A642E702DE5467029AF2B63
:102530001232A275460112351E80D07F0B1235690A
:10254000BF0D147FCC123569EF7002FF227FCC12D1
:102550003569EF6401600BE54AB416037F822212ED
:1025600031F5E546C39405500FE546C39403400397
:1025700012313205460224731234290231327F00AF
:10258000224572726F723A20253032580A00537415
:102590006172740A005761697420556469736B0A2B
:1025A000005265616479203F0A004465766963657D
:1025B00020676F6E650A004E6F20556469736B204B
:1025C000696E205553425F4855420A00556E6B6E46
:1025D0006F776E206465766963650A00546F6F20BB
:1025E0006C6172676520736563746F722073697ABA
:1025F000650A004F70656E0A005C4335315C4348E4
:102600003337344846542E43005C2A005C4335314E
:102610005C43482A004C6973742066696C65202508
:10262000730A0020206D617463682066696C652000
:1026300025303464233A2025730A00D5D2B2BBB5C5
:10264000BD2F4335312F43483337344846542E434A
:10265000CEC4BCFE0D0A00526561640A0053697A5B
:10266000653D256C642C204C656E3D25642C205303
:1026700065633D25640A00436C6F73650A004C690D
:102680006E6520313A2025730A00437265617465D6
:102690000A005C4E455746494C452E545854005745
:1026A000726974650A004D6F646966790A00546145
:1026B0006B65206F75740A0090BDF1740DF090BCCD
:1026C000F0E52CF0E54FF0C20BE4F539E4F54A12E1
:1026D000358090BDF17409F0E030E06B90BCF0748F
:1026E00011F0E0FF300B0E5407B40313EF30E43663
:1026F000E4F54AFF22540FB40205E4F54AFF22EF45
:10270000540FFEBE0A05E54520E729EF5403700388
:10271000D38001C34007EE4420FFF54A227F09120F
:102720003569EF20E121E545540FFF0539AE39EE5B
:10273000D39F500D7F0E123569EF4408FD7F0E8048
:1027400027754A207F2022754AFF7F04123569D5FC
:102750004AF87F091235698F39E53930E173123152
:10276000B8BF090A7D027F091235000226CC7540E8
:1027700001E4907834F07D137F0912350090782EB3
:10278000E060047DC080027D807F0612350012313A
:10279000B8EF603775400290782EE0D3940150076F
:1027A000E5395480FF80157F0212356990782EE05C
:1027B000B403047E2080027E10EF5EFFEF6006759A
:1027C0004A157F1522754A137F1322754A167F1604
:1027D000227D1F7F09123500E53930E306754A0670
:1027E0007F0622754A057F0522E540C394135003F6
:1027F0007FB422122443EF600122C209E549253F3C
:10280000FFE548353ECBEFCBFA7874E6FFEB240BBF
:10281000F582E43AF583E0F6EFF460138B828A8365
:10282000E582240BF582E43583F583EFF0D2097855
:1028300072E6F53908E6F538EB2416FFE43AFE12A5
:10284000354618EEF608EFF6E538F4FEE539F44EB5
:102850006012EB2416F582E43AF583E538F0A3E53F
:1028600039F0D2097870E6F53908E6F538EB241826
:10287000FFE43AFE12354618EEF608EFF6E538F4B6
:10288000FEE539F44E6012EB2418F582E43AF58344
:10289000E538F0A3E539F0D209786C1210CA7878DF
:1028A0001210E3EB241CFFE43AFE1234BD786C12E4
:1028B00010E37878E6F4601E1210CA8F448E438DC0
:1028C000428C41123574EB241CF582E43AF58312F4
:1028D00010EFD209C20A300905C2090223087F009D
:1028E000227F06123569EF54404480FD7F06123581
:1028F000007F09123569EF30E1121231B8EF640937
:1029000060031233AA7D137F091235001231B8EF2C
:1029100070030229D3E540C394025008754002E4D5
:10292000907834F0907834E07002FF221234F790FF
:102930007833E0604912350BE54A702E854982856F
:102940004883A3A3E030E0097540021234CD122A77
:10295000BA854982854883E030E01E907833E024D0
:1029600010FD7F081235007F0022E54A641660637F
:10297000E54A30E5045403605A754002804D907872
:1029800033E004F012350BE54A702485498285480E
:1029900083A3A3E030E0061234CD122ABA8549821F
:1029A000854883E030E017A3E020E1127F0022E5B4
:1029B0004A6416601EE54A30E504540360159078B9
:1029C00034E0FF907833E0C39F40B3E4907833F075
:1029D0007F84221233AA22E4900801F0A3F0A3F02E
:1029E000907829E0900805F0E4F5387C307D497F47
:1029F0000412348C7A087B007D117F481234A27D4A
:102A00001F7F0B1235001226B8E54AB416037F82E9
:102A100022E54A600FE5386003022A9C1231F57501
:102A2000380180C7634F40900800E0604912351EAE
:102A30001226C9E54A600DE54A642E705FAF2B127D
:102A400032A28032634F807F0B1235698F397F4FFE
:102A5000123569BF030A7F53123569EF6412600EA5
:102A6000123550AB49AA48AD397FC01234439008A3
:102A700000E0C39539F012351E1226C9E54A701CD4
:102A8000634F807FCC1235698F397F0B123569BF58
:102A90000D07E539C394024006754A1F0231F5E57A
:102AA000397002FF22754A1F7F1F227F0812348C63
:102AB000907811E0FD7F441235007F0112326B7D6A
:102AC000087F0B1235007DD07F0D1235007D0C0F75
:102AD000123500C20B1226C9E54A6003AF4A22D262
:102AE0000B7F46123569EF606C1235507F01123250
:102AF0006B7D907F0D1235000F123569EF648044B5
:102B00000CFD7F0E1235001226C9E54A6003AF4A5C
:102B1000227F0B1235698F4A7F471235698F39AF93
:102B200039EF2549FBE43548FAAD4A7FC0123443FA
:102B3000E54A2539F539AD397F471235001F123581
:102B400069E539C39F500CE54A5407609F754A17E1
:102B50007F1722C20B7F0112326BE4FD7F0B12350F
:102B600000300B047F0980027F01EFC454F0FD7F29
:102B70000D1235007DCC0F1235001226C922E5401A
:102B8000C394135007120003EF6001221233ECEFDD
:102B9000600122122443EF600122E549253FFFE551
:102BA00048353E8F82F58374E5F0122308EF60010B
:102BB00022AF3DAE3CAD3BAC3A8F398E388D378C71
:102BC00036EC4D4E4F604EE53D24FFF53DE53C347F
:102BD000FFF53CE53B34FFF53BE53A34FFF53AE4DD
:102BE000F534F533F532F5317F367D011215A4EF5A
:102BF000600122E5342401F534E43533F533E4355E
:102C000032F532E43531F531300BDD122EABEF60A9
:102C10000122022DBB7F0022E53D700CE53A7008D1
:102C2000E53B7004E53C6072853D34853C33853B73
:102C300032853A31AF22E4FCFDFE786C1210D6C327
:102C400012109340387F31E4FD1215A4EF60012289
:102C5000200B4785363185373285383385393478CE
:102C60006C1210CAAB22C3EF9BFFEE9400FEED94F2
:102C700000FDEC9400FC786C1210E380B7786FE6EE
:102C8000FFE522145FF53512309EAF26AE25AD2448
:102C9000AC23786C1210E37F00227535FF786C123C
:102CA00010FBFFFFFFFF7F00227537647D087F2543
:102CB0001232D8900806740AF0E490080BF012293A
:102CC000D78F36E5367044E5492406F582E4354869
:102CD000F583E0FFB4040575300A8013B408057568
:102CE000300B800BB4100575300C800375300974FF
:102CF000017E00A830088005C333CE33CED8F990CA
:102D00007828F0EE907827F07F0022E53664166090
:102D10001DE53664156017E53664136011123475CD
:102D20007F3212326B1537E5376003022CACAF36B9
:102D300022E540C3941250037FB422E54064127030
:102D40004FE54764036049907832E0F522AE43E5F1
:102D500044A830088005CEC313CE13D8F9FFE4FC95
:102D6000FD90782F1210EF907823E0F8A3E0F9A3FC
:102D7000E0FAA3E0FB907832E0FFE4FCFDFEEB2FED
:102D8000FFEE3AFEED39FDEC38FC9078231210EF9F
:102D9000E540D39413400AE540B41407786CE6701C
:102DA00002C20A300A071230E8EF6001221233EC47
:102DB0002274FFF534F533F532F531907816E0FCE6
:102DC000A3E0FD4C7002FF22EDCFECCEE4FCFD90C1
:102DD0007812E0F8A3E0F9A3E0FAA3E02FF526EAE1
:102DE0003EF525ED39F524EC38F523122455EF6036
:102DF0000122E54924E8FFE5483401FE1234BDE52F
:102E0000342FF534E5333EF533E5323DF532E53127
:102E10003CF531AF34AE33AD32FC123574E54924A4
:102E2000E8F582E5483401F5831210EF12230822F9
:102E3000121E85EF600564B1600122EF6007121E6B
:102E40007CEF600122122EABEF60012285343D85BC
:102E5000333C85323B85313A122443EF600122E551
:102E600049253FFFE548353EFEF583EF241CF582FA
:102E7000E43583F5837401F0853D36853C37853B29
:102E800038853A398F828E83E582241AF582E435BB
:102E900083F583E536F0A3E537F08F828E83E582F4
:102EA0002414F582E435831222FF22852723852806
:102EB00024852925852A26122308EF60012290788F
:102EC00018E0FEA3E0FF4E604BE4FCFDE5262FF585
:102ED00026E5253EF525ED3524F524EC3523F523AF
:102EE000122308EF600122907818E0FEA3E0FBCAED
:102EF000EECAC3E5269BF526E5259AF525E524943B
:102F000000F524E5239400F523F52785242885255D
:102F10002985262AC2097F002290BDF17440F090D5
:102F2000BCF07455F07453F07442F004F090BDF1AD
:102F30007448F0E490BCF0F0E53024F8F8ED088037
:102F400002C333D8FCF0E4F0F0BB2A03FE80027E1B
:102F500080EEF0907829E090BCF0F0740AF0EBF08D
:102F6000E4F0EFC8E6F008E6F008E6F008E6F0E482
:102F7000F0F0EDF0E4F090BDF1740BF090BCF07463
:102F80001FF00226B8E4F5407D557F801235007DA4
:102F9000AA0F1235001F123569BF550A7F811235FD
:102FA00069EF64AA60037F8122E4FD7F0612350089
:102FB0007F0E123500754585E4F54690782774023A
:102FC000F0A3E4F090782EF0F54F7D1F7F091235C5
:102FD000007F07123569EF54F04403FD7F07123577
:102FE000007D407F051235001233AA7F0022E540A4
:102FF000C3941250037FB422AF44AE43AD42AC4100
:1030000012340C8F398E388D378C36786C1210D67E
:10301000D3121093400DAF39AE38AD37AC36786C63
:103020001210E3786C1210CAE53024F8F9F8121087
:10303000B78F398E388D378C3685374B85384C8530
:10304000394DE4F54E122C1822555342430021FF0E
:1030500000000000000080060001000012000005D2
:103060000200000000008006000200000400A0062C
:103070000029000009000009000000000000A1FE76
:103080000000000001000201000000000000A30099
:103090000000010004002301100001000000E534DD
:1030A00024FEFFE53334FFFEE53234FFFDE5313425
:1030B000FFFC90781AE0F81210B7907823E0F8A39C
:1030C000E0F9A3E0FAA3E02FFBEA3EFAE93DF9E8D4
:1030D0003CF8E4FCFDFEEB2535F526EE3AF525ED52
:1030E00039F524EC38F52322C20AE540C394144094
:1030F0003E122443EF600122E549253FFFE54835B4
:103100003ECBEFCBFAF583EB240BF582E43583F568
:1031100083E020E41AAF44AE43AD42AC41123574B3
:10312000EB241CF582E43AF5831210EF0223087FAA
:1031300000227F0212326B7D117F0912350012319D
:10314000B8EF600BE54A64166005E540B401030280
:1031500033AAE540C394034015854A377D127F03A7
:103160001232D81229D785374A7F0212326BE54ACC
:1031700070037F1022AF4A221228E1EF600122E59E
:1031800040C39403501B120855EF600C7F3212327B
:103190006B120855EF600122122CA9EF6003023177
:1031A00032E4FDFF1232D81229D78F36E53670028D
:1031B000FF22123475AF362290782EE0FEB401045F
:1031C0007F028006EEB4020A7F03123569EF5409CC
:1031D000FF2290782EE0B4030D7F03123569EF547F
:1031E00090C4540FFF22E490782EF07F09123569C5
:1031F000EF5420FF22854A387F0212326B1228E1F9
:103200008F4AE54A6003AF4A227C307D4E122AABDA
:10321000E54AB416037F8222E54A700AAF2B1232C8
:10322000A2AF2C1232A27F0212326BAF388F4A2229
:10323000786EE67E00A830088005C333CE33CED842
:10324000F9FDCCEECCE537AE367806C333CE33CEBF
:10325000D8F9FFC3ED9FFFEC9EFEC3E49FFFE49E01
:10326000FE7875EF26F618EE36F622CEEFCE7F0604
:10327000123569EFF4602AEF30E7268E397F0412A9
:103280003569EF20E5F7AF391539EF60147F041287
:103290003569EF30E5F77F04123569EF30E5E780F7
:1032A000F5228F397C307D867F0812348CE539C455
:1032B000540FFFBF090DE539540F4480F539534FC2
:1032C0007F800FE539C4540FFFBF010653390F53F8
:1032D0004FBFAD39122AB522900800EDF060047E90
:1032E0008080027E00900804EEF09008067406F0DC
:1032F000A3EFF0E4A3F0A3F0A3F0A3EDF0E4A3F0B8
:10330000A3F0A3F0A3F0A3F02290BDF1EFF0ECFE48
:10331000EDFF7D1090BCF0E0FCE0FBE0FAE08E8376
:103320008F82CCF0A3EBF0A3EAF0A3ECF0A3AE8382
:10333000AF82DDE02290BDF1EFF0ECFEEDFF7D10FD
:103340008E838F82E0A3FCE0A3FBE0A3FAE0A3AEB0
:1033500083AF8290BCF0CCF0EBF0EAF0ECF0DDE073
:1033600022EFB40A07740D12336C740A309811A856
:1033700099B8130CC2983098FDA899C298B811F664
:103380003099FDC299F59922EF601E7BFF7A25796D
:1033900081755B008F5C120C76C2947F6412326B75
:1033A000D2947F6412326B80F022754001E49078F1
:1033B00034F0FD7F0812350090782EE060047DC067
:1033C00080027D807F061235007F8222E581D394C2
:1033D000EE40037FFC22123584EFC3941450037F28
:1033E000FF22754800754900122F85227D107F103D
:1033F000E540C39F40028D40E5406D7002FF22759D
:1034000040011228E1EF6001227F8322C3E4CC1344
:10341000CD13CE13FFE53024F7600DF8C3ED13FD97
:10342000EE13FEEF13FFD8F422123550754A1FE554
:1034300040B4120475400322E540D3941040037554
:1034400040102290BDF1EFF0ED601090BCF0E08BE9
:10345000828A83F00BBB00010ADDF022853D3485B2
:103460003C33853B32853A31121E85EF64B16001F1
:1034700022121E7C227F0A12326B7D127F031232CF
:10348000D81229D77F0212326BAF4A2290BDF17455
:1034900040F07E008D828C83EE9390BCF0F00EDFC6
:1034A000F32290BDF1EFF08B828A83E090BCF0F0C4
:1034B0000BBB00010ADDF022FFE43548FE8F828E4F
:1034C00083E0FFA3E0FEA3E0FDA3E0FC227C307DCF
:1034D000967F0812348C907833E0547FFD7F44024D
:1034E0003500E4FFFE1211FD600C0FEF70010E09B4
:1034F000E970F20A80EF2290782EE02402FD7F0826
:1035000090BDF1EFF090BCF0EDF0227C307D8E7F2D
:103510000812348C907833E0547F122AB42290BD84
:10352000F1740DF090BCF0E52BF0E54FF0D20B22DA
:10353000759850758780758920758DF3D28ED299D4
:1035400022FFE43548FE8F828E83E0FFA3E0FE2257
:1035500074FFF52AF529F528F527C20922787FE4BA
:10356000F6D8FD75818902046F90BDF1EFF090BC33
:10357000F0E0FF22EFCCFFEECDFE227FFADFFE224D
:0835800020B2FD227F1422227B
:00000001FF
