:040000000C94ED016E
:14008C002D2A00202020202020202020303030303020202099
:1400A0002020202020202020202020202020209040404040DC
:1400B40040404040404040404040400C0C0C0C0C0C0C0C0C0C
:1400C8000C404040404040400909090909090101010101011C
:1400DC00010101010101010101010101010140404040404082
:1400F0000A0A0A0A0A0A0202020202020202020202020202A4
:140104000202020202024040404020000000000000000000BB
:140118000000000000000000000000000000000000000000D3
:14012C000000000000000000000000000000000000000000BF
:140140000000000000000000000000000000000000000000AB
:14015400000000000000000000000000000000000000000097
:14016800000000000000000000000000000000000000000083
:14017C0000000000000000000000000000000000000000541B
:14019000616B65206F75740A004D6F646966790A0057726904
:1401A40074650A005C4E455746494C452E54585400437265B6
:1401B8006174650A004C696E6520313A2025730A00436C6FFC
:1401CC0073650A0053697A653D256C642C204C656E3D25643F
:1401E0002C205365633D25640A00526561640A00D5D2B2BB3A
:1401F400B5BD2F4335312F43483337344846542E43CEC4BCB4
:14020800FE0D0A0020206D617463682066696C652025303417
:14021C0064233A2025730A004C6973742066696C6520257337
:140230000A005C4335315C43482A005C2A005C4335315C4370
:14024400483337344846542E43004F70656E0A00546F6F207F
:140258006C6172676520736563746F722073697A650A00559D
:14026C006E6B6E6F776E206465766963650A004E6F205564B3
:1402800069736B20696E205553425F4855420A004465766952
:14029400636520676F6E650A005265616479203F0A005761A5
:1402A800697420556469736B0A0053746172740A00457272FA
:1402BC006F723A20253032580A002301100001000000A30032
:1402D0000000010004000201000000000000A1FE0000000073
:1402E40001000009000000000000A00600290000090080069E
:1402F80000020000040000050200000000008006000100005E
:14030C00120021FF00000000000055534243003C696E746592
:14032000676572206F6E6C79207072696E74662C2073656C66
:140334006563742050726F6A6563742D3E4F7074696F6E732B
:140348002D3E5461726765742C224650207072696E74662216
:14035C0020746F207072696E7420666C6F6174696E67207039
:140370006F696E74206E756D626572733E00286E756C6C2062
:140384007074722070617373656429003031323334353637AA
:1403980038396162636465666768696A6B6C6D6E6F70717275
:1403AC00737475767778797A0030313233343536373839611B
:1403C00062636465666768696A6B6C6D6E6F707172737475C3
:1403D400767778797A00CFEFDFE0CDBFDEBFC852D0400AEAF9
:1403E80008830024EBE4F3E01DE0EB3EF10711F00192FBCF34
:1403FC000083EFE8F1E0A0E0B1E013E0EA3DF10721F0C89531
:1404100031960D92F9CF0E941F03FFCFB499FECF08950AE86F
:1404240012E002C00150104000300107D9F7089508950E948B
:140438007B0B043110F40FEF08C08BE49BE09093A70D809357
:14044C00A60D0E941D0C089522242ABA87E088BB8FE087BBFC
:140460000895C39A0BBB8FEF8ABB88B3897F88BB8FEF8ABBBC
:1404740088B3876088BB22242ABA88B3877F88BB08950BBBFE
:140488008FEF8ABB88B3817F88BB8FEF8ABB88B3876088BBF7
:14049C0022242ABA089522242ABA88B3827F88BB2ABA09B33C
:1404B00088B3876088BB08950E94E729402F042FD0DFEFDF65
:1404C4000E94EA2908950E94E529422F602F062FC6DF042F15
:1404D800D6DF0E94D72908950E94E329622FA02E4E815F8160
:1404EC000A2DB9DF04C0D7DFFA010193AF01262E3324615018
:140500002220B9F70E94D92908950E94E329622FA02E4E81D8
:140514005F810A2DA4DF04C0FA010191AF01B1DF262E3324FD
:1405280061502220B9F70E94D92908950E94E529B901402F02
:14053C00042F91DF40E115C0AEDFFB0100836F5F7F4FA9DFE2
:14055000FB0100836F5F7F4FA4DFFB0100836F5F7F4F9FDF60
:14056400FB0100836F5F7F4F4A95442349F78B010E94D729B4
:1405780008950E94E529B901402F042F6EDF40E115C0FB0187
:14058C0000817BDF6F5F7F4FFB01008176DF6F5F7F4FFB017A
:1405A000008171DF6F5F7F4FFB0100816CDF6F5F7F4F4A9597
:1405B400442349F78B010E94D72908950E94E529A901602FD8
:1405C80000E44BDFFA0100815ADF4F5F5F4F862F8150682FE3
:1405DC008823B1F70E94D72908950E94E729402F442309F4F4
:1405F00012C0242F33270AE212E00E94F82A0AC088B38F77CB
:1406040088BB04E60E94D90BC79A04E60E94D90BF5CF0E94F8
:14061800EA29089522242092900087E689B988E18AB986E0D5
:14062C008093950081E090E09093EA0D8093E90D08952A97C0
:1406400009DFC79ABF9A88B38F7788BB04E60E94D90BC79AAF
:14065400E3DF03E212E00E94F82AEBDE0E83C1DF2CC207E165
:1406680012E00E94F82A52C002E30E94D90B0E949A0C0023E0
:14067C0009F04AC008EC0E94D90B00240E822EC002E30E94C4
:14069000D90B0EE012E00E94F82A0E940421002309F425C002
:1406A4008091CE0D823028F401E012E00E94F82A1CC0809104
:1406B800CE0D833028F085E00E80801508F413C08091CE0D45
:1406CC00823049F42090AB0D222029F00CEE11E00E94F82AB9
:1406E00006C00E8003940E828E81843678F28091CE0D8330B9
:1406F40008F00FC08091CE0D823051F42090AB0D222009F0A5
:1407080005C00CED11E00E94F82AC3C1ADCF88B38F7788BBE6
:14071C002090A80D3090A90D80E092E08215930528F405ECE0
:1407300011E00E94F82AB1C10FEB11E00E94F82A2FEA31E0B5
:140744000CE51DE00E9413290E948A160E83033B19F0023485
:1407580009F071C08E81833B21F48CEA91E07C0103C083EAED
:14076C0091E07C01970105E911E00E94F82AAA24BB2436C0AD
:1407800097010CE51DE00E9413290CE51DE00E941C290E839B
:140794008CE59DE0E02FFF27E80FF91F8FEF80831501442420
:1407A80055243092C50D2092C40D5092C70D4092C60D0E94B0
:1407BC008A160E83023409F419C08E81833451F48CE59DE0F3
:1407D0009983888395010DE711E00E94F82A03C00E8101DF7D
:1407E40009C0C50101965C01C5018031E7E29E0708F4C4CF0A
:1407F80081E691E07C0100240E8212C0F70120808BE493E098
:14080C00EE81FF27E80FF91F2082222009F409C0C70101962B
:140820007C010E8003940E828E818F3F59F72E8033243886A2
:140834002F82002403940986E2C00E81D2DE0BE511E00E9451
:14084800F82A40E058E060E070E04090C60D5090C70D20908B
:14085C00C40D3090C50D421553056405750570F42091A80DC9
:140870003091A90D00E018E00E944C29098780E098E0988787
:140884008F832BC02090A80D3090A90D442455248090C60DC4
:140898009090C70D6090C40D7090C50D620C731C841C951C77
:1408AC0041E050E060E070E0641A750A860A970A4424552448
:1408C0005A924A923A922A92830194010E946629098720904A
:1408D400C40D3090C50D38862F82298433243D822C820F803E
:1408E80018841B820A824090C60D5090C70D2090C40D30909F
:1408FC00C50D48825982910101E411E00E94F82A0984009226
:140910005C0D8BE493E09093650D8093640D8091A80D909188
:14092400A90D01971C01442455248090C60D9090C70D6090AC
:14093800C40D7090C50D620C731C841C951C7092C50D6092F4
:14094C00C40D9092C70D8092C60D0E949D080E838091A80D4D
:140960009091A90D01971C01442455248090C60D9090C70D3F
:140974006090C40D7090C50D62187308840895087092C50DEA
:140988006092C40D9092C70D8092C60D28DE0AE311E00E9437
:14099C00F82A0E94D11A0E8320DE2090AF032E8222242092FF
:1409B000AF032BE433E00EE211E00E94F82A0E800092AF03E8
:1409C400AA24BB2417C08BE493E0F501E80FF91FC0808C2DBB
:1409D800813658F08AE78C1540F08BE493E0F501E80FF91FE3
:1409EC008C2D80528083C50101965C010F801884A014B1041B
:140A000020F306E211E00E94F82A29E131E00CE51DE00E9487
:140A140013290E94D91B0E83E4DD02E111E00E94F82A098485
:140A280000925C0D8BE493E09093650D8093640D0E94C50954
:140A3C000E83D3DD0AE011E00E94F82A8FEF8093640D9FEF36
:140A50009093630D8093620D82EB90E39093610D8093600D8C
:140A64002F8038844424552430925D0D20925C0D50925F0D9D
:140A780040925E0D0E943D1E0E83B1DD0AE311E00E94F82A6F
:140A8C00222420925C0D0E94D11A0E83A6DD00E011E00E94E1
:140AA000F82A08C00AE00E94D90B0E949A0C002309F001C0C3
:140AB400F7CFC79A08EC0E94D90BD3CD2A96089526E030E07A
:140AC8000091800D1091810D0E94072A180120917A0D33274F
:140ADC0000915E0D11270E94072A2801421853082090640D00
:140AF0003090650D241835083092650D2092640D08950E94B1
:140B0400DF29219722242092AD0D88E2888320915E0D00E6F4
:140B18001DE00E94DE1F2090CF0D222029F180917A0D8930F4
:140B2C0021F488E090E05C0115C080917A0D8A3021F480E1CE
:140B400090E06C010CC080917A0D8B3021F480E290E07C0141
:140B540003C080E490E07C016701560120905E0D2A9C109237
:140B6800810D0092800DEEC02CEC06E00E94650220917E0DDB
:140B7C000DE00E9465022091AF0D0EE00E94650281E0809397
:140B9000B00D80E42090AF0D28262092AF0D80917A0D8930B7
:140BA40021F488E090E05C0115C080917A0D8A3021F480E156
:140BB80090E06C010CC080917A0D8B3021F480E290E07C01C9
:140BCC0003C080E490E07C016701560120905E0D2A9C1092BF
:140BE000810D0092800D0E94F7252090CF0D222029F020ECA3
:140BF40006E00E94650259C080E890E02090AF0D33242826FC
:140C080039262092AF0D8091800D9091810D8130E0E09E07A8
:140C1C0021F0222D0EE00E9465022091640D3091650D209068
:140C3000AF0D27FE04C080EC90E05C0103C080E890E05C01DA
:140C44000A2D0E949A021093650D0093640D8091800D90914F
:140C5800810D01979093810D8093800D8030890709F0BDCF4C
:140C6C0020EC06E00E9465022091AF0D0EE00E94650280E8AD
:140C800090E02090AF0D3324282639262092AF0D0E94F72554
:140C94002090CF0D2220E9F080E890E02090AF0D33242826BC
:140CA80039262092AF0D8091CF0D8E3209F04AC02090AD0D51
:140CBC00222009F045C000917E0D0E94F92481E08093AD0DDB
:140CD0000E94D01FD4CF0BE00E945C020D30B1F50CEC0E9474
:140CE4005C02002359F520905E0D30905C0D320C30925C0D80
:140CF80020917A0D332728503040022D1127102F00270E94FF
:140D0C00072A1801442455248090C20D9090C30D6090C00D1C
:140D20007090C10D620C731C841C951C7092C10D6092C00D14
:140D34009092C30D8092C20D002726C00CEC0E945C020130A2
:140D480009F408C08091CF0D863111F402E81AC00E9436226B
:140D5C008091AD0D853068F4AFDE8091AD0D833010F00E94FA
:140D7000111F8091AD0D8F5F8093AD0DC8CE8FE18093CF0DC4
:140D84000E94421F0E94111F21960E94DD2908950E94DF29E0
:140D9800219722242092AD0D8AE2888320915E0D00E61DE067
:140DAC000E94DE1F2090CF0D222029F180917A0D893021F446
:140DC00088E090E05C0115C080917A0D8A3021F480E190E0DD
:140DD4006C010CC080917A0D8B3021F480E290E07C0103C058
:140DE80080E490E07C016701560120905E0D2A9C1092810DD6
:140DFC000092800D20C128EC06E00E9465022091640D3091FD
:140E1000650D2090AF0D26FE04C080E490E05C0103C080E8AC
:140E240090E05C010A2D0E94BD021093650D0093640D20E438
:140E38000BE00E94650280E42090AF0D28262092AF0D222DD7
:140E4C000EE00E94650222242092B00D80917A0D893021F480
:140E600088E090E05C0115C080917A0D8A3021F480E190E03C
:140E74006C010CC080917A0D8B3021F480E290E07C0103C0B7
:140E880080E490E07C016701560120905E0D2A9C1092810D35
:140E9C000092800D8091800D9091810D8130E0E09E07B1F01F
:140EB0002091640D3091650D2090AF0D26FE04C080E490E0B1
:140EC4005C0103C080E890E05C010A2D0E94BD021093650D18
:140ED8000093640D0E94F7252090CF0D2220B1F020EC06E0E3
:140EEC000E9465028091CF0D8E3209F0A4C02090AD0D222033
:140F000009F09FC000917D0D0E94F92481E08093AD0D23C09A
:140F140080E42090AF0D28262092AF0D8091800D9091810DF0
:140F28008130E0E09E0721F0222D0EE00E9465028091800DAA
:140F3C009091810D01979093810D8093800D8030890709F0D0
:140F5000A7CF20EC06E00E94650220917E0D0DE00E946502EA
:140F64002091AF0D0EE00E94650281E08093B00D80E890E00C
:140F78002090AF0D3324282639262092AF0D0E94F725209019
:140F8C00CF0D2220D9F080E890E02090AF0D33242826392622
:140FA0002092AF0D8091CF0D8E3209F04AC02090AD0D222073
:140FB40009F045C000917E0D0E94F92481E08093AD0DC9CF8A
:140FC8000BE00E945C020D30C1F50CEC0E945C02002369F5BE
:140FDC0020905E0D30905C0D320C30925C0D20917A0D3327C2
:140FF00028503040022D1127102F00270E94072A18014424E4
:1410040055248090C20D9090C30D6090C00D7090C10D620C97
:14101800731C841C951C7092C10D6092C00D9092C30D809251
:14102C00C20D0E941102002726C00CEC0E945C02013009F4F9
:1410400008C08091CF0D863111F402E81AC00E94362280915C
:14105400AD0D853068F434DD8091AD0D833010F00E94111F5C
:141068008091AD0D8F5F8093AD0D96CE8FE18093CF0D0E9489
:14107C00421F0E94111F21960E94DD2908958091CE0D823192
:1410900010F404EB51C02091C60D3091C70D0091C40D10912C
:1410A400C50D0E94AB0B1093810D0093800D3093830D2093B7
:1410B800820D40905E0D50905F0D20905C0D30905D0D0215B4
:1410CC0013052405350550F41801290130925D0D20925C0DC7
:1410E00050925F0D40925E0D80917A0D9927089740905E0D3F
:1410F40050905F0D20905C0D30905D0D8A93810192010E9485
:141108000E2A1093810D0093800D3093830D2093820D222E65
:14111C002092C30D212E2092C20D202E2092C10D2224E0EC8D
:14113000FDE020820E94302108950E94DF29229784E1209024
:14114400CE0D821520F08091CE0D823110F404EB16C12090FC
:141158005C0D20925D0D222420925C0D20925E0D4090C20DE1
:14116C005090C30D2090C00D3090C10D8090C60D9090C70DDD
:141180006090C40D7090C50D62187308840895088301940191
:141194000E94AB0B1093810D0093800D3093830D2093820D09
:1411A800112311F4222321F08FEF80935F0DD9C02090800DD1
:1411BC0020925F0DD4C020905F0D222009F4D4C08091840DDC
:1411D0008F3F09F4CFC00E94521F20905E0D222009F450C034
:1411E40080917A0D893021F480E490E07C0115C080917A0DD3
:1411F8008A3021F480E290E05C010CC080917A0D8B3021F4B1
:14120C0080E190E06C0103C088E090E06C015601750120900B
:141220005E0D33242E143F0424F53324442455248090620DA3
:141234009090630D6090600D7090610D620C731C841C951CFD
:141248004090A40D5090A50D2090A20D3090A30D262437240B
:14125C004824592440E050E060E070E0241635064606570697
:1412700049F047DC0883002E002309F082C0222420925E0D94
:1412840020905E0D222081F44090A40D5090A50D2090A20D12
:141298003090A30D3092610D2092600D5092630D4092620DF0
:1412AC002090840D3090CC0D3218232C2092800D40905F0D40
:1412C000431418F4242C2092800D20905D0D3090800D23148A
:1412D40058F430905E0D320C30925E0D3090840D320C3092D3
:1412E800840D48C02090800D30905D0D321830925D0D3090BC
:1412FC005E0D320C30925E0D30905F0D321830925F0D3090A4
:14131000840D320C3092840D2090CC0D321429F5222705E884
:141324001DE00E9457120983002E002309F027C02090B00D83
:14133800222021F08FEF8093840D13C04090820D5090830D8A
:14134C002090800D3090810D3092860D2092850D5092880DF2
:141360004092870D22242092840D20905D0D222009F027CF3F
:1413740020905E0D222011F0C2DB01C0002722960E94DD2922
:1413880008950E94DF29269784E12090CE0D821520F08091A5
:14139C00CE0D823110F404EBA4C120905C0D20925D0D2220E0
:1413B00039F420908B0D222019F00E948E1F97C122242092CA
:1413C4005C0D20925E0D20925F0D17C18091840D8F3F09F030
:1413D8004BC040E050E060E070E04090CA0D5090CB0D209007
:1413EC00C80D3090C90D241635064606570659F18091CE0D2E
:14140000823131F48091CD0D833011F001EB6FC14090870DE1
:141414005090880D2090850D3090860D3092670D2092660D5F
:141428005092690D4092680D0E941D160983002E002309F066
:14143C0058C122E006E61DE00E9457120983002E002341F07F
:141450004EC10E94CC210B83002E002309F047C180915F0D8D
:14146400815080935F0D22242092840D0E94521F20905E0D6D
:14147800222009F450C080917A0D893021F480E490E05C017A
:14148C0015C080917A0D8A3021F480E290E07C010CC08091E4
:1414A0007A0D8B3021F480E190E06C0103C088E090E06C019B
:1414B4007601570120905E0D33242A143B0424F5332444248E
:1414C80055248090620D9090630D6090600D7090610D620C4F
:1414DC00731C841C951C4090A40D5090A50D2090A20D3090EA
:1414F000A30D262437244824592440E050E060E070E0241690
:1415040035064606570649F043DC0C83002E002309F0EBC013
:14151800222420925E0D20905E0D222081F44090A40D509029
:14152C00A50D2090A20D3090A30D3092610D2092600D5092F9
:14154000630D4092620D2090840D3090CC0D3218232C2882C9
:1415540040905D0D431458F430905E0D340C30925E0D30904E
:14156800840D340C3092840D4BC020905E0D0880200C2092BF
:14157C005E0D20905D0D201820925D0D2220A1F42090A60D48
:141590003090A70D4090640D5090650D4214530449F4F8DB83
:1415A4000D83002E002309F0A0C0222420925E0D222705E860
:1415B8001DE00E9457120A83002E002309F093C02090B00D80
:1415CC00222021F08FEF8093840D13C04090820D5090830DF4
:1415E0002090800D3090810D3092860D2092850D5092880D5C
:1415F4004092870D22242092840D20905D0D222009F0E4CEED
:1416080020908C0D222031F00E94ED11A02E002309F069C06F
:14161C0020905E0D222029F0B7DBA02E002309F060C02090F8
:141630005F0D2220D9F14090870D5090880D2090850D309053
:14164400860D3092670D2092660D5092690D4092680D40E0E5
:141658005FEF6FEF7FEF20905F0D332444245524242A352A63
:14166C00462A572A3092860D2092850D5092880D4092870D03
:141680000E943416A02E4090680D5090690D2090660D30901E
:14169400670D3092860D2092850D5092880D4092870D002335
:1416A80009F021C04090C20D5090C30D2090C00D3090C10DFA
:1416BC008090C60D9090C70D6090C40D7090C50D62147304C3
:1416D0008404950458F43092C50D2092C40D5092C70D4092FA
:1416E400C60D81E080938B0D002726960E94DD29089504E106
:1416F8000895F80120802092800D0F5F1F4FF8012080209242
:14170C00810D0F5F1F4FF80120802092820D0F5F1F4FF801B0
:1417200020802092830D2091820D3091830D0091800D109183
:14173400810D0895F80120802092800D0F5F1F4FF801208029
:141748002092810D0091800D1091810D08950E94282980915F
:14175C007A0D99270897FE0120803180428053808A9381010F
:1417700092010E94212A1093810D0093800D3093830D20938E
:14178400820D212E2092800D222E2092810D232E2092820D12
:1417980022242092830D2091820D3091830D0091800D109165
:1417AC00810D249608950E94E529402F06E00E945C02602FB0
:1417C0000F3FE1F007FF1AC04093830D04E00E945C0205FDCD
:1417D400FBCF0AC004E00E945C0205FFFBCF04E00E945C02D7
:1417E80005FDFBCF2090830D822D81508093830D222071F714
:1417FC000E94D72908950E94E529422F602F2090CE0D261623
:1418100010F04093CE0D2090CE0D241611F4002709C081E0FB
:141824008093CE0D85D0402F002309F001C003E80E94D72994
:14183800089522242092CE0D25E500E80E9465022AEA01E834
:14184C000E94650200E80E945C02053529F401E80E945C0257
:141860000A3A11F001E82CC0222706E00E94650222270EE0EB
:141874000E94650285E88093B10D22242092AD0D80E092E095
:141888009093A90D8093A80D2092AC0D2092AF0D2FE109E0D9
:14189C000E94650207E00E945C02202F207F236007E00E944E
:1418B000650220E405E00E9465020E94C125002708950E94DD
:1418C400E5294FEF5FEF6FEF7FEF50939F0D40939E0D70939A
:1418D800A10D6093A00D222420928C0D0E94D72908958091CD
:1418EC00AC0D813029F402E00E945C0209701BC08091AC0D61
:14190000823029F403E00E945C02097012C08091AC0D833059
:1419140039F403E00E945C02007902950F7007C02224209261
:14192800AC0D09E00E945C020072089506E00E945C02202FC5
:14193C002074206806E00E94650209E00E945C0201FF09C0DA
:14195000CCDF093011F00E94C12523E109E00E946502C3DF7E
:14196400002309F48AC08091CE0D823030F482E08093CE0DF3
:1419780022242092AB0D2090AB0D222011F400277CC02091E8
:14198C00AC0D2E5F08E00E9465022090AA0D222009F434C076
:1419A0000E94DE252090CF0D2220E9F4E091A60DF091A70D8A
:1419B400228020FE07C082E08093CE0D0E94EB250E94D926F5
:1419C800E091A60DF091A70D208020FE15C02091AA0D205F38
:1419DC0008E00E94650200274EC08091CF0D863141F020904C
:1419F000CF0D25FE05C08091CF0D837009F43FC082E08093CE
:141A0400CE0D36C08091AA0D8F5F8093AA0D0E94DE25209028
:141A1800CF0D2220B9F4E091A60DF091A70D228020FE04C012
:141A2C000E94EB250E94D926E091A60DF091A70D208020FE3C
:141A400012C0218021FC0FC000271BC08091CF0D863141F05C
:141A54002090CF0D25FE05C08091CF0D837009F40CC02090B1
:141A6800AB0D3090AA0D321408F4CACF22242092AA0D04E8C5
:141A7C0002C00E94C12508950E94DF2921974090A00D5090B0
:141A9000A10D20909E0D30909F0D8090A40D9090A50D60904A
:141AA400A20D7090A30D622473248424952440E050E060E0C1
:141AB80070E0641675068606970609F4FBC022242092AD0D42
:141ACC0088E2888321E002EA1DE00E94DE1F2090CF0D22203A
:141AE00009F0CDC02CEC06E00E94650220917E0D0DE00E949A
:141AF40065022091AF0D0EE00E94650281E08093B00D80E47E
:141B08002090AF0D28262092AF0D2090A60D3090A70D309208
:141B1C009F0D20929E0D80917A0D893021F488E090E05C0111
:141B300015C080917A0D8A3021F480E190E06C010CC080914A
:141B44007A0D8B3021F480E290E07C0103C080E490E07C01D3
:141B580067015601A092810D0E94F7252090CF0D222029F055
:141B6C0020EC06E00E94650260C080E890E02090AF0D3324AF
:141B8000282639262092AF0D8091810D813021F0222D0EE098
:141B94000E94650220919E0D30919F0D2090AF0D27FE04C016
:141BA80080EC90E05C0103C080E890E05C010A2D0E949A0283
:141BBC0010939F0D00939E0D8091810D8150282E2092810D82
:141BD000882331F620EC06E00E9465022091AF0D0EE00E9437
:141BE40065024090A40D5090A50D2090A20D3090A30D3092E2
:141BF8009F0D20929E0D5092A10D4092A00D80E890E0209039
:141C0C00AF0D3324282639262092AF0D0E94F7252090CF0D4C
:141C20002220D9F080E890E02090AF0D3324282639262092AB
:141C3400AF0D8091CF0D8E3201F52090AD0D2220E1F400912B
:141C48007E0D0E94F92481E08093AD0D0E94D01FC6CF0BE0FF
:141C5C000E945C020D3069F40CEC0E945C02002311F4002793
:141C700026C00CEC0E945C02013009F408C08091CF0D8631E8
:141C840011F402E81AC00E9436228091AD0D853050F4833012
:141C980010F00E94111F8091AD0D8F5F8093AD0D11CF0BDE17
:141CAC008FE18093CF0D0E94421F0E94111F01C00027219651
:141CC0000E94DD2908950E94E329219722242092AD0D8AE247
:141CD400888321E002EA1DE00E94DE1F2090CF0D222009F0A1
:141CE800F0C028EC06E00E9465022090A60D3090A70D30929C
:141CFC009F0D20929E0D91012090AF0D26FE03C040E450E092
:141D100002C040E850E0042F0E94BD0210939F0D00939E0D84
:141D240020E40BE00E94650280E42090AF0D28262092AF0D27
:141D3800222D0EE00E94650280917A0D893019F448E050E09B
:141D4C0014C080917A0D8A3019F460E170E00CC080917A0D5B
:141D60008B3021F480E290E05C0103C080E490E05C01B501C6
:141D7400AB014093810D8091810D8130A1F020919E0D309150
:141D88009F0D2090AF0D26FE03C040E450E002C040E850E0DA
:141D9C00042F0E94BD0210939F0D00939E0D0E94F7252090A4
:141DB000CF0D2220B1F020EC06E00E9465028091CF0D8E32B8
:141DC40009F081C02090AD0D222009F07CC000917D0D0E9433
:141DD800F92481E08093AD0D1BC080E42090AF0D2826209201
:141DEC00AF0D8091810D813021F0222D0EE00E94650280916F
:141E0000810D8150282E2092810D882309F0B5CF20EC06E0BF
:141E14000E94650220917E0D0DE00E9465022091AF0D0EE024
:141E28000E94650281E08093B00D4090A40D5090A50D2090A9
:141E3C00A20D3090A30D30929F0D20929E0D5092A10D409246
:141E5000A00D80E890E02090AF0D3324282639262092AF0D1B
:141E64000E94F7252090CF0D2220C9F080E890E02090AF0DE1
:141E78003324282639262092AF0D8091CF0D8E3201F5209091
:141E8C00AD0D2220E1F400917E0D0E94F92481E08093AD0D68
:141EA000BBCF0BE00E945C020D3079F40CEC0E945C020023F4
:141EB40021F40E941102002724C00CEC0E945C02013009F41F
:141EC80008C08091CF0D863111F402E818C00E9436228091C8
:141EDC00AD0D853050F4833010F00E94111F8091AD0D8F5F01
:141EF0008093AD0DEECEE5DC8FE18093CF0D0E94421F0E9490
:141F0400111F21960E94D92908950E94DF2925978091CE0D4F
:141F1800833040F40E946C22A02E002309F055C20E942E25A8
:141F2C00CADC2224EBE7FDE0208240E050E060E070E05093A1
:141F4000A30D4093A20D7093A50D6093A40D9ADDC02E00237A
:141F540049F00E9436220E942E2592DDA02E002309F035C201
:141F6800EBE7FDE02080222041F4E091A60DF091A70D808145
:141F7C008D7F893E69F1EE2426C08091A60D9091A70D8254BD
:141F90009E4FEE2DFF27E80FF91F24802220B1F08091A60DB5
:141FA4009091A70D82549E4F0E2D1127080F191F085F1F4FFA
:141FB800A0DB1093A30D0093A20D3093A50D2093A40D08C064
:141FCC008E2D805FE82E8E2D8034B9F602E9FBC14090A40D0B
:141FE0005090A50D2090A20D3090A30D30929B0D20929A0DC9
:141FF40050929D0D40929C0D43DD0C83002E002309F0E5C133
:14200800E091A60DF091A70D80818D7F893E11F001EADBC10F
:14201C00E091A60DF091A70D25842092CC0D2092CD0D86E031
:142030008093950D0FC02090CD0D26FE01C011C02090CD0D4E
:14204400220C2092CD0D8091950D81508093950D2090950D43
:14205800222069F781E08093CC0DE091A60DF091A70D26887E
:14206C0037883092970D2092960D222051F5332041F5E09164
:14208000A60DF091A70D24A035A046A057A03092860D2092E7
:14209400850D5092880D4092870D40E050E061E070E02416AE
:1420A80035064606570638F0EBE7FDE02080222011F002EA9A
:1420BC008AC12090850D3090860D3092970D2092960DE09104
:1420D000A60DF091A70D2488E091A60DF091A70D33883228FA
:1420E40099F00091A60D1091A70D0D5E1F4F22DB180144246F
:1420F80055243092C90D2092C80D5092CB0D4092CA0D10C009
:14210C00E091A60DF091A70D20A031A042A053A03092C90D68
:142120002092C80D5092CB0D4092CA0D0091A60D1091A70D28
:142134000F5E1F4FFFDA180125E030E00091A80D1091A90D18
:142148000E941A2A1127015010401127020D131D20917A0D15
:14215C003327255030400E941A2A1801442455243092BD0DC4
:142170002092BC0D5092BF0D4092BE0DE091A60DF091A70D3C
:14218400268437843092B30D2092B20D2090960D3090970D38
:142198004090B20D5090B30D420C531C120144245524809043
:1421AC00BE0D9090BF0D6090BC0D7090BD0D260C371C481CFC
:1421C000591C3092860D2092850D5092880D4092870D81E0BF
:1421D40020888215D8F42090960D3090970D44245524809044
:1421E800870D9090880D6090850D7090860D620C731C841CE8
:1421FC00951C7092860D6092850D9092880D8092870D06C0E2
:14221000222433243092970D2092960D4090870D5090880D89
:142224002090850D3090860D8090CA0D9090CB0D6090C80D6D
:142238007090C90D62187308840895082090950D33242A9239
:14224C00830194010E94212AFE010083118322833383FE0108
:14226000208031804280538030928E0D20928D0D5092900D5C
:1422740040928F0D45EF5FEF60E070E0FE01208031804280C4
:1422880053802416350646065706B0F4222433243092990DA8
:14229C002092980D80918D0D90918E0D853FEFE09E0720F424
:1422B00081E08093CD0D1DC082E08093CD0D19C0E091A60DA3
:1422C400F091A70D20A831A83092990D2092980D24A435A4D0
:1422D80046A457A43092BD0D2092BC0D5092BF0D4092BE0DBB
:1422EC0083E08093CD0D2090B20D3090B30D222011F4332005
:1423000079F140E050E060E070E04090BE0D5090BF0D209088
:14231400BC0D3090BD0D2416350646065706F1F081E0E09191
:14232800A60DF091A70D2088821540F42090960D3090970D8F
:14233C00222011F4332071F0E091A60DF091A70D2384222050
:1423500039F4E091A60DF091A70D8485823040F4EBE7FDE055
:142364002080222019F481E08083E3CD4090A40D5090A50D4F
:142378002090A20D3090A30D6090B20D7090B30D88249924AA
:14238C00620C731C841C951C7092920D6092910D9092940DFB
:1423A0008092930D8090870D9090880D6090850D7090860D09
:1423B400620C731C841C951C7092B90D6092B80D9092BB0D5E
:1423C8008092BA0D20E103E018DA25960E94DD2908950E94B0
:1423DC00E3294090A00D5090A10D20909E0D30909F0D30924D
:1423F000A30D2092A20D5092A50D4092A40D63DCA02E002381
:1424040009F050C02090960D3090970D222019F4332009F465
:1424180043C02090960D3090970D442455248090A40D909034
:14242C00A50D6090A20D7090A30D620C731C841C951C70924B
:14244000A30D6092A20D9092A50D8092A40D3BDCA02E002398
:1424540009F028C02090960D3090970D442455248090A40D3A
:142468009090A50D6090A20D7090A30D621873088408950821
:14247C007092A30D6092A20D9092A50D8092A40D1301240129
:1424900030929F0D20929E0D5092A10D4092A00D2224209266
:1424A4008C0D00270E94D92908950E94E129A22E6801249783
:1424B8008091CD0D823079F4F6012080318042805380220CFB
:1424CC00331C441C551CFE01208231824282538238C08091E6
:1424E000CD0D833091F482E090E0F601208031804280538027
:1424F4008A93810192010E940E2AFE01008311832283338357
:1425080022C0F601208031803982288220FE06C08091B10D7D
:14251C0080618093B10D05C08091B10D8F7E8093B10D2880DF
:1425300039803694279448805980420C531C12014424552407
:14254400FE0120823182428253828091A80D9091A90D019761
:14255800FE0120803180282239224090A60D5090A70D240C33
:14256C00351C30927C0D20927B0DFE0100811181228133811C
:14258000EAD84090930D5090940D2090910D3090920D3801AE
:142594004901620C731C841C951CFE016082718282829382AE
:1425A8004090A00D5090A10D20909E0D30909F0DFE0160806E
:1425BC00718082809380622473248424952440E050E060E0F7
:1425D00070E06416750686069706D9F020908C0D222029F01C
:1425E400FADEC02E002309F0A7C1FE012080318042805380B4
:1425F8003092A30D2092A20D5092A50D4092A40D3DDAC02EE0
:14260C00002309F095C1AA2051F18A2D8F3F51F44FEF5FEFE6
:142620006FEF7FEFFE0140835183628373831AC08A2D813027
:1426340051F440E050E060E070E0FE014083518362837383FC
:142648000DC04090870D5090880D2090850D3090860DFE0144
:14265C00208231824282538281E080938C0D8091CD0D8230D2
:1426700061F5E0917B0DF0917C0D208031803092810D2092AA
:14268400800D222433243092830D2092820D8091800D9091C6
:14269800810D873FEFEF9E0720F081E090E06C0102C0CC2457
:1426AC00DD24C092B00DAA2041F028803980E0917B0DF09134
:1426C0007C0D31822082002739C18091CD0D833009F035C07B
:1426D400E0917B0DF0917C0D20803180428053803092810DB9
:1426E8002092800D5092830D4092820D852D807F9B819F70F0
:1426FC00982B9B83852D8F708093830D8F3020F081E090E0F5
:142710006C0102C0CC24DD24C092B00DAA2069F0FE012080C4
:14272400318042805380E0917B0DF0917C0D2082318242823F
:1427380053820027FFC089818F7089832090A60D3090A70DE6
:14274C008091A80D9091A90D820D931D019720907B0D30900D
:142760007C0D2816390609F438C0F10120802092800D2180F8
:142774002092810DAA2009F4ADC02090B10D24FE19C088816B
:142788008F7082959091800D9F70982BE0917B0DF0917C0DA4
:14279C00908389818F708295988192959F70982BE0917B0DEB
:1427B000F0917C0D918390C02880E0917B0DF0917C0D20825A
:1427C40029808091810D807F8229E0917B0DF0917C0D818308
:1427D8007FC0E0917B0DF0917C0D20802092800DAA2019F1F8
:1427EC002090B10D24FE13C028803324220C331C220C331C7D
:14280000220C331C220C331C8091800D99278F7090706C0100
:14281400C228D32802C0C880DD24E0917B0DF0917C0DC0827B
:14282800D8DDC02E002309F085C041E050E060E070E04090E7
:14283C00A00D5090A10D20909E0D30909F0D240E351E461E9D
:14285000571E3092A30D2092A20D5092A50D4092A40D10D92C
:14286400C02E002309F068C0E091A60DF091A70D2080209283
:14287800810DAA2069F12090B10D24FE17C029803324220C05
:14288C00331C220C331C220C331C220C331CA880BB24B59422
:1428A000A794B594A794B594A794B594A794A228B3280AC0EE
:1428B400298033248091810D9927807F90705C01A228B328B0
:1428C800E091A60DF091A70DA08281E080938C0D2090B10D06
:1428DC0024FE12C08091810D8F7082959091800D92959F705B
:1428F000982B9093800D8091810D82958F708093810D05C046
:142904008091810D8F708093810D222433243092830D2092DF
:14291800820D8091800D9091810D873FEFE09E0720F081E024
:14292C0090E05C0102C0AA24BB24A092B00D002724960E94E9
:14294000DB2908950E94E32970C140908F0D5090900D20906A
:142954008D0D30908E0D8090870D9090880D6090850D70909F
:14296800860D261437044804590410F401EB5EC141E050E04A
:14297C0060E070E04090870D5090880D2090850D3090860D49
:14299000240E351E461E571E3092860D2092850D5092880DC5
:1429A4004092870D222705E81DE07FDDA02E002309F03EC141
:1429B80040E050E060E070E04090820D5090830D2090800D1F
:1429CC003090810D241635064606570609F428C18091CD0DBA
:1429E000813009F422C12090A60D3090A70D30927C0D20927E
:1429F4007B0D823009F07CC08091A80D9091A90D969587957C
:142A080001979093810D8093800D9093830D8093820D80916B
:142A1C007B0D90917C0D029690937C0D80937B0DFC012080F8
:142A30003180222009F036C0332009F033C08FEF9FEFE091F4
:142A44007B0DF0917C0D918380832090820D3090830D4424DE
:142A580055248090870D9090880D6090850D7090860D6228F9
:142A6C007328842895288091800D9091810D01971C014424E8
:142A8000552462187308840895087092860D6092850D909270
:142A9400880D8092870D81E080938C0D0027C8C08091800D99
:142AA8009091810D01979093810D8093800D8030890709F049
:142ABC00AECF2090820D3090830D442455248090870D909055
:142AD000880D6090850D7090860D62287328842895287092B8
:142AE400860D6092850D9092880D8092870D9BC08091A80D49
:142AF8009091A90D969587959695879501979093810D809309
:142B0C00800D9093830D8093820D80917B0D90917C0D0496F6
:142B200090937C0D80937B0DFC0120803180222009F054C0BD
:142B3400332009F051C0E0917B0DF0917C0D2280222009F050
:142B480049C0E0917B0DF0917C0D83818F7009F041C08FEFF2
:142B5C009FEFE0917B0DF0917C0D91838083E0917B0DF09143
:142B70007C0D828380917B0D90917C0D0396FC0180818F60FA
:142B840080832090820D3090830D442455248090870D909006
:142B9800880D6090850D7090860D62287328842895288091E0
:142BAC00800D9091810D01971C0144245524621873088408C2
:142BC00095087092860D6092850D9092880D8092870D81E08D
:142BD40080938C0D00272CC08091800D9091810D0197909326
:142BE800810D8093800D8030890709F090CF2090820D309014
:142BFC00830D442455248090870D9090880D6090850D709079
:142C1000860D62287328842895287092860D6092850D909254
:142C2400880D8092870D8FCE2FEF05E81DE03DDC0E94D9293F
:142C380008950E94E32982DEA02E013B09F00DC040E050E0BD
:142C4C0060E070E05093860D4093850D7093880D6093870DEA
:142C600071DE0E94D92908950E94E3292090980D3090990D67
:142C7400222021F4332011F4002747C040909C0D50909D0D6C
:142C880020909A0D30909B0D6090980D7090990D88249924D5
:142C9C00620C731C841C951C7092A30D6092A20D9092A50DAF
:142CB0008092A40D0E94420DA02E002309F027C08091A60DC7
:142CC4009091A70D88519E4FFC01408051806280738060910D
:142CD800870D7091880D4091850D5091860D440D551D661DA1
:142CEC00771D5093860D4093850D7093880D6093870D2A011B
:142D00003B0140825182628273820E94630E0E94D9290895C1
:142D14000E94DF2929978091CE0D803128F4F5D8A02E0023CA
:142D280009F037C420E100E10E94010CA02E002309F02FC435
:142D3C00222420928B0D80915C0D8C3511F08F3239F48DE557
:142D50009DE090938A0D8093890D10C080915D0D8A3309F08E
:142D6400B7C080915C0D833408F4B2C08FE59DE090938A0D9A
:142D78008093890D8091CD0D833071F44090BE0D5090BF0D54
:142D8C002090BC0D3090BD0DFE01208231824282538209C07A
:142DA00040E050E060E070E0FE014083518362837383FE01CF
:142DB40020803180428053803092C90D2092C80D5092CB0D4C
:142DC8004092CA0DE091890DF0918A0D2080222009F0BAC3D7
:142DDC004FEF5FEF6FEF7FEF5093C50D4093C40D7093C70D5B
:142DF0006093C60D8091CD0D833009F447C082E0E8ECFDE054
:142E040080834090BE0D5090BF0D2090BC0D3090BD0D332416
:142E1800442455248090BA0D9090BB0D6090B80D7090B90D8B
:142E2C0062187308840895087092B90D6092B80D9092BB0D0B
:142E40008092BA0D20917A0D33270091BC0D1091BD0D0E94AC
:142E5400072A1801442455243092C50D2092C40D5092C70D72
:142E68004092C60D2090CC0D3324442455243092BD0D2092B2
:142E7C00BC0D5092BF0D4092BE0D80E88093CC0D4090CA0D33
:142E90005090CB0D2090C80D3090C90D3092860D2092850DC2
:142EA4005092880D4092870D40E050E060E070E05093C10DAC
:142EB8004093C00D7093C30D6093C20D22242092840D82E1E5
:142ECC008093CE0D01E463C38CE59DE090938A0D8093890DA8
:142EE00037C3E091890DF0918A0D8081853E11F485E0808394
:142EF40040E050E060E070E04090CA0D5090CB0D2090C80D06
:142F08003090C90D241635064606570699F12090CC0D20923C
:142F1C00840D42E050E060E070E04090CA0D5090CB0D20901F
:142F3000C80D3090C90D241A350A460A570A6090950D7724C7
:142F44006A92810192010E940E2A180129018090BA0D909054
:142F5800BB0D6090B80D7090B90D260C371C481C591C309202
:142F6C00B50D2092B40D5092B70D4092B60DB5C24090BE0DCF
:142F80005090BF0D2090BC0D3090BD0D2092840D332444248C
:142F940055248090BA0D9090BB0D6090B80D7090B90D6218FC
:142FA8007308840895087092B50D6092B40D9092B70D809202
:142FBC00B60D93C24090B60D5090B70D2090B40D3090B50DBF
:142FD0003092A30D2092A20D5092A50D4092A40D0E94420D12
:142FE4000F83002E002309F0D6C2222433243092B30D209294
:142FF800B20D4CC22090A60D3090A70D4090B20D5090B30DF2
:14300C00420C531C50927C0D40927B0DF20120802D822220AA
:1430200009F497C28D81853E09F42BC28D81853011F485EE50
:143034008D83E091890DF0918A0D208033244D8055244214C6
:14304800530421F0822D8A3209F017C222242092830D002423
:14305C000C8271C02090890D30908A0DE091830DFF27E20DEE
:14307000F31D208040907B0D50907C0DEC81FF27E40DF51D45
:143084003080321409F453C02090890D30908A0DE091830D94
:14309800FF27E20DF31D20802220A1F02090890D30908A0DEF
:1430AC00E091830DFF27E20DF31D80818C3541F0E091830DF6
:1430C000FF27E20DF31D80818F32B1F420907B0D30907C0DEF
:1430D400EC81FF27E20DF31D8081803209F033C08C818830F2
:1430E80020F4F1018085803261F58BE08C8329C02090890D18
:1430FC0030908A0DE091830DFF27E20DF31D80818E32E9F4A5
:143110008091830D883059F020907B0D30907C0DEC81FF27F5
:14312400E20DF31D8081803271F487E08C830C8003940C8259
:143138008091830D8F5F8093830D8C818B3008F48BCF8C8126
:14314C008B3008F4D1C0E0917B0DF0917C0D238423FCCAC0D4
:1431600022242092B00DE0917B0DF0917C0D228C338C4424CE
:1431740055243092C90D2092C80D5092CB0D4092CA0D80913B
:14318800CD0D833031F4248835883092CB0D2092CA0D209045
:14319C00890D30908A0DE091830DFF27E20DF31D208022202A
:1431B00029F02090B00D222009F48DC04090CA0D5090CB0D9A
:1431C4002090C80D3090C90D3092860D2092850D5092880DCC
:1431D8004092870D40E050E060E070E05093C10D4093C00D4C
:1431EC007093C30D6093C20D22242092840DE0917B0DF09137
:143200007C0D238424FE22C04FEF5FEF6FEF7FEF5093C50D79
:143214004093C40D7093C70D6093C60D23E100E10E94010CD1
:143228000887002E002309F0B4C12090B00D222021F083E41D
:14323C0090E07C0103C081E490E07C010E2DA7C1E0917B0DE0
:14325000F0917C0D248C358C468C578C3092C50D2092C40D23
:143264005092C70D4092C60D40E050E060E070E04090CA0D74
:143278005090CB0D2090C80D3090C90D241635064606570651
:14328C0079F48FEF8093840D40E050E060E070E05093C50D0A
:1432A0004093C40D7093C70D6093C60D24E100E10E94010C44
:1432B4000E83002E002309F06EC12090B00D222021F083E4D5
:1432C80090E07C0102C0EE24FF240E2D62C12090890D3090AA
:1432DC008A0D8091830D9927820D931D019690938A0D809343
:1432F000890DF7CD2090890D30908A0DE091830DFF27E20DBD
:14330400F31D80818A3209F0BAC0E0917B0DF0917C0D2384CB
:1433180023FCB3C02090890D30908A0DE091830DFF27E20D5C
:14332C00F31D2180222009F05DC0CC2422242092810D45C009
:1433400020907B0D30907C0DEC2DFF27E20DF31D8081803207
:1433540009F438C08C2D883081F42090890D30908A0DE0917C
:14336800810DFF27E20DF31D8EE280838091810D8F5F80938B
:14337C00810D20907B0D30907C0DEC2DFF27E20DF31D208050
:143390004090890D50908A0DE091810DFF27E40DF51D208282
:1433A4002090810D222049F4E091890DF0918A0D8081853083
:1433B80011F485EE80838091810D8F5F8093810DC3948C2D48
:1433CC008B3008F4B7CF2090890D30908A0DE091810DFF27EE
:1433E000E20DF31D2224208281E08093B00DBBCE2090890DF2
:1433F40030908A0DE091830DFF27E20DF31D81818F3F79F50A
:1434080040E050E060E070E04090C60D5090C70D2090C40DF8
:14341C003090C50D241635064606570609F485CF57FE02C084
:143430000E941A0241E050E060E070E04090C60D5090C70D92
:143444002090C40D3090C50D241A350A460A570A3092C50D9F
:143458002092C40D5092C70D4092C60D0EC02090890D3090AE
:14346C008A0D8091830D9927820D931D0196FC0180818150AF
:1434800080838091B20D9091B30D80969093B30D8093B20DB9
:143494002090A80D3090A90D4090B20D5090B30D421453046D
:1434A80008F4A8CD41E050E060E070E04090B60D5090B70D87
:1434BC002090B40D3090B50D240E351E461E571E3092B50D27
:1434D0002092B40D5092B70D4092B60D8091840D81508093B4
:1434E400840D2090840D222009F068CD40E050E060E070E0B2
:1434F8004090CA0D5090CB0D2090C80D3090C90D24163506D1
:14350C004606570609F41FC0222708EC1DE00E945712A02E13
:14352000002309F03AC02090B00D222009F011C04090820DA9
:143534005090830D2090800D3090810D3092C90D2092C80D69
:143548005092CB0D4092CA0DC8CCAA2412C02090890D3090D2
:14355C008A0DEA2DFF27E20DF31D20803324822D8C3511F020
:143570008F3211F403EB11C0A3942090890D30908A0DEA2DD7
:14358400FF27E20DF31D20803324222019F0822D8A32F9F672
:1435980002E429960E94DD2908950E94E3298091CE0D8231E8
:1435AC0010F404EB5AC08091CE0D8231C9F58091CD0D833003
:1435C000A9F14090BE0D5090BF0D2090BC0D3090BD0D209261
:1435D400CC0D20917A0D33270091C40D1091C50D0E941A2ABD
:1435E8001801442455243092BD0D2092BC0D5092BF0D40924E
:1435FC00BE0D3324442455248090BA0D9090BB0D6090B80D44
:143610007090B90D620C731C841C951C7092B90D6092B80D13
:143624009092BB0D8092BA0D83E12090CE0D821540F4809104
:14363800CE0D843139F420905C0D222019F4222420928B0DC9
:14364C0020908B0D222029F063D4A02E002309F004C020E1E1
:1436600000E10E94010C0E94D92908950E94E1298091CE0DED
:14367400833128F44DDBA02E002309F095C020E100E10E9487
:14368800010CA02E002309F08DC04090B60D5090B70D209003
:14369C00B40D3090B50D3092A30D2092A20D5092A50D40929E
:1436B000A40D0E94420DA02E002309F077C02090A60D309020
:1436C400A70DA090B20DB090B30DA20CB31C85EEF501808366
:1436D8000E94630EA02E002309F064C04090CA0D5090CB0D5E
:1436EC002090C80D3090C90D3092810D2092800D5092830DAE
:143700004092820D40E050E060E070E0241635064606570656
:1437140009F449C041E050E060E070E0241A350A460A570A8C
:143728003092C90D2092C80D5092CB0D4092CA0D40E050E0BB
:14373C0060E070E05093860D4093850D7093880D6093870DEF
:1437500021E000E81DE00E945712C02E002309F025C041E064
:1437640050E060E070E04090870D5090880D2090850D3090B6
:14377800860D240E351E461E571E3092860D2092850D5092D1
:14378C00880D4092870D2090B00D2220D9F20E94ED11A02E46
:1437A000002309F003C060DA01C000270E94DB2908950E942F
:1437B400DF292297ADDA0093840D002331F454DFA02E002329
:1437C80009F454C152C28091840D823411F0082F4CC2809118
:1437DC00A80D9091A90D80972090B20D3090B30D28163906CA
:1437F00008F440C140E050E060E070E04090CA0D5090CB0D89
:143804002090C80D3090C90D241635064606570609F4D1C0E9
:143818004090BA0D5090BB0D2090B80D3090B90D6090B60DAF
:14382C007090B70D4090B40D5090B50D42188091CC0D81507C
:1438400048224092840D8091B20D9091B30D9070882331F02A
:143854008091CC0D8150481609F00AC1222708EC1DE00E94A7
:143868005712A02E002309F000C22090B00D222009F4FCC0CF
:14387C004090CA0D5090CB0D2090C80D3090C90D3092860D69
:143890002092850D5092880D4092870DCED9A02E002309F072
:1438A400E6C122E008EC1DE00E945712A02E002309F0DDC1E3
:1438B8000E94ED11A02E002309F0D7C10E94610CAA24BB241E
:1438CC000CC02090A60D3090A70DF501E20DF31D2224208268
:1438E000C50101965C012090A80D3090A90D2501422453243C
:1438F400442059F7552049F722242092840DD0D28091B20D5C
:143908009091B30D90708823B1F4222433243092B30D2092A9
:14391C00B20D4090A40D5090A50D2090A20D3090A30D309234
:14393000B50D2092B40D5092B70D4092B60D2090CC0D2092D8
:14394400800D23C00E94630EA02E002309F08FC141E050E061
:1439580060E070E04090A40D5090A50D2090A20D3090A30DE9
:14396C00240E351E461E571E3092A30D2092A20D5092A50D82
:143980004092A40D8091800D81508093800D2090800D222022
:14399400C9F64FEF5FEF6FEF7FEF5093860D4093850D70932A
:1439A800880D6093870D5CD9C02E002309F45EC05CC1809160
:1439BC00B20D9091B30D9070882309F055C041E050E060E00D
:1439D00070E04090B60D5090B70D2090B40D3090B50D241A2B
:1439E400350A460A570A3092B50D2092B40D5092B70D409270
:1439F800B60D3092A30D2092A20D5092A50D4092A40D0E946C
:143A0C00420DA02E002309F02EC1222433243092B30D2092AD
:143A2000B20D1BC02090A60D3090A70DA090B20DB090B30D32
:143A3400A20CB31CF5018081853E21F483858E7009F416C059
:143A48008091B20D9091B30D80969093B30D8093B20D20903E
:143A5C00A80D3090A90D4090B20D5090B30D42145304D0F28D
:143A700002EBFFC04090CA0D5090CB0D2090C80D3090C90D1C
:143A84003092860D2092850D5092880D4092870DD2D8A02E40
:143A9800002309F0EAC00E94ED11A02E002309F0E4C006E040
:143AAC000E945C02802F8F7B803811F001E1DBC04090870DB3
:143AC0005090880D2090850D3090860D3092C90D2092C80DC9
:143AD4005092CB0D4092CA0D4FEF5FEF6FEF7FEF5093860DAD
:143AE8004093850D7093880D6093870DB9D8A02E002309F0CB
:143AFC00BAC04090B60D5090B70D2090B40D3090B50D309250
:143B1000A30D2092A20D5092A50D4092A40D0E94420DA02EBA
:143B2400002309F0A4C02090A60D3090A70D4090B20D5090C7
:143B3800B30D420C531C59824882CC2411C08C2D8B3020F40E
:143B4C0080E290E05C0102C0AA24BB24EC2DFF270880198067
:143B6000E00DF11DA082C3948C2D803260F381E290E3E881E0
:143B7400F981918F808F81E0E881F981848FEE242DC0E091CD
:143B8800890DF0918A0D2080222009F429C0E091890DF0912B
:143B9C008A0D80818E3241F488E0E82ECF01019690938A0DE9
:143BB0008093890DEE2DFF2708801980E00DF11DA091890D34
:143BC400B0918A0D2C902082E3948091890D90918A0D01964A
:143BD80090938A0D8093890D8E2D8B3008F4CFCF2090C80DE1
:143BEC003090C90DE881F981338E228E2090CA0D3090CB0DBC
:143C0000E881F981358A248A0E94630EA02E002309F02FC074
:143C14004090CA0D5090CB0D2090C80D3090C90D3092860DCD
:143C28002092850D5092880D4092870D40E050E060E070E087
:143C3C005093C50D4093C40D7093C70D6093C60D40E050E02E
:143C500060E070E05093C10D4093C00D7093C30D6093C20DEA
:143C640022242092840D24E100E10E94010C22960E94DD29CE
:143C780008950E94E5298091CE0D833110F404EBC9C04090FF
:143C8C00B60D5090B70D2090B40D3090B50D3092A30D2092A6
:143CA000A20D5092A50D4092A40D0E94420D402F002309F0CE
:143CB400B3C0222420928C0D2090A60D3090A70D4091B20D91
:143CC8005091B30D420D531D6091640DFA0123842092640D61
:143CDC008FEF90E0262E332428263926222011F4332029F0DB
:143CF000FA01638781E080938C0D2090620D3090630D3092BD
:143D0400830D2092820DFA01268837883092630D2092620D1F
:143D18008FEF9FEF2090820D3090830D28263926222011F408
:143D2C00332051F02090820D3090830DFA01378A268A81E093
:143D400080938C0D2090600D3090610D3092830D2092820DE5
:143D5400FA01208C318C3092610D2092600D8FEF9FEF2090EC
:143D6800820D3090830D28263926222011F4332051F0209030
:143D7C00820D3090830DFA01318E208E81E080938C0D40900F
:143D90005E0D50905F0D20905C0D30905D0D3092690D20923B
:143DA400680D50926B0D40926A0DFA01248C358C468C578CD2
:143DB80030925D0D20925C0D50925F0D40925E0D80916B0D9C
:143DCC008F3FD9F040906A0D50906B0D2090680D3090690D52
:143DE0003092C50D2092C40D5092C70D4092C60DFA01248EB0
:143DF400358E468E578E81E080938C0D222420928B0D2090F2
:143E08008C0D222031F0222420928C0D0E94630E01C000271E
:143E1C000E94D729089502E00E94D90B21E109E00E946502F7
:143E30000E94750C002341F08091CF0D863121F08091CE0D66
:143E4400813011F49CD61BC08091CE0D833078F02090CF0DD4
:143E58002092810D22E103E068D61AD12090810D2092CF0D3B
:143E6C0002E00E94D90B2090CF0D222011F400E102C00091D3
:143E8000CF0D08958091CE0D823121F483E08093CE0D07C0E9
:143E940080E12090CE0D821510F48093CE0D08950E94E52958
:143EA80042E050E060E070E04090870D5090880D2090850D09
:143EBC003090860D241A350A460A570A6090950D77246A9248
:143ED000810192010E940E2A180129018090BA0D9090BB0DED
:143EE4006090B80D7090B90D260C371C481C591C6090840D70
:143EF800772488249924260C371C481C591C3092A30D209230
:143F0C00A20D5092A50D4092A40D0E94D72908950E94E729EA
:143F2000222420928B0D8091CE0D843108F434C04090B60DD9
:143F34005090B70D2090B40D3090B50D3092A30D2092A20D0F
:143F48005092A50D4092A40D0E94420D402F002309F01FC0F3
:143F5C002090A60D3090A70D4091B20D5091B30D420D531D8A
:143F7000FA01238424FC10C04090C60D5090C70D2090C40DD3
:143F84003090C50DFA01248E358E468E578E0E94630E01C09A
:143F980000270E94EA29089520917E0D0DE00E9465022091B9
:143FAC00AF0D0EE00E94650281E08093B00D08950E94E329D2
:143FC000422F58012297B501222420924B0D20917A0D3327D2
:143FD40028503040042F11270E94072A00934C0D222433242A
:143FE80030924E0D20924D0D88858A3219F4AA24BB2403C056
:143FFC0080E890E05C01A0924F0D2090AE0D2092500D8AE00A
:144010008093510D08840092520D22242092530DFB012380B7
:144024002092540DFB0122802092550DFB0121802092560D11
:14403800FB0120802092570D22242092580D2092590D40937A
:14404C005A0D20925B0D27E832E004E00E94E0028BE49DE06A
:144060009983888321E108E40E9485022FE10BE00E9465020A
:1440740020917D0D0DE00E9465022091AF0D0EE00E946502A3
:1440880022242092B00DAFD522960E94D929089522972224F3
:14409C0020924C0D332430924E0D20924D0D2090AE0D209268
:1440B000500D22242092820D27E832E004E00E94E0028BE420
:1440C4009DE09983888321E108E40E9485022FE10BE00E9490
:1440D800650220917D0D0DE00E9465022091AF0D0EE00E943F
:1440EC00650222242092B00D7CD58091CF0D863111F402E8C0
:1441000081C02090CF0D222051F02090820D222009F06CC0B5
:14411400ABD181E08093820DCDCF80E42090AF0D28262092AC
:14412800AF0D20904B0D222009F43BC035DF5BD52090CF0DB5
:14413C00222049F08091CF0D8E3209F051C000917E0D51D4FC
:144150002CC080E890E02090AF0D3324282639262092AF0DB9
:144164000BE00E945C020093830D0FE40E945C02033029F4F6
:1441780003E50E945C02023169F00E94610C2090A60D30908D
:14418C00A70D398228822091830D00EC0E9470022090830D85
:1441A00030904B0D321830924B0DFADE20D52090CF0D2220F4
:1441B40009F01AC080E890E02090AF0D33242826392620922A
:1441C800AF0D0CEC0E945C020093830D0BE00E945C020D30E4
:1441DC0021F48091830D823028F08FE18093CF0D3FD10AC016
:1441F0002090830D222011F4002704C08FE18093CF0D0FE1FA
:14420400229608950E94E7290E949A0C402F002309F021C0EB
:144218008091CE0D833080F45BD1002341F002E30E94D90B94
:14422C0055D1402F002309F012C012D4002311F0F2DD0DC055
:144240002227002776D428DF0093800D002311F4002703C077
:1442540061D40091800D0E94EA2908950E94E32940E050E0B3
:1442680060E070E04090CA0D5090CB0D2090C80D3090C90D38
:14427C00241635064606570609F475C04090CA0D5090CB0D7F
:144290002090C80D3090C90D3092860D2092850D5092880DEF
:1442A4004092870D37C0222705E81DE00E945712A02E00237A
:1442B80009F06BC02090B00D222009F056C04090820D5090D1
:1442CC00830D2090800D3090810D3092860D2092850D509248
:1442E000880D4092870D2090CC0D33244424552480905E0D93
:1442F40090905F0D60905C0D70905D0D621873088408950849
:1443080070925D0D60925C0D90925F0D80925E0D2090CC0D46
:14431C0033244424552480905E0D90905F0D60905C0D7090F5
:144330005D0D621473048404950408F0B6CF822D81501301F0
:14434400240128222092840DABDD4090A40D5090A50D209068
:14435800A20D3090A30D30925D0D20925C0D50925F0D4092CB
:14436C005E0D002710C08FEF8093840D4FEF5FEF6FEF7FEF61
:1443800050935D0D40935C0D70935F0D60935E0D00270E940A
:14439400D92908950E94E3290E94A214A02E002319F0013B3A
:1443A80009F05DC0AA2091F040E050E060E070E05093860D4A
:1443BC004093850D7093880D6093870D0E94A214A02E002320
:1443D00009F049C00E94ED11A02E002309F043C04090870DE6
:1443E4005090880D2090850D3090860D3092C90D2092C80D9C
:1443F8005092CB0D4092CA0D4090B60D5090B70D2090B40DA6
:14440C003090B50D3092A30D2092A20D5092A50D4092A40D30
:144420000E94420DA02E002309F01DC02090A60D3090A70DF9
:14443400A090B20DB090B30DA20CB31C81E0F501848F2090EE
:14444800C80D3090C90DF501338E228E2090CA0D3090CB0D6F
:14445C00F501358A248A0E94630E0E94D92908952090CF0D09
:144470002092820D02E00E94D90B0E949A0C0093CF0D209028
:14448400CF0D222019F00091CF0D23C02FE732E008E00E94FB
:14449800E00220917F0D04E40E94650286D48091CF0D863102
:1444AC0011F402E812C02090CF0D222031F400917E0D99D2C1
:1444C00000917D0D96D202E00E94D90B2090820D2092CF0D30
:1444D400022D08950E94E52982E02090CE0D821510F48093BD
:1444E800CE0D0E949A0C402F002309F07BC22090AB0D22202B
:1444FC0009F0AAC007E00E945C020093810D202F207F07E06C
:144510000E9465022090AC0D222019F060EC70E002C060E834
:1445240070E0262F06E00E94650222270EE00E94650201E0CE
:144538000E94D90B2090AC0D222029F1822D823051F403E09B
:14454C000E945C02202F207F226003E00E9465021CC0809112
:14456000AC0D833051F403E00E945C02202F2F70206203E060
:144574000E9465020EC002E00E945C02202F207F226002E028
:144588000E94650204C021E806E00E94650201E00E94D90BF3
:14459C000E94750C002321F00E94750C002319F409E10E94D5
:1445B000D90B2090AC0D222029F1822D823051F403E00E9423
:1445C4005C02202F207F216003E00E9465021CC08091AC0D84
:1445D800833051F403E00E945C02202F2F70206103E00E9400
:1445EC0065020EC002E00E945C02202F207F216002E00E94B1
:14460000650204C020E806E00E94650220EC06E00E94650289
:1446140082E38093820D16C005E00E94D90B2FE109E00E94AF
:1446280065022091810D07E00E9465020E949A0C002309F480
:14463C003BC08091820D81508093820D2090820D222031F7B3
:1446500002E8CCC10AE00E94D90B2091AC0D2E5F08E00E94EE
:144664006502B7D223E001E40E94650224E002E40E9465026E
:144678009CD32090CF0D222039F0A9D221E002E40E9465025D
:14468C0092D3F9C095D22090CF0D222039F4E091A60DF091F5
:1446A000A70D228024FEF4CF96D224E102E40E9465027FD31D
:1446B40002E30E94D90B222708E00E94650227E732E008E045
:1446C8000E94E00272D32090CF0D222009F0D5CF2FE632E083
:1446DC0008E00E94E0022090AC0D222029F0222D2E5F02E4D8
:1446F0000E9465022090AB0D222039F02091AA0D2F77205F4D
:1447040002E40E94650253D32090CF0D222009F0B6CF02E45A
:144718000E945C02202F08E00E9465020AE00E94D90B27E6D0
:14472C0032E008E00E94E0023ED32090CF0D222009F0A1C0C2
:14474000E091A60DF091A70D228106E40E946502222707E442
:144754000E9465022CD32090CF0D222009F08FC0E091A60D0F
:14476800F091A70D25802092810DE091A60DF091A70D8685BF
:14477C00883009F04BC0E091A60DF091A70D8785863031F42D
:144790008091B10D80628093B10D05C08091B10D8F7D8093E0
:1447A400B10DE091A60DF091A70D238420927F0D222420920D
:1447B800820D29C02090820D87E0829DB0018091A60D90911A
:1447CC00A70D4296680F791F6E5F7F4FFB0120802092830DC5
:1447E0008281803409F03AC027FE06C0822D8F708069809386
:1447F4007E0D06C08091830D8F70806180937D0D8091820DA2
:144808008F5F8093820D8091820D823099F626C0E091A60D21
:14481C00F091A70D86858930D9F42090AB0D2220B9F42FE557
:1448300032E008E00E94E002BCD22090CF0D222009F01FC0C2
:1448440022242092AA0DE091A60DF091A70D22802092AB0D4C
:14485800222021F48FE18093CF0D0FC027E532E008E00E941F
:14486C00E0022091810D02E40E9465029CD22090CF0D2220EC
:14488000A1F12090AA0D222069F127FC2BC02090CF0D209243
:14489400810D19C08091AA0D8F5F282E2092AA0D2092820DF3
:1448A8000E949A0C0093830D002309F4CFCE8091830D823879
:1448BC0011F4082F95C02090820D2092AA0D2090AB0D309087
:1448D000AA0D321408F32090810D2092CF0D22242092AA0D61
:1448E4000091CF0D81C02090AB0D222001F12090AA0D2220CD
:1448F800E1F48091AA0D8F5F8093AA0D68D123E001E40E9494
:14490C00650228E002E40E9465024DD22090AB0D3090AA0D3B
:14492000321458F322242092AA0D08EC0E94D90BDCCD80910F
:14493400AF0D847088608093AF0D2FE432E008E00E94E00277
:1449480020917F0D04E40E9465022FD22090CF0D222041F429
:14495C00E091A60DF091A70D20802092810D0DC08091CF0D54
:144970008E3231F400273DD022242092810D03C00091CF0D64
:1449840033C002E00E94D90B22242092AE0D24E202E1CDD08B
:144998007FDB0093830D0023C1F42090810D222079F020901D
:1449AC00AE0D222059F4E091A60DF091A70D8081853021F489
:1449C00081E08093AE0DE5CF23E002E00E94010C0DC02090EF
:1449D400810D222041F08091AE0D833020F48F5F8093AE0D7F
:1449E800D4CF1BDA0E94D72908950E94E729402F4093830D60
:1449FC0027E432E008E00E94E0028091830D82958F708930AE
:144A100061F48091830D8F7080688093830D8091AF0D8F773F
:144A24008093AF0D10C08091830D82958F70813051F4809121
:144A3800830D8F708093830D8091AF0D8F7B8093AF0D2091E1
:144A4C00830D04E40E946502AED10E94EA29089584E6809387
:144A6000810D52C028E005E264D08AE08093510D22242092AC
:144A7400560D10DB0093800D002309F031C0E091A60DF0910E
:144A8800A70D8681843021F48AE080937A0D19C0E091A60D95
:144A9C00F091A70D8681883021F48BE080937A0D0EC0E091B9
:144AB000A60DF091A70D8681803121F48CE080937A0D03C074
:144AC40089E080937A0D20917A0D332701E010E00E94072AA5
:144AD8001093A90D0093A80D002719C08091800D863121F0C3
:144AEC00853111F0833109F40EC010D002E30E94D90B809124
:144B0000810D81508093810D2090810D222009F0A9CF00911F
:144B1400800D08950AE00E94D90B22E103E007D0B9DA02E0C1
:144B28000E94D90B0091CF0D08950E94E72920934B0D2223E7
:144B3C0019F040E850E002C04427552740934F0D86E08093B3
:144B5000510D0093520D22242092530D2092540D2092550D82
:144B64002093560D2092570D2092580D2092590D20925A0DC9
:144B780020925B0D0E94EA2908950E94E72981E08093CE0DBC
:144B8C0022242092AB0D222708E00E9465022090AC0D222080
:144BA00019F040EC50E002C040E850E0242F06E00E94650240
:144BB40002E80E94EA2908952FE332E008E00E94E002209170
:144BC800AA0D2F7704E40E946502EFD0089527E332E008E02B
:144BDC000E94E0022091AA0D2F7704E40E94650208950E9403
:144BF000E52922242092830D22242092CF0D0E940E0209E0AC
:144C04000E945C0200FF53C021E109E00E9465020AE00E940A
:144C18005C02402F2090B00D222059F0842F8770833081F4F1
:144C2C0004FF28C022242092CF0D0027B9C0842F8F708230B1
:144C400029F422242092CF0D0027B0C0842F8F708A3029F44F
:144C54002090B10D27FE01C01CC0842F837041F0842F8F7093
:144C68008062282E2092CF0D082F9CC009E00E945C0201FFF6
:144C7C0001C019C08091830D8F5F282E2092830D8091B10D94
:144C90008F70821548F00EE00E945C02202F28600EE00E94ED
:144CA4006502A8CF80E28093CF0D00E27DC08FEF8093CF0D41
:144CB80008C004E00E945C028091CF0D81508093CF0D2090DF
:144CCC00CF0D2220A1F709E00E945C020093830D01FF55C0FD
:144CE0000E94750C093029F422E009E00E94650283CF81E0A0
:144CF4008093CE0D22242092AB0D23E109E00E946502209068
:144D0800AC0D222019F040EC50E002C040E850E0242F06E0E4
:144D1C000E9465020E94750C002361F182E08093CE0D81E031
:144D30002090AC0D821530F04091830D55274078507011C029
:144D440002E00E945C02202E8091AC0D833019F460E270E00F
:144D580002C060E170E0422D5527462357234030450729F051
:144D6C0085E18093CF0D05E11BC083E18093CF0D03E116C010
:144D800086E18093CF0D06E111C02FE109E00E94650240903F
:144D9400830D43FE05C086E08093CF0D06E004C085E08093FE
:144DA800CF0D05E00E94D72908950E94E729229701E00E9409
:144DBC00D90B28E00BE00E94650220ED0DE00E9465022CE0F4
:144DD0000EE00E94650222242092B00D08DF2090CF0D22206E
:144DE40019F00091CF0D82C081E08093B00D06E40E945C02E8
:144DF800002309F458C00E94610C51C001E00E94D90B20E9DF
:144E0C000DE00E9465020EE00E945C0280E890E0202F33272D
:144E2000282739272C600EE00E946502E0DE2090CF0D2220C0
:144E340019F00091CF0D5AC00BE00E945C020093CF0D07E495
:144E48000E945C020093830D2090A60D3090A70D402E552475
:144E5C00420C531C598248822091CF0D00EC0E9470022090A3
:144E7000CF0D3090830D320C3092830D232D07E40E9465022E
:144E840006E40E945C022090830D201608F00AC08091CF0D0B
:144E9800877029F087E18093CF0D07E125C0AECF222420925D
:144EAC00B00D01E00E94D90B22270BE00E9465022090B00D24
:144EC000222019F049E050E002C041E050E0242F220F331F51
:144ED400220F331F220F331F220F331F0DE00E9465022CEC33
:144EE8000EE00E9465027FDE22960E94EA290895ABD161D2A9
:144EFC002A97002411241F820E8283C1EE89FF89808185325C
:144F100051F00081EC89FD8971D28E819F8101969F838E8394
:144F24006FC1EE24FF2440ED5DE060E28E899F8901969F8B68
:144F38008E8BE82FF92F208033243D822C82822D932D88357D
:144F4C00E0E09E0709F489C088E582159305A4F08C819D814B
:144F60008534E0E09E0709F448C18534E0E09E070CF443C0F8
:144F74008C819D818335E0E09E0709F4DBC03BC08C819D8123
:144F88008F36E0E09E0709F46AC08FE690E02C803D808215DF
:144F9C009305DCF08C819D818336E0E09E0709F4B0C084362D
:144FB000E0E09E0709F42DC08536E0E09E0709F41CC18636E8
:144FC400E0E09E0709F417C18936E0E09E07F9F012C08C81B3
:144FD8009D818337E0E09E0709F4D7C08537E0E09E0709F4D6
:144FEC003CC08837E0E09E0709F437C000C0EE89FF8900815D
:14500000EC89FD89FBD18E819F8101969F838E83F9C0888D0E
:14501400998D0296998F888FE82FF92F329720803180398673
:145028002886822D932D8030E0E09E0774F48E2D9F2D88606B
:14503C00E82EF92E6DE2822D932D809590958F5F9F4F99872F
:1450500088878AE090E09983888328853985042F152F19D26F
:145064004FC0888D998D0296998F888FE82FF92F329720806F
:14507800318039862886EE89FF898081853751F48AE090E02B
:14508C0099838883222D332D042F152F52D234C0EE89FF89AC
:1450A00080818F3651F488E090E09983888328853985042F54
:1450B400152F43D225C080E190E09983888328853985042F14
:1450C800152F39D2EE89FF8980818835B9F480ED9DE0C82E3B
:1450DC00D92E0DC0EC2DFD2D008111276FD2EC2DFD2D0083E9
:1450F0008C2D9D2D0196C82ED92EEC2DFD2D2080222071F708
:1451040080ED9DE0C82ED92E54C0888D998D0296998F888F8A
:14511800E82FF92F3297208031802A82022DEC89FD8968D11B
:14512C008E819F8101969F838E8366C0888D998D0296998F55
:14514000888FE82FF92F3297A080B1806D32D9F40DE2EC891B
:14515400FD8952D18E819F8101969F838E8311C0EA2DFB2D95
:14516800C895002DEC89FD8945D18E819F8101969F838E839F
:14517C008A2D9B2D0196A82EB92EEA2DFB2DC895002051F748
:1451900039C0888D998D0296998F888FE82FF92F3297C080B8
:1451A400D180CC2031F4DD2021F48FEE92E0C82ED92E6D32F8
:1451B800D1F40DE2EC89FD891DD18E819F8101969F838E834D
:1451CC0010C0EC2DFD2D0081EC89FD8911D18E819F81019698
:1451E0009F838E838C2D9D2D0196C82ED92EEC2DFD2D20808E
:1451F400222059F705C08CE892E0C82ED92ED9CF8E899F8986
:1452080001969F8B8E8BEE89FF892080222009F077CE0E810A
:14521C001F812A96CCD024960895A02FB12FE22FF32F0190B8
:145230000D920020E1F70895E02FF12FAA27BB2701900020A3
:1452440011F01196FBCF0A2F1B2F08953A932A931A930A93F0
:1452580008956894DA92D12E04C0E894DA92D12ED32617FF84
:14526C0004C0109500950F5F1F4F37FF04C0309520952F5F52
:145280003F4F0BD0D7FE04C0109500950F5F1F4FD9900895FC
:14529400689401C0E894EA92FA928A93EE24FF2480E1000F03
:1452A800111FEE1CFF1CE216F30618F0E21AF30A03958A95F4
:1452BC00A1F716F40E2D1F2D8991F990E9900895E89401C0BF
:1452D00068942FD0CC2408C0E89401C0689429D037FD53D08E
:1452E400B7FD5AD0772488249924AA24BB2441D0C1F044D051
:1452F800B1F0E8E2000F111F221F331F771C881C991CAA1CB3
:14530C00BB1C88169906AA06BB0628F0881A990AAA0ABB0A32
:145320000395EA9559F726F4082D192D2A2D3B2D13C07A92DF
:145334008A929A92AA92BA92CA92EA938A939A93AA93BA93E8
:145348008B859C85AD85BE85C32E0EF0CB260895C7FC17D084
:14535C00B991A99199918991E991C990B990A99099908990DE
:14537000799024960895E02FE12BE22BE32B0895E82FE92BCB
:14538400EA2BEB2B089500951095209530950F5F1F4F2F4F3F
:145398003F4F089580959095A095B0958F5F9F4FAF4FBF4F3A
:1453AC000895E2E012C0E4E010C0E8E00EC0EE270CC0FA9225
:1453C000EA92DA92CA92BA92AA927A936A935A934A9308959C
:1453D400E1E049915991E0FD089569917991E1FD0895A9900E
:1453E800B990E2FD0895C990D990E3FD0895E990F99008950E
:1453FC000A92C8950A923196C895F02DE991099009942223D2
:1454100021F0000F111F2A95FACF08950F920990002031F098
:14542400000F111F221F331F0A94F8CF0F900895222321F0AB
:14543800169507952A95FACF08950F920990002031F03695AE
:14544C002795179507950A94F8CF0F900895B9DF402F2090F0
:14546000E90D3090EA0D222011F4332021F04A3011F40DE074
:14547400F2DF5D9BFECF4CB9042F1127A9DF0895822F932F86
:1454880001968E7F800F911F082F192F089593DFC22ED32EAE
:14549C00402F512FA297ACA4BDA48C2D9D2D8030E0E09E078B
:1454B00044F461E0809590958F5F9F4FC82ED92E01C066270E
:1454C400222429A28C2F9D2F8196E82EF92E8E2D9F2D0197C9
:1454D800282E392EE82EF92E2A2D3B2D0C2D1D2DB8DEE02FDF
:1454EC00F12F81E093E0E80FF91F4080E22DF32D40822A2DA1
:145500003B2D0C2D1D2DADDEC02ED12ECC2009F7DD20F9F65C
:14551400662359F08E2D9F2D0197282E392EE82EF92E8DE229
:14552800E22DF32D80832E2D3F2D042F152F77DEA2963FDF54
:14553C00089541DFA22EB32EC02ED12EA2976AA57BA5222452
:1455500029A24C2F5D2F4F5D5F4F842F952F0197282E392E4F
:14556400482F592F262F372F0A2D1B2D91DEE02FF12F86E2F4
:1455780093E0E80FF91F4080E22DF32D4082262F372F0A2DFA
:14558C001B2D84DEA02EB12EAA2009F7BB20F9F6242F352F69
:1455A0000C2D1D2D40DEA29606DF08958FE890E0202E312E08
:1455B400280E391EE22DF32DC895002D1127027010700895D6
:1455C80002DF402F512F042F152FECDF0030010739F0042F29
:1455DC00152F015610400F5B1F4F02C0042F152FF3DE089551
:1455F0002FDEEDDE229722E030E00C2F1D2F0C5F1F4F40DF85
:14560400402F512F598348832C813D810CE810E071DC402FF1
:0A561800512F2296DBDE2496089540
:00000001FF
