:020000040800F2
:10000000C8090020CD010008B50A0008B70A000899
:10001000BB0A0008BF0A0008C30A0008000000006D
:10002000000000000000000000000000C90A0008F5
:10003000C70A000800000000CB0A0008CD0A00082B
:10004000CF0A0008D10A0008D30A0008D50A000820
:10005000DB0A0008DD0A0008DF0A0008E10A0008E0
:10006000E30A0008E50A0008E70A0008E90A0008B0
:10007000EB0A0008ED0A0008EF0A0008F10A000880
:10008000F30A0008F50A0008F70A0008F90A000850
:10009000FB0A0008030B0008050B0008070B00080B
:1000A0000B0B00080D0B00080F0B0008110B0008CC
:1000B000130B00085F0B0008610B0008630B0008BE
:1000C000650B0008670B0008690B00086B0B000844
:1000D0006D0B00086F0B0008710B0008730B000814
:1000E000750B0008D90A0008770B0008790B000887
:1000F0007B0B00087D0B00087F0B0008810B0008BC
:10010000830B0008850B0008870B0008890B00088B
:100110008B0B00088D0B00088F0B0008910B00085B
:10012000930B0008950B0008970B0008990B00082B
:1001300000F002F800F03AF80AA090E8000C8244BF
:100140008344AAF10107DA4501D100F02FF8AFF29C
:10015000090EBAE80F0013F0010F18BFFB1A43F0A5
:100160000103184788390000A8390000103A24BF5D
:1001700078C878C1FAD8520724BF30C830C144BF0C
:1001800004680C607047000000230024002500264E
:10019000103A28BF78C1FBD8520728BF30C148BFEA
:1001A0000B6070471FB51FBD10B510BD03F0FDFB00
:1001B0001146FFF7F7FF00F0C2F903F01BFC03B490
:1001C000FFF7F2FF03BC03F01FFC000003480047E9
:1001D00003480449044A054B7047000031010008F8
:1001E000C8010020C8090020C8050020C80500205B
:1001F00030BF704720BF704740BF7047BFF36F8F5D
:100200007047BFF34F8F7047BFF35F8F704701DFB9
:100210007047EFF31480704780F31488BFF36F8F3B
:100220007047EFF30980704780F309887047EFF358
:100230000880704780F30888704762B6704772B6CE
:100240007047EFF31080704771B6704761B6704722
:10025000EFF31380704780F311887047EFF312803B
:10026000704740BA704700BA704700000EB544F6B8
:100270002060ADF8040040F60F60ADF800000020EB
:10028000ADF80600ADF8020069464FF0804001F07D
:100290004AFA0121880701F0CCFC0122022148071B
:1002A00001F0E2FC0221480701F0B2FF0EBD08B5E3
:1002B0004FF48040ADF8000003208DF802001420B8
:1002C0008DF803006946834800F0D6FCB020ADF8F5
:1002D000000003208DF8020004208DF80300694619
:1002E0007D4800F0C9FC4020ADF8000003208DF8E7
:1002F000020018208DF803006946774800F0BCFC26
:100300000C20ADF8000003208DF8020010208DF8BD
:1003100003006946704800F0AFFC08BD10B5FFF758
:10032000C6FFFFF7A3FF10BD10B5FFF7C0FF10BD5C
:1003300010B500F0BDFF4FF4803000F0D8FF01F0A1
:1003400015F86649087008460078012826D1102063
:1003500001F078FF022001F05FFF002001F04BF870
:10036000002001F05AF84FF4806001F04DF84FF48E
:10037000E0114FF4803001F021F8012001F02AF85B
:1003800000BF392000F0D6FF0028FAD0022001F08B
:1003900024F800BF01F02AF80828FBD101215048B9
:1003A00001F0FFF8012141F20C0001F0EDF810BD61
:1003B00010B5002001F048F80121C80501F0F1F85E
:1003C00010BD03204749086070474748817A19B13A
:1003D0000521444A116002E00121424A1160704740
:1003E00008B514208DF8000001208DF801000020D0
:1003F0008DF8020001208DF80300684600F0B3FD7F
:100400001C208DF8000002208DF8010000208DF8DE
:10041000020001208DF80300684600F0A4FD08BD2D
:1004200010B504462CB14FF480412A4800F0D3FCAB
:1004300004E04FF48041274800F0CBFC10BD10B51C
:1004400000212A4801F0ADF800214FF6FD7001F0BF
:100450009BF810BD10B5264B18681B1D19681B1D95
:100460001A68A8B1234CA070030A2371030CA3716E
:10047000030E2372A1720B0A23730B0CA3730B0ED2
:100480002374A274130A2375130CA375130E237619
:1004900010BD38B5044674B14FF48040ADF800008B
:1004A00003208DF8020014208DF8030069460948E6
:1004B00000F0E2FB0DE04FF48040ADF800000320B7
:1004C0008DF8020028208DF803006946014800F0ED
:1004D000D3FB38BD000C01400008014000000020A3
:1004E00001000018F8000020480100203FC8FE3A33
:1004F000E8F7FF1F0200002070B50446002509E060
:1005000014F8012B2846691CCDB220490A54162D37
:1005100000D102E020780028F2D100BF16224FF46B
:100520008C711A4802F034FE022002F011FF70BDF7
:1005300010B500214FF0006000F0C6FD10BDFFF7C0
:10054000F7FEFFF7F5FFFFF7E9FEFFF749FFFFF7BB
:100550002FFF02F015FC00200D4908700CE00D483B
:10056000007848B10A480078012805D10AA0FFF7B1
:10057000C3FF002007490870F1E701B502E00098C9
:10058000401E009000980028F9D108BD32010020DB
:100590001C000020FF00002048692C504321204906
:1005A000276D2053544D33322D41524D0000000031
:1005B00010B501201649087016229821154802F03E
:1005C00001FE1448407D144908704FF44051012049
:1005D00002F077FE10BD002004E000210F4A115404
:1005E000411CC8B21628F8DB0D49096801F00C015E
:1005F00031B10B49096821F00C01094A116005E08D
:100600000749096841F00C01054A11607047000074
:100610001C0000201C0100200100002032010020ED
:100620000C08014010B53748006837490880084673
:10063000008800F4806035490988084030B14FF6E1
:10064000FF30304908603249486880472E480088AA
:1006500000F400502D490988084018B14DF6FF708C
:10066000284908602848008800F4805027490988F4
:10067000084030B14EF6FF7022490860002000F0BB
:10068000BEF92148008800F400602049098808402C
:1006900060B12048007810B100F091F902E002202A
:1006A00000F0ADF94FF2FF70164908601648008857
:1006B00000F4007015490988084040B14FF6FF501A
:1006C0001049086014480078401C134908700E480F
:1006D000008800F480700D490988084030B14FF659
:1006E000FF6008490860072000F089F90648008883
:1006F00000F4004005490988084008B102F05EFB9B
:1007000010BD0000445C00402000002012010020C9
:1007100064000020FC0000202200002010B5FFF73C
:1007200099FE002085490968887200F01FF90020B1
:10073000834908604FF43F4082490880084600889A
:100740007F49091F086000207F49086010BD10B56F
:1007500000207A490968887278490968C8727B481C
:10076000C079764909684872002002F05DFD4FF4B7
:100770000071002002F072FD1021002002F087FDC0
:100780001821002002F013FF5821002002F002FF80
:10079000002002F021FE6E4890F82C10002002F09C
:1007A00054FF002002F0E7FD4FF4C061012002F089
:1007B00055FD9821012002F0FAFE1621012002F0D9
:1007C00044FF4FF44051012002F07BFD4FF4C06123
:1007D000022002F043FD4FF48C71022002F0DAFE99
:1007E0001621022002F00FFF2021022002F04FFD0F
:1007F000012055490860002002F036FA10BD4F482C
:100800000068807A10B105204F49086070470420C5
:100810004D490860704770477047014629B901206B
:10082000464A12681082002070474A48FCE710B51B
:1008300004464949204601F0FDFE10BD10B50446AE
:100840004649204601F0F6FE10BD70B5044600256D
:10085000062C1AD139480068007800F07F00012882
:1008600013D136480068407978B9344800688078F8
:10087000222802D1AFF23B0512E0304800688078B0
:1008800021280DD1AFF259050AE02C480068007804
:1008900000F07F00212803D1032C01D1AFF28505A0
:1008A0000DB9022070BD25480068856100212348EC
:1008B000006841820020A8470020F3E71F48006835
:1008C000C178244801600020704700B502461B48EB
:1008D0000068007800F07F00212804D10B2A02D1A3
:1008E000FFF7ECFF00BD0220FCE710B504461C49F1
:1008F000204601F09FFE10BD10B504461949204660
:1009000001F098FE10BD70B505460C480068C4782B
:10091000042C01DD002070BD134800EBC401284603
:1009200001F088FEF7E70246002901DD022070474A
:10093000002A01DD0220FAE70020F8E70801002084
:10094000445C004012010020F8000020283A000812
:10095000640000205C000020D0000020C8000020BF
:10096000B8000020C0000020D800002010B50120F1
:10097000FFF756FD01244C48046000204B490880D5
:1009800008460088484908600020091D08604FF4A7
:10099000E050464908800846008843490860002026
:1009A00010BD10B50120404908600020091D0860F5
:1009B000FFF736FD03203C490860002010BD10B54C
:1009C0003948006884B244F008043748046000687D
:1009D00084B244F0040434480460FFF7F2FC10BD14
:1009E00010B53148006884B224F004042E48046035
:1009F000FFF7EBFC4FF43F402B49086010BD70B58A
:100A00000546072D01D02A48057029480078082896
:100A100041D2DFE800F0040A1016212E4142FFF710
:100A2000DFFF0620224908703BE0FFF7D9FF0420D2
:100A30001F49087035E002201D49487003200870E6
:100A40002FE01B484078401E1949487008464078FE
:100A500008B90420087024E01348006884B244F008
:100A60001004114804600520114908700A204870DC
:100A700017E00F484078401E0D49487008464078FE
:100A800040B90948006884B224F0100406480460A4
:100A90000620087005E000BF00BF0620044908706A
:100AA00000BF00BF70BD0000405C0040120100208C
:100AB000FD000020704700BFFEE700BFFEE700BF5B
:100AC000FEE700BFFEE7704770477047704770470A
:100AD000704770477047704770477047704770475E
:100AE000704770477047704770477047704770474E
:100AF0007047704770477047704710B5FFF792FD19
:100B000010BD704770477047704770477047704717
:100B1000704710B50221480701F069FBF0B11F488A
:100B2000006800F0010030B11D48006820F00100AD
:100B30001B49086005E01A48006840F001001849A8
:100B4000086018480078FF2804DA16480078401C2E
:100B5000144908700221480701F05AFB10BD704784
:100B600070477047704770477047704770477047CD
:100B700070477047704770477047704770477047BD
:100B800070477047704770477047704770477047AD
:100B90007047704770477047704700000C0C014069
:100BA0000C080140FF00002010B50446C649601A39
:100BB0008C422FD009DCC548204480B1B0F5806F4D
:100BC00016D0B0F5006F4AD11BE0B0F5806F2AD087
:100BD000B0F5006F30D0B0F5406F40D135E0012165
:100BE000042000F0EBFC0021042000F0E7FC37E0DB
:100BF0000121082000F0E2FC0021082000F0DEFCCA
:100C00002EE00121102000F0D9FC0021102000F07E
:100C1000D5FC25E00121202000F0D0FC002120207F
:100C200000F0CCFC1CE00121402000F0C7FC0021BA
:100C3000402000F0C3FC13E00121802000F0BEFC46
:100C40000021802000F0BAFC0AE00121080200F037
:100C5000B5FC00214FF4807000F0B0FC00E000BF54
:100C600000BF10BD10B50121084600F0A7FC00210F
:100C7000012000F0A3FC10BD2DE9F0410246002543
:100C80000026002000230024002791F803C00CF068
:100C90000F0591F803C00CF0100CBCF1000F03D04D
:100CA00091F802C04CEA050591F800C0BCF1000FB4
:100CB00031D0146800202BE04FF0010C0CFA00F347
:100CC000B1F800C00CEA03069E4220D183004FF029
:100CD0000F0C0CFA03F7BC4305FA03FC4CEA0404BE
:100CE00091F803C0BCF1280F06D14FF0010C0CFAAB
:100CF00000FCC2F814C00AE091F803C0BCF1480F30
:100D000005D14FF0010C0CFA00FCC2F810C0401CD9
:100D10000828D1D31460B1F800C0BCF1FF0F34DD56
:100D2000546800202EE000F1080C4FF0010808FA8A
:100D30000CF3B1F800C00CEA03069E4221D18300F7
:100D40004FF00F0C0CFA03F7BC4305FA03FC4CEA16
:100D5000040491F803C0BCF1280F05D100F1080C80
:100D600008FA0CF8C2F8148091F803C0BCF1480FDF
:100D700007D100F1080C4FF0010808FA0CF8C2F88E
:100D80001080401C0828CED35460BDE8F0814FF697
:100D9000FF710180022181700421C17070470246F9
:100DA000002093680B400BB1012000E00020704749
:100DB0000146886880B2704702460020D3680B4025
:100DC0000BB1012000E0002070470146C86880B2E6
:100DD000704701617047416170470AB1016100E0ED
:100DE00041617047C16070474FF480320A438261AD
:100DF0008161826182698269704702460020344BBA
:100E000018684FF68073184040EA02100843304BD0
:100E1000186070472F49C8617047F0B50A46002333
:100E20000024002100252A4E7168C0F3034583B2D7
:100E300000F44016B6F5401F08D121F07061244E31
:100E4000766826F07066224F7E6012E000F480160D
:100E5000B6F5801F06D1032606FA05F4A14341F03A
:100E6000706106E0460D360103FA06F6B14341F023
:100E7000706122B1460D360103FA06F63143144E75
:100E80007160F0BD30B500228B071C0F0F2303FAF1
:100E900004F20F4B08338C1053F8243093430C4C5E
:100EA00008348D1044F8253023468C1053F8243034
:100EB0008C07240F00FA04F42343054C08348D10EA
:100EC00044F8253030BD00000014014000F8FEBF9A
:100ED00000000140000020420020411EED4A116048
:100EE0000A09EC498039C1F88420411E4FF0E02204
:100EF000C2F880120A09E8490A6000BF04E0002233
:100F0000E64941F82020401C0F28F8D37047002004
:100F10004FF02061E24A11600021121D1160E14989
:100F2000121D11600021121D1160121D116000BF01
:100F300005E00022DA49143141F82020401C032842
:100F4000F7D30021D64A20321160491E121D1160CC
:100F5000121D1160121D11607047D2490143D04A21
:100F6000083211607047F0B50021002200230025EF
:100F70000F24C678002E35D0C94E0836366806F4E0
:100F8000E066C6F5E066310AC1F10405CC4046785A
:100F900006FA05F186782640314309010678B6073E
:100FA000F60EB140BD4E0778BF1056F827200678E0
:100FB000B607F70EFF2606FA07F39A4319400A43CD
:100FC000B64E0778BF1046F82720067806F01F07B0
:100FD0000126BE4007787F11BF0007F1E027C7F860
:100FE00000610BE0067806F01F070126BE40A94FFE
:100FF00090F800C04FEA6C1C47F82C60F0BD00214F
:10100000017041708170C170704710B5FFF717F91A
:1010100010BD10B5FFF711F910BD10B5FFF714F9A9
:1010200010BD10B5FFF712F910BD10B50446200130
:10103000FFF711F910BD10B5FFF710F910BD984872
:101040000068C0F30930704710B501460020002247
:1010500001F01F04012303FA04F28E4B80334C117C
:1010600053F824301340934201D1012000E00020C6
:1010700010BD8D490860704700F01F0201219140AA
:10108000854A121F431142F82310704784480068B4
:10109000C0F30900704710B501460020002201F09E
:1010A0001F04012303FA04F27B4B7C334C1153F8E9
:1010B00024301340934201D1012000E0002010BDF4
:1010C0007748001F00687047784A0A400243744B13
:1010D0001B1D1A6070477348001D71490831086074
:1010E00070477048401C6E4908310860704739B13C
:1010F0006B4A0C3212680243694B0C331A6006E0EB
:10110000674A0C3212688243654B0C331A60704791
:1011100010B5002200F01F04012303FA04F239B1D4
:101120005F4B20331B6813435D4C2034236006E083
:101130005B4B20331B689343594C2034236010BD14
:10114000F0B503460C4615460020FF22002600217C
:10115000534F08373F6807F4E067C7F5E067390A7F
:10116000C1F10400CA4004FA00F105EA020739435C
:10117000090103F0C0008009C3F30122D700B94080
:101180004FEAC20CFF2707FA0CF6454F143757F801
:101190002070B743DFF808C10CF1140C4CF8207034
:1011A000674657F820700F434CF82070F0BD10B51B
:1011B0000246002000230021910A01F00F010124C2
:1011C00004FA01F1364C2034246804EA01038B420E
:1011D00001D1012000E0002010BD002100F01F011E
:1011E0002F4A126801238B401A432D4B1A60704717
:1011F00010B5002100F01F01294A12684B1E01247E
:101200009C402243264B1A6010BD10B502460020B8
:1012100000230021C2F38331012404FA01F1204CA0
:101220002034246804EA01038B4201D1012000E04C
:10123000002010BD30B50146002000220023C1F37C
:101240008142C1F301531AB9154C2834206811E0CA
:10125000012A0CD1124C24342468DD0024FA05F054
:10126000022B02D000F00F0004E0C0B202E00C4CF0
:101270002C34206830BD014600200022C1F380528A
:101280001AB9074B3033186802E0054B343318683D
:101290007047000080E100E084E200E000E400E04C
:1012A00004ED00E00000FA0500EF00E080FFFF1F02
:1012B000DE48006840F00100DC49086008464068EC
:1012C000DB490840D949486008460068D9490840C8
:1012D000D64908600846006820F480200860084667
:1012E000406820F4FE004860002088607047CF49C5
:1012F000096821F48031CD4A11601146096821F452
:1013000080211160B0F5803F03D0B0F5802F0ED161
:1013100006E0C649096841F48031C44A116007E01B
:10132000C249096841F4A021C04A116000E000BF31
:1013300000BF704710B501460022002300204A116B
:10134000012A02D1B94C236806E0022A02D1B74C27
:10135000236A01E0B54C636A01F01F020124944046
:101360001C400CB1012000E0002010BD38B5002069
:1013700000900024002500BF3120FFF7DBFF054669
:101380000098401C00901DB90098B0F5A06FF3D1F3
:101390003120FFF7CFFF08B1012400E000242046F0
:1013A00038BD01460020A14A106820F0F80040EA4C
:1013B000C10010607047A0490860704702460020D5
:1013C0009A4B586820F47C1042EA01031843974B6B
:1013D0005860704798490866704701460020934A54
:1013E000506820F003000843506070478F48406801
:1013F00000F00C007047014600208C4A506820F035
:10140000F00008435060704701460020874A50684A
:1014100020F4E06008435060704701460020834A92
:10142000506820F4605040EAC1005060704729B114
:101430007E4A527A02437D4B5A7204E07B4A527ACA
:1014400082437A4B5A7270477B49D83108607047A3
:1014500001460020754A506820F44040084350601F
:1014600070470021714A20321170704A82F82010B2
:10147000012802D004280AD104E001216B4A20325D
:10148000117005E00521694A2032117000E000BFAB
:1014900000BF70476949086070476449096A0143A1
:1014A000624A11627047654944390860704730B537
:1014B00000210022002400235C4D6D6805F00C0122
:1014C00021B1042905D0082923D105E05C4D056030
:1014D00022E05B4D05601FE0544D6D6805F470120D
:1014E000022505EB9242514D6D6805F480341CB91C
:1014F000544D554305600BE04C4D6D6805F40035C7
:101500001DB1504D5543056002E04D4D55430560FA
:1015100002E04B4D056000BF00BF444D6D6805F013
:10152000F0010909484D6B5C0568DD4045603F4DA1
:101530006D6805F4E061090A434D6B5C4568DD4068
:1015400085603A4D6D6805F46051C90A3E4D6B5C8B
:101550004568DD40C560354D6D6805F44041890B37
:101560003A4D6B5CC568B5FBF3F5056130BD29B13B
:101570002E4A526902432D4B5A6104E02B4A5269AC
:1015800082432A4B5A61704729B1284A9269024323
:10159000264B9A6104E0254A92698243234B9A6163
:1015A000704729B1214AD2690243204BDA6104E035
:1015B0001E4AD26982431D4BDA61704729B11B4A2A
:1015C000D2680243194BDA6004E0184AD2688243B9
:1015D000164BDA60704729B1144A12690243134B63
:1015E0001A6104E0114A12698243104B1A61704774
:1015F00012494039086070470F49C86470470B4969
:10160000C87170470948406A40F0807007494862D5
:10161000704701460020054A92680A400AB101203D
:1016200000E00020704701498872704700100240B6
:101630000000FFF8FFFFF6FE000042428004424235
:1016400000127A0000093D00D63A0008E63A000888
:1016500010B50446F749601A8C4245D00CDCB4F151
:10166000804F1DD0F448204418B3B0F5806F29D0C6
:10167000B0F5006F54D12EE0B0F5806F3DD0B0F5DD
:101680008E3F03D0B0F5923F4AD13FE00121C8021E
:10169000FFF794FF00214FF40060FFF78FFF40E059
:1016A00001210846FFF797FF00210120FFF793FF74
:1016B00037E001210220FFF78EFF00210220FFF713
:1016C0008AFF2EE001210420FFF785FF002104207E
:1016D000FFF781FF25E001210820FFF77CFF0021B3
:1016E0000820FFF778FF1CE001211020FFF773FFAF
:1016F00000211020FFF76FFF13E001212020FFF7EA
:101700006AFF00212020FFF766FF0AE0012148035D
:10171000FFF754FF00214FF40050FFF74FFF00E0A8
:1017200000BF00BF10BD028802F08F020280CA888D
:101730004B881A4303881A4302808A8882850A8864
:10174000028501228282BD4A904202D0BC4A904268
:1017500001D10A7A0286704770B500240022002366
:10176000058C4FF6FE7635400584028C8388048B09
:101770004FF68F752C400D882C43751E2A400D891D
:101780002A434D882A43CD888586AC4DA84202D095
:10179000AB4DA84213D14FF6F7752A404D892A4325
:1017A0004FF6FB752A408D882A4347F6FF652B408C
:1017B00047F6FF552B408D892B43CD892B438380E2
:1017C0000483028470BD70B5002400220023058CC0
:1017D0004FF6EF7635400584028C8388048B48F6FB
:1017E000FF752C400D884FF6FF7606EA05252C4341
:1017F0004FF6DF752A400D8906EA05152A434D8804
:1018000006EA05152A43CD8805878C4DA84202D0EB
:101810008B4DA8421DD14FF67F752A404D894FF65A
:10182000FF7606EA05152A434FF6BF752A408D88D4
:1018300006EA05152A4347F6FF352B4047F2FF75A8
:101840002B408D8906EA85052B43CD8906EA85055F
:101850002B4383800483028470BD70B50024002272
:101860000023058C4FF6FF6635400584028C838883
:10187000848B4FF68F752C400D882C434FF6FF5507
:101880002A400D894FF6FF7606EA05252A434D8842
:1018900006EA05252A43CD888587684DA84202D0EF
:1018A000674DA8421DD14FF2FF752A404D894FF672
:1018B000FF7606EA05252A434FF6FF352A408D8834
:1018C00006EA05252A4346F6FF752B4045F6FF75C7
:1018D0002B408D8906EA05152B43CD8906EA0515AF
:1018E0002B4383808483028470BD70B50024002262
:1018F0000023058C4EF6FF7635400584028C8388E4
:10190000848B48F6FF752C400D884FF6FF7606EA6B
:1019100005252C434DF6FF752A400D8906EA05354D
:101920002A434D8806EA05352A43CD88A0F8405061
:10193000424DA84202D0424DA84207D1C3F30D0345
:101940008D894FF6FF7606EA85152B4383808483C5
:10195000028470BD828B4FF2FF331A408283828BE8
:101960004FF6FF7303EA01231A4382837047F0B5F1
:101970000C461546002100220026078C4EF6FF7CFF
:1019800007EA0C070784818B028C4FF6FF7707EA82
:10199000043640F6FF4739404FF6FF7707EA052740
:1019A0004FF6FF7C0CEA033C47EA0C0739434DF63F
:1019B000FF773A4046F480573A4381830284F0BD72
:1019C000828B4FF6F3731A408283828B0A438283A1
:1019D0007047F0B50C461546002100220026078C02
:1019E0004FF6FF6C07EA0C070784818B028C4FF6D9
:1019F000FF7707EA04264FF60C7739404FF6FF775A
:101A000007EA03172F4339434FF6FF573A4046F48E
:101A100080773A4381830284F0BD028B4FF2FF331B
:101A20001A400283028B4FF6FF7303EA01231A4325
:101A3000028370470010004000FCFFBF002C0140F3
:101A400000340140F0B50C46154600210022002666
:101A5000078C4FF6EF7C07EA0C070784018B028C9A
:101A60004FF6FF7707EA041640F6FF4739404FF676
:101A7000FF7707EA033739434FF6FF7707EA052771
:101A800039434FF6DF773A4046F010073A43018377
:101A90000284F0BD028B4FF6F3731A400283028B6F
:101AA0000A4302837047F0B50C4615460021002218
:101AB000068C4FF6FE773E400684018B028C4FF673
:101AC0000C7631407E1C06EA03162E4331437E1EFF
:101AD000324044F00106324301830284F0BD70B508
:101AE00005460C46208850B92389A288618828467B
:101AF000FFF7D9FFE1882846FFF7CCFF25E02088D3
:101B000004280AD12389A28861882846FFF79AFF12
:101B1000E1882846FFF781FF17E0208808280AD1CE
:101B20002389A28861882846FFF753FFE188284669
:101B3000FFF746FF09E02389A28861882846FFF75E
:101B400016FFE1882846FFF705FF70BD2DE9F0413B
:101B500005460C4600260127608808B9022600E0E9
:101B60000026A088012801D1022700E00127208853
:101B7000A0B92389A28861882846FFF794FFE188ED
:101B80002846FFF787FF23893A4631462846FFF764
:101B900059FFE1882846FFF740FF13E02389A28818
:101BA00061882846FFF74EFFE1882846FFF735FF9A
:101BB00023893A4631462846FFF775FFE1882846D3
:101BC000FFF768FFBDE8F0810A884B881A438B88CD
:101BD0001A43CB881A430B891A434B891A438B89C2
:101BE0001A43A0F8442070474FF6FF71818000210E
:101BF0000180C180418001727047002101804180D5
:101C00008180C180018141818181C1817047002132
:101C100001804180012181800021C18001817047C4
:101C20000021018041808180C180018141818181C9
:101C3000704721B1028842F00102028004E002886C
:101C400040F2FE331A400280704731B1B0F84420B0
:101C500042F40042A0F8442005E0B0F84420C2F36A
:101C60000E02A0F8442070471AB183890B43838188
:101C700002E083898B43838170478182704741EA08
:101C80000203A0F8483070471AB183890B4383815F
:101C900002E083898B438381704701894FF6F87294
:101CA0001140018170470A46002101894FF68F7368
:101CB000194011430181704730B504460D4629464D
:101CC0002046FFF7F0FF208940F00700208130BD5B
:101CD0002DE9F04104460D4616461F46602D06D1FB
:101CE0003B46012231462046FFF7ACFE05E03B466D
:101CF000012231462046FFF7D6FE29462046FFF74F
:101D0000D2FF208940F007002081BDE8F08170B546
:101D10000C4600210189C9B244EA02054FF6FF765C
:101D200006EA032635432943018170BD2DE9F041C0
:101D300005460E4617469846002443463A46314625
:101D40002846FFF7E4FF2C894FF6F870044044F072
:101D500007044FF68F70044044F070042C81BDE8F6
:101D6000F081F0B504460D4616461F463B46324606
:101D700029462046FFF7CBFF208940F48040208190
:101D8000F0BD0185828270470A460021018840F239
:101D90008F331940114301807047F0B50C4615464A
:101DA0001E460021002200230189028B038C4FF67E
:101DB000F877394021434FF6FC473A4040F201178B
:101DC0003A434FF6DD773B404FF6FF7707EA0617B9
:101DD0002F433B43018102830384F0BD0A46002167
:101DE000018B4FF68F7319401143018370470A46E8
:101DF0000021018B48F6FF7319404FF6FF7303EA89
:101E000002231943018370470A460021818B4FF654
:101E10008F7319401143818370470A460021818BDB
:101E200048F6FF7319404FF6FF7303EA0223194384
:101E30008183704721B1028842F08002028004E071
:101E4000028840F27F331A400280704721B18288B5
:101E500042F00402828004E082884FF6FB731A404D
:101E60008280704721B1828842F00802828004E0BB
:101E700082884FF6F7731A408280704721B18288BA
:101E800042F00102828004E082884FF6FE731A401D
:101E9000828070470A460021018B4FF6F773194084
:101EA0001143018370470A460021018B4FF2FF73F3
:101EB00019404FF6FF7303EA022319430183704769
:101EC0000A460021818B4FF6F77319401143818335
:101ED00070470A460021818B4FF2FF7319404FF67D
:101EE000FF7303EA02231943818370470A460021E6
:101EF000018B4FF6FB7319401143018370470A466B
:101F00000021018B4FF6FF3319404FF6FF7303EAB0
:101F100002231943018370470A460021818B4FF643
:101F2000FB7319401143818370470A460021818B5E
:101F30004FF6FF3319404FF6FF7303EA02231943AC
:101F4000818370470A460021018B4FF67F73194049
:101F50001143018370470A460021018BC1F30E0132
:101F60004FF6FF7303EA02231943018370470A46C1
:101F70000021818B4FF67F73194011438183704795
:101F80000A460021818BC1F30E014FF6FF7303EA6D
:101F900002231943818370470A460021018C4FF6C2
:101FA000FD7319401143018470470A460021018CDA
:101FB0004FF6F77319401143018470470A46002118
:101FC000018C4FF6DF7319404FF6FF7303EA0213DB
:101FD0001943018470470A460021018C4FF67F7334
:101FE00019404FF6FF7303EA021319430184704747
:101FF0000A460021018C4FF6FF5319404FF6FF733C
:1020000003EA02231943018470470A460021018C28
:102010004FF2FF7319404FF6FF7303EA022319438F
:10202000018470470A460021018C4DF6FF73194068
:102030004FF6FF7303EA023319430184704710B56A
:10204000038C01248C40A3430384038C02FA01F423
:10205000A4B22343038410BD10B5038C04248C4028
:10206000A3430384038C02FA01F4A4B22343038440
:1020700010BD30B5038C01248C40A343038409B107
:10208000082918D100F1180303EB61031B684FF610
:102090008F74234000F1180404EB6104236000F105
:1020A000180303EB61031B68134300F1180404EBEE
:1020B000610423601FE00B1FC3F34E0400F11803FB
:1020C0001B5948F6FF7423400C1FC4F34E0500F162
:1020D000180463510B1FC3F34E0400F118031B597E
:1020E0004FF6FF7404EA022423430C1FC4F34E0589
:1020F00000F11804635130BD21B1028842F00202A0
:10210000028004E0028840F2FD331A4002807047EA
:1021100021B1028842F00402028004E0028840F209
:10212000FB331A400280704721B1828842F080025E
:10213000828004E082884FF67F731A408280704765
:10214000028840F2F7331A40028002880A43028074
:10215000704782884FF68F731A40828082880A43C4
:102160008280704702894FF6F8731A400281028913
:102170000A430281704702894FF67F731A40028139
:1021800002890A43028170478184704781857047C4
:10219000818670470187704781877047A0F840109B
:1021A00070470288D2B2028002880A4302807047D8
:1021B0000146888E70470146088F70470146888F18
:1021C00070470146B1F8400070470146888C70475F
:1021D0000146088D704702460020138A0B400BB160
:1021E000012000E000207047CA430282704730B5EA
:1021F0000246002000230024158A05EA0103958980
:1022000005EA010413B10CB1012000E0002030BD4B
:10221000CA430282704700001049096801F0380182
:102220000E4A1160114609680143116070470B495D
:10223000096821F00801094A116011460968014343
:10224000116070470549096821F01001034A1160C7
:1022500011460968014311607047000000200240E8
:1022600010B504462CB90120F949096808820020FC
:1022700010BDF849096808688047F54800680A30C9
:10228000F6E710B5F2480068C078F349497888420B
:1022900013DCEF480068807878B9ED4800688088E2
:1022A00058B9EB480068C078E94909688872E9497B
:1022B000096848688047002010BD0220FCE710B57F
:1022C00004462CB90120E24909680882002010BDAB
:1022D000E049096888688047DD4800680C30F6E707
:1022E00010B5DB4B1B68D978D94B1B685879DB4B91
:1022F0001B689A6990470446D5480068807AE8B11F
:102300003CB9D3480068007918B9D1480068807892
:1023100008B1022010BD8CB9CE490968C868804751
:10232000CB4800684079CA490968C872C848006843
:10233000C078C749096808730020EBE70220E9E785
:1023400010B504462CB90220C14909680882002052
:1023500010BD0020C2490880BD480068007800F028
:102360007F00E0B9BA490968487A00F0200129B134
:10237000BB49097841F00201B94A117000F04001EF
:1023800031B1B749097801F0FE01B54A117005E095
:10239000B349097841F00101B14A11703AE0AC4803
:1023A0000068007800F07F00012801D1AC48CFE739
:1023B000A7480068007800F07F00022828D1A44ACE
:1023C0001268517901F00F0001F080027AB1A54B3B
:1023D00003EB8002D2F8002C02F03002102A16D152
:1023E0009F4A127842F001029D4B1A700FE09D4BFC
:1023F00003EB8002D2F8002C02F44052B2F5805F69
:1024000005D1974A127842F00102954B1A7001E00B
:1024100000209DE78F49096808698047904897E741
:102420002DE9F0478A480068007800F07F08B8F18D
:10243000000F0AD186480068407A00F0DF00844926
:10244000096848720020BDE8F087B8F1020F7DD11D
:102450007F480068408818B97D480068007908B155
:102460000220F0E7DFF8F09179480068477927F01B
:1024700080052C4676480068407900F0800038B12D
:10248000784901EB8400D0F8000C00F0300606E03B
:10249000744901EB8400D0F8000C00F4405699F820
:1024A0000000A84204D91EB169480068807A08B9C2
:1024B0000220C8E707F0800080B16A4901EB840080
:1024C000D0F8000C00F03000102843D1E0B201F049
:1024D00031F8E0B2302100F0DAFE3BE0614901EB77
:1024E0008400D0F8000C00F44050B0F5805F31D18A
:1024F000C4B95D4A92F82C10E0B201F0A6F8594A2E
:1025000002EB8401D1F8001C4BF68F7201EA020045
:1025100080F4805080F40050524A02EB8401C1F8EC
:10252000000C17E0E0B200F0EEFF4E4A02EB84012F
:10253000D1F8001C4BF68F7201EA020080F4805043
:1025400080F40050474A02EB840100E008E0C1F843
:10255000000C00BF3F49096848698047002072E7C6
:1025600000BF02206FE72DE9F04139480068467945
:1025700026F080073C4636480068407900F080002D
:1025800038B1384901EB8400D0F8000C00F0300578
:1025900006E0344901EB8400D0F8000C00F440550B
:1025A0002D480078A04208D929480068408820B901
:1025B0001DB127480068807A10B90220BDE8F0817B
:1025C00006F0800080B1274A02EB8401D1F8001C9C
:1025D00048F6BF7201EA020080F01000214A02EBC7
:1025E0008401C1F8000C10E01E4A02EB8401D1F80E
:1025F000001C4BF68F7201EA020080F48050194AE9
:1026000002EB8401C1F8000C00BF12490968886917
:1026100080470020D2E710B50D480068407A40F0AE
:1026200020000B49096848720A490968C86980474F
:10263000002010BD10B5024605480068438AAAB9BB
:102640008888C01A024C24682082002010BD000037
:102650000801002014010020600000200C0100206F
:102660000001002000500040640000200868184469
:10267000ECE72DE9F041FE48006800F110042688DF
:10268000A068C0B1BEB1A588B54200D93546A8B290
:10269000A168884707462088401B2080608828441E
:1026A0006080002000F0A3FF8046AAB24146384671
:1026B00000F088FD00BF208850B14FF44050ED4934
:1026C00008800021084600F09EFF3020EA4908807B
:1026D0002088A188884204DB0320E5490968087244
:1026E00018E02088002804DD0520E1490968087207
:1026F00010E0208870B90620DD49096808720021C1
:10270000DE48006880B2801CDD4A42F8101030209C
:10271000D9490880BDE8F0812DE9F047D448006828
:1027200000F110052E88D2480068077AD6B9042F28
:1027300018D1D448007801280FD10021CF48006873
:1027400080B2801CCE4A42F810103020CA4908805E
:1027500000BF0020CB49087003E007271020C649BE
:10276000088027E0AC88A64201D8042000E00220BF
:102770000746B44200D93446A0B2A96888478046CB
:10278000002000F029FF8146A2B24946404600F0F1
:10279000FFFCA1B2002000F036FF2888001B288033
:1027A0006888204468803020B34908800002B1491D
:1027B000088000BFAE4909680F72BDE8F08770B5A8
:1027C0000226AB4800684478A9480068007800F009
:1027D0007F0000284AD1092C03D1FFF752FD06469D
:1027E00065E0052C14D1A2480068C0787F280BDC76
:1027F0009F480068807838B99D480068808818B97B
:102800009B480068807A08B108256BE000264EE0FE
:10281000032C14D196480068C07801280DD1944843
:102820000068808848B992480068407A00F020002B
:1028300018B1FFF7F0FE064639E0022637E0012C1A
:1028400035D18B480068C07801280DD188480068D0
:10285000808848B986480068407A00F0200018B1A6
:10286000FFF7DEFD064622E0022620E080480068F1
:10287000007800F07F00012805D10B2C17D1FFF75D
:102880002FFD064613E07A480068007800F07F00CC
:1028900002280BD1012C03D1FFF7C2FD064606E04A
:1028A000032C04D1FFF75FFE064600E002264EB17E
:1028B000E0B2754A1268516988470646032E01D175
:1028C00009250FE00EB108250CE0062500216B4814
:1028D000006880B2801C6A4A42F8101030206649B5
:1028E000088000BF624909680D7270BD2DE9F84F7C
:1028F0005F48006845780027BA46062D1BD15C4822
:102900000068007800F07F00002813D1584909685A
:102910008878012803D15C490968CF690AE0022858
:1029200003D1594909680F6A04E0032802D15649C6
:1029300009684F6A99E0002D67D14D4800684088CA
:10294000002862D14A480068C08802285DD1484802
:1029500000680079002858D145480068007800F0E8
:102960007F0030B942480068808810B9AFF22F6705
:102970007BE03F480068007800F07F00012811D11B
:102980003B4909684879404909688A6900219047AC
:1029900000286AD136480068807A002865D0AFF2F6
:1029A0005F6762E032480068007800F07F0002282C
:1029B0005BD12F480068407900F00F062C48006872
:1029C000407900F070092A480068407900F08000E2
:1029D00038B12E4901EB8600D0F8000C00F0300829
:1029E00006E02A4901EB8600D0F8000C00F44058BC
:1029F00027480078B04238D9B9F1000F35D1B8F185
:102A0000000F32D0AFF2C7672FE0082D08D1184869
:102A10000068007800F07F0038BBAFF2BB7724E09D
:102A20000A2D22D112480068007800F07F000128AA
:102A30001BD10F480068807AB8B10D480068408803
:102A400098B90B480068007978B909480068C088CF
:102A500001280AD10649096848790B4909688A6939
:102A60000021904708B9AFF2A977EFB1004811E013
:102A700008010020180100201A010020505C0040CD
:102A800000600040020100200C01002000500040C6
:102A9000600000200068A0F812A0AE4800688761BE
:102AA0000020B84700240FE0AA4A12685078AA4ACA
:102AB0001268116988470446032C05D10920A549ED
:102AC00009680872BDE8F88FA2480068008A4FF6CE
:102AD000FF71884204D109209E4909680872F1E714
:102AE000022C03D09B480068008A20B9082099492D
:102AF00009680872E6E797480068007800F08000EF
:102B0000E0B394480068C088009092480068008A4A
:102B10000099884204D98F4900980968088223E007
:102B20008C480068008A8B490968C98888421BDA8A
:102B300088480068008A8849096891F82C10884202
:102B400003DA0020854908700EE082480068008A98
:102B50008149096891F82C1090FBF1F201FB1200F9
:102B600010B901207D4908707B48006890F82C104E
:102B7000784800688182FFF7CFFD07E0FFE7032078
:102B800074490968087200037549088000BF99E715
:102B900010B5744890F82C10002000F056FD6D48D8
:102BA0000068007A082805D140026D49088010208D
:102BB0006D49088067480068007A092801D1012022
:102BC00010BD0020FCE708B56848006880B2001D11
:102BD000674931F8100080B201EB400000905D4879
:102BE0000068007A09282FD00098007859490968B0
:102BF00008700098401C00900098007855490968BA
:102C000048700098401C00900098801C009000992B
:102C100031F8020B009100F0B9FE4E490968488076
:102C20000098801C0090009931F8020B009100F090
:102C3000ADFE4849096888800098801C0090009883
:102C4000008844490968C88001204249096808721F
:102C500040480068C08810B9FFF7B1FD01E0FFF7F8
:102C600045FEFFF795FF08BD30B50146414B1A7888
:102C7000002011E00306404C04EB9353D3F8003CD2
:102C800048F68F742340C4B2234304063A4D05EB43
:102C90009454C4F8003C401C9042EBD341F08003B4
:102CA000324C241F236030BD10B52A480068047AD6
:102CB000022C01D0042C05D1FFF72EFD2548006819
:102CC000047A1CE0062C19D12248006840780528B7
:102CD0000ED120480068007800F07F0040B91D49FF
:102CE0000968C878FFF7C0FF24490968086A804767
:102CF0001949096888688047082400E008241549B4
:102D000009680C72FFF744FF10BD10B51148006848
:102D1000047A032C01D0052C05D1FFF7AAFC0D483D
:102D20000068047A0EE0072C05D10B490968C868D1
:102D30008047082406E0022C01D0042C01D108248D
:102D400000E00824034909680C72FFF721FF10BD59
:102D500070470000080100200C0100200201002043
:102D600018010020640000201A010020505C00407F
:102D7000006000406000002000500040140100206E
:102D800010B5084808490860022009680872074819
:102D90000749086007480849086005490968086844
:102DA000804710BD48010020080100206400002079
:102DB0000C010020940000201401002010B5002414
:102DC00073E147F6FF70EA490860EA48008800F0BE
:102DD0000F00E94908700846007800287ED1E448D1
:102DE0004438006800F44050E4490880E048443822
:102DF000006800F03000E2490880DD494439096884
:102E00004BF68F7201EA020080F40050D849443931
:102E10000860096848F6BF7201EA020080F02000ED
:102E2000D34944390860D348008800F010000028D6
:102E300038D10846006848F60F710840CC4944393B
:102E40000860FFF731FFCA49443909684BF68F72B1
:102E500001EA0200C949098801F4805109B180F4EE
:102E60008050C649098801F4005109B180F400502E
:102E7000BF4944390860096848F6BF7201EA020098
:102E8000BF49097801F0100109B180F01000BC4978
:102E9000097801F0200109B180F02000B4494439DB
:102EA000086010BDB2484438006884B204F0800065
:102EB000D8B3AF484438006848F60F710840AC49B1
:102EC00044390860FFF7F0FEA949443909684BF618
:102ED0008F7201EA0200A949098800E0A6E001F426
:102EE000805109B180F48050A449098801F400514F
:102EF00009B180F400509E4944390860096848F6D9
:102F0000BF7201EA02009E49097801F0100109B17F
:102F100080F010009A49097801F0200109B180F091
:102F20002000934944390860BBE7FFE704F40060E0
:102F3000D8B38F4844380068C0F30E0048F68F714C
:102F400008408B4944390860FFF73DFE8849443901
:102F500009684BF68F7201EA02008849098801F47A
:102F6000805109B180F480508449098801F40051EE
:102F700009B180F400507E4944390860096848F678
:102F8000BF7201EA02007E49097801F0100109B11F
:102F900080F010007A49097801F0200109B180F031
:102FA00020007349443908607BE7FFE704F40040E0
:102FB00000287AD06E4844380068C0F30E0048F606
:102FC0008F7108406A4944390860FFF79EFE6849DE
:102FD000443909684BF68F7201EA02006749098893
:102FE00001F4805109B180F480506449098801F4EA
:102FF000005109B180F400505D4944390860096806
:1030000048F6BF7201EA02005D49097801F010013B
:1030100009B180F010005A49097801F0200109B186
:1030200080F020005249443908603AE7524800785D
:10303000544901EB8000D0F8000C84B204F4004045
:10304000C0B14D48007801EB8000D0F8000CC0F30F
:103050000E0048F68F71084047490978494A02EB4B
:103060008101C1F8000C44490978491E464A52F8CA
:103070002100804704F08000B8B13F480078414902
:1030800001EB8000D0F8000C48F60F7108403A4977
:1030900009783C4A02EB8101C1F8000C36490978F5
:1030A000491E3A4A52F8210080473148006880B2F0
:1030B0003049088000F4004000287FF482AE00BF51
:1030C000EFE610B5002449E047F6FF702849086094
:1030D0002848008800F00F0027490870084600784B
:1030E000284901EB8000D0F8000C84B204F40040C1
:1030F000C8B12148007801EB8000D0F8000CC0F383
:103100000E0048F68F7108401B4909781D4A02EBF2
:103110008101C1F8000C18490978491E1A4A52F871
:10312000210080471AE004F08000B8B1124800780E
:10313000144901EB8000D0F8000C48F60F710840EC
:103140000D4909780F4A02EB8101C1F8000C0A49C8
:103150000978491E0D4A52F821008047044800684A
:1031600080B20449088000F400400028ACD110BDB2
:10317000445C0040200000200401002018010020D1
:103180001A010020005000404000002024000020D0
:10319000F0B5144604F1010C4FEA6C07DFF848C0A3
:1031A0000CEB41033D460AE00678401C90F800C055
:1031B00046EA0C2223F8022B9B1C401C6D1E002D9E
:1031C000F2D1F0BDF0B5561C7510074E06EB410468
:1031D0002B4605E034F8047B20F8017B401C5B1E85
:1031E000002BF7D1F0BD000000600040F7490860F7
:1031F0007047F648006880B27047F449091D0860BE
:103200007047F248001D006880B27047EF480830F0
:10321000006880B27047ED490C3108607047EB4898
:103220000C30006880B270474FF6F8710140E74AF1
:10323000103211607047E5481030006880B2704766
:10324000E34B03EB8002C2F8001C70470146E04AE2
:1032500002EB8100D0F8000C80B2704710B5DC4B57
:1032600003EB8002D2F8002C48F68F131A400A4371
:10327000D74C04EB8003C3F8002C10BD0146D44AA0
:1032800002EB8100D0F8000C00F4C060704710B56C
:10329000CF4C04EB8003D3F8003C48F6BF7403EA3C
:1032A000040201F010030BB182F0100201F02003C0
:1032B0000BB182F02002C64C04EB8003C3F8002C53
:1032C00010BD10B5C24C04EB8003D3F8003C4BF6A4
:1032D0008F7403EA040201F480530BB182F480522C
:1032E00001F400530BB182F40052B94C04EB80039B
:1032F000C3F8002C10BD30B503460C461846FFF746
:10330000A5FF0546012C07D125F48050B04A02EBF9
:103310008301C1F8000C08E0022C06D125F0100052
:10332000AB4A02EB8301C1F8000C30BD0146A84A4C
:1033300002EB8100D0F8000C00F03000704701462D
:10334000A34A02EB8100D0F8000C00F44050704713
:103350009F4B03EB8002D2F8002C48F6BF7302EAC1
:10336000030181F0100181F02001994B03EB8002F1
:10337000C2F8001C7047964B03EB8002D2F8002C79
:103380004BF68F7302EA030181F4805181F40051FE
:103390008F4B03EB8002C2F8001C70478C4A02EB93
:1033A0008001D1F8001C41F4807148F68F72114001
:1033B000874B03EB8002C2F8001C7047844A02EB83
:1033C0008001D1F8001C48F68F621140804B03EB5E
:1033D0008002C2F8001C70477D4A02EB8001D1F8E0
:1033E000001C48F68F621140794B03EB8002C2F853
:1033F000001C7047764A02EB8001D1F8001C41F4B2
:10340000807148F68F721140714B03EB8002C2F855
:10341000001C70476E4A02EB8001D1F8001C41F499
:10342000807148F68F721140694B03EB8002C2F83D
:10343000001C7047664A02EB8001D1F8001C48F678
:103440008F621140624B03EB8002C2F8001C704790
:1034500001465F4A02EB8100D0F8000C00F030001A
:10346000102801D1012070470020FCE70146584A8E
:1034700002EB8100D0F8000C00F44050B0F5805F02
:1034800001D1012070470020FCE7514A02EB800186
:10349000D1F8001CC1F30E0148F68F7211404C4B5D
:1034A00003EB8002C2F8001C7047494A02EB80011E
:1034B000D1F8001C48F60F721140454B03EB800217
:1034C000C2F8001C7047424A02EB8001D1F8001C90
:1034D00048F68F72114041F480413D4B03EB80026E
:1034E000C2F8001C70473A4A02EB8001D1F8001C78
:1034F00048F68F72114041F04001354B03EB8002DA
:10350000C2F8001C7047324A02EB8001D1F8001C5F
:1035100001F4804169B102EB8001D1F8001C48F64A
:103520008F72114041F48041294B03EB8002C2F8B5
:10353000001C7047264A02EB8001D1F8001C01F004
:10354000400169B102EB8001D1F8001C48F68F728E
:10355000114041F040011E4B03EB8002C2F8001CF9
:10356000704710B51A4B03EB8002D2F8002C48F6D6
:103570008F731A400A43164C04EB8003C3F8002CE7
:1035800010BD0146124A02EB8100D0F8000C00F099
:103590000F00704710B54A1052000C4B10331B68D7
:1035A0009BB203EBC0030B4C44F8132010BD10B5C5
:1035B0004A105300054A1032126892B202EBC00260
:1035C000121D044C44F8123010BD0000405C004055
:1035D00000500040006000400146EF48006880B2A3
:1035E00000EBC100ED4A32F8100080B2704701468E
:1035F000E948006880B200EBC100001DE74A32F8DC
:10360000100080B27047E44A126892B202EBC00226
:10361000921CE24B43F81210704702463E290BDD24
:10362000481101F01F030BB9431E98B24FF4004339
:1036300043EA8023136007E0481001F001030BB157
:10364000431C98B283021360704710B50246D248FB
:10365000006880B200EBC200801DD04C04EB400338
:103660003E290BDD481101F01F040CB9441EA0B225
:103670004FF4004444EA80241C6007E0481001F045
:1036800001040CB1441CA0B284021C6010BD0146B0
:10369000C148006880B200EBC100801CBF4A32F80C
:1036A0001000C0F3090070470146BB48006880B2B3
:1036B00000EBC100801DB94A32F81000C0F30900C8
:1036C000704730B54B105B00B34C2468A4B204EBD8
:1036D000C004B24D45F8143053105C00AE4B1B686B
:1036E0009BB203EBC0031B1D45F8134030BD10B562
:1036F0004A105200A84B1B689BB203EBC003A74CB7
:1037000044F8132010BD10B54A105300A24A1268A5
:1037100092B202EBC002121DA04C44F8123010BD50
:1037200001469D48006880B200EBC1009B4A32F818
:10373000100080B2704701469748006880B200EBE5
:10374000C100001D954A32F8100080B2704730B5B4
:103750000B46012B1FD19049096889B201EBC001CA
:10376000891C8E4D05EB41043E2A0BDD511102F000
:103770001F050DB94D1EA9B24FF4004545EA81253C
:10378000256007E0511002F001050DB14D1CA9B2F2
:103790008D0225600AE0022B08D17F49096889B2B1
:1037A00001EBC001891C7D4C44F81120012B1FD175
:1037B0007949096889B201EBC001891D774D05EB94
:1037C00041043E2A0BDD511102F01F050DB94D1EBB
:1037D000A9B24FF4004545EA8125256007E0511064
:1037E00002F001050DB14D1CA9B28D0225600AE061
:1037F000022B08D16849096889B201EBC001891D13
:10380000664C44F8112030BD30B5034601291FD164
:103810006148006880B200EBC300801C5F4D05EB7F
:1038200040043E2A0BDD501102F01F050DB9451E64
:10383000A8B24FF4004545EA8025256007E0501006
:1038400002F001050DB1451CA8B2850225600AE011
:10385000022908D15048006880B200EBC300801CE8
:103860004E4C44F8102030BD30B5034601291FD11D
:103870004948006880B200EBC300801D474D05EB4E
:1038800040043E2A0BDD501102F01F050DB9451E04
:10389000A8B24FF4004545EA8025256007E05010A6
:1038A00002F001050DB1451CA8B2850225600AE0B1
:1038B000022908D13848006880B200EBC300801D9F
:1038C000364C44F8102030BD01463348006880B2C1
:1038D00000EBC100801C314A32F81000C0F309002F
:1038E000704701462C48006880B200EBC100801D83
:1038F0002A4A32F81000C0F30900704701462648F2
:10390000006880B200EBC100801D244A32F810002C
:1039100000F47C4008B1012070471F48006880B265
:1039200000EBC100801C1D4A32F81000C0F30900F2
:1039300008B10220F0E70020EEE710B501290FD111
:10394000174B03EB8002D2F8002C48F68F731A4015
:1039500042F04002124C04EB8003C3F8002C10E04C
:1039600002290ED10E4B03EB8002D2F8002C48F650
:103970008F731A4042F48042094C04EB8003C3F871
:10398000002C10BD024641EA022070470146CAB22F
:103990000B1243EA02207047505C00400060004078
:1039A00000500040704770477047754600F028F897
:1039B000AE4605006946534620F00700854618B01C
:1039C00020B5FCF705FCBDE820404FF000064FF0A5
:1039D00000074FF000084FF0000B21F00701AC4644
:1039E000ACE8C009ACE8C009ACE8C009ACE8C00963
:1039F0008D4670470446AFF300802046FCF7DFFB9E
:103A0000004870476401002001491820ABBEFEE762
:103A10002600020070471201011000000040F3046C
:103A2000040100020102030109022900010100C092
:103A30003209040000020301010009210001000114
:103A4000223D000705810308002007050103080047
:103A50002005010906A101050719E029E715002540
:103A60000195087501810295017508810395067518
:103A70000825FF19002965810025019502750105BA
:103A800008190129029102950175069103C00403EA
:103A900009042603530054004D00690063007200BE
:103AA0006F0065006C0065006300740072006F00B9
:103AB0006E006900630073001E03530054004D0044
:103AC0003300320020004A006F0079007300740058
:103AD000690063006B0000000000010203040102A2
:103AE0000304060708090204060800000C3B00084E
:103AF000000000201C0100006C010008283C0008A8
:103B00001C010020AC0800008801000800001A0316
:103B1000530054004D0033003200310030000000EB
:103B20000000000000000000000000000000000095
:103B3000512D0008D7050008512D0008512D00080F
:103B4000512D0008512D0008512D0008B105000825
:103B5000512D0008512D0008512D0008512D00084D
:103B6000512D0008512D0008000000000301000045
:103B70001D0700084F07000817080008190800086B
:103B80004B080008CB08000827090008EB080008CC
:103B9000F9080008070900080000000040000000C4
:103BA000512D0008FF070008512D0008512D000875
:103BB000512D0008512D0008512D0008512D0008ED
:103BC0000F080008163A000812000000283A000802
:103BD00029000000513A00083D0000003A3A000870
:103BE000090000008E3A000804000000923A000824
:103BF00026000000B83A00081E0000000200002065
:103C00001A00000000000000010000000000000099
:103C100000000000000000000000000000000000A4
:083C200000000000000000009C
:0400000508000131BD
:00000001FF
