:10000000022C87020006C0E0C083C082C0D075D039
:10001000087F091237A18F4F754000E54F30E10A84
:10002000E4FD1236247D120205A6E54F20E003020E
:1000300005827F0A1237A18F4FE54F540F700302DC
:10004000057724F8700302052114700302032814B5
:10005000700302031624FE700302033A240A6003AD
:1000600002057EE54F20E40302057E7F0B1237A1D7
:100070008F477B007A007978AD477FC012347FE5E7
:1000800047700D7F0E1237A1EF54FC440202032289
:100090007879E6F41866600302057EE620E703023D
:1000A0000281E6540C60030202E8754700E54778D8
:1000B0007E6670030202757E007B00747F2547F91F
:1000C000EE3400FA121C1FF5227878E654031470FF
:1000D000030201EE147003020210147003020236D0
:1000E00024036003020250787AE6121CCB011580CB
:1000F000012787013988014B89015D90016F9801C3
:1001000081990193A001A5A801B7B001C9B801D98F
:10011000C8000001E97878E630E606852280020210
:10012000508580220202507878E630E606852287E4
:100130000202508587220202507878E630E6068572
:1001400022880202508588220202507878E630E642
:10015000068522890202508589220202507878E6BB
:1001600030E60685229002025085902202025078E5
:1001700078E630E60685229802025085982202022F
:10018000507878E630E60685229902025085992259
:100190000202507878E630E6068522A002025085F9
:1001A000A0220202507878E630E6068522A80202F4
:1001B0005085A8220202507878E630E6068522B003
:1001C00002025085B0220202507878E630E60585BA
:1001D00022B8807C85B82280777878E630E605857D
:1001E00022C8806C85C8228067752200806278787A
:1001F000E6787A30E60DE6F97A007B00E522121CFB
:1002000038804DE6F97A007B00121C1FF5228040F1
:100210007878E6787B30E60FE6FE18E6FDEDF582AD
:100220008E83E522F08029E6FE18E6FDEDF5828E4C
:1002300083E0F522801A7878E630E6047680801034
:10024000787BE6FE18E6FDEDF5828E83E493F522D9
:100250007878E620E6127E007B00747F2547F9EE71
:100260003400FAE522121C38787A06E67002080695
:1002700005470200AD7878E630E667787E76008044
:10028000617878E624F060212410705C787F761025
:10029000187601787876007F0E1237A1EF54FC446F
:1002A00002FD7F0E1236378047787F76097547004A
:1002B00075502F755115855182855083E493FFE564
:1002C000477C007B00247FF9EC3400FAEF121C38E5
:1002D000600C05470551E55170DC055080D8787EEB
:1002E000760D787876008008787E7600787876804B
:1002F000787EE62407F547FD7F0B1236377B007AC0
:10030000007978AD477F401233BF7F0E1237A1EFDF
:1003100054FC6480800C7F0E1237A1EF54FC440221
:100320006440FD7F0E02057B7F0D1237A1EF54F074
:10033000440E6440FD7F0D02057B7F0B1237A18FB9
:1003400047E547640860030204ECFB7A007952AD8C
:10035000477F2812347F900236E558F0E559700641
:10036000E0D3947F4006900236747FF0754700E535
:1003700052546060030204EC900235E553F07003C0
:100380000204CC14700302046424FC7003020440D1
:1003900024FD700302044914700302045E14700308
:1003A0000204B7240460030204EAE55524FE601544
:1003B000146020240270517510FF75112F751237CB
:1003C00075471280467510FF75112F7512497547D4
:1003D000278038E554602324FE601104702A7510CC
:1003E000FF75112F75127475470E801F7510FF75FC
:1003F000112F75128275470C80117510FF75112F22
:1004000075127075470480037547FF900236E0D37C
:1004100095474003E547F0900236E0FFC39408405B
:10042000067E087F0880001233B3900236E0C39541
:1004300047F0E5472512F512E43511F5110204EFF6
:10044000900236E554F00204EFAD137F20123637E8
:10045000900236E0C3940150030204EF8069855492
:10046000130204EFE552541F64027049E55614600C
:10047000321460132481601C1470387F0E1237A16F
:10048000EF54FC440280087F0E1237A1EF54CFFDD9
:100490007F0E801A7F0D1237A1EF54F0440EFD7FBE
:1004A0000D800B7F0D1237A1EF54CFFD7F0D12365B
:1004B00037803C80378035E4FD7F2012363790024C
:1004C00036E0C3940140287547018023E4FD7F2076
:1004D0001236370F123637900236E0FFC3940240CF
:1004E0000575470280098F47800580007547FFE545
:1004F00047B4FF077D3F7F0C02057BE547D3940897
:100500007F0C50101237A1EF54C0FFE547540F4F36
:10051000444080081237A1EF54C0448EFD7F0C8008
:100520005A900235E024FB603E147045900236E09C
:10053000FFC3940840067E087F0880001233B39002
:100540000236E0C39547F0E5472512F512E4351170
:10055000F5117F0C1237A1EF54F0FFE547540F4F10
:100560006440FD7F0C8014900236E0FD7F08123657
:10057000377D0E7F0C80047D0E7F0C1236377D1187
:100580008024E54F30E2147D147F091236377F0551
:100590001237A1EF4401FD7F05800DE54F30E304E4
:1005A0007D1880027D1F7F09123637D0D0D082D0CF
:1005B00083D0E032E540C39410500712113BEF6046
:1005C0000122123604EF600122C20A7878E6645CE8
:1005D0006004E6B42F05752D7980177879E6643AC2
:1005E00060030206A018E6C3944350030206A075F8
:1005F0002D7BE547B4031090021EE0FCA3E0FDA3B1
:10060000E0FEA3E0FF8005E4FFFEFDFC8F3D8E3C95
:100610008D3B8C3AA82DE660030206A374FFF544D7
:10062000F543F542F541E54764036057753D029097
:100630000212E0FCA3E0FDA3E0FEA3E0FF90022194
:10064000E0FBC3EF9BFFEE9400FEED9400FDEC9405
:1006500000FC900212121CA6900220E0FEA3E0A86B
:1006600030088005C333CE33CED8F9FFE48F448EF3
:1006700043F542F541AF22FCFDFE90021E121CA67E
:10068000752280853D34853C33853B32853A31E4A3
:10069000F54EF54DF54CF54BF5357540127F412281
:1006A000752D78A82DE6B4E5027605E53D700CE5DC
:1006B0003A7008E53B7004E53C6038852235E53D3D
:1006C00024FEFFE53C34FFFEE53B34FFFDE53A3414
:1006D000FFFC900209E0F8121C6E900212E0F8A3F1
:1006E000E0F9A3E0FAA3E02FFFEA3EFEE93DFDE8D2
:1006F0003C8024900221E0F535AF35CB900212E02A
:10070000FCA3E0FDA3E0FEA3E0C39BFFEE9400FE8C
:10071000ED9400FDEC9400FC900219121CA6E53546
:1007200070030209D3122420EF600122E4F53EF5A4
:100730003FD3900217E0953F900216E0953E50039C
:100740000209AFE549253FF52FE548353EF52E85F1
:100750002F82F583E0FF7003020A00EF64E5700367
:100760000209A1BF05027FE5A82DE6FE6F6008EE35
:10077000642A60030209A1E4F539FFEFC3940B502A
:1007800078E52F2FF582E4352EF583E0FEAD39E5CF
:100790002D2DF8EE66605DAD39E52D2DF8E660157E
:1007A000AD39E52D2DF8E6645C600AAD39E52D2DF7
:1007B000F8E6B42F1FEE6420703FEFC3940850108A
:1007C000E52F2408F582E4352EF583E064207029B6
:1007D0007F0B8025AE39E52D2EF8E6B42E1BE539CA
:1007E0006408600EE52F2FF582E4352EF583E0B422
:1007F00020077F070F05398082EFC3940B50030257
:1008000008E2E52F240BF582E4352EF583E030E392
:10081000030208E2C20BE52F241AFFE4352EFE1274
:10082000377CE48F3D8E3CF53BF53AE547B4031049
:10083000E52F2414FFE4352EFE12377C8E3A8F3BD1
:10084000AF39E52D2FF8E66006200B030208D885A6
:100850003D34853C33853B32853A31E4F54EF54DE8
:10086000F54CF54BF535E52F240BF582E4352EF5E7
:1008700083E030E41F74FFF544F543F542F5417D14
:10088000137F10123608EF600122300B047F438083
:10089000027F4122E52F241CFFE4352EFE1236F3A1
:1008A0008F448E438D428C41E53D7017E53A7013BD
:1008B000E53B700FE53C700B7535FFF544F543F5EE
:1008C00042F5417D147F10123608EF600122300B93
:1008D000047F4380027F0022E53904252DF52D0297
:1008E00006A3AF39E52D2FF8E6642A60030209A1BB
:1008F000E52F240BF582E4352EF583E030E3030287
:1009000009A1E53904252DF8E67053E4FFF537E534
:100910002F2FF582E4352EF583E06420602FBF0889
:100920000AAE37E52D2EF8762E0537E52F2FF58206
:10093000E4352EF583E0FEAD37E52D2DF8EEF6E536
:10094000377008A82DE6B4050276E505370FBF0B12
:10095000BEAF37E52D2FF8E4F6D20B020816E539C5
:1009600004252DF8E6F47032E544700CE54170087A
:10097000E5427004E5436093E54130E7031237CE6A
:10098000E54424FFF544E54334FFF543E54234FFF5
:10099000F542E54134FFF5418007E53904252DF89E
:1009A000167420253FF53FE4353EF53E02073190B1
:1009B0000219E0FCA3E0FDA3E0FEA3E02401FFE4B4
:1009C0003EFEE43DFDE43CFC900219121CA61535E8
:1009D00002071EE53D700CE53A7008E53B7004E542
:1009E0003C601D7F3AE4FD121454EF600122200B9D
:1009F0000F85363A85373B85383C85393D0206A35D
:100A0000E4FFE52D2FF8E6FE6013642A600FEE6424
:100A10005C6004EEB42F037FB3220F80E57F422297
:100A2000E540D3940240037540021228BFEF6001F5
:100A300022900223E06003020B297F071237AC8F5C
:100A400037E53754F0FD7F0712373690021DE0601E
:100A5000047DC080027D807F06123736E4FD7F0E64
:100A60001237367F0112337C90021DE06034B402ED
:100A70000C7F031237ACEF54F04402801190021D3A
:100A8000E0B4030F7F031237ACEF540F4420FD7F17
:100A90000380137F021237ACEF54F04402FD7F0253
:100AA00080047D817F061237367F0112337C12333A
:100AB00004EF6006123304EF70057F1912337C9047
:100AC000021DE06034B4020C7F031237ACEF54F027
:100AD0004401801190021DE0B4030F7F031237AC74
:100AE000EF540F4410FD7F0380137F021237ACEFE9
:100AF00054F04401FD7F0280047D807F061237366A
:100B00007DC07F061237367538327F0512337C7D03
:100B10001F7F09123736AD377F071237361228BFCD
:100B2000EF6054D538E47F82227F0A12337C12377B
:100B30002D1237037D037F411237360D0F123736E2
:100B4000122A98E54A60101237037D017F4212375E
:100B500036122A98020CDB123741E54A700C85499F
:100B600082854883A3A3E030E4ED1237037D147F30
:100B700042123736122A987F3212337CE4FD7F0806
:100B80001237367C307DDE1236C2122A98E54A7062
:100B9000B67C307DE67F081236C290021DE0FF6011
:100BA000082402FD7F42123736900223E0600E9047
:100BB0000222E0547F2410FD7F42123736122A9819
:100BC000E54A70837F421237ACEFCD7F081237368B
:100BD0007F0A12337C7C307DEE7F081236C2122AE7
:100BE00098E54A6003020CDB854982854883A3A30C
:100BF000E0FD7F46123736E4FD0F123736122A9891
:100C0000E54A6003020CDBE5492405F582E435483A
:100C1000F583E0F537E549240EF582E43548F583A0
:100C2000E0FD6408706AE549240FF582E43548F573
:100C300083E0B4060543452080035345DFE549249E
:100C40000BF582E43548F583E0900200F0E4F538D6
:100C5000AF38EF75F007A42549FFE5F03548CF24FC
:100C600014CF34008F82F583E0F539A3A3E064400C
:100C7000704DE53930E708540F4490F52B8008E5B6
:100C800039540F4410F52C0538E538B402C28034CD
:100C9000ED6409702A900223E070247C307DF67F99
:100CA000081236C2122A98E54A7030E4900222F007
:100CB000854982854883A3A3E0900223F0700575DF
:100CC0004A1F80177C307DFE7F081236C2AD377F09
:100CD00042123736122A98E54A6045900222E060B7
:100CE0003C20E739854A37900223E0FF900222E05A
:100CF000C39F5021E004F0F5381228BF8F39E53941
:100D00007003020B29E539B48203AF392290022225
:100D1000E538F080D285374AE4900222F0AF4A22CB
:100D2000900223E06036900222E07030900222E0D0
:100D300004F01237037D037F411237367D080F120E
:100D40003736122A98900223E0FF900222E0C39FD8
:100D500040DAE4F07FC812337C020A2AE54F5404DB
:100D60004408F54F7C317D06122A89E54A700B85CF
:100D70004982854883E0F5378012E54AB42E0AE4BB
:100D8000FF1233E9E4F5378003AF4A227F021233C2
:100D90007CE4900218F07D247F1212341F1229B5D2
:100DA0008F39E5397023E5376018900218E070122A
:100DB000854982854883E0B405089002187401F0E3
:100DC00080D47D037F02023608E537600E9002185A
:100DD000E0C394035005E004F080BB12320222E528
:100DE000732467F8E605732278643007027867E4B5
:100DF00075F001121E07021C1F2000EB7F2ED2008F
:100E00008018EF540F2490D43440D4FF30040BEFFB
:100E100024BFB41A0050032461FFE5746002157406
:100E20000577E5777002057630070D7864E475F094
:100E300001121E07EF021C380235577403D20780D7
:100E400003E4C207F5738B648A658966E4F574F57B
:100E500076F577E57460077F20120E1A80F57575B8
:100E6000FFC201C200C202C203C205C206C208120A
:100E70000DE8FF700D3007057F00120E2BAF77AE27
:100E80007622B4255FC2D5C204120DE8FF24D0B487
:100E90000A00501A75F00A787430D50508B6FF01BB
:100EA00006C6A426F620D5047002D20380D924CF2A
:100EB000B41A00EF5004C2E5D20402102BD2018014
:100EC000C6D20080C0D20280BCD2D580BAD2058002
:100ED000B47F20120E1A2002077401B5740040F18D
:100EE000120DDFFF120E1A020E53D208D2068095A1
:100EF000120DDFFB120DDFFA120DDFF94A4B7006FF
:100F000079FC7A107BFF20022EE574602A7E008E29
:100F100082758300121DDA60060EEE657570F0C2F0
:100F2000D5EBC0E0EAC0E0E9C0E0EE121072D0E01C
:100F3000F9D0E0FAD0E0FB121C1FFF60AAEBC0E082
:100F4000EAC0E0E9C0E0120E1AD0E02401F9D0E0D6
:100F50003400FAD0E0FBE5750460DCD575D98087F4
:100F60007BFF7A10796ED202809C7910800279081A
:100F7000C206C2088008D2D5790A8004790AC2D58F
:100F8000E575047002F575E4FAFDFEFF120DDFFC55
:100F90007B08200113120DDFFD7B1030000A120DBB
:100FA000DFFE120DDFFF7B20EC3382D592D550138C
:100FB000C3E43000069FFFE49EFEE42001039DFD94
:100FC000E49CFCE4CBF8C201EC700CCFCECDCCE8B5
:100FD00024F8F870F38017C3EF33FFEE33FEED33E0
:100FE000FDEC33FCEB33FB994002FB0FD8E9EB300F
:100FF0000105F8D0E0C448B201C0E00AEC4D4E4F04
:1010000078207B0070C2EAB5750040BCC0E01210C9
:1010100074D0F0D0E0200104C4C0E0C4B201C0F03C
:10102000120E03D0F0D5F0EB020E53121CCB0EF0D3
:10103000530F6A580EC14C0EBD420F6E4F0F7644CF
:101040000F76490ED6430F7C550F60460F60450F53
:101050006047111C500EC52D0EC92E0EEC2B0ECD67
:10106000230EEA2011052A0E854800000EE43F3FBA
:101070003F00790AA2D5200314300509B9100204F3
:1010800004B9080104A2D520060250010420026818
:101090009202B574005034C0E07F203003197F30D5
:1010A000A20272067205500F1210CBC202C206C213
:1010B00005C2087F30800F300503E9C0E0120E1A28
:1010C000300503D0E0F9D0E0B574CC3005177F309F
:1010D000B9100C120E1A7F583004077F788003B9BC
:1010E0000803120E1A3002057F2D020E1A7F2020EF
:1010F00008F87F2B2006F322920280CF286E756CB1
:101100006C2900D201120DDF3001F8C20178743071
:10111000D50108F6020E852D50434958120DDF24E3
:1011200003B405004001E490111793120E0B743ABA
:10113000120E0BD203757404020F6AE540C39403C8
:10114000500A120A20EF600122122D13123794E484
:10115000F52EE4F526F525F524F523122432EF606B
:101160000D123341122D13122432EF600122E52EAD
:10117000700D854982854883E054FD64E96053E43D
:10118000FDED64406049E54924BEFFE5483401FEB9
:10119000ED7A002FFFEA3EF583EF2404F582E43573
:1011A00083F583E06023E54924BEFFE5483401FE72
:1011B000ED2FFFEA3ECF2408CF3400FE1236F38F26
:1011C000268E258D248C23800974102DFD80B27FFE
:1011D0009222AF26AE25AD24AC23900201121CA6AC
:1011E000122432EF600122854982854883E054FD54
:1011F00064E960037FA122E549240DF582E43548C6
:10120000F583E0F522F5479002097406F0E54720E2
:10121000E611E54725E0F547900209E014F070ED8E
:10122000752201E5492416123777900207EEF0A3E4
:10123000EFF04E702CE54924241236EE8F348E33B5
:101240008D328C31E4FBFA7901F8D3121C4A500735
:10125000E52E60037FA222900207E533F0A3E53478
:10126000F0E5492414F582E43548F583E0FFE549CB
:101270002413F582E43548F583E04F6012E54924F4
:1012800013123777E48F3D8E3CF53BF53A800FE53E
:101290004924201236EE8F3D8E3C8D3B8C3AE54939
:1012A0002411123777CCEECCCDEFCD900216E0FEB4
:1012B000A3E07805CEC313CE13D8F9147E002DFF1A
:1012C000EE3CFEE53024FBFDEFC8EDC8088005CEFE
:1012D000C313CE13D8F9FFE4FCFD90021E121CA626
:1012E000E549240E1237778E3E8F3F900208E025A5
:1012F0003FFF900207E0353EFEE4FCFD90021EE059
:10130000F8A3E0F9A3E0FAA3E02FF534EA3EF533C1
:10131000ED39F532EC38F531E5492410F582E43544
:1013200048F583E0D39401401E900207E0FEA3E05D
:10133000FFE5342FF534E5333EF533ED3532F53244
:10134000EC3531F5318007E4900207F0A3F0C3E5F6
:101350003D9534FFE53C9533FEE53B9532FDE53A9E
:101360009531FC900209E0F8121C5B90020E121CF1
:10137000A6E47BF57AFFF9F8D3121C4A401FE490EB
:101380000205F0A3F0900210E0FEA3E094F5EE94C5
:101390000F50057547018024754702801FE54924D9
:1013A00030123777900205EEF0A3EFF0E549242CD8
:1013B0001236EE90021E121CA6754703E53F453E0D
:1013C000604E90021EE0FCA3E0FDA3E0FEA3E0FF60
:1013D000EC4D4E4F603AE5492410F582E43548F56E
:1013E00083E0D39401400A900207E07002A3E0601A
:1013F0001FE549240BF582E43548F583E07011E5DB
:1014000049240CF582E43548F583E0C39402500A80
:10141000E52E7006752E01021152E53F2526FFE5E7
:101420003E3525FEE43524FDE43523FC90020A1206
:101430001CA6E5342526FFE5333525FEE5323524A7
:10144000FDE5313523FC900212121CA67D107F03AE
:10145000123608228D64EFC8E547B40207121C81DA
:1014600078018008B40312121C817802121C6E8F5E
:10147000688E678D668C65802B121C818E658F66E9
:10148000EF30E00543451080035345EFE565C31396
:10149000FEE566132566FFE5653EFEE48F688E6710
:1014A000F566F565900217E024FFFD900216E03422
:1014B000FF5EFEED5F2549F52FEE3548F52EAF684E
:1014C000AE67AD66AC6512364290020AE0F8A3E062
:1014D000F9A3E0FAA3E02FF568EA3EF567E93DF5E8
:1014E00066E83CF565E568652A7012E56765297070
:1014F0000CE56665287006E5656527601D300907FF
:10150000122F8EEF6001228565238566248567256D
:10151000856826122432EF600122E5646023B4FF5F
:10152000028006E564B4010BE4F568F567F566F53D
:1015300065800C853168853267853366853465D270
:1015400009E5476402703F852F82852E83E0F536DA
:10155000A3E0F537853639853738E4F536F537AE0B
:1015600038AF39C3EF94F7EE94FF4003D38001C343
:10157000920BE564600D852F82852E83E565F0A3CF
:10158000E566F07F0022E5476403705A852F828567
:101590002E83E0FCA3E0FDA3E0FEA3E0F5398E3846
:1015A0008D378C36E53954F0FFE568540F4FF568F8
:1015B000E539540F853639F536AF388537388F37EA
:1015C000AF36EFC3940F4003D38001C3920BE564A1
:1015D0006011AF68AE67AD66AC65852F82852E83DE
:1015E000121CA67F002253660F900217E02549FFC8
:1015F000900216E03548CF24FFCF34FFFEEF652F71
:101600007003EE652E6056852F82852E83E0F536B9
:10161000852F82852E83A3E0F537E56470030216DB
:10162000DCE54530E423E565C454F0FFE536540FAE
:101630004F852F82852E83F0E566C454F0FFE56563
:10164000C4540F4FA3F00216DC852F82852E83E54C
:1016500065F0E53754F04566A3F00216DC852F826D
:10166000852E83E0F536E5646024E54530E40EE53B
:1016700065C454F0FFE536540F4FFF8002AF658517
:101680002F82852E83EFF0122F8EEF600122E52A44
:101690002401F526E43529F525E43528F524E4353B
:1016A00027F523122432EF60012285498285488381
:1016B000E0F537E5646025E54530E40FE566C454A0
:1016C000F0FFE565C4540F4FFF8007E53754F04540
:1016D00066FF854982854883EFF0D209E54530E40D
:1016E00013E537C454F0FFE536C4540F4FF539E520
:1016F00037C48005853639E537540FF538E4F536BB
:10170000F537AE38AF39C3EF94F7EE940F4003D3FB
:101710008001C3920B7F00221235E48F5D1235A049
:101720007BFF7A217969120E4112357EEF60097BC9
:10173000FF7A21797A020E417F3212337C1228BF60
:10174000EF705A7FC812337CE4F55D7F3212337C30
:101750007BFF7A21798E120E41123248EF603EE50E
:1017600040C394035037E540C3940250087BFF7A8E
:101770002179978011E540B4021A900223E0600BB2
:101780007BFF7A2179A4120E4180127BFF7A2179A6
:10179000B9120E41055DE55DC3940540AEE540C359
:1017A00094034085D3900217E09400900216E094D1
:1017B00002400C7BFF7A2179C9120E41021720C228
:1017C000957BFF7A2179E0120E4178787C007D00CC
:1017D0007BFF7A2179E6121DBD1205B48F5DE55DB0
:1017E00064B36009E55D64426003021894E55DB48A
:1017F000B3087560217561F680067560217561F921
:101800007567FF8560688561697BFF7A22790512BB
:101810000E41E4F562F563AA60A9617BFFEAC0E0CE
:10182000E9C0E078787C007D00D0E0F9D0E0FA12E1
:101830001DBD7B007A0079781237188F5D74782F80
:10184000F876FFE4856344856243F542F54112056D
:10185000B48F5DE55D6442700302191AE55DB4431F
:101860001A856267856368756900756A00756B78AB
:101870007BFF7A227913120E418005AF5D021917A2
:101880000563E56370020562C39410E56294274026
:101890008602191AAF5D1235A0755FC87BFF7A22E8
:1018A000792B756700855F68120E41E55F605AD33A
:1018B000941D4005755E1D8003855F5E7878A65E89
:1018C00012255E8F5D1235A0C3E55F787896F55FCF
:1018D000E4F55DE55D78786660157BFF7A227948EE
:1018E0007479255DF8E6F567120E41055D80E478B0
:1018F00078E6C3955E50B47BFF7A22794B120E4195
:101900007BFF7A22794D120E417BFF7A22795B129E
:101910000E41122D9B8F5D1235A0C2967BFF7A225D
:101920007962120E4178787C007D007BFF7A227903
:101930006A121DBD1219B98F5D1235A07BFF7A2284
:101940007977120E4175602275617EE4F55D8561DF
:1019500082856083E493F55E7479255DF8A65EE583
:101960005E600F0561E56170020560055DE55DB4CF
:101970001DDCE55D600E7878A65D121E178F5D1286
:1019800035A080C77BFF7A22795B120E417878768A
:1019900001122D9B8F5D1235A0D2967BFF7A2279A2
:1019A000C9120E417F0A12337C1228BFEF60F5D2B4
:1019B000957F6412337C0217201205B48F35E5350C
:1019C000700A122B5CEF7003021B2C22E535644277
:1019D0006003AF3522900217E024E0FF900216E08A
:1019E00034FFFEC3E53F9FE53E9E5003021B2CE5FE
:1019F0003D700FE53A700BE53B7007E53C70030264
:101A00001ABA900215E0FF90021CE0C39FFFE52286
:101A100014FE5FF535E53F6008EE65356003021B97
:101A20002C7F3AE4FD121454EF600122200B0302D4
:101A30001B2C123692EF6001227F3A7D0212145461
:101A4000EF600122122F8EEF600122123794E4FF23
:101A5000FE900216E06EFCA3E06F4C6013E5492F88
:101A6000F582E5483EF583E4F00FBF00010E80E10A
:101A7000E4F535123126E53F7012F53EF53FAF260D
:101A8000AE25AD24AC23900219121CA6852236E5A2
:101A90003660201222E5EF600122E5262401F526BA
:101AA000E43525F525E43524F524E43523F523151F
:101AB0003680DC122E1BEF607322E53F706E9002C1
:101AC00019E0FCA3E0FDA3E0FEA3E024FFFFEE3459
:101AD000FFFEED34FFFDEC34FFFC900219121CA652
:101AE000122420EF600122E4F53EF53FD390021767
:101AF000E0953F900216E0953E402EE549253FFFD8
:101B0000E548353E8F82F583E0B4E510E582240B8D
:101B1000F582E43583F583E0540E60107420253F90
:101B2000F53FE4353EF53E80C37FB222123692EF98
:101B3000600122122F8EEF6001227F061237ACEF78
:101B400054BF648060037F112285343D85333C851A
:101B5000323B85313A122E1BEF600122122420EF16
:101B6000600122E549253FFFE548353EFEE4FDEDF5
:101B7000C3940B50047C2080027C00EF2DF582E49E
:101B80003EF583ECF00DBD20E6EF2418F582E43E2F
:101B9000F5837421F0A37430F0EF241CF582E43E49
:101BA000F5837401F0E4FDEDC3940B5021A82DE6FC
:101BB000FC601BECB42E047D08052DA82DE6FCEF7F
:101BC0002DF582E43EF583ECF00D052D80D9853DA1
:101BD00036853C37853B38853A39EF241AF582E45F
:101BE0003EF583E536F0A3E537F0EF2414F582E403
:101BF0003E1222DCEF600122853D34853C33853B7B
:101C000032853A31E4F544F543F542F541F54EF5B8
:101C10004DF54CF54BF5357D147F1012360822BB7F
:101C2000010689828A83E0225002E722BBFE02E39A
:101C30002289828A83E49322BB010689828A83F007
:101C4000225002F722BBFE01F322EB9FF5F0EA9E41
:101C500042F0E99D42F0E89C45F022E8600FECC3B9
:101C600013FCED13FDEE13FEEF13FFD8F122E86035
:101C70000FEFC333FFEE33FEED33FDEC33FCD8F151
:101C800022E6FC08E6FD08E6FE08E6FF22E6FB0881
:101C9000E6F908E6FA08E6CBF822ECF608EDF608D5
:101CA000EEF608EFF622ECF0A3EDF0A3EEF0A3EFD2
:101CB000F022D083D082E493F608740193F608747E
:101CC0000293F608740393F6740473D083D082F8F9
:101CD000E4937012740193700DA3A393F8740193AD
:101CE000F5828883E4737402936860EFA3A3A380F2
:101CF000DFE709F60870FA8046E709F20870FA8013
:101D00003E88828C83E709F0A370FA807EE309F6AF
:101D10000870FA8076E309F20870FA806E88828C87
:101D200083E309F0A370FA806289828A83E0A3F6D4
:101D30000870FA805689828A83E0A3F20870FA80DC
:101D40004A80D280FA80C680D4806580F28031805B
:101D50001080A680EA809A80A880DA80E280CA801B
:101D60003189828A83ECFAE493A3C8C582C8CCC5C2
:101D700083CCF0A3C8C582C8CCC583CC70E9800DE4
:101D800089828A83E493A3F60870F9ECFAA9F0ED4E
:101D9000FB2289828A83ECFAE0A3C8C582C8CCC53D
:101DA00083CCF0A3C8C582C8CCC583CC70EA80DDE3
:101DB00089828A83E493A3F20870F980CE88F0EDDB
:101DC0002402B4040050C4F582EB2402B404005091
:101DD000BA2323458223901D4173BB010CE5822960
:101DE000F582E5833AF583E0225006E92582F8E69C
:101DF00022BBFE06E92582F8E222E58229F582E58A
:101E0000833AF583E49322FAE6FB0808E6F925F025
:101E1000F618E6CA3AF622E5406415600712352F37
:101E2000EF6001227878E6F52D7006300A03023162
:101E300070E47878F6E52D7003021FC6E535F4707E
:101E400077E53D700CE53A7008E53B7004E53C60D1
:101E50002585344E85334D85324C85314B12369E67
:101E6000EF6001227F4B7D02121454EF60012212B9
:101E70002F8EEF600822122E9AEF60012285344ED9
:101E800085334D85324C85314B74FFF534F533F590
:101E900032F531122E25CBEFCB854E34854D33856F
:101EA0004C32854B31EB60012285444E85434D8594
:101EB000424C85414BE4F535123126122432EF6055
:101EC0000122900216E0FCA3E0FD24FFFBEC34FFAE
:101ED000554DFEEB554EFFC3ED9FFFEC9EFEC3EF4D
:101EE000952DEE94004005852D368006E54EF404D0
:101EF000F536900217E024FFFD900216E034FF55FE
:101F00004DFEED554E2549F52FEE3548F52EAF36F1
:101F1000E4FCFDFEE54E2FF54EEE354DF54DED356D
:101F20004CF54CEC354BF54BC3E52D9536F52D783E
:101F300078E62479FFE53626F6C8EFC8E6852F82D5
:101F4000852E83F0052FE52F7002052E0FD536E97B
:101F50001222E5EF600122AF4EAE4DAD4CAC4BAB63
:101F600044AA43A942A841C3121C4A500E854E44BC
:101F7000854D43854C42854B41D20A900217E0249F
:101F8000FFFD900216E034FF554DFEED554E4E60BC
:101F900003021E350535E535C395225003021E3573
:101FA0007F31E4FD121454EF600122300B067535C9
:101FB000FF021E3585363185373285383385393411
:101FC000E4F535021E357F0022E4F534F533F532B1
:101FD000F53190020EE0FCA3E0FDA3E0FEA3E0FFDC
:101FE000AB34AA33A932A831D3121C4A40037FB1C3
:101FF00022E5342401F534E43533F533E43532F5A4
:1020000032E43531F5317F31E4FD121454EF6001D3
:1020100022E539700FE536700BE5377007E538704B
:1020200003022154E547640160A885482E85492FA5
:10203000E54764027051900216E0C313FEA3E0135B
:1020400024FFFFEE34FFF5368F37F5388F397402F1
:10205000252FF52FF582E4352EF52EF583E070114E
:10206000A3E0700D852F82852E8374FFF0A30220DC
:10207000DCE5376009D537D6E536600880D01536FF
:10208000153780CA02213B900216E0FEA3E07802D9
:10209000CEC313CE13D8F924FFFFEE34FFF5368FED
:1020A00037F5388F397404252FF52FF582E4352E56
:1020B000F52EF583E06003022120A3E060030221F6
:1020C00020A3E0705BA3E0540F7055852F82852E0E
:1020D0008374FFF0A3F0A3F0A3E0440FF0AE38AF99
:1020E00039EF4534FFEE4533FEE532FDE531FCEED8
:1020F000C0E0EFC0E0E53724FFFFE53634FFCBEF6B
:10210000CBFAD0E0FFD0E0FEC3EF9BF534EE9AF5BA
:1021100033ED9400F532EC9400F531D2097F0022C2
:10212000E53760101537E53760030220A5E5366016
:102130000A0220A5153615370220A5AE38AF39E5BD
:10214000344FF534E5334EF533E532F532E531F50C
:1021500031021FD27F317DFF121454224572726FFB
:10216000723A20253032580A00496E736572742025
:10217000555342206469736B0A0045786974205591
:10218000534220686F7374206D6F64650A00526556
:10219000616479203F0A0044657669636520676F52
:1021A0006E650A004E6F20556469736B20696E205E
:1021B0005553425F4855420A00556E6B6E6F776EFD
:1021C000206465766963650A00546F6F206C6172E4
:1021D000676520736563746F722073697A650A009E
:1021E0004F70656E0A002F4335312F434833373423
:1021F0004846542E43002F2A002F4335312F4348A1
:102200003337342A004C6973742066696C65202565
:10221000730A0020206D617463682066696C652014
:1022200025303464233A2025730A00B4D3CEC4BCCD
:10223000FED6D0B6C1B3F6B5C4C7B02564B8F6D7DC
:10224000D6B7FBCAC73A0A002543000A00CEC4BC71
:10225000FED2D1BEADBDE1CAF80A00436C6F736512
:102260000A004372656174650A002F4E455746495E
:102270004C452E5458540057726974650A004E6FCD
:1022800074653A200D0AD5E2B8F6B3CCD0F2CAC7CD
:10229000D2D4D7D6BDDACEAAB5A5CEBBBDF8D0D0A4
:1022A00055C5CCCEC4BCFEB6C1D0B42CB5A5C6AC09
:1022B000BBFAD6BBD0E8D2AAD3D0363030D7D6BD01
:1022C000DAB5C452414D0D0A0054616B65206F753B
:1022D0007420555342206469736B0A00F583E53816
:1022E000F0A3E539F0E4F5467F237B2A7D01122F28
:1022F000FCE54A60030223F87DC87F06123736E505
:102300004F30E6047F4080027F80AC48AD498C2787
:102310008D281235038E278F287D407F0B1237368C
:10232000634F40AD4F7F0E123736E530B409047F5E
:10233000088010B40A047F108009B40B047F208049
:10234000027F408F37E53764016016E54F30E604C1
:102350007F4080027F80AD28AC271235038E278F07
:10236000281226A7E54A60187DC07F06123736E599
:102370004A642E60030223F8E546707CAF2C80503F
:10238000634F40E53764016007AD4F7F0E1237366B
:10239000D537B27DC07F0612373690BDF1740DF08F
:1023A00090BCF0E52BF0E54FF0D20B852327852478
:1023B0002885252985262A634F801226A7E54A60AD
:1023C00017634F80E54A642E702EE546702AAF2BC6
:1023D0001233E975460180C27F0B1237ACBF0D186E
:1023E0007FCC1237ACEF70061237BE7F00227FCC55
:1023F0001237ACEF6401600BE54AB416037F82220A
:10240000123341E546C39405500FE546C39403409B
:102410000312320205460222E812365F123202220D
:10242000900219E0F523A3E0F524A3E0F525A3E04D
:10243000F526E526652A7015E5256529700FE52442
:1024400065287009E5236527700302255BE4F546DE
:102450007F237B287D01122FFCE54A60030225348F
:1024600090BDF17406F090BCF074CCF090BDF174A6
:102470000DF090BCF0E52BF0E54FF0D20B634F4030
:10248000854827854928E530B409047F088010B4C1
:102490000A047F108009B40B047F2080027F408FE4
:1024A000371226A7E54A60097DC07F0612373680BD
:1024B00050634F80E53764016007AD4F7F0E1237E0
:1024C00036E54F30E7047FC080027F80AD28AC271F
:1024D0001234D78E278F28D537C77DC07F06123795
:1024E00036AD4F7F0E123736852327852428852564
:1024F0002985262A634F801226A7E54A601A634F72
:1025000080E54A642E702DE5467029AF2B1233E921
:1025100075460112375480D07F0B1237ACBF0D14B3
:102520007FCC1237ACEF7002FF227FCC1237ACEFBA
:102530006401600BE54AB416037F8222123341E541
:1025400046C39405500FE546C3940340031232027C
:10255000054602245012365F0232027F0022E54017
:102560006415600712352FEF6001227878E6F52DAB
:10257000E4F6E52D7003022693900216E0FCA3E03A
:10258000FD24FFFBEC34FF554DFEEB554EFFC3ED34
:102590009FFFEC9EFEC3EF952DEE94004005852D28
:1025A000368006E54EF404F536AF36EF254EFFE4EF
:1025B000354DFEE4354CFDE4354BFCAB44AA43A954
:1025C00042A841D3121C4A500CC3E544954EF5363F
:1025D0007003022693123126122432EF60012290FA
:1025E0000217E024FFFD900216E034FF554DFEED8A
:1025F000554E2549F52FEE3548F52EAF36E4FCFD56
:10260000FEE54E2FF54EEE354DF54DED354CF54CC6
:10261000EC354BF54BC3E52D9536F52D7878E62452
:1026200079FFE53626F6852F82852E83E0C8EFC830
:10263000F60F052FE52F7002052ED536E99002170B
:10264000E024FFFD900216E034FF554DFEED554E9F
:102650004E60030225720535E535C395225003020D
:1026600025727F31E4FD121454EF600122300B110A
:102670007535FF854E44854D43854C42854B4180E1
:1026800012853631853732853833853934E4F5356E
:102690000225727F002290BDF1740DF090BCF0E530
:1026A0002CF0E54FF0C20BE4F539E4F54A1237C3DC
:1026B00090BDF17409F0E030E06B90BCF07411F063
:1026C000E0FF300B0E5407B40313EF30E436E4F5AB
:1026D0004AFF22540FB40205E4F54AFF22EF540FDB
:1026E000FEBE0A05E54520E729EF54037003D380B9
:1026F00001C34007EE4420FFF54A227F091237ACA0
:10270000EF20E121E545540FFF0539AE39EED39FA7
:10271000500D7F0E1237ACEF4408FD7F0E802775F9
:102720004A207F2022754AFF7F041237ACD54AF831
:102730007F091237AC8F39E53930E173123304BFAA
:10274000090A7D027F091237360226AA754001E484
:10275000900223F07D137F0912373690021DE0604E
:10276000047DC080027D807F06123736123304EF6D
:10277000603775400290021DE0D394015007E5399F
:102780005480FF80157F021237AC90021DE0B40325
:10279000047E2080027E10EF5EFFEF6006754A1512
:1027A0007F1522754A137F1322754A167F16227DE4
:1027B0001F7F09123736E53930E306754A067F0672
:1027C00022754A057F0522E540C3941350037FB468
:1027D00022122420EF600122C209E549253FFFE5CE
:1027E00048353ECBEFCBFA7880E6FFEB240BF58241
:1027F000E43AF583E0F6EFF460138B828A83E58296
:10280000240BF582E43583F583EFF0D209787EE678
:10281000F53908E6F538EB2416FFE43AFE12377C6A
:1028200018EEF608EFF6E538F4FEE539F44E6012DE
:10283000EB2416F582E43AF583E538F0A3E539F0A8
:10284000D209787CE6F53908E6F538EB2418FFE480
:102850003AFE12377C18EEF608EFF6E538F4FEE59E
:1028600039F44E6012EB2418F582E43AF583E5382A
:10287000F0A3E539F0D2097878121C817884121C13
:102880009AEB241CFFE43AFE1236F37878121C9A75
:102890007884E6F4601E121C818F448E438D428C36
:1028A000411237B7EB241CF582E43AF583121CA6DB
:1028B000D209C20A300905C2090222E57F00227F3F
:1028C000061237ACEF54404480FD7F061237367F46
:1028D000091237ACEF30E112123304EF64096003E0
:1028E0001235C27D137F09123736123304EF70039D
:1028F0000229B1E540C394025008754002E49002F9
:1029000023F0900223E07002FF2212372D90022262
:10291000E06049123741E54A702E85498285488337
:10292000A3A3E030E009754002123703122A98850C
:102930004982854883E030E01E900222E02410FDA9
:102940007F081237367F0022E54A64166063E54A45
:1029500030E5045403605A754002804D900222E035
:1029600004F0123741E54A7024854982854883A3E3
:10297000A3E030E006123703122A98854982854881
:1029800083E030E017A3E020E1127F0022E54A64F3
:1029900016601EE54A30E50454036015900223E0FA
:1029A000FF900222E0C39F40B3E4900222F07F84B4
:1029B000221235C222E4900225F0A3F0A3F0900287
:1029C00018E0900229F0E4F5387C307DD17F0412C4
:1029D00036C27A027B247D117F481236D87D1F7F54
:1029E0000B123736122696E54AB416037F8222E58B
:1029F0004A600FE5386003022A7A123341753801C4
:102A000080C7634F40900224E06049123754122679
:102A1000A7E54A600DE54A642E705FAF2B1233E9DB
:102A20008032634F807F0B1237AC8F397F4F123764
:102A3000ACBF030A7F531237ACEF6412600E12373B
:102A400094AB49AA48AD397FC0123679900224E090
:102A5000C39539F01237541226A7E54A701C634F0C
:102A6000807FCC1237AC8F397F0B1237ACBF0D078C
:102A7000E539C394024006754A1F023341E53970B7
:102A800002FF22754A1F7F1F227F081236C2900262
:102A900000E0FD7F441237367F0112337C7D087FD2
:102AA0000B1237367DD07F0D1237367D0C0F123763
:102AB00036C20B1226A7E54A6003AF4A22D20B7F2B
:102AC000461237ACEF606C1237947F0112337C7D75
:102AD000907F0D1237360F1237ACEF6480440CFD37
:102AE0007F0E1237361226A7E54A6003AF4A227FCF
:102AF0000B1237AC8F4A7F471237AC8F39AF39EFA3
:102B00002549FBE43548FAAD4A7FC0123679E54ADB
:102B10002539F539AD397F471237361F1237ACE505
:102B200039C39F500CE54A5407609F754A177F17B9
:102B300022C20B7F0112337CE4FD7F0B123736304B
:102B40000B047F0980027F01EFC454F0FD7F0D125A
:102B500037367DCC0F1237361226A722E540C394B4
:102B60001350071205B4EF600122123604EF600122
:102B700022122420EF600122E549253FFFE5483578
:102B80003E8F82F58374E5F01222E5EF600122AFFB
:102B90003DAE3CAD3BAC3A8F398E388D378C36EC40
:102BA0004D4E4F604EE53D24FFF53DE53C34FFF5CD
:102BB0003CE53B34FFF53BE53A34FFF53AE4F534C8
:102BC000F533F532F5317F367D01121454EF600193
:102BD00022E5342401F534E43533F533E43532F5B8
:102BE00032E43531F531300BDD122F8EEF600122EA
:102BF000022E257F0022E53D700CE53A7008E53B8A
:102C00007004E53C6072853D34853C33853B3285FC
:102C10003A31AF22E4FCFDFE7878121C8DC3121C01
:102C20004A40387F31E4FD121454EF600122200B3A
:102C3000478536318537328538338539347878128F
:102C40001C81AB22C3EF9BFFEE9400FEED9400FDD0
:102C5000EC9400FC7878121C9A80B7787BE6FFE54C
:102C600022145FF535123126AF26AE25AD24AC23F4
:102C70007878121C9A7F00227535FF7878121CB282
:102C8000FFFFFFFF7F0022787FE4F6D8FD75819576
:102C9000022CCE023288E493A3F8E493A34003F617
:102CA0008001F208DFF48029E493A3F85407240C90
:102CB000C8C333C4540F4420C8834004F456800171
:102CC00046F6DFE4800B01020408102040809037B4
:102CD000C7E47E019360BCA3FF543F30E509541F55
:102CE000FEE493A360010ECF54C025E060A840B875
:102CF000E493A3FAE493A3F8E493A3C8C582C8CAF3
:102D0000C583CAF0A3C8C582C8CAC583CADFE9DEC5
:102D1000E780BE7537647D087F2512341F90022A34
:102D2000740AF0E490022FF01229B58F36E5367060
:102D300044E5492406F582E43548F583E0FFB40410
:102D40000575300A8013B4080575300B800BB4107C
:102D50000575300C800375300974017E00A83008B9
:102D60008005C333CE33CED8F9900217F0EE90022F
:102D700016F07F0022E5366416601DE536641560A6
:102D800017E536641360111236AB7F3212337C15AF
:102D900037E5376003022D16AF3622E540C39412A3
:102DA00050037FB422E5406412704FE5476403602E
:102DB00049900221E0F522AE43E544A830088005A1
:102DC000CEC313CE13D8F9FFE4FCFD90021E121CF3
:102DD000A6900212E0F8A3E0F9A3E0FAA3E0FB90CA
:102DE0000221E0FFE4FCFDFEEB2FFFEE3AFEED39A1
:102DF000FDEC38FC900212121CA6E540D39413405F
:102E00000AE540B414077878E67002C20A300A076F
:102E1000123170EF6001221236042274FFF534F58E
:102E200033F532F531900205E0FCA3E0FD4C700271
:102E3000FF22EDCFECCEE4FCFD900201E0F8A3E030
:102E4000F9A3E0FAA3E02FF526EA3EF525ED39F5E2
:102E500024EC38F523122432EF600122E54924E8FE
:102E6000FFE5483401FE1236F3E5342FF534E5333F
:102E70003EF533E5323DF532E5313CF531AF34AE68
:102E800033AD32FC1237B7E54924E8F582E5483422
:102E900001F583121CA61222E522121FD2EF600553
:102EA00064B1600122EF6007121FC9EF60012212B6
:102EB0002F8EEF60012285343D85333C85323B8582
:102EC000313A122420EF600122E549253FFFE54811
:102ED000353EFEF583EF241CF582E43583F58374DB
:102EE00001F0853D36853C37853B38853A398F8200
:102EF0008E83E582241AF582E43583F583E536F086
:102F0000A3E537F08F828E83E5822414F582E435C1
:102F1000831222DC2243483337342B4D435335315F
:102F2000004578697420555342206465766963656D
:102F3000206D6F64650A0012011001FF8037084898
:102F40004337550001010200010902270001010079
:102F500080320904000003FF803700070582024029
:102F60000000070502024000000705810308000079
:102F7000040309040E037700630068002E00630059
:102F80006E000C03430048003300370034008527EF
:102F900023852824852925852A261222E5EF60012C
:102FA00022900207E0FEA3E0FF4E604BE4FCFDE54B
:102FB000262FF526E5253EF525ED3524F524EC35BF
:102FC00023F5231222E5EF600122900207E0FEA321
:102FD000E0FBCAEECAC3E5269BF526E5259AF52552
:102FE000E5249400F524E5239400F523F5278524B2
:102FF0002885252985262AC2097F002290BDF174E3
:1030000040F090BCF07455F07453F07442F004F04A
:1030100090BDF17448F0E490BCF0F0E53024F8F88D
:10302000ED088002C333D8FCF0E4F0F0BB2A03FEC5
:1030300080027E80EEF0900218E090BCF0F0740AFE
:10304000F0EBF0E4F0EFC8E6F008E6F008E6F00890
:10305000E6F0E4F0F0EDF0E4F090BDF1740BF090E8
:10306000BCF0741FF0022696E4F5407D557F801277
:1030700037367DAA0F1237361F1237ACBF550A7F7D
:10308000811237ACEF64AA60037F8122E4FD7F06E2
:103090001237367F0E123736754585E4F5469002B5
:1030A000167402F0A3E4F090021DF0F54F7D1F7F2F
:1030B000091237367F071237ACEF54F04403FD7F17
:1030C000071237367D407F051237361235C27F0032
:1030D00022555342430021FF0000000000008006FB
:1030E0000001000012000005020000000000800640
:1030F000000200000400A0060029000009000009E9
:10310000000000000000A1FE00000000010002011C
:10311000000000000000A3000000010004002301E3
:10312000100001000000E53424FEFFE53334FFFE0B
:10313000E53234FFFDE53134FFFC900209E0F8127E
:103140001C6E900212E0F8A3E0F9A3E0FAA3E02FCE
:10315000FBEA3EFAE93DF9E83CF8E4FCFDFEEB252C
:1031600035F526EE3AF525ED39F524EC38F5232230
:10317000C20AE540C39414403E122420EF600122AD
:10318000E549253FFFE548353ECBEFCBFAF583EB2C
:10319000240BF582E43583F583E020E41AAF44AED6
:1031A00043AD42AC411237B7EB241CF582E43AF54B
:1031B00083121CA60222E57F0022E5406415600709
:1031C00012352FEF6001227878121C818F4E8E4DC0
:1031D0008D4C8C4BAB44AA43A942A841C3121C4A54
:1031E000500C85444E85434D85424C85414BAF4E36
:1031F000AE4DAD4CAC4B1236427878121C9A122B65
:10320000F6227F0212337C7D117F0912373612338A
:1032100004EF600BE54A64166005E540B401030263
:1032200035C2E540C394034015854A377D127F03BC
:1032300012341F1229B585374A7F0212337CE54AC2
:1032400070037F1022AF4A221228BFEF600122E5EF
:1032500040C39403501B120A20EF600C7F321233DC
:103260007C120A20EF600122122D13EF600302325C
:1032700002E4FDFF12341F1229B58F36E5367002C5
:10328000FF221236ABAF3622D294C2947F6412333F
:103290007CD2947F6412337C1237667BFF7A32795A
:1032A000C6120E41D2AFC294D2977BFF7A3279DC3C
:1032B000120E41121718C2977BFF7A3279EF120E65
:1032C0004112345080E253746172742043483337A2
:1032D000342064656D6F202E2E2E0A0053657420F5
:1032E00055534220686F7374206D6F64650A0053F4
:1032F00065742055534220646576696365206D6F5F
:1033000064650A0090021DE0FEB401047F0280069D
:10331000EEB4020A7F031237ACEF5409FF22900289
:103320001DE0B4030D7F031237ACEF5490C4540F6B
:10333000FF22E490021DF07F091237ACEF5420FF0A
:1033400022854A387F0212337C1228BF8F4AE54A11
:103350006003AF4A227C307DD6122A89E54AB41632
:10336000037F8222E54A700AAF2B1233E9AF2C1299
:1033700033E97F0212337CAF388F4A22CEEFCE7F03
:10338000061237ACEFF4602AEF30E7268E397F045F
:103390001237ACEF20E5F7AF391539EF60147F0431
:1033A0001237ACEF30E5F77F041237ACEF30E5E7CA
:1033B00080F5228F47AB10AA11A912AD477F208B51
:1033C0005A8A5B895C90BDF1EFF0CFEDCF1DEF60C5
:1033D00017AB5A055CE55CAA5B7002055B14F91239
:1033E0001C1F90BCF0F080E2228F397C317D0E7F73
:1033F000081236C2E539C4540FFFBF090DE5395430
:103400000F4480F539534F7F800FE539C4540FFFC7
:10341000BF010653390F534FBFAD39122A93229083
:103420000224EDF060047E8080027E00900228EE8F
:10343000F090022A7406F0A3EFF0E4A3F0A3F0A347
:10344000F0A3EDF0E4A3F0A3F0A3F0A3F0A3F02227
:103450001234ABE4F54012357EEF6013E540C394BF
:10346000FA400C7BFF7A2F7921120E41023786E554
:1034700040C394FA500205407F0112337C80D78B01
:103480005A8A5B895C90BDF1EFF0CFEDCF1DEF6004
:103490001990BCF0E0FFAB5A055CE55CAA5B7002DA
:1034A000055B14F9EF121C3880E022E4FD7F061260
:1034B00036371236247D1F7F091236377D077F0786
:1034C0001236377D407F051236377D030F123637AF
:1034D000C288C289D2A82290BDF1EFF0ECFEEDFFC8
:1034E0007D1090BCF0E0FCE0FBE0FAE08E838F8280
:1034F000CCF0A3EBF0A3EAF0A3ECF0A3AE83AF8291
:10350000DDE02290BDF1EFF0ECFEEDFF7D108E834B
:103510008F82E0A3FCE0A3FBE0A3FAE0A3AE83AFBD
:103520008290BCF0CCF0EBF0EAF0ECF0DDE022E5CC
:1035300040641460037FB422853D34853C33853B71
:1035400032853A31E4F54EF54DF54CF54BF5357DC8
:10355000157F1412360822EFB40A07740D12356273
:10356000740A309811A899B8130CC2983098FDA825
:1035700099C298B811F63099FDC299F5992220B3F5
:103580001CD2947F3212337C20B31030B3FD7F32D3
:1035900012337C30B3FDC2947F0122C2947F00229B
:1035A000EF601E7BFF7A21795C7567008F68120ED1
:1035B00041C2957F6412337CD2957F6412337C8044
:1035C000F022754001E4900223F0FD7F08123736A7
:1035D00090021DE060047DC080027D807F0612376E
:1035E000367F8222E581D394EE40037FFC2212379E
:1035F000CBEFC3941450037FFF2275480075490038
:10360000123068227D107F10E540C39F40028D403C
:10361000E5406D7002FF227540011228BFEF600186
:10362000227F83227F081236377D0E7F0C123637B9
:103630000F1236377D020F90BDF1EFF090BCF0ED28
:10364000F022C3E4CC13CD13CE13FFE53024F76092
:103650000DF8C3ED13FDEE13FEEF13FFD8F42212A5
:103660003794754A1FE540B4120475400322E540C3
:10367000D3941040037540102290BDF1EFF0ED603F
:103680001090BCF0E08B828A83F00BBB00010ADD56
:10369000F022853D34853C33853B32853A31121F1B
:1036A000D2EF64B1600122121FC9227F0A12337C5B
:1036B0007D127F0312341F1229B57F0212337CAFB3
:1036C0004A2290BDF17440F07E008D828C83EE938F
:1036D00090BCF0F00EDFF32290BDF1EFF08B828A08
:1036E00083E090BCF0F00BBB00010ADDF022FFE4A8
:1036F0003548FE8F828E83E0FFA3E0FEA3E0FDA3AA
:10370000E0FC227C317D1E7F081236C2900222E04E
:10371000547FFD7F44023736E4FFFE121C1F600C0D
:103720000FEF70010E09E970F20A80EF2290021D7E
:10373000E02402FD7F0890BDF1EFF090BCF0EDF0C9
:10374000227C317D167F081236C2900222E0547F1F
:10375000122A922290BDF1740DF090BCF0E52BF08E
:10376000E54FF0D20B2275985075878075892175C9
:103770008DF3D28ED29922FFE43548FE8F828E835C
:10378000E0FFA3E0FE22C2A8E4FD7F061236377FE9
:103790000A02337C74FFF52AF529F528F527C209BA
:1037A0002290BDF1EFF090BCF0E0FF2290BDF1EF70
:1037B000F090BCF0E0FF22EFCCFFEECDFE227FFACE
:0F37C000DFFE2220B2FD22011300007F1422221F
:00000001FF
