:100000000240D8907865E0C394105007121295EF23
:10001000600122123EC1EF600122C20A907811E015
:10002000645C6004E0B42F0C9078417478F0A374A1
:1000300012F08021907812E0643A600302012A9065
:100040007811E0C39443500302012A9078417478F8
:10005000F0A37414F090786CE0FBB4031090787205
:10006000E0FCA3E0FDA3E0FEA3E0FF8005E4FFFECB
:10007000FDFC907858121E28907841E0FEA3E0F530
:10008000828E83E06003020134907866121E34FF92
:10009000FFFFFFEB6403606690785B7402F090787A
:1000A0005EE0FCA3E0FDA3E0FEA3E0FF907875E036
:1000B000FBC3EF9BFFEE9400FEED9400FDEC94007B
:1000C000FC90785E121E28907874E0FEA3E0FF900A
:1000D0007846E0F8EF088005C333CE33CED8F9FF79
:1000E000E4FCFD907866121E2890782FE0FFE4FC77
:1000F000FDFE907872121E2890782F7480F0907810
:1001000058E0FCA3E0FDA3E0FEA3E0FF90784712D7
:100110001E28907879121E3400000000E490784F79
:10012000F09078657412F07F41229078417478F0F5
:10013000A37411F0907841E0FEA3E0F5828E83E095
:10014000B4E5037405F090785BE0700E907858E0A9
:100150007008A3E07004A3E0604590782FE09078E9
:100160004FF0907858E0FCA3E0FDA3E0FEA3E0246C
:10017000FEFFEE34FFFEED34FFFDEC34FFFC907823
:1001800045E0F8121E1590785EE0F8A3E0F9A3E0D0
:10019000FAA3E02FFFEA3EFEE93DFDE83C80249013
:1001A0007875E090784FF0FB90785EE0FCA3E0FD7E
:1001B000A3E0FEA3E0C39BFFEE9400FEED9400FDE0
:1001C000EC9400FC90786D121E2890784FE070033C
:1001D0000205A6122AA1EF600122E490785CF0A348
:1001E000F0907862E0FEA3E0FF90785CE0FCA3E092
:1001F000FDC39FEC9E400302057E907877E02DF5CD
:1002000009907876E03CF508850982F583E0FF7077
:10021000030205EDEF64E5700302056DEFB405021E
:100220007FE5907841E0FCA3E0F5828C83E0FE6FEF
:100230006008EE642A600302056DE4907857F0FFD1
:10024000EFC3940B40030202FF907857E0FE9078D2
:1002500041E0FCA3E02EF582E43CF583E0FEE509F5
:100260002FF582E43508F583E0FD6E70030202F598
:10027000907857E0FE907841E0FAA3E0FB2EF582FB
:10028000E43AF583E06027907857E0FEEB2EF582A4
:10029000E43AF583E0645C6015907857E0FE90786E
:1002A00041A3E02EF582E43AF583E0B42F1FED641C
:1002B00020704CEFC394085010E5092408F582E43F
:1002C0003508F583E0642070367F0B8032907857D4
:1002D000E02BF582E43AF583E0642E7022907857A3
:1002E000E06408600EE5092FF582E43508F583E047
:1002F000B4200C7F070F907857E004F0020240EF23
:10030000C3940B500302041DE509240BF582E43568
:1003100008F583E030E30302041DC20BE509241A4B
:10032000FFE43508FE12409EE4FCFD907858121E52
:100330002890786CE0B40314E5092414FFE4350830
:10034000FE12409E907858EEF0A3EFF0907857E0C0
:10035000FF907841E0FCA3E02FF582E43CF583E0D8
:100360006006200B03020404907858E0FCA3E0FD33
:10037000A3E0FEA3E0FF907847121E289078791240
:100380001E3400000000E490784FF0E509240BF5DE
:1003900082E43508F583E030E41F907866121E345D
:1003A000FFFFFFFF7D137F10123EC5EF600122307B
:1003B0000B047F4380027F4122E509241CFFE435C2
:1003C00008FE12402E907866121E2890785BE0702E
:1003D0001E907858E07018A3E07014A3E07010909D
:1003E000784F74FFF0907866121E34000000007D94
:1003F000147F10123EC5EF600122300B047F438052
:10040000027F0022907857E02401FFE433FE9078C9
:1004100042E02FF0907841E03EF0020134907857AE
:10042000E0FF907841E0FCA3E0FD2FF582E43CF58D
:1004300083E0642A600302056DE509240BF582E47C
:100440003508F583E030E30302056D907857E0242A
:1004500001FFE433FEED2FF582EC3EF583E060030F
:100460000204F1E4FF907855F0E5092FF582E435B8
:1004700008F583E064206059EFB4081C907855E0DB
:10048000FE907841E0FCA3E02EF582E43CF5837415
:100490002EF0907855E004F0E5092FF582E4350858
:1004A000F583E0FE907855E0FD907841E0FAA3E016
:1004B000FB2DF582E43AF583EEF0907855E0700B71
:1004C0008B828A83E0B4050374E5F0907855E004EC
:1004D000F00FEF640B7092907855E0FF907841E058
:1004E000FCA3E02FF582E43CF583E4F0D20B020399
:1004F0001C907857E02401FFE433FE907841E0FC43
:10050000A3E02FF582EC3EF583E0F4704590786926
:10051000E07011907866E0700BA3E07007A3E070C4
:1005200003020463907866E030E70312410D90788F
:1005300066E0FCA3E0FDA3E0FEA3E024FFFFEE34B1
:10054000FFFEED34FFFDEC34FFFC907866121E28B0
:10055000801B907857E02401FFE433FE907841E05F
:10056000FCA3E02FF582EC3EF583E014F090785D7B
:10057000E02420F090785CE03400F00201E1907813
:100580006DE0FCA3E0FDA3E0FEA3E02401FFE43E58
:10059000FEE43DFDE43CFC90786D121E2890784FFF
:1005A000E014F00201CA90785BE0700E907858E099
:1005B0007008A3E07004A3E060337E787F58E4FD08
:1005C000120EB1EF600122200B23907854E0907856
:1005D00058F0907855E0907859F0907856E09078FF
:1005E0005AF0907857E090785BF0020134E4FF9085
:1005F0007841E0FCA3E02FF582E43CF583E0FE6067
:1006000013642A600FEE645C6004EEB42F037FB3C2
:10061000220F80DB7F4222907865E0D39402400372
:100620007402F0123182EF60012290787DE0600365
:1006300002072F7F071240EF907855EFF0E054F05B
:10064000FD7F071240FA907871E060047DC080025F
:100650007D807F061240FAE4FD7F0E1240FA7F0192
:10066000123DE4907871E06034B4020C7F031240D4
:10067000EFEF54F044028011907871E0B4030F7FE3
:10068000031240EFEF540F4420FD7F0380137F02DD
:100690001240EFEF54F04402FD7F0280047D817F21
:1006A000061240FA7F01123DE4123E26EF60061268
:1006B0003E26EF70057F19123DE4907871E06034BA
:1006C000B4020C7F031240EFEF54F044018011900C
:1006D0007871E0B4030F7F031240EFEF540F441022
:1006E000FD7F0380137F021240EFEF54F04401FDC1
:1006F0007F0280047D807F061240FA7DC07F061253
:1007000040FA9078567432F07F05123DE47D1F7FE9
:10071000091240FA907855E0FD7F071240FA123135
:1007200082EF6069907856E014F070DC7F82227F5F
:100730000A123DE4907871E02402FD7F081240FA2D
:1007400012406C7D037F411240FA7D047F421240CB
:10075000FA12348DE50A601012406C7D017F42125E
:1007600040FA12348D020930123FF5E50A701190FB
:100770007876E0FEA3E0F5828E83A3A3E030E4E880
:1007800012406C7D147F421240FA12348D7F321277
:100790003DE4E4FD7F081240FA7C3B7D3C7F08127B
:1007A000400E12348DE50A70AF7C3B7D447F081209
:1007B000400E907871E0FF60082402FD7F421240F5
:1007C000FA90787DE0600E907878E0547F2410FDF8
:1007D0007F421240FA12348DE50A60030207587F07
:1007E000421240EFCDEFCD7F081240FA7F0A123D52
:1007F000E47C3B7D4C7F0812400E12348DE50A608C
:1008000003020930907876E0FEA3E0F5828E83A3A0
:10081000A3E0FD7F461240FAE4FD7F471240FA1242
:10082000348DE50A6003020930907876E0FEA3E09B
:10083000FF2405F582E43EF583E0907855F0EF243F
:100840000EF582E43EF583E0FB640860030208DDF8
:10085000907876E0FCA3E0FD240FF582E43CF5837C
:10086000E090786AB40606E04420F08004E054DFAB
:10087000F0ED240BF582E43CF583E0907838F0E469
:10088000907856F0907856E075F007A4FF9078774E
:10089000E02FFF907876E035F0CF2414CF3400FEBF
:1008A0008F82F583E0907857F08F828E83A3A3E048
:1008B0006440705D907857E030E70BE0540F44904F
:1008C00090783DF0800C907857E0540F4410907869
:1008D00040F0907856E004F0B402A98039EB640946
:1008E000702F90787DE070297C3B7D547F0812400A
:1008F0000E12348DE50A7038E4907878F0907876AE
:10090000E0FEA3E0F5828E83A3A3E090787DF070F3
:1009100005750A1F801A7C3B7D5C7F0812400E9093
:100920007855E0FD7F421240FA12348DE50A60529C
:10093000907878E0604920E746907855E50AF09095
:10094000787DE0FF907878E0C39F5028E004F09035
:100950007856F0123182907857EFF0700302072F2B
:10096000907857E0B48203E0FF22907856E09078C8
:1009700078F080CB907855E0F50AE4907878F0AF85
:100980000A2290787DE06037907878E07031907836
:1009900078E004F012406C7D037F411240FA7D083C
:1009A0007F421240FA12348D90787DE0FF90787883
:1009B000E0C39F40D9E4F07FC8123DE402062390D3
:1009C000787EE054044408F07C3B7D647F0812404C
:1009D0000E907838E0FD7F441240FA12348DE50A1B
:1009E000700E907876E0FEA3E0F5828E83E0800BB7
:1009F000E50AB42E0CE4FF123C2BE4907855F0800D
:100A000003AF0A227F02123DE4E4907864F07D2473
:100A10007F12123E6512329D907857EFF0E0702AF7
:100A2000907855E0601D907864E07017907876E0DB
:100A3000FEA3E0F5828E83E0B4050890786474012B
:100A4000F080CB7D037F02023EC5907855E0600EBA
:100A5000907864E0C394035005E004F080B0123C49
:100A60007722D294C2947F64123DE4D2941240BAA9
:100A70007BFF7A3079581216A2123F348F22123F30
:100A8000587BFF7A30795F1216A27F32123DE41252
:100A90003182EF70F57FC8123DE4E4F5227F321217
:100AA0003DE47BFF7A30796B1216A2123D11EF60A4
:100AB00042907865E0C3940250087BFF7A307974E5
:100AC0008023907865E0C394034007E522D3940522
:100AD0005021907865E0B4021190787DE0600B7B46
:100AE000FF7A3079811216A280090522E522C3948B
:100AF0006440AA907865E0C394035016907865E04E
:100B00006402708690787DE070807BFF7A30799601
:100B10008017C294D3907863E09400907862E09458
:100B200008400C7BFF7A3079A61216A2020E8BC207
:100B3000957BFF7A3079BD1216A278117C787D0101
:100B40007BFF7A3079C3121F311200038F22E52216
:100B500064B36009E52264426003020C41E522B4FB
:100B6000B3087528307529D380067528307529D6C5
:100B7000752DFF85282E85292F7BFF7A3079DF128E
:100B800016A2E4F526F527AA28A9297BFFC002C0F2
:100B90000178117C787D01D001D002121F317B01D8
:100BA0007A7879111240818F2274112FF582E43402
:100BB00078F58374FFF0AE26AF27E4FCFD907866ED
:100BC000121E281200038F22E52264426037E522BC
:100BD000B4431A85262D85272E752F01753078751B
:100BE00031117BFF7A3079ED1216A28007AF221205
:100BF0003F5880110527E52770020526C39410E5AC
:100C00002694274082752831752905E4F522852927
:100C100082852883E493FF74112522F582E4340849
:100C2000F583EFF0600F0529E529700205280522FC
:100C3000E522B4FFD9752400852225752301020D14
:100C4000FCAF22123F587BFF7A3179211216A2E4C1
:100C5000FF7E70FDFC907866E0F8A3E0F9A3E0FA6F
:100C6000A3E0FBD3121DF1907862E04015FCA3E0F5
:100C7000FD7E707F00121CCE8F23752470752500B9
:100C80008054FEA3E0FFE4FCFD907866E0F8A3E06A
:100C9000F9A3E0FAA3E02FFFEA3EFEED39FDEC38C0
:100CA000FCEF24FFFFEE34FFFEED34FFFDEC34FFDC
:100CB000FCC006C007907862E0FEA3E0FBAA06E451
:100CC000F9F8D007D006121D5F8F23907868E0FEF8
:100CD000A3E08E24F5257BFF7A317927907866E0B2
:100CE000FCA3E0FDA3E0FEA3E0F5308E2F8D2E8C5B
:100CF0002D8524318525327533008523341216A2C3
:100D0000907811E523F09078197408F0A37411F02D
:100D1000907866E0F8A3E0F9A3E0FAA3E0FB90780E
:100D200063E024FFFF907862E034FFFEE4FCFDEB1B
:100D30002FFFEA3EFEED39FDEC38FC907866121E7E
:100D4000281226C08F22907866E0FCA3E0FDA3E085
:100D5000FEA3E0FFC006C007907863E024FFFF9089
:100D60007862E034FFAB07FAD007D006C3EF9BFFF1
:100D7000EE9AFEED9400FDEC9400FC907866121E55
:100D800028AF22123F587BFF7A3179411216A21206
:100D900038C08F22123F58900875E0F522E4F075B4
:100DA0002D01752E08752F117BFF7A3179481216A7
:100DB000A2900875E522F0E4F526F527C3E527950E
:100DC00025E5269524503574112527F582740835BC
:100DD00026F583E0FFC394614018EFD3947A501254
:100DE000EF24E0FF74112527F58274083526F5837A
:100DF000EFF00527E52770C4052680C0C2967BFF6B
:100E00007A3179541216A278117C787D017BFF7AB1
:100E100031795C121F3112199C8F22123F587BFFCF
:100E20007A3179691216A2907811E523F090781939
:100E30007408F0A37411F0121FDC8F22123F587B4C
:100E4000FF7A3179701216A290781974FFF09078B9
:100E500017F0A3F09078157430F0A374B2F0AE24BC
:100E6000AF25E4FCFD907811121E28122F0F8F225F
:100E7000123F587BFF7A3179411216A2E490781123
:100E8000F01238C08F22123F58D296D2957BFF7A4B
:100E90003179781216A27F0A123DE4123182EF6096
:100EA000F5D2947FC8123DE4020A817E787F47E440
:100EB000FD90787FEDF090786CE0B402138F828E15
:100EC00083E0FCA3E0FDA3E0FEA3E0FF7801801433
:100ED000B403198F828E83E0FCA3E0FDA3E0FEA3A0
:100EE000E0FF7802121E15907880803D8F828E83FD
:100EF000A3A3E0FFA3E0907880CFF0A3EFF0907879
:100F000081E090786A30E006E04410F08004E0541C
:100F1000EFF0907880E0C313FEA3E013FFE02FFF13
:100F2000907880E03EFEE4FCFD121E28907882E07E
:100F3000FEA3E0FF907863E024FFFD907862E03448
:100F4000FF5EFEED5FFF907877E02FF509907876F1
:100F5000E03EF508907880E0FCA3E0FDA3E0FEA36E
:100F6000E0FF123FB890784BE0F8A3E0F9A3E0FA75
:100F7000A3E02FFFEA3EFEE93DFDE83CFC907880CF
:100F8000121E28907837E0FF907883E06F702490ED
:100F90007836E0FF907882E06F7018907835E0FF47
:100FA000907881E06F700C907834E0FF907880E06A
:100FB0006F6031300907123621EF6001229078808E
:100FC000E0907830F0907881E0907831F0907882FD
:100FD000E0907832F0907883E0907833F0122AC174
:100FE000EF60012290787FE0FF6040B4FF0AA31217
:100FF0001E34FFFFFFFF803190787FE0B4010AA329
:10100000121E34000000008020907847E090788322
:10101000F0907848E0907882F0907849E09078817C
:10102000F090784AE0907880F0D20990786CE0FEF9
:1010300064027055850982850883E0FDA3E09078FD
:1010400054CDF0A3EDF0907854E0907857F090787C
:1010500055E0A3F0E4907854F0A3F0907856E0FCCB
:10106000A3E0C394F7EC94FF4003D38001C3920B39
:1010700090787FE06010A3E0FDA3E08509828508F9
:1010800083CDF0A3EDF07F0022EE64037077850935
:1010900082850883E0FCA3E0FDA3E0FEA3E0FF90CF
:1010A0007854121E28907857E054F0FF907883E02F
:1010B000540F4FF0907857E0540FFF907854E09021
:1010C0007857F0907854EFF0907856E0FF9078558C
:1010D000E0A3F0907855EFF0907854E0C3940F407F
:1010E00003D38001C3920B90787FE06015A3E0FCEE
:1010F000A3E0FDA3E0FEA3E0FF850982850883123B
:101100001E287F0022907881E0540FF0907862E0F2
:10111000FEA3E0FF907877E02FFF907876E03ECF57
:1011200024FFCF34FFFEEF65097003EE6508606DA4
:10113000850982850883E0907854F08509828508C6
:1011400083A3E0907855F090787FE070030212441A
:1011500090786AE090788030E424E0C454F0FF9006
:101160007854E0540F4F850982850883F090788188
:10117000E0C454F0FF907880E0C4540F8013E08501
:101180000982850883F0907855E054F0FF907881CB
:10119000E04F850982850883A3F002124485098205
:1011A000850883E0907854F090787FE0602A90780A
:1011B0006AE090788030E40FE0C454F0FF907854F7
:1011C000E0540F4FFF8002E0FF850982850883EF1E
:1011D000F0123621EF600122907834E0FCA3E0FDAC
:1011E000A3E0FEA3E02401FFE43EFEE43DFDE43C79
:1011F000FC907830121E28122AC1EF6001229078EC
:1012000076E0FEA3E0FFF5828E83E0907855F090C3
:10121000787FE0602F90786AE030E413907881E086
:10122000C454F0FD907880E0C4540F4DFD800D90C3
:101230007855E054F0FD907881E04DFD8F828E83EB
:10124000EDF0D20990786AE030E41B907855E0C464
:1012500054F0FF907854E0C4540F4F907857F090BA
:101260007855E0C4800C907854E0907857F09078EE
:1012700055E0540FA3F0E4907854F0A3F090785622
:10128000E0FEA3E0C394F7EE940F4003D38001C3C4
:10129000920B7F0022907865E0C39403500A1206F7
:1012A00017EF60012212382C1240CBE4F508907839
:1012B00030121E3400000000122AC1EF600D123BF4
:1012C000D512382C122AC1EF600122E50870129065
:1012D0007876E0FEA3E0F5828E83E054FD64E96059
:1012E00059E4FDED6440604F907877E024BEFF90B4
:1012F0007876E03401FEED7A002FFFEA3EF583EFC9
:101300002404F582E43583F583E06025907877E066
:1013100024BEFF907876E03401FEED2FFFEA3ECF49
:101320002408CF3400FE12402E907830121E288000
:101330000974102DFD80AC7F9222907830E0FCA3E0
:10134000E0FDA3E0FEA3E0FF907839121E28122AE8
:10135000C1EF600122907876E0FCA3E0FDF5828C7D
:1013600083E054FD64E960037FA122ED240DF58242
:10137000E43CF583E090782FF090786CF09078451D
:101380007406F090786CE0FF20E615EF25E0907889
:101390006CF0907845E014F070E990782F7401F0CB
:1013A000907877E02416124096907843EEF0A3EF01
:1013B000F04E703F907877E02424124026907847D2
:1013C000121E28907847E0FCA3E0FDA3E0FEA3E016
:1013D000FFE4FBFA7901F8D3121DF15007E508602C
:1013E000037FA222907849E0FFA3E0907843CFF0FA
:1013F000A3EFF0907876E0FEA3E0FF2414F582E4FA
:101400003EF583E0FDEF2413F582E43EF583E04DE5
:10141000907877600BE02413124096E4FCFD800680
:10142000E02420124026907858121E28907877E009
:101430002411124096CCEECCCDEFCD907862E0FE38
:10144000A3E07805CEC313CE13D8F9147E002DFF88
:10145000EE3CFE907846E024FBFDEFC8EDC8088026
:1014600005CEC313CE13D8F9FFE4FCFD90787212B9
:101470001E28907877E0240E12409690785CEEF06B
:10148000A3EFF0907844E02FFF907843E03EFEE435
:10149000FCFD907872E0F8A3E0F9A3E0FAA3E02F56
:1014A000FFEA3EFEED39FDEC38FC907847121E282D
:1014B000907876E0FEA3E02410F582E43EF583E028
:1014C000D39401402D907847E0F8A3E0F9A3E0FA27
:1014D000A3E0FB907843E0FEA3E0FFE4FCFDEB2FEC
:1014E000FFEA3EFEED39FDEC38FC907847121E28ED
:1014F0008007E4907843F0A3F0907847E0F8A3E009
:10150000F9A3E0FAA3E0FB907858E0FCA3E0FDA388
:10151000E0FEA3E0C39BFFEE9AFEED99FDEC98FC84
:10152000907845E0F8121E02907850121E28E47B55
:10153000F57AFFF9F8D3121DF14022E490783EF0DD
:10154000A3F0907852E0FEA3E094F5EE940F90782B
:101550006C50057401F0802B7402F080269078772F
:10156000E0243012409690783EEEF0A3EFF09078B1
:1015700077E0242C124026907872121E2890786C06
:101580007403F090785CE0FEA3E0FF4E6053907827
:1015900072E0F8A3E0F9A3E0FAA3E0FBE8494A4BC4
:1015A000603FA3E0FCA3E0FD2410F582E43CF5835A
:1015B000E0D39401400A907843E07002A3E06021F8
:1015C000ED240BF582E43CF583E07015907876E02D
:1015D000FCA3E0240CF582E43CF583E0C3940250C4
:1015E0000AE50870067508010212AEE4FCFD907869
:1015F00030E0F8A3E0F9A3E0FAA3E02FFFEA3EFE13
:10160000ED39FDEC38FC90784B121E28907830E0D4
:10161000FCA3E0FDA3E0FEA3E0FF907847E0F8A381
:10162000E0F9A3E0FAA3E02FFFEA3EFEE93DFDE882
:101630003CFC90785E121E287D107F03123EC5226E
:10164000E539242DF8E6053922782A300702782D6D
:10165000E475F001121FA6021F4E2000EB7F2ED270
:10166000008018EF540F2490D43440D4FF30040B82
:10167000EF24BFB41A0050032461FFE53A6002155D
:101680003A053DE53D7002053C30070D782AE475CA
:10169000F001121FA6EF021F94023EE87403D20766
:1016A0008003E4C207F5398B2A8A2B892CE4F53AAA
:1016B000F53CF53DE53A60077F2012167B80F57515
:1016C0003BFFC201C200C202C203C205C206C20879
:1016D000121649FF700D3007057F0012168CAF3DC2
:1016E000AE3C22B4255FC2D5C204121649FF24D0F5
:1016F000B40A00501A75F00A783A30D50508B6FFDA
:101700000106C6A426F620D5047002D20380D9248F
:10171000CFB41A00EF5004C2E5D20402188CD201F3
:1017200080C6D20080C0D20280BCD2D580BAD20599
:1017300080B47F2012167B2002077401B53A004066
:10174000F1121640FF12167B0216B4D208D20680A0
:1017500095121640FB121640FA121640F94A4B70C9
:1017600006795D7A197BFF20022EE53A602A7E0019
:101770008E82758300121F6760060EEE653B70F067
:10178000C2D5EBC0E0EAC0E0E9C0E0EE1218D3D069
:10179000E0F9D0E0FAD0E0FB121F4EFF60AAEBC0E8
:1017A000E0EAC0E0E9C0E012167BD0E02401F9D005
:1017B000E03400FAD0E0FBE53B0460DCD53BD980A7
:1017C000877BFF7A1879CFD202809C7910800279CA
:1017D00008C206C2088008D2D5790A8004790AC2F4
:1017E000D5E53B047002F53BE4FAFDFEFF1216401E
:1017F000FC7B08200113121640FD7B1030000A12FA
:101800001640FE121640FF7B20EC3382D592D55055
:1018100013C3E43000069FFFE49EFEE42001039D15
:10182000FDE49CFCE4CBF8C201EC700CCFCECDCC37
:10183000E824F8F870F38017C3EF33FFEE33FEEDC2
:1018400033FDEC33FCEB33FB994002FB0FD8E9EBA3
:10185000300105F8D0E0C448B201C0E00AEC4D4EBA
:101860004F78207B0070C2EAB53B0040BCC0E0125C
:1018700018D5D0F0D0E0200104C4C0E0C4B201C04B
:10188000F0121664D0F0D5F0EB0216B4121FB617A2
:10189000515317CB5817224C171E4217CF4F17D74B
:1018A0004417D74917374317DD5517C14617C145A8
:1018B00017C147197D5017262D172A2E174D2B17A4
:1018C0002E23174B2019662A16E648000017453FBD
:1018D0003F3F00790AA2D5200314300509B9100250
:1018E0000404B9080104A2D5200602500104200214
:1018F000689202B53A005034C0E07F203003197F6F
:1019000030A20272067205500F12192CC202C206D2
:10191000C205C2087F30800F300503E9C0E012160F
:101920007B300503D0E0F9D0E0B53ACC3005177F25
:1019300030B9100C12167B7F583004077F78800373
:10194000B9080312167B3002057F2D02167B7F201B
:101950002008F87F2B2006F322920280CF286E7594
:101960006C6C2900D2011216403001F8C201783A9D
:1019700030D50108F60216E62D504349581216409C
:101980002403B405004001E49019789312166C7496
:101990003A12166CD203753A040217CB1200039068
:1019A000784FEFF0700A123560EF7003021B64226B
:1019B00090784FE0FF6442600122907863E024E079
:1019C000FF907862E034FFFEC390785DE09F9078EE
:1019D0005CE09E5003021B6490785BE0701190788D
:1019E00058E0700BA3E07007A3E07003021AE590C3
:1019F0007861E0FF907870E0C39FFF90782FE0144B
:101A0000FE5F90784FF090785DE0600A90784FE04C
:101A10006E6003021B647E787F58E4FD120EB1EF06
:101A2000600122200B03021B64123E96EF6001222C
:101A30007E787F587D02120EB1EF600122123621AE
:101A4000EF6001221240CBE4FFFE907862E06EFC72
:101A5000A3E06F4C6017907876E0FCA3E02FF5824E
:101A6000EC3EF583E4F00FBF00010E80DDE49078DA
:101A70004FF0123AD890785DE0701A90785CF0A33D
:101A8000F0907830E0FCA3E0FDA3E0FEA3E0FF903F
:101A9000786D121E2890782FE0907854F09078544A
:101AA000E0602E122C36EF600122907830E0FCA32B
:101AB000E0FDA3E0FEA3E02401FFE43EFEE43DFDE3
:101AC000E43CFC907830121E28907854E014F080AA
:101AD000CC907847121E34FFFFFFFF123952EF708F
:101AE00003021B642290785DE0707990786DE0FCD1
:101AF000A3E0FDA3E0FEA3E024FFFFEE34FFFEED34
:101B000034FFFDEC34FFFC90786D122A9EEF6001EB
:101B100022E490785CF0A3F0907862E0FEA3E0FF0E
:101B200090785CE0FCA3E0FDC39FEC9E503390787E
:101B300077E02DFF907876E03C8F82F583E0B4E586
:101B400010E582240BF582E43583F583E0540E60C2
:101B50001390785DE02420F090785CE03400F08011
:101B6000B77FB222123E96EF600122123621EF605B
:101B700001227F061240EFEF54BF648060037F11A3
:101B800022907847E0FCA3E0FDA3E0FEA3E0FF90F5
:101B90007858121E28907847121E34FFFFFFFF125C
:101BA0003952EF600122122AA1EF60012290785C85
:101BB000E0FEA3E0FF907877E02FFF907876E03E9C
:101BC000FEE4FDEDC3940B50047C2080027C00EF0A
:101BD0002DF582E43EF583ECF00DEDB420E5EF2425
:101BE00018F582E43EF5837421F0A37430F0EF24FD
:101BF0001CF582E43EF5837401F0E4FDEDC3940B23
:101C0000504B907841E0FAA3E0F5828A83E0FC60D3
:101C10003CECB42E107D08907842E004F070069001
:101C20007841E004F0907841E0FAA3E0F5828A83FD
:101C3000E0FCEF2DF582E43EF583ECF00D90784268
:101C4000E004F070B7907841E004F080AF90785BEA
:101C5000E0907854F090785AE0907855F090785968
:101C6000E0907856F0907858E0907857F09078545B
:101C7000E0FCA3E0FDEF241AF582E43EF583ECF0EE
:101C8000A3EDF0907856E0FCA3E0FDEF2414F5827C
:101C9000E43E122C2FEF600122907858E0FCA3E084
:101CA000FDA3E0FEA3E0FF907847121E289078661F
:101CB000121E3400000000907879121E34000000DB
:101CC00000E490784FF07D147F10123EC522BC00D6
:101CD0000BBE0029EF8DF084FFADF022E4CCF87547
:101CE000F008EF2FFFEE33FEEC33FCEE9DEC984056
:101CF00005FCEE9DFE0FD5F0E9E4CEFD22EDF8F5F2
:101D0000F0EE8420D21CFEADF075F008EF2FFFED51
:101D100033FD4007985006D5F0F222C398FD0FD549
:101D2000F0EA2275F008758200EF2FFFEE33FECD4A
:101D300033CDCC33CCC58233C5829BED9AEC99E58B
:101D40008298400CF582EE9BFEED9AFDEC99FC0F1B
:101D5000D5F0D6E4CEFBE4CDFAE4CCF9A88222B8E3
:101D600000C1B90059BA002DEC8BF084CFCECDFC68
:101D7000E5F0CBF97818EF2FFFEE33FEED33FDECF5
:101D800033FCEB33FB10D703994004EB99FB0FD8DE
:101D9000E5E4F9FA227818EF2FFFEE33FEED33FD7C
:101DA000EC33FCC933C910D7059BE99A4007EC9B7B
:101DB000FCE99AF90FD8E0E4C9FAE4CCFB2275F00B
:101DC00010EF2FFFEE33FEED33FDCC33CCC833C81C
:101DD00010D7079BEC9AE899400AED9BFDEC9AFC22
:101DE000E899F80FD5F0DAE4CDFBE4CCFAE4C8F9D1
:101DF00022EB9FF5F0EA9E42F0E99D42F0E89C4517
:101E0000F022E8600FECC313FCED13FDEE13FEEFC0
:101E100013FFD8F122E8600FEFC333FFEE33FEED7E
:101E200033FDEC33FCD8F122ECF0A3EDF0A3EEF09F
:101E3000A3EFF022A8828583F0D083D082121E4BBC
:101E4000121E4B121E4B121E4BE473E493A3C58368
:101E5000C5F0C583C8C582C8F0A3C583C5F0C583D6
:101E6000C8C582C822E709F60870FA8046E709F279
:101E70000870FA803E88828C83E709F0A370FA80AC
:101E80007EE309F60870FA8076E309F20870FA80BA
:101E90006E88828C83E309F0A370FA806289828A5B
:101EA00083E0A3F60870FA805689828A83E0A3F261
:101EB0000870FA804A80D280FA80C680D48065801B
:101EC000F28031801080A680EA809A80A880DA8033
:101ED000E280CA803189828A83ECFAE493A3C8C580
:101EE00082C8CCC583CCF0A3C8C582C8CCC583CC7E
:101EF00070E9800D89828A83E493A3F60870F9EC77
:101F0000FAA9F0EDFB2289828A83ECFAE0A3C8C526
:101F100082C8CCC583CCF0A3C8C582C8CCC583CC4D
:101F200070EA80DD89828A83E493A3F20870F980E5
:101F3000CE88F0ED2402B4040050C4F582EB2402F4
:101F4000B4040050BA2323458223901EB573BB010D
:101F50000689828A83E0225002E722BBFE02E32246
:101F600089828A83E49322BB010CE58229F582E50C
:101F7000833AF583E0225006E92582F8E622BBFE8B
:101F800006E92582F8E222E58229F582E5833AF521
:101F900083E49322BB010689828A83F0225002F7F0
:101FA00022BBFE01F322FAE6FB0808E6F925F0F66B
:101FB00018E6CA3AF622D083D082F8E493701274FD
:101FC0000193700DA3A393F8740193F5828883E4C1
:101FD000737402936860EFA3A3A380DF907865E039
:101FE000D394145006E0C3941250037FB422907827
:101FF00011E0FFA3F07006300A03023B84E49078FE
:1020000011F0907813F0A3F0907812E070030221A1
:10201000B190784FE0F4706090785BE0700E90784B
:1020200058E07008A3E07004A3E0603A907865E09F
:10203000B4120B90786CE0640360037FB122907857
:1020400047E0FCA3E0FDA3E0FEA3E0FF90781B12B5
:102050001E28123EAAEF6001227E787F1B7D0212AD
:102060000EB1EF6008221236D7EF6001229078148B
:10207000E014F0E490784FF0123AD8907813E060D2
:102080007C907846E0FFB409047F408015EFB40AE5
:10209000047F20800D907846E0B40B047F1080020E
:1020A0007F08EF3395E0FE907813E0C39FEE6480E5
:1020B000F8748098503BE0FFE4FCFDFE907815E05A
:1020C000F8A3E0F9A3E0FAA3E02FFFEE3AFEED3922
:1020D000FDEC38FC907830E0F8A3E0F9A3E0FAA337
:1020E000E06FFFEA6EFEE96DFDE86CFC4D4E4F605F
:1020F0000C12224DEF600122E4907813F0907813D7
:10210000E07014907830E0FCA3E0FDA3E0FEA3E0D3
:10211000FF907815121E2890784FE0FF90782FE0FE
:10212000C39FFF907812E0FEEFD39E4013E0FFA321
:10213000E02FF0907812E0FF90784FE02FF0807160
:10214000907813E02FF0907812E0C39FF0E07020B9
:10215000907876E0FEA3E0FF907819E06E7003A31C
:10216000E06F700C12224DEF600122E4907813F0C2
:102170007E787F47E4FD120EB1EF600122300B093B
:1021800090784F74FFF0022008907854E0907847E0
:10219000F0907855E0907848F0907856E090784943
:1021A000F0907857E090784AF0E490784FF0022071
:1021B00008300907123621EF600122907813E060A1
:1021C0000712224DEF600122907814E0604490786D
:1021D00047E0FCA3E0FDA3E0FEA3E0FF90781B1224
:1021E0001E28907814E0FFE474FFFEFDFC90784711
:1021F000121E28123952CBEFCB90781BE0FCA3E0E3
:10220000FDA3E0FEA3E0FF907847121E28EB6002DA
:10221000FF22907879E0FCA3E0FDA3E0FEA3E0FFBD
:10222000907866E0F8A3E0F9A3E0FAA3E0FBC3121C
:102230001DF15016907879E0FCA3E0FDA3E0FEA329
:10224000E0FF907866121E28D20A7F0022E4907880
:102250006BF07E787F15907813E0FD7B2A12379320
:10226000E50A6037907846E0FFB409047F088015DE
:10227000EFB40A047F10800D907846E0B40B047F21
:102280002080027F40907813E0FEEF8EF0A4FF9054
:102290007854E5F0F0A3EFF00224757DC87F0612B4
:1022A00040FA90787EE030E6047F4080027F8090A4
:1022B0007819E0FCA3E0FD123D9E907819EEF0A3A2
:1022C000EFF07D407F0B1240FA90787EE06440F0A2
:1022D000FD7F0E1240FAC20B907846E0FFB409046D
:1022E0007F088015EFB40A047F10800D907846E0D7
:1022F000B40B047F2080027F40907813E0FEEF8EC5
:10230000F0A4FF907854E5F0F0A3EFF0907855E05A
:10231000B40106907854E0602090787EE030E604C6
:102320007F4080027F80907819E0FCA3E0FD123DA1
:102330009E907819EEF0A3EFF0122DD7E50A601FFA
:102340007DC07F061240FAE50A642E600302247500
:1023500090786BE060030224759078400223E5904A
:10236000787EE06440F0907855E0B40106907854AF
:10237000E0600A90787EE0FD7F0E1240FA9078557A
:10238000E0600EE014F07084907854E06010022356
:102390000C907854E014F0A3E014F002230C7DC0FC
:1023A0007F061240FA90783DE0FD7F0D1240FA90D2
:1023B000787EE0FD7F0E1240FAD20B90787EE064CA
:1023C00080F0122DD7E50A602990787EE06480F0D5
:1023D000E50A642E600302247590786BE0600302C6
:1023E000247590783DE0FF123C2B90786B7401F0DF
:1023F00080B37F0B1240EFEF640D70797FCC1240F9
:10240000EFEF7067907813E0FF907811E02FF09075
:102410007879E0F8A3E0F9A3E0FAA3E0FBE8C0E0F4
:10242000E9C0E0EAC0E0EBC0E0907813E0FE90780D
:1024300046E024F8FDE4C8EDC8088005C333CE3378
:10244000CED8F9FFE4FCFDD0E0FBD0E0FAD0E0F913
:10245000D0E0F8EB2FFFEA3EFEED39FDEC38FC90C2
:102460007879121E281241057F00227FCC1240EF9E
:10247000EF6401600BE50AB416037F8222123BD59C
:1024800090786BE0C394055018123CC790786BE0CD
:10249000C394034003123C7790786BE004F002226F
:1024A00052750A1F123FDD123C7722E490786BF0E0
:1024B0007E787F15907813E0FD7B28123793E50A2C
:1024C0006037907846E0FFB409047F088015EFB4C8
:1024D0000A047F10800D907846E0B40B047F2080C2
:1024E000027F40907813E0FEEF8EF0A4FF907854C6
:1024F000E5F0F0A3EFF002268A7DCC7F061240FAC9
:1025000090783DE0FD7F0D1240FA90787EE0FD7FEF
:102510000E1240FAD20B90787EE06440F09078463C
:10252000E0FFB409047F088015EFB40A047F10802F
:102530000D907846E0B40B047F2080027F409078B5
:1025400013E0FEEF8EF0A4FF907854E5F0F0A3EFD7
:10255000F0122DD7E50A600A7DC07F061240FA020C
:1025600025E590787EE06480F0907855E0B401062F
:10257000907854E0600A90787EE0FD7F0E1240FA79
:1025800090787EE030E7047FC080027F80907819E9
:10259000E0FCA3E0FD123D58907819EEF0A3EFF0B7
:1025A000907855E0600DE014F070A6907854E060EB
:1025B0000E809E907854E014F0A3E014F080927D99
:1025C000C07F061240FA90787EE0FD7F0E1240FA3E
:1025D00090787EE06480F0122DD7E50A602C907828
:1025E0007EE06480F0E50A642E600302268A90781B
:1025F0006BE0600302268A90783DE0FF123C2B904E
:10260000786B7401F012403E80C67F0B1240EFEFF2
:10261000640D70767FCC1240EFEF7064907813E019
:10262000FF907811E02FF0907879E0F8A3E0F9A31B
:10263000E0FAA3E0FBE8C0E0E9C0E0EAC0E0EBC0FC
:10264000E0907813E0FE907846E024F8FDE4C8EDD1
:10265000C8088005C333CE33CED8F9FFE4FCFDD0E3
:10266000E0FBD0E0FAD0E0F9D0E0F8EB2FFFEA3E53
:10267000FEED39FDEC38FC907879121E287F00229F
:102680007FCC1240EFEF6401600BE50AB416037FC4
:102690008222123BD590786BE0C394055018123C0F
:1026A000C790786BE0C394034003123C7790786B3B
:1026B000E004F00224B0750A1F123FDD123C7722BD
:1026C000907865E0D394145006E0C3941250037FD1
:1026D000B422907811E0A3F0E4907811F090781390
:1026E000F0907879E0F8A3E0F9A3E0FAA3E0FB909A
:1026F0007866E0FCA3E0FDA3E0FEA3E0C39BFFEE51
:102700009AFEED99FDEC98FC123FB8907854121E99
:1027100028907855E07004A3E0600890781474FF66
:10272000F08008907857E0907814F0907812E0707C
:10273000030228A7907814E070030228A790784F2E
:10274000E0F470030228A7123AD8907813E0607C76
:10275000907846E0FFB409047F408015EFB40A0486
:102760007F20800D907846E0B40B047F1080027FBC
:1027700008EF3395E0FE907813E0C39FEE6480F895
:10278000748098503BE0FFE4FCFDFE907815E0F883
:10279000A3E0F9A3E0FAA3E02FFFEE3AFEED39FD46
:1027A000EC38FC907830E0F8A3E0F9A3E0FAA3E07D
:1027B0006FFFEA6EFEE96DFDE86CFC4D4E4F600C5C
:1027C0001224ABEF600122E4907813F0907813E0CC
:1027D0007014907830E0FCA3E0FDA3E0FEA3E0FFDE
:1027E000907815121E2890784FE0FF90782FE0FE29
:1027F000C39FFF907854F0907814E0FDEFD39D4094
:1028000005E0907854F0907812E0FF907854E0D38F
:102810009F4017907812E0FFA3E02FF0907812E02D
:10282000FF90784FE02FF00228AD907812E0FF90F3
:102830007854E0FDC3EF9D907812F0907854E0FF5B
:10284000907813E02FF0A3E0FF907854E0FDC3EF01
:102850009D907814F0907854E0FF90784FE02FF03E
:10286000E06E600302272B7E787F47FD120EB1EFEA
:10287000600122300B0990784F74FFF002272B90F3
:102880007854E0907847F0907855E0907848F09050
:102890007856E0907849F0907857E090784AF0E4E4
:1028A00090784FF002272B907813E060030224AB5E
:1028B0007F0022907850E0FCA3E0FDA3E0FEA3E0BF
:1028C000FF907847E0F8A3E0F9A3E0FAA3E0FBD398
:1028D000121DF140037FB122907847E0FCA3E0FD98
:1028E000A3E0FEA3E02401FFE43EFEE43DFDE43C62
:1028F000FC907847121E28120EABEF6001229078F0
:1029000057E07011907854E0700BA3E07007A3E0DB
:102910007003022A9490786CE0FF640160959078CF
:1029200076E0FCA3E08C08F509EF6402706490780F
:1029300062E0C313FEA3E01324FFFFEE34FFFE901A
:102940007854F0A3EFF0907856EEF0A3EFF0740215
:102950002509F509F582E43508F508F583E07011DD
:10296000A3E0700D85098285088374FFF0A3022916
:10297000F2907855E0600C14F070D3907854E060D9
:102980000E80CB907854E014F0A3E014F080BF02E6
:102990002A6B907862E0FEA3E07802CEC313CE13D8
:1029A000D8F924FFFFEE34FFFE907854F0A3EFF047
:1029B000907856EEF0A3EFF074042509F509F5823E
:1029C000E43508F508F583E06003022A48A3E060D7
:1029D00003022A48A3E06003022A48A3E0540F70D0
:1029E0006785098285088374FFF0A3F0A3F0A3E054
:1029F000440FF0907856E0FEA3E0FF907847E0F8AF
:102A0000A3E0F9A3E0FAA3E04FFFEA4EFEE9FDE8F8
:102A1000FCEEC0E0EFC0E0907855E024FFFF907836
:102A200054E034FFCBEFCBFAD0E0FFD0E0FEC3EFB1
:102A30009BFFEE9AFEED9400FDEC9400FC9078472D
:102A4000121E28D2097F0022907855E0601014F001
:102A500060030229B8907854E060100229B8907899
:102A600054E014F0A3E014F00229B8907847E0F89D
:102A7000A3E0F9A3E0FAA3E0FB907856E0FEA3E020
:102A8000FFEB4FFFEA4EFEE9FDE8FC907847121E8F
:102A9000280228B37E787F477DFF120EB122121ED6
:102AA0002890786DE0907830F090786EE0907831F2
:102AB000F090786FE0907832F0907870E090783312
:102AC000F0907837E0FF907833E06F702790783699
:102AD000E0FF907832E06F701B907835E0FF9078DF
:102AE00031E06F700F907834E0FF907830E06F70D5
:102AF00003022C2CE490786BF07B2812378DE50ACA
:102B00006003022BFF7DCC7F061240FA90783DE0F7
:102B1000FD7F0D1240FA90787EE0FD7F0E1240FAA4
:102B2000D20B90787EE06440F0907876E0FFA3E0EE
:102B3000907834CFF0A3EFF0907846E0B409047FAA
:102B4000088010B40A047F108009B40B047F208031
:102B5000027F40907855EFF0122DD7E50A600A7D8C
:102B6000C07F061240FA022BC990787EE06480F0A4
:102B7000907855E06401600A90787EE0FD7F0E1247
:102B800040FA90787EE030E7047FC080027F80903A
:102B90007834E0FCA3E0FD123D58907834EEF0A3C9
:102BA000EFF0907855E014F070AE7DC07F061240D3
:102BB000FA90787EE0FD7F0E1240FA122DB0E50A01
:102BC000602190787EE06480F0E50A642E70309099
:102BD000786BE0702A123C2690786B7401F01240FA
:102BE0003E80D87F0B1240EFBF0D147FCC1240EF18
:102BF000EF7002FF227FCC1240EFEF6401600BE523
:102C00000AB416037F8222123BD590786BE0FFC393
:102C100094055012EFC394034003123C7790786BF5
:102C2000E004F0022AF9123FD7023C777F0022F538
:102C300083ECF0A3EDF0E490786BF07B2A12378DF3
:102C4000E50A6003022D827DC87F061240FA907863
:102C50007EE030E6047F4080027F80907876E0FC62
:102C6000A3E0FD907834ECF0FCA3EDF0FD123D9E66
:102C7000907834EEF0A3EFF07D407F0B1240FA9095
:102C8000787EE06440F0FD7F0E1240FA907846E0D6
:102C9000B409047F088010B40A047F108009B40BC3
:102CA000047F2080027F40907855EFF0907855E0C7
:102CB0006401602090787EE030E6047F4080027FEF
:102CC00080907834E0FCA3E0FD123D9E907834EED5
:102CD000F0A3EFF0122DD7E50A601F7DC07F06122A
:102CE00040FAE50A642E6003022D8290786BE06062
:102CF00003022D82907840022D5590787EE064404A
:102D0000F0907855E06401600A90787EE0FD7F0ED7
:102D10001240FA907855E014F070917DC07F061251
:102D200040FA90783DE0FD7F0D1240FA90787EE009
:102D3000FD7F0E1240FAD20B122DB0E50A602390EF
:102D4000787EE06480F0E50A642E703690786BE05F
:102D5000703090783DE0FF123C2B90786B7401F05E
:102D600080C07F0B1240EFBF0D187FCC1240EFEFF9
:102D700070061241057F00227FCC1240EFEF640104
:102D8000600BE50AB416037F8222123BD590786B64
:102D9000E0FFC394055012EFC394034003123C7745
:102DA00090786BE004F0022C3B123FD7123C772264
:102DB000907830E0907834F0907831E0907835F089
:102DC000907832E0907836F0907833E0907837F071
:102DD00090787EE06480F0E4907857F0E4F50A1291
:102DE00040E47F091240EFEF30E0767D117F091259
:102DF00040FA7F0A1240EF300B0FEF5407B4031470
:102E0000EF30E439E4F50AFF22EF540FB40205E491
:102E1000F50AFF22EF540FFEBE0A0790786AE02001
:102E2000E72CEF54037003D38001C34007EE442026
:102E3000FFF50A227F091240EFEF20E12490786A23
:102E4000E0540FFF907857E004F0D39F500D7F0EB1
:102E50001240EFEF4408FD7F0E8029750A207F2085
:102E600022750AFF7F041240EFD50AF87F0912404D
:102E7000EF907857EFF0E030E17B123E26BF090A71
:102E80007D027F091240FA022DDC9078657401F012
:102E9000E490787DF07D137F091240FA907871E01C
:102EA00060047DC080027D807F061240FA123E26BB
:102EB000EF603C9078657402F0907871E0D39401F3
:102EC0005009907857E05480FF80157F021240EF40
:102ED000907871E0B403047E2080027E10EF5EFFE4
:102EE000EF6006750A157F1522750A137F13227588
:102EF0000A167F16227D1F7F091240FA907857E04C
:102F000030E306750A067F0622750A057F052290C2
:102F10007865E0C3941350037FB422122AA1EF60B6
:102F20000122C20990785CE0FEA3E0FF907877E090
:102F30002FFF907876E03ECBEFCBFA907819E0FF48
:102F4000EB240BF582E43AF583E0907819F0EFF486
:102F500060138B828A83E582240BF582E43583F546
:102F600083EFF0D209907817E0907857F0907818B6
:102F7000E0907856F0EB2416FFE43AFE12409E9063
:102F80007817EEF0A3EFF0907856E0F4FEA3E0F4AB
:102F90004E6018907856E0FEA3E0FFEB2416F58211
:102FA000E43AF583EEF0A3EFF0D209907815E090C3
:102FB0007857F0907816E0907856F0EB2418FFE4FC
:102FC0003AFE12409E907815EEF0A3EFF0907856FE
:102FD000E0F4FEA3E0F44E6018907856E0FEA3E023
:102FE000FFEB2418F582E43AF583EEF0A3EFF0D27C
:102FF00009907811E0FCA3E0FDA3E0FEA3E0FF90C0
:10300000781D121E28EB241CFFE43AFE12402E907D
:103010007811121E2890781DE0F46024E0FCA3E0F3
:10302000FDA3E0FEA3E0FF907866121E281240B3D5
:10303000EB241CF582E43AF583121E28D209C20A59
:10304000300905C209022C367F00224572726F7268
:103050003A20253032580A0053746172740A0057BE
:1030600061697420556469736B0A00526561647903
:10307000203F0A0044657669636520676F6E650AC4
:10308000004E6F20556469736B20696E2055534262
:103090005F4855420A00556E6B6E6F776E2064650F
:1030A000766963650A00546F6F206C6172676520F2
:1030B000736563746F722073697A650A004F706577
:1030C0006E0A005C4335315C43483337344846541C
:1030D0002E43005C2A005C4335315C43482A004C97
:1030E0006973742066696C652025730A0020206D61
:1030F000617463682066696C652025303464233A06
:103100002025730A00D5D2B2BBB5BD2F4335312F70
:1031100043483337344846542E43CEC4BCFE0D0AD0
:1031200000526561640A0053697A653D256C642C20
:10313000204C656E3D25642C205365633D25640A53
:1031400000436C6F73650A004C696E6520313A204C
:1031500025730A004372656174650A005C4E455729
:1031600046494C452E5458540057726974650A00FC
:103170004D6F646966790A0054616B65206F7574E0
:103180000A007F061240EFEF54404480FD7F061294
:1031900040FA7F091240EFEF30E112123E26EF6451
:1031A000096003123F0F7D137F091240FA123E2679
:1031B000EF7003023299907865E0C394025008746E
:1031C00002F0E490787DF090787DE07002FF22902C
:1031D0007871E02402FD7F081240FA907878E06070
:1031E00059123FF5E50A703B907876E0FEA3E0F5D2
:1031F000828E83A3A3E030E00C9078657402F01215
:10320000406C12348D907876E0FEA3E0F5828E83D8
:10321000E030E01E907878E02410FD7F081240FA3C
:103220007F0022E50A64166070E50A30E504540365
:1032300060679078657402F08057907878E004F0C9
:10324000123FF5E50A702E907876E0FEA3E0F58255
:103250008E83A3A3E030E00612406C12348D907888
:1032600076E0FEA3E0F5828E83E030E017A3E02055
:10327000E1127F0022E50A6416601EE50A30E504CB
:103280005403601590787DE0FF907878E0C39F400C
:10329000A9E4907878F07F8422123F0F22E490080E
:1032A00001F0A3F0A3F0907864E0900805F0E490BA
:1032B0007856F07C3B7D2F7F0412400E7A087B000D
:1032C0007D117F48123F997D1F7F0B1240FA907845
:1032D00040E0FD7F0D1240FA90787EE0FD7F0E12F7
:1032E00040FAC20B122DD7E50AB416037F8222E5FD
:1032F0000A6014907856E060030233A4123BD59024
:1033000078567401F080AC90787EE06440F09008CC
:1033100000E0606112403E122DD7E50A600EE50A1A
:10332000642E60030233A4123C26804990787EE02C
:103330006480F07F0B1240EF907857EFF07F4F12D0
:1033400040EFBF030A7F531240EFEF641260151283
:1033500040CB907857E0FD907876E0FAA3E0FB7FD1
:10336000C0123F7A900800E0FF907857E0FEC3EF6C
:103370009E900800F012403E122DD7E50A7025906D
:10338000787EE06480F07FCC1240EF907857EFF0C9
:103390007F0B1240EFBF0D09907857E0C3940240B5
:1033A00006750A1F023BD5907857E07002FF227520
:1033B0000A1F7F1F2290785BE07011907858E070B0
:1033C0000BA3E07007A3E0700302347A907858E012
:1033D000FCA3E0FDA3E0FEA3E0FF907847806D90A2
:1033E000782FE0FFE4FCFDFE907811E0F8A3E0F90F
:1033F000A3E0FAA3E0FBC3121DF14055120EABEFA0
:10340000600122200B74907854E0907847F0907817
:1034100055E0907848F0907856E0907849F09078B0
:1034200057E090784AF0907811E0FCA3E0FDA3E02B
:10343000FEA3E0FF90782FE0FBC3EF9BFFEE94002C
:10344000FEED9400FDEC9400FC907811121E288093
:103450008E907814E0FF90782FE0145F90784FF012
:10346000123AD8907830E0FCA3E0FDA3E0FEA3E0A0
:10347000FF907811121E287F002290784F74FFF081
:10348000907811121E34FFFFFFFF7F00227F011290
:103490003DE47D087F0B1240FA7DD07F0D1240FA8B
:1034A0007D0C7F0E1240FAC20B122DD7E50A600385
:1034B000AF0A22D20B7F461240EFEF60791240CB69
:1034C0007F01123DE47D907F0D1240FA7F0E124085
:1034D000EFEF6480440CFD7F0E1240FA122DD7E509
:1034E0000A6003AF0A227F0B1240EF8F0A7F471258
:1034F00040EF907857EFF0E0FF907877E02FFB9067
:103500007876E03400FAAD0A7FC0123F7A9078579F
:10351000E0250AF0E0FD7F471240FA7F461240EFB7
:10352000907857E0C39F500CE50A54076092750AE3
:10353000177F1722C20B7F01123DE4E4FD7F0B12BF
:1035400040FA300B047F0980027F01EFC454F0FD84
:103550007F0D1240FA7DCC7F0E1240FA122DD72239
:10356000907865E0C394135007120003EF600122C6
:10357000123EC1EF600122122AA1EF600122907871
:103580005CE0FEA3E0FF907877E02FFF907876E094
:103590003E8F82F58374E5F0122C36EF60012290A5
:1035A0007858E0FCA3E0FDA3E0FEA3E0FF90785490
:1035B000121E28EC4D4E4F6065907858E0FCA3E059
:1035C000FDA3E0FEA3E024FFFFEE34FFFEED34FF99
:1035D000FDEC34FFFC907858121E28907847121E9C
:1035E00034000000007E787F547D01120EB1EF6040
:1035F0000122907847E0FCA3E0FDA3E0FEA3E024D5
:1036000001FFE43EFEE43DFDE43CFC907847121EE1
:1036100028300BD1123621EF6001220239527F008F
:1036200022907834E0907830F0907835E0907831DE
:10363000F0907836E0907832F0907837E0907833F8
:10364000F0122C36EF600122907843E07002A3E084
:1036500070030236D2907830E0F8A3E0F9A3E0FAE4
:10366000A3E0FB907843E0FEA3E0FFE4FCFDEB2F3A
:10367000FFEA3EFEED39FDEC38FC907830121E2852
:10368000122C36EF600122907830E0FCA3E0FDA31D
:10369000E0FEA3E0FF907843E0FAA3E0FBC3EF9BDA
:1036A000FFEE9AFEED9400FDEC9400FC9078301251
:1036B0001E28907830E0907834F0907831E090785F
:1036C00035F0907832E0907836F0907833E090786A
:1036D00037F0C2097F00221228B3EF600564B160A1
:1036E0000122EF6011907847121E34000000001292
:1036F00028B3EF600122123621EF60012290784753
:10370000E0FCA3E0FDA3E0FEA3E0FF907858122ABE
:103710009EEF60012290785CE0FEA3E0FF90787756
:10372000E02FFF907876E03EFEF583EF241CF582D3
:10373000E43583F5837401F090785BE0907854F081
:1037400090785AE0907855F0907859E0907856F05B
:10375000907858E0907857F0907854E0FCA3E0FD22
:103760008F828E83E582241AF582E43583F583EC1B
:10377000F0A3EDF0907856E0FCA3E0FD8F828E83FD
:10378000E5822414F582E43583122C2F227E787F83
:10379000307D01E4900800F0907846E024F8F8EDE0
:1037A000088002C333D8FC900801F0E4A3F0A3F032
:1037B000EBB42A047C0080027C80900804ECF0903A
:1037C0007864E0900805F0A3740AF0A3EBF0E4A39A
:1037D000F08F828E83E0FCA3E0FAA3E0FBA3E0CCB1
:1037E000900809F0A3EAF0A3EBF0A3ECF0E4A3F057
:1037F000A3F0A3EDF0E4A3F07C3B7D2F7F04124007
:103800000E7A087B007D117F48123F997D1F7F0B48
:103810001240FA907840E0FD7F0D1240FA90787ED9
:10382000E0FD7F0E1240FAC20B022DD7907855743E
:1038300064F07D087F25123E65900806740AF0E466
:1038400090080BF012329D907854EFF0E0704690A3
:103850007876E0FEA3E02406F582E43EF583E0906E
:103860007846B40404740A8010B40804740B800908
:10387000B41004740C80027409F0F874017E00081E
:103880008005C333CE33CED8F9907863F0EE9078CC
:1038900062F07F0022907854E06416601DE06415A9
:1038A0006018E0641360131240557F32123DE490BB
:1038B0007855E014F06003023832907854E0FF222B
:1038C000907865E0C3941250037FB422907865E04D
:1038D0006412705B90786CE064036053907875E0DC
:1038E00090782FF0907868E0FEA3E0FF907846E0B3
:1038F000F8EF088005CEC313CE13D8F9FFE4FCFD22
:10390000907872121E2890785EE0F8A3E0F9A3E0A8
:10391000FAA3E0FB907875E0FFE4FCFDFEEB2FFFDF
:10392000EE3AFEED39FDEC38FC90785E121E2890E0
:103930007865E0D39413400AE0B41408907811E05D
:103940007002C20A300A07123B84EF600122123E65
:10395000C12290783EE0FCA3E0FD4C7002FF22CF34
:10396000EDCFCEECCEE4FCFD907839E0F8A3E0F9A1
:10397000A3E0FAA3E02FFFEA3EFEED39FDEC38FCB0
:10398000907830121E28122AC1EF600122907847E9
:10399000E0F8A3E0F9A3E0FAA3E0FB907877E02455
:1039A000E8FF907876E03401FE12402EEB2FFFEA1C
:1039B0003EFEE93DFDE83CFC907847121E289078D9
:1039C000471240A8907876E0FAA3E024E8F582EA6E
:1039D0003401F583121E28122C3622907865E0C33C
:1039E000941250037FB422907866E0FCA3E0FDA31C
:1039F000E0FEA3E0FF123FB8907854121E289078A2
:103A000011E0F8A3E0F9A3E0FAA3E0FBD3121DF163
:103A10004014907854E0FCA3E0FDA3E0FEA3E0FF97
:103A2000907811121E28907811E0FCA3E0FDA3E02D
:103A3000FEA3E0FF907846E024F8F9F8121E1590F6
:103A40007854121E28907855E0907879F090785646
:103A5000E090787AF0907857E090787BF0E4A3F0EB
:103A60001233B522E4907865F07D557F801240FADC
:103A70007DAA7F811240FA7F801240EFBF550A7FF6
:103A8000811240EFEF64AA60037F8122E4FD7F068C
:103A90001240FAE4FD7F0E1240FA90786A7485F0C5
:103AA000E4A3F09078627402F0A3E4F0907871F0EF
:103AB00090787EF07D1F7F091240FA7F071240EF59
:103AC000EF54F04403FD7F071240FA7D407F05125A
:103AD00040FA123F0F7F0022907847E0FCA3E0FD00
:103AE000A3E0FEA3E024FEFFEE34FFFEED34FFFD75
:103AF000EC34FFFC907845E0F8121E1590785EE0FB
:103B0000F8A3E0F9A3E0FAA3E02FFBEA3EFAE93DCF
:103B1000F9E83CF890784FE0FFE4FCFDFEEB2FFF66
:103B2000EE3AFEED39FDEC38FC907830021E285557
:103B30005342430021FF0000000000008006000106
:103B400000001200000502000000000080060002D4
:103B500000000400A0060029000009000009000080
:103B600000000000A1FE00000000010002010000B2
:103B700000000000A3000000010004002301100069
:103B800001000000C20A907865E0C394144043121B
:103B90002AA1EF60012290785CE0FEA3E0FF90781C
:103BA00077E02FFF907876E03ECBEFCBFAF583EB12
:103BB000240BF582E43583F583E020E415907866E4
:103BC0001240A8EB241CF582E43AF583121E280269
:103BD0002C367F0022907856E50AF07F02123DE4F1
:103BE0001231828F0AE50A6003AF0A227C3B7D34E2
:103BF0007F0812400E907838E0FD7F441240FA12A0
:103C0000348DE50AB416037F8222E50A700B123C5C
:103C100026907840E0FF123C2B7F02123DE4907822
:103C200056E0FFF50A2290783DE0FF907857EFF0DC
:103C30007C3B7D6C7F0812400E907857E0C4540F97
:103C4000FFBF090FE0540F4480F090787EE0547F6E
:103C5000F08016907857E0C4540FFFBF010BE0547A
:103C60000FF090787EE054BFF0907857E0FD7F44ED
:103C70001240FA12348D227F02123DE47D117F0939
:103C80001240FA123E26EF600DE50A6416600790B6
:103C90007865E0B40103023F0F907865E0C39403B8
:103CA000401B907855E50AF07D127F03123E6512A5
:103CB000329D907855E0F50A7F02123DE4E50A70E6
:103CC000037F1022AF0A22907813E0FF7E009078E5
:103CD00046E0FDEFC8EDC8088005C333CE33CED82B
:103CE000F9FDCCEECC907854E0FEA3E07806C33327
:103CF000CE33CED8F9FFC3ED9FFFEC9EFEC3E49F09
:103D0000FFE49EFE90781AE02FF0907819E03EF0E4
:103D100022123182EF600122907865E0C394035053
:103D20001B120617EF600C7F32123DE4120617EFEC
:103D300060012212382CEF6003023C77E4FDFF1291
:103D40003E6512329D907854EFF0E07002FF22122F
:103D50004055907854E0FF2290BDF1EFF07F109035
:103D6000BCF0E08D828C83F00DBD00010C90BCF0A6
:103D7000E08D828C83F00DBD00010C90BCF0E08DD5
:103D8000828C83F00DBD00010C90BCF0E08D828C24
:103D900083F00DBD00010CDFC6AE04AF052290BD5F
:103DA000F1EFF07F108D828C83E090BCF0F00DBDC0
:103DB00000010C8D828C83E090BCF0F00DBD000101
:103DC0000C8D828C83E090BCF0F00DBD00010C8D59
:103DD000828C83E090BCF0F00DBD00010CDFC6AE1C
:103DE00004AF0522907884EFF07F061240EFEFF4E5
:103DF0006033EF30E72F907884E0907857F07F04BD
:103E00001240EFEF20E5F7907857E0FF14F0EF60F5
:103E1000147F041240EFEF30E5F77F041240EFEF1C
:103E200030E5E480F522907871E0B401047F0280EF
:103E300009907871E0B4020A7F031240EFEF540951
:103E4000FF22907871E0B4030D7F031240EFEF542E
:103E500090C4540FFF22E4907871F07F091240EF74
:103E6000EF5420FF22900800EDF060047E80800275
:103E70007E00900804EEF09008067406F0A3EFF0C0
:103E8000E4A3F0A3F0A3F0A3EDF0E4A3F0A3F0A368
:103E9000F0A3F0A3F022907858E0FCA3E0FDA3E0AB
:103EA000FEA3E0FF907847121E281228B3EF64B1FA
:103EB000600122907847121E34000000001228B3DF
:103EC000227D107F10907865E0C39F4002EDF09056
:103ED0007865E06D7002FF229078657401F0123110
:103EE00082EF6001227F8322EFB40A07740D123E35
:103EF000F3740A309811A899B8130CC2983098FD41
:103F0000A899C298B811F63099FDC299F5992290F6
:103F100078657401F0E490787DF0FD7F081240FA36
:103F2000907871E060047DC080027D807F06124041
:103F3000FA7F8222E581D394EE40037FFC22124176
:103F40000AEFC3941450037FFF229078767400F038
:103F5000A37400F0123A6422EF601E7BFF7A30797E
:103F60004B752D008F2E1216A2C2947F64123DE471
:103F7000D2947F64123DE480F02290BDF1EFF0AF67
:103F8000051DEF601390BCF0E0FF0BEB8A8370011E
:103F90000A14F582EFF080E72290BDF1EFF0AF0553
:103FA0001DEF60130BEBAE0270010A14F5828E83D5
:103FB000E090BCF0F080E722C3E4CC13CD13CE1325
:103FC000FF907846E024F7600DF8C3ED13FDEE1383
:103FD000FEEF13FFD8F4221240CB750A1F907865CC
:103FE000E0B412047403F022907865E0D39410409A
:103FF000037410F0227C3B7D747F0812400E907891
:1040000078E0547FFD7F441240FA12348D2290BD37
:10401000F17440F08D828C83E49390BCF0F00DBD80
:1040200000010CDFEF22FF907876E03400FE8F82F3
:104030008E83E0FFA3E0FEA3E0FDA3E0FC229078E6
:104040003DE0FD7F0D1240FA90787EE0FD7F0E127C
:1040500040FAD20B227F0A123DE47D127F03123E0A
:104060006512329D7F02123DE4AF0A227C3B7D7CCB
:104070007F0812400E907878E0547FFD7F44024024
:10408000FAE4FFFE121F4E600C0FEF70010E09E9FB
:1040900070F20A80EF22FF907876E03400FE8F8283
:1040A0008E83E0FFA3E0FE22E0FCA3E0FDA3E0FEA0
:1040B000A3E0FFEFCCFFEECDFE2275985075878010
:1040C000758920758DF3D28ED29922907834121E84
:1040D00034FFFFFFFFC20922787FE4F6D8FD758127
:1040E0003D020A627F091240EFEF540360F622900E
:1040F000BDF1EFF090BCF0E0FF2290BDF1EFF09049
:0F410000BCF0EDF0227FFADFFE227F1422222294
:00000001FF
