:100000000C9446000C9463000C9463000C94630001
:100010000C9463000C9463000C9463000C946300D4
:100020000C9463000C9463000C9463000C946300C4
:100030000C9463000C9463000C9463000C946300B4
:100040000C9463000C9463000C9463000C946300A4
:100050000C9463000C9463000C9463000C94630094
:100060000C9463000C9463000C9463000C94630084
:100070000C9463000C9463000C9463000C94630074
:100080000C9463000C9463000C94630011241FBE55
:10009000CFEFD0E1DEBFCDBF12E0A0E0B1E0ECE2F7
:1000A000F3E400E00BBF02C007900D92A237B10746
:1000B000D9F714E0A2E7B2E001C01D92AD3FB1074D
:1000C000E1F70C9468010C940000B499FECF0895F8
:1000D00088EE93E00197F1F7089508950E94A80231
:1000E000843150F082E792E09093A7048093A604B5
:1000F0000E943D03992708958FEF90E008951ABA62
:1001000087E088BB8FE087BB0895C39A8BBB9FEFC6
:100110009ABB88B3897F88BB9ABB88B3876088BB4A
:100120001ABAC39808958BBB9FEF9ABB88B3817F9F
:1001300088BB9ABB88B3876088BB1ABA08951ABA7D
:1001400088B3827F88BB1ABA99B388B3876088BBAB
:10015000892F992708950E9485000E949F00992762
:1001600008951F93162F0E948500812F0E949300EF
:100170001F9108950F931F93CF93C62F8A010E945A
:100180008500C150CF3F39F00E949F00F801819354
:100190008F01C150C8F7CF911F910F9108950F9310
:1001A0001F93CF93C62F8A010E948500C150CF3F75
:1001B00039F0F80181918F010E949300C150C8F776
:1001C000CF911F910F9108951F93CF93DF93EB0170
:1001D0000E94850010E10E949F0089930E949F0069
:1001E00089930E949F0089930E949F0089931150D8
:1001F00091F7CE01DF91CF911F9108951F93CF9377
:10020000DF93EB010E94850010E189910E94930029
:1002100089910E94930089910E94930089910E9484
:100220009300115091F7CE01DF91CF911F91089566
:100230000F931F93CF93C82F8B0180E40E948500FA
:10024000F80181918F010E949300C150C9F7CF91AD
:100250001F910F910895882309F4089599279F937A
:100260008F938EE091E09F938F930E94191E0F90C1
:100270000F900F900F90C79884E60E94FD02C79AD6
:1002800084E60E94FD02F7CFCF93C82F8A3019F081
:100290005D9BFECF04C08DE00E944401F9CFCCB934
:1002A00080E090E0CF9108951092900087E689B9A0
:1002B00088E18AB986E08093950080E091E0909390
:1002C000F8048093F7049093FA048093F904089556
:1002D000CFEFD0E1DEBFCDBF0E947F00C79ABF9AAB
:1002E000C79884E60E94FD02C79A0E9454018BE1E0
:1002F00091E00E94351E0E946E000E942B0171E267
:10030000872E71E0972E6FE2662E61E0762E57E41D
:10031000A52E51E0B52E84E691E00E94351E8AE0BC
:100320000E94FD020E94ED05C82F8823C1F7C798DF
:1003300088EC0E94FD0284E60E94FD028FE691E0B7
:100340000E94351E0E94C00A882319F0CF5FC53075
:1003500090F38091A1048330F0F287E791E00E944E
:10036000351E03E814E0D801ECE7F1E080E10190EC
:100370000D928150E1F70E943415C82F833B19F08C
:10038000823409F069C0C33B09F461C03CE8E32E44
:1003900031E0F32EFF92EF929F928F920E94191EEE
:1003A000DD240F900F900F900F9023E8222E24E071
:1003B000322E44245524B70183E894E00E94121E93
:1003C000F80101900020E9F73197E358F440FF2746
:1003D000ED57FB4FD0820E943415C82F823431F084
:1003E000833409F468C08C2F0E942B0188E991E0C6
:1003F0000E94351EE3E8F4E0AFE9B1E08DE00D9036
:1004000001928150E1F70E944B190E942B018CEA66
:1004100091E00E94351E82EBE82E81E0F82EC0E0CC
:10042000E4E8F4E0D701DC90D192DD2031F00894CB
:10043000E11CF11CCF5FCD31A8F3CC2309F454C0EB
:10044000C09383040E94A81C0E942B01E8CF4DEFAB
:10045000E42E41E0F42E9ECF0E942B0108E512E02D
:100460001F930F93BF92AF920E94191E0F900F908F
:100470000F900F900E31110508F45FC09DE1D92E49
:10048000D09283040E94B61B0E942B0180918304AA
:10049000081B1109C0E0882309F041C08D1508F43C
:1004A0004EC00115110531F780E092E00E94351E23
:1004B0000E94EF0D99CF3F922F925F924F927F92C1
:1004C0006F920E94191E8DB79EB706960FB6F894CC
:1004D0009EBF0FBE8DBFD3940894411C511C9DEF4D
:1004E0009D1508F068CF82CF80E092E00E94351E13
:1004F00081E0809383040E94EF0D0E942B0186E02F
:1005000092E00E94351E8AE00E94FD020E94ED05E5
:100510008823C9F3C79A88EC0E94FD02FCCEEC2F19
:10052000FF27ED57FB4F818199270E942E1ECF5F39
:10053000809183048C1799F7B1CFD02EA1CF8AE098
:1005400090E00E942E1E8FE092E00E94351EACCFFC
:1005500084E190E00895FC0181918093BF04819132
:100560008093C00481918093C10480818093C204F0
:100570008091BF049091C004A091C104B091C204C5
:10058000BC01CD010895FC0181918093BF0480815D
:100590008093C0048091BF049091C00408959B0192
:1005A000AC018091CF049927089704C056954795D0
:1005B000379527958A95D2F72093BF043093C004CE
:1005C0004093C1045093C2048091C0048093BF043F
:1005D0008091C1048093C0048091C2048093C104BF
:1005E0001092C2048091BF049091C004A091C104F4
:1005F000B091C204BC01CD010895CF93C82F86E00D
:100600000E94AB008F3F09F187FF1FC0C093C20457
:1006100084E00E94AB0085FDFBCF8091C204815035
:100620008093C2048F3F89F084E00E94AB0085FF75
:10063000FBCF84E00E94AB0085FDFBCF8091C2041C
:1006400081508093C2048F3F79F7CF91089581E064
:100650008093A1041092E00460E088E00E94B10061
:100660008091EA04882311F060EC01C060E886E024
:100670000E94B10082E890E008951092A10465E51F
:1006800080E80E94B1006AEA81E80E94B10080E837
:100690000E94AB00853529F481E80E94AB008A3ABC
:1006A00019F081E890E0089560E086E00E94B100D2
:1006B00060E08EE00E94B10085E88093F50410921E
:1006C000D00480E092E09093BA048093B904109231
:1006D000EA041092DF046FE189E00E94B10087E034
:1006E0000E94AB00807F8360682F87E00E94B1008A
:1006F00060E485E00E94B1000E94270380E090E062
:1007000008958FEF9FEFAFEFBFEF8093A804909312
:10071000A904A093AA04B093AB041092B404089562
:100720008091EA048130C9F08230F1F0833049F0E1
:100730001092EA0489E00E94AB00992780729070C1
:1007400008950E94AB009927929582958F70892712
:100750009F70892789709070089582E00E94AB0095
:10076000992789709070089583E0F8CF6091B20462
:100770008DE00E94B1006091DF048EE00E94B10024
:1007800081E08093DA0408958091A104823141F0E0
:100790008091A104813118F080E18093A104089533
:1007A00083E08093A10408958091E6049091E7048A
:1007B000A091E804B091E9040297A109B109009061
:1007C000B30404C0880F991FAA1FBB1F0A94D2F755
:1007D0002091D1043091D2044091D3045091D4049B
:1007E000820F931FA41FB51F2091BE04820F911D7D
:1007F000A11DB11D8093DB049093DC04A093DD0464
:10080000B093DE040895982F60937204662311F06C
:1008100080E801C0862F8093760486E08093780478
:100820009093790410927A0410927B0410927C04C5
:1008300060937D0410927E0410927F0410928004D5
:10084000109281041092820408956CE172E088E0B5
:100850000E9418018091AE048F77682F84E40E9473
:10086000B10008951092C2041092E1040E94650044
:1008700089E00E94AB0080FD2BC08FEF8093E104E4
:100880008091E104882361F084E00E94AB008091B4
:10089000E10481508093E1048091E1048823A1F771
:1008A00089E00E94AB008093C20481FF6DC00E946A
:1008B0009003893009F076C062E00E94B100109286
:1008C000E1040E94650089E00E94AB0080FFD5CF63
:1008D00061E189E00E94B1008AE00E94AB00582FDC
:1008E0004091DA04442379F1282F3327C901877016
:1008F0009070039709F443C0C9018F7090700A97F4
:1009000071F123703070232B91F589E00E94AB00C8
:1009100081FDB3CF8091C2048F5F8093C204282FE2
:1009200033278091F50499278F7090708217930771
:100930000CF477C08EE00E94AB008860682F8EE0D8
:100940000E94B100BCCF282F3327C9018F7090704F
:10095000029791F64093E10480E090E00895809141
:10096000F50488233CF323703070232B71F25F7001
:1009700050625093E1048091E1049927089524FF87
:10098000C9CF1092E104E8CF6FE189E00E94B10085
:100990008091C20483FF2CC086E08093E10486E04E
:1009A00090E0089581E08093A1041092E00463E157
:1009B00089E00E94B1008091EA048823F9F060EC9C
:1009C00086E00E94B1000E949003882399F192E092
:1009D0009093A1048091EA04823090F48091C20443
:1009E00087FD19C083E18093E10483E190E00895DD
:1009F00085E08093E10485E090E0089560E8E0CF31
:100A0000892F0E94AB00282F33278091EA0483307E
:100A100071F024FFE7CF85E18093E10485E190E068
:100A2000089580E28093E10480E290E0089525FD3E
:100A3000F2CFD8CF86E18093E10486E190E008957B
:100A4000CF9381E00E94FD0268E08BE00E94B1003C
:100A500060ED8DE00E94B1006CE08EE00E94B1007C
:100A60001092DA040E9432048091E104882321F07C
:100A70008091E104992773C081E08093DA0486E4D1
:100A80000E94AB00882309F452C00E94810381E0D8
:100A90000E94FD0260E98DE00E94B1008EE00E949C
:100AA000AB0090E898279C60692F8EE00E94B1000F
:100AB0000E943204C091E104CC23D1F68BE00E9465
:100AC000AB008093E10487E40E94AB00282F809361
:100AD000C2048091A6049091A704820F911DAC01DD
:100AE0006091E10480EC0E94BA008091C204909170
:100AF000E104890F8093C204682F87E40E94B1004B
:100B000086E40E94AB009091C204981770F4809123
:100B1000E104992787709070892B09F4B8CF87E199
:100B20008093E10487E190E01AC0C093DA0481E089
:100B30000E94FD0260E08BE00E94B1008091DA0427
:100B4000882359F060E98DE00E94B1006CEC8EE0E2
:100B50000E94B1000E9432048DCF60E1F4CFCF91AA
:100B600008958093C20464E272E088E00E94180154
:100B70008091C204982F92959F70993019F091300E
:100B800099F40AC08F7080688093C2048091DF045A
:100B90008F778093DF0408C08F708093C2048091A8
:100BA000DF048F7B8093DF046091C20484E40E94A1
:100BB000B1000E942005992708956CE272E088E058
:100BC0000E9418018091AE048F77682F84E40E9400
:100BD000B1000E9420059927089586E00E94AB008D
:100BE00080748068682F86E00E94B10089E00E94CE
:100BF000AB0081FD45C00E9490038823E9F18091FC
:100C0000A104823038F08091E004882361F480E010
:100C100090E0089582E08093A1041092E004809116
:100C2000E0048823A1F38091EA048E5F682F88E0B6
:100C30000E94B1009091AE04992309F443C00E9430
:100C4000DD058091E104882391F4E091A604F09100
:100C5000A704828180FD6CC0808180FF58C0809194
:100C6000AE04805F682F88E00E94B100D0CF8091F1
:100C7000E104863109F03FC00E94270399270895B7
:100C80000E949003893011F00E94270363E189E0FC
:100C90000E94B100B0CFE091A604F091A704828138
:100CA00080FD3DC0808180FF07C0818199279C0124
:100CB0002270307081FF48C09091AE048091E004B2
:100CC000981740F59F5F9093AE040E94DD058091D8
:100CD000E104882301F38091E104863169F2809177
:100CE000E10485FFE9CF8091E1049927837090703A
:100CF000892B11F7C1CF8091E10485FF08C0809155
:100D0000E104992783709070892B09F4B5CF82E0B4
:100D10008093A1041092AE0484E890E008950E94AC
:100D200025040E942005E091A604F091A704BACF03
:100D300082E08093A1040E9425040E942005E09196
:100D4000A604F091A70488CFC90108958091E10419
:100D50008093C10482E00E94FD020E94ED05809311
:100D6000E1048091E104882321F08091E104992736
:100D7000089564E372E088E00E9418016091AF0476
:100D800084E40E94B1000E9420058091E104863134
:100D9000C1F08091E104882359F082E00E94FD02B5
:100DA0008091C1048093E1048091E1049927089522
:100DB0008091B2040E94B1058091F6040E94B105B1
:100DC000ECCF82E890E008959091A104981710F07C
:100DD0006093A1048091A104861749F081E080937B
:100DE000A1040E94ED05882329F09927089580E049
:100DF00090E0089583E890E00895109273041092B3
:100E00007504109274048091B10480937704109259
:100E1000C1040FC08091E104882309F474C080915B
:100E2000C104882309F06BC00E94A60681E080936C
:100E3000C1046CE372E084E00E94180142E754E0D0
:100E400061E188E40E94CF006FE18BE00E94B10075
:100E50006091F6048DE00E94B1006091DF048EE0A5
:100E60000E94B1001092DA040E9432048091E104E1
:100E7000863181F682E890E008958091DF0490E861
:100E800089278093DF048BE00E94AB008093C2042B
:100E90008FE40E94AB00833029F483E50E94AB000D
:100EA000823159F00E9481034091A6045091A70419
:100EB0006091C20480EC0E94BA008091720490910B
:100EC000C204891B809372040E94B6030E943204FC
:100ED0008091E104882399F48091DF0490E88927C8
:100EE0008093DF048CEC0E94AB008093C2048BE003
:100EF0000E94AB008D3019F18FE18093E1040E94D4
:100F0000A606992708958091DF0490E489278093AD
:100F1000DF04809172048823B9F20E94B6030E9414
:100F200032048091E104882309F4A7CF8091E10481
:100F30008E3229F78091B2040E94B105C5CF80910D
:100F4000C2048230C8F6882319F480E090E0089546
:100F50008FE18093E1048FE190E008958AE00E94A0
:100F6000FD0262E183E00E9403040E94FD0682E02C
:100F70000E94FD028091E10499270895CF9384E6B1
:100F80008093C004CAE068E085E20E940304C09335
:100F9000780410927D040E94FD06982F8093BF0470
:100FA0008823B1F08551823080F0933171F00E9436
:100FB000AE0782E30E94FD028091C00481508093BD
:100FC000C004882301F79091BF04892F992722C07C
:100FD000E091A604F091A70486818430A9F08830BE
:100FE000A9F08031A9F029E02093CF0481E090E0BE
:100FF00002C0880F991F2A95E2F79093BA04809354
:10100000B90480E090E006C02C2FEECF2BE0ECCFAF
:101010002CE0EACFCF91089582E00E94FD0261E1C9
:1010200089E00E94B1000E9490038823A1F0809182
:10103000E104863181F08091A104813061F08091DA
:10104000A104833060F48091E1048823D1F0809181
:10105000E104992708950E94270399270895809114
:10106000E1048093C00462E183E00E9403040E94D3
:10107000FD068091C0048093E10482E00E94FD029D
:10108000E2CF80E190E00895CF938091A104833076
:1010900018F082E08093A1040E94ED05882309F0F6
:1010A000C0C08091E004882309F092C087E00E94CC
:1010B000AB008093C004807F682F87E00E94B1005E
:1010C0008091EA04882309F4AEC060EC86E00E94B7
:1010D000B10060E08EE00E94B10081E00E94FD025C
:1010E000C091EA04CC2309F4AEC0C23009F43BC17C
:1010F000C33009F430C182E00E94AB00807F82607F
:10110000682F82E00E94B10081E00E94FD020E94EF
:101110009003882321F00E949003882319F489E129
:101120000E94FD02C091EA04CC2309F409C1C23037
:1011300009F421C1C33009F406C182E00E94AB006A
:10114000807F8160682F82E00E94B10060EC86E0C1
:101150000E94B10082E38093C10485E00E94FD02F9
:101160006FE189E00E94B1006091C00487E00E94B5
:10117000B1000E94ED05882309F47DC08091C1046F
:1011800081508093C104882341F782E890E0F6C142
:101190008091E1048093C0048091E004981760F08E
:1011A00000C1823891F39091C1048091E0049817B6
:1011B00008F0F7C09093AE04892F8F5F8093AE0440
:1011C0008093C1040E94ED058093C204882349F7EF
:1011D0008AE00E94FD028091EA048E5F682F88E019
:1011E0000E94B1000E94250463E081E40E94B100E6
:1011F00064E082E40E94B1000E9420058091E10435
:10120000882321F10E94250461E082E40E94B1005C
:101210000E9420059091AE0419160CF4B9CF80916C
:10122000E1049927ABC160E886E00E94B10060E06C
:101230008EE00E94B10081E00E94FD02C091EA04AC
:10124000CC2309F052CF61E886E05CCF0E94DD0537
:101250008091E104882339F4E091A604F091A70479
:10126000828184FFF3CF0E94250464E182E40E941E
:10127000B1000E94200582E30E94FD0260E088E048
:101280000E94B10061E472E088E00E9418010E94AF
:1012900020058091E104882309F0B4CF69E472E06D
:1012A00088E00E9418016091EA04662309F074C086
:1012B0008091E004882309F066C00E942005809197
:1012C000E104882309F09ECF82E40E94AB00682FDE
:1012D00088E00E94B1008AE00E94FD0261E572E0B0
:1012E00088E00E9418010E942005C091E104CC23EF
:1012F00009F090CFE091A604F091A704628186E402
:101300000E94B1006C2F87E40E94B1000E9420056A
:101310008091E104882309F07DCFA091A604B091CB
:10132000A704FD0185818093C0048685883009F477
:1013300041C0893009F46EC08FE18093E1046ACF27
:1013400060E886E001CF8C2F0E94AB008F70806137
:10135000682F8C2FF9CE8C2F0E94AB008F7080628B
:10136000682F8C2FCFCE83E00E94AB00807F8260FD
:10137000682F83E0C7CE83E00E94AB00807F81604E
:10138000682F83E0E1CE8091AE048F77805F682F75
:1013900082E40E94B10091CF6E5F82E40E94B100AE
:1013A00087CF8091C0048093E1041092AE048091B5
:1013B000E10437CF8785863009F47DC08091F5043C
:1013C0008F7D8093F504FD0183858093AF04109297
:1013D000C10437E00AC09F7090619093F604822F99
:1013E0008F5F8093C104823091F12091C104239FCB
:1013F000F0011124EA0FFB1F94899093C20486899F
:10140000803409F099CF97FFE6CF9F709069909351
:10141000B204E5CF8091E004882309F08DCF69E51F
:1014200072E088E00E9418010E9420058091E1048A
:10143000882309F0EFCE8093AE04E091A604F091EA
:10144000A70482818093E004882309F475CF61E6C4
:1014500072E088E00E9418016091C00482E40E945A
:10146000B1000E9420058091E104882309F0D2CECA
:101470008091E004882319F19091AE049923F9F446
:101480009F5F9093AE040E94250463E081E40E9474
:10149000B10068E082E40E94B1000E9420059091B2
:1014A000AE048091E004981758F31092AE0488ECD3
:1014B0000E94FD02F1CD8091F504806282CF80917F
:1014C000DF04847088608093DF0469E672E088E05E
:1014D0000E9418016091AF0484E40E94B1000E9450
:1014E00020058091E1048823D9F5E091A604F091CC
:1014F000A70480818093C00482E00E94FD021092C4
:10150000B10464E282E10E9403040E94FD0680931C
:10151000C204882399F48091C0048823D9F0809173
:10152000B1048823B9F4E091A604F091A704808166
:10153000853081F481E08093B104E3CF8091C004D1
:101540008823C9F08091B1048330A8F48F5F809321
:10155000B104D7CF63E082E00E94E40699270EC071
:101560008091E1048E3209F05ACE80E00E94B105EC
:101570001092C004C1CF0E940C089927CF91089502
:101580000E94ED05882311F58091A104833068F055
:1015900060E0862F0E9403040E94FD068093BF0432
:1015A0008823B1F480E090E008950E9444088823E5
:1015B00039F082E30E94FD020E944408882331F43E
:1015C0000E94BE07882321F30E940C0899270895E2
:1015D0000E94AE078091BF0499270895FC011092E4
:1015E0007204862F99272091CF043327285030404A
:1015F00002C0880F991F2A95E2F780937304109216
:101600007504109274044A3211F080E801C080E041
:10161000809376048091B104809377048AE080936C
:1016200078044093790410927A04838180937B0438
:10163000828180937C04818180937D04808180936A
:101640007E0410927F0410928004609381041092B3
:1016500082046CE372E084E00E94180142E754E0E7
:1016600061E188E40E94CF006FE18BE00E94B1004D
:101670006091F6048DE00E94B1006091DF048EE07D
:101680000E94B1001092DA040E9432049927089552
:101690001F93CF931092D0044AE261E08BED94E067
:1016A0000E94EE0A8091E104882309F0B5C068EC3D
:1016B00086E00E94B1006091A6047091A704709327
:1016C000A9046093A8048091DF0486FFB5C080E47C
:1016D0000E94FE009093A9048093A80460E48BE02C
:1016E0000E94B1008091DF04C0E48C278093DF0466
:1016F000682F8EE00E94B1008091CF04893009F4F8
:10170000B6C08A3009F4B5C08B3009F4B4C08C2F50
:101710008093C00426C080E46091A8047091A9045D
:101720000E94FE009093A9048093A8040E943204B2
:101730008091E104882309F086C06091DF0480E491
:1017400068276093DF048091C004813029F08EE027
:101750000E94B1008091C00481508093C00488230E
:1017600041F0813019F38091DF0486FDD4CF80E809
:10177000D3CF60EC86E00E94B10015C08091DF04F9
:101780008C278093DF048091E1048E3209F044C0FD
:101790008091D004882309F03FC08091B2040E9458
:1017A000B1051093D0046091B2048DE00E94B100A5
:1017B0006091DF048EE00E94B10011E01093DA0422
:1017C0008091DB049091DC04A091DD04B091DE04F3
:1017D0008093A8049093A904A093AA04B093AB04A7
:1017E0008091DF04C0E88C278093DF040E943204DC
:1017F0008091E104882311F68BE00E94AB008D30CC
:1018000059F48CEC0E94AB00882309F444C08CECA2
:101810000E94AB00813031F08091E104863169F1A2
:101820000E94A6068091D004853050F5833030F4B4
:101830008F5F8093D00430CF80E84ACF0E940C089D
:101840008091D004F5CF60EC86E00E94B1008091D9
:10185000E1048E3209F78091D0048823E9F6809163
:10186000F6040E94B10581E08093D0049CCF88E00B
:101870004FCF80E14DCF80E24BCF82E890E00FC0A8
:101880000E9481038FE18093E1040E94C4030E94BF
:101890000C08992704C00E94680080E090E0CF9176
:1018A0001F9108958091A8049091A904A091AA0481
:1018B000B091AB048093DB049093DC04A093DD042F
:1018C000B093DE040E94480B882359F48091C90428
:1018D0009091CA04009739F41092B40480E090E02B
:1018E000089599270895AA27BB272091DB043091FA
:1018F000DC044091DD045091DE04820F931FA41F8D
:10190000B51F8093DB049093DC04A093DD04B093B7
:10191000DE040E94480B882321F78091C90490912E
:10192000CA049C01442755278091DB049091DC0474
:10193000A091DD04B091DE04821B930BA40BB50BC8
:101940008093DB049093DC04A093DD04B093DE0469
:101950008093A8049093A904A093AA04B093AB0425
:10196000BBCFCF932091A8043091A9044091AA0441
:101970005091AB048091DB049091DC04A091DD04D4
:10198000B091DE04281739074A075B0709F4D9C06C
:101990001092D00448E261E08BED94E00E94EE0AE0
:1019A0008091E104882309F06AC06CEC86E00E9413
:1019B000B1006091B2048DE00E94B1006091DF043B
:1019C0008EE00E94B10081E08093DA048091DF0410
:1019D00020E482278093DF048091A6049091A704DD
:1019E0009093A9048093A8048091CF04893009F4CE
:1019F000A2C08A3009F4A1C08B3009F4A0C0822FA4
:101A00008093C004C0E812C080E86091A80470917F
:101A1000A9040E94E4009093A9048093A8048091F3
:101A2000C00481508093C0048823E1F10E943204F5
:101A30008091E104882309F079C06091DF046C276C
:101A40006093DF048091C004813029F08EE00E9411
:101A5000B1006091DF0467FFD7CF80ECD6CF8BE079
:101A60000E94AB008D3059F48CEC0E94AB008823AF
:101A700009F467C08CEC0E94AB00813039F0809192
:101A8000E104863109F460C00E94A6068091D0046A
:101A9000853008F05CC0833008F043C08F5F8093CE
:101AA000D00478CF60EC86E00E94B1006091DF0442
:101AB0008EE00E94B1008091DB049091DC04A09143
:101AC000DD04B091DE048093A8049093A904A09350
:101AD000AA04B093AB048091DF04C0E88C27809304
:101AE000DF040E9432048091E104882309F4B7CF17
:101AF0008091DF048C278093DF048091E1048E3293
:101B000009F0BDCF8091D004882309F0B8CF80912F
:101B1000B2040E94B10581E08093D0040E94B60314
:101B2000CACF0E940C088091D004B8CF60EC86E048
:101B30000E94B100E2CF88E063CF80E161CF80E214
:101B40005FCF80E090E00DC082E890E00AC00E9484
:101B500081038FE18093E1040E94C4030E940C087A
:101B60009927CF9108951092BD048091A1048431EA
:101B700018F480E090E008958091D6049091D70405
:101B8000A091D804B091D9048093DB049093DC0435
:101B9000A093DD04B093DE040E94B10C882311F001
:101BA00099270895E091A604F091A7048091BB04C1
:101BB0009091BC04E80FF91F838584FDDACF8091F2
:101BC000EB049091EC04A091ED04B091EE04848FAD
:101BD000958FA68FB78F0E94480B99270895809103
:101BE000A104823108F457C08091A1048231F9F038
:101BF0008091A104843160F41092BD048091BD04F1
:101C0000882379F00E94B30D882359F0992708950D
:101C10008091A104843191F780918304882371F726
:101C2000EBCF60E1862F0E94E4069927089580910A
:101C3000B0048330E9F28091EF048093D504809161
:101C4000EB049091EC040090CF0402C09695879528
:101C50000A94E2F7AA27BB278093EF049093F0043D
:101C6000A093F104B093F2042091EF048091D10489
:101C70009091D204A091D304B091D404820F911D0D
:101C8000A11DB11D8093D1049093D204A093D304DD
:101C9000B093D404ADCF84EB90E008958091A1047B
:101CA000833108F49BC08091D6049091D704A09111
:101CB000D804B091D9048093DB049093DC04A09302
:101CC000DD04B093DE040E94B10C682F882309F074
:101CD0007DC08093B404E091A604F091A7048091A4
:101CE000BB049091BC04E80FF91F90918B0483858D
:101CF00080938B049F3F21F0938781E08093B4040D
:101D00002091890430918A043093C2042093C10445
:101D10008689978990938A04809389048FEF2F3F57
:101D2000380729F0378B268B81E08093B40420910B
:101D30008704309188043093C2042093C104808DBD
:101D4000918D90938804809387048FEF2F3F3807FD
:101D500029F0318F208F81E08093B4042091830497
:101D600030918404409185045091860420938F041F
:101D7000309390044093910450939204848D958DF8
:101D8000A68DB78D8093830490938404A0938504DB
:101D9000B0938604809192048F3F89F02093EB04E6
:101DA0003093EC044093ED045093EE04248F358F70
:101DB000468F578F81E08093B4046093BD04809177
:101DC000B404882329F480E090E0089599270895C9
:101DD0006093B4040E94480B9927089584EB90E027
:101DE00008958091F3049091F404009709F4089504
:101DF000AA27BB272091E2043091E3044091E40438
:101E00005091E504820F931FA41FB51F8093DB043C
:101E10009093DC04A093DD04B093DE040E94B10C27
:101E2000882311F099270895E091A604F091A70462
:101E3000E851FE4F80819181A281B3812091E60417
:101E40003091E7044091E8045091E904820F931F18
:101E5000A41FB51F8093E6049093E704A093E804C1
:101E6000B093E90480839183A283B3830E94480BDB
:101E700099270895EF92FF920F931F93CF93FC0140
:101E8000C62F8091B004823009F4E3C0833009F496
:101E9000E9C0E080F180E0FCD8C08091F5048F7E3D
:101EA0008093F504C701969587958E0D9F1D7C0143
:101EB000002711278091B9049091BA0401978E21CF
:101EC0009F212091A6043091A704820F931F909325
:101ED000C4048093C304C801B7010E94CF027B01F0
:101EE0008C018091B5049091B604A091B704B09193
:101EF000B804E80EF91E0A1F1B1F8091A8049091D8
:101F0000A904A091AA04B091AB04E816F9060A0747
:101F10001B07B1F08091B404882329F00E94520C71
:101F2000882309F0ACC0E092DB04F092DC0400935B
:101F3000DD041093DE040E94B10C882309F09FC0D9
:101F4000CC2389F0CF3F09F4E3C0C13009F434C198
:101F5000E090E604F090E7040091E8041091E904B1
:101F600081E08093B4048091B004823009F4D9C038
:101F7000833009F4F3C04F2D4F70F42EE091A60486
:101F8000F091A7048091B9049091BA04E80FF91F69
:101F90003197A091C304B091C404EA17FB0709F478
:101FA00070C02C912093BF04FD013181CC2321F11D
:101FB0003093C0048091F50484FF02C12F708E2DF0
:101FC000992782959295907F9827807F9827282B34
:101FD0002C93E091C304F091C4042E2D22952F7010
:101FE000842F992782959295907F9827807F9827B4
:101FF000282B21833091C0048091F50484FFDAC03E
:102000002091BF0422952F70832F99278295929556
:10201000907F9827807F9827282B2093BF043295A4
:102020003F703093C0041092C2041092C10420E0AB
:102030008091BF049091C004875F9F4008F021E029
:102040002093DA0480E090E0D7C08091F5048061AD
:1020500027CFE080F18002811381EE0CFF1C001F6E
:10206000111F28CFE080F18002811381EE0CFF1C4C
:10207000001F111FEE0CFF1C001F111F1BCF992703
:10208000BBC090819093BF04CC2351F08091F504A4
:1020900084FDA3C02E2D20830E94520C882379F743
:1020A0008091A8049091A904A091AA04B091AB04D6
:1020B0000196A11DB11D8093DB049093DC04A093D5
:1020C000DD04B093DE040E94B10C8823C1F6E091D8
:1020D000A604F091A7043081CC2309F48DCF30936E
:1020E000C0048091F50484FF84C03E2D32953F707A
:1020F0008F2D992782959295907F9827807F98279A
:10210000382B308381E08093B4043091C00474CFC5
:10211000FFEFEF2EFFEFFF2EFFEF0F2FFFEF1F2F31
:102120001FCFE091C304F091C4048081918190930A
:10213000C0048093BF041092C2041092C10420E036
:10214000875F9F4F08F021E02093DA04CC2309F445
:1021500079CFF182E08280E090E04EC0E091C3044C
:10216000F091C40480819181A281B3818093BF04E6
:102170009093C004A093C104B093C204212F2F7088
:102180009091C204892F807F122F182B892F8F7076
:102190008093C20490E08F3008F091E09093DA04CD
:1021A000CC2309F44FCFE082F1820283138380E0D5
:1021B00090E022C03F7035CFEE24FF248701D0CEBF
:1021C000EC92E091C304F091C4048091C004807F3C
:1021D000842B81833091C0040FCF292F2F708E2D37
:1021E000992782959295907F9827807F9827282B12
:1021F00052CF307F3F2985CFCF911F910F91FF9014
:10220000EF9008958091CB049091CC04A091CD04DF
:10221000B091CE040097A105B10509F472C0809376
:10222000E6049093E704A093E804B093E904609176
:10223000D504262F33274427552780918304909176
:102240008404A0918504B091860482179307A407A3
:10225000B507E0F160E086EE94E00E943A0F882333
:1022600009F061C08091DA04882309F04AC08091A6
:10227000BF049091C004A091C104B091C2048093A6
:10228000E6049093E704A093E804B093E904609116
:10229000D504262F33274427552780918304909116
:1022A0008404A0918504B0918604821B930BA40B37
:1022B000B50B8093830490938404A0938504B0931A
:1022C000860482179307A407B50720F66150809112
:1022D000830486238093BE040E94D4038091DB0490
:1022E0009091DC04A091DD04B091DE04809383041E
:1022F00090938404A0938504B093860480E090E0DA
:1023000008958FEF8093BE048FEF9FEFAFEFBFEF85
:102310008093830490938404A0938504B0938604EF
:1023200080E090E0089599270895EF92FF920F932F
:102330001F93CF93DF932091E6043091E7044091FF
:10234000E8045091E9048091A2049091A304A09123
:10235000A404B091A50482179307A407B50708F455
:1023600023C12F5F3F4F4F4F5F4F2093E6043093C1
:10237000E7044093E8045093E90460E086EE94E0BB
:102380000E943A0F882309F00DC18091BF049091FB
:10239000C004A091C104B091C2040097A105B10589
:1023A00009F4FBC08091B004813029F24091A60469
:1023B0005091A704823009F452C06091B904709121
:1023C000BA047695679576956795615070409B0144
:1023D0007093C0046093BF047093C2046093C104FF
:1023E0000FEF1FEFDA01FA013496AF01F093C40446
:1023F000E093C304ED018C819D81892B69F4828176
:10240000882351F48381E82EFF248FE0E822FF2403
:10241000E114F10409F48CC0C90101979C01909367
:10242000C0048093BF04892BE9F6CB01AA27BB2700
:102430002091E6043091E7044091E8045091E904CA
:10244000822B932BA42BB52B9C01AD012093E6048A
:102450003093E7044093E8045093E90474CF20914B
:10246000B9043091BA043695279521503040C901FE
:102470003093C0042093BF043093C2042093C1045E
:10248000FA014E5F5F4F6281738161157105E9F05A
:10249000215030403093C0042093BF0421153105F2
:1024A00079F75093C4044093C3049C0144275527F3
:1024B0008091E6049091E704A091E804B091E904CA
:1024C000282B392B4A2B5B2BC1CF5093C40440934C
:1024D000C3048FEF9FEF938382838091C104909117
:1024E000C2049C01442755278091E6049091E7049B
:1024F000A091E804B091E904282B392B4A2B5B2BDF
:102500008091BF049091C0040197AA27BB27281B84
:10251000390B4A0B5B0B2093E6043093E70440939E
:10252000E8045093E90481E08093B404CB013EC0F9
:102530001D830C830283E091C304F091C404838162
:102540008F6083838091C1049091C2049C014427D1
:1025500055278091E6049091E704A091E804B0919A
:10256000E904282B392B4A2B5B2B8091BF049091D7
:10257000C0040197AA27BB27281B390B4A0B5B0B0A
:102580002093E6043093E7044093E8045093E90471
:1025900081E08093B404C70109C06FEF86EE94E038
:1025A0000E943A0F992702C081EB90E0DF91CF9112
:1025B0001F910F91FF90EF9008950E94951188232D
:1025C00021F0813B11F099270895882361F0109242
:1025D000E6041092E7041092E8041092E9040E94C5
:1025E0009511882381F70E94520C882361F780910E
:1025F000E6049091E704A091E804B091E904809387
:10260000CB049093CC04A093CD04B093CE048091DE
:10261000D6049091D704A091D804B091D9048093A6
:10262000DB049093DC04A093DD04B093DE040E94ED
:10263000B10C882341F6E091A604F091A7048091A3
:10264000BB049091BC04E80FF91F81E0848F809156
:10265000CB049091CC04938F828F8091CD04909184
:10266000CE04958B848B0E94480B992708950E9475
:102670009511813B11F0992708951092E60410926C
:10268000E7041092E8041092E9040E94951199273A
:102690000895EF92FF920F931F93CF93DF93809152
:1026A000A104833040F40E944408882311F0992744
:1026B000D4C10E94BE070E9481031092C3041092ED
:1026C000DB041092DC041092DD041092DE040E9400
:1026D000B10C882309F05BC18091C3048823B1F059
:1026E000C091A604D091A70490E0FE01EE53FE4FE6
:1026F0009E0180817096882309F063C1905F205FFE
:102700003F4F9034B1F782E990E0A7C1C091A60491
:10271000D091A704888199278D7F9070893E91057B
:1027200019F78091DB049091DC04A091DD04B09155
:10273000DE048093E2049093E304A093E404B09356
:10274000E5040E94B10C882309F0B1CFC091A60422
:10275000D091A704888199278D7F9070893E91053B
:1027600009F076C19D85392F26E0822F96FD69C13B
:10277000990F8150282FD1F79093B0048093B30420
:1027800081E08093D5048E899F899093CA048093B9
:10279000C904892B11F5ECA0FDA00EA11FA1E092A8
:1027A000E604F092E7040093E8041093E90460E083
:1027B000E61660E0F60661E0060760E0160728F01E
:1027C0008091C304882309F046C18091E60490916A
:1027D000E7049093CA048093C9048B899C89892B50
:1027E00009F01AC188A199A1AAA1BBA18093CB0429
:1027F0009093CC04A093CD04B093CE048091B904FF
:102800009091BA0496958795929582958F708927B5
:102810009F7089278150082F1127CE0141960E9471
:10282000C302080F191F8091CF049927059702C092
:10283000169507958A95E2F7980144275527209326
:10284000EF043093F0044093F1045093F204C091EC
:10285000A604D091A704EE85FF85F093BC04E09315
:10286000BB046091C9047091CA04CF01860F971F01
:102870007C0100271127E20EF31E041F151FE092B2
:10288000E604F092E7040093E8041093E9048889D1
:10289000823008F4BCC0CB01AA27BB27E80EF91E82
:1028A0000A1F1B1FE092E604F092E7040093E8047D
:1028B0001093E9048091CB049091CC04A091CD04B5
:1028C000B091CE048E199F09A00BB10B0090B304F8
:1028D00004C0B695A795979587950A94D2F78093EB
:1028E000A2049093A304A093A404B093A504855FCD
:1028F0009F4FA040B04008F074C01092F4041092B2
:10290000F3048091A2049091A304855F9F4008F096
:1029100096C091E09093B004309709F44AC0211515
:1029200031054105510509F444C088898230D0F54C
:102930008B858823F1F58C858230D8F1CF01AA27C9
:10294000BB272091DB043091DC044091DD045091E1
:10295000DE04820F931FA41FB51F8093B5049093CC
:10296000B604A093B704B093B804E20EF31E041F9C
:10297000151FE092D104F092D2040093D304109377
:10298000D40460E183E00E94E406992766C00E94B7
:10299000A6060E94BE070E94B10C882309F49CCEB3
:1029A00099275BC08091C9049091CA04892B09F0D2
:1029B000BFCF8091C304882309F681E08093C304CC
:1029C0007ECEC9018A539E4F0E94AB02DC01CB012F
:1029D0008093DB049093DC04A093DD04B093DE04C9
:1029E000A0CE88A999A99093F4048093F3042CA510
:1029F0003DA54EA55FA52093EF043093F0044093CE
:102A0000F1045093F20483E08093B00485CF1092D8
:102A1000CA041092C9044ECFCE0143960E94C3024D
:102A2000AA27BB278093CB049093CC04A093CD041A
:102A3000B093CE04C091A604D091A704DFCE92E05B
:102A400069CF2093B3049093B0043093D5049BCE08
:102A500081EA90E002C082EA90E0DF91CF911F917D
:102A60000F91FF90EF900895AF92BF92CF92DF92B7
:102A7000EF92FF920F931F93CF93DF938091A10466
:102A8000803130F40E944913882311F0992772C3D2
:102A900060E1862F0E94E4068823C1F78093BD047D
:102AA00023E834E0909183049C3509F44DC19F32B2
:102AB00009F44AC1809184048A3309F418C163E897
:102AC00074E03093AD042093AC04EB018881853E23
:102AD00009F466C0E090CB04F090CC040091CD04E2
:102AE0001091CE04E114F1040105110509F468C048
:102AF0008091D5048093BE04A801970122503040F4
:102B0000404050400090B30404C0220F331F441FC4
:102B1000551F0A94D2F78091D1049091D204A091CC
:102B2000D304B091D404280F391F4A1F5B1F209390
:102B3000D6043093D7044093D8045093D90480919D
:102B4000BE04882309F059C0E114F1040105110500
:102B500009F4BBC160E08BEC94E00E943A0F88233B
:102B600009F094CF8091DA04882309F0AEC18091F6
:102B7000BF049091C004A091C104B091C20480939D
:102B8000CB049093CC04A093CD04B093CE04609179
:102B9000AC047091AD04EB018881853E09F09ACFB9
:102BA00085E08883E090CB04F090CC040091CD04C4
:102BB0001091CE04E114F1040105110509F098CF3C
:102BC0008091EF048093BE042091D1043091D2040F
:102BD0004091D3045091D404281B31094109510973
:102BE0002093D6043093D7044093D8045093D9044B
:102BF0008091BE04882309F4A7CF2093DB0430938F
:102C0000DC044093DD045093DE040E94B10C882361
:102C100009F03CCF1092BC041092BB04E090B904C0
:102C2000F090BA04E114F104A9F468C06091AC0416
:102C30007091AD04DB012C91281761F12A3251F11A
:102C4000C80180969093BC048093BB048E159F05A9
:102C500008F054C04091A6045091A7040091BB0411
:102C60001091BC04400F511F5093C4044093C304FF
:102C7000FA018081882309F428C1853E09F3853053
:102C8000A9F685EE6091AC047091AD04DB012C9146
:102C90002817A1F61092C2042091C204322FC32F2C
:102CA000DD27FE01E40FF51FDB01A20FB11DE0815E
:102CB000AC91EA1791F0AA2309F4FBC0AC3509F4F2
:102CC000F8C0AF3209F4F5C0AE3209F0D0C02830F8
:102CD00019F0E03209F0CBC037E03F5F822F8F5F01
:102CE0008093C2043B3008F0C1C0282FD8CF933462
:102CF00008F4E5CEB9016D5F7F4F29C08091D604FD
:102D00009091D704A091D804B091D9040196A11D47
:102D1000B11D9C01AD018093D6049093D704A0937C
:102D2000D804B093D9048091BE0481508093BE042E
:102D3000882309F062CFE090CB04F090CC0400919E
:102D4000CD041091CE0400CFB9016F5F7F4F709317
:102D5000AD046093AC042091B004233009F47DC02D
:102D600080E090E0A0E0B0E07C018D018093CB0496
:102D70009093CC04A093CD04B093CE04DB018C914E
:102D8000882309F0A2CEFFEFAF2EFFEFBF2EFFEF9B
:102D9000CF2EFFEFDF2E233009F4BAC182E08093FB
:102DA000CB042091EF048091D1049091D204A091A2
:102DB000D304B091D404821B9109A109B109809375
:102DC000D1049093D204A093D304B093D4048091FF
:102DD000EF049091F0040090CF0402C0880F991F77
:102DE0000A94E2F75C01CC24DD24A092EB04B092BB
:102DF000EC04C092ED04D092EE048091D5049927A2
:102E0000AA27BB278093EF049093F004A093F104CA
:102E1000B093F20480E88093D504E090CB04F09066
:102E2000CC040091CD041091CE04E092E604F0921F
:102E3000E7040093E8041093E9041092C50410928B
:102E4000C6041092C7041092C8041092BE0482E116
:102E50008093A10481E490E08DC18091EF04909172
:102E6000F004A091F104B091F2047ECF282F3B3002
:102E700020F0FA01838583FF6DC0FB01E20FF11D95
:102E800080818A3209F0DCCEEA018B8583FDD8CEC1
:102E90008181882309F4A0C08F3FC9F181508183CB
:102EA000E090B904F090BA040091BB041091BC0406
:102EB000C7CEC40FD51F88818032C9F63830C8F616
:102EC000EA018885803299F6D4CF90E06091AC0415
:102ED0007091AD04DB018C918823B1F08A32A1F0AE
:102EE000A0E0B0E0A60FB71F8C918C3581F18F3236
:102EF00071F19F5FA92FBB27FB01EA0FFB1FE08148
:102F0000EE2311F0EA3271F782E490E033C1A09031
:102F1000EB04B090EC04C090ED04D090EE04A1144A
:102F2000B104C104D10409F457C08091EE0487FDB7
:102F300039C00894A108B108C108D108A092EB04D7
:102F4000B092EC04C092ED04D092EE0479CE83EB03
:102F500090E010C11092DA04EA018A8D9B8D7C0109
:102F600000271127E092CB04F092CC040093CD040B
:102F70001093CE048091B004833039F1DB01A20FAD
:102F8000B11D8C91882309F48AC08091DA048823CA
:102F900009F085C0BD016F5F7F4F7093AD046093F2
:102FA000AC0493CD0E946D00A090EB04B090EC04B3
:102FB000C090ED04D090EE04E090B904F090BA0413
:102FC0000091BB041091BC04B4CF8C899D8990936F
:102FD000CE048093CD04D2CF20E02093C0041AC049
:102FE0006091AC047091AD04EB018881853041F4AF
:102FF00085EE88836091AC047091AD049091C0041B
:103000009F5F9093C0042F5F2B30A8F54091C304BD
:103010005091C404A22FBB27FD01E40FF51F80814E
:10302000803289F3283091F08091C004680F711DBF
:10303000A40FB51F8C91DB018C939091C004992350
:1030400079F26091AC047091AD04DACF8091C00444
:10305000680F711D8EE2FB0180838091C0048F5F39
:103060008093C0046091AC047091AD044091C3049E
:103070005091C404D9CF8091C004680F711DFB0129
:10308000108281E08093DA046091AC047091AD0409
:103090004091C3045091C4042091C2045DCFE092DA
:1030A000E604F092E7040093E8041093E904109218
:1030B000C5041092C6041092C7041092C80410925E
:1030C000BE04FA01838584FD38C0EA01AC8CBD8C56
:1030D000CE8CDF8CE114F1040105110529F58FEF89
:1030E0008093BE04E092EB04F092EC040093ED04B4
:1030F0001093EE0464E180E10E94E406882309F065
:10310000C5CC8091DA04882361F083E490E032C07A
:10311000A092EB04B092EC04C092ED04D092EE04C5
:1031200084CE80E090E026C0A092EB04B092EC0444
:10313000C092ED04D092EE04DDCFEFEFAE2EEFEFB4
:10314000BE2EEFEFCE2EEFEFDE2EA092EB04B0926C
:10315000EC04C092ED04D092EE0463E180E10E94A1
:10316000E406882309F092CC8091DA04882369F67A
:1031700081E490E0DF91CF911F910F91FF90EF904C
:10318000DF90CF90BF90AF9008958091A1048331DC
:1031900030F40E943415882311F09927089560E1D6
:1031A000862F0E94E4068823C1F78091D60490916F
:1031B000D704A091D804B091D9048093DB049093F4
:1031C000DC04A093DD04B093DE040E94B10C8823DC
:1031D00021F7E091A604F091A7048091BB0490919F
:1031E000BC04E80FF91F85EE80830E94480B8823FA
:1031F000A1F68091CB049091CC04A091CD04B09124
:10320000CE048093BF049093C004A093C104B093F4
:10321000C2040097A105B105D9F10197A109B1092F
:103220008093CB049093CC04A093CD04B093CE04B0
:103230001092E6041092E7041092E8041092E90458
:1032400061E08FEB94E00E943A0F882309F0A5CF4C
:103250008091E6049091E704A091E804B091E9041C
:103260000196A11DB11D8093E6049093E704A093FD
:10327000E804B093E9048091DA04882309F30E94FA
:10328000520C882309F089CF0E94F10E99270895E6
:1032900080E090E00895CF93DF930E943415482F8B
:1032A000882309F4BAC0823421F08093BE049927A0
:1032B000FAC18091B9049091BA0480972091BB041F
:1032C0003091BC042817390708F4C8C0A091CB047A
:1032D000B091CC04C091CD04D091CE041097C1051B
:1032E000D10509F4BEC02091D6048091D104281BD9
:1032F0009091D504915029239F5F2093BE04809123
:10330000BB04882341F03327892F99270197281779
:10331000390709F090C060E08BEC94E00E943A0F0E
:10332000882309F099C08091DA04882309F47BC0CE
:103330008091CB049091CC04A091CD04B091CE04A7
:103340008093E6049093E704A093E804B093E90423
:103350000E943713882309F07FC062E08BEC94E071
:103360000E943A0F882309F077C00E94520C8823EC
:1033700009F072C00E94810320E030E009C0E091B2
:10338000A604F091A704E20FF31F10822F5F3F4FB6
:103390008091B9049091BA042817390781F71092E7
:1033A000BE040E94D4038091BB048823A1F4109230
:1033B000BC041092BB048091DB049091DC04A091CA
:1033C000DD04B091DE048093D6049093D704A093DB
:1033D000D804B093D9048091D5048093BF04882386
:1033E00009F452C10E94480B8823B1F58091DB0497
:1033F0009091DC04A091DD04B091DE040196A11D42
:10340000B11D8093DB049093DC04A093DD04B093A2
:10341000DE048091BF048150E0CF8093BE040E94FF
:10342000C5188823C9F4A091CB04B091CC04C091F5
:10343000CD04D091CE04A093E604B093E704C093EA
:10344000E804D093E9040E943713882329F40E94EA
:10345000520C882309F456C0992725C14093BE0415
:10346000E2CF4093BE048091BB04882321F7809172
:10347000D6049091D704A091D804B091D9040197B3
:10348000A109B1098093D6049093D704A093D804DE
:10349000B093D9048093DB049093DC04A093DD0403
:1034A000B093DE040E94B10C8823B1F61092BC04E4
:1034B0001092BB046091B9047091BA046115710552
:1034C00009F476C04091A6045091A7040AC0C9012E
:1034D00080969093BC048093BB048617970708F0EE
:1034E00067C02091BB043091BC04FA01E20FF31FC6
:1034F0008081853E61F7838599278E709070892B36
:1035000031F791CF86E00E94AB0099278F7B9070B6
:103510008038910509F04FC08091E6049091E7044E
:10352000A091E804B091E9048093CB049093CC047B
:10353000A093CD04B093CE048FEF9FEFAFEFBFEF1A
:103540008093E6049093E704A093E804B093E90421
:103550000E94F10E882309F07FCF8091D6049091CC
:10356000D704A091D804B091D9048093DB04909340
:10357000DC04A093DD04B093DE040E94B10C282F7C
:103580008823E1F4C091A604D091A7048091BB04E4
:103590009091BC04C80FD91F822FFE0105C090E294
:1035A00091938F5F803268F48B30C8F390E0F8CF4E
:1035B00082EB90E078C081E190E075C0822F99277E
:1035C00072C081E290E3998F888F81E08C8F20E038
:1035D000A091AC04B091AD0412C0FE01E20FF11D48
:1035E0008C9180832F5F8091AC049091AD04019603
:1035F000DC019093AD048093AC042B3060F48C918B
:10360000882349F08E3249F728E01196B093AD0433
:10361000A093AC04E2CF8091CB049091CC049B8F1B
:103620008A8F8091CD049091CE049D8B8C8B0E94CB
:10363000480B282F882311F68091CB049091CC045D
:10364000A091CD04B091CE048093E6049093E7045A
:10365000A093E804B093E9041092EB041092EC04F8
:103660001092ED041092EE041092C5041092C6045C
:103670001092C7041092C8042093BE0464E180E154
:103680000E94E40699270FC08FEF9FEFAFEFBFEFC7
:103690008093E6049093E704A093E804B093E904D0
:1036A0000E94F10EBECEDF91CF9108952091A1042A
:1036B000243101F58091CB049091CC04A091CD04EC
:1036C000B091CE048093E6049093E704A093E804BD
:1036D000B093E9041092C5041092C6041092C70476
:1036E0001092C8041092BE0465E1822F0E94E40685
:1036F0009927089584EB90E008958091A104853185
:1037000021F00E94561B882379F560918304709103
:10371000840480918504909186042091EB0430917B
:10372000EC044091ED045091EE042617370748074A
:10373000590710F4CA01B9016093C5047093C60417
:103740008093C7049093C8040E94CF02DC01CB0190
:103750008093830490938404A0938504B09386049B
:103760000E94021199270895992708958091A10434
:10377000853129F00E94561B882309F0CCC0709136
:1037800083047093AC0410928304772309F4C0C0BF
:103790008091B9049091BA0401972091C5043091A9
:1037A000C604282339230196821B930B272F332726
:1037B0008217930708F4B4C0272F622F8091C504A5
:1037C0009091C604A091C704B091C804820F911DC6
:1037D000A11DB11D2091EB043091EC044091ED044A
:1037E0005091EE0482179307A407B50708F495C01B
:1037F0002091EB048091C504281B2093BF04222351
:1038000009F486C00E94D4030E94B10C882309F0F9
:1038100082C04091B9045091BA0441505040E091A7
:10382000C504F091C604E423F5234F5F5F4F8091F8
:10383000A6049091A704E80FF91FF093C404E09345
:10384000C3042091BF048091C5049091C604A09147
:10385000C704B091C804820F911DA11DB11D8093B2
:10386000C5049093C604A093C704B093C804709194
:10387000AC04721B7093AC0480918304A82FBB2707
:10388000AC57BB4F820F8093830481918D93F0934B
:10389000C404E093C304622F6150262F6093BF04D9
:1038A000662399F7415050408091C5049091C60419
:1038B00084239523892B09F068CF8091BE048F5F04
:1038C0008093BE049091D504891708F45ECF86EEEC
:1038D00094E00E943A0F8823F1F42091DA04222325
:1038E00019F58091BF049091C004A091C104B091DA
:1038F000C2048093E6049093E704A093E804B09395
:10390000E9042093BE047091AC04772309F040CF02
:1039100080E090E00895992708956093BF0472CFE6
:103920002091C504219549CF8FEF8093BE048091EB
:10393000C5049091C604A091C704B091C8048093B7
:10394000EB049093EC04A093ED04B093EE04E0CF6D
:103950008091A104853129F00E94561B882309F02B
:1039600031C1609183046093AC04662329F4809193
:10397000BD04882309F024C110928304662309F44E
:103980001CC18091BE048F3F09F073C08091CB04AD
:103990009091CC04A091CD04B091CE040097A105E4
:1039A000B10509F415C18091E6049091E704A09156
:1039B000E804B091E9048093C5049093C604A093F1
:1039C000C704B093C8040E943713882309F0FAC0D3
:1039D00062E085EC94E00E943A0F882309F0F2C07F
:1039E0000E94520C882309F0EDC08091E60490916A
:1039F000E704A091E804B091E9048093C504909392
:103A0000C604A093C704B093C8048FEF9FEFAFEF35
:103A1000BFEF8093E6049093E704A093E804B0938B
:103A2000E9040E94F10E282F8091C5049091C604EC
:103A3000A091C704B091C8048093E6049093E70472
:103A4000A093E804B093E904222309F0E8C0809130
:103A5000EB049091EC04A091ED04B091EE048093FE
:103A6000C5049093C604A093C704B093C8042093E0
:103A7000BE040E94D4030E94B10C882309F0A2C0A6
:103A80004091B9045091BA04CA010197A091C504AC
:103A9000B091C6048A239B239A01281B390B60919D
:103AA000AC04862F99272817390708F48DC0262FD4
:103AB0002093BF04FA013197EA23FB238091A604E7
:103AC0009091A704E80FF91FF093C404E093C30496
:103AD0008091C5049091C604A091C704B091C80418
:103AE000820F911DA11DB11D8093C5049093C60442
:103AF000A093C704B093C804621B6093AC04809188
:103B00008304A82FBB27AC57BB4F820F809383043D
:103B10008D9180838091C3049091C4040196FC012F
:103B20009093C4048093C3048091BF048150809318
:103B3000BF04882369F70E94480B682F882309F087
:103B40006BC08091EB049091EC04A091ED04B091D6
:103B5000EE042091C5043091C6044091C7045091F1
:103B6000C80482179307A407B50758F42093EB0401
:103B70003093EC044093ED045093EE0481E0809385
:103B8000BD042091B9043091BA0421503040809195
:103B9000C5049091C60482239323892B49F4809114
:103BA000BE048F5F8093BE049091D504891798F46A
:103BB0008091AC04882309F0E4CE80E090E0089581
:103BC0000E94B30D992708952091C504219570CFC7
:103BD0000E94DD1207CF86EE94E00E943A0F882300
:103BE00089F72091DA04222321F08FEF8093BE041D
:103BF000DFCF8091BF049091C004A091C104B09127
:103C0000C2048093E6049093E704A093E804B09381
:103C1000E9042093BE04CCCF862F99270895822FE4
:103C200099270895FB01DC0101900D920020E1F736
:103C30000895CF93DF93CDB7DEB7E5E0F0E0EC0F6A
:103C4000FD1F81919191AF01BC018091F904909188
:103C5000FA040E946B1EDF91CF9108956091F904E0
:103C60007091FA040E94472108950F931F93CF93F8
:103C7000DF93EC0100E010E0E091F904F091FA0428
:103C8000838181FD03C08FEF9FEF20C0899188233E
:103C900071F0E091F904F091FA0420853185BF01BB
:103CA000F9010995892B91F30FEF1FEFEFCFE09109
:103CB000F904F091FA0420853185BF018AE0F90109
:103CC0000995892B11F00FEF1FEFC801DF91CF91FC
:103CD0001F910F9108952F923F924F925F926F9292
:103CE0007F928F929F92AF92BF92CF92DF92EF928C
:103CF000FF920F931F93CF93DF93CDB7DEB76297F9
:103D00000FB6F894DEBF0FBECDBFEE24FF248701AF
:103D10001C017E876D872A01CC24DD24FC01D7821B
:103D2000C682838181FD68C28FEF9FEF78C28D8547
:103D30009E8501969E878D87C0FE4BC28F858053DE
:103D40008A30D0F49F85903339F4662029F4C3FC7F
:103D500003C0E0E0F1E08DC08AE0689E602C112491
:103D6000FF856F0E20ED620E67FE02C05FE7652ED5
:103D7000C3FC42C2762C40C2C3FE04C0662011F4CC
:103D800041E0642EEF858E2F992787FD9095883628
:103D900091058CF5853691050CF06EC08335910543
:103DA00009F493C084359105CCF48B32910509F464
:103DB00049C08C3291054CF48032910509F446C01B
:103DC0008332910509F44AC0FEC18D32910509F490
:103DD00040C08E32910509F444C0F5C18336910587
:103DE00009F450C0843691050CF08AC088359105DD
:103DF00009F4BCC0E8C18037910509F4B1C081372E
:103E0000910584F48C36910591F18D3691052CF451
:103E10008936910509F474C0D6C18F36910509F42D
:103E20009CC0D1C18537910509F4A2C086379105A0
:103E300024F48337910571F1C6C18837910509F4DF
:103E400095C0C1C180E190E0C82AD92AE0E2F0E043
:103E500010C080E890E0C82AD92ACEC1E0E4F0E0A2
:103E600008C088E090E0C82AD92A6624C5C1E4E0E9
:103E7000F0E0CE2ADF2AC0C13FE3E32E7A94F3E6D6
:103E8000FF873CC1F20182E090E0480E591EE080BD
:103E90007A9434C1F20182E090E0480E591EA0816C
:103EA000B1817D01C3FE09C0862D992787FD9095BC
:103EB000BC01CD010E943C211FC0FD0101900020EA
:103EC000E9F73197EA1BE88B18C0F20182E090E035
:103ED000480E591E0190F081E02D7F01C3FE09C0FC
:103EE000862D992787FD9095BC01CF010E94312135
:103EF00003C0CF010E942821888B9889791AFEC0BF
:103F0000C2FE0AC0F20184E090E0480E591E2081F2
:103F10003181428153810CC0F20182E090E0480E71
:103F2000591E808191819C01442737FD4095542F73
:103F300079018A0157FF0CC0E2E0F0E0CE2ADF2AC7
:103F400010950095F094E094E11CF11C011D111DE9
:103F50008FEB9FEFC822D92227C098E0988B08C02A
:103F6000E0E4F0E0CE2ADF2AF8E7FF8720E1288BA3
:103F7000C2FE0AC0F20184E090E0480E591E208182
:103F80003181428153810AC0F20182E090E0480E03
:103F9000591E808191819C014427552779018A010E
:103FA000EFECFFEFCE22DF22CE0101969A8B898BB8
:103FB0009889892E9924AA24BB24C801B701A50198
:103FC00094010E947421DC01CB01E989FA89808384
:103FD0008A3024F0FF858F0F815201C0805DE9890E
:103FE000FA898193FA8BE98BC801B701A501940185
:103FF0000E94742179018A0121153105410551057D
:10400000E1F6E98881E090E08C0F9D1FE81AC60177
:1040100082739070892B09F07A94C6FE0DC0872DAB
:10402000992787FD9095E889E03121F42EEF722ED3
:10403000780E02C0782E7A94C3FE0FC0262D332747
:1040400027FD30958E2D9927821793072CF087EF47
:104050009FEFC822D92201C06E18C3FE02C0761895
:1040600001C07E18C60180789170892B51F4872D8C
:104070007A94181634F4B10180E290E00E9447214E
:10408000F6CFC1FE04C0B1018DE290E00BC0C4FECA
:1040900004C0B1018BE290E005C0C5FE05C0B101CE
:1040A00080E290E00E944721C6FE10C0B10180E38B
:1040B00090E00E9447219889903141F4B101EF8549
:1040C0008E2F992787FD90950E944721D0FE0AC028
:1040D000872D7A94181634F4B10180E390E00E94A1
:1040E0004721F6CFC3FE0AC0862D6A94181634F411
:1040F000B10180E390E00E944721F6CF90E8B92E0D
:10410000BC2051F4872D7A94181634F4B10180E262
:1041100090E00E944721F6CFFF85F33641F48E2DC3
:10412000B101992787FD90950E94472140C02F85B6
:104130002337B1F488898150888B8F3FC1F1F70113
:1041400080810894E11CF11CB101992787FD9095AD
:104150000E94472198899150988B9F3F81F727C0F3
:10416000EF85E33579F4F889F150F88BFF3FF9F0EA
:10417000F7018491B10199270E9447210894E11C1D
:10418000F11CF1CF6E010894C11CD11C89899A8958
:104190008C159D0561F0E989FA898291FA8BE98B8A
:1041A000B101992787FD90950E944721EFCFBB2051
:1041B00069F0872D7A9418164CF4B10180E290E0F2
:1041C0000E944721F6CFB1010E944721CC24DD2473
:1041D00013C09F85953241F481E0C82ED12C66240E
:1041E000762CEAE0E88B08C0B101FF858F2F992774
:1041F00087FD90950E944721F101838183FF04C0D0
:10420000ED85FE85F49103C0ED85FE85F081FF8785
:104210002F85222309F08BCDF1018681978162964B
:104220000FB6F894DEBF0FBECDBFDF91CF911F91C7
:104230000F91FF90EF90DF90CF90BF90AF909F9045
:104240008F907F906F905F904F903F902F90089548
:10425000FC0105900020E9F7809590958E0F9F1F37
:104260000895FC010590615070400110D8F78095C9
:1042700090958E0F9F1F0895FC0161507040019032
:104280000110D8F7809590958E0F9F1F08950F937A
:104290001F93CF93DF938C01EB018B81992781FFD3
:1042A0001CC082FF0DC02E813F818C819D8128170B
:1042B000390764F4E881F9810193F983E88306C042
:1042C000E885F985802F0995892B39F48E819F81A6
:1042D00001969F838E83C80102C08FEF9FEFDF910D
:1042E000CF911F910F910895A1E21A2EAA1BBB1B1B
:1042F000FD010DC0AA1FBB1FEE1FFF1FA217B307B2
:10430000E407F50720F0A21BB30BE40BF50B661FC7
:10431000771F881F991F1A9469F76095709580958B
:0C43200090959B01AC01BD01CF010895F8
:10432C000000000200000000440100000000457283
:10433C00726F723A20253032580A005374617274CD
:10434C00004C6973742066696C652025730A002023
:10435C00206D617463682066696C65202530336458
:10436C00233A2025730A00B4D3CEC4BCFED6D0B6F3
:10437C00C1B3F6B5C4C7B02564B8F6D7D6B7FBCA77
:10438C00C73A0A005761697420556469736B00520F
:10439C0065616479203F004F70656E002F433531A5
:1043AC002F43483337344846542E43002F4335317E
:1043BC002F43483337342A00437265617465002FEC
:1043CC004E455746494C452E545854005772697403
:1043DC0065004E6F74653A200D0AD5E2B8F6B3CC81
:1043EC00D0F2CAC7D2D4D7D6BDDACEAAB5A5CEBB29
:1043FC00BDF8D0D055C5CCCEC4BCFEB6C1D0B42C03
:10440C00B5A5C6ACBBFAD6BBD0E8D2AAD3D0363051
:10441C0030D7D6BDDAB5C452414D0D0A002F2A0053
:10442C00436C6F73650054616B65206F757400CEBF
:10443C00C4BCFED2D1BEADBDE1CAF8002301100050
:10444C00010000000201000000000000A3000000B9
:10445C000100040021FF00000000000055534243FE
:10446C0000800600010000120000050200000000A0
:10447C00008006000200000400A0060029000009CC
:10448C00000009000000000000A1FE000000000177
:02449C0000001E
:00000001FF
