:10000000022A1DE549C394105007120CF8EF600155
:10001000221228DEEF600122C20A7871E6645C6079
:1000200004E6B42F05752D7280177872E6643A6085
:10003000030200D418E6C3944350030200D4752D84
:1000400074E550B40310900211E0FCA3E0FDA3E0BE
:10005000FEA3E0FF8005E4FFFEFDFC8F418E408D96
:100060003F8C3EA82DE6706F74FFF54DF54CF54BB7
:10007000F54AE5506403603F754102900214E0FBCD
:10008000C3E5479BF547E5469400F546E5459400F2
:10009000F545E5449400F544900213A3E025E0FE05
:1000A000E4F54D8E4CF54BF54AAF22FCFDFE900277
:1000B0001112147F752280854134854033853F328B
:1000C000853E31E4F555F554F553F552F53975494A
:1000D000127F4122752D71A82DE6B4E5027605E563
:1000E00041700CE53E7008E53F7004E540602D85E9
:1000F0002239E54124FEFFE54034FFFEE53F34FFB1
:10010000FDE53E34FFFCA830121447EF2547FFEE13
:100110003546FEED3545FDEC3544801A900214E07D
:10012000F539CBC3E5479BFFE5469400FEE54594D2
:1001300000FDE5449400FC90020D12147FE5397037
:10014000030203EA1218F9EF600122E4F542F543D5
:10015000C3E542940240030203C674002543F52F11
:1001600074003542F52E852F82F583E0FF7003027F
:100170000417EF64E570030203B8BF05027FE5A82A
:100180002DE6FE6F6008EE642A60030203B8E4F512
:100190003DFFEFC3940B5078E52F2FF582E4352E09
:1001A000F583E0FEAD3DE52D2DF8EE66605DAD3DDD
:1001B000E52D2DF8E66015AD3DE52D2DF8E6645CE6
:1001C000600AAD3DE52D2DF8E6B42F1FEE642070DA
:1001D0003FEFC394085010E52F2408F582E4352E34
:1001E000F583E0642070297F0B8025AE3DE52D2E40
:1001F000F8E6B42E1BE53D6408600EE52F2FF5826E
:10020000E4352EF583E0B420077F070F053D80829B
:10021000EFC3940B50030202F9E52F240BF582E49F
:10022000352EF583E030E3030202F9C20BE52F24FB
:100230001AFFE4352EFE122A34E48F418E40F53F3A
:10024000F53EE550B40310E52F2414FFE4352EFEEF
:10025000122A348E3E8F3FAF3DE52D2FF8E6600623
:10026000200B030202EF854134854033853F328500
:100270003E31E4F555F554F553F552F539E52F24A3
:100280000BF582E4352EF583E030E41F74FFF54D65
:10029000F54CF54BF54A7D137F101228E2EF600113
:1002A00022300B047F4380027F4122E52F241CFF74
:1002B000E4352EFE1229F18F4D8E4C8D4B8C4AE584
:1002C000417017E53E7013E53F700FE540700B7508
:1002D00039FFF54DF54CF54BF54A7D147F1012288A
:1002E000E2EF600122300B047F4380027F0022E5B1
:1002F0003D04252DF52D0200D7AF3DE52D2FF8E665
:10030000642A60030203B8E52F240BF582E4352E3E
:10031000F583E030E3030203B8E53D04252DF8E65C
:100320007053E4FFF53BE52F2FF582E4352EF5837E
:10033000E06420602FBF080AAE3BE52D2EF8762E34
:10034000053BE52F2FF582E4352EF583E0FEAD3B2E
:10035000E52D2DF8EEF6E53B7008A82DE6B4050274
:1003600076E5053B0FBF0BBEAF3BE52D2FF8E4F65E
:10037000D20B02022DE53D04252DF8E6F47032E59E
:100380004D700CE54A7008E54B7004E54C6093E550
:100390004A30E703122A5BE54D24FFF54DE54C3466
:1003A000FFF54CE54B34FFF54BE54A34FFF54A8049
:1003B00007E53D04252DF81674202543F543E43563
:1003C00042F54202015090020DE0FCA3E0FDA3E0E3
:1003D000FEA3E02401FFE43EFEE43DFDE43CFC908E
:1003E000020D12147F153902013DE541700CE53E06
:1003F0007008E53F7004E540601D7F3EE4FD120A91
:100400005FEF600122200B0F853A3E853B3F853C24
:1004100040853D410200D7E4FFE52D2FF8E6FE6060
:1004200013642A600FEE645C6004EEB42F037FB3A4
:10043000220F80E57F4222E56C2460F8E6056C22FD
:10044000785D3007027860E475F001121616021527
:10045000BE2000EB7F2ED2008018EF540F2490D4E2
:100460003440D4FF30040BEF24BFB41A00500324EF
:1004700061FFE56D6002156D0570E5707002056F36
:1004800030070D785DE475F001121616EF021604C0
:100490000228957403D2078003E4C207F56C8B5DD4
:1004A0008A5E895FE4F56DF56FF570E56D60077F35
:1004B0002012047280F5756EFFC201C200C202C232
:1004C00003C205C206C208120440FF700D300705C2
:1004D0007F00120483AF70AE6F22B4255FC2D5C215
:1004E00004120440FF24D0B40A00501A75F00A78B0
:1004F0006D30D50508B6FF0106C6A426F620D50442
:100500007002D20380D924CFB41A00EF5004C2E5A0
:10051000D204020683D20180C6D20080C0D20280FB
:10052000BCD2D580BAD20580B47F201204722002DA
:10053000077401B56D0040F1120437FF1204720216
:1005400004ABD208D2068095120437FB120437FAA6
:10055000120437F94A4B700679547A077BFF200260
:100560002EE56D602A7E008E827583001215D7609D
:10057000060EEE656E70F0C2D5EBC0E0EAC0E0E9B1
:10058000C0E0EE1206CAD0E0F9D0E0FAD0E0FB12EB
:1005900015BEFF60AAEBC0E0EAC0E0E9C0E01204CB
:1005A00072D0E02401F9D0E03400FAD0E0FBE56E2F
:1005B0000460DCD56ED980877BFF7A0679C6D202CB
:1005C000809C791080027908C206C2088008D2D5C2
:1005D000790A8004790AC2D5E56E047002F56EE4EA
:1005E000FAFDFEFF120437FC7B08200113120437CA
:1005F000FD7B1030000A120437FE120437FF7B2007
:10060000EC3382D592D55013C3E43000069FFFE44B
:100610009EFEE42001039DFDE49CFCE4CBF8C201B6
:10062000EC700CCFCECDCCE824F8F870F38017C373
:10063000EF33FFEE33FEED33FDEC33FCEB33FB9990
:100640004002FB0FD8E9EB300105F8D0E0C448B216
:1006500001C0E00AEC4D4E4F78207B0070C2EAB535
:100660006E0040BCC0E01206CCD0F0D0E020010407
:10067000C4C0E0C4B201C0F012045BD0F0D5F0EB0E
:100680000204AB12162605485305C25805194C053D
:10069000154205C64F05CE4405CE49052E4305D467
:1006A0005505B84605B84505B847077450051D2DD2
:1006B00005212E05442B052523054220075D2A042C
:1006C000DD480000053C3F3F3F00790AA2D52003EA
:1006D00014300509B910020404B9080104A2D52098
:1006E00006025001042002689202B56D005034C029
:1006F000E07F203003197F30A20272067205500F8E
:10070000120723C202C206C205C2087F30800F3022
:100710000503E9C0E0120472300503D0E0F9D0E02F
:10072000B56DCC3005177F30B9100C1204727F58AC
:100730003004077F788003B9080312047230020581
:100740007F2D0204727F202008F87F2B2006F322E1
:10075000920280CF286E756C6C2900D2011204378A
:100760003001F8C201786D30D50108F60204DD2DA4
:10077000504349581204372403B405004001E49063
:10078000076F93120463743A120463D203756D0405
:100790000205C2E549D394024003754902121F3194
:1007A000EF600122900216E070637F07122A298F02
:1007B0003BE53B54F0FD7F07122A057D801F122A7E
:1007C00005E4FD7F0E122A057F0112286E7D817FD0
:1007D00006122A057F0112286E7F04122A29EF547F
:1007E0000C70057F1912286E122A01753C647F0275
:1007F00012286E7D1F7F09122A05AD3B7F07122A42
:1008000005121F31EF6053D53CE47F82227F0A122C
:10081000286E7D027F08122A051229917D037F41EF
:10082000122A050D0F122A05122029E55160101217
:1008300029917D017F42122A0512202902097F1287
:1008400029BBE5517007900002E030E4F2122991D3
:100850007D147F42122A051220297F1412286EE48B
:10086000FD7F08122A057C257DBD122965122029ED
:10087000E55170BB7C257DC57F0812296590021665
:10088000E0600E900215E0547F2410FD7F42122A92
:1008900005122029E55170977F42122A29EFCD7F5A
:1008A00008122A057F0312286E7C257DCD7F081251
:1008B0002965122029E551600302097F900002E0BA
:1008C000FD7F46122A05E4FD0F122A05122029E5B4
:1008D00051600302097F900005E0F53B90000EE0B7
:1008E000FD64087054A3E0B40605434E2080035312
:1008F0004EDF90000BE0900200F0E4F53CAF3CEFDF
:1009000075F007A42414FFE5F034008F82F583E02E
:10091000F53DA3A3E06440704AE53D30E70AE53DBC
:10092000540F4490F52B8008E53D540F4410F52CEE
:10093000053CE53CB402C6802FED640970259002A9
:1009400016E0701F7C257DD57F08122965122029AD
:10095000E551702BE4900215F0900002E090021631
:10096000F0700575511F80177C257DDD7F081229E9
:1009700065AD3B7F42122A05122029E55160459062
:100980000215E0603C20E73985513B900216E0FFFC
:10099000900215E0C39F5021E004F0F53C121F3196
:1009A0008F3DE53D700302080DE53DB48203AF3D88
:1009B00022900215E53CF080D2853B51E49002156F
:1009C000F0AF5122900216E06036900215E07030D0
:1009D000900215E004F01229917D037F41122A054F
:1009E0007D080F122A05122029900216E0FF9002BE
:1009F00015E0C39F40DAE4F07FC812286E02079D1D
:100A00007556087C257DE512201AE5517008900086
:100A100000E0F53B8012E551B42E0AE4FF1227599D
:100A2000E4F53B8003AF51227F0212286EE4F548C3
:100A30007D247F1212278F1220F08F3DE53D701B21
:100A4000E53B6010E548700C900000E0B4050575CA
:100A5000480180DC7D037F020228E21224FB228D04
:100A60005DEFC8E550B4020712145A78018008B44B
:100A7000031212145A78021214478F618E608D5F30
:100A80008C5E802B12145A8E5E8F5FEF30E0054330
:100A90004E108003534EEFE55EC313FEE55F132552
:100AA0005FFFE55E3EFEE48F618E60F55FF55EEE12
:100AB0005401FEEF2400F52FEE3400F52EAF61AEA9
:100AC00060AD5FAC5E122A3EEF2538F561EE35373A
:100AD000F560ED3536F55FEC3535F55EE561652A97
:100AE0007012E5606529700CE55F65287006E55EAB
:100AF0006527601D3009071223CAEF600122855E59
:100B000023855F2485602585612612190BEF60011E
:100B100022E55D6023B4FF028006E55DB4010BE4CD
:100B2000F561F560F55FF55E800C853161853260B9
:100B300085335F85345ED209E5506402703F852FAE
:100B400082852E83E0F53AA3E0F53B853A3D853B6F
:100B50003CE4F53AF53BAE3CAF3DC3EF94F7EE9481
:100B6000FF4003D38001C3920BE55D600D852F82AA
:100B7000852E83E55EF0A3E55FF07F0022E55064FB
:100B800003705A852F82852E83E0FCA3E0FDA3E04D
:100B9000FEA3E0F53D8E3C8D3B8C3AE53D54F0FFE5
:100BA000E561540F4FF561E53D540F853A3DF53A47
:100BB000AF3C853B3C8F3BAF3AEFC3940F4003D330
:100BC0008001C3920BE55D6011AF61AE60AD5FACBB
:100BD0005E852F82852E8312147F7F0022535F0F44
:100BE000C3E52F9400FFE52E9400FEEFF47003EEB2
:100BF0006401604F852F82852E83E0F53AA3E0F5EE
:100C00003BE55D7003020CBCE54E30E423E55EC4B9
:100C100054F0FFE53A540F4F852F82852E83F0E57F
:100C20005FC454F0FFE55EC4540F4FA3F0020CBC48
:100C3000852F82852E83E55EF0E53B54F0455FA36A
:100C4000F08079852F82852E83E0F53AE55D60247A
:100C5000E54E30E40EE55EC454F0FFE53A540F4F24
:100C6000FF8002AF5E852F82852E83EFF01223CAAC
:100C7000EF600122E52A2401F526E43529F525E473
:100C80003528F524E43527F52312190BEF600122EE
:100C9000900000E0F53BE55D6022E54E30E40FE5B5
:100CA0005FC454F0FFE55EC4540F4FFF8007E53B7F
:100CB00054F0455FFF900000EFF0D209E54E30E4BC
:100CC00013E53BC454F0FFE53AC4540F4FF53DE53E
:100CD0003BC48005853A3DE53B540FF53CE4F53ACD
:100CE000F53BAE3CAF3DC3EF94F7EE940F4003D31A
:100CF0008001C3920B7F0022E549C3940350071281
:100D00000793EF600122122A10E4F526F525F52459
:100D1000F52312190BEF600D12271E1227C01219AE
:100D20000BEF600122900000E0FF64EB6037EF649E
:100D3000E96032E4FDED6440602874C22DF582E480
:100D40003401F583E06015ED7E0024C6FFEE34012A
:100D5000FE1229F190020112147F801374102DFDF0
:100D600080D37F92229002011214A4000000009010
:100D70000201E0FCA3E0FDA3E0FEA3E0F5268E2542
:100D80008D248C2312190BEF600122900000E0FFEC
:100D900064EB6008EF64E960037FA12290000DE03E
:100DA000F52230E605753006802E30E505753005F4
:100DB000802630E405753004801E30E3057530036D
:100DC000801630E205753002800E30E10575300185
:100DD0008006752201E4F5307E007F16122A3490D9
:100DE0000207EEF0A3EFF04E70287E007F24122958
:100DF000F18F348E338D328C31E4FBFA7901F8D3E4
:100E000012142350037FA222900207E533F0A3E5DA
:100E100034F0900014E0FF900013E04F60127E0069
:100E20007F13122A34E48F418E40F53FF53E800F48
:100E30007E007F201229F18F418E408D3F8C3E7EB7
:100E4000007F11122A34EF240FFFE43EC4F854F05F
:100E5000C868FEEFC4540F48FFE4FCFD9002111275
:100E6000147F7E007F0E122A34E48F388E37F536D9
:100E7000F535900207E0FEA3E0FFEF2538FFEE35E1
:100E800037FEE43536FDE43535FC900211E0F8A379
:100E9000E0F9A3E0FAA3E02FF547EA3EF546E93D85
:100EA000F545E83CF544900010E0D39401402190D2
:100EB0000207E0FEA3E0FFE4FCFDE5472FF547E570
:100EC000463EF546ED3545F545EC3544F54480079D
:100ED000E4900207F0A3F0C3E5419547FFE5409594
:100EE00046FEE53F9545FDE53E9544FCA8301214CD
:100EF0003490020912147FE47BF57AFFF9F8D312DB
:100F00001423401FE4900205F0A3F090020BE0FED2
:100F1000A3E094F5EE940F500575500180247550B0
:100F200002801F7E007F30122A34900205EEF0A36B
:100F3000EFF07E007F2C1229F190021112147F75C0
:100F40005003900201E0FCA3E0FDA3E0FEA3E02536
:100F500038F538EE3537F537ED3536F536EC3535CD
:100F6000F535900201A3A3A3E02547F547EE3546EA
:100F7000F546ED3545F545EC3544F5447D107F03E8
:100F80001228E222D294C2947F6412286ED2941264
:100F900029E07BFF7A1A79271204991228FE8F57CD
:100FA0001228BC7BFF7A1A792E1204997F0A122824
:100FB0006E121F31EF70F5C2947FC812286EE4F5EF
:100FC000577F6412286E7BFF7A1A793A12049912BD
:100FD0002605EF60090557E557C3940540E3E54949
:100FE000D3940240BEC2957BFF7A1A7943120499CA
:100FF00078717C007D007BFF7A1A79491215A11265
:1010000000038F57E55764B36009E55764426003F6
:101010000210A1E557B4B308755B1A755C598006D8
:10102000755B1A755C5C7560FF855B61855C627BD6
:10103000FF7A1A7968120499E4F558AA5BA95C7BD7
:10104000FFC002C00178717C007D00D001D0021287
:1010500015A17B007A0079711229A68F5774712F20
:10106000F8A6581200038F57E55764427003021127
:101070003AE557B4431A756000855861756200758A
:1010800063007564717BFF7A1A7976120499800582
:10109000AF570211370558E558C394FE409D021121
:1010A0003AAF571228BC755902755A587BFF7A1A05
:1010B000798E855960855A61120499E55A455960BF
:1010C00068D3E55A941DE5599400400575581D8074
:1010D00003855A587871A658121B368F571228BCB0
:1010E0007871E6FFC3E55A9FF55AE5599400F55922
:1010F000E4F557E55778716660157BFF7A1A79AB8E
:1011000074722557F8E6F560120499055780E47863
:1011100071E6C3955850A47BFF7A1A79AE120499F0
:101120007BFF7A1A79B01204997BFF7A1A79BE1282
:1011300004991224358F571228BCC2967BFF7A1A65
:1011400079C512049978717C007D007BFF7A1A7949
:10115000CD1215A11211DB8F571228BC7BFF7A1A12
:1011600079DA120499755B1A755CE1E4F557855CD0
:1011700082855B83E493F55874722557F8A658E589
:1011800058600F055CE55C7002055B0557E557B4D8
:101190001DDCE557600E7871A65712164C8F57125A
:1011A00028BC80C77BFF7A1A79BE120499787176C1
:1011B000011224358F571228BCD296D2957BFF7A24
:1011C0001B792C1204997F0A12286E121F31EF60CE
:1011D000F5D2947FC812286E020FA31200038F3934
:1011E000E539700A1221C2EF700302133022E5398B
:1011F00064426003AF3922C3E54394E0E5429401C1
:101200005003021330E541700FE53E700BE53F706F
:1012100007E54070030212C6900210E0C39547FF35
:10122000E52214FE5FF539E5436008EE6539600399
:101230000213307F3EE4FD120A5FEF600122200BB3
:1012400003021330121C4BEF6001227F3E7D02121D
:101250000A5FEF6001221223CAEF600122122A10F6
:10126000E4FFFEEE64024F601374002FF5827400F9
:101270003EF583E4F00FBF00010E80E7E4F539127C
:1012800026DFE5437012F542F543AF26AE25AD24C7
:10129000AC2390020D12147F85223AE53A602012A9
:1012A00017DEEF600122E5262401F526E43525F559
:1012B00025E43524F524E43523F523153A80DC12A2
:1012C00022EDEF606B22E543706690020DE0FCA317
:1012D000E0FDA3E0FEA3E024FFFFEE34FFFEED34CB
:1012E000FFFDEC34FFFC90020D12147F1218F9EF91
:1012F000600122E4F542F543C3E5429402502E74A6
:10130000002543FF740035428F82F583E0B4E51079
:10131000E582240BF582E43583F583E0540E6010FA
:1013200074202543F543E43542F54280CB7FB22259
:10133000121C4BEF6001221223CAEF6001227F06CC
:10134000122A29EF54BF648060037F112285344143
:1013500085334085323F85313E1222EDEF60012218
:101360001218F9EF60012274002543FF7400354222
:10137000FEE4FDEDC3940B50047C2080027C00EF62
:101380002DF582E43EF583ECF00DBD20E6EF241848
:10139000F582E43EF5837421F0A37430F0EF241C51
:1013A000F582E43EF5837401F0E4FDEDC3940B5047
:1013B00021A82DE6FC601BECB42E047D08052DA8A9
:1013C0002DE6FCEF2DF582E43EF583ECF00D052DC6
:1013D00080D985413A85403B853F3C853E3DEF24A1
:1013E0001AF582E43EF583E53AF0A3E53BF0EF24FD
:1013F00014F582E43E1217D5EF6001228541348551
:101400004033853F32853E31E4F54DF54CF54BF5E3
:101410004AF555F554F553F552F5397D147F101200
:1014200028E222EB9FF5F0EA9E42F0E99D42F0E8C7
:101430009C45F022E8600FECC313FCED13FDEE13A6
:10144000FEEF13FFD8F122E8600FEFC333FFEE3356
:10145000FEED33FDEC33FCD8F122E6FC08E6FD0896
:10146000E6FE08E6FF22E6FB08E6F908E6FA08E6EB
:10147000CBF822ECF608EDF608EEF608EFF622ECD3
:10148000F0A3EDF0A3EEF0A3EFF022D083D082E43E
:1014900093F608740193F608740293F608740393A4
:1014A000F6740473A8828583F0D083D0821214BBB3
:1014B0001214BB1214BB1214BBE473E493A3C583D0
:1014C000C5F0C583C8C582C8F0A3C583C5F0C58370
:1014D000C8C582C822E709F60870FA8046E709F213
:1014E0000870FA803E88828C83E709F0A370FA8046
:1014F0007EE309F60870FA8076E309F20870FA8054
:101500006E88828C83E309F0A370FA806289828AF4
:1015100083E0A3F60870FA805689828A83E0A3F2FA
:101520000870FA804A80D280FA80C680D4806580B4
:10153000F28031801080A680EA809A80A880DA80CC
:10154000E280CA803189828A83ECFAE493A3C8C519
:1015500082C8CCC583CCF0A3C8C582C8CCC583CC17
:1015600070E9800D89828A83E493A3F60870F9EC10
:10157000FAA9F0EDFB2289828A83ECFAE0A3C8C5C0
:1015800082C8CCC583CCF0A3C8C582C8CCC583CCE7
:1015900070EA80DD89828A83E493A3F20870F9807F
:1015A000CE88F0ED2402B4040050C4F582EB24028E
:1015B000B4040050BA232345822390152573BB0140
:1015C0000689828A83E0225002E722BBFE02E322E0
:1015D00089828A83E49322BB010CE58229F582E5A6
:1015E000833AF583E0225006E92582F8E622BBFE25
:1015F00006E92582F8E222E58229F582E5833AF5BB
:1016000083E49322BB010689828A83F0225002F789
:1016100022BBFE01F322FAE6FB0808E6F925F0F604
:1016200018E6CA3AF622D083D082F8E49370127496
:101630000193700DA3A393F8740193F5828883E45A
:10164000737402936860EFA3A3A380DFE549641578
:101650006007122846EF6001227871E6F52D7006CA
:10166000300A03022698E47871F6E52D700302171C
:10167000D2E539F47077E541700CE53E7008E53F3E
:101680007004E54060258534558533548532538593
:101690003152121C57EF6001227F527D02120A5F05
:1016A000EF6001221223CAEF60082212235DEF606F
:1016B000012285345585335485325385315274FF68
:1016C000F534F533F532F5311222F7CBEFCB8555F2
:1016D00034855433855332855231EB600122854D78
:1016E00055854C54854B53854A52E4F5391226DF13
:1016F00012190BEF600122AF55E5545401FEC3E40B
:101700009FFD74029EFCC3ED952DEC940040058571
:101710002D3A8006E555F404F53A74002FF58274ED
:10172000003EAF82F52E8F2FAF3AE4FCFDFEE5556B
:101730002FF555EE3554F554ED3553F553EC355240
:10174000F552C3E52D953AF52D7871E62472FFE543
:101750003A26F6C8EFC8E6852F82852E83F0052F3E
:10176000E52F7002052E0FD53AE91217DEEF600162
:1017700022AF55AE54AD53AC52AB4DAA4CA94BA8B9
:101780004AC3121423500E85554D85544C85534B36
:1017900085524AD20AE55454014555600302166A3F
:1017A0000539E539C39522500302166A7F31E4FDFD
:1017B000120A5FEF600122300B067539FF02166ACC
:1017C000853A31853B32853C33853D34E4F5390239
:1017D000166A7F0022F583E53CF0A3E53DF0E4F5D1
:1017E0004F7F237B2A7D0112249EE551600302185E
:1017F000CE7DC87F06122A05E55630E6047F40807C
:10180000027F807C007D008C278D2812281A8E276D
:101810008F287D407F0B122A05635640AD567F0E00
:10182000122A05753B08E53B64016016E55630E673
:10183000047F4080027F80AD28AC2712281A8E27B3
:101840008F28121D57E5516011122A01E551642EAF
:10185000707CE54F7078AF2C804C635640E53B645C
:10186000016007AD567F0E122A05D53BB9122A0139
:1018700090BDF1740DF090BCF0E52BF0E556F0D280
:101880000B85232785242885252985262A635680CC
:10189000121D57E5516017635680E551642E702E76
:1018A000E54F702AAF2B122759754F0180C27F0B6D
:1018B000122A29BF0D187FCC122A29EF7006122A8E
:1018C0004F7F00227FCC122A29EF6401600BE55183
:1018D000B416037F822212271EE54FC39405500FD2
:1018E000E54FC3940140031224FB054F0217E11298
:1018F0002A1075511F1224FB2290020DE0F523A33C
:10190000E0F524A3E0F525A3E0F526E526652A7099
:1019100015E5256529700FE52465287009E523651F
:10192000277003021A17E4F54F7F237B287D0112ED
:10193000249EE55160030219ED90BDF17406F0900C
:10194000BCF074C8F090BDF1740DF090BCF0E52BC4
:10195000F0E556F0D20B63564075270075280075E8
:101960003B08121D57E5516005122A01804C635651
:1019700080E53B64016007AD567F0E122A05E556EF
:1019800030E7047FC080027F80AD28AC271227EEAD
:101990008E278F28D53BCB122A01AD567F0E122AF7
:1019A0000585232785242885252985262A635680B1
:1019B000121D57E551601A635680E551642E702D53
:1019C000E54F7029AF2B122759754F011229CE8090
:1019D000D07F0B122A29BF0D147FCC122A29EF7059
:1019E00002FF227FCC122A29EF6401600BE551B47B
:1019F00016037F822212271EE54FC39405500FE580
:101A00004FC3940140031224FB054F021929122AE7
:101A10001075511F0224FB7F00224572726F723ACB
:101A200020253032580A0053746172740A005761DD
:101A3000697420556469736B0A005265616479208A
:101A40003F0A004F70656E0A002F4335312F43481F
:101A50003337344846542E43002F2A002F43353164
:101A60002F43483337342A004C6973742066696CFD
:101A7000652025730A0020206D6174636820666903
:101A80006C652025303364233A2025730A00B4D3D3
:101A9000CEC4BCFED6D0B6C1B3F6B5C4C7B02564BB
:101AA000B8F6D7D6B7FBCAC73A0A002543000A00E2
:101AB000CEC4BCFED2D1BEADBDE1CAF80A00436CB3
:101AC0006F73650A004372656174650A002F4E45A5
:101AD0005746494C452E5458540057726974650A4C
:101AE000004E6F74653A200D0AD5E2B8F6B3CCD03B
:101AF000F2CAC7D2D4D7D6BDDACEAAB5A5CEBBBD61
:101B0000F8D0D055C5CCCEC4BCFEB6C1D0B42CB52F
:101B1000A5C6ACBBFAD6BBD0E8D2AAD3D0363030FB
:101B2000D7D6BDDAB5C452414D0D0A0054616B657C
:101B3000206F75740A00E54964156007122846EFA6
:101B40006001227871E6F52DE4F6E52D7003021CA4
:101B500048E5545401FEC3E49555FF74029EFEC34C
:101B6000EF952DEE94004005852D3A8006E555F45D
:101B700004F53AC3E54D9555FBE54C9554FAE54B14
:101B80009553F9E54A9552F8AF3AE4FCFDFED312BD
:101B90001423500CC3E54D9555F53A7003021C48CB
:101BA0001226DF12190BEF600122E5545401FE7476
:101BB000002555F58274003EAF82F52E8F2FAF3A87
:101BC000E4FCFDFEE5552FF555EE3554F554ED35A5
:101BD00053F553EC3552F552C3E52D953AF52D7872
:101BE00071E62472FFE53A26F6852F82852E83E082
:101BF000C8EFC8F60F052FE52F7002052ED53AE97C
:101C0000E554540145556003021B4A0539E539C3C3
:101C100095225003021B4A7F31E4FD120A5FEF60F8
:101C20000122300B117539FF85554D85544C855374
:101C30004B85524A8012853A31853B32853C33854B
:101C40003D34E4F539021B4A7F002285413485404A
:101C500033853F32853E31900209E0FCA3E0FDA3CD
:101C6000E0FEA3E0FFAB34AA33A932A831D31214AB
:101C70002340037FB122E5342401F534E43533F504
:101C800033E43532F532E43531F5317F31E4FD129C
:101C90000A5FEF600122E53D700FE53A700BE53B0E
:101CA0007007E53C7003021D3EE550640160A875B5
:101CB0002E00752F00E55064027033753AFF7402F0
:101CC000252FF52FF582E4352EF52EF583E07015DE
:101CD000A3E07011852F82852E8374FFF0A3F0E5B9
:101CE0003AF4048049D53AD67534FF021C57753A48
:101CF0007F7404252FF52FF582E4352EF52EF5831C
:101D0000E07032A3E0702EA3E0702AA3E0540F70BD
:101D100024852F82852E8374FFF0A3F0A3F0A3E027
:101D2000440FF0E5345480FFC37480953A4FF53486
:101D3000D2097F0022D53AB943347F021C577F3144
:101D40007DFF120A5F2290BDF1740DF090BCF0E5AA
:101D50002CF0E556F0C20BE4F53DE4F551122A549F
:101D600090BDF17409F0E030E06E90BCF07411F0B9
:101D7000E0FF300B0E5407B40313EF30E436E4F504
:101D800051FF22540FB40205E4F551FF22EF540F26
:101D9000FEBE0A05E54E20E729EF54037003D38009
:101DA00001C34007EE4420FFF551227F09122A2982
:101DB000EF20E124E54E540FFF053DAE3DEED39FED
:101DC00050107F0E122A29EF4408FD7F0E122A05BB
:101DD00080887551207F20227551FF7F04122A29A7
:101DE000D551F87F09122A298F3DE53D30E135753F
:101DF0004901E4900216F07D137F09122A057D80C7
:101E00007F06122A05E53D30E514754902E53D30AF
:101E1000E7067551157F15227551137F13227551F1
:101E2000167F16227D1F7F09122A05E53D30E30645
:101E30007551067F06227551057F0522E549C39439
:101E40001350037FB4221218F9EF600122C2097403
:101E5000002543FB74003542FA7879E6FFEB240B4A
:101E6000F582E43AF583E0F6EFF460138B828A831F
:101E7000E582240BF582E43583F583EFF0D209780F
:101E800077E6F53D08E6F53CEB2416FFE43AFE1252
:101E90002A3418EEF608EFF6E53CF4FEE53DF44E84
:101EA0006012EB2416F582E43AF583E53CF0A3E5F5
:101EB0003DF0D2097875E6F53D08E6F53CEB2418CF
:101EC000FFE43AFE122A3418EEF608EFF6E53CF489
:101ED000FEE53DF44E6012EB2418F582E43AF583FA
:101EE000E53CF0A3E53DF0D209787112145A787DF3
:101EF000121473EB241CFFE43AFE1229F1787112DC
:101F00001473787DE6F4601E12145A8F4D8E4C8D3A
:101F10004B8C4A122A48EB241CF582E43AF58312D2
:101F2000147FD209C20A300905C2090217DE7F00F8
:101F3000227F06122A29EF54404480FD7F06122A90
:101F4000057F09122A29EF30E10A1229367D137F15
:101F500009122A057F09122A29EF20E5030220161B
:101F6000E549C394025008754902E4900216F090C6
:101F70000216E07002FF227D027F08122A059002FD
:101F800015E060431229BBE5517026900002E03055
:101F9000E009754902122991122029900000E030D1
:101FA000E020900215E02410FD7F08122A057F0032
:101FB00022E5516416605FE55130E506E5515403B2
:101FC00060547549028047900215E004F01229BB65
:101FD000E551701C900002E030E0061229911220B9
:101FE00029900000E030E019A3E020E1147F0022F6
:101FF000E55164166020E55130E506E55154036073
:1020000015900216E0FF900215E0C39F40B9E490DE
:102010000215F07F8422122936227F08122965904A
:102020000200E0FD7F44122A057F0112286E7D0820
:102030007F0B122A057DD07F0D122A057D080F1215
:102040002A05C20B121D57E5516003AF5122D20B76
:102050007F46122A29EF606F122A107F0112286E24
:102060007D907F0D122A050F122A29EF6480440803
:10207000FD7F0E122A05121D57E5516003AF512254
:102080007F0B122A298F517F47122A298F3DAF3D9E
:1020900074002FF582E43400AB82FAAD517FC01298
:1020A000291DE551253DF53DAD3D7F47122A051F10
:1020B000122A29E53DC39F500CE5515407609C75D9
:1020C00051177F1722C20B7F0112286EE4FD7F0B90
:1020D000122A05300B047F0980027F01EFC454F0FF
:1020E000FD7F0D122A057DC80F122A05121D5722E9
:1020F000E4900218F0A3F0A3F090021CE548F0E48D
:10210000F53C7C257DB07F041229657A027B177D22
:10211000117F4812297B7D1F7F0B122A05121D4655
:10212000E551B416037F8222E551600FE53C600360
:102130000221B312271E753C0180C76356409002EE
:1021400017E060491229CE121D57E551600DE55187
:10215000642E705FAF2B12275980326356807F0B3D
:10216000122A298F3D7F4F122A29BF030A7F53125B
:102170002A29EF6412600E122A107A007B00AD3D0E
:102180007FC012291D900217E0C3953DF01229CEA1
:10219000121D57E551701C6356807FCC122A298F7F
:1021A0003D7F0B122A29BF0D07E53DC3940240066F
:1021B00075511F02271EE53D7002FF2275511F7FDA
:1021C0001F22E549C394135007120003EF60012258
:1021D0001228DEEF6001221218F9EF60012274006C
:1021E0002543FF740035428F82F58374E5F01217A2
:1021F000DEEF600122AF41AE40AD3FAC3E8F3D8E81
:102200003C8D3B8C3AEC4D4E4F604EE54124FFF542
:1022100041E54034FFF540E53F34FFF53FE53E340E
:10222000FFF53EE4F534F533F532F5317F3A7D01C3
:10223000120A5FEF600122E5342401F534E43533FE
:10224000F533E43532F532E43531F531300BDD125A
:1022500023CAEF6001220222F77F0022E541700CC1
:10226000E53E7008E53F7004E540607285413485C5
:102270004033853F32853E31AF22E4FCFDFE78716C
:10228000121466C312142340387F31E4FD120A5F32
:10229000EF600122200B47853A31853B32853C3384
:1022A000853D34787112145AAB22C3EF9BFFEE9434
:1022B00000FEED9400FDEC9400FC78711214738024
:1022C000B77874E6FFE522145FF5391226DFAF26F2
:1022D000AE25AD24AC2378711214737F00227539BA
:1022E000FF787112148BFFFFFFFF7F002274FFF550
:1022F00034F533F532F531900205E0FCA3E0FD4CF6
:102300007002FF22EDCFECCEE4FCFD900201E0F87C
:10231000A3E0F9A3E0FAA3E02FF526EA3EF525EDC8
:1023200039F524EC38F52312190BEF6001227E01F8
:102330007FE81229F1E5342FF534E5333EF533E536
:10234000323DF532E5313CF531AF34AE33AD32FCE0
:10235000122A489001E812147F1217DE22121C572D
:10236000EF6001221223CAEF6001228534418533D8
:102370004085323F85313E1218F9EF60012274002A
:102380002543FF74003542FEF583EF241CF582E4FB
:102390003583F5837401F085413A85403B853F3CA8
:1023A000853E3D8F828E83E582241AF582E4358353
:1023B000F583E53AF0A3E53BF08F828E83E5822436
:1023C00014F582E435831217D52285272385282426
:1023D000852925852A261217DEEF60012290020743
:1023E000E0FEA3E0FF4E6048E4FCFDE5262FF52665
:1023F000E5253EF525ED3524F524EC3523F52312AE
:1024000017DEEF600122900207E0FAA3E0FBC3E5CC
:10241000269BF526E5259AF525E5249400F524E587
:10242000239400F523F52785242885252985262A48
:10243000C2097F0022E549C3941250037FB422E50C
:1024400049B41239E55064036033900214E0F52278
:10245000E54CC313FF7E00E4FCFD90021112147FD3
:10246000900214E0FFE4FCFDFEE5472FF547EE3552
:1024700046F546ED3545F545EC3544F544E549D39B
:102480009413400AE549B414077871E67002C20A51
:10249000300A07122698EF6001221228DE2290BD32
:1024A000F17440F090BCF07455F07453F07442F045
:1024B00004F090BDF17448F0E490BCF0F0ED25E03C
:1024C000F0E4F0F0BB2A03FE80027E80EEF0E548E7
:1024D000F0740AF0EBF0E4F0EFC8E6F008E6F0087C
:1024E000E6F008E6F0E4F0F0EDF0E4F090BDF17411
:1024F0000BF090BCF0741FF0021D467F0212286E94
:102500007D117F09122A05122A29EF30E50BE551CA
:1025100064166005E549B40103022936E549C39410
:1025200003401585513B7D127F0312278F1220F047
:10253000853B517F0212286EE549B41205754903A7
:10254000800AE549D394104003754910E5517003A2
:102550007F1022AF5122E4F5497D557F80122A0574
:102560007DAA0F122A051F122A29BF550A7F811240
:102570002A29EF64AA60037F8122E4FD7F06122AE4
:10258000057F0E122A05754E85E4F54F7D1F7F09E4
:10259000122A057F07122A29EF54F04403FD7F0712
:1025A000122A057D407F05122A051229367F002256
:1025B000555342430021FF00000000000080060048
:1025C000010000120000050200000000008006006B
:1025D0000200000400A00600290000090000090014
:1025E0000000000000A1FE00000000010002010048
:1025F0000000000000A300000001000400230110FF
:102600000001000000121F31EF600122E549C39470
:10261000035026120793EF600C7F3212286E1207C8
:1026200093EF6001221227C0EF60030224FB9000A9
:1026300006E0640260037F1222E4FDFF12278F127E
:1026400020F08F3AE53A7002FF2212294EAF3A226B
:10265000E54964156007122846EF6001227871127F
:10266000145A8F558E548D538C52AB4DAA4CA94B96
:10267000A84AC3121423500C854D55854C54854BE4
:1026800053854A52AF55AE54AD53AC52122A3E78E0
:102690007112147312225C22C20AE549C3941440D9
:1026A0003B1218F9EF60012274002543FB740035DA
:1026B00042FAF583EB240BF582E43583F583E020C1
:1026C000E41AAF4DAE4CAD4BAC4A122A48EB241C79
:1026D000F582E43AF58312147F0217DE7F0022E5CB
:1026E0003424FEFFE53334FFFEE53234FFFDE531EF
:1026F00034FFFCA830121447EF2547FBEE3546FAAD
:10270000ED3545F9EC3544F8E4FCFDFEEB2539F5F3
:1027100026EE3AF525ED39F524EC38F523228551DE
:102720003C7F0212286E121F318F51E5516003AFBA
:1027300051227C257DB512201AE551B416037F8203
:1027400022E551700AAF2B122759AF2C1227597F5F
:102750000212286EAF3C8F51228F3D7C257DED7F8C
:1027600008122965E53DC4540FFFBF090DE53D542E
:102770000F4480F53D53567F800FE53DC4540FFF55
:10278000BF0106533D0F5356BFAD3D12202422908A
:102790000217EDF060047E8080027E0090021BEE46
:1027A000F090021D7406F0A3EFF0E4A3F0A3F0A3F1
:1027B000F0A3EDF0E4A3F0A3F0A3F0A3F0A3F022C4
:1027C000753B087D087F2512278F90021D740AF043
:1027D000E4900222F01220F08F3AE53A7002FF22D4
:1027E00012294E7F1E12286ED53BD8AF3A2290BDDB
:1027F000F1EFF0ECFEEDFF7D1090BCF0E0FCE0FBB3
:10280000E0FAE08E838F82CCF0A3EBF0A3EAF0A392
:10281000ECF0A3AE83AF82DDE02290BDF1EFF0ECEF
:10282000FEEDFF7D108E838F82E0A3FCE0A3FBE032
:10283000A3FAE0A3AE83AF8290BCF0CCF0EBF0EA59
:10284000F0ECF0DDE022E549641460037FB42285FA
:102850004134854033853F32853E31E4F555F554AA
:10286000F553F552F5397D157F141228E2228F3D7C
:102870007F04122A29EF20E5F7AF3D153DEF6014E4
:102880007F04122A29EF30E5F77F04122A29EF305E
:10289000E5E780F522EFB40A07740D1228A0740A48
:1028A000309811A899B8130CC2983098FDA899C215
:1028B00098B811F63099FDC299F59922EF601E7B08
:1028C000FF7A1A791A7560008F61120499C2947F99
:1028D0006412286ED2947F6412286E80F0227D10DC
:1028E0007F10E549C39F40028D49E5496D7002FFA5
:1028F00022754901121F31EF6001227F8322E58199
:10290000D394EE40037FFC22E4900000F0122A589A
:10291000EFC3941150037FFF221225562290BDF180
:10292000EFF0ED601090BCF0E08B828A83F00BBB7F
:1029300000010ADDF022754901E4900216F0FD7FE6
:1029400008122A057D807F06122A057F82227F0ACF
:1029500012286E7D127F0312278F1220F07F021241
:10296000286EAF512290BDF17440F07E008D828CB4
:1029700083EE9390BCF0F00EDFF32290BDF1EFF008
:102980008B828A83E090BCF0F00BBB00010ADDF083
:10299000227C257DFD7F08122965900215E0547F79
:1029A000FD7F44022A05E4FFFE1215BE600C0FEF06
:1029B00070010E09E970F20A80EF227C257DF57F17
:1029C00008122965900215E0547F1220232290BD41
:1029D000F1740DF090BCF0E52BF0E556F0D20B222F
:1029E000759850758780758920758DF3D28ED29930
:1029F000228F828E83E0FFA3E0FEA3E0FDA3E0FC34
:102A0000227DC07F0690BDF1EFF090BCF0EDF0228A
:102A100074FFF52AF529F528F527C20922787FE405
:102A2000F6D8FD75818E020F8490BDF1EFF090BC59
:102A3000F0E0FF228F828E83E0FFA3E0FE22C3E45A
:102A4000CC13CD13CE13FF22EFCCFFEECDFE227FB1
:0C2A5000FADFFE2220B2FD227F112222BC
:00000001FF
