:100000000235FEE540C394105007120B8AEF6001E1
:100010002212348DEF600122C20A786DE6645C60C2
:1000200004E6B42F05752D6E8017786EE6643A608D
:10003000030200EF18E6C3944350030200EF752D4E
:1000400070E547B4031090163FE0FCA3E0FDA3E089
:10005000FEA3E0FF8005E4FFFEFDFC8F3D8E3C8D9E
:100060003B8C3AA82DE660030200F274FFF544F5DC
:1000700043F542F541E54764036057753D0290162C
:1000800033E0FCA3E0FDA3E0FEA3E0FF901642E016
:10009000FBC3EF9BFFEE9400FEED9400FDEC94009B
:1000A000FC90163312143B901641E0FEA3E0A830FA
:1000B000088005C333CE33CED8F9FFE48F448E4396
:1000C000F542F541AF22FCFDFE90163F12143B7540
:1000D0002280853D34853C33853B32853A31E4F5D9
:1000E0004EF54DF54CF54BF5357540127F412275B7
:1000F0002D6DA82DE6B4E5027605E53D700CE53AD8
:100100007008E53B7004E53C6038852235E53D2408
:10011000FEFFE53C34FFFEE53B34FFFDE53A34FFEE
:10012000FC90162AE0F8121403901633E0F8A3E0CE
:10013000F9A3E0FAA3E02FFFEA3EFEE93DFDE83C2B
:100140008024901642E0F535AF35CB901633E0FCB5
:10015000A3E0FDA3E0FEA3E0C39BFFEE9400FEED51
:100160009400FDEC9400FC90163A12143BE53570B7
:100170000302042212248AEF600122E4F53EF53FD7
:10018000D3901638E0953F901637E0953E50030225
:1001900003FEE549253FF52FE548353EF52E852F31
:1001A00082F583E0FF700302044FEF64E570030201
:1001B00003F0BF05027FE5A82DE6FE6F6008EE6440
:1001C0002A60030203F0E4F539FFEFC3940B507883
:1001D000E52F2FF582E4352EF583E0FEAD39E52DD0
:1001E0002DF8EE66605DAD39E52D2DF8E66015ADB4
:1001F00039E52D2DF8E6645C600AAD39E52D2DF862
:10020000E6B42F1FEE6420703FEFC394085010E552
:100210002F2408F582E4352EF583E0642070297FD1
:100220000B8025AE39E52D2EF8E6B42E1BE539649A
:1002300008600EE52F2FF582E4352EF583E0B4201B
:10024000077F070F05398082EFC3940B5003020329
:1002500031E52F240BF582E4352EF583E030E303FE
:10026000020331C20BE52F241AFFE4352EFE1235AE
:10027000E7E48F3D8E3CF53BF53AE547B40310E5E6
:100280002F2414FFE4352EFE1235E78E3A8F3BAF54
:1002900039E52D2FF8E66006200B03020327853D84
:1002A00034853C33853B32853A31E4F54EF54DF5E6
:1002B0004CF54BF535E52F240BF582E4352EF5830F
:1002C000E030E41F74FFF544F543F542F5417D133A
:1002D0007F10123491EF600122300B047F438002C3
:1002E0007F4122E52F241CFFE4352EFE12355E8F60
:1002F000448E438D428C41E53D7017E53A7013E51D
:100300003B700FE53C700B7535FFF544F543F54246
:10031000F5417D147F10123491EF600122300B04FF
:100320007F4380027F0022E53904252DF52D020050
:10033000F2AF39E52D2FF8E6642A60030203F0E5F9
:100340002F240BF582E4352EF583E030E30302031E
:10035000F0E53904252DF8E67053E4FFF537E52F75
:100360002FF582E4352EF583E06420602FBF080A64
:10037000AE37E52D2EF8762E0537E52F2FF582E4E2
:10038000352EF583E0FEAD37E52D2DF8EEF6E53799
:100390007008A82DE6B4050276E505370FBF0BBE41
:1003A000AF37E52D2FF8E4F6D20B020265E53904EC
:1003B000252DF8E6F47032E544700CE5417008E54F
:1003C000427004E5436093E54130E703121BBDE54D
:1003D0004424FFF544E54334FFF543E54234FFF59B
:1003E00042E54134FFF5418007E53904252DF81633
:1003F0007420253FF53FE4353EF53E02018090161E
:100400003AE0FCA3E0FDA3E0FEA3E02401FFE43E0C
:10041000FEE43DFDE43CFC90163A12143B15350217
:10042000016DE53D700CE53A7008E53B7004E53C74
:10043000601D7F3AE4FD120EA3EF600122200B0F36
:1004400085363A85373B85383C85393D0200F2E4F4
:10045000FFE52D2FF8E6FE6013642A600FEE645C62
:100460006004EEB42F037FB3220F80E57F4222E5C4
:1004700040D3940240037540021228FEEF6001222F
:10048000901644E060030205787F0712360A8F3722
:10049000E53754F0FD7F071235A190163EE0600469
:1004A0007DC080027D807F061235A1E4FD7F0E12A3
:1004B00035A17F0112330C90163EE06034B4020C7B
:1004C0007F0312360AEF54F04402801190163EE08A
:1004D000B4030F7F0312360AEF540F4420FD7F034D
:1004E00080137F0212360AEF54F04402FD7F02802F
:1004F000047D817F061235A17F0112330C1232591F
:10050000EF6006123259EF70057F1912330C901606
:100510003EE06034B4020C7F0312360AEF54F0441C
:1005200001801190163EE0B4030F7F0312360AEFEC
:10053000540F4410FD7F0380137F0212360AEF54DC
:10054000F04401FD7F0280047D807F061235A17D8D
:10055000C07F061235A17538327F0512330C7D1F1E
:100560007F091235A1AD377F071235A11228FEEFA2
:100570006054D538E47F82227F0A12330C123598FA
:1005800012356E7D037F411235A10D0F1235A11278
:100590002AD7E54A601012356E7D017F421235A1DF
:1005A000122AD702072A1235ACE54A700C85498217
:1005B000854883A3A3E030E4ED12356E7D147F42BD
:1005C0001235A1122AD77F3212330CE4FD7F0812B4
:1005D00035A17C307DF712352D122AD7E54A70B649
:1005E0007C307DFF7F0812352D90163EE0FF6008BD
:1005F0002402FD7F421235A1901644E0600E901651
:1006000043E0547F2410FD7F421235A1122AD7E522
:100610004A70837F4212360AEFCD7F081235A17FE0
:100620000A12330C7C317D077F0812352D122AD730
:10063000E54A600302072A854982854883A3A3E02F
:10064000FD7F461235A1E4FD0F1235A1122AD7E530
:100650004A600302072AE5492405F582E43548F596
:1006600083E0F537E549240EF582E43548F583E06B
:10067000FD6408706AE549240FF582E43548F58386
:10068000E0B4060543452080035345DFE549240BCC
:10069000F582E43548F583E0901621F0E4F538AFB3
:1006A00038EF75F007A42549FFE5F03548CF24144D
:1006B000CF34008F82F583E0F539A3A3E064407066
:1006C0004DE53930E708540F4490F52B8008E539A3
:1006D000540F4410F52C0538E538B402C28034EDCF
:1006E0006409702A901644E070247C317D0F7F08E5
:1006F00012352D122AD7E54A7030E4901643F08562
:100700004982854883A3A3E0901644F07005754A9A
:100710001F80177C317D177F0812352DAD377F4242
:100720001235A1122AD7E54A6045901643E0603C95
:1007300020E739854A37901644E0FF901643E0C31E
:100740009F5021E004F0F5381228FE8F39E539700A
:1007500003020578E539B48203AF3922901643E5E8
:1007600038F080D285374AE4901643F0AF4A2290A1
:100770001644E06036901643E07030901643E00473
:10078000F012356E7D037F411235A17D080F1235C1
:10079000A1122AD7901644E0FF901643E0C39F4071
:1007A000DAE4F07FC812330C020479E54F540444B4
:1007B00008F54F7C317D1F122AC8E54A700B854928
:1007C00082854883E0F5378012E54AB42E0AE4FFBB
:1007D000123343E4F5378003AF4A227F0212330C11
:1007E000E4901639F07D247F121233791229F48FA8
:1007F00039E5397023E5376018901639E0701285B5
:100800004982854883E0B405089016397401F08068
:10081000D47D037F02023491E537600E901639E0F3
:10082000C394035005E004F080BB1231D322E56885
:10083000245CF8E60568227859300702785CE47594
:10084000F0011215DE0215862000EB7F2ED200800B
:1008500018EF540F2490D43440D4FF30040BEF240D
:10086000BFB41A0050032461FFE5696002156905F1
:100870006CE56C7002056B30070D7859E475F0017A
:100880001215DEEF0215CC0234027403D207800386
:10089000E4C207F5688B598A5A895BE4F569F56B00
:1008A000F56CE56960077F2012086980F5756AFFBD
:1008B000C201C200C202C203C205C206C2081208B7
:1008C00037FF700D3007057F0012087AAF6CAE6BF2
:1008D00022B4255FC2D5C204120837FF24D0B40A5F
:1008E00000501A75F00A786930D50508B6FF010680
:1008F000C6A426F620D5047002D20380D924CFB432
:100900001A00EF5004C2E5D204020A7AD20180C66E
:10091000D20080C0D20280BCD2D580BAD20580B4C9
:100920007F201208692002077401B5690040F112A6
:10093000082EFF1208690208A2D208D2068095127A
:10094000082EFB12082EFA12082EF94A4B7006796F
:100950004B7A0B7BFF20022EE569602A7E008E8297
:1009600075830012159F60060EEE656A70F0C2D5A1
:10097000EBC0E0EAC0E0E9C0E0EE120AC1D0E0F965
:10098000D0E0FAD0E0FB121586FF60AAEBC0E0EAE7
:10099000C0E0E9C0E0120869D0E02401F9D0E034F9
:1009A00000FAD0E0FBE56A0460DCD56AD980877B79
:1009B000FF7A0A79BDD202809C791080027908C240
:1009C00006C2088008D2D5790A8004790AC2D5E522
:1009D0006A047002F56AE4FAFDFEFF12082EFC7B41
:1009E0000820011312082EFD7B1030000A12082E79
:1009F000FE12082EFF7B20EC3382D592D55013C314
:100A0000E43000069FFFE49EFEE42001039DFDE428
:100A10009CFCE4CBF8C201EC700CCFCECDCCE8242A
:100A2000F8F870F38017C3EF33FFEE33FEED33FDBC
:100A3000EC33FCEB33FB994002FB0FD8E9EB3001C0
:100A400005F8D0E0C448B201C0E00AEC4D4E4F7842
:100A5000207B0070C2EAB56A0040BCC0E0120AC345
:100A6000D0F0D0E0200104C4C0E0C4B201C0F01254
:100A70000852D0F0D5F0EB0208A21215EE093F5350
:100A800009B95809104C090C4209BD4F09C5440960
:100A9000C54909254309CB5509AF4609AF4509AFFB
:100AA000470B6B5009142D09182E093B2B091C23E9
:100AB0000939200B542A08D448000009333F3F3F2E
:100AC00000790AA2D5200314300509B910020404E4
:100AD000B9080104A2D52006025001042002689240
:100AE00002B569005034C0E07F203003197F30A286
:100AF0000272067205500F120B1AC202C206C2051C
:100B0000C2087F30800F300503E9C0E01208693069
:100B10000503D0E0F9D0E0B569CC3005177F30B9D6
:100B2000100C1208697F583004077F788003B908D9
:100B3000031208693002057F2D0208697F20200812
:100B4000F87F2B2006F322920280CF286E756C6C02
:100B50002900D20112082E3001F8C201786930D57F
:100B60000108F60208D42D5043495812082E2403D8
:100B7000B405004001E4900B669312085A743A12CF
:100B8000085AD2037569040209B9E540C3940350B9
:100B90000A12046FEF600122122CC61235F1E4F53F
:100BA0002EE4F526F525F524F52312249CEF600D9F
:100BB000123296122CC612249CEF600122E52E7090
:100BC0000D854982854883E054FD64E96053E4FD66
:100BD000ED64406049E54924BEFFE5483401FEED7F
:100BE0007A002FFFEA3EF583EF2404F582E4358393
:100BF000F583E06023E54924BEFFE5483401FEEDBE
:100C00002FFFEA3ECF2408CF3400FE12355E8F2638
:100C10008E258D248C23800974102DFD80B27F9247
:100C200022AF26AE25AD24AC2390162212143B121F
:100C3000249CEF600122854982854883E054FD644D
:100C4000E960037FA122E549240DF582E43548F5EA
:100C500083E0F522F54790162A7406F0E54720E672
:100C600011E54725E0F54790162AE014F070ED7580
:100C70002201E54924161235E2901628EEF0A3EF82
:100C8000F04E702CE54924241235598F348E338D63
:100C9000328C31E4FBFA7901F8D31213DF5007E507
:100CA0002E60037FA222901628E533F0A3E534F0EE
:100CB000E5492414F582E43548F583E0FFE549244D
:100CC00013F582E43548F583E04F6012E5492413BB
:100CD0001235E2E48F3D8E3CF53BF53A800FE54955
:100CE00024201235598F3D8E3C8D3B8C3AE54924AA
:100CF000111235E2CCEECCCDEFCD901637E0FEA34D
:100D0000E07805CEC313CE13D8F9147E002DFFEE84
:100D10003CFEE53024FBFDEFC8EDC8088005CEC3DE
:100D200013CE13D8F9FFE4FCFD90163F12143BE5F7
:100D300049240E1235E28E3E8F3F901629E0253F62
:100D4000FF901628E0353EFEE4FCFD90163FE0F8EB
:100D5000A3E0F9A3E0FAA3E02FF534EA3EF533ED82
:100D600039F532EC38F531E5492410F582E435489F
:100D7000F583E0D39401401E901628E0FEA3E0FF27
:100D8000E5342FF534E5333EF533ED3532F532EC0D
:100D90003531F5318007E4901628F0A3F0C3E53D26
:100DA0009534FFE53C9533FEE53B9532FDE53A95FC
:100DB00031FC90162AE0F81213F090162F12143B13
:100DC000E47BF57AFFF9F8D31213DF401FE49016A5
:100DD00026F0A3F0901631E0FEA3E094F5EE940F18
:100DE00050057547018024754702801FE54924306E
:100DF0001235E2901626EEF0A3EFF0E549242C120E
:100E0000355990163F12143B754703E53F453E6048
:100E10004E90163FE0FCA3E0FDA3E0FEA3E0FFEC54
:100E20004D4E4F603AE5492410F582E43548F5838C
:100E3000E0D39401400A901628E07002A3E0601FFE
:100E4000E549240BF582E43548F583E07011E54966
:100E5000240CF582E43548F583E0C39402500AE59A
:100E60002E7006752E01020BA1E53F2526FFE53EFB
:100E70003525FEE43524FDE43523FC90162B1214B1
:100E80003BE5342526FFE5333525FEE5323524FDE7
:100E9000E5313523FC90163312143B7D107F03128D
:100EA0003491228D55EFC8E547B402071214167825
:100EB000018008B4031212141678021214038F5919
:100EC0008E588D578C56802B1214168E568F57EFD6
:100ED00030E00543451080035345EFE556C313FE4C
:100EE000E557132557FFE5563EFEE48F598E58F51A
:100EF00057F556901638E024FFFD901637E034FF82
:100F00005EFEED5F2549F52FEE3548F52EAF59AE63
:100F100058AD57AC561234AD90162BE0F8A3E0F95B
:100F2000A3E0FAA3E02FF559EA3EF558E93DF5575D
:100F3000E83CF556E559652A7012E5586529700CAC
:100F4000E55765287006E5566527601D30090712CC
:100F50002F4CEF600122855623855724855825851F
:100F6000592612249CEF600122E5556023B4FF024C
:100F70008006E555B4010BE4F559F558F557F556DB
:100F8000800C853159853258853357853456D209BE
:100F9000E5476402703F852F82852E83E0F536A3F6
:100FA000E0F537853639853738E4F536F537AE382C
:100FB000AF39C3EF94F7EE94FF4003D38001C3929F
:100FC0000BE555600D852F82852E83E556F0A3E550
:100FD00057F07F0022E5476403705A852F82852EE3
:100FE00083E0FCA3E0FDA3E0FEA3E0F5398E388D9D
:100FF000378C36E53954F0FFE559540F4FF559E574
:1010000039540F853639F536AF388537388F37AFD5
:1010100036EFC3940F4003D38001C3920BE55560B4
:1010200011AF59AE58AD57AC56852F82852E83121D
:10103000143B7F002253570F901638E02549FF904C
:101040001637E03548CF24FFCF34FFFEEF652F7011
:1010500003EE652E6056852F82852E83E0F536855A
:101060002F82852E83A3E0F537E555700302112BFF
:10107000E54530E423E556C454F0FFE536540F4F00
:10108000852F82852E83F0E557C454F0FFE556C4C2
:10109000540F4FA3F002112B852F82852E83E55626
:1010A000F0E53754F04557A3F002112B852F8285C8
:1010B0002E83E0F536E5556024E54530E40EE5562F
:1010C000C454F0FFE536540F4FFF8002AF56852F12
:1010D00082852E83EFF0122F4CEF600122E52A2447
:1010E00001F526E43529F525E43528F524E43527EE
:1010F000F52312249CEF600122854982854883E014
:10110000F537E5556025E54530E40FE557C454F063
:10111000FFE556C4540F4FFF8007E53754F045579D
:10112000FF854982854883EFF0D209E54530E41315
:10113000E537C454F0FFE536C4540F4FF539E537B1
:10114000C48005853639E537540FF538E4F536F5B2
:1011500037AE38AF39C3EF94F7EE940F4003D38026
:1011600001C3920B7F00221200038F35E535700A10
:10117000122B9BEF70030212DA22E5356442600302
:10118000AF3522901638E024E0FF901637E034FFA8
:10119000FEC3E53F9FE53E9E50030212DAE53D7037
:1011A0000FE53A700BE53B7007E53C7003021268EF
:1011B000901636E0FF90163DE0C39FFFE52214FE37
:1011C0005FF535E53F6008EE653560030212DA7FB2
:1011D0003AE4FD120EA3EF600122200B030212DAA3
:1011E0001234FDEF6001227F3A7D02120EA3EF6000
:1011F0000122122F4CEF6001221235F1E4FFFE9024
:101200001637E06EFCA3E06F4C6013E5492FF582C2
:10121000E5483EF583E4F00FBF00010E80E1E4F500
:101220003512313FE53F7012F53EF53FAF26AE2552
:10123000AD24AC2390163A12143B852236E5366075
:101240002012234FEF600122E5262401F526E43524
:1012500025F525E43524F524E43523F523153680DA
:10126000DC122E52EF607322E53F706E90163AE06A
:10127000FCA3E0FDA3E0FEA3E024FFFFEE34FFFEAD
:10128000ED34FFFDEC34FFFC90163A12143B1224AF
:101290008AEF600122E4F53EF53FD3901638E095E1
:1012A0003F901637E0953E402EE549253FFFE54843
:1012B000353E8F82F583E0B4E510E582240BF5829C
:1012C000E43583F583E0540E60107420253FF53F2C
:1012D000E4353EF53E80C37FB2221234FDEF60015B
:1012E00022122F4CEF6001227F0612360AEF54BF04
:1012F000648060037F112285343D85333C85323B19
:1013000085313A122E52EF60012212248AEF6001D9
:1013100022E549253FFFE548353EFEE4FDEDC39457
:101320000B50047C2080027C00EF2DF582E43EF51A
:1013300083ECF00DBD20E6EF2418F582E43EF58342
:101340007421F0A37430F0EF241CF582E43EF583A1
:101350007401F0E4FDEDC3940B5021A82DE6FC6070
:101360001BECB42E047D08052DA82DE6FCEF2DF511
:1013700082E43EF583ECF00D052D80D9853D368560
:101380003C37853B38853A39EF241AF582E43EF53F
:1013900083E536F0A3E537F0EF2414F582E43E123E
:1013A0002346EF600122853D34853C33853B328501
:1013B0003A31E4F544F543F542F541F54EF54DF586
:1013C0004CF54BF5357D147F1012349122EF8DF0E2
:1013D000A4A8F0CF8CF0A428CE8DF0A42EFE22EB92
:1013E0009FF5F0EA9E42F0E99D42F0E89C45F0222C
:1013F000E8600FECC313FCED13FDEE13FEEF13FFDB
:10140000D8F122E8600FEFC333FFEE33FEED33FD7A
:10141000EC33FCD8F122E6FC08E6FD08E6FE08E61F
:10142000FF22E6FB08E6F908E6FA08E6CBF822EC2C
:10143000F608EDF608EEF608EFF622ECF0A3EDF074
:10144000A3EEF0A3EFF022D083D082E493F60874E9
:101450000193F608740293F608740393F674047308
:10146000A8828583F0D083D0821214771214771269
:101470001477121477E473E493A3C583C5F0C5838E
:10148000C8C582C8F0A3C583C5F0C583C8C582C8D6
:1014900022A42582F582E5F03583F58322E709F65B
:1014A0000870FA8046E709F20870FA803E88828C5C
:1014B00083E709F0A370FA807EE309F60870FA80EA
:1014C00076E309F20870FA806E88828C83E309F073
:1014D000A370FA806289828A83E0A3F60870FA809A
:1014E0005689828A83E0A3F20870FA804A80D2800B
:1014F000FA80C680D4806580F28031801080A6801A
:10150000EA809A80A880DA80E280CA803189828A63
:1015100083ECFAE493A3C8C582C8CCC583CCF0A3FE
:10152000C8C582C8CCC583CC70E9800D89828A8306
:10153000E493A3F60870F9ECFAA9F0EDFB22898296
:101540008A83ECFAE0A3C8C582C8CCC583CCF0A3DB
:10155000C8C582C8CCC583CC70EA80DD89828A8305
:10156000E493A3F20870F980CE88F0ED2402B4046D
:101570000050C4F582EB2402B4040050BA23234582
:1015800082239014ED73BB010689828A83E0225086
:1015900002E722BBFE02E32289828A83E49322BB14
:1015A000010CE58229F582E5833AF583E0225006B5
:1015B000E92582F8E622BBFE06E92582F8E222E56B
:1015C0008229F582E5833AF583E49322BB010689FB
:1015D000828A83F0225002F722BBFE01F322FAE650
:1015E000FB0808E6F925F0F618E6CA3AF622D08399
:1015F000D082F8E4937012740193700DA3A393F852
:10160000740193F5828883E4737402936860EFA396
:10161000A3A380DFE4F508F509F552F5539008150A
:10162000742FF0E4A3F09008111214600000000081
:101630009008227410F0750800750901C3E55395F0
:1016400009E5529508400302174090082275F012F0
:10165000E553121491E55275F012A42583F583E049
:1016600020E403021735AE52AF537C007D121213F3
:10167000CD74152FF974083EFA7B01C002C00178C1
:101680006D7C007D00D001D00212156990081175A3
:10169000F012E553121491E55275F012A42583F56A
:1016A00083E0FCA3E0FDA3E0FEA3E0F53D8E3C8DCE
:1016B0003B8C3A1200038F51E55170037FB322E552
:1016C0005164416003AF5122E5534552600E853DA0
:1016D0000D853C0C853B0B853A0A8025E547B40314
:1016E0001790163FE0FCA3E0FDA3E0FEA3E0F50D9C
:1016F0008E0C8D0B8C0A8009E4F50DF50CF50BF5BD
:101700000A122DD290081175F012E553121491E5CA
:101710005275F012A42583F583E0FCA3E0FDA3E05D
:10172000FEA3E0F53D8E3C8D3B8C3A122D4E8F5141
:10173000E5516001220553E5537002055202163C43
:101740007BFF7A2079D685085C85095D120890E4D4
:10175000F552F553C3E5539509E552950840030248
:10176000180E90082275F012E553121491E5527587
:10177000F012A42583F583E030E403021803AE528F
:10178000AF537C007D121213CD74152FF974083EEF
:10179000755C01F55D895E7BFF7A2079FD1208900A
:1017A000AE52AF537C007D121213CD74152FF97415
:1017B000083EFA7B01C002C001786D7C007D00D03C
:1017C00001D00212156990081175F012E553121438
:1017D00091E55275F012A42583F583E0FCA3E0FDAA
:1017E000A3E0FEA3E0F53D8E3C8D3B8C3A12000356
:1017F0008F51E551700D7875762008F6786D760179
:101800001221E60553E5537002055202175422E5F2
:1018100040D394145007E540C3941250037FB42280
:10182000786DE6FF08F67006300A03023189E47825
:101830006DF6786FF608F6786EE67003021977E5B4
:1018400035F4704AE53D700CE53A7008E53B7004EC
:10185000E53C602DE540B41209E547640360037F71
:10186000B122AF34AE33AD32AC31787712142F12CF
:101870003509EF6001227F777D02120EA3EF600829
:1018800022122ED1EF600122787016E4F535123164
:101890003F786FE66069E530B409047F408014E565
:1018A00030B40A047F20800BE530B40B047F108035
:1018B000027F08EF3395E0FE786FE6C39FEE648009
:1018C000F8748098502E786FE6FFE4FCFDFE787186
:1018D000121422EF2BFFEE3AFEED39FDEC38FCEF4F
:1018E0006526FFEE6525FEED6524FDEC6523FC4DC8
:1018F0004E4F600B1219EEEF600122E4786FF6781C
:101900006FE6700DAF26AE25AD24AC2378711214AE
:101910002FC3E5229535FF786EE6FEEFD39E400C8F
:10192000E60826F618E62535F535804B786FEF2664
:10193000F6C318E69FF6E670187876E665497004F7
:1019400018E66548700B1219EEEF600122E4786F1B
:10195000F67F31E4FD120EA3EF600122300B067515
:1019600035FF02183785363185373285383385396A
:1019700034E4F535021837300907122F4CEF6001B7
:1019800022786FE660071219EEEF6001227870E6A8
:101990006035AF34AE33AD32AC31787712142F7876
:1019A00070E6FFE4EFF53474FFF533F532F53112EC
:1019B0002E5CCBEFCB78771214168F348E338D32AA
:1019C0008C31EB6002FF22AF4EAE4DAD4CAC4BAB59
:1019D00044AA43A942A841C31213DF500E854E44C6
:1019E000854D43854C42854B41D20A7F0022E4F568
:1019F000467F71786FE6FD7B2A122FBAE54A602D8B
:101A0000E530B409047F088014E530B40A047F107F
:101A1000800BE530B40B047F2080027F40786FE6B6
:101A2000FEEF8EF0A485F036F537021B8F7DC87F60
:101A3000061235A1E54F30E6047F4080027F8078B2
:101A400075E6FC08E6FD1233D67875EEF608EFF67B
:101A50007D407F0B1235A1634F40AD4F7F0E123595
:101A6000A1C20BE530B409047F088014E530B40A44
:101A7000047F10800BE530B40B047F2080027F4090
:101A8000786FE6FEEF8EF0A485F036F537E537B4D3
:101A90000104E536601CE54F30E6047F4080027F9C
:101AA000807875E6FC08E6FD1233D67875EEF60808
:101AB000EFF61225D9E54A601B7DC07F061235A1DD
:101AC000E54A642E6003021B8FE5466003021B8F0C
:101AD000AF2C805B634F40E537B40104E536600707
:101AE000AD4F7F0E1235A1E537600D1537AF37EFDB
:101AF000709BE5366008809515361537808F7DC060
:101B00007F061235A190BDF1740DF090BCF0E52B6D
:101B1000F0E54FF0D20B634F801225D9E54A6017EC
:101B2000634F80E54A642E7066E5467062AF2B1203
:101B3000334375460180CE7F0B12360AEF640D7079
:101B40004E7FCC12360AEF703C786FE6786D26F641
:101B5000786FE6FEE53024F8FDE4C8EDC80880059E
:101B6000C333CE33CED8F9FFE4FCFDE54E2FF54E5E
:101B7000E54D3EF54DED354CF54CEC354BF54B1246
:101B8000361C7F00227FCC12360AEF6401600BE521
:101B90004AB416037F8222123296E546C39405505A
:101BA000121232D1E546C3940340031231D30546E5
:101BB0000219F1754A1F1234D01231D322E549259A
:101BC0003FF556E548353EF555855682F583E06488
:101BD0002E7003021D58E556240BF582E43555F5A9
:101BE00083E020E449E5562408F582E43555F58381
:101BF000E0FFB44813E5562409F582E43555F58332
:101C0000E064207003021D58EFB44522E556240914
:101C1000F582E43555F583E0B45813E556240AF50A
:101C200082E43555F583E064457003021D58900841
:101C30001575F012E509121491E50875F012A42546
:101C400083AF82F5578F58E4FFE5562FF582E435D0
:101C500055F583E0FEEF7005BE05027EE5EE6420DB
:101C60006024BF0811855882855783742EF005586B
:101C7000E55870020557855882855783EEF0055860
:101C8000E558700205570FBF0BBF855882855783F3
:101C9000E4F0AF0DAE0CAD0BAC0A90081175F0126C
:101CA000E509121491E50875F012A42583F5831255
:101CB000143BE556240BF582E43555F583E0FF909F
:101CC000082275F012E509121491E50875F012A4C6
:101CD0002583F583EFF0E556240BF582E43555F5C1
:101CE00083E030E42785085C85095DAE08AF097C98
:101CF000007D121213CD74152FF974083E755E0124
:101D0000F55F89607BFF7A21790C802585085C85E9
:101D1000095DAE08AF097C007D121213CD74152F3A
:101D2000F974083E755E01F55F89607BFF7A217961
:101D30001A1208900509E50970020508C394C8E560
:101D40000894004013E4754401F543F542F5417BE6
:101D5000FF7A21792812089022E4F534F533F53220
:101D6000F53190162FE0FCA3E0FDA3E0FEA3E0FF19
:101D7000AB34AA33A932A831D31213DF40037FB1A9
:101D800022E5342401F534E43533F533E43532F516
:101D900032E43531F5317F31E4FD120EA3EF6001FD
:101DA00022E539700FE536700BE5377007E53870BE
:101DB00003021EE4E547640160A885482E85492F8B
:101DC000E54764027051901637E0C313FEA3E01399
:101DD00024FFFFEE34FFF5368F37F5388F39740264
:101DE000252FF52FF582E4352EF52EF583E07011C1
:101DF000A3E0700D852F82852E8374FFF0A3021E51
:101E00006CE5376009D537D6E536600880D01536E1
:101E1000153780CA021ECB901637E0FEA3E0780289
:101E2000CEC313CE13D8F924FFFFEE34FFF5368F5F
:101E300037F5388F397404252FF52FF582E4352EC8
:101E4000F52EF583E06003021EB0A3E06003021EDE
:101E5000B0A3E0705BA3E0540F7055852F82852EF0
:101E60008374FFF0A3F0A3F0A3E0440FF0AE38AF0B
:101E700039EF4534FFEE4533FEE532FDE531FCEE4A
:101E8000C0E0EFC0E0E53724FFFFE53634FFCBEFDD
:101E9000CBFAD0E0FFD0E0FEC3EF9BF534EE9AF52D
:101EA00033ED9400F532EC9400F531D2097F002235
:101EB000E53760101537E5376003021E35E53660FB
:101EC0000A021E3515361537021E35AE38AF39E514
:101ED000344FF534E5334EF533E532F532E531F57F
:101EE00031021D627F317DFF120EA322E4F5467F91
:101EF00071786FE6FD7B28122FBAE54A602DE53038
:101F0000B409047F088014E530B40A047F10800B04
:101F1000E530B40B047F2080027F40786FE6FEEF4F
:101F20008EF0A485F036F53702204E90BDF1740690
:101F3000F090BCF074CCF090BDF1740DF090BCF05A
:101F4000E52BF0E54FF0D20B634F40E530B40904C8
:101F50007F088014E530B40A047F10800BE530B4AC
:101F60000B047F2080027F40786FE6FEEF8EF0A4A6
:101F700085F036F5371225D9E54A60097DC07F0620
:101F80001235A1805D634F80E537B40104E536600A
:101F900007AD4F7F0E1235A1E54F30E7047FC080BB
:101FA000027F807875E6FC08E6FD1233AA7875EEAC
:101FB000F608EFF6E5376009D537BAE536600880F0
:101FC000B41536153780AE7DC07F061235A1AD4FF2
:101FD0007F0E1235A1634F801225D9E54A601A633E
:101FE0004F80E54A642E7066E5467062AF2B12336F
:101FF000437546011235BF80DC7F0B12360AEF6451
:102000000D704B7FCC12360AEF7039786FE6786D21
:1020100026F6786FE6FEE53024F8FDE4C8EDC80842
:102020008005C333CE33CED8F9FFE4FCFDE54E2F57
:10203000F54EE54D3EF54DED354CF54CEC354BF59B
:102040004B7F00227FCC12360AEF6401600BE54A19
:10205000B416037F8222123296E546C394055012CD
:102060001232D1E546C3940340031231D305460230
:102070001EEF754A1F1234D01231D3224572726F8F
:10208000723A20253032580A004C69737420446932
:10209000726563746F72793A2025730A0053756311
:1020A000636573732C206E65772046696C65436F9A
:1020B000756E74203D2025640A004661696C656474
:1020C0002C206E65772046696C65436F756E7420B1
:1020D0003D2025640A00546F74616C2066696C654C
:1020E00026646972203D2025642C204F70656E2087
:1020F00065766572792066696C653A0A004F70658D
:102100006E2066696C653A2025730A004469722066
:10211000253464233A2025730A0046696C6525340A
:1021200064233A2025730A0046696C654E616D652B
:10213000205374727563747572652046756C6C0AF1
:102140000053746172740A005761697420556469A0
:10215000736B0A005265616479203F0A004465761A
:1021600069636520676F6E650A004E6F205564696C
:10217000736B20696E205553425F4855420A0055E3
:102180006E6B6E6F776E206465766963650A0054C6
:102190006F6F206C6172676520736563746F722066
:1021A00073697A650A0043757272656E742064699A
:1021B000736B20736563746F722073697A65203D59
:1021C000202564204279746573200A004C69737479
:1021D00020616C6C2066696C65200A0054616B6537
:1021E000206F75740A00E540D394145007E540C38E
:1021F000941250037FB422786DE608F6E418F6785E
:102200006FF6C3E544954EFFE543954DFEE54295D7
:102210004CFDE541954BFC1234AD8F398E388D372E
:102220008C36E5377004E5386006787076FF8004F8
:102230007870A639786EE6700302233B7870E670FA
:102240000302233BE535F4700302233B12313F7850
:102250006FE66069E530B409047F408014E530B46E
:102260000A047F20800BE530B40B047F1080027FCE
:1022700008EF3395E0FE786FE6C39FEE6480F87454
:102280008098502E786FE6FFE4FCFDFE7871121402
:1022900022EF2BFFEE3AFEED39FDEC38FCEF652620
:1022A000FFEE6525FEED6524FDEC6523FC4D4E4FEC
:1022B000600B121EECEF600122E4786FF6786FE697
:1022C000700DAF26AE25AD24AC23787112142FC348
:1022D000E5229535FFF5367870E6FEEFD39E400394
:1022E000E6F536E536D3786E96400CE60826F61805
:1022F000E62535F5358049C3786EE69536F608E56E
:102300003626F6C308E69536F6E5362535F5356505
:102310002260030222347F31FD120EA3EF600122FE
:10232000300B067535FF022234853631853732850C
:102330003833853934E4F535022234786FE66003AA
:10234000021EEC7F0022F583E538F0A3E539F0E4C6
:10235000F5467F237B2A7D01122FBAE54A600302EE
:1023600024627DC87F061235A1E54F30E6047F4028
:1023700080027F80AC48AD498C278D281233D68EE1
:10238000278F287D407F0B1235A1634F40AD4F7FD3
:102390000E1235A1E530B409047F088010B40A0498
:1023A0007F108009B40B047F2080027F408F37E5C7
:1023B0003764016016E54F30E6047F4080027F807D
:1023C000AD28AC271233D68E278F281225D9E54A9F
:1023D00060187DC07F061235A1E54A642E600302B5
:1023E0002462E546707CAF2C8050634F40E5376433
:1023F000016007AD4F7F0E1235A1D537B27DC07F8A
:10240000061235A190BDF1740DF090BCF0E52BF0F3
:10241000E54FF0D20B85232785242885252985269D
:102420002A634F801225D9E54A6017634F80E54A39
:10243000642E702EE546702AAF2B12334375460189
:1024400080C27F0B12360ABF0D187FCC12360AEFFE
:10245000700612361C7F00227FCC12360AEF640110
:10246000600BE54AB416037F8222123296E546C31A
:102470009405500FE546C3940340031231D305463B
:102480000223521234CA1231D32290163AE0F523B5
:10249000A3E0F524A3E0F525A3E0F526E526652ACB
:1024A0007015E5256529700FE52465287009E52379
:1024B000652770030225C5E4F5467F237B287D014F
:1024C000122FBAE54A600302259E90BDF17406F012
:1024D00090BCF074CCF090BDF1740DF090BCF0E5C0
:1024E0002BF0E54FF0D20B634F40854827854928F4
:1024F000E530B409047F088010B40A047F10800915
:10250000B40B047F2080027F408F371225D9E54A23
:1025100060097DC07F061235A18050634F80E5378A
:1025200064016007AD4F7F0E1235A1E54F30E7041F
:102530007FC080027F80AD28AC271233AA8E278F00
:1025400028D537C77DC07F061235A1AD4F7F0E124B
:1025500035A185232785242885252985262A634FAB
:10256000801225D9E54A601A634F80E54A642E70CF
:102570002DE5467029AF2B1233437546011235BF46
:1025800080D07F0B12360ABF0D147FCC12360AEFB3
:102590007002FF227FCC12360AEF6401600BE54A1D
:1025A000B416037F8222123296E546C39405500F7B
:1025B000E546C3940340031231D305460224BA1200
:1025C00034CA0231D37F002290BDF1740DF090BC6B
:1025D000F0E52CF0E54FF0C20BE4F539E4F54A12D2
:1025E000362190BDF17409F0E030E06B90BCF074DE
:1025F00011F0E0FF300B0E5407B40313EF30E43654
:10260000E4F54AFF22540FB40205E4F54AFF22EF35
:10261000540FFEBE0A05E54520E729EF5403700379
:10262000D38001C34007EE4420FFF54A227F091200
:10263000360AEF20E121E545540FFF0539AE39EEAA
:10264000D39F500D7F0E12360AEF4408FD7F0E8097
:1026500027754A207F2022754AFF7F0412360AD54B
:102660004AF87F0912360A8F39E53930E1731232A0
:1026700059BF090A7D027F091235A10225DC754088
:1026800001E4901644F07D137F091235A190163EA7
:10269000E060047DC080027D807F061235A1123289
:1026A00059EF603775400290163EE0D39401500711
:1026B000E5395480FF80157F0212360A90163EE0FD
:1026C000B403047E2080027E10EF5EFFEF6006758B
:1026D0004A157F1522754A137F1322754A167F16F5
:1026E000227D1F7F091235A1E53930E306754A06C0
:1026F0007F0622754A057F0522D294C2947F641218
:10270000330CD2941235D17BFF7A21794112089093
:1027100012346D8F501234297BFF7A2179481208C8
:10272000907F3212330C1228FEEF70F57FC81233FF
:102730000CE4F5507F3212330C7BFF7A217954126E
:102740000890123219EF603CE540C3940250087BB8
:10275000FF7A21795D801FE540C394034007E5506F
:10276000D39405501FE540B40211901644E0600B6D
:102770007BFF7A21796A12089080090550E550C3E1
:10278000946440B0E540C394035014E54064027083
:1027900090901644E0708A7BFF7A21797F8017C27F
:1027A00094D3901638E09400901637E09408400BCC
:1027B0007BFF7A21798F120890802D7F1412330CC1
:1027C0007BFF7A2179A6901637E0F55CA3E0F55DF2
:1027D000120890C2957BFF7A2179CC1208901216CC
:1027E000148F50123429D2957BFF7A2179DC12089C
:1027F000907F0A12330C1228FEEF60F5D2947FC846
:1028000012330C022718E540C3941350037FB422FF
:1028100012248AEF600122C209E549253FFFE548FD
:10282000353ECBEFCBFA7875E6FFEB240BF582E46F
:102830003AF583E0F6EFF460138B828A83E5822415
:102840000BF582E43583F583EFF0D2097873E6F572
:102850003908E6F538EB2416FFE43AFE1235E7189E
:10286000EEF608EFF6E538F4FEE539F44E6012EBCB
:102870002416F582E43AF583E538F0A3E539F0D281
:10288000097871E6F53908E6F538EB2418FFE43AE3
:10289000FE1235E718EEF608EFF6E538F4FEE539F6
:1028A000F44E6012EB2418F582E43AF583E538F033
:1028B000A3E539F0D209786D121416787912142F25
:1028C000EB241CFFE43AFE12355E786D12142F786B
:1028D00079E6F4601E1214168F448E438D428C41AB
:1028E000123615EB241CF582E43AF58312143BD220
:1028F00009C20A300905C20902234F7F00227F0660
:1029000012360AEF54404480FD7F061235A17F093C
:1029100012360AEF30E112123259EF6409600312E5
:10292000344B7D137F091235A1123259EF70030227
:1029300029F0E540C394025008754002E490164423
:10294000F0901644E07002FF22123598901643E092
:1029500060491235ACE54A702E854982854883A3CB
:10296000A3E030E00975400212356E122AD785497E
:1029700082854883E030E01E901643E02410FD7FFE
:10298000081235A17F0022E54A64166063E54A30EB
:10299000E5045403605A754002804D901643E004EC
:1029A000F01235ACE54A7024854982854883A3A39B
:1029B000E030E00612356E122AD7854982854883B9
:1029C000E030E017A3E020E1127F0022E54A641620
:1029D000601EE54A30E50454036015901644E0FF9C
:1029E000901643E0C39F40B3E4901643F07F8422E7
:1029F00012344B22E4900801F0A3F0A3F0901639B2
:102A0000E0900805F0E4F5387C307DEA7F0412356B
:102A10002D7A087B007D117F481235437D1F7F0B87
:102A20001235A11225C8E54AB416037F8222E54A71
:102A3000600FE5386003022AB912329675380180BA
:102A4000C7634F40900800E060491235BF1225D996
:102A5000E54A600DE54A642E705FAF2B1233438068
:102A600032634F807F0B12360A8F397F4F12360A3E
:102A7000BF030A7F5312360AEF6412600E1235F15B
:102A8000AB49AA48AD397FC01234E4900800E0C3D6
:102A90009539F01235BF1225D9E54A701C634F8075
:102AA0007FCC12360A8F397F0B12360ABF0D07E52D
:102AB00039C394024006754A1F023296E539700206
:102AC000FF22754A1F7F1F227F0812352D90162185
:102AD000E0FD7F441235A17F0112330C7D087F0B8E
:102AE0001235A17DD07F0D1235A17D0C0F1235A1BD
:102AF000C20B1225D9E54A6003AF4A22D20B7F46AA
:102B000012360AEF606C1235F17F0112330C7D90A2
:102B10007F0D1235A10F12360AEF6480440CFD7F41
:102B20000E1235A11225D9E54A6003AF4A227F0B68
:102B300012360A8F4A7F4712360A8F39AF39EF258E
:102B400049FBE43548FAAD4A7FC01234E4E54A2532
:102B500039F539AD397F471235A11F12360AE539EB
:102B6000C39F500CE54A5407609F754A177F172290
:102B7000C20B7F0112330CE4FD7F0B1235A1300B29
:102B8000047F0980027F01EFC454F0FD7F0D1235F0
:102B9000A17DCC0F1235A11225D922E540C3941393
:102BA0005007120003EF60012212348DEF60012202
:102BB00012248AEF600122E549253FFFE548353EB2
:102BC0008F82F58374E5F012234FEF600122AF3D51
:102BD000AE3CAD3BAC3A8F398E388D378C36EC4DF0
:102BE0004E4F604EE53D24FFF53DE53C34FFF53C9E
:102BF000E53B34FFF53BE53A34FFF53AE4F534F5CF
:102C000033F532F5317F367D01120EA3EF600122DC
:102C1000E5342401F534E43533F533E43532F53267
:102C2000E43531F531300BDD122F4CEF600122021B
:102C30002E5C7F0022E53D700CE53A7008E53B70A4
:102C400004E53C6072853D34853C33853B32853AF2
:102C500031AF22E4FCFDFE786D121422C31213DFA3
:102C600040387F31E4FD120EA3EF600122200B47B4
:102C7000853631853732853833853934786D12148D
:102C800016AB22C3EF9BFFEE9400FEED9400FDEC2B
:102C90009400FC786D12142F80B77870E6FFE5225F
:102CA000145FF53512313FAF26AE25AD24AC237845
:102CB0006D12142F7F00227535FF786D121447FFB7
:102CC000FFFFFF7F00227537647D087F251233796F
:102CD000900806740AF0E490080BF01229F48F367D
:102CE000E5367044E5492406F582E43548F583E08D
:102CF000FFB4040575300A8013B4080575300B80E5
:102D00000BB4100575300C800375300974017E001A
:102D1000A830088005C333CE33CED8F9901638F0EA
:102D2000EE901637F07F0022E5366416601DE5361A
:102D300064156017E536641360111235167F321280
:102D4000330C1537E5376003022CC9AF3622755CAA
:102D500000755D00755E6D7BFF7A207989120890A1
:102D60007B007A00796D1235838F54E55460082416
:102D70006CF8E6642F600AAF540554746D2FF87632
:102D80002FAF540554746D2FF8762A746D2554F8BE
:102D900076FF74FFF544F543F542F5411200038FC9
:102DA00054E554600964436005E554B442127BFF66
:102DB0007A20799D85085C85095D1208907F002244
:102DC0007BFF7A2079BA85085C85095D120890AF8F
:102DD0005422E540C3941250037FB422E5406412AC
:102DE000704FE54764036049901642E0F522AE4318
:102DF000E544A830088005CEC313CE13D8F9FFE40C
:102E0000FCFD90163F12143B901633E0F8A3E0F956
:102E1000A3E0FAA3E0FB901642E0FFE4FCFDFEEB2A
:102E20002FFFEE3AFEED39FDEC38FC90163312140C
:102E30003BE540D39413400AE540B41407786DE6AF
:102E40007002C20A300A07123189EF60012212347F
:102E50008D2274FFF534F533F532F531901626E006
:102E6000FCA3E0FD4C7002FF22EDCFECCEE4FCFDB4
:102E7000901622E0F8A3E0F9A3E0FAA3E02FF526EC
:102E8000EA3EF525ED39F524EC38F52312249CEFC4
:102E9000600122E54924E8FFE5483401FE12355E71
:102EA000E5342FF534E5333EF533E5323DF532E5D3
:102EB000313CF531AF34AE33AD32FC123615E54955
:102EC00024E8F582E5483401F58312143B12234FC0
:102ED00022121D62EF600564B1600122EF600712EB
:102EE0001D59EF600122122F4CEF60012285343D05
:102EF00085333C85323B85313A12248AEF600122CA
:102F0000E549253FFFE548353EFEF583EF241CF5F6
:102F100082E43583F5837401F0853D36853C378541
:102F20003B38853A398F828E83E582241AF582E414
:102F30003583F583E536F0A3E537F08F828E83E5A0
:102F4000822414F582E435831223462285272385C3
:102F50002824852925852A2612234FEF60012290F7
:102F60001628E0FEA3E0FF4E604BE4FCFDE5262FB3
:102F7000F526E5253EF525ED3524F524EC3523F53C
:102F80002312234FEF600122901628E0FEA3E0FBFE
:102F9000CAEECAC3E5269BF526E5259AF525E52464
:102FA0009400F524E5239400F523F527852428854E
:102FB000252985262AC2097F002290BDF17440F0A0
:102FC00090BCF07455F07453F07442F004F090BD6E
:102FD000F17448F0E490BCF0F0E53024F8F8ED0826
:102FE0008002C333D8FCF0E4F0F0BB2A03FE800279
:102FF0007E80EEF0901639E090BCF0F0740AF0EBB1
:10300000F0E4F0EFC8E6F008E6F008E6F008E6F0D5
:10301000E4F0F0EDF0E4F090BDF1740BF090BCF052
:10302000741FF00225C8E4F5407D557F801235A15C
:103030007DAA0F1235A11F12360ABF550A7F8112D1
:10304000360AEF64AA60037F8122E4FD7F06123511
:10305000A17F0E1235A1754585E4F54690163774AB
:1030600002F0A3E4F090163EF0F54F7D1F7F0912A9
:1030700035A17F0712360AEF54F04403FD7F071293
:1030800035A17D407F051235A112344B7F0022E52A
:1030900040C3941250037FB422AF44AE43AD42AC60
:1030A000411234AD8F398E388D378C36786D1214CD
:1030B00022D31213DF400DAF39AE38AD37AC3678BE
:1030C0006D12142F786D121416E53024F8F9F812E9
:1030D00014038F398E388D378C3685374B85384CB5
:1030E00085394DE4F54E122C3522555342430021CB
:1030F000FF00000000000080060001000012000038
:10310000050200000000008006000200000400A08C
:10311000060029000009000009000000000000A1CD
:10312000FE0000000001000201000000000000A3FA
:10313000000000010004002301100001000000E570
:103140003424FEFFE53334FFFEE53234FFFDE53184
:1031500034FFFC90162AE0F8121403901633E0F8BE
:10316000A3E0F9A3E0FAA3E02FFBEA3EFAE93DF978
:10317000E83CF8E4FCFDFEEB2535F526EE3AF525B6
:10318000ED39F524EC38F52322C20AE540C3941446
:10319000403E12248AEF600122E549253FFFE548C1
:1031A000353ECBEFCBFAF583EB240BF582E4358388
:1031B000F583E020E41AAF44AE43AD42AC41123691
:1031C00015EB241CF582E43AF58312143B02234FDD
:1031D0007F00227F0212330C7D117F091235A1126C
:1031E0003259EF600BE54A64166005E540B401030F
:1031F00002344BE540C394034015854A377D127F66
:10320000031233791229F485374A7F0212330CE511
:103210004A70037F1022AF4A221228FEEF6001227B
:10322000E540C39403501B12046FEF600C7F321211
:10323000330C12046FEF600122122CC6EF60030200
:1032400031D3E4FDFF1233791229F48F36E536705D
:1032500002FF22123516AF362290163EE0FEB40170
:10326000047F028006EEB4020A7F0312360AEF548E
:1032700009FF2290163EE0B4030D7F0312360AEFD9
:103280005490C4540FFF22E490163EF07F0912368A
:103290000AEF5420FF22854A387F0212330C12288D
:1032A000FE8F4AE54A6003AF4A227C307DEF122A46
:1032B000C8E54AB416037F8222E54A700AAF2B1292
:1032C0003343AF2C1233437F0212330CAF388F4A93
:1032D00022786FE67E00A830088005C333CE33CE57
:1032E000D8F9FDCCEECCE537AE367806C333CE3315
:1032F000CED8F9FFC3ED9FFFEC9EFEC3E49FFFE431
:103300009EFE7876EF26F618EE36F622CEEFCE7FCA
:103310000612360AEFF4602AEF30E7268E397F0472
:1033200012360AEF20E5F7AF391539EF60147F0444
:1033300012360AEF30E5F77F0412360AEF30E5E780
:1033400080F5228F397C317D277F0812352DE539B4
:10335000C4540FFFBF090DE539540F4480F53953AC
:103360004F7F800FE539C4540FFFBF010653390F5B
:10337000534FBFAD39122AD222900800EDF06004FD
:103380007E8080027E00900804EEF09008067406AD
:10339000F0A3EFF0E4A3F0A3F0A3F0A3EDF0E4A317
:1033A000F0A3F0A3F0A3F0A3F02290BDF1EFF0ECB6
:1033B000FEEDFF7D1090BCF0E0FCE0FBE0FAE08E5B
:1033C000838F82CCF0A3EBF0A3EAF0A3ECF0A3AEE2
:1033D00083AF82DDE02290BDF1EFF0ECFEEDFF7DEA
:1033E000108E838F82E0A3FCE0A3FBE0A3FAE0A3AE
:1033F000AE83AF8290BCF0CCF0EBF0EAF0ECF0DD05
:10340000E022EFB40A07740D12340D740A309811DB
:10341000A899B8130CC2983098FDA899C298B81111
:10342000F63099FDC299F59922EF601E7BFF7A2054
:10343000797C755C008F5D120890C2947FC812334E
:103440000CD2947FC812330C80F022754001E490B6
:103450001644F0FD7F081235A190163EE060047D11
:10346000C080027D807F061235A17F8222E581D354
:1034700094EE40037FFC22123625EFC394145003D0
:103480007FFF22754800754900123026227D107F8B
:1034900010E540C39F40028D40E5406D7002FF2261
:1034A0007540011228FEEF6001227F8322C3E4CC25
:1034B00013CD13CE13FFE53024F7600DF8C3ED13E1
:1034C000FDEE13FEEF13FFD8F4221235F1754A1FFB
:1034D000E540B4120475400322E540D39410400344
:1034E0007540102290BDF1EFF0ED601090BCF0E05F
:1034F0008B828A83F00BBB00010ADDF022853D340C
:10350000853C33853B32853A31121D62EF64B160F0
:103510000122121D59227F0A12330C7D127F0312E1
:1035200033791229F47F0212330CAF4A2290BDF195
:103530007440F07E008D828C83EE9390BCF0F00E90
:10354000DFF32290BDF1EFF08B828A83E090BCF034
:10355000F00BBB00010ADDF022FFE43548FE8F824C
:103560008E83E0FFA3E0FEA3E0FDA3E0FC227C311C
:103570007D377F0812352D901643E0547FFD7F4440
:103580000235A1E4FFFE121586600C0FEF70010EEC
:1035900009E970F20A80EF2290163EE02402FD7FD6
:1035A0000890BDF1EFF090BCF0EDF0227C317D2F62
:1035B0007F0812352D901643E0547F122AD12290B5
:1035C000BDF1740DF090BCF0E52BF0E54FF0D20B9F
:1035D00022759850758780758921758DF3D28ED2AA
:1035E0009922FFE43548FE8F828E83E0FFA3E0FE40
:1035F0002274FFF52AF529F528F527C20922787FDC
:10360000E4F6D8FD75818A0226F990BDF1EFF090BD
:10361000BCF0E0FF22EFCCFFEECDFE227FFADFFE12
:083620002220B2FD227F1422DA
:00000001FF
