:10000000020A92E5332427F8E605332278243007E4
:10001000027827E475F0011206B502065D2000EBB8
:100020007F2ED2008018EF540F2490D43440D4FF98
:1000300030040BEF24BFB41A0050032461FFE534F1
:10004000600215340537E5377002053630070D7844
:1000500024E475F0011206B5EF0206A3020D2B741D
:1000600003D2078003E4C207F5338B248A2589264F
:10007000E4F534F536F537E53460077F2012003EAD
:1000800080F57535FFC201C200C202C203C205C2BB
:1000900006C20812000CFF700D3007057F00120029
:1000A0004FAF37AE3622B4255FC2D5C20412000C62
:1000B000FF24D0B40A00501A75F00A783430D50500
:1000C00008B6FF0106C6A426F620D5047002D203A6
:1000D00080D924CFB41A00EF5004C2E5D204020242
:1000E0004FD20180C6D20080C0D20280BCD2D5805F
:1000F000BAD20580B47F2012003E2002077401B5F9
:10010000340040F1120003FF12003E020077D208D3
:10011000D2068095120003FB120003FA120003F9C5
:100120004A4B700679207A037BFF20022EE534606B
:100130002A7E008E8275830012067660060EEE65BA
:100140003570F0C2D5EBC0E0EAC0E0E9C0E0EE12E5
:100150000296D0E0F9D0E0FAD0E0FB12065DFF6035
:10016000AAEBC0E0EAC0E0E9C0E012003ED0E02423
:1001700001F9D0E03400FAD0E0FBE5350460DCD5CD
:1001800035D980877BFF7A027992D202809C7910E0
:1001900080027908C206C2088008D2D5790A800494
:1001A000790AC2D5E535047002F535E4FAFDFEFFA3
:1001B000120003FC7B08200113120003FD7B1030AA
:1001C000000A120003FE120003FF7B20EC3382D5ED
:1001D00092D55013C3E43000069FFFE49EFEE42056
:1001E00001039DFDE49CFCE4CBF8C201EC700CCF54
:1001F000CECDCCE824F8F870F38017C3EF33FFEED0
:1002000033FEED33FDEC33FCEB33FB994002FB0F87
:10021000D8E9EB300105F8D0E0C448B201C0E00AEB
:10022000EC4D4E4F78207B0070C2EAB5350040BCE3
:10023000C0E0120298D0F0D0E0200104C4C0E0C4B5
:10024000B201C0F0120027D0F0D5F0EB0200771217
:1002500006C5011453018E5800E54C00E14201929D
:100260004F019A44019A4900FA4301A0550184467E
:1002700001844501844703405000E92D00ED2E0123
:10028000102B00F123010E2003292A00A9480000A9
:1002900001083F3F3F00790AA2D520031430050929
:1002A000B910020404B9080104A2D52006025001C5
:1002B000042002689202B534005034C0E07F203040
:1002C00003197F30A20272067205500F1202EFC2AC
:1002D00002C206C205C2087F30800F300503E9C0A4
:1002E000E012003E300503D0E0F9D0E0B534CC3068
:1002F00005177F30B9100C12003E7F583004077F7D
:10030000788003B9080312003E3002057F2D0200F9
:100310003E7F202008F87F2B2006F322920280CF18
:10032000286E756C6C2900D2011200033001F8C2EE
:1003300001783430D50108F60200A92D5043495800
:100340001200032403B405004001E490033B931220
:10035000002F743A12002FD20375340402018E7FED
:1003600032120E03120E5B120DAF7BFF7A08796D0D
:10037000120065120D52120E2F7BFF7A08797F1240
:100380000065120E46EF6003120C267F09120E3B29
:10039000EF30E5047F0180027F00EF60E57FFA1215
:1003A0000E03120E46EF6003120C267BFF7A0879CB
:1003B0008F120065120D74E4F5227F09120E3BEFD7
:1003C00030E5047F0180027F00EF700E7F01120E86
:1003D000030522E522C3946440E0120E46EF600359
:1003E000120C267F09120E3BEF30E5047F018002DC
:1003F0007F00EF602C7F04120E3BEF30E3047F019F
:1004000080027F00EF7BFF600C7A08799D12006507
:10041000120DC780187A0879B6120065120DF080A7
:100420000C7BFF7A0879CE1200650203767F3212C8
:100430000E037BFF7A0879DD1200657B007A007974
:1004400044120C658F23E52364146002806BE4F58D
:1004500022900984E493FFE522C39F50187BFF7A22
:100460000879FC74442522F8E6752700F528120067
:1004700065052280DC7BFF7A0979021200657BFF2B
:100480007A0979041200657F02120BA28F23E523FB
:100490006414600280237BFF7A0979021200657B75
:1004A000FF7A0979141200657B007A007944120BF7
:1004B0001E8F23E523641460047BFF8046E4F5224D
:1004C000E522C378469650187BFF7A0879FC74447D
:1004D0002522F8E6752700F528120065052280E040
:1004E0007BFF7A0979021200657BFF7A0979251270
:1004F00000657849E6FF120CA38F23E52364147B83
:10050000FF600B7A0879EE7527008F2880167A092C
:1005100079021200657BFF7A0979341200657BFF4E
:100520007A09794A1200657BFF7A09796D120065B4
:10053000120E46EF6003120C267F09120E3BEF30BD
:10054000E5047F0180027F00EF70E57F64120E03F7
:100550007F09120E3BEF30E5047F0180027F00EF40
:10056000700302037680C0E709F608DFFA8046E7E9
:1005700009F208DFFA803E88828C83E709F0A3DF66
:10058000FA8032E309F608DFFA8078E309F208DF3F
:10059000FA807088828C83E309F0A3DFFA80648993
:1005A000828A83E0A3F608DFFA805889828A83E092
:1005B000A3F208DFFA804C80D280FA80C680D48013
:1005C0006980F28033801080A680EA809A80A880BB
:1005D000DA80E280CA803389828A83ECFAE493A3CA
:1005E000C8C582C8CCC583CCF0A3C8C582C8CCC559
:1005F00083CCDFE9DEE7800D89828A83E493A3F66A
:1006000008DFF9ECFAA9F0EDFB2289828A83ECFA83
:10061000E0A3C8C582C8CCC583CCF0A3C8C582C836
:10062000CCC583CCDFEADEE880DB89828A83E49371
:10063000A3F208DFF980CC88F0EF60010E4E60C3B2
:1006400088F0ED2402B4040050B9F582EB2402B422
:10065000040050AF23234582239005B773BB0106E6
:1006600089828A83E0225002E722BBFE02E32289CC
:10067000828A83E49322BB010CE58229F582E5831B
:100680003AF583E0225006E92582F8E622BBFE0611
:10069000E92582F8E222E58229F582E5833AF583AD
:1006A000E49322BB010689828A83F0225002F7225A
:1006B000BBFE01F322FAE6FB0808E6F925F0F6187E
:1006C000E6CA3AF622D083D082F8E493701274011D
:1006D00093700DA3A393F8740193F5828883E47358
:1006E0007402936860EFA3A3A380DF8B308A318903
:1006F000327D087F40120D027D087F0B120DE57FD1
:1007000064120E1B7540007541C8E4FB7D0DFF129D
:100710000BE7AC07EC64146003020857753C01ABAF
:1007200030AA31A932900006120676F53B7003021A
:10073000081DE53445354533700302081D853B39F6
:1007400012065D30E76BE53960627F64120E1B753F
:1007500040007541C8AB3C7D09E4FF120BE7AC07D4
:10076000EC641470477F0B120E3B8F3AAB33AA3404
:10077000A935AD3A7FC0120CD7E53A2535F535E4F9
:100780003534F534E53AD395395009C3E539953A0E
:10079000F5398003E4F539E50914553A700EE53C66
:1007A00060047F0080027F018F3C809AE4F53C80EA
:1007B00065E539605E7F64120E1BE539C39509401B
:1007C00004AF098002AF398F3AAB33AA34A935ADF3
:1007D0003A7F40120D02AD3A7F0B120DE5754000D5
:1007E0007541C8AB3C7D01E4FF120BE7AC07EC643C
:1007F000147020E53A2535F535E43534F534C3E594
:1008000039953AF539E53C60047F0080027F018F1D
:100810003C809E753C01C3E53B9539F53BEC641487
:100820007035FD7F0B120DE57F64120E1BE53C60F9
:10083000047D0980027D017540007541C87B01E49B
:10084000FF120BE7AC07E53C600DBC140A7F0B12EE
:100850000E3BEF60027C17E53745384536600BAB41
:1008600036AA37A938E53B1206A3AF0422537461B8
:10087000727420434833373420486F73740A00572A
:100880006169742044657669636520496E0A005287
:1008900065736574204465766963650A0053746105
:1008A00072742046756C6C2D5370656564204465C8
:1008B000766963650A005374617274204C6F772DFA
:1008C0005370656564204465766963650A00446514
:1008D0007669636520676F6E6520210A004765743D
:1008E00044657669636544657363723A20004552D6
:1008F000524F52203D20253032580A0025303258C0
:1009000020000A0053657455736241646472657314
:10091000733A2000476574436F6E66696744657378
:1009200063723A2000536574557362436F6E666953
:10093000673A2000555342206465766963652072EA
:1009400065616479206E6F770A00646F20736F6D44
:10095000657468696E672C2072656164202F20774A
:1009600072697465202E2E2E2E2E2E0A0057616974
:100970007420446576696365204F75740A008006AB
:1009800000010000120080060002000004000005C3
:1009900002000000000000090000000000008F437A
:1009A000AA05A903E4FBEAC454F0FFE543540F4F42
:1009B000FD7F0D120DE5E960047DC880027D087F92
:1009C0000E120DE5120D95AC07BCFA01227F09123B
:1009D0000E3BAC07EC30E1327FC8120E1B7D137F5B
:1009E00009120DE5EC30E51F7F06120E3BEC30E7F7
:1009F0000BEF543060037F13227F1522EF543060D9
:100A0000037F15227F13227F1622EC30E0667D11D2
:100A10007F09120DE50F120E3BAC07EC540FFFEAF5
:100A200024F7602524FC6004240C7045BF02037F7A
:100A30001422EF640E6035BF0A028030EC5403705C
:100A400003D38001C3403F8023EC5407FEBE03075D
:100A5000EC30E4327F1422EF640E6003BF0A0280A0
:100A60000BEC54037003D38001C3401AEF4420FF02
:100A7000227FFA227FC8120E1B7D1F7F09120DE50F
:100A8000EB60037FFA220BEB640360030209A67F8D
:100A90002022787FE4F6D8FD758183020AD902030B
:100AA0005FE493A3F8E493A34003F68001F208DF28
:100AB000F48029E493A3F85407240CC8C333C45426
:100AC0000F4420C8834004F456800146F6DFE480DA
:100AD0000B0102040810204080900E57E47E019321
:100AE00060BCA3FF543F30E509541FFEE493A360AC
:100AF000010ECF54C025E060A840B8E493A3FAE407
:100B000093A3F8E493A3C8C582C8CAC583CAF0A357
:100B1000C8C582C8CAC583CADFE9DEE780BE8B24A8
:100B20008A2589268B338A348935753600753700D6
:100B30007538277BFF7A0979861206EBEF6414700B
:100B40006090098C93FEE527C39E50047F17805167
:100B500078287C007D007BFF7A0979867E007F08FB
:100B6000120637AB24AA25A926900002120676F5B4
:100B70002E8B338A348935753600753700753827E2
:100B80007B007A0079281206EBBF1415AB24AA2546
:100B9000A926900002120676FEE527C39E50027F2A
:100BA00017228F2478257C007D007BFF7A09798EBF
:100BB0007E007F08120637852427753300753400C0
:100BC0007535007536007537007538007B007A0082
:100BD00079251206EBAC07BC1405AF24120E507F2A
:100BE00003120E03AF04228F3D8D3E8B3FE4F5428E
:100BF000AB3FAD3EAF3D12099EBF2A06E5414540E1
:100C00007001227F14120E1B0542E542C394284056
:100C1000DFC3E54194FFE54094FF50D1E541154124
:100C200070CB154080C77F09120E3BAE07EE30E156
:100C30002C7D127F09120DE5EE30E51D7F06120EA8
:100C40003BEE30E707EF543060078009EF54306027
:100C5000047508152275081322750816227D1D7F5C
:100C600009120DE5228B248A2589268B338A348943
:100C7000357536007537007538277BFF7A09797E20
:100C80001206EBBF141CAB24AA25A926900007125C
:100C90000676F509900984E493FEE527C39E500289
:100CA0007F17228F2478257C007D007BFF7A0979CD
:100CB000967E007F08120637852427753300753429
:100CC000007535007536007537007538007B007A81
:100CD0000079251206EB228B3D8A3E893F90BDF1BB
:100CE000EFF0AF051DEF601990BCF0E0FFAB3D05E4
:100CF0003FE53FAA3E7002053E14F9EF1206A380BD
:100D0000E1228B3D8A3E893F90BDF1EFF0AF051D9A
:100D1000EF6017AB3D053FE53FAA3E7002053E146C
:100D2000F912065D90BCF0F080E322EFB40A07747C
:100D30000D120D36740A309811A899B8130CC29888
:100D40003098FDA899C298B811F63099FDC299F56E
:100D50009922E4FD7F06120DE5120DDC7D1F7F094F
:100D6000120DE57D037F07120DE57D407F05120D15
:100D7000E5020E2F750908120DDC7D817F06120D2C
:100D8000E57F14120E03120E2F7F01120E037D1643
:100D90007F09020DE5E4FDFC120E46EF60037F00C3
:100DA000220DBD00010CBC27EFBD10EC7FFA2275AF
:100DB000985075878075CAF375CCF375CBFF75CDE8
:100DC000FF75C834D299227F06120E3BEF54CF44F0
:100DD00040FD7F06120DE57F01020E03E4FF120EB7
:100DE00050E4FD7F0E90BDF1EFF090BCF0EDF022ED
:100DF0007F06120E3BEF4470FD7F06120DE57F016A
:100E0000020E03AD07AF051DEF6008120E14120E9F
:100E10001480F2227FFA120E1B7FFAAE071FEE70CB
:100E2000FA2290BDF1EFF0E05D4B90BCF0F0227D36
:100E3000807F06120DE57DC0020DE590BDF1EFF05B
:100E400090BCF0E0FF2230B2047F0080027F0122DC
:0C0E5000AD077F08020DE5010908002233
:00000001FF
