:10000000022ECEE540C394105007120B8AEF600118
:1000100022122D72EF600122C20A7850E6645C6001
:1000200004E6B42F05752D5180177851E6643A60C7
:10003000030200EF18E6C3944350030200EF752D4E
:1000400053E547B4031090021EE0FCA3E0FDA3E0DB
:10005000FEA3E0FF8005E4FFFEFDFC8F3D8E3C8D9E
:100060003B8C3AA82DE660030200F274FFF544F5DC
:1000700043F542F541E54764036057753D02900240
:1000800012E0FCA3E0FDA3E0FEA3E0FF900221E06C
:10009000FBC3EF9BFFEE9400FEED9400FDEC94009B
:1000A000FC900212121429900220E0FEA3E0A83076
:1000B000088005C333CE33CED8F9FFE48F448E4396
:1000C000F542F541AF22FCFDFE90021E1214297587
:1000D0002280853D34853C33853B32853A31E4F5D9
:1000E0004EF54DF54CF54BF5357540127F412275B7
:1000F0002D50A82DE6B4E5027605E53D700CE53AF5
:100100007008E53B7004E53C6038852235E53D2408
:10011000FEFFE53C34FFFEE53B34FFFDE53A34FFEE
:10012000FC900209E0F81213F1900212E0F8A3E04B
:10013000F9A3E0FAA3E02FFFEA3EFEE93DFDE83C2B
:100140008024900221E0F535AF35CB900212E0FC1F
:10015000A3E0FDA3E0FEA3E0C39BFFEE9400FEED51
:100160009400FDEC9400FC900219121429E53570FE
:1001700003020422121BDEEF600122E4F53EF53F8C
:10018000D3900217E0953F900216E0953E5003028F
:1001900003FEE549253FF52FE548353EF52E852F31
:1001A00082F583E0FF700302044FEF64E570030201
:1001B00003F0BF05027FE5A82DE6FE6F6008EE6440
:1001C0002A60030203F0E4F539FFEFC3940B507883
:1001D000E52F2FF582E4352EF583E0FEAD39E52DD0
:1001E0002DF8EE66605DAD39E52D2DF8E66015ADB4
:1001F00039E52D2DF8E6645C600AAD39E52D2DF862
:10020000E6B42F1FEE6420703FEFC394085010E552
:100210002F2408F582E4352EF583E0642070297FD1
:100220000B8025AE39E52D2EF8E6B42E1BE539649A
:1002300008600EE52F2FF582E4352EF583E0B4201B
:10024000077F070F05398082EFC3940B5003020329
:1002500031E52F240BF582E4352EF583E030E303FE
:10026000020331C20BE52F241AFFE4352EFE122EB5
:10027000B7E48F3D8E3CF53BF53AE547B40310E516
:100280002F2414FFE4352EFE122EB78E3A8F3BAF8B
:1002900039E52D2FF8E66006200B03020327853D84
:1002A00034853C33853B32853A31E4F54EF54DF5E6
:1002B0004CF54BF535E52F240BF582E4352EF5830F
:1002C000E030E41F74FFF544F543F542F5417D133A
:1002D0007F10122D76EF600122300B047F438002E5
:1002E0007F4122E52F241CFFE4352EFE122E438F82
:1002F000448E438D428C41E53D7017E53A7013E51D
:100300003B700FE53C700B7535FFF544F543F54246
:10031000F5417D147F10122D76EF600122300B0421
:100320007F4380027F0022E53904252DF52D020050
:10033000F2AF39E52D2FF8E6642A60030203F0E5F9
:100340002F240BF582E4352EF583E030E30302031E
:10035000F0E53904252DF8E67053E4FFF537E52F75
:100360002FF582E4352EF583E06420602FBF080A64
:10037000AE37E52D2EF8762E0537E52F2FF582E4E2
:10038000352EF583E0FEAD37E52D2DF8EEF6E53799
:100390007008A82DE6B4050276E505370FBF0BBE41
:1003A000AF37E52D2FF8E4F6D20B020265E53904EC
:1003B000252DF8E6F47032E544700CE5417008E54F
:1003C000427004E5436093E54130E703122EF8E5FF
:1003D0004424FFF544E54334FFF543E54234FFF59B
:1003E00042E54134FFF5418007E53904252DF81633
:1003F0007420253FF53FE4353EF53E020180900232
:1004000019E0FCA3E0FDA3E0FEA3E02401FFE43E2D
:10041000FEE43DFDE43CFC9002191214291535025E
:10042000016DE53D700CE53A7008E53B7004E53C74
:10043000601D7F3AE4FD120EA3EF600122200B0F36
:1004400085363A85373B85383C85393D0200F2E4F4
:10045000FFE52D2FF8E6FE6013642A600FEE645C62
:100460006004EEB42F037FB3220F80E57F4222E5C4
:1004700040D394024003754002122193EF600122A1
:10048000900223E060030205787F07122EDA8F378F
:10049000E53754F0FD7F07122E7190021DE06004D5
:1004A0007DC080027D807F06122E71E4FD7F0E12DA
:1004B0002E717F01122BC990021DE06034B4020C32
:1004C0007F03122EDAEF54F04402801190021DE0F7
:1004D000B4030F7F03122EDAEF540F4420FD7F0385
:1004E00080137F02122EDAEF54F04402FD7F028067
:1004F000047D817F06122E717F01122BC9122B51B0
:10050000EF6006122B51EF70057F19122BC9900274
:100510001DE06034B4020C7F03122EDAEF54F04475
:1005200001801190021DE0B4030F7F03122EDAEF59
:10053000540F4410FD7F0380137F02122EDAEF5414
:10054000F04401FD7F0280047D807F06122E717DC4
:10055000C07F06122E717538327F05122BC97D1FA0
:100560007F09122E71AD377F07122E71122193EF82
:100570006054D538E47F82227F0A122BC9122E687C
:10058000122E537D037F41122E710D0F122E711208
:10059000236CE54A6010122E537D017F42122E71AA
:1005A00012236C02072A122E7CE54A700C854982C0
:1005B000854883A3A3E030E4ED122E537D147F42DF
:1005C000122E7112236C7F32122BC9E4FD7F0812A8
:1005D0002E717C297D68122E1212236CE54A70B6AA
:1005E0007C297D707F08122E1290021DE0FF6008AA
:1005F0002402FD7F42122E71900223E0600E9002D1
:1006000022E0547F2410FD7F42122E7112236CE5EC
:100610004A70837F42122EDAEFCD7F08122E717F4F
:100620000A122BC97C297D787F08122E1212236CA6
:10063000E54A600302072A854982854883A3A3E02F
:10064000FD7F46122E71E4FD0F122E7112236CE510
:100650004A600302072AE5492405F582E43548F596
:1006600083E0F537E549240EF582E43548F583E06B
:10067000FD6408706AE549240FF582E43548F58386
:10068000E0B4060543452080035345DFE549240BCC
:10069000F582E43548F583E0900200F0E4F538AFE8
:1006A00038EF75F007A42549FFE5F03548CF24144D
:1006B000CF34008F82F583E0F539A3A3E064407066
:1006C0004DE53930E708540F4490F52B8008E539A3
:1006D000540F4410F52C0538E538B402C28034EDCF
:1006E0006409702A900223E070247C297D807F08B1
:1006F000122E1212236CE54A7030E4900222F0852B
:100700004982854883A3A3E0900223F07005754ACF
:100710001F80177C297D887F08122E12AD377F42FB
:10072000122E7112236CE54A6045900222E0603C73
:1007300020E739854A37900223E0FF900222E0C388
:100740009F5021E004F0F5381221938F39E539707C
:1007500003020578E539B48203AF3922900222E51D
:1007600038F080D285374AE4900222F0AF4A2290D6
:100770000223E06036900222E07030900222E00412
:10078000F0122E537D037F41122E717D080F122E21
:100790007112236C900223E0FF900222E0C39F407D
:1007A000DAE4F07FC8122BC9020479E54F540444FF
:1007B00008F54F7C297D9012235DE54A700B854931
:1007C00082854883E0F5378012E54AB42E0AE4FFBB
:1007D000122C00E4F5378003AF4A227F02122BC9A6
:1007E000E4900218F07D247F12122C361222898F99
:1007F00039E5397023E5376018900218E0701285EA
:100800004982854883E0B405089002187401F0809D
:10081000D47D037F02022D76E537600E900218E04A
:10082000C394035005E004F080BB122A8C22E51823
:10083000240CF8E60518227809300702780CE475D4
:10084000F00112158F0215372000EB7F2ED20080A9
:1008500018EF540F2490D43440D4FF30040BEF240D
:10086000BFB41A0050032461FFE519600215190591
:100870001CE51C7002051B30070D7809E475F001BA
:1008800012158FEF02157D022CE77403D207800347
:10089000E4C207F5188B098A0A890BE4F519F51BE0
:1008A000F51CE51960077F2012086980F5751AFFAD
:1008B000C201C200C202C203C205C206C2081208B7
:1008C00037FF700D3007057F0012087AAF1CAE1B92
:1008D00022B4255FC2D5C204120837FF24D0B40A5F
:1008E00000501A75F00A781930D50508B6FF0106D0
:1008F000C6A426F620D5047002D20380D924CFB432
:100900001A00EF5004C2E5D204020A7AD20180C66E
:10091000D20080C0D20280BCD2D580BAD20580B4C9
:100920007F201208692002077401B5190040F112F6
:10093000082EFF1208690208A2D208D2068095127A
:10094000082EFB12082EFA12082EF94A4B7006796F
:100950004B7A0B7BFF20022EE519602A7E008E82E7
:1009600075830012155060060EEE651A70F0C2D540
:10097000EBC0E0EAC0E0E9C0E0EE120AC1D0E0F965
:10098000D0E0FAD0E0FB121537FF60AAEBC0E0EA36
:10099000C0E0E9C0E0120869D0E02401F9D0E034F9
:1009A00000FAD0E0FBE51A0460DCD51AD980877B19
:1009B000FF7A0A79BDD202809C791080027908C240
:1009C00006C2088008D2D5790A8004790AC2D5E522
:1009D0001A047002F51AE4FAFDFEFF12082EFC7BE1
:1009E0000820011312082EFD7B1030000A12082E79
:1009F000FE12082EFF7B20EC3382D592D55013C314
:100A0000E43000069FFFE49EFEE42001039DFDE428
:100A10009CFCE4CBF8C201EC700CCFCECDCCE8242A
:100A2000F8F870F38017C3EF33FFEE33FEED33FDBC
:100A3000EC33FCEB33FB994002FB0FD8E9EB3001C0
:100A400005F8D0E0C448B201C0E00AEC4D4E4F7842
:100A5000207B0070C2EAB51A0040BCC0E0120AC395
:100A6000D0F0D0E0200104C4C0E0C4B201C0F01254
:100A70000852D0F0D5F0EB0208A212159F093F539F
:100A800009B95809104C090C4209BD4F09C5440960
:100A9000C54909254309CB5509AF4609AF4509AFFB
:100AA000470B6B5009142D09182E093B2B091C23E9
:100AB0000939200B542A08D448000009333F3F3F2E
:100AC00000790AA2D5200314300509B910020404E4
:100AD000B9080104A2D52006025001042002689240
:100AE00002B519005034C0E07F203003197F30A2D6
:100AF0000272067205500F120B1AC202C206C2051C
:100B0000C2087F30800F300503E9C0E01208693069
:100B10000503D0E0F9D0E0B519CC3005177F30B926
:100B2000100C1208697F583004077F788003B908D9
:100B3000031208693002057F2D0208697F20200812
:100B4000F87F2B2006F322920280CF286E756C6C02
:100B50002900D20112082E3001F8C201781930D5CF
:100B60000108F60208D42D5043495812082E2403D8
:100B7000B405004001E4900B669312085A743A12CF
:100B8000085AD2037519040209B9E540C394035009
:100B90000A12046FEF600122122616122EC1E4F52C
:100BA0002EE4F526F525F524F523121BF0EF600D54
:100BB000122B8E122616121BF0EF600122E52E700A
:100BC0000D854982854883E054FD64E96053E4FD66
:100BD000ED64406049E54924BEFFE5483401FEED7F
:100BE0007A002FFFEA3EF583EF2404F582E4358393
:100BF000F583E06023E54924BEFFE5483401FEEDBE
:100C00002FFFEA3ECF2408CF3400FE122E438F265A
:100C10008E258D248C23800974102DFD80B27F9247
:100C200022AF26AE25AD24AC239002011214291266
:100C30001BF0EF600122854982854883E054FD6402
:100C4000E960037FA122E549240DF582E43548F5EA
:100C500083E0F522F5479002097406F0E54720E6A7
:100C600011E54725E0F547900209E014F070ED75B5
:100C70002201E5492416122EB2900207EEF0A3EFEE
:100C8000F04E702CE5492424122E3E8F348E338D85
:100C9000328C31E4FBFA7901F8D31213CD5007E519
:100CA0002E60037FA222900207E533F0A3E534F023
:100CB000E5492414F582E43548F583E0FFE549244D
:100CC00013F582E43548F583E04F6012E5492413BB
:100CD000122EB2E48F3D8E3CF53BF53A800FE5498C
:100CE0002420122E3E8F3D8E3C8D3B8C3AE54924CC
:100CF00011122EB2CCEECCCDEFCD900216E0FEA3B9
:100D0000E07805CEC313CE13D8F9147E002DFFEE84
:100D10003CFEE53024FBFDEFC8EDC8088005CEC3DE
:100D200013CE13D8F9FFE4FCFD90021E121429E53E
:100D300049240E122EB28E3E8F3F900208E0253FCE
:100D4000FF900207E0353EFEE4FCFD90021EE0F855
:100D5000A3E0F9A3E0FAA3E02FF534EA3EF533ED82
:100D600039F532EC38F531E5492410F582E435489F
:100D7000F583E0D39401401E900207E0FEA3E0FF5C
:100D8000E5342FF534E5333EF533ED3532F532EC0D
:100D90003531F5318007E4900207F0A3F0C3E53D5B
:100DA0009534FFE53C9533FEE53B9532FDE53A95FC
:100DB00031FC900209E0F81213DE90020E121429A1
:100DC000E47BF57AFFF9F8D31213CD401FE49002CB
:100DD00005F0A3F0900210E0FEA3E094F5EE940F6E
:100DE00050057547018024754702801FE54924306E
:100DF000122EB2900205EEF0A3EFF0E549242C127A
:100E00002E3E90021E121429754703E53F453E60B1
:100E10004E90021EE0FCA3E0FDA3E0FEA3E0FFEC89
:100E20004D4E4F603AE5492410F582E43548F5838C
:100E3000E0D39401400A900207E07002A3E0601F33
:100E4000E549240BF582E43548F583E07011E54966
:100E5000240CF582E43548F583E0C39402500AE59A
:100E60002E7006752E01020BA1E53F2526FFE53EFB
:100E70003525FEE43524FDE43523FC90020A1214E6
:100E800029E5342526FFE5333525FEE5323524FDF9
:100E9000E5313523FC9002121214297D107F0312D4
:100EA0002D76228D09EFC8E547B4020712140478A5
:100EB000018008B4031212140478021213F18F0D8A
:100EC0008E0C8D0B8C0A802B1214048E0A8F0BEF64
:100ED00030E00543451080035345EFE50AC313FE98
:100EE000E50B13250BFFE50A3EFEE48F0D8E0CF596
:100EF0000BF50A900217E024FFFD900216E034FF84
:100F00005EFEED5F2549F52FEE3548F52EAF0DAEAF
:100F10000CAD0BAC0A122D9290020AE0F8A3E0F996
:100F2000A3E0FAA3E02FF50DEA3EF50CE93DF50B41
:100F3000E83CF50AE50D652A7012E50C6529700C90
:100F4000E50B65287006E50A6527601D3009071264
:100F50002818EF600122850A23850B24850C25853E
:100F60000D26121BF0EF600122E5096023B4FF0299
:100F70008006E509B4010BE4F50DF50CF50BF50A57
:100F8000800C85310D85320C85330B85340AD209EE
:100F9000E5476402703F852F82852E83E0F536A3F6
:100FA000E0F537853639853738E4F536F537AE382C
:100FB000AF39C3EF94F7EE94FF4003D38001C3929F
:100FC0000BE509600D852F82852E83E50AF0A3E5E8
:100FD0000BF07F0022E5476403705A852F82852E2F
:100FE00083E0FCA3E0FDA3E0FEA3E0F5398E388D9D
:100FF000378C36E53954F0FFE50D540F4FF50DE50C
:1010000039540F853639F536AF388537388F37AFD5
:1010100036EFC3940F4003D38001C3920BE5096000
:1010200011AF0DAE0CAD0BAC0A852F82852E83124D
:1010300014297F0022530B0F900217E02549FF90DF
:101040000216E03548CF24FFCF34FFFEEF652F7046
:1010500003EE652E6056852F82852E83E0F536855A
:101060002F82852E83A3E0F537E509700302112B4B
:10107000E54530E423E50AC454F0FFE536540F4F4C
:10108000852F82852E83F0E50BC454F0FFE50AC45A
:10109000540F4FA3F002112B852F82852E83E50A72
:1010A000F0E53754F0450BA3F002112B852F828514
:1010B0002E83E0F536E5096024E54530E40EE50AC7
:1010C000C454F0FFE536540F4FFF8002AF0A852F5E
:1010D00082852E83EFF0122818EF600122E52A2482
:1010E00001F526E43529F525E43528F524E43527EE
:1010F000F523121BF0EF600122854982854883E0C9
:10110000F537E5096025E54530E40FE50BC454F0FB
:10111000FFE50AC4540F4FFF8007E53754F0450B35
:10112000FF854982854883EFF0D209E54530E41315
:10113000E537C454F0FFE536C4540F4FF539E537B1
:10114000C48005853639E537540FF538E4F536F5B2
:1011500037AE38AF39C3EF94F7EE940F4003D38026
:1011600001C3920B7F00221200038F35E535700A10
:101170001224EBEF70030212DA22E53564426003B9
:10118000AF3522900217E024E0FF900216E034FF12
:10119000FEC3E53F9FE53E9E50030212DAE53D7037
:1011A0000FE53A700BE53B7007E53C7003021268EF
:1011B000900215E0FF90021CE0C39FFFE52214FEA1
:1011C0005FF535E53F6008EE653560030212DA7FB2
:1011D0003AE4FD120EA3EF600122200B030212DAA3
:1011E000122DE2EF6001227F3A7D02120EA3EF6022
:1011F0000122122818EF600122122EC1E4FFFE9096
:101200000216E06EFCA3E06F4C6013E5492FF582F7
:10121000E5483EF583E4F00FBF00010E80E1E4F500
:10122000351229B0E53F7012F53EF53FAF26AE25E9
:10123000AD24AC23900219121429852236E53660BC
:1012400020121AA3EF600122E5262401F526E435D9
:1012500025F525E43524F524E43523F523153680DA
:10126000DC12271EEF607322E53F706E900219E0DA
:10127000FCA3E0FDA3E0FEA3E024FFFFEE34FFFEAD
:10128000ED34FFFDEC34FFFC900219121429121BFF
:10129000DEEF600122E4F53EF53FD3900217E095C2
:1012A0003F900216E0953E402EE549253FFFE54878
:1012B000353E8F82F583E0B4E510E582240BF5829C
:1012C000E43583F583E0540E60107420253FF53F2C
:1012D000E4353EF53E80C37FB222122DE2EF60017D
:1012E00022122818EF6001227F06122EDAEF54BF77
:1012F000648060037F112285343D85333C85323B19
:1013000085313A12271EEF600122121BDEEF6001C9
:1013100022E549253FFFE548353EFEE4FDEDC39457
:101320000B50047C2080027C00EF2DF582E43EF51A
:1013300083ECF00DBD20E6EF2418F582E43EF58342
:101340007421F0A37430F0EF241CF582E43EF583A1
:101350007401F0E4FDEDC3940B5021A82DE6FC6070
:101360001BECB42E047D08052DA82DE6FCEF2DF511
:1013700082E43EF583ECF00D052D80D9853D368560
:101380003C37853B38853A39EF241AF582E43EF53F
:1013900083E536F0A3E537F0EF2414F582E43E123E
:1013A0001A9AEF600122853D34853C33853B3285B6
:1013B0003A31E4F544F543F542F541F54EF54DF586
:1013C0004CF54BF5357D147F10122D7622EB9FF5F1
:1013D000F0EA9E42F0E99D42F0E89C45F022E86088
:1013E0000FECC313FCED13FDEE13FEEF13FFD8F16A
:1013F00022E8600FEFC333FFEE33FEED33FDEC3335
:10140000FCD8F122E6FC08E6FD08E6FE08E6FF222D
:10141000E6FB08E6F908E6FA08E6CBF822ECF6085F
:10142000EDF608EEF608EFF622ECF0A3EDF0A3EEF1
:10143000F0A3EFF022D083D082E493F608740193F6
:10144000F608740293F608740393F6740473E709BC
:10145000F60870FA8046E709F20870FA803E888242
:101460008C83E709F0A370FA807EE309F60870FA2E
:101470008076E309F20870FA806E88828C83E30933
:10148000F0A370FA806289828A83E0A3F60870FA7A
:10149000805689828A83E0A3F20870FA804A80D25B
:1014A00080FA80C680D4806580F28031801080A66A
:1014B00080EA809A80A880DA80E280CA80318982BE
:1014C0008A83ECFAE493A3C8C582C8CCC583CCF068
:1014D000A3C8C582C8CCC583CC70E9800D89828A37
:1014E00083E493A3F60870F9ECFAA9F0EDFB2289E6
:1014F000828A83ECFAE0A3C8C582C8CCC583CCF04D
:10150000A3C8C582C8CCC583CC70EA80DD89828A35
:1015100083E493A3F20870F980CE88F0ED2402B43E
:10152000040050C4F582EB2402B4040050BA232313
:1015300045822390149E73BB010689828A83E02230
:101540005002E722BBFE02E32289828A83E49322CF
:10155000BB010CE58229F582E5833AF583E0225050
:1015600006E92582F8E622BBFE06E92582F8E2229A
:10157000E58229F582E5833AF583E49322BB0106EF
:1015800089828A83F0225002F722BBFE01F322FAFD
:10159000E6FB0808E6F925F0F618E6CA3AF622D086
:1015A00083D082F8E4937012740193700DA3A39317
:1015B000F8740193F5828883E4737402936860EF92
:1015C000A3A3A380DFE54064156007122CBFEF6082
:1015D00001227850E6F52D7006300A030229FAE45C
:1015E0007850F6E52D7003021774E535F47077E551
:1015F0003D700CE53A7008E53B7004E53C602585DC
:10160000344E85334D85324C85314B122DEEEF60D3
:1016100001227F4B7D02120EA3EF600122122818D7
:10162000EF60082212279DEF60012285344E85333A
:101630004D85324C85314B74FFF534F533F532F579
:1016400031122728CBEFCB854E34854D33854C3274
:10165000854B31EB60012285444E85434D85424CDC
:1016600085414BE4F5351229B0121BF0EF600122E1
:10167000900216E0FCA3E0FD24FFFBEC34FF554D87
:10168000FEEB554EFFC3ED9FFFEC9EFEC3EF952D85
:10169000EE94004005852D368006E54EF404F536BF
:1016A000900217E024FFFD900216E034FF554DFE36
:1016B000ED554E2549F52FEE3548F52EAF36E4FCB5
:1016C000FDFEE54E2FF54EEE354DF54DED354CF565
:1016D0004CEC354BF54BC3E52D9536F52D7850E6A2
:1016E0002451FFE53626F6C8EFC8E6852F82852E01
:1016F00083F0052FE52F7002052E0FD536E9121A5B
:10170000A3EF600122AF4EAE4DAD4CAC4BAB44AA43
:1017100043A942A841C31213CD500E854E44854DB6
:1017200043854C42854B41D20A900217E024FFFDCD
:10173000900216E034FF554DFEED554E4E6003020B
:1017400015E30535E535C3952250030215E37F31D6
:10175000E4FD120EA3EF600122300B067535FF0287
:1017600015E3853631853732853833853934E4F5EC
:10177000350215E37F0022E4F534F533F532F53117
:1017800090020EE0FCA3E0FDA3E0FEA3E0FFAB347B
:10179000AA33A932A831D31213CD40037FB122E579
:1017A000342401F534E43533F533E43532F532E4ED
:1017B0003531F5317F31E4FD120EA3EF600122E5F2
:1017C00039700FE536700BE5377007E538700302A6
:1017D0001902E547640160A885482E85492FE54731
:1017E00064027051900216E0C313FEA3E01324FFBD
:1017F000FFEE34FFF5368F37F5388F397402252F19
:10180000F52FF582E4352EF52EF583E07011A3E077
:10181000700D852F82852E8374FFF0A302188AE550
:10182000376009D537D6E536600880D015361537CC
:1018300080CA0218E9900216E0FEA3E07802CEC347
:1018400013CE13D8F924FFFFEE34FFF5368F37F5AA
:10185000388F397404252FF52FF582E4352EF52EB7
:10186000F583E060030218CEA3E060030218CEA364
:10187000E0705BA3E0540F7055852F82852E837432
:10188000FFF0A3F0A3F0A3E0440FF0AE38AF39EFC0
:101890004534FFEE4533FEE532FDE531FCEEC0E0B8
:1018A000EFC0E0E53724FFFFE53634FFCBEFCBFA9E
:1018B000D0E0FFD0E0FEC3EF9BF534EE9AF533EDB8
:1018C0009400F532EC9400F531D2097F0022E5371F
:1018D00060101537E5376003021853E536600A02D9
:1018E000185315361537021853AE38AF39E5344F53
:1018F000F534E5334EF533E532F532E531F53102B5
:1019000017807F317DFF120EA322D294C2947F6490
:10191000122BC9D294122EA17BFF7A1F799A12083A
:1019200090122D528F08122D0E7BFF7A1F79A11273
:1019300008907F32122BC9122193EF70F57FC812E5
:101940002BC9E4F5087F32122BC97BFF7A1F79ADD2
:10195000120890122AD2EF603CE540C3940250086E
:101960007BFF7A1F79B6801FE540C394034007E5EB
:1019700008D39405501FE540B40211900223E060A3
:101980000B7BFF7A1F79C312089080090508E508D0
:10199000C3946440B0E540C394035018E54064022A
:1019A0007090900223E0708A7BFF7A1F79D812082A
:1019B00090021A7CC2947F14122BC97BFF7A1F7984
:1019C000E8900216E0F50CA3E0F50D120890C29520
:1019D0007BFF7A20790E1208901224308F08E508D8
:1019E0006016F460137BFF7A20792E1208907F64D2
:1019F000122BC91224308F08E50870697BFF7A200A
:101A00007939120890C2967BFF7A207943120890A8
:101A100078507C007D007BFF7A20795212151A12D3
:101A200011678F08122D0E7851764F08764B78503B
:101A300076021215C58F08122D0E7BFF7A20795F72
:101A4000120890E47850F612269E8F08122D0ED2BE
:101A500096122B12EF7BFF70067A20796680117A3E
:101A6000207975800BE508B4FF0B7BFF7A2079861F
:101A70001208908005AF08122D0ED2957BFF7A20B8
:101A800079911208907F0A122BC9122193EF60F509
:101A9000D2947FC8122BC9021929F583E538F0A327
:101AA000E539F0E4F5467F237B2A7D01122886E59F
:101AB0004A6003021BB67DC87F06122E71E54F30C7
:101AC000E6047F4080027F80AC48AD498C278D289A
:101AD000122C938E278F287D407F0B122E71634F1F
:101AE00040AD4F7F0E122E71E530B409047F08809F
:101AF00010B40A047F108009B40B047F2080027F99
:101B0000408F37E53764016016E54F30E6047F40CB
:101B100080027F80AD28AC27122C938E278F28124D
:101B20001E65E54A60187DC07F06122E71E54A6485
:101B30002E6003021BB6E546707CAF2C8050634FCD
:101B400040E53764016007AD4F7F0E122E71D53727
:101B5000B27DC07F06122E7190BDF1740DF090BC65
:101B6000F0E52BF0E54FF0D20B852327852428855F
:101B7000252985262A634F80121E65E54A60176372
:101B80004F80E54A642E702EE546702AAF2B122C4A
:101B90000075460180C27F0B122EDABF0D187FCC74
:101BA000122EDAEF7006122EEC7F00227FCC122E5E
:101BB000DAEF6401600BE54AB416037F8222122B30
:101BC0008EE546C39405500FE546C39403400312C7
:101BD0002A8C0546021AA6122DAF122A8C229002D8
:101BE00019E0F523A3E0F524A3E0F525A3E0F5260D
:101BF000E526652A7015E5256529700FE524652819
:101C00007009E52365277003021D19E4F5467F235B
:101C10007B287D01122886E54A6003021CF290BDF4
:101C2000F17406F090BCF074CCF090BDF1740DF03E
:101C300090BCF0E52BF0E54FF0D20B634F408548A8
:101C400027854928E530B409047F088010B40A04C8
:101C50007F108009B40B047F2080027F408F3712F1
:101C60001E65E54A60097DC07F06122E71805063B3
:101C70004F80E53764016007AD4F7F0E122E71E58E
:101C80004F30E7047FC080027F80AD28AC27122C44
:101C9000678E278F28D537C77DC07F06122E71AD7E
:101CA0004F7F0E122E7185232785242885252985AF
:101CB000262A634F80121E65E54A601A634F80E54D
:101CC0004A642E702DE5467029AF2B122C00754604
:101CD00001122E8F80D07F0B122EDABF0D147FCC15
:101CE000122EDAEF7002FF227FCC122EDAEF64019F
:101CF000600BE54AB416037F8222122B8EE546C3A1
:101D00009405500FE546C394034003122A8C054600
:101D1000021C0E122DAF022A8C7F0022E5406415B2
:101D20006007122CBFEF6001227850E6F52DE4F633
:101D3000E52D7003021E51900216E0FCA3E0FD2485
:101D4000FFFBEC34FF554DFEEB554EFFC3ED9FFFFF
:101D5000EC9EFEC3EF952DEE94004005852D368058
:101D600006E54EF404F536AF36EF254EFFE4354D6B
:101D7000FEE4354CFDE4354BFCAB44AA43A942A834
:101D800041D31213CD500CC3E544954EF536700384
:101D9000021E511229B0121BF0EF600122900217AF
:101DA000E024FFFD900216E034FF554DFEED554E48
:101DB0002549F52FEE3548F52EAF36E4FCFDFEE55E
:101DC0004E2FF54EEE354DF54DED354CF54CEC35D1
:101DD0004BF54BC3E52D9536F52D7850E62451FF94
:101DE000E53626F6852F82852E83E0C8EFC8F60FEC
:101DF000052FE52F7002052ED536E9900217E02455
:101E0000FFFD900216E034FF554DFEED554E4E603D
:101E100003021D300535E535C395225003021D3000
:101E20007F31E4FD120EA3EF600122300B117535F6
:101E3000FF854E44854D43854C42854B418012853C
:101E40003631853732853833853934E4F535021D2E
:101E5000307F002290BDF1740DF090BCF0E52CF0C5
:101E6000E54FF0C20BE4F539E4F54A122EF190BDCE
:101E7000F17409F0E030E06B90BCF07411F0E0FF19
:101E8000300B0E5407B40313EF30E436E4F54AFF89
:101E900022540FB40205E4F54AFF22EF540FFEBEB0
:101EA0000A05E54520E729EF54037003D38001C3F9
:101EB0004007EE4420FFF54A227F09122EDAEF2078
:101EC000E121E545540FFF0539AE39EED39F500DA2
:101ED0007F0E122EDAEF4408FD7F0E8027754A2010
:101EE0007F2022754AFF7F04122EDAD54AF87F0937
:101EF000122EDA8F39E53930E173122B51BF090AFE
:101F00007D027F09122E71021E68754001E4900265
:101F100023F07D137F09122E7190021DE060047D75
:101F2000C080027D807F06122E71122B51EF603728
:101F300075400290021DE0D394015007E5395480AA
:101F4000FF80157F02122EDA90021DE0B403047E9A
:101F50002080027E10EF5EFFEF6006754A157F1548
:101F600022754A137F1322754A167F16227D1F7F22
:101F700009122E71E53930E306754A067F0622758F
:101F80004A057F05224572726F723A202530325819
:101F90000A00000900000000000053746172740A16
:101FA000005761697420556469736B0A005265615A
:101FB0006479203F0A0044657669636520676F6E27
:101FC000650A004E6F20556469736B20696E205559
:101FD00053425F4855420A00556E6B6E6F776E2014
:101FE0006465766963650A0043757272656E742074
:101FF0006469736B20736563746F722073697A65AB
:10200000203D202564204279746573200A004368CE
:1020100065636B204469736B205772697465205047
:10202000726F74656374203F202E2E2E0A00416764
:1020300061696E202E2E2E0A002E2E2E204E6F202D
:10204000210A0043726561746520612046696C65F0
:102050000A005C4E455746494C452E54585400439F
:102060006C6F73650A00536166652052656D6F760B
:102070006520210A00556E736166652052656D6F9B
:10208000766520210A002E2E2E2059657320210A04
:102090000054616B65206F75740A00E540C39413AA
:1020A00050037FB422121BDEEF600122C209E54912
:1020B000253FFFE548353ECBEFCBFA7858E6FFEBFE
:1020C000240BF582E43AF583E0F6EFF460138B829B
:1020D0008A83E582240BF582E43583F583EFF0D221
:1020E000097856E6F53908E6F538EB2416FFE43AA8
:1020F000FE122EB718EEF608EFF6E538F4FEE539D5
:10210000F44E6012EB2416F582E43AF583E538F0DC
:10211000A3E539F0D2097854E6F53908E6F538EB4D
:102120002418FFE43AFE122EB718EEF608EFF6E593
:1021300038F4FEE539F44E6012EB2418F582E43AE7
:10214000F583E538F0A3E539F0D20978501214048C
:10215000785C12141DEB241CFFE43AFE122E437827
:102160005012141D785CE6F4601E1214048F448E25
:10217000438D428C41122EE5EB241CF582E43AF5A6
:1021800083121429D209C20A300905C209021AA30E
:102190007F00227F06122EDAEF54404480FD7F0636
:1021A000122E717F09122EDAEF30E112122B51EF4D
:1021B00064096003122D307D137F09122E71122BDA
:1021C00051EF7003022285E540C394025008754028
:1021D00002E4900223F0900223E07002FF22122E0C
:1021E00068900222E06049122E7CE54A702E8549F3
:1021F00082854883A3A3E030E009754002122E5384
:1022000012236C854982854883E030E01E900222CB
:10221000E02410FD7F08122E717F0022E54A64162B
:102220006063E54A30E5045403605A754002804D0E
:10223000900222E004F0122E7CE54A702485498247
:10224000854883A3A3E030E006122E5312236C8549
:102250004982854883E030E017A3E020E1127F0047
:1022600022E54A6416601EE54A30E5045403601511
:10227000900223E0FF900222E0C39F40B3E490026B
:1022800022F07F8422122D3022E4900225F0A3F068
:10229000A3F0900218E0900229F0E4F5387C297D43
:1022A0005B7F04122E127A027B247D117F48122E4E
:1022B000287D1F7F0B122E71121E54E54AB416039F
:1022C0007F8222E54A600FE538600302234E122B1D
:1022D0008E75380180C7634F40900224E060491238
:1022E0002E8F121E65E54A600DE54A642E705FAFC1
:1022F0002B122C008032634F807F0B122EDA8F3925
:102300007F4F122EDABF030A7F53122EDAEF6412C8
:10231000600E122EC1AB49AA48AD397FC0122DC93B
:10232000900224E0C39539F0122E8F121E65E54A03
:10233000701C634F807FCC122EDA8F397F0B122EE8
:10234000DABF0D07E539C394024006754A1F022B18
:102350008EE5397002FF22754A1F7F1F227F081207
:102360002E12900200E0FD7F44122E717F01122B8D
:10237000C97D087F0B122E717DD07F0D122E717DCD
:102380000C0F122E71C20B121E65E54A6003AF4A94
:1023900022D20B7F46122EDAEF606C122EC17F0123
:1023A000122BC97D907F0D122E710F122EDAEF6461
:1023B00080440CFD7F0E122E71121E65E54A6003EB
:1023C000AF4A227F0B122EDA8F4A7F47122EDA8F06
:1023D00039AF39EF2549FBE43548FAAD4A7FC012E1
:1023E0002DC9E54A2539F539AD397F47122E711FC0
:1023F000122EDAE539C39F500CE54A5407609F75E9
:102400004A177F1722C20B7F01122BC9E4FD7F0BF5
:10241000122E71300B047F0980027F01EFC454F04B
:10242000FD7F0D122E717DCC0F122E71121E6522B2
:102430007509109002287480F0E54590022430E57B
:1024400017E509F090022A7406F0A3741AF0E4A3C9
:10245000F0A3743FF0E4801DE509F090022A740AAD
:10246000F0A3745AF0E4A3F0A3743FF0E4A3F0A344
:10247000F0A3F0A3F0A3F0A3E509F0E4A3F0122287
:10248000898F0AE50A7037900224E0FFC3E5099FAF
:10249000F509D394034024E54530E5088549828554
:1024A00048838007854982854883A3A3A3E0F50B71
:1024B000E50B30E7037FFF227F00227F1F22750993
:1024C000129002287480F0900224E509F090022A0C
:1024D0007406F0A37403F0E4A3F0A3F0A3F0A3E563
:1024E00009F0E4A3F0122289AF0A22E540C3941355
:1024F0005007120003EF600122122D72EF600122DB
:10250000121BDEEF600122E549253FFFE548353E1D
:102510008F82F58374E5F0121AA3EF600122AF3DBC
:10252000AE3CAD3BAC3A8F398E388D378C36EC4DA6
:102530004E4F604EE53D24FFF53DE53C34FFF53C54
:10254000E53B34FFF53BE53A34FFF53AE4F534F585
:1025500033F532F5317F367D01120EA3EF60012293
:10256000E5342401F534E43533F533E43532F5321E
:10257000E43531F531300BDD122818EF600122020D
:1025800027287F0022E53D700CE53A7008E53B7096
:1025900004E53C6072853D34853C33853B32853AA9
:1025A00031AF22E4FCFDFE7850121410C31213CD9B
:1025B00040387F31E4FD120EA3EF600122200B476B
:1025C0008536318537328538338539347850121461
:1025D00004AB22C3EF9BFFEE9400FEED9400FDECF4
:1025E0009400FC785012141D80B77853E6FFE52262
:1025F000145FF5351229B0AF26AE25AD24AC237893
:102600005012141D7F00227535FF7850121435FFCB
:10261000FFFFFF7F00227537647D087F25122C366F
:1026200090022A740AF0E490022FF01222898F3669
:10263000E5367044E5492406F582E43548F583E043
:10264000FFB4040575300A8013B4080575300B809B
:102650000BB4100575300C800375300974017E00D1
:10266000A830088005C333CE33CED8F9900217F0D6
:10267000EE900216F07F0022E5366416601DE53606
:1026800064156017E53664136011122DFB7F32125A
:102690002BC91537E5376003022619AF3622E5400E
:1026A000C3941250037FB422E5406412704FE54793
:1026B00064036049900221E0F522AE43E544A8306E
:1026C000088005CEC313CE13D8F9FFE4FCFD9002B9
:1026D0001E121429900212E0F8A3E0F9A3E0FAA375
:1026E000E0FB900221E0FFE4FCFDFEEB2FFFEE3A61
:1026F000FEED39FDEC38FC900212121429E540D3AE
:102700009413400AE540B414077850E67002C20AF8
:10271000300A071229FAEF600122122D722274FF8B
:10272000F534F533F532F531900205E0FCA3E0FD18
:102730004C7002FF22EDCFECCEE4FCFD900201E0F4
:10274000F8A3E0F9A3E0FAA3E02FF526EA3EF52589
:10275000ED39F524EC38F523121BF0EF600122E58A
:102760004924E8FFE5483401FE122E43E5342FF5F5
:1027700034E5333EF533E5323DF532E5313CF531B4
:10278000AF34AE33AD32FC122EE5E54924E8F582D4
:10279000E5483401F583121429121AA32212178076
:1027A000EF600564B1600122EF6007121777EF60F8
:1027B0000122122818EF60012285343D85333C85C3
:1027C000323B85313A121BDEEF600122E549253F9D
:1027D000FFE548353EFEF583EF241CF582E43583A2
:1027E000F5837401F0853D36853C37853B38853A65
:1027F000398F828E83E582241AF582E43583F5834E
:10280000E536F0A3E537F08F828E83E5822414F558
:1028100082E43583121A9A22852723852824852964
:1028200025852A26121AA3EF600122900207E0FEF6
:10283000A3E0FF4E604BE4FCFDE5262FF526E525E1
:102840003EF525ED3524F524EC3523F523121AA3A6
:10285000EF600122900207E0FEA3E0FBCAEECAC3CC
:10286000E5269BF526E5259AF525E5249400F52433
:10287000E5239400F523F527852428852529852639
:102880002AC2097F002290BDF17440F090BCF07420
:1028900055F07453F07442F004F090BDF17448F0B8
:1028A000E490BCF0F0E53024F8F8ED088002C33382
:1028B000D8FCF0E4F0F0BB2A03FE80027E80EEF04C
:1028C000900218E090BCF0F0740AF0EBF0E4F0EF46
:1028D000C8E6F008E6F008E6F008E6F0E4F0F0ED0F
:1028E000F0E4F090BDF1740BF090BCF0741FF002B6
:1028F0001E54E4F5407D557F80122E717DAA0F1283
:102900002E711F122EDABF550A7F81122EDAEF6464
:10291000AA60037F8122E4FD7F06122E717F0E12D2
:102920002E71754585E4F5469002167402F0A3E415
:10293000F090021DF0F54F7D1F7F09122E717F0769
:10294000122EDAEF54F04403FD7F07122E717D4002
:102950007F05122E71122D307F0022555342430005
:1029600021FF0000000000008006000100001200AE
:1029700000050200000000008006000200000400C4
:10298000A006002900000900000900000000000066
:10299000A1FE000000000100020100000000000094
:1029A000A30000000100040023011000010000004A
:1029B000E53424FEFFE53334FFFEE53234FFFDE568
:1029C0003134FFFC900209E0F81213F1900212E09A
:1029D000F8A3E0F9A3E0FAA3E02FFBEA3EFAE93D11
:1029E000F9E83CF8E4FCFDFEEB2535F526EE3AF57A
:1029F00025ED39F524EC38F52322C20AE540C394CD
:102A000014403E121BDEEF600122E549253FFFE541
:102A100048353ECBEFCBFAF583EB240BF582E4355A
:102A200083F583E020E41AAF44AE43AD42AC4112DB
:102A30002EE5EB241CF582E43AF583121429021AE0
:102A4000A37F0022E54064156007122CBFEF6001F0
:102A50002278501214048F4E8E4D8D4C8C4BAB440B
:102A6000AA43A942A841C31213CD500C85444E85F8
:102A7000434D85424C85414BAF4EAE4DAD4CAC4BBA
:102A8000122D92785012141D122585227F02122BCE
:102A9000C97D117F09122E71122B51EF600BE54A8F
:102AA00064166005E540B40103022D30E540C3948F
:102AB000034015854A377D127F03122C3612228976
:102AC00085374A7F02122BC9E54A70037F1022AF77
:102AD0004A22122193EF600122E540C39403501B68
:102AE00012046FEF600C7F32122BC912046FEF607B
:102AF0000122122616EF6003022A8CE4FDFF122C3D
:102B0000361222898F36E5367002FF22122DFBAF76
:102B10003622E4F5097F64122BC9122AD2EF60092C
:102B20000509E509C3940A40EC7F0A122BC97C1FF2
:102B30007D927F08122E1212236C8F0A7F0A122BAD
:102B4000C9E509C394055006E50A7002FF227FFF1C
:102B50002290021DE0FEB401047F028006EEB40262
:102B60000A7F03122EDAEF5409FF2290021DE0B40F
:102B7000030D7F03122EDAEF5490C4540FFF22E4AA
:102B800090021DF07F09122EDAEF5420FF22854AB1
:102B9000387F02122BC91221938F4AE54A6003AF96
:102BA0004A227C297D6012235DE54AB416037F82A8
:102BB00022E54A700AAF2B122C00AF2C122C007F9A
:102BC00002122BC9AF388F4A22CEEFCE7F06122ECB
:102BD000DAEFF4602AEF30E7268E397F04122EDA1E
:102BE000EF20E5F7AF391539EF60147F04122EDAC4
:102BF000EF30E5F77F04122EDAEF30E5E780F522BB
:102C00008F397C297D987F08122E12E539C4540F24
:102C1000FFBF090DE539540F4480F539534F7F80CC
:102C20000FE539C4540FFFBF010653390F534FBF8F
:102C3000AD3912236722900224EDF060047E80807B
:102C4000027E00900228EEF090022A7406F0A3EFB4
:102C5000F0E4A3F0A3F0A3F0A3EDF0E4A3F0A3F05D
:102C6000A3F0A3F0A3F02290BDF1EFF0ECFEEDFF96
:102C70007D1090BCF0E0FCE0FBE0FAE08E838F82F8
:102C8000CCF0A3EBF0A3EAF0A3ECF0A3AE83AF8209
:102C9000DDE02290BDF1EFF0ECFEEDFF7D108E83C4
:102CA0008F82E0A3FCE0A3FBE0A3FAE0A3AE83AF36
:102CB0008290BCF0CCF0EBF0EAF0ECF0DDE022E545
:102CC00040641460037FB422853D34853C33853BEA
:102CD00032853A31E4F54EF54DF54CF54BF5357D41
:102CE000157F14122D7622EFB40A07740D122CF200
:102CF000740A309811A899B8130CC2983098FDA89E
:102D000099C298B811F63099FDC299F59922EF60F1
:102D10001E7BFF7A1F7985750C008F0D120890C2FB
:102D2000947FC8122BC9D2947FC8122BC980F0227D
:102D3000754001E4900223F0FD7F08122E7190028D
:102D40001DE060047DC080027D807F06122E717FB1
:102D50008222E581D394EE40037FFC22122EF5EF10
:102D6000C3941450037FFF22754800754900122850
:102D7000F2227D107F10E540C39F40028D40E54068
:102D80006D7002FF22754001122193EF6001227FD6
:102D90008322C3E4CC13CD13CE13FFE53024F760B8
:102DA0000DF8C3ED13FDEE13FEEF13FFD8F422125E
:102DB0002EC1754A1FE540B4120475400322E54058
:102DC000D3941040037540102290BDF1EFF0ED60F8
:102DD0001090BCF0E08B828A83F00BBB00010ADD0F
:102DE000F022853D34853C33853B32853A311217DC
:102DF00080EF64B1600122121777227F0A122BC97B
:102E00007D127F03122C361222897F02122BC9AF4A
:102E10004A2290BDF17440F07E008D828C83EE9347
:102E200090BCF0F00EDFF32290BDF1EFF08B828AC0
:102E300083E090BCF0F00BBB00010ADDF022FFE460
:102E40003548FE8F828E83E0FFA3E0FEA3E0FDA362
:102E5000E0FC227C297DA87F08122E12900222E03D
:102E6000547FFD7F44022E7190021DE02402FD7FFD
:102E70000890BDF1EFF090BCF0EDF0227C297DA030
:102E80007F08122E12900222E0547F1223662290B5
:102E9000BDF1740DF090BCF0E52BF0E54FF0D20BD6
:102EA00022759850758780758921758DF3D28ED2E1
:102EB0009922FFE43548FE8F828E83E0FFA3E0FE77
:102EC0002274FFF52AF529F528F527C20922787F13
:102ED000E4F6D8FD75818002190A90BDF1EFF090FB
:102EE000BCF0E0FF22EFCCFFEECDFE227FFADFFE4A
:092EF0002220B2FD227F142222EF
:00000001FF
