:10061A002530327820000A002530325820006869D7
:10062A00645F6465735F6C656E673D253032780A76
:10063A0000656E64705F696E5F616464723D253047
:10064A0032780A00656E64705F6F75745F61646406
:10065A00723D253032780A0053746172742043481F
:10066A0033373420486F73740A00526573657420F7
:10067A004465766963650A0053746172742046752D
:10068A006C6C2D5370656564204465766963650AF0
:10069A00005374617274204C6F772D5370656564D2
:1006AA00204465766963650A00476574446576691E
:1006BA00636544657363723A2000646576696365AD
:1006CA005F7374617475733D25303278200A006156
:1006DA006464726573735F7374617475733D2530F6
:1006EA0032780A00636F6E6669675F737461747546
:1006FA00733D253032780A00536574557362436F2F
:10070A006E6669675F737563636573730A00536521
:10071A00745F49646C650A005365745F49646C656B
:10072A005F4572723D253032780A005365745F69FD
:10073A00646C6520737563636573730A0047657437
:10074A005F4869645F4465730A004849445F4465C9
:10075A0073633A20005365745F5265706F72742038
:10076A000A005365745F5265706F72742073756303
:10077A00636573730A005365745F5265706F7274B0
:10078A00204572723D253032780A0057616974201B
:10079A00446576696365204F75740A008006000116
:1007AA00000012008006000200000400000502009A
:1007BA00000000000009000000000000210A0000FB
:1007CA0000000000810600220000810021090002C9
:0407DA00000001001A
:03121700010E08BD
:0711E3007FFA1211EA7FFA06
:0711EA00AE071FEE70FA22B0
:1011C100AD07AF051DEF60081211E31211E380F2C4
:0111D10022FB
:0A0FF60030B2047F0080027F012268
:10116B00E4FDFC120FF6EF60037F00220DBD0001C2
:09117B000CBC27EFBD10EC7FFA5B
:011184002248
:01121B0022B0
:0B11FE0090BDF1EFF090BCF0E0FF228C
:09119A00E4FF121209E4FD7F0ECE
:0B11A30090BDF1EFF090BCF0EDF022E9
:0D11F10090BDF1EFF0E05D4B90BCF0F022FE
:101072008B428A43894490BDF1EFF0AF051DEF60CA
:101082001990BCF0E0FFAB420544E544AA4370026C
:0B109200054314F9EF120D2E80E1223F
:10109D008B428A43894490BDF1EFF0AF051DEF609F
:1010AD0017AB420544E544AA437002054314F912F7
:0910BD000CE890BCF0F080E32285
:060D76008F48AA05A90345
:100D7C00E4FBEAC454F0FFE548540F4FFD7F0D121D
:100D8C0011A3E960047DC880027D087F0E1211A3B7
:100D9C0012116BAC07BCFA01227F091211FEAC07D1
:100DAC00EC30E1327FC81211EA7D137F091211A3D6
:100DBC00EC30E51F7F061211FEEC30E70BEF5430E0
:100DCC0060037F13227F1522EF543060037F1522BE
:100DDC007F13227F1622EC30E0667D117F09121101
:100DEC00A30F1211FEAC07EC540FFFEA24F7602599
:100DFC0024FC6004240C7045BF02037F1422EF64B2
:100E0C000E6035BF0A028030EC54037003D38001AE
:100E1C00C3403F8023EC5407FEBE0307EC30E432A2
:100E2C007F1422EF640E6003BF0A02800BEC5403A4
:100E3C007003D38001C3401AEF4420FF227FFA22B3
:100E4C007FC81211EA7D1F7F091211A3EB60037F8B
:0C0E5C00FA220BEB64036002A17E7F20F1
:010E68002267
:060F3A008F428D438B4441
:100F4000E4F547AB44AD43AF42120D76BF2A06E548
:100F50004645457001227F141211EA0547E547C353
:100F6000942840DFC3E54694FFE54594FF50D1E562
:090F700046154670CB154580C7FB
:060A59008B358A36893757
:100A5F007D087F4012109D7D087F0B1211A37F64CC
:100A6F001211EA7545007546C8E4FB7D0DFF120FA4
:100A7F003AAC07EC6414600261DC754101AB35AA36
:100A8F0036A937900003120D01900006B422091207
:100A9F000D0124C0F5408005120D01F540E54070B1
:100AAF000261A2E539453A4538700261A285403EA0
:100ABF00AB35AA36A937120CE830E76BE53E60621A
:100ACF007F641211EA7545007546C8AB417D09E494
:100ADF00FF120F3AAC07EC641470477F0B1211FE34
:100AEF008F3FAB38AA39A93AAD3F7FC0121072E5DC
:100AFF003F253AF53AE43539F539E53FD3953E5080
:100B0F0009C3E53E953FF53E8003E4F53EE50E143F
:100B1F00553F700EE54160047F0080027F018F41D9
:100B2F00809AE4F5418065E53E605E7F641211EACC
:100B3F00E53EC3950E4004AF0E8002AF3E8F3FAB34
:100B4F0038AA39A93AAD3F7F4012109DAD3F7F0BB8
:100B5F001211A37545007546C8AB417D01E4FF1224
:100B6F000F3AAC07EC64147020E53F253AF53AE4F0
:100B7F003539F539C3E53E953FF53EE54160047FD4
:100B8F000080027F018F41809E754101C3E5409532
:100B9F003EF540EC64147035FD7F0B1211A37F649A
:100BAF001211EAE54160047D0980027D017545005F
:100BBF007546C87B01E4FF120F3AAC07E541600DA3
:100BCF00BC140A7F0B1211FEEF60027C17E53C4547
:100BDF003D453B600BAB3BAA3CA93DE540120D2EBA
:020BEF00AF0451
:010BF10022E1
:060FB8008B258A26892723
:100FBE007545037546E8AB0F7D09AF0C120F3AAEBF
:100FCE0007EE64146001227F0B1211FEAD07AB25F4
:100FDE00AA26A9277FC0121072E50F60047F008039
:070FEE00027F018F0FAF0627
:010FF50022D9
:100F79007F091211FEAE07EE30E12C7D127F0912B6
:100F890011A3EE30E51D7F061211FEEE30E707EFE3
:100F9900543060078009EF543060047509152275D3
:0E0FA900091322750916227D1D7F091211A35E
:010FB7002217
:07120900AD077F080211A3ED
:071210007DC07F060211A35F
:10110F00750E0812119A7D817F061211A37F14129A
:10111F0011C11212107F011211C17D167F09021128
:01112F00A31C
:101185007F061211FEEF54CF4440FD7F061211A3D6
:051195007F010211C101
:1011AE007F061211FEEF4470FD7F061211A37F0120
:0311BE000211C15A
:1007DE00E4FD7F061211A312119A7D1F7F091211DB
:1007EE00A37D037F071211A37D407F051211A30283
:0207FE001210D7
:061000008B258A268927DA
:101006008B388A39893A753B00753C00753D287BDB
:10101600FF7A0779A6120A59BF141CAB25AA26A97E
:1010260027900007120D01F50E9007ACE493FEE53C
:0710360028C39E50027F1742
:01103D002290
:060800008B258A268927E2
:100806008B388A39893A753B00753C00753D297BE2
:10081600FF7A0779AE120A598F28E5286414600218
:100826004156F52AE52A65296021AB25AA26A9277E
:10083600852A82758300120D01753800F5397BFF14
:100846007A06791A120065052A80D97BFF7A06791D
:10085600201200659007B4E493FFE529C39F500575
:100866007528174156782D7C007D007BFF7A077925
:10087600AE7E007F08120CC2AB25AA26A9279000DF
:1008860002120D01F5338B388A39893A753B0075AA
:100896003C00753D297B007A00792D120A598F2874
:1008A600E528641460024156F52AAB25AA26A92735
:1008B600900002120D01FFE52AC39F501B852A8274
:1008C600758300120D01753800F5397BFF7A0679BC
:1008D60022120065052A80D27BFF7A067920120053
:1008E60065E4F52AAB25AA26A927900002120D0178
:1008F600FFE52AC39F503C852A82758300120D01AD
:100906006409702BAF2AFE8F82F583A3120D01B402
:10091600211D74062FF582E433F583120D01B422EE
:100926000E74072FF582E433F583120D01F50B05DE
:100936002A80B17BFF7A067928753800850B391233
:100946000065E4F50CF50DF50AF52AAB25AA26A9EE
:1009560027900002120D01FFE52AC39F400241388D
:10096600852A82758300120D016409702DAF2AFE57
:100976008F82F583A3120D01B4041F74052FF5822F
:10098600E433F583120D01B4031074072FF582E4E6
:1009960033F583120D01640160177407252AF58269
:1009A600E433F583AB25AA26A927120D016402704C
:1009B60075E4F52CAB25AA26A927900002120D0195
:1009C600C3952AFFE52CC39F505CE52A252CFFE43E
:1009D60033FE8F82F583120D016407702C8F828E91
:1009E60083A3120D0164057020E52A252CFFE4334C
:1009F600FE8F82F583A3A3A3120D01B4030B8F828E
:100A06008E83A3A3120D01F52BE52B30E706540FB9
:100A1600F50C8006E52B540FF50DE50D7008E50C79
:100A26007004052C808EE50D7008E50C7004052A0F
:100A360021517BFF7A06793B753800850C39120007
:100A4600657BFF7A06794E753800850D391200658B
:020A5600AF28C7
:010A5800227B
:020EF5008F2547
:100EF70078267C007D007BFF7A0779B67E007F0825
:100F0700120CC2852528753800753900753A0075A9
:100F17003B00753C00753D007B007A007926120A7C
:100F270059AC07BC1405AF251212097F031211C172
:020F3700AF0405
:010F39002295
:02103E008F25FC
:1010400078267C007D007BFF7A0779BE7E007F08D2
:10105000120CC2852528753800753900753A00755F
:101060003B00753C00753D007B007A007926120A32
:011070005926
:01107100225C
:10114F00753800753900753A00753B00753C0075B0
:0B115F003D007BFF7A0779C6120A5999
:01116A002262
:061130008B258A268927A9
:101136008B388A39893A753BFF753C07753DD47BF8
:08114600FF7A0779CE120A5965
:01114E00227E
:0610ED008B258A268927ED
:1010F3007528018B388A39893A753B00753C007530
:0B1103003D287BFF7A0779D6120A59BD
:01110E0022BE
:1011D200759850758780758920758DF3D28ED29956
:0111E20022EA
:10035F00E4F5247F321211C112121B1211D2E4F5EF
:10036F0022AF221211FE8F237BFF7A06791A75387E
:10037F00008F391200650522E522B440E47BFF7A35
:10038F000679201200657BFF7A06796212006512EA
:10039F0007DE121210120FF6EF6003120F797F09AA
:1003AF001211FEEF30E5047F0180027F00EF60E560
:1003BF007FFA1211C1120FF6EF6003120F797BFF54
:1003CF007A06797412006512110FE4F5227F091273
:1003DF0011FEEF30E5047F0180027F00EF700E7F8A
:1003EF00011211C10522E522C3946440E0120FF6F9
:1003FF00EF6003120F797F091211FEEF30E5047FD2
:10040F000180027F00EF608A7F041211FEEF30E35C
:10041F00047F0180027F00EF7BFF600C7A067982F8
:10042F00120065121185800D7A06799B12006512F4
:10043F0011AE7508017F321211C1E4F5247BFF7AEA
:10044F000679B31200657B007A0079491210008F8C
:10045F00237BFF7A0679C47538008F39120065E562
:10046F002364146002A1EBE4F5229007ACE493FF40
:10047F00E522C39F50187BFF7A0679227449252203
:10048F00F8E6753800F539120065052280DC7BFF30
:10049F007A0679201200657F02120EF58F237BFFFB
:1004AF007A0679D97538008F39120065E5236414FF
:1004BF006002A1EB7B007A0079491208008F237B41
:1004CF00FF7A0679EE7538008F39120065E52364DF
:1004DF00146002A1EB784EE6FF12103E8F23E52346
:1004EF0064146002A1EB7BFF7A0779021200657B2F
:1004FF00FF7A07791812006512114F8F23E52364D5
:10050F00147BFF600B7A0779227538008F398004CE
:10051F007A0779351200657BFF7A077947120065F4
:10052F007B007A0079491211308F23E52364146020
:10053F0002A1EB7BFF7A077954120065E4F522E5FF
:10054F0022650B60187BFF7A06791A74492522F809
:10055F00E6753800F539120065052280E27BFF7AD7
:10056F000679201200657BFF7A07795F12006578A4
:10057F004976017B007A0079491210ED8F23E5232C
:10058F007BFFB414067A07796C800A7A0779807535
:10059F003800852339120065E4F50F7B007A007966
:1005AF0049120FB88F23E52364147028F5227BFFBF
:1005BF007A06791A74492522F8E6753800F539124A
:1005CF0000650522E522B408E57BFF7A0679201243
:1005DF00006580C7E523B416C27524017BFF7A0737
:1005EF007995120065E524701B120FF6EF60031268
:1005FF000F797F091211FEEF30E5047F0180027F32
:0B060F0000EF70E57F641211C161A1D3
:03000000020E6984
:0C0E6900787FE4F6D8FD758198020EB089
:100BF200E709F608DFFA8046E709F208DFFA803EE5
:100C020088828C83E709F0A3DFFA8032E309F608D1
:100C1200DFFA8078E309F208DFFA807088828C8339
:100C2200E309F0A3DFFA806489828A83E0A3F608ED
:100C3200DFFA805889828A83E0A3F208DFFA804CC7
:100C420080D280FA80C680D4806980F2803380109E
:100C520080A680EA809A80A880DA80E280CA803307
:100C620089828A83ECFAE493A3C8C582C8CCC5837F
:100C7200CCF0A3C8C582C8CCC583CCDFE9DEE7804F
:100C82000D89828A83E493A3F608DFF9ECFAA9F0CE
:100C9200EDFB2289828A83ECFAE0A3C8C582C8CC24
:100CA200C583CCF0A3C8C582C8CCC583CCDFEADE3D
:100CB200E880DB89828A83E493A3F208DFF980CC9F
:100CC20088F0EF60010E4E60C388F0ED2402B40498
:100CD2000050B9F582EB2402B4040050AF2323453F
:060CE2008223900C427316
:100CE800BB010689828A83E0225002E722BBFE020A
:090CF800E32289828A83E493223D
:100D0100BB010CE58229F582E5833AF583E02250A7
:100D110006E92582F8E622BBFE06E92582F8E222F1
:0D0D2100E58229F582E5833AF583E493220B
:100D2E00BB010689828A83F0225002F722BBFE01A4
:020D3E00F3229E
:10000300E5442438F8E60544227835300702783889
:10001300E475F001120D40020CE82000EB7F2ED2B4
:10002300008018EF540F2490D43440D4FF30040BD5
:10003300EF24BFB41A0050032461FFE545600215A5
:10004300450548E5487002054730070D7835E475E6
:10005300F001120D40EF020D2E0210C67403D207F9
:100063008003E4C207F5448B358A368937E4F545C6
:10007300F547F548E54560077F2012003E80F5759A
:1000830046FFC201C200C202C203C205C206C208C1
:1000930012000CFF700D3007057F0012004FAF48B0
:1000A300AE4722B4255FC2D5C20412000CFF24D090
:1000B300B40A00501A75F00A784530D50508B6FF22
:1000C3000106C6A426F620D5047002D20380D924E3
:1000D300CFB41A00EF5004C2E5D20402024FD2019A
:1000E30080C6D20080C0D20280BCD2D580BAD205ED
:1000F30080B47F2012003E2002077401B545004002
:10010300F1120003FF12003E020077D208D20680EC
:1001130095120003FB120003FA120003F94A4B7015
:100123000679207A037BFF20022EE545602A7E00B4
:100133008E82758300120D0160060EEE654670F027
:10014300C2D5EBC0E0EAC0E0E9C0E0EE120296D00F
:10015300E0F9D0E0FAD0E0FB120CE8FF60AAEBC0B4
:10016300E0EAC0E0E9C0E012003ED0E02401F9D0AB
:10017300E03400FAD0E0FBE5460460DCD546D980E4
:10018300877BFF7A027992D202809C791080027970
:1001930008C206C2088008D2D5790A8004790AC247
:1001A300D5E546047002F546E4FAFDFEFF120003AE
:1001B300FC7B08200113120003FD7B1030000A12A0
:1001C3000003FE120003FF7B20EC3382D592D5504F
:1001D30013C3E43000069FFFE49EFEE42001039D69
:1001E300FDE49CFCE4CBF8C201EC700CCFCECDCC8B
:1001F300E824F8F870F38017C3EF33FFEE33FEED16
:1002030033FDEC33FCEB33FB994002FB0FD8E9EBF6
:10021300300105F8D0E0C448B201C0E00AEC4D4E0D
:100223004F78207B0070C2EAB5460040BCC0E012A4
:100233000298D0F0D0E0200104C4C0E0C4B201C0F1
:10024300F0120027D0F0D5F0EB020077120D500129
:100253001453018E5800E54C00E14201924F019A7C
:0F02630044019A4900FA4301A0550184460184E1
:100272004501844703405000E92D00ED2E01102B6B
:1002820000F123010E2003292A00A94800000108D9
:100292003F3F3F00790AA2D5200314300509B91067
:1002A200020404B9080104A2D52006025001042068
:1002B20002689202B545005034C0E07F2030031935
:1002C2007F30A20272067205500F1202EFC202C202
:1002D20006C205C2087F30800F300503E9C0E01274
:1002E200003E300503D0E0F9D0E0B545CC3005172B
:1002F2007F30B9100C12003E7F583004077F78809F
:1003020003B9080312003E3002057F2D02003E7F32
:10031200202008F87F2B2006F322920280CF286E3D
:10032200756C6C2900D2011200033001F8C2017809
:100332004530D50108F60200A92D50434958120054
:10034200032403B405004001E490033B9312002F01
:0D035200743A12002FD20375450402018E8B
:100E750002035FE493A3F8E493A34003F68001F231
:100E850008DFF48029E493A3F85407240CC8C3337E
:100E9500C4540F4420C8834004F456800146F6DF4D
:100EA500E4800B0102040810204080901217E47EB4
:100EB500019360BCA3FF543F30E509541FFEE49342
:100EC500A360010ECF54C025E060A840B8E493A309
:100ED500FAE493A3F8E493A3C8C582C8CAC583CA34
:100EE500F0A3C8C582C8CAC583CADFE9DEE780BEEC
:01121A0000D3
:100D4000FAE6FB0808E6F925F0F618E6CA3AF622B4
:100D5000D083D082F8E4937012740193700DA3A332
:100D600093F8740193F5828883E473740293686046
:060D7000EFA3A3A380DF46
:1010C600EFB40A07740D1210D1740A309811A8995A
:1010D600B8130CC2983098FDA899C298B811F6308A
:0710E60099FDC299F5992262
:00000001FF
