:10000000020A95E5332427F8E605332278243007E1
:10001000027827E475F00112083A0207E22000EBAB
:100020007F2ED2008018EF540F2490D43440D4FF98
:1000300030040BEF24BFB41A0050032461FFE534F1
:10004000600215340537E5377002053630070D7844
:1000500024E475F00112083AEF020828020D2E740C
:1000600003D2078003E4C207F5338B248A2589264F
:10007000E4F534F536F537E53460077F2012003EAD
:1000800080F57535FFC201C200C202C203C205C2BB
:1000900006C20812000CFF700D3007057F00120029
:1000A0004FAF37AE3622B4255FC2D5C20412000C62
:1000B000FF24D0B40A00501A75F00A783430D50500
:1000C00008B6FF0106C6A426F620D5047002D203A6
:1000D00080D924CFB41A00EF5004C2E5D204020242
:1000E0004FD20180C6D20080C0D20280BCD2D5805F
:1000F000BAD20580B47F2012003E2002077401B5F9
:10010000340040F1120003FF12003E020077D208D3
:10011000D2068095120003FB120003FA120003F9C5
:100120004A4B700679207A037BFF20022EE534606B
:100130002A7E008E827583001207FB60060EEE6534
:100140003570F0C2D5EBC0E0EAC0E0E9C0E0EE12E5
:100150000296D0E0F9D0E0FAD0E0FB1207E2FF60AF
:10016000AAEBC0E0EAC0E0E9C0E012003ED0E02423
:1001700001F9D0E03400FAD0E0FBE5350460DCD5CD
:1001800035D980877BFF7A027992D202809C7910E0
:1001900080027908C206C2088008D2D5790A800494
:1001A000790AC2D5E535047002F535E4FAFDFEFFA3
:1001B000120003FC7B08200113120003FD7B1030AA
:1001C000000A120003FE120003FF7B20EC3382D5ED
:1001D00092D55013C3E43000069FFFE49EFEE42056
:1001E00001039DFDE49CFCE4CBF8C201EC700CCF54
:1001F000CECDCCE824F8F870F38017C3EF33FFEED0
:1002000033FEED33FDEC33FCEB33FB994002FB0F87
:10021000D8E9EB300105F8D0E0C448B201C0E00AEB
:10022000EC4D4E4F78207B0070C2EAB5350040BCE3
:10023000C0E0120298D0F0D0E0200104C4C0E0C4B5
:10024000B201C0F0120027D0F0D5F0EB0200771217
:10025000084A011453018E5800E54C00E142019216
:100260004F019A44019A4900FA4301A0550184467E
:1002700001844501844703405000E92D00ED2E0123
:10028000102B00F123010E2003292A00A9480000A9
:1002900001083F3F3F00790AA2D520031430050929
:1002A000B910020404B9080104A2D52006025001C5
:1002B000042002689202B534005034C0E07F203040
:1002C00003197F30A20272067205500F1202EFC2AC
:1002D00002C206C205C2087F30800F300503E9C0A4
:1002E000E012003E300503D0E0F9D0E0B534CC3068
:1002F00005177F30B9100C12003E7F583004077F7D
:10030000788003B9080312003E3002057F2D0200F9
:100310003E7F202008F87F2B2006F322920280CF18
:10032000286E756C6C2900D2011200033001F8C2EE
:1003300001783430D50108F60200A92D5043495800
:100340001200032403B405004001E490033B931220
:10035000002F743A12002FD20375340402018E7FED
:1003600032120DDE120E54120DB27BFF7A08797034
:10037000120065120D55120E287BFF7A0879821241
:100380000065120E3FEF6003120C297F09120E3434
:10039000EF30E5047F0180027F00EF60E57FFA1215
:1003A0000DDE120E3FEF6003120C297BFF7A0879F5
:1003B00092120065120D77E4F5227F09120E34EFD8
:1003C00030E5047F0180027F00EF700E7F01120D87
:1003D000DE0522E522C3946440E0120E3FEF600385
:1003E000120C297F09120E34EF30E5047F018002E0
:1003F0007F00EF602B7F04120E34EF30E3047F01A7
:1004000080027F00EF600B120DEF7BFF7A0879A06E
:100410008009120E0D7BFF7A0879B9120065800CF5
:100420007BFF7A0879D11200650203767F32120DC4
:10043000DE7BFF7A0879E01200657B007A00794460
:10044000120C688F23E52364146002806BE4F522AC
:10045000900987E493FFE522C39F50187BFF7A0839
:1004600079FF74442522F8E6752700F52812006507
:10047000052280DC7BFF7A0979051200657BFF7A13
:100480000979071200657F02120BA58F23E523640B
:1004900014600280237BFF7A0979051200657BFFD7
:1004A0007A0979171200657B007A007944120B21D2
:1004B0008F23E523641460047BFF8046E4F522E586
:1004C00022C378469650187BFF7A0879FF7444253A
:1004D00022F8E6752700F528120065052280E07BEA
:1004E000FF7A0979051200657BFF7A0979281200E5
:1004F000657849E6FF120CA68F23E52364147BFF81
:10050000600B7A0879F17527008F2880167A0979AF
:10051000051200657BFF7A0979371200657BFF7A47
:1005200009794D1200657BFF7A0979701200651216
:100530000E3FEF6003120C297F09120E34EF30E5F5
:10054000047F0180027F00EF70E57F64120DDE7F83
:1005500009120E34EF30E5047F0180027F00EF7056
:100560000302037680C08B308A3189327D087F4058
:10057000120D057D087F0B120DD37F64120E0675D8
:1005800040007541C8E4FB7D0DFF120BEAAC07EC9F
:10059000641460030206D6753C01AB30AA31A9325F
:1005A0009000061207FBF53B700302069CE53445FC
:1005B000354533700302069C853B391207E230E76C
:1005C0006FE53960667F64120E067540007541C89C
:1005D000AB3C7D09E4FF120BEAAC07EC6414704BF2
:1005E0007F0B120E348F3AAB33AA34A935AD3A7F64
:1005F000C0120CDAE53A2535F535E43534F534E545
:100600003AD395395009C3E539953AF5398003E471
:10061000F539E53A6015E50914553A700EE53C6088
:10062000047F0080027F018F3C8096E4F53C80656A
:10063000E539605E7F64120E06E539C39509400412
:10064000AF098002AF398F3AAB33AA34A935AD3A3E
:100650007F40120D05AD3A7F0B120DD3754000752A
:1006600041C8AB3C7D01E4FF120BEAAC07EC64141B
:100670007020E53A2535F535E43534F534C3E539F0
:10068000953AF539E53C60047F0080027F018F3C9C
:10069000809E753C01C3E53B9539F53BEC641470D5
:1006A00035FD7F0B120DD37F64120E06E53C60040E
:1006B0007D0980027D017540007541C87B01E4FF22
:1006C000120BEAAC07E53C600DBC140A7F0B120E5E
:1006D00034EF60027C17E53745384536600BAB36A2
:1006E000AA37A938E53B120828AF0422E709F60823
:1006F000DFFA8046E709F208DFFA803E88828C83C1
:10070000E709F0A3DFFA8032E309F608DFFA807820
:10071000E309F208DFFA807088828C83E309F0A392
:10072000DFFA806489828A83E0A3F608DFFA8058C2
:1007300089828A83E0A3F208DFFA804C80D280FAB3
:1007400080C680D4806980F28033801080A680EAE1
:10075000809A80A880DA80E280CA803389828A8386
:10076000ECFAE493A3C8C582C8CCC583CCF0A3C877
:10077000C582C8CCC583CCDFE9DEE7800D89828ADB
:1007800083E493A3F608DFF9ECFAA9F0EDFB2289E4
:10079000828A83ECFAE0A3C8C582C8CCC583CCF0BA
:1007A000A3C8C582C8CCC583CCDFEADEE880DB897C
:1007B000828A83E493A3F208DFF980CC88F0EF60AB
:1007C000010E4E60C388F0ED2402B4040050B9F568
:1007D00082EB2402B4040050AF2323458223900708
:1007E0003C73BB010689828A83E0225002E722BB68
:1007F000FE02E32289828A83E49322BB010CE58214
:1008000029F582E5833AF583E0225006E92582F84E
:10081000E622BBFE06E92582F8E222E58229F5827E
:10082000E5833AF583E49322BB010689828A83F04B
:10083000225002F722BBFE01F322FAE6FB0808E68B
:10084000F925F0F618E6CA3AF622D083D082F8E409
:10085000937012740193700DA3A393F8740193F530
:10086000828883E4737402936860EFA3A3A380DF9C
:10087000537461727420434833373420486F737463
:100880000A00576169742044657669636520496E82
:100890000A005265736574204465766963650A00D1
:1008A00053746172742046756C6C2D537065656469
:1008B000204465766963650A005374617274204C44
:1008C0006F772D5370656564204465766963650AAA
:1008D0000044657669636520676F6E6520210A00B4
:1008E00047657444657669636544657363723A204D
:1008F000004552524F52203D20253032580A0025E3
:1009000030325820000A00536574557362416464A4
:10091000726573733A2000476574436F6E6669674A
:1009200044657363723A2000536574557362436F74
:100930006E6669673A2000555342206465766963A4
:1009400065207265616479206E6F770A00646F209C
:10095000736F6D657468696E672C207265616420C1
:100960002F207772697465202E2E2E2E2E2E0A00CF
:100970005761697420446576696365204F75740A10
:100980000080060001000012008006000200000442
:100990000000050200000000000009000000000047
:1009A000008F43AA05A903E4FBEAC454F0FFE54322
:1009B000540F4FFD7F0D120DD3E960047DC88002F6
:1009C0007D087F0E120DD3120D98AC07BCFA0122E0
:1009D0007F09120E34AC07EC30E1327FC8120E06EC
:1009E0007D137F09120DD3EC30E51F7F06120E3404
:1009F000EC30E70BEF543060037F13227F1522EFBA
:100A0000543060037F15227F13227F1622EC30E0E2
:100A1000667D117F09120DD30F120E34AC07EC5412
:100A20000FFFEA24F7602524FC6004240C7045BF06
:100A300002037F1422EF640E6035BF0A028030EC9F
:100A400054037003D38001C3403F8023EC5407FE5E
:100A5000BE0307EC30E4327F1422EF640E6003BF64
:100A60000A02800BEC54037003D38001C3401AEFD9
:100A70004420FF227FFA227FC8120E067D1F7F09C5
:100A8000120DD3EB60037FFA220BEB6403600302C9
:100A900009A97F2022787FE4F6D8FD758183020AB8
:100AA000DC02035FE493A3F8E493A34003F6800120
:100AB000F208DFF48029E493A3F85407240CC8C398
:100AC00033C4540F4420C8834004F456800146F6D2
:100AD000DFE4800B0102040810204080900E50E4F7
:100AE0007E019360BCA3FF543F30E509541FFEE430
:100AF00093A360010ECF54C025E060A840B8E493F2
:100B0000A3FAE493A3F8E493A3C8C582C8CAC58333
:100B1000CAF0A3C8C582C8CAC583CADFE9DEE780B8
:100B2000BE8B248A2589268B338A34893575360015
:100B30007537007538277BFF7A097989120566EFCA
:100B40006414706090098F93FEE527C39E50047F64
:100B500017805178287C007D007BFF7A0979897E97
:100B6000007F081207BCAB24AA25A9269000021218
:100B700007FBF52E8B338A348935753600753700BF
:100B80007538277B007A007928120566BF1415ABEB
:100B900024AA25A9269000021207FBFEE527C39E82
:100BA00050027F17228F2478257C007D007BFF7AFE
:100BB0000979917E007F081207BC852427753300D0
:100BC0007534007535007536007537007538007B53
:100BD000007A007925120566AC07BC1405AF241213
:100BE0000E497F03120DDEAF04228F3D8D3E8B3FF9
:100BF000E4F542AB3FAD3EAF3D1209A1BF2A06E589
:100C00004145407001227F14120E060542E542C3A1
:100C1000942840DFC3E54194FFE54094FF50D1E5BF
:100C200041154170CB154080C77F09120E34AE07C5
:100C3000EE30E12C7D127F09120DD3EE30E51D7FE1
:100C400006120E34EE30E707EF543060078009EFEC
:100C50005430600475081522750813227508162291
:100C60007D1D7F09120DD3228B248A2589268B3383
:100C70008A3489357536007537007538277BFF7AD9
:100C8000097981120566BF141CAB24AA25A92690F8
:100C900000071207FBF509900987E493FEE527C3D7
:100CA0009E50027F17228F2478257C007D007BFFD9
:100CB0007A0979997E007F081207BC85242775334D
:100CC00000753400753500753600753700753800CD
:100CD0007B007A007925120566228B3D8A3E893F8A
:100CE00090BDF1EFF0AF051DEF601990BCF0E0FF93
:100CF000AB3D053FE53FAA3E7002053E14F9EF12F9
:100D0000082880E1228B3D8A3E893F90BDF1EFF0BB
:100D1000AF051DEF6017AB3D053FE53FAA3E7002F2
:100D2000053E14F91207E290BCF0F080E322EFB424
:100D30000A07740D120D39740A309811A899B81366
:100D40000CC2983098FDA899C298B811F63099FD58
:100D5000C299F59922E4FD7F06120DD3120DCA7DCA
:100D60001F7F09120DD37D037F07120DD37D407FB6
:100D700005120DD3020E28750908120DCA7D817F58
:100D800006120DD37F0F120DDE120E287F01120DF9
:100D9000DE7D167F09020DD3E4FDFC120E3FEF60ED
:100DA000037F00220DBD00010CBC27EFBD10EC7FBE
:100DB000FA2275985075878075CAF375CCF375CB98
:100DC000FF75CDFF75C834D29922E4FF120E49E4B5
:100DD000FD7F0E90BDF1EFF090BCF0EDF022AD077D
:100DE000AF051DEF6008120DFF120DFF80F2227F8C
:100DF00006120E34EF54CF4440FD7F06020DD37F20
:100E0000FA120E067FFAAE071FEE70FA227F061264
:100E10000E34EF4470FD7F06020DD390BDF1EFF06C
:100E2000E05D4B90BCF0F0227D807F06120DD37DFB
:100E3000C0020DD390BDF1EFF090BCF0E0FF223086
:100E4000B2047F0080027F0122AD077F08020DD32C
:050E5000010908002269
:00000001FF
