:040000000C94E0017B
:14008C009E250020202020202020202030303030302020202D
:1400A0002020202020202020202020202020209040404040DC
:1400B40040404040404040404040400C0C0C0C0C0C0C0C0C0C
:1400C8000C404040404040400909090909090101010101011C
:1400DC00010101010101010101010101010140404040404082
:1400F0000A0A0A0A0A0A0202020202020202020202020202A4
:140104000202020202024040404020000000000000000000BB
:140118000000000000000000000000000000000000000000D3
:14012C000000000000000000000000000000000000000000BF
:140140000000000000000000000000000000000000000000AB
:14015400000000000000000000000000000000000000000097
:14016800000000000000000000000000000000000000000083
:14017C0000000000000000000000000000000000000000541B
:14019000616B65206F75740A004E6F74653A200D0AD5E2B832
:1401A400F6B3CCD0F2CAC7D2D4D7D6BDDACEAAB5A5CEBBBD7D
:1401B800F8D0D055C5CCCEC4BCFEB6C1D0B42CB5A5C6ACBBBB
:1401CC00FAD6BBD0E8D2AAD3D0363030D7D6BDDAB5C45241D7
:1401E0004D0D0A0057726974650A002F4E455746494C452E2B
:1401F400545854004372656174650A00436C6F73650A00CECB
:14020800C4BCFED2D1BEADBDE1CAF80A000A00256300B4D3D3
:14021C00CEC4BCFED6D0B6C1B3F6B5C4C7B02564B8F6D7D6E8
:14023000B7FBCAC73A0A0020206D617463682066696C652006
:1402440025303364233A2025730A004C6973742066696C653F
:140258002025730A002F4335312F43483337342A002F2A001D
:14026C002F4335312F43483337344846542E43004F70656E69
:140280000A005265616479203F0A00576169742055646973B8
:140294006B0A0053746172740A004572726F723A20253032DE
:1402A800580A002301100001000000A3000000010004000201
:1402BC0001000000000000A1FE000000000100000900000084
:1402D000000000A006002900000900800600020000040000B6
:1402E40005020000000000800600010000120021FF00000046
:1402F80000000055534243003C696E7465676572206F6E6C32
:14030C0079207072696E74662C2073656C6563742050726F94
:140320006A6563742D3E4F7074696F6E732D3E54617267656E
:14033400742C224650207072696E74662220746F207072691A
:140348006E7420666C6F6174696E6720706F696E74206E75FE
:14035C006D626572733E00286E756C6C207074722070617379
:14037000736564290030313233343536373839616263646518
:14038400666768696A6B6C6D6E6F70717273747576777879AF
:140398007A00303132333435363738396162636465666768A6
:1303AC00696A6B6C6D6E6F707172737475767778797A0043
:1403C000CFEFDFE0CDBFDEBFC852D0400AEA08830024E0E3F3
:1403D400F3E015E0E03DF10711F00192FBCF0083EFE8F1E0AF
:1403E800A0E0B1E013E0EF3BF10721F0C89531960D92F9CF3F
:1403FC000E94F402FFCF09E03CD0802F8370D9F308950AE895
:1404100012E002C00150104000300107D9F7089508950E949F
:140424005D07043110F40FEF08C080E393E090938C058093C4
:140438008B050E94FF07089588B3836088BB87B3876087BB17
:14044C0087B3887087BB8CE58DB908950FB9779BFECF0FB16D
:1404600008950E945625422F602F88B38E7F88BB062FF2DF3D
:14047400042FF0DF0E94482508950E945825402F20EC042FF9
:14048800ECDF0FEFE5DF402FC09A0E945B2508950E9456252E
:14049C00422F602F20E8062FDEDF042FD7DFC09A0E94482500
:1404B00008950E945425622FA02E4E815F8120EC0A2DCFDF81
:1404C40005C00FEFC7DFFA010193AF01262E332461502220DE
:1404D800B1F7C09A0E944A2508950E945425622FA02E4E8117
:1404EC005F8120E80A2DB7DF04C0FA010191AF01ADDF262E66
:14050000332461502220B9F7C09A0E944A2508950E945625C8
:14051400B901402F20EC042FA2DF40E406C00FEF99DFFB018E
:140528000193BF014A954423C1F7C09A8B010E9448250895DB
:14053C000E945625B901402F20E8042F8CDF40E405C0FB01DA
:140550000191BF0181DF4A954423C9F7C09A8B010E944825EA
:1405640008950E945625A901602F20E800E477DFFA010081D2
:140578006FDF4F5F5F4F862F8150682F8823B1F7C09A0E9459
:14058C00482508950E945825402F442309F412C0242F3327E0
:1405A0000FE012E00E9469260AC088B38F7788BB04E60E945B
:1405B400BB07C79A04E60E94BB07F5CF0E945B2508952224F9
:1405C8002092900087E689B988E18AB986E08093950081E013
:1405DC0090E09093CF058093CE05089522972ADFC79ABF9AA5
:1405F00088B38F7788BB04E60E94BB07C79AE3DF08E012E028
:140604000E9469260CDF402FC1DF0DC10CEF11E00E946926CC
:1406180008C00AE00E94BB070E947C08002309F401C0F7CFEB
:14062C0088B38F7788BB08EC0E94BB0744270DC004E60E941A
:14064000BB0703EF11E00E9469260E94E61C002309F403C049
:140654004395453088F382E02090B305821508F0E2C00DEED4
:1406680011E00E9469262DED31E001E415E00E94F5240E94FA
:14067C006C12402F033B19F0023409F03AC0433B19F46AED2B
:1406900071E002C06EEC71E09B0100EC11E00E946926AA2420
:1406A40028C09B0101E415E00E94F52401E415E00E94FE248B
:1406B800402F81E495E0E42FFF27E80FF91FA0820E946C125B
:1406CC00402F023409F45CC0433459F481E495E09983888397
:1406E0002A2D332708EA11E00E94692603C0042F4FDF4CC011
:1406F400A3948A2D8E3FA8F247C0042F47DF88E592E06C01F1
:140708009C010BE811E00E94692630C08DE190E08C159D051A
:14071C0010F4A82E01C0AC2CA09241050E948F0431DF2090E9
:1407300041053324C218D30844270DC082E495E0E42FFF2717
:14074400E80FF91F2081332708E811E00E94692643952090FD
:140758004105421579F72A1448F406E811E00E94692608E707
:14076C0011E00E94692604C0CC2071F6DD2061F601E711E013
:140780000E9469260E94B316402F02DF09E611E00E94692668
:140794002CE531E001E415E00E94F5240E94BB17402FF4DEE5
:1407A80005E511E00E9469266AE071E01CC044270FC0FB0184
:1407BC00A08082E495E0E42FFF27E80FF91FA082AA2009F4FD
:1407D00005C06F5F7F4F43954D3178F3442309F407C04093F5
:1407E40041050E94BA05402FD1DEE3CF01E711E00E94692680
:1407F80081E0809341050E94B316402FC5DE00E011E00E9443
:14080C00692608C00AE00E94BB070E947C08002309F001C030
:14082000F7CFC79A08EC0E94BB07F2CE229608950E94562513
:140834008091B305843111F004EB23C04090AF055090B00546
:140848002090AD053090AE0530926B0520926A0550926D0520
:14085C0040926C0540E050E060E070E05093A6054093A5055A
:140870007093A8056093A70522242092690525E104E10E9432
:14088400E3070E94482508950E9454258091B305853129F017
:14089800CBDFA02E002309F03BC040904305509044052090CC
:1408AC004105309042053092A6052092A5055092A8054092C1
:1408C000A7058090AB059090AC056090A9057090AA05621424
:1408D40073048404950450F4130124013092A6052092A50532
:1408E8005092A8054092A7052091A7053091A8050091A505E9
:1408FC001091A6050E948D0710934205009341053093440597
:14091000209343050E94121D0E944A2508950E945025809131
:14092400B305853129F082DFA02E002309F01DC12090410519
:14093800EEE6F5E020822224209241050DC180918D05909190
:14094C008E0501972090A5053090A6052822392240908D05A0
:1409600050908E0542185308EEE6F5E020803324421453040E
:1409740018F0209265050CC04090A7055090A8052090A5051C
:140988003090A605332432183092650520906505332444244A
:14099C0055248090A7059090A8056090A5057090A605620C92
:1409B000731C841C951C4090AB055090AC052090A905309024
:1409C400AA056214730484049504B8F04090A7055090A805B1
:1409D8002090A5053090A6056090AB057090AC054090A90577
:1409EC005090AA054218242C20926505442009F4B7C00E9428
:140A0000341B0E942409A02E002309F0B0C080918D059091A6
:140A14008E0501972090A5053090A6052822392240908B05D9
:140A280050908C05240C351C3092610520926005209065056F
:140A3C003324442455248090A7059090A8056090A50570904B
:140A5000A605620C731C841C951C7092A6056092A50590922E
:140A6400A8058092A70530906E05321830926E0582E495E086
:140A7800C0904105DD24C80ED91E30904105320C30924105BA
:140A8C00E0916005F09161052080F6012082CF0101966C018C
:140AA00080916005909161050196909361058093600580919C
:140AB40065058150282E20926505882329F780918D059091F2
:140AC8008E0501972090A5053090A60528223922222009F04A
:140ADC0041C0332009F03EC0809169058F5F282E20926905D8
:140AF0004090B1058415A0F122270AE615E00E94390EE02E1D
:140B0400002309F032C0209095052220A1F08FEF80936905B3
:140B18004090A7055090A8052090A5053090A6053092AA058A
:140B2C002092A9055092AC054092AB0519C04090670550904B
:140B40006805209065053090660530926B0520926A055092BA
:140B54006D0540926C05222420926905EEE6F5E020802220E7
:140B680009F0EDCE00270E944E2508950E9450252497809109
:140B7C00B305853129F056DEA02E002309F093C12090410576
:140B9000EEE6F5E0208220904105222039F42090700522203A
:140BA40019F00E94701B83C122242092410578C180916905CD
:140BB8008F3F09F086C040E050E060E070E04090AF055090D8
:140BCC00B0052090AD053090AE05241635064606570641F13B
:140BE00040906C0550906D0520906A0530906B053092A605B2
:140BF4002092A5055092A8054092A7050E94FF110983002E18
:140C0800002309F052C122E005EA15E00E94390E0983002E20
:140C1C00002309F048C10E94CF0D0983002E002341F041C111
:140C30000E94AE1D0B83002E002309F03AC140906C0550904F
:140C44006D0520906A0530906B053092A6052092A505509230
:140C5800A8054092A7054FEF5FEF6FEF7FEF50936B054093DF
:140C6C006A0570936D0560936C050E9416120A834090A70559
:140C80005090A8052090A5053090A60530926B0520926A05BB
:140C940050926D0540926C05002E002309F007C14090AB0523
:140CA8005090AC052090A9053090AA053092A6052092A50511
:140CBC005092A8054092A7052224209269050E94341B0E941E
:140CD00024090883002E002309F0EBC080918D0590918E050C
:140CE40001972090A5053090A6052822392240908D055090B8
:140CF8008E0542185308EEE6F5E0208033244214530418F04B
:140D0C00209265050CC04090A7055090A8052090A5053090C8
:140D2000A605332432183092650580918D0590918E05019758
:140D34002090A5053090A6052822392240908B0550908C0570
:140D4800240C351C30926105209260052090650533244424FE
:140D5C0055248090A7059090A8056090A5057090A605620CCE
:140D7000731C841C951C7092A6056092A5059092A805809265
:140D8400A70530906E05321830926E0582E495E0A0904105AC
:140D9800BB24A80EB91E30904105320C30924105F5012080F9
:140DAC00E0916005F091610520828091600590916105019640
:140DC0009093610580936005C50101965C0180916505815018
:140DD400282E20926505882329F70E94450AE02E002309F0B3
:140DE80064C04090A7055090A8052090A5053090A6058090F5
:140DFC00AB059090AC056090A9057090AA05621473048404A0
:140E1000950458F43092AA052092A9055092AC054092AB0503
:140E240081E08093700580918D0590918E0501972090A50588
:140E38003090A60528223922222081F5332071F580916905A6
:140E4C008F5F282E209269054090B105841520F122270AE6C5
:140E600015E00E94390EC02E002309F022C020909505222028
:140E740021F08FEF8093690513C0409067055090680520904E
:140E880065053090660530926B0520926A0550926D05409248
:140E9C006C05222420926905EEE6F5E02080222009F082CE97
:140EB000002724960E944E25089504E10895F80120802092CE
:140EC40065050F5F1F4FF8012080209266050F5F1F4FF80149
:140ED8002080209267050F5F1F4FF801208020926805209103
:140EEC0067053091680500916505109166050895F80120801B
:140F0000209265050F5F1F4FF8012080209266050091650534
:140F14001091660508950E940A2580915F0599270897FE017C
:140F280020803180428053808A93810192010E9492251093A1
:140F3C006605009365053093680520936705212E209265057F
:140F5000222E20926605232E2092670522242092680520919B
:140F64006705309168050091650510916605249608950E94DF
:140F78005625402F06E00E943F02602F0F3FE1F007FF1AC024
:140F8C004093680504E00E943F0205FDFBCF0AC004E00E942E
:140FA0003F0205FFFBCF04E00E943F0205FDFBCF209068057E
:140FB400822D815080936805222071F70E94482508950E9431
:140FC8005625422F602F2090B305261610F04093B3052090BB
:140FDC00B305241611F4002709C081E08093B30585D0402F2A
:140FF000002309F001C003E80E944825089522242092B305C9
:1410040025E500E80E944C022AEA01E80E944C0200E80E947F
:141018003F02053529F401E80E943F020A3A11F001E82CC046
:14102C00222706E00E944C0222270EE00E944C0285E88093EA
:14104000960522242092920580E092E090938E0580938D0545
:1410540020929105209294052FE109E00E944C0207E00E9483
:141068003F02202F207F236007E00E944C0220E405E00E9460
:14107C004C020E94A321002708950E9456254FEF5FEF6FEFE1
:141090007FEF509384054093830570938605609385052224C6
:1410A400209271050E944825089580919105813029F402E00D
:1410B8000E943F0209701BC080919105823029F403E00E94F2
:1410CC003F02097012C080919105833039F403E00E943F0237
:1410E000007902950F7007C022242092910509E00E943F024C
:1410F4000072089506E00E943F02202F2074206806E00E941D
:141108004C0209E00E943F0201FF09C0CCDF093011F00E9469
:14111C00A32123E109E00E944C02C3DF002309F48AC0809101
:14113000B305823030F482E08093B3052224209290052090B3
:141144009005222011F400277CC0209191052E5F08E00E94FA
:141158004C0220908F05222009F434C00E94C0212090B405D2
:14116C002220E9F4E0918B05F0918C05228020FE07C082E054
:141180008093B3050E94CD210E94BB22E0918B05F0918C056E
:14119400208020FE15C020918F05205F08E00E944C020027F1
:1411A8004EC08091B405863141F02090B40525FE05C0809111
:1411BC00B405837009F43FC082E08093B30536C080918F05AF
:1411D0008F5F80938F050E94C0212090B4052220B9F4E0912A
:1411E4008B05F0918C05228020FE04C00E94CD210E94BB22C2
:1411F800E0918B05F0918C05208020FE12C0218021FC0FC0B3
:14120C0000271BC08091B405863141F02090B40525FE05C0C9
:141220008091B405837009F40CC02090900530908F05321455
:1412340008F4CACF222420928F0504E802C00E94A3210895D4
:141248000E9450252197409085055090860520908305309006
:14125C0084058090890590908A056090870570908805622419
:1412700073248424952440E050E060E070E064167506860611
:14128400970609F4FBC022242092920588E2888321E007E80D
:1412980015E00E94C01B2090B405222009F0CDC02CEC06E0A1
:1412AC000E944C02209163050DE00E944C02209194050EE010
:1412C0000E944C0281E08093950580E420909405282620926F
:1412D400940520908B0530908C053092840520928305809146
:1412E8005F05893021F488E090E05C0115C080915F058A3087
:1412FC0021F480E190E06C010CC080915F058B3021F480E218
:1413100090E07C0103C080E490E07C0167015601A09266056C
:141324000E94D9212090B405222029F020EC06E00E944C0273
:1413380060C080E890E0209094053324282639262092940511
:14134C0080916605813021F0222D0EE00E944C0220918305E9
:14136000309184052090940527FE04C080EC90E05C0103C001
:1413740080E890E05C010A2D0E948802109384050093830586
:14138800809166058150282E20926605882331F620EC06E0CD
:14139C000E944C02209194050EE00E944C02409089055090E7
:1413B0008A05209087053090880530928405209283055092AA
:1413C40086054092850580E890E02090940533242826392609
:1413D800209294050E94D9212090B4052220D9F080E890E0CE
:1413EC0020909405332428263926209294058091B4058E32CB
:1414000001F5209092052220E1F4009163050E94DB2081E08D
:14141400809392050E94B21BC6CF0BE00E943F020D3069F4AE
:141428000CEC0E943F02002311F4002726C00CEC0E943F02C5
:14143C00013009F408C08091B405863111F402E81AC00E94BA
:14145000181E80919205853050F4833010F00E94F31A80913E
:1414640092058F5F8093920511CF0BDE8FE18093B4050E949E
:14147800241B0E94F31A01C0002721960E944E2508950E947F
:14148C00542521972224209292058AE2888321E007E815E030
:1414A0000E94C01B2090B405222009F0F0C028EC06E00E94CB
:1414B4004C0220908B0530908C05309284052092830591012E
:1414C8002090940526FE03C040E450E002C040E850E0042F3F
:1414DC000E949E02109384050093830520E40BE00E944C0294
:1414F00080E420909405282620929405222D0EE00E944C0275
:1415040080915F05893019F448E050E014C080915F058A303D
:1415180019F460E170E00CC080915F058B3021F480E290E03E
:14152C005C0103C080E490E05C01B501AB01409366058091A9
:1415400066058130A1F020918305309184052090940526FEFA
:1415540003C040E450E002C040E850E0042F0E949E0210933A
:141568008405009383050E94D9212090B4052220B1F020ECD7
:14157C0006E00E944C028091B4058E3209F081C0209092057A
:14159000222009F07CC0009162050E94DB2081E08093920530
:1415A4001BC080E420909405282620929405809166058130E5
:1415B80021F0222D0EE00E944C02809166058150282E20928C
:1415CC006605882309F0B5CF20EC06E00E944C02209163057D
:1415E0000DE00E944C02209194050EE00E944C0281E080937E
:1415F40095054090890550908A052090870530908805309231
:14160800840520928305509286054092850580E890E02090BA
:14161C009405332428263926209294050E94D9212090B405CD
:141630002220C9F080E890E0209094053324282639262092D4
:1416440094058091B4058E3201F5209092052220E1F400918A
:1416580063050E94DB2081E080939205BBCF0BE00E943F0216
:14166C000D3079F40CEC0E943F02002321F40E9407020027DB
:1416800024C00CEC0E943F02013009F408C08091B405863120
:1416940011F402E818C00E94181E80919205853050F483304F
:1416A80010F00E94F31A809192058F5F80939205EECEE5DCC2
:1416BC008FE18093B4050E94241B0E94F31A21960E944A2586
:1416D00008950E94502525978091B305833040F40E944E1ED8
:1416E400A02E002309F055C20E941021CADC2224E0E6F5E097
:1416F800208240E050E060E070E0509388054093870570938A
:14170C008A05609389059ADDC02E002349F00E94181E0E947E
:14172000102192DDA02E002309F035C2E0E6F5E020802220B7
:1417340041F4E0918B05F0918C0580818D7F893E69F1EE2419
:1417480026C080918B0590918C0582549E4FEE2DFF27E80F59
:14175C00F91F24802220B1F080918B0590918C0582549E4FC4
:141770000E2D1127080F191F085F1F4FA0DB10938805009390
:14178400870530938A052093890508C08E2D805FE82E8E2DFF
:141798008034B9F602E9FBC14090890550908A05209087052A
:1417AC00309088053092800520927F0550928205409281059E
:1417C00043DD0C83002E002309F0E5C1E0918B05F0918C0563
:1417D40080818D7F893E11F001EADBC1E0918B05F0918C0592
:1417E80025842092B1052092B20586E080937A050FC02090FC
:1417FC00B20526FE01C011C02090B205220C2092B20580915D
:141810007A05815080937A0520907A05222069F781E080939D
:14182400B105E0918B05F0918C052688378830927C05209285
:141838007B05222051F5332041F5E0918B05F0918C0524A034
:14184C0035A046A057A030926B0520926A0550926D0540925D
:141860006C0540E050E061E070E0241635064606570638F0DC
:14187400E0E6F5E02080222011F002EA8AC120906A053090CC
:141888006B0530927C0520927B05E0918B05F0918C052488A8
:14189C00E0918B05F0918C053388322899F000918B051091C5
:1418B0008C050D5E1F4F22DB1801442455243092AE0520929C
:1418C400AD055092B0054092AF0510C0E0918B05F0918C055E
:1418D80020A031A042A053A03092AE052092AD055092B00526
:1418EC004092AF0500918B0510918C050F5E1F4FFFDA180142
:1419000025E030E000918D0510918E050E948B25112701508C
:1419140010401127020D131D20915F053327255030400E9402
:141928008B251801442455243092A2052092A1055092A405B5
:14193C004092A305E0918B05F0918C05268437843092980546
:141950002092970520907B0530907C054090970550909805DB
:14196400420C531C1201442455248090A3059090A40560904D
:14197800A1057090A205260C371C481C591C30926B052092CC
:14198C006A0550926D0540926C0581E020888215D8F4209025
:1419A0007B0530907C054424552480906C0590906D0560908E
:1419B4006A0570906B05620C731C841C951C70926B0560928E
:1419C8006A0590926D0580926C0506C02224332430927C05DF
:1419DC0020927B0540906C0550906D0520906A0530906B05E3
:1419F0008090AF059090B0056090AD057090AE056218730800
:141A04008408950820907A0533242A92830194010E949225F1
:141A1800FE010083118322833383FE01208031804280538064
:141A2C003092730520927205509275054092740545EF5FEF1A
:141A400060E070E0FE0120803180428053802416350646065C
:141A54005706B0F42224332430927E0520927D0580917205DF
:141A680090917305853FEFE09E0720F481E08093B2051DC07D
:141A7C0082E08093B20519C0E0918B05F0918C0520A831A89D
:141A900030927E0520927D0524A435A446A457A43092A205DA
:141AA4002092A1055092A4054092A30583E08093B2052090F4
:141AB800970530909805222011F4332079F140E050E060E08D
:141ACC0070E04090A3055090A4052090A1053090A2052416BE
:141AE000350646065706F1F081E0E0918B05F0918C05208811
:141AF400821540F420907B0530907C05222011F4332071F0A7
:141B0800E0918B05F0918C052384222039F4E0918B05F0911E
:141B1C008C058485823040F4E0E6F5E02080222019F481E04A
:141B30008083E3CD4090890550908A05209087053090880598
:141B4400609097057090980588249924620C731C841C951CAD
:141B58007092770560927605909279058092780580906C05DE
:141B6C0090906D0560906A0570906B05620C731C841C951CB6
:141B800070929E0560929D059092A00580929F0520E103E0B7
:141B940018DA25960E944E2508950E94542540908505509089
:141BA8008605209083053090840530928805209287055092AE
:141BBC008A054092890563DCA02E002309F050C020907B05BD
:141BD00030907C05222019F4332009F443C020907B0530902E
:141BE4007C05442455248090890590908A05609087057090C2
:141BF8008805620C731C841C951C70928805609287059092CF
:141C0C008A05809289053BDCA02E002309F028C020907B057C
:141C200030907C05442455248090890590908A0560908705C5
:141C34007090880562187308840895087092880560928705E4
:141C480090928A058092890513012401309284052092830579
:141C5C00509286054092850522242092710500270E944A2505
:141C700008950E945225A22E680124978091B205823079F4CF
:141C8400F6012080318042805380220C331C441C551CFE0122
:141C9800208231824282538238C08091B205833091F482E0F0
:141CAC0090E0F60120803180428053808A93810192010E9403
:141CC0007F25FE01008311832283338322C0F60120803180D1
:141CD4003982288220FE06C08091960580618093960505C0B3
:141CE800809196058F7E8093960528803980369427944880D3
:141CFC005980420C531C120144245524FE0120823182428232
:141D1000538280918D0590918E050197FE0120803180282261
:141D2400392240908B0550908C05240C351C30926105209224
:141D38006005FE010081118122813381EAD8409078055090DA
:141D4C007905209076053090770538014901620C731C841C7E
:141D6000951CFE01608271828282938240908505509086050C
:141D74002090830530908405FE01608071808280938062246F
:141D880073248424952440E050E060E070E0641675068606EE
:141D9C009706D9F020907105222029F0FADEC02E002309F06A
:141DB000A7C1FE012080318042805380309288052092870545
:141DC40050928A05409289053DDAC02E002309F095C1AA20F9
:141DD80051F18A2D8F3F51F44FEF5FEF6FEF7FEFFE014083D1
:141DEC005183628373831AC08A2D813051F440E050E060E01D
:141E000070E0FE0140835183628373830DC040906C0550901F
:141E14006D0520906A0530906B05FE0120823182428253820C
:141E280081E0809371058091B205823061F5E0916005F09195
:141E3C00610520803180309266052092650522243324309233
:141E50006805209267058091650590916605873FEFEF9E07A3
:141E640020F081E090E06C0102C0CC24DD24C0929505AA20B3
:141E780041F028803980E0916005F09161053182208200278B
:141E8C0039C18091B205833009F035C0E0916005F091610522
:141EA0002080318042805380309266052092650550926805B0
:141EB40040926705852D807F9B819F70982B9B83852D8F706E
:141EC800809368058F3020F081E090E06C0102C0CC24DD24C6
:141EDC00C0929505AA2069F0FE012080318042805380E0918D
:141EF0006005F091610520823182428253820027FFC08981B4
:141F04008F70898320908B0530908C0580918D0590918E05D6
:141F1800820D931D019720906005309061052816390609F429
:141F2C0038C0F101208020926505218020926605AA2009F476
:141F4000ADC02090960524FE19C088818F7082959091650530
:141F54009F70982BE0916005F0916105908389818F708295B7
:141F6800988192959F70982BE0916005F0916105918390C032
:141F7C002880E0916005F09161052082298080916605807F26
:141F90008229E0916005F091610581837FC0E0916005F0913B
:141FA4006105208020926505AA2019F12090960524FE13C0F3
:141FB80028803324220C331C220C331C220C331C220C331C22
:141FCC008091650599278F7090706C01C228D32802C0C8806B
:141FE000DD24E0916005F0916105C082D8DDC02E002309F02E
:141FF40085C041E050E060E070E0409085055090860520903E
:14200800830530908405240E351E461E571E30928805209294
:14201C00870550928A054092890510D9C02E002309F068C038
:14203000E0918B05F0918C05208020926605AA2069F12090F8
:14204400960524FE17C029803324220C331C220C331C220CCC
:14205800331C220C331CA880BB24B594A794B594A794B59450
:14206C00A794B594A794A228B3280AC02980332480916605B6
:142080009927807F90705C01A228B328E0918B05F0918C0578
:14209400A08281E0809371052090960524FE12C08091660571
:1420A8008F7082959091650592959F70982B909365058091EC
:1420BC00660582958F708093660505C0809166058F708093BE
:1420D00066052224332430926805209267058091650590910B
:1420E4006605873FEFE09E0720F081E090E05C0102C0AA2475
:1420F800BB24A0929505002724960E944C2508950E9454257D
:14210C0070C14090740550907505209072053090730580907C
:142120006C0590906D0560906A0570906B0526143704480418
:14213400590410F401EB5EC141E050E060E070E040906C0509
:1421480050906D0520906A0530906B05240E351E461E571E84
:14215C0030926B0520926A0550926D0540926C0522270AE64C
:1421700015E07FDDA02E002309F03EC140E050E060E070E041
:14218400409067055090680520906505309066052416350604
:142198004606570609F428C18091B205813009F422C120909B
:1421AC008B0530908C053092610520926005823009F07CC018
:1421C00080918D0590918E0596958795019790936605809334
:1421D4006505909368058093670580916005909161050296E9
:1421E8009093610580936005FC0120803180222009F036C063
:1421FC00332009F033C08FEF9FEFE0916005F09161059183B3
:14221000808320906705309068054424552480906C059090EC
:142224006D0560906A0570906B0562287328842895288091C6
:1422380065059091660501971C014424552462187308840885
:14224C00950870926B0560926A0590926D0580926C0581E096
:14226000809371050027C8C080916505909166050197909370
:142274006605809365058030890709F0AECF209067053090DC
:1422880068054424552480906C0590906D0560906A05709082
:14229C006B05622873288428952870926B0560926A0590923B
:1422B0006D0580926C059BC080918D0590918E05969587952C
:1422C400969587950197909366058093650590936805809379
:1422D8006705809160059091610504969093610580936005EE
:1422EC00FC0120803180222009F054C0332009F051C0E09173
:142300006005F09161052280222009F049C0E0916005F09140
:14231400610583818F7009F041C08FEF9FEFE0916005F091EF
:14232800610591838083E0916005F0916105828380916005EC
:14233C00909161050396FC0180818F608083209067053090A1
:1423500068054424552480906C0590906D0560906A057090B9
:142364006B05622873288428952880916505909166050197C8
:142378001C0144245524621873088408950870926B056092D1
:14238C006A0590926D0580926C0581E08093710500272CC0BA
:1423A0008091650590916605019790936605809365058030CF
:1423B400890709F090CF2090670530906805442455248090F3
:1423C8006C0590906D0560906A0570906B056228732884285E
:1423DC00952870926B0560926A0590926D0580926C058FCEE9
:1423F0002FEF0AE615E03DDC0E944A2508950E94542582DE94
:14240400A02E013B09F00DC040E050E060E070E050936B05C1
:1424180040936A0570936D0560936C0571DE0E944A25089598
:14242C000E94542520907D0530907E05222021F4332011F45D
:14244000002747C0409081055090820520907F053090800524
:1424540060907D0570907E0588249924620C731C841C951CC8
:14246800709288056092870590928A05809289050E94240933
:14247C00A02E002309F027C080918B0590918C0588519E4F62
:14249000FC01408051806280738060916C0570916D0540912F
:1424A4006A0550916B05440D551D661D771D50936B05409364
:1424B8006A0570936D0560936C052A013B01408251826282E8
:1424CC0073820E94450A0E944A2508950E9450252997809180
:1424E000B305803128F4F5D8A02E002309F037C420E100E1CF
:1424F4000E94E307A02E002309F02FC42224209270058091ED
:1425080041058C3511F08F3239F482E495E090936F05809344
:14251C006E0510C0809142058A3309F0B7C0809141058334D5
:1425300008F4B2C084E495E090936F0580936E058091B20567
:14254400833071F44090A3055090A4052090A1053090A205AD
:14255800FE01208231824282538209C040E050E060E070E0D9
:14256C00FE014083518362837383FE01208031804280538005
:142580003092AE052092AD055092B0054092AF05E0916E056D
:14259400F0916F052080222009F0BAC34FEF5FEF6FEF7FEF8E
:1425A8005093AA054093A9057093AC056093AB058091B205ED
:1425BC00833009F447C082E0EDEAF5E080834090A3055090EB
:1425D000A4052090A1053090A20533244424552480909F05A5
:1425E4009090A00560909D0570909E056218730884089508CB
:1425F80070929E0560929D059092A00580929F0520915F0504
:14260C0033270091A1051091A2050E947825180144245524A8
:142620003092AA052092A9055092AC054092AB052090B1055A
:142634003324442455243092A2052092A1055092A40540923C
:14264800A30580E88093B1054090AF055090B0052090AD052A
:14265C003090AE0530926B0520926A0550926D0540926C050D
:1426700040E050E060E070E05093A6054093A5057093A805BB
:142684006093A70522242092690582E18093B30501E463C304
:1426980081E495E090936F0580936E0537C3E0916E05F091D8
:1426AC006F058081853E11F485E0808340E050E060E070E095
:1426C0004090AF055090B0052090AD053090AE0524163506A3
:1426D4004606570699F12090B1052092690542E050E060E0A7
:1426E80070E04090AF055090B0052090AD053090AE05241A62
:1426FC00350A460A570A60907A0577246A92810192010E941D
:142710007F251801290180909F059090A00560909D057090C3
:142724009E05260C371C481C591C30929A052092990550920D
:142738009C0540929B05B5C24090A3055090A4052090A105AC
:14274C003090A2052092690533244424552480909F059090E6
:14276000A00560909D0570909E05621873088408950870926B
:142774009A056092990590929C0580929B0593C240909B05E8
:1427880050909C052090990530909A05309288052092870582
:14279C0050928A05409289050E9424090F83002E002309F0AD
:1427B000D6C22224332430929805209297054CC220908B05E5
:1427C40030908C054090970550909805420C531C50926105C2
:1427D80040926005F20120802D82222009F497C28D81853E0B
:1427EC0009F42BC28D81853011F485EE8D83E0916E05F0913F
:142800006F05208033244D8055244214530421F0822D8A32EA
:1428140009F017C222242092680500240C8271C020906E0573
:1428280030906F05E0916805FF27E20DF31D20804090600590
:14283C0050906105EC81FF27E40DF51D3080321409F453C0A6
:1428500020906E0530906F05E0916805FF27E20DF31D20807A
:142864002220A1F020906E0530906F05E0916805FF27E20D43
:14287800F31D80818C3541F0E0916805FF27E20DF31D808145
:14288C008F32B1F42090600530906105EC81FF27E20DF31D05
:1428A0008081803209F033C08C81883020F4F1018085803203
:1428B40061F58BE08C8329C020906E0530906F05E091680522
:1428C800FF27E20DF31D80818E32E9F480916805883059F0BA
:1428DC002090600530906105EC81FF27E20DF31D8081803268
:1428F00071F487E08C830C8003940C82809168058F5F8093C9
:1429040068058C818B3008F48BCF8C818B3008F4D1C0E0916E
:142918006005F0916105238423FCCAC0222420929505E0910C
:14292C006005F0916105228C338C442455243092AE052092D6
:14294000AD055092B0054092AF058091B205833031F4248868
:1429540035883092B0052092AF0520906E0530906F05E0910D
:142968006805FF27E20DF31D2080222029F020909505222042
:14297C0009F48DC04090AF055090B0052090AD053090AE050F
:1429900030926B0520926A0550926D0540926C0540E050E0F9
:1429A40060E070E05093A6054093A5057093A8056093A70535
:1429B800222420926905E0916005F0916105238424FE22C03D
:1429CC004FEF5FEF6FEF7FEF5093AA054093A9057093AC05D8
:1429E0006093AB0523E100E10E94E3070887002E002309F0F6
:1429F400B4C120909505222021F083E490E07C0103C081E441
:142A080090E07C010E2DA7C1E0916005F0916105248C358CFC
:142A1C00468C578C3092AA052092A9055092AC054092AB050B
:142A300040E050E060E070E04090AF055090B0052090AD0537
:142A44003090AE05241635064606570679F48FEF8093690581
:142A580040E050E060E070E05093AA054093A9057093AC05C3
:142A6C006093AB0524E100E10E94E3070E83002E002309F066
:142A80006EC120909505222021F083E490E07C0102C0EE244E
:142A9400FF240E2D62C120906E0530906F0580916805992718
:142AA800820D931D019690936F0580936E05F7CD20906E0540
:142ABC0030906F05E0916805FF27E20DF31D80818A3209F019
:142AD000BAC0E0916005F0916105238423FCB3C020906E055F
:142AE40030906F05E0916805FF27E20DF31D2180222009F0CB
:142AF8005DC0CC2422242092660545C020906005309061051A
:142B0C00EC2DFF27E20DF31D8081803209F438C08C2D88305E
:142B200081F420906E0530906F05E0916605FF27E20DF31DD4
:142B34008EE28083809166058F5F809366052090600530905D
:142B48006105EC2DFF27E20DF31D208040906E0550906F059E
:142B5C00E0916605FF27E40DF51D208220906605222049F424
:142B7000E0916E05F0916F058081853011F485EE8083809136
:142B840066058F5F80936605C3948C2D8B3008F4B7CF209069
:142B98006E0530906F05E0916605FF27E20DF31D2224208299
:142BAC0081E080939505BBCE20906E0530906F05E091680549
:142BC000FF27E20DF31D81818F3F79F540E050E060E070E0BE
:142BD4004090AB055090AC052090A9053090AA05241635069A
:142BE8004606570609F485CF57FE02C00E94100241E050E0C3
:142BFC0060E070E04090AB055090AC052090A9053090AA0557
:142C1000241A350A460A570A3092AA052092A9055092AC051E
:142C24004092AB050EC020906E0530906F05809168059927B7
:142C3800820D931D0196FC0180818150808380919705909112
:142C4C0098058096909398058093970520908D0530908E05BD
:142C600040909705509098054214530408F4A8CD41E050E008
:142C740060E070E040909B0550909C052090990530909A051E
:142C8800240E351E461E571E30929A052092990550929C05A6
:142C9C0040929B058091690581508093690520906905222081
:142CB00009F068CD40E050E060E070E04090AF055090B005E9
:142CC4002090AD053090AE05241635064606570609F41FC02D
:142CD80022270DEA15E00E94390EA02E002309F03AC0209036
:142CEC009505222009F011C04090670550906805209065058B
:142D0000309066053092AE052092AD055092B0054092AF059E
:142D1400C8CCAA2412C020906E0530906F05EA2DFF27E20DF4
:142D2800F31D20803324822D8C3511F08F3211F403EB11C09A
:142D3C00A39420906E0530906F05EA2DFF27E20DF31D208019
:142D50003324222019F0822D8A32F9F602E429960E944E25B9
:142D640008950E9454258091B305823110F404EB5AC0809109
:142D7800B3058231C9F58091B2058330A9F14090A3055090B1
:142D8C00A4052090A1053090A2052092B10520915F053327F6
:142DA0000091A9051091AA050E948B25180144245524309282
:142DB400A2052092A1055092A4054092A305332444245524CF
:142DC80080909F059090A00560909D0570909E05620C731C4C
:142DDC00841C951C70929E0560929D059092A00580929F05DC
:142DF00083E12090B305821540F48091B305843139F42090DD
:142E04004105222019F422242092700520907005222029F038
:142E180063D4A02E002309F004C020E100E10E94E3070E94B1
:142E2C004A2508950E9452258091B305833128F44DDBA02EDE
:142E4000002309F095C020E100E10E94E307A02E002309F0B5
:142E54008DC040909B0550909C052090990530909A053092BD
:142E680088052092870550928A05409289050E942409A02E1D
:142E7C00002309F077C020908B0530908C05A0909705B09052
:142E90009805A20CB31C85EEF50180830E94450AA02E0023C6
:142EA40009F064C04090AF055090B0052090AD053090AE050F
:142EB8003092660520926505509268054092670540E050E0E0
:142ECC0060E070E0241635064606570609F449C041E050E0ED
:142EE00060E070E0241A350A460A570A3092AE052092AD0547
:142EF4005092B0054092AF0540E050E060E070E050936B057A
:142F080040936A0570936D0560936C0521E005E615E00E9417
:142F1C00390EC02E002309F025C041E050E060E070E04090BA
:142F30006C0550906D0520906A0530906B05240E351E461E92
:142F4400571E30926B0520926A0550926D0540926C0520906A
:142F580095052220D9F20E94CF0DA02E002309F003C060DA59
:142F6C0001C000270E944C2508950E9450252297ADDA0093CF
:142F80006905002331F454DFA02E002309F454C152C280912C
:142F94006905823411F0082F4CC280918D0590918E05809751
:142FA80020909705309098052816390608F440C140E050E0A2
:142FBC0060E070E04090AF055090B0052090AD053090AE0583
:142FD000241635064606570609F4D1C040909F055090A00548
:142FE40020909D0530909E0560909B0570909C054090990585
:142FF80050909A0542188091B1058150482240926905809199
:14300C009705909198059070882331F08091B1058150481694
:1430200009F00AC122270DEA15E00E94390EA02E002309F0D0
:1430340000C220909505222009F4FCC04090AF055090B00568
:143048002090AD053090AE0530926B0520926A0550926D05F8
:14305C0040926C05CED9A02E002309F0E6C122E00DEA15E0F7
:143070000E94390EA02E002309F0DDC10E94CF0DA02E00236C
:1430840009F0D7C10E944308AA24BB240CC020908B05309041
:143098008C05F501E20DF31D22242082C50101965C0120904C
:1430AC008D0530908E05250142245324442059F7552049F7BF
:1430C000222420926905D0D2809197059091980590708823DE
:1430D400B1F4222433243092980520929705409089055090BB
:1430E8008A05209087053090880530929A0520929905509229
:1430FC009C0540929B052090B1052092650523C00E94450A57
:14311000A02E002309F08FC141E050E060E070E04090890532
:1431240050908A052090870530908805240E351E461E571E41
:14313800309288052092870550928A054092890580916505AA
:14314C00815080936505209065052220C9F64FEF5FEF6FEF1C
:143160007FEF50936B0540936A0570936D0560936C055CD94A
:14317400C02E002309F45EC05CC18091970590919805907093
:14318800882309F055C041E050E060E070E040909B05509049
:14319C009C052090990530909A05241A350A460A570A3092E1
:1431B0009A052092990550929C0540929B0530928805209226
:1431C400870550928A05409289050E942409A02E002309F0E1
:1431D8002EC12224332430929805209297051BC020908B058F
:1431EC0030908C05A0909705B0909805A20CB31CF501808161
:14320000853E21F483858E7009F416C080919705909198059E
:143214008096909398058093970520908D0530908E054090BC
:1432280097055090980542145304D0F202EBFFC04090AF05DA
:14323C005090B0052090AD053090AE0530926B0520926A05C1
:1432500050926D0540926C05D2D8A02E002309F0EAC00E94F3
:14326400CF0DA02E002309F0E4C006E00E943F02802F8F7B6A
:14327800803811F001E1DBC040906C0550906D0520906A055A
:14328C0030906B053092AE052092AD055092B0054092AF0508
:1432A0004FEF5FEF6FEF7FEF50936B0540936A0570936D05B8
:1432B40060936C05B9D8A02E002309F0BAC040909B0550905D
:1432C8009C052090990530909A053092880520928705509235
:1432DC008A05409289050E942409A02E002309F0A4C0209022
:1432F0008B0530908C054090970550909805420C531C598268
:143304004882CC2411C08C2D8B3020F480E290E05C0102C0B1
:14331800AA24BB24EC2DFF2708801980E00DF11DA082C39420
:14332C008C2D803260F381E290E3E881F981918F808F81E086
:14334000E881F981848FEE242DC0E0916E05F0916F0520800B
:14335400222009F429C0E0916E05F0916F0580818E3241F46E
:1433680088E0E82ECF01019690936F0580936E05EE2DFF270E
:14337C0008801980E00DF11DA0916E05B0916F052C9020826A
:14339000E39480916E0590916F05019690936F0580936E05E5
:1433A4008E2D8B3008F4CFCF2090AD053090AE05E881F9814D
:1433B800338E228E2090AF053090B005E881F981358A248A67
:1433CC000E94450AA02E002309F02FC04090AF055090B0050A
:1433E0002090AD053090AE0530926B0520926A0550926D055D
:1433F40040926C0540E050E060E070E05093AA054093A9058F
:143408007093AC056093AB0540E050E060E070E05093A605EB
:14341C004093A5057093A8056093A70522242092690524E165
:1434300000E10E94E30722960E944E2508950E945625809183
:14344400B305833110F404EBC9C040909B0550909C052090EB
:14345800990530909A05309288052092870550928A05409293
:14346C0089050E942409402F002309F0B3C022242092710583
:1434800020908B0530908C054091970550919805420D531DFD
:1434940060914905FA012384209249058FEF90E0262E3324AA
:1434A80028263926222011F4332029F0FA01638781E0809357
:1434BC00710520904705309048053092680520926705FA0135
:1434D0002688378830924805209247058FEF9FEF2090670546
:1434E4003090680528263926222011F4332051F02090670503
:1434F80030906805FA01378A268A81E0809371052090450543
:14350C00309046053092680520926705FA01208C318C30922D
:143520004605209245058FEF9FEF20906705309068052826AD
:143534003926222011F4332051F02090670530906805FA0105
:14354800318E208E81E0809371054090430550904405209027
:14355C0041053090420530924E0520924D05509250054092EC
:143570004F05FA01248C358C468C578C3092420520924105D1
:143584005092440540924305809150058F3FD9F040904F05CD
:143598005090500520904D0530904E053092AA052092A90504
:1435AC005092AC054092AB05FA01248E358E468E578E81E06C
:1435C0008093710522242092700520907105222031F0222432
:1435D400209271050E94450A01C000270E944825089502E054
:1435E8000E94BB0721E109E00E944C020E945708002341F03B
:1435FC008091B405863121F08091B305813011F49CD61BC05D
:143610008091B305833078F02090B4052092660522E103E056
:1436240068D61AD1209066052092B40502E00E94BB072090ED
:14363800B405222011F400E102C00091B40508958091B3052B
:14364C00823121F483E08093B30507C080E12090B30582154D
:1436600010F48093B30508950E94562542E050E060E070E0EB
:1436740040906C0550906D0520906A0530906B05241A350AE3
:14368800460A570A60907A0577246A92810192010E947F251C
:14369C001801290180909F059090A00560909D0570909E0529
:1436B000260C371C481C591C60906905772488249924260C14
:1436C400371C481C591C309288052092870550928A054092F6
:1436D80089050E94482508950E945825222420927005809107
:1436EC00B305843108F434C040909B0550909C05209099052E
:1437000030909A05309288052092870550928A0540928905F8
:143714000E942409402F002309F01FC020908B0530908C05D7
:143728004091970550919805420D531DFA01238424FC10C051
:14373C004090AB055090AC052090A9053090AA05FA01248EEE
:14375000358E468E578E0E94450A01C000270E945B25089551
:14376400209163050DE00E944C02209194050EE00E944C0233
:1437780081E08093950508950E945425422F58012297B5013E
:14378C0022242092300520915F05332728503040042F11273A
:1437A0000E947825009331052224332430923305209232058D
:1437B40088858A3219F4AA24BB2403C080E890E05C01A09254
:1437C800340520909305209235058AE08093360508840092AA
:1437DC003705222420923805FB01238020923905FB0122803B
:1437F00020923A05FB01218020923B05FB01208020923C05B6
:14380400222420923D0520923E0540933F05209240052CE661
:1438180032E004E00E94B30280E395E09983888321E108E462
:14382C000E9471022FE10BE00E944C02209162050DE00E94E1
:143840004C02209194050EE00E944C02222420929505AFD5E8
:1438540022960E944A250895229722242092310533243092FA
:14386800330520923205209093052092350522242092670593
:14387C002CE632E004E00E94B30280E395E09983888321E1D8
:1438900008E40E9471022FE10BE00E944C02209162050DE033
:1438A4000E944C02209194050EE00E944C0222242092950566
:1438B8007CD58091B405863111F402E881C02090B40522204F
:1438CC0051F020906705222009F06CC0ABD181E080936705C8
:1438E000CDCF80E420909405282620929405209030052220CB
:1438F40009F43BC035DF5BD52090B405222049F08091B405D6
:143908008E3209F051C00091630551D42CC080E890E020904F
:14391C009405332428263926209294050BE00E943F0200934E
:1439300068050FE40E943F02033029F403E50E943F020231F2
:1439440069F00E94430820908B0530908C0539822882209182
:14395800680500EC0E945902209068053090300532183092E7
:14396C003005FADE20D52090B405222009F01AC080E890E0EF
:1439800020909405332428263926209294050CEC0E943F02C0
:14399400009368050BE00E943F020D3021F4809168058230CF
:1439A80028F08FE18093B4053FD10AC020906805222011F479
:1439BC00002704C08FE18093B4050FE1229608950E9458256C
:1439D0000E947C08402F002309F021C08091B305833080F461
:1439E4005BD1002341F002E30E94BB0755D1402F002309F055
:1439F80012C012D4002311F0F2DD0DC02227002776D428DF82
:143A0C0000936505002311F4002703C061D4009165050E94C5
:143A20005B2508950E94542540E050E060E070E04090AF05F6
:143A34005090B0052090AD053090AE052416350646065706F6
:143A480009F475C04090AF055090B0052090AD053090AE054A
:143A5C0030926B0520926A0550926D0540926C0537C022272C
:143A70000AE615E00E94390EA02E002309F06BC02090950515
:143A8400222009F056C040906705509068052090650530907A
:143A9800660530926B0520926A0550926D0540926C05209015
:143AAC00B10533244424552480904305909044056090410521
:143AC00070904205621873088408950870924205609241050C
:143AD40090924405809243052090B10533244424552480906B
:143AE800430590904405609041057090420562147304840427
:143AFC00950408F0B6CF822D8150130124012822209269057D
:143B1000ABDD4090890550908A052090870530908805309201
:143B24004205209241055092440540924305002710C08FEF94
:143B3800809369054FEF5FEF6FEF7FEF50934205409341055D
:143B4C00709344056093430500270E944A2508950E945425EE
:143B60000E948410A02E002319F0013B09F05DC0AA2091F084
:143B740040E050E060E070E050936B0540936A0570936D0553
:143B880060936C050E948410A02E002309F049C00E94CF0D1E
:143B9C00A02E002309F043C040906C0550906D0520906A0576
:143BB00030906B053092AE052092AD055092B0054092AF05DB
:143BC40040909B0550909C052090990530909A053092880500
:143BD8002092870550928A05409289050E942409A02E00230A
:143BEC0009F01DC020908B0530908C05A0909705B0909805B5
:143C0000A20CB31C81E0F501848F2090AD053090AE05F501FE
:143C1400338E228E2090AF053090B005F501358A248A0E944D
:143C2800450A0E944A2508952090B4052092670502E00E9480
:143C3C00BB070E947C080093B4052090B405222019F00091FB
:143C5000B40523C024E632E008E00E94B3022091640504E467
:143C64000E944C0286D48091B405863111F402E812C0209010
:143C7800B405222031F40091630599D20091620596D202E072
:143C8C000E94BB07209067052092B405022D08950E94562550
:143CA00082E02090B305821510F48093B3050E947C08402F4B
:143CB400002309F07BC220909005222009F0AAC007E00E9430
:143CC8003F0200936605202F207F07E00E944C02209091059E
:143CDC00222019F060EC70E002C060E870E0262F06E00E94B6
:143CF0004C0222270EE00E944C0201E00E94BB0720909105C0
:143D0400222029F1822D823051F403E00E943F02202F207FF5
:143D1800226003E00E944C021CC080919105833051F403E0E4
:143D2C000E943F02202F2F70206203E00E944C020EC002E0AD
:143D40000E943F02202F207F226002E00E944C0204C021E87D
:143D540006E00E944C0201E00E94BB070E945708002321F00B
:143D68000E945708002319F409E10E94BB0720909105222040
:143D7C0029F1822D823051F403E00E943F02202F207F21603E
:143D900003E00E944C021CC080919105833051F403E00E944C
:143DA4003F02202F2F70206103E00E944C020EC002E00E9436
:143DB8003F02202F207F216002E00E944C0204C020E806E0C3
:143DCC000E944C0220EC06E00E944C0282E38093670516C057
:143DE00005E00E94BB072FE109E00E944C022091660507E09A
:143DF4000E944C020E947C08002309F43BC08091670581503C
:143E08008093670520906705222031F702E8CCC10AE00E949E
:143E1C00BB07209191052E5F08E00E944C02B7D223E001E4B3
:143E30000E944C0224E002E40E944C029CD32090B40522209A
:143E440039F0A9D221E002E40E944C0292D3F9C095D22090BA
:143E5800B405222039F4E0918B05F0918C05228024FEF4CF94
:143E6C0096D224E102E40E944C027FD302E30E94BB0722271B
:143E800008E00E944C022CE532E008E00E94B30272D32090FF
:143E9400B405222009F0D5CF24E532E008E00E94B302209078
:143EA8009105222029F0222D2E5F02E40E944C02209090051E
:143EBC00222039F020918F052F77205F02E40E944C0253D321
:143ED0002090B405222009F0B6CF02E40E943F02202F08E0B5
:143EE4000E944C020AE00E94BB072CE432E008E00E94B3022B
:143EF8003ED32090B405222009F0A1C0E0918B05F0918C058D
:143F0C00228106E40E944C02222707E40E944C022CD3209051
:143F2000B405222009F08FC0E0918B05F0918C0525802092E0
:143F34006605E0918B05F0918C058685883009F04BC0E091C3
:143F48008B05F0918C058785863031F480919605806280933B
:143F5C00960505C0809196058F7D80939605E0918B05F09109
:143F70008C0523842092640522242092670529C02090670581
:143F840087E0829DB00180918B0590918C054296680F791FB8
:143F98006E5F7F4FFB012080209268058281803409F03AC015
:143FAC0027FE06C0822D8F7080698093630506C080916805C0
:143FC0008F70806180936205809167058F5F80936705809198
:143FD4006705823099F626C0E0918B05F0918C05868589306F
:143FE800D9F4209090052220B9F424E432E008E00E94B3026B
:143FFC00BCD22090B405222009F01FC0222420928F05E091A3
:144010008B05F0918C05228020929005222021F48FE1809337
:14402400B4050FC02CE332E008E00E94B3022091660502E49E
:144038000E944C029CD22090B4052220A1F120908F05222053
:14404C0069F127FC2BC02090B4052092660519C080918F05F4
:144060008F5F282E20928F05209267050E947C08009368057E
:14407400002309F4CFCE80916805823811F4082F95C0209002
:14408800670520928F052090900530908F05321408F32090E8
:14409C0066052092B405222420928F050091B40581C0209073
:1440B0009005222001F120908F052220E1F480918F058F5F45
:1440C40080938F0568D123E001E40E944C0228E002E40E94A0
:1440D8004C024DD22090900530908F05321458F32224209245
:1440EC008F0508EC0E94BB07DCCD8091940584708860809392
:14410000940524E332E008E00E94B3022091640504E40E9416
:144114004C022FD22090B405222041F4E0918B05F0918C0555
:144128002080209266050DC08091B4058E3231F400273DD016
:14413C0022242092660503C00091B40533C002E00E94BB07C6
:1441500022242092930524E202E1CDD07FDB009368050023C8
:14416400C1F420906605222079F020909305222059F4E09184
:144178008B05F0918C058081853021F481E080939305E5CF06
:14418C0023E002E00E94E3070DC020906605222041F0809142
:1441A0009305833020F48F5F80939305D4CF1BDA0E9448256C
:1441B40008950E945825402F409368052CE232E008E00E94E2
:1441C800B3028091680582958F70893061F4809168058F700F
:1441DC00806880936805809194058F778093940510C080912A
:1441F000680582958F70813051F4809168058F708093680545
:14420400809194058F7B809394052091680504E40E944C0250
:14421800AED10E945B25089584E68093660552C028E005E26B
:14422C0064D08AE080933605222420923B0510DB0093650572
:14424000002309F031C0E0918B05F0918C058681843021F47A
:144254008AE080935F0519C0E0918B05F0918C0586818830CA
:1442680021F48BE080935F050EC0E0918B05F0918C05868163
:14427C00803121F48CE080935F0503C089E080935F05209131
:144290005F05332701E010E00E94782510938E0500938D05F1
:1442A400002719C080916505863121F0853111F0833109F45B
:1442B8000EC010D002E30E94BB078091660581508093660530
:1442CC0020906605222009F0A9CF0091650508950AE00E94EC
:1442E000BB0722E103E007D0B9DA02E00E94BB070091B40528
:1442F40008950E94582520933005222319F040E850E002C0AA
:14430800442755274093340586E080933605009337052224E5
:14431C00209238052092390520923A0520933B0520923C05D7
:1443300020923D0520923E0520923F05209240050E945B2581
:1443440008950E94582581E08093B3052224209290052227A7
:1443580008E00E944C0220909105222019F040EC50E002C0CA
:14436C0040E850E0242F06E00E944C0202E80E945B25089513
:1443800024E232E008E00E94B30220918F052F7704E40E945D
:144394004C02EFD008952CE132E008E00E94B30220918F05C8
:1443A8002F7704E40E944C0208950E94562522242092680564
:1443BC0022242092B4050E94010209E00E943F0200FF53C0B9
:1443D00021E109E00E944C020AE00E943F02402F2090950578
:1443E400222059F0842F8770833081F404FF28C02224209285
:1443F800B4050027B9C0842F8F70823029F422242092B40526
:14440C000027B0C0842F8F708A3029F42090960527FE01C04B
:144420001CC0842F837041F0842F8F708062282E2092B40580
:14443400082F9CC009E00E943F0201FF01C019C080916805FD
:144448008F5F282E20926805809196058F70821548F00EE095
:14445C000E943F02202F28600EE00E944C02A8CF80E28093C8
:14447000B40500E27DC08FEF8093B40508C004E00E943F0287
:144484008091B40581508093B4052090B4052220A1F709E091
:144498000E943F020093680501FF55C00E945708093029F4C1
:1444AC0022E009E00E944C0283CF81E08093B30522242092AB
:1444C000900523E109E00E944C0220909105222019F040ECB9
:1444D40050E002C040E850E0242F06E00E944C020E94570860
:1444E800002361F182E08093B30581E020909105821530F0C0
:1444FC004091680555274078507011C002E00E943F02202E96
:1445100080919105833019F460E270E002C060E170E0422DDC
:144524005527462357234030450729F085E18093B40505E137
:144538001BC083E18093B40503E116C086E18093B40506E190
:14454C0011C02FE109E00E944C024090680543FE05C086E0F8
:144560008093B40506E004C085E08093B40505E00E944825AC
:1445740008950E945825229701E00E94BB0728E00BE00E94E4
:144588004C0220ED0DE00E944C022CE00EE00E944C022224B7
:14459C002092950508DF2090B405222019F00091B40582C098
:1445B00081E08093950506E40E943F02002309F458C00E9442
:1445C400430851C001E00E94BB0720E90DE00E944C020EE06E
:1445D8000E943F0280E890E0202F3327282739272C600EE042
:1445EC000E944C02E0DE2090B405222019F00091B4055AC0F5
:144600000BE00E943F020093B40507E40E943F0200936805BE
:1446140020908B0530908C05402E5524420C531C59824882B8
:144628002091B40500EC0E9459022090B40530906805320C57
:14463C0030926805232D07E40E944C0206E40E943F02209093
:144650006805201608F00AC08091B405877029F087E180939C
:14466400B40507E125C0AECF22242092950501E00E94BB0768
:1446780022270BE00E944C0220909505222019F049E050E01C
:14468C0002C041E050E0242F220F331F220F331F220F331F2B
:1446A000220F331F0DE00E944C022CEC0EE00E944C027FDE53
:1446B40022960E945B250895ABD1F0D12A97002411241F8283
:1446C8000E8283C1EE89FF898081853251F00081EC89FD8996
:1446DC0000D28E819F8101969F838E836FC1EE24FF2445EB6A
:1446F00055E060E28E899F8901969F8B8E8BE82FF92F208047
:1447040033243D822C82822D932D8835E0E09E0709F489C006
:1447180088E582159305A4F08C819D818534E0E09E0709F417
:14472C0048C18534E0E09E070CF443C08C819D818335E0E0AC
:144740009E0709F4DBC03BC08C819D818F36E0E09E0709F4DB
:144754006AC08FE690E02C803D8082159305DCF08C819D81B3
:144768008336E0E09E0709F4B0C08436E0E09E0709F42DC0A9
:14477C008536E0E09E0709F41CC18636E0E09E0709F417C139
:144790008936E0E09E07F9F012C08C819D818337E0E09E07EC
:1447A40009F4D7C08537E0E09E0709F43CC08837E0E09E072F
:1447B80009F437C000C0EE89FF890081EC89FD898AD18E8154
:1447CC009F8101969F838E83F9C0888D998D0296998F888F24
:1447E000E82FF92F32972080318039862886822D932D8030E0
:1447F400E0E09E0774F48E2D9F2D8860E82EF92E6DE2822D3A
:14480800932D809590958F5F9F4F998788878AE090E09983A1
:14481C00888328853985042F152FA8D14FC0888D998D029640
:14483000998F888FE82FF92F32972080318039862886EE89F8
:14484400FF898081853751F48AE090E099838883222D332D26
:14485800042F152FE1D134C0EE89FF8980818F3651F488E0BD
:14486C0090E09983888328853985042F152FD2D125C080E1D6
:1448800090E09983888328853985042F152FC8D1EE89FF8913
:1448940080818835B9F485EB95E0C82ED92E0DC0EC2DFD2DB3
:1448A80000811127FED1EC2DFD2D00838C2D9D2D0196C82E9E
:1448BC00D92EEC2DFD2D2080222071F785EB95E0C82ED92E72
:1448D00054C0888D998D0296998F888FE82FF92F3297208006
:1448E40031802A82022DEC89FD89F7D08E819F8101969F838A
:1448F8008E8366C0888D998D0296998F888FE82FF92F32975B
:14490C00A080B1806D32D9F40DE2EC89FD89E1D08E819F8110
:1449200001969F838E8311C0EA2DFB2DC895002DEC89FD8924
:14493400D4D08E819F8101969F838E838A2D9B2D0196A82EE6
:14494800B92EEA2DFB2DC895002051F739C0888D998D0296A4
:14495C00998F888FE82FF92F3297C080D180CC2031F4DD2061
:1449700021F484ED92E0C82ED92E6D32D1F40DE2EC89FD89F0
:14498400ACD08E819F8101969F838E8310C0EC2DFD2D008116
:14499800EC89FD89A0D08E819F8101969F838E838C2D9D2D24
:1449AC000196C82ED92EEC2DFD2D2080222059F705C081E7C1
:1449C00092E0C82ED92ED9CF8E899F8901969F8B8E8BEE893C
:1449D400FF892080222009F077CE0E811F812A965BD0249653
:1449E8000895A02FB12FE22FF32F01900D920020E1F7089577
:1449FC00E02FF12FAA27BB270190002011F01196FBCF0A2F69
:144A10001B2F08953A932A931A930A9308956894DA92D12ED3
:144A240004C0E894DA92D12ED32617FF04C0109500950F5F58
:144A38001F4F37FF04C0309520952F5F3F4F0BD0D7FE04C0F8
:144A4C00109500950F5F1F4FD9900895689401C0E894EA9285
:144A6000FA928A93EE24FF2480E1000F111FEE1CFF1CE216A7
:144A7400F30618F0E21AF30A03958A95A1F716F40E2D1F2D54
:144A88008991F990E9900895E2E012C0E4E010C0E8E00EC0A3
:144A9C00EE270CC0FA92EA92DA92CA92BA92AA927A936A93C3
:144AB0005A934A930895E1E049915991E0FD08956991799188
:144AC400E1FD0895A990B990E2FD0895C990D990E3FD089526
:144AD800E990F99008950A92C8950A923196C895F02DE991DB
:144AEC0009900994222321F0000F111F2A95FACF08950F9225
:144B00000990002031F0000F111F221F331F0A94F8CF0F90F1
:144B14000895222321F0169507952A95FACF08950F920990F4
:144B2800002031F036952795179507950A94F8CF0F900895C8
:144B3C00B9DF402F2090CE053090CF05222011F4332021F09C
:144B50004A3011F40DE0F2DF5D9BFECF4CB9042F1127A9DF57
:144B64000895822F932F01968E7F800F911F082F192F08952E
:144B780093DFC22ED32E402F512FA297ACA4BDA48C2D9D2D6A
:144B8C008030E0E09E0744F461E0809590958F5F9F4FC82E7B
:144BA000D92E01C06627222429A28C2F9D2F8196E82EF92EC0
:144BB4008E2D9F2D0197282E392EE82EF92E2A2D3B2D0C2DDC
:144BC8001D2D29DFE02FF12F86EE92E0E80FF91F4080E22D94
:144BDC00F32D40822A2D3B2D0C2D1D2D1EDFC02ED12ECC20CB
:144BF00009F7DD20F9F6662359F08E2D9F2D0197282E392E17
:144C0400E82EF92E8DE2E22DF32D80832E2D3F2D042F152F80
:144C1800E8DEA2963FDF089541DFA22EB32EC02ED12EA297D8
:144C2C006AA57BA5222429A24C2F5D2F4F5D5F4F842F952F5C
:144C40000197282E392E482F592F262F372F0A2D1B2D02DFF1
:144C5400E02FF12F8BE093E0E80FF91F4080E22DF32D40827F
:144C6800262F372F0A2D1B2DF5DEA02EB12EAA2009F7BB20D9
:144C7C00F9F6242F352F0C2D1D2DB1DEA29606DF08958FE83B
:144C900090E0202E312E280E391EE22DF32DC895002D112775
:144CA40002701070089502DF402F512F042F152FECDF00302B
:144CB800010739F0042F152F015610400F5B1F4F02C0042FCC
:144CCC00152FF3DE0895A0DEEDDE229722E030E00C2F1D2F87
:144CE0000C5F1F4F40DF402F512F598348832C813D810CE8D3
:104CF40010E0E2DC402F512F2296DBDE249608954B
:00000001FF
