:100000000228DF022147E549C394105007120CFB78
:10001000EF6001221227A1EF600122C20A7874E684
:10002000645C6004E6B42F05752D7580177875E65D
:10003000643A60030200D718E6C3944350030200F9
:10004000D7752D77E550B40310900211E0FCA3E0C2
:10005000FDA3E0FEA3E0FF8005E4FFFEFDFC8F4171
:100060008E408D3F8C3EA82DE6706F74FFF54DF5E8
:100070004CF54BF54AE5506403603F754102900230
:1000800014E0FBC3E5479BF547E5469400F546E5DC
:10009000459400F545E5449400F544900213A3E02F
:1000A00025E0FEE4F54D8E4CF54BF54AAF22FCFD04
:1000B000FE90021112122B75228085413485403347
:1000C000853F32853E31E4F555F554F553F552F54B
:1000D000397549127F4122752D74A82DE6B4E502C9
:1000E0007605E541700CE53E7008E53F7004E5409B
:1000F000602D852239E54124FEFFE54034FFFEE511
:100100003F34FFFDE53E34FFFCA8301211F3EF252C
:1001100047FFEE3546FEED3545FDEC3544801A903F
:100120000214E0F539CBC3E5479BFFE5469400FE9A
:10013000E5459400FDE5449400FC90020D12122B5D
:10014000E53970030203ED1216A5EF600122E4F514
:1001500042F543C3E542940240030203C9740025FB
:1001600043F52F74003542F52E852F82F583E0FF8D
:10017000700302041AEF64E570030203BBBF0502BB
:100180007FE5A82DE6FE6F6008EE642A6003020397
:10019000BBE4F53DFFEFC3940B5078E52F2FF582BC
:1001A000E4352EF583E0FEAD3DE52D2DF8EE6660DD
:1001B0005DAD3DE52D2DF8E66015AD3DE52D2DF845
:1001C000E6645C600AAD3DE52D2DF8E6B42F1FEE28
:1001D0006420703FEFC394085010E52F2408F58287
:1001E000E4352EF583E0642070297F0B8025AE3D39
:1001F000E52D2EF8E6B42E1BE53D6408600EE52FD4
:100200002FF582E4352EF583E0B420077F070F0534
:100210003D8082EFC3940B50030202FCE52F240BB8
:10022000F582E4352EF583E030E3030202FCC20BD5
:10023000E52F241AFFE4352EFE122901E48F418EAA
:1002400040F53FF53EE550B40310E52F2414FFE4DC
:10025000352EFE1229018E3E8F3FAF3DE52D2FF842
:10026000E66006200B030202F285413485403385A7
:100270003F32853E31E4F555F554F553F552F539E5
:10028000E52F240BF582E4352EF583E030E41F746E
:10029000FFF54DF54CF54BF54A7D137F101227A560
:1002A000EF600122300B047F4380027F4122E52F63
:1002B000241CFFE4352EFE1228B38F4D8E4C8D4B3F
:1002C0008C4AE5417017E53E7013E53F700FE5403D
:1002D000700B7539FFF54DF54CF54BF54A7D147FE4
:1002E000101227A5EF600122300B047F4380027FAC
:1002F0000022E53D04252DF52D0200DAAF3DE52D68
:100300002FF8E6642A60030203BBE52F240BF58275
:10031000E4352EF583E030E3030203BBE53D04251D
:100320002DF8E67053E4FFF53BE52F2FF582E43519
:100330002EF583E06420602FBF080AAE3BE52D2E2A
:10034000F8762E053BE52F2FF582E4352EF583E078
:10035000FEAD3BE52D2DF8EEF6E53B7008A82DE649
:10036000B4050276E5053B0FBF0BBEAF3BE52D2F75
:10037000F8E4F6D20B020230E53D04252DF8E6F450
:100380007032E54D700CE54A7008E54B7004E54CA1
:100390006093E54A30E703122924E54D24FFF54D2B
:1003A000E54C34FFF54CE54B34FFF54BE54A34FFA3
:1003B000F54A8007E53D04252DF81674202543F500
:1003C00043E43542F54202015390020DE0FCA3E004
:1003D000FDA3E0FEA3E02401FFE43EFEE43DFDE4D6
:1003E0003CFC90020D12122B1539020140E54170C0
:1003F0000CE53E7008E53F7004E540601D7F3EE47B
:10040000FD120A62EF600122200B0F853A3E853B08
:100410003F853C40853D410200DAE4FFE52D2FF8A1
:10042000E6FE6013642A600FEE645C6004EEB42F95
:10043000037FB3220F80E57F4222E56F2463F8E655
:10044000056F2278603007027863E475F0011213BB
:10045000C202136A2000EB7F2ED2008018EF540FE7
:100460002490D43440D4FF30040BEF24BFB41A00DE
:1004700050032461FFE570600215700573E5737029
:1004800002057230070D7860E475F0011213C2EFB7
:100490000213B002277A7403D2078003E4C207F57F
:1004A0006F8B608A618962E4F570F572F573E570AF
:1004B00060077F2012047580F57571FFC201C200CC
:1004C000C202C203C205C206C208120443FF700D75
:1004D0003007057F00120486AF73AE7222B4255F29
:1004E000C2D5C204120443FF24D0B40A00501A75C6
:1004F000F00A787030D50508B6FF0106C6A426F6C6
:1005000020D5047002D20380D924CFB41A00EF5052
:1005100004C2E5D204020686D20180C6D20080C0A1
:10052000D20280BCD2D580BAD20580B47F2012041A
:10053000752002077401B5700040F112043AFF12F1
:1005400004750204AED208D206809512043AFB125A
:10055000043AFA12043AF94A4B700679577A077B43
:10056000FF20022EE570602A7E008E8275830012C5
:10057000138360060EEE657170F0C2D5EBC0E0EA41
:10058000C0E0E9C0E0EE1206CDD0E0F9D0E0FAD04C
:10059000E0FB12136AFF60AAEBC0E0EAC0E0E9C02A
:1005A000E0120475D0E02401F9D0E03400FAD0E084
:1005B000FBE5710460DCD571D980877BFF7A067911
:1005C000C9D202809C791080027908C206C20880D4
:1005D00008D2D5790A8004790AC2D5E5710470027F
:1005E000F571E4FAFDFEFF12043AFC7B08200113CA
:1005F00012043AFD7B1030000A12043AFE12043A4B
:10060000FF7B20EC3382D592D55013C3E430000633
:100610009FFFE49EFEE42001039DFDE49CFCE4CBEF
:10062000F8C201EC700CCFCECDCCE824F8F870F312
:100630008017C3EF33FFEE33FEED33FDEC33FCEBFD
:1006400033FB994002FB0FD8E9EB300105F8D0E00D
:10065000C448B201C0E00AEC4D4E4F78207B0070D8
:10066000C2EAB5710040BCC0E01206CFD0F0D0E0C5
:10067000200104C4C0E0C4B201C0F012045ED0F096
:10068000D5F0EB0204AE1213D2054B5305C5580545
:100690001C4C05184205C94F05D14405D149053107
:1006A0004305D75505BB4605BB4505BB47077750F6
:1006B00005202D05242E05472B0528230545200759
:1006C000602A04E0480000053F3F3F3F00790AA24E
:1006D000D5200314300509B910020404B908010437
:1006E000A2D52006025001042002689202B57000D3
:1006F0005034C0E07F203003197F30A202720672AE
:1007000005500F120726C202C206C205C2087F307A
:10071000800F300503E9C0E0120475300503D0E016
:10072000F9D0E0B570CC3005177F30B9100C120449
:10073000757F583004077F788003B9080312047569
:100740003002057F2D0204757F202008F87F2B20C2
:1007500006F322920280CF286E756C6C2900D201BC
:1007600012043A3001F8C201787030D50108F6025F
:1007700004E02D5043495812043A2403B4050040C4
:1007800001E490077293120466743A120466D2036D
:100790007570040205C5E549D3940240037549020A
:1007A000121BC1EF600122900216E070637F0712F6
:1007B00028F68F3BE53B54F0FD7F071228C77D806C
:1007C0001F1228C7E4FD7F0E1228C77F011227538E
:1007D0007D817F061228C77F011227537F041228CC
:1007E000F6EF540C70057F191227531228C3753C7D
:1007F000647F021227537D1F7F091228C7AD3B7FFC
:10080000071228C7121BC1EF6053D53CE47F822238
:100810007F0A1227537D027F081228C71228547DB1
:10082000037F411228C70D0F1228C7121CB9E551CA
:1008300060101228547D017F421228C7121CB90291
:10084000098212287DE5517007900002E030E4F241
:100850001228547D147F421228C7121CB97F14122B
:100860002753E4FD7F081228C77C247D1512282811
:10087000121CB9E55170BB7C247D1D7F081228280D
:10088000900216E0600E900215E0547F2410FD7F68
:10089000421228C7121CB9E55170977F421228F600
:1008A000EFCD7F081228C77F031227537C247D25B4
:1008B0007F08122828121CB9E551600302098290B2
:1008C0000002E0FD7F461228C7E4FD0F1228C71280
:1008D0001CB9E5516003020982900005E0F53B90E8
:1008E000000EE0FD64087054A3E0B40605434E20FA
:1008F0008003534EDF90000BE0900200F0E4F53CE3
:10090000AF3CEF75F007A42414FFE5F034008F82AC
:10091000F583E0F53DA3A3E06440704AE53D30E790
:100920000AE53D540F4490F52B8008E53D540F44F3
:1009300010F52C053CE53CB402C6802FED6409702F
:1009400025900216E0701F7C247D2D7F0812282838
:10095000121CB9E551702BE4900215F0900002E0F2
:10096000900216F0700575511F80177C247D357F2D
:1009700008122828AD3B7F421228C7121CB9E55146
:100980006045900215E0603C20E73985513B9002BC
:1009900016E0FF900215E0C39F5021E004F0F53C03
:1009A000121BC18F3DE53D7003020810E53DB48286
:1009B00003AF3D22900215E53CF080D2853B51E427
:1009C000900215F0AF5122900216E06036900215A9
:1009D000E07030900215E004F01228547D037F414E
:1009E0001228C77D080F1228C7121CB9900216E002
:1009F000FF900215E0C39F40DAE4F07FC81227534E
:100A00000207A07556087C247D3D121CAAE5517092
:100A100008900000E0F53B8012E551B42E0AE4FF97
:100A2000122696E4F53B8003AF51227F0212275332
:100A3000E4F5487D247F121226CC121D808F3DE5FF
:100A40003D701BE53B6010E548700C900000E0B481
:100A5000050575480180DC7D037F020227A512236E
:100A600053228D5BEFC8E550B402071212067801DD
:100A70008008B4031212120678021211F38F5F8EEF
:100A80005E8D5D8C5C802B1212068E5C8F5DEF306C
:100A9000E005434E108003534EEFE55CC313FEE5C3
:100AA0005D13255DFFE55C3EFEE48F5F8E5EF55DC8
:100AB000F55CEE5401FEEF2400F52FEE3400F52E28
:100AC000AF5FAE5EAD5DAC5C12290BEF2538F55F14
:100AD000EE3537F55EED3536F55DEC3535F55CE533
:100AE0005F652A7012E55E6529700CE55D6528700A
:100AF00006E55C6527601D300907122222EF6001C0
:100B000022855C23855D24855E25855F261216B7C8
:100B1000EF600122E55B6023B4FF028006E55BB471
:100B2000010BE4F55FF55EF55DF55C800C85315FEA
:100B300085325E85335D85345CD209E55064027090
:100B40003F852F82852E83E0F53AA3E0F53B853A79
:100B50003D853B3CE4F53AF53BAE3CAF3DC3EF94FD
:100B6000F7EE94FF4003D38001C3920BE55B600D69
:100B7000852F82852E83E55CF0A3E55DF07F002262
:100B8000E5506403705A852F82852E83E0FCA3E034
:100B9000FDA3E0FEA3E0F53D8E3C8D3B8C3AE53DA8
:100BA00054F0FFE55F540F4FF55FE53D540F853A74
:100BB0003DF53AAF3C853B3C8F3BAF3AEFC3940FDA
:100BC0004003D38001C3920BE55B6011AF5FAE5E63
:100BD000AD5DAC5C852F82852E8312122B7F0022A7
:100BE000535D0FC3E52F9400FFE52E9400FEEFF454
:100BF0007003EE6401604F852F82852E83E0F53A05
:100C0000A3E0F53BE55B7003020CBFE54E30E42347
:100C1000E55CC454F0FFE53A540F4F852F82852ED2
:100C200083F0E55DC454F0FFE55CC4540F4FA3F0BE
:100C3000020CBF852F82852E83E55CF0E53B54F0E6
:100C4000455DA3F08079852F82852E83E0F53AE516
:100C50005B6024E54E30E40EE55CC454F0FFE53AF9
:100C6000540F4FFF8002AF5C852F82852E83EFF0FB
:100C7000122222EF600122E52A2401F526E435291B
:100C8000F525E43528F524E43527F5231216B7EFCA
:100C9000600122900000E0F53BE55B6022E54E300C
:100CA000E40FE55DC454F0FFE55CC4540F4FFF80D2
:100CB00007E53B54F0455DFF900000EFF0D209E5F9
:100CC0004E30E413E53BC454F0FFE53AC4540F4FF3
:100CD000F53DE53BC48005853A3DE53B540FF53CC9
:100CE000E4F53AF53BAE3CAF3DC3EF94F7EE940F1D
:100CF0004003D38001C3920B7F0022E549C39403D4
:100D00005007120796EF6001221228D2E4F526F56B
:100D100025F524F5231216B7EF600D12265B122677
:100D2000FD1216B7EF600122900000E0FF64EB6057
:100D300037EF64E96032E4FDED6440602874C22D51
:100D4000F582E43401F583E06015ED7E0024C6FFF2
:100D5000EE3401FE1228B390020112122B8013749C
:100D6000102DFD80D37F92229002011212500000BC
:100D70000000900201E0FCA3E0FDA3E0FEA3E0F58B
:100D8000268E258D248C231216B7EF600122900049
:100D900000E0FF64EB6008EF64E960037FA122904C
:100DA000000DE0F52230E605753006802E30E505B1
:100DB000753005802630E405753004801E30E3056B
:100DC000753003801630E205753002800E30E10583
:100DD0007530018006752201E4F5307E007F161221
:100DE0002901900207EEF0A3EFF04E70287E007FFD
:100DF000241228B38F348E338D328C31E4FBFA7990
:100E000001F8D31211CF50037FA222900207E533DD
:100E1000F0A3E534F0900014E0FF900013E04F6081
:100E2000127E007F13122901E48F418E40F53FF5B9
:100E30003E800F7E007F201228B38F418E408D3F71
:100E40008C3E7E007F11122901EF240FFFE43EC487
:100E5000F854F0C868FEEFC4540F48FFE4FCFD905E
:100E6000021112122B7E007F0E122901E48F388EA0
:100E700037F536F535900207E0FEA3E0FFEF2538A1
:100E8000FFEE3537FEE43536FDE43535FC900211D2
:100E9000E0F8A3E0F9A3E0FAA3E02FF547EA3EF576
:100EA00046E93DF545E83CF544900010E0D3940157
:100EB0004021900207E0FEA3E0FFE4FCFDE5472FA0
:100EC000F547E5463EF546ED3545F545EC3544F547
:100ED000448007E4900207F0A3F0C3E5419547FF83
:100EE000E5409546FEE53F9545FDE53E9544FCA869
:100EF000301211E090020912122BE47BF57AFFF90F
:100F0000F8D31211CF401FE4900205F0A3F0900235
:100F10000BE0FEA3E094F5EE940F500575500180B0
:100F200024755002801F7E007F3012290190020537
:100F3000EEF0A3EFF07E007F2C1228B39002111286
:100F4000122B755003900201E0FCA3E0FDA3E0FE2C
:100F5000A3E02538F538EE3537F537ED3536F5367B
:100F6000EC3535F535900201A3A3A3E02547F547FD
:100F7000EE3546F546ED3545F545EC3544F5447D11
:100F8000107F031227A5221200068F39E539700A57
:100F9000121FACEF70030210DC22E53964426003DB
:100FA000AF3922C3E54394E0E542940150030210B7
:100FB000DCE541700FE53E700BE53F7007E54070E2
:100FC00003021072900210E0C39547FFE52214FE61
:100FD0005FF539E5436008EE653960030210DC7F98
:100FE0003EE4FD120A62EF600122200B030210DCD6
:100FF0001218DBEF6001227F3E7D02120A62EF6071
:101000000122122222EF6001221228D2E4FFFEEE1A
:1010100064024F601374002FF58274003EF583E480
:10102000F00FBF00010E80E7E4F53912261CE543FE
:101030007012F542F543AF26AE25AD24AC239002E5
:101040000D12122B85223AE53A602012158AEF60C4
:101050000122E5262401F526E43525F525E435248D
:10106000F524E43523F523153A80DC1220D7EF6010
:101070006B22E543706690020DE0FCA3E0FDA3E067
:10108000FEA3E024FFFFEE34FFFEED34FFFDEC3461
:10109000FFFC90020D12122B1216A5EF600122E444
:1010A000F542F543C3E5429402502E74002543FFF8
:1010B000740035428F82F583E0B4E510E582240B9D
:1010C000F582E43583F583E0540E601074202543E7
:1010D000F543E43542F54280CB7FB2221218DBEFB4
:1010E000600122122222EF6001227F061228F6EF11
:1010F00054BF648060037F1122853441853340856D
:10110000323F85313E1220D7EF6001221216A5EF43
:1011100060012274002543FF74003542FEE4FDEDBA
:10112000C3940B50047C2080027C00EF2DF582E4F8
:101130003EF583ECF00DBD20E6EF2418F582E43E89
:10114000F5837421F0A37430F0EF241CF582E43EA3
:10115000F5837401F0E4FDEDC3940B5021A82DE656
:10116000FC601BECB42E047D08052DA82DE6FCEFD9
:101170002DF582E43EF583ECF00D052D80D98541F7
:101180003A85403B853F3C853E3DEF241AF582E49D
:101190003EF583E53AF0A3E53BF0EF2414F582E455
:1011A0003E121581EF600122854134854033853F31
:1011B00032853E31E4F54DF54CF54BF54AF555F5E4
:1011C00054F553F552F5397D147F101227A522EB03
:1011D0009FF5F0EA9E42F0E99D42F0E89C45F0223E
:1011E000E8600FECC313FCED13FDEE13FEEF13FFED
:1011F000D8F122E8600FEFC333FFEE33FEED33FD8D
:10120000EC33FCD8F122E6FC08E6FD08E6FE08E631
:10121000FF22E6FB08E6F908E6FA08E6CBF822EC3E
:10122000F608EDF608EEF608EFF622ECF0A3EDF086
:10123000A3EEF0A3EFF022D083D082E493F60874FB
:101240000193F608740293F608740393F67404731A
:10125000A8828583F0D083D082121267121267129F
:101260001267121267E473E493A3C583C5F0C583C4
:10127000C8C582C8F0A3C583C5F0C583C8C582C8E8
:1012800022E709F60870FA8046E709F20870FA804A
:101290003E88828C83E709F0A370FA807EE309F62A
:1012A0000870FA8076E309F20870FA806E88828C02
:1012B00083E309F0A370FA806289828A83E0A3F64F
:1012C0000870FA805689828A83E0A3F20870FA8057
:1012D0004A80D280FA80C680D4806580F2803180D6
:1012E0001080A680EA809A80A880DA80E280CA8096
:1012F0003189828A83ECFAE493A3C8C582C8CCC53D
:1013000083CCF0A3C8C582C8CCC583CC70E9800D5E
:1013100089828A83E493A3F60870F9ECFAA9F0EDC8
:10132000FB2289828A83ECFAE0A3C8C582C8CCC5B7
:1013300083CCF0A3C8C582C8CCC583CC70EA80DD5D
:1013400089828A83E493A3F20870F980CE88F0ED55
:101350002402B4040050C4F582EB2402B40400500B
:10136000BA23234582239012D173BB010689828A56
:1013700083E0225002E722BBFE02E32289828A83B5
:10138000E49322BB010CE58229F582E5833AF583DB
:10139000E0225006E92582F8E622BBFE06E9258216
:1013A000F8E222E58229F582E5833AF583E4932287
:1013B000BB010689828A83F0225002F722BBFE011C
:1013C000F322FAE6FB0808E6F925F0F618E6CA3A31
:1013D000F622D083D082F8E4937012740193700DDA
:1013E000A3A393F8740193F5828883E47374029342
:1013F0006860EFA3A3A380DFE549641560071227A7
:101400002BEF6001227874E6F52D7006300A030296
:101410002592E47874F6E52D700302157EE539F423
:101420007077E541700CE53E7008E53F7004E540DB
:1014300060258534558533548532538531521218D1
:10144000E7EF6001227F527D02120A62EF60012203
:10145000122222EF6008221221B5EF6001228534AA
:101460005585335485325385315274FFF534F53345
:10147000F532F5311220E1CBEFCB8555348554336D
:10148000855332855231EB600122854D55854C5490
:10149000854B53854A52E4F53912261C1216B7EFD4
:1014A000600122AF55E5545401FEC3E49FFD740270
:1014B0009EFCC3ED952DEC94004005852D3A8006E9
:1014C000E555F404F53A74002FF58274003EAF82BE
:1014D000F52E8F2FAF3AE4FCFDFEE5552FF555EEC6
:1014E0003554F554ED3553F553EC3552F552C3E50B
:1014F0002D953AF52D7874E62475FFE53A26F6C861
:10150000EFC8E6852F82852E83F0052FE52F700228
:10151000052E0FD53AE912158AEF600122AF55AEBC
:1015200054AD53AC52AB4DAA4CA94BA84AC31211AF
:10153000CF500E85554D85544C85534B85524AD21C
:101540000AE5545401455560030214160539E5397E
:10155000C3952250030214167F31E4FD120A62EF94
:10156000600122300B067539FF021416853A318569
:101570003B32853C33853D34E4F5390214167F0057
:1015800022F583E53CF0A3E53DF0E4F54F7F237BB6
:101590002A7D011222F6E551600302167A7DC87F8A
:1015A000061228C7E55630E6047F4080027F807C23
:1015B000007D008C278D281224AE8E278F287D4039
:1015C0007F0B1228C7635640AD567F0E1228C77591
:1015D0003B08E53B64016016E55630E6047F408039
:1015E000027F80AD28AC271224AE8E278F281219D7
:1015F000E7E55160111228C3E551642E707CE54F78
:101600007078AF2C804C635640E53B64016007ADB9
:10161000567F0E1228C7D53BB91228C390BDF1746E
:101620000DF090BCF0E52BF0E556F0D20B852327AA
:1016300085242885252985262A6356801219E7E501
:10164000516017635680E551642E702EE54F702A65
:10165000AF2B122696754F0180C27F0B1228F6BF62
:101660000D187FCC1228F6EF700612291C7F00227D
:101670007FCC1228F6EF6401600BE551B416037FAE
:10168000822212265BE54FC39405500FE54FC394A9
:10169000014003122353054F02158D1228D27551B4
:1016A0001F1223532290020DE0F523A3E0F524A39B
:1016B000E0F525A3E0F526E526652A7015E5256504
:1016C00029700FE52465287009E52365277003025A
:1016D00017C3E4F54F7F237B287D011222F6E551E5
:1016E000600302179990BDF17406F090BCF074C8C5
:1016F000F090BDF1740DF090BCF0E52BF0E556F0E4
:10170000D20B635640752700752800753B081219E7
:10171000E7E55160051228C3804C635680E53B64C1
:10172000016007AD567F0E1228C7E55630E7047FEB
:10173000C080027F80AD28AC2712245D8E278F28C1
:10174000D53BCB1228C3AD567F0E1228C785232761
:1017500085242885252985262A6356801219E7E5E0
:1017600051601A635680E551642E702DE54F702943
:10177000AF2B122696754F0112289080D07F0B1246
:1017800028F6BF0D147FCC1228F6EF7002FF227FDF
:10179000CC1228F6EF6401600BE551B416037F828A
:1017A0002212265BE54FC39405500FE54FC3940109
:1017B0004003122353054F0216D51228D275511F2C
:1017C0000223537F0022E5496415600712272BEF9F
:1017D0006001227874E6F52DE4F6E52D7003021819
:1017E000D8E5545401FEC3E49555FF74029EFEC330
:1017F000EF952DEE94004005852D3A8006E555F4D1
:1018000004F53AC3E54D9555FBE54C9554FAE54B87
:101810009553F9E54A9552F8AF3AE4FCFDFED31230
:1018200011CF500CC3E54D9555F53A70030218D809
:1018300012261C1216B7EF600122E5545401FE7403
:10184000002555F58274003EAF82F52E8F2FAF3AFA
:10185000E4FCFDFEE5552FF555EE3554F554ED3518
:1018600053F553EC3552F552C3E52D953AF52D78E5
:1018700074E62475FFE53A26F6852F82852E83E0EF
:10188000C8EFC8F60F052FE52F7002052ED53AE9EF
:10189000E5545401455560030217DA0539E539C3AB
:1018A000952250030217DA7F31E4FD120A62EF60DD
:1018B0000122300B117539FF85554D85544C8553E8
:1018C0004B85524A8012853A31853B32853C3385BF
:1018D0003D34E4F5390217DA7F0022854134854032
:1018E00033853F32853E31900209E0FCA3E0FDA341
:1018F000E0FEA3E0FFAB34AA33A932A831D3121122
:10190000CF40037FB122E5342401F534E43533F5CB
:1019100033E43532F532E43531F5317F31E4FD120F
:101920000A62EF600122E53D700FE53A700BE53B7E
:101930007007E53C70030219CEE550640160A8759C
:101940002E00752F00E55064027033753AFF740263
:10195000252FF52FF582E4352EF52EF583E0701551
:10196000A3E07011852F82852E8374FFF0A3F0E52C
:101970003AF4048049D53AD67534FF0218E7753A2F
:101980007F7404252FF52FF582E4352EF52EF5838F
:10199000E07032A3E0702EA3E0702AA3E0540F7031
:1019A00024852F82852E8374FFF0A3F0A3F0A3E09B
:1019B000440FF0E5345480FFC37480953A4FF534FA
:1019C000D2097F0022D53AB943347F0218E77F312C
:1019D0007DFF120A622290BDF1740DF090BCF0E51B
:1019E0002CF0E556F0C20BE4F53DE4F5511228EB7E
:1019F00090BDF17409F0E030E06E90BCF07411F02D
:101A0000E0FF300B0E5407B40313EF30E436E4F577
:101A100051FF22540FB40205E4F551FF22EF540F99
:101A2000FEBE0A05E54E20E729EF54037003D3807C
:101A300001C34007EE4420FFF551227F091228F62A
:101A4000EF20E124E54E540FFF053DAE3DEED39F60
:101A500050107F0E1228F6EF4408FD7F0E1228C7A3
:101A600080887551207F20227551FF7F041228F64F
:101A7000D551F87F091228F68F3DE53D30E13575E7
:101A80004901E4900216F07D137F091228C77D807A
:101A90007F061228C7E53D30E514754902E53D3063
:101AA000E7067551157F15227551137F1322755165
:101AB000167F16227D1F7F091228C7E53D30E306F9
:101AC0007551067F06227551057F0522E549C394AD
:101AD0001350037FB4221216A5EF600122C20974CD
:101AE000002543FB74003542FA787CE6FFEB240BBB
:101AF000F582E43AF583E0F6EFF460138B828A8393
:101B0000E582240BF582E43583F583EFF0D2097882
:101B10007AE6F53D08E6F53CEB2416FFE43AFE12C2
:101B2000290118EEF608EFF6E53CF4FEE53DF44E2B
:101B30006012EB2416F582E43AF583E53CF0A3E568
:101B40003DF0D2097878E6F53D08E6F53CEB24183F
:101B5000FFE43AFE12290118EEF608EFF6E53CF430
:101B6000FEE53DF44E6012EB2418F582E43AF5836D
:101B7000E53CF0A3E53DF0D20978741212067880B6
:101B800012121FEB241CFFE43AFE1228B3787412E1
:101B9000121F7880E6F4601E1212068F4D8E4C8D57
:101BA0004B8C4A122915EB241CF582E43AF583127A
:101BB000122BD209C20A300905C20902158A7F0018
:101BC000227F061228F6EF54404480FD7F0612283B
:101BD000C77F091228F6EF30E10A1227F97D137F3B
:101BE000091228C77F091228F6EF20E503021CA678
:101BF000E549C394025008754902E4900216F0903A
:101C00000216E07002FF227D027F081228C79002B0
:101C100015E0604312287DE5517026900002E03007
:101C2000E009754902122854121CB9900000E030F6
:101C3000E020900215E02410FD7F081228C77F00E5
:101C400022E5516416605FE55130E506E551540325
:101C500060547549028047900215E004F012287D17
:101C6000E551701C900002E030E006122854121C6E
:101C7000B9900000E030E019A3E020E1147F0022D9
:101C8000E55164166020E55130E506E551540360E6
:101C900015900216E0FF900215E0C39F40B9E49052
:101CA0000215F07F84221227F9227F08122828903B
:101CB0000200E0FD7F441228C77F011227537D08F0
:101CC0007F0B1228C77DD07F0D1228C77D080F1209
:101CD00028C7C20B1219E7E5516003AF5122D20B9E
:101CE0007F461228F6EF606F1228D27F0112275329
:101CF0007D907F0D1228C70F1228F6EF64804408EC
:101D0000FD7F0E1228C71219E7E5516003AF51227B
:101D10007F0B1228F68F517F471228F68F3DAF3D7B
:101D200074002FF582E43400AB82FAAD517FC0120B
:101D300027E0E551253DF53DAD3D7F471228C71F02
:101D40001228F6E53DC39F500CE5515407609C7581
:101D500051177F1722C20B7F01122753E4FD7F0B1F
:101D60001228C7300B047F0980027F01EFC454F0B2
:101D7000FD7F0D1228C77DC80F1228C71219E72250
:101D8000E4900218F0A3F0A3F090021CE548F0E400
:101D9000F53C7C247D087F041228287A027B177D7D
:101DA000117F4812283E7D1F7F0B1228C71219D6BB
:101DB000E551B416037F8222E551600FE53C6003D4
:101DC000021E4312265B753C0180C7635640900299
:101DD00017E060491228901219E7E551600DE551AE
:101DE000642E705FAF2B12269680326356807F0B75
:101DF0001228F68F3D7F4F1228F6BF030A7F531239
:101E000028F6EF6412600E1228D27A007B00AD3DF6
:101E10007FC01227E0900217E0C3953DF012289092
:101E20001219E7E551701C6356807FCC1228F68F9B
:101E30003D7F0B1228F6BF0D07E53DC39402400617
:101E400075511F02265BE53D7002FF2275511F7F11
:101E50001F222F4E455746494C452E545854004E8C
:101E60006F74653A200D0AD5E2B8F6B3CCD0F2CA49
:101E7000C7D2D4D7D6BDDACEAAB5A5CEBBBDF8D0D1
:101E8000D055C5CCCEC4BCFEB6C1D0B42CB5A5C609
:101E9000ACBBFAD6BBD0E8D2AAD3D0363030D7D636
:101EA000BDDAB5C452414D2CB1BEB3CCD0F2B9A409
:101EB000D7F7D3DAD6D0B6CFB7BDCABD2CB5B1D31C
:101EC000D055C5CCB2E5C8EBBAF3BECDD7D4B6AFCA
:101ED000D0B4C8EBCAFDBEDD0D0A00537461727444
:101EE0000A005761697420556469736B20496E0A52
:101EF000005761697420556469736B204F75740ACB
:101F000000C2947F64122753E4F5587F321227539E
:101F10001224FFEF6021E549C3940250037F82221F
:101F2000E549C394034007E558D394055009055883
:101F3000E558C3940A40D4E549C3940350037F1F76
:101F400022C295C29678747C007D007BFF7A1E7950
:101F50005212134D120F878F5812286975591E752A
:101F60005A5FE4F558855A82855983E493FF747566
:101F70002558F8A607EF600F055AE55A7002055973
:101F80000558E558B41DDEE558600E7874A6581261
:101F900013F88F5812286980C97874760112228D3F
:101FA0008F58122869D296D2957F0022E549C394B2
:101FB000135007120006EF6001221227A1EF600103
:101FC000221216A5EF60012274002543FF7400352C
:101FD000428F82F58374E5F012158AEF600122AF1B
:101FE00041AE40AD3FAC3E8F3D8E3C8D3B8C3AECDC
:101FF0004D4E4F604EE54124FFF541E54034FFF57D
:1020000040E53F34FFF53FE53E34FFF53EE4F5346F
:10201000F533F532F5317F3A7D01120A62EF600146
:1020200022E5342401F534E43533F533E43532F573
:1020300032E43531F531300BDD122222EF6001221E
:102040000220E17F0022E541700CE53E7008E53F8B
:102050007004E5406072854134854033853F3285A8
:102060003E31AF22E4FCFDFE7874121212C312114D
:10207000CF40387F31E4FD120A62EF600122200B6D
:1020800047853A31853B32853C33853D347874123F
:102090001206AB22C3EF9BFFEE9400FEED9400FD11
:1020A000EC9400FC787412121F80B77877E6FFE595
:1020B00022145FF53912261CAF26AE25AD24AC23C1
:1020C000787412121F7F00227539FF78741212374C
:1020D000FFFFFFFF7F002274FFF534F533F532F583
:1020E00031900205E0FCA3E0FD4C7002FF22EDCF31
:1020F000ECCEE4FCFD900201E0F8A3E0F9A3E0FAE5
:10210000A3E02FF526EA3EF525ED39F524EC38F568
:10211000231216B7EF6001227E017FE81228B3E593
:10212000342FF534E5333EF533E5323DF532E53114
:102130003CF531AF34AE33AD32FC1229159001E8D5
:1021400012122B12158A22C0E0C0F0C083C082C0D8
:10215000D075D000C000C001C002C003C004C005DB
:10216000C006C0077F091228F68F57E55730E123D4
:10217000754901900216E4F07D137F091228C77D8E
:10218000807F061228C7E55730E50F754902121FF8
:102190000180077D1F7F091228C7D007D006D00510
:1021A000D004D003D002D001D000D0D0D082D083D0
:1021B000D0F0D0E0321218E7EF600122122222EFB5
:1021C00060012285344185334085323F85313E129E
:1021D00016A5EF60012274002543FF74003542FE0E
:1021E000F583EF241CF582E43583F5837401F085D3
:1021F000413A85403B853F3C853E3D8F828E83E55D
:1022000082241AF582E43583F583E53AF0A3E53BB1
:10221000F08F828E83E5822414F582E435831215D3
:102220008122852723852824852925852A2612159C
:102230008AEF600122900207E0FEA3E0FF4E6048B3
:10224000E4FCFDE5262FF526E5253EF525ED3524B4
:10225000F524EC3523F52312158AEF600122900254
:1022600007E0FAA3E0FBC3E5269BF526E5259AF5F2
:1022700025E5249400F524E5239400F523F527852E
:10228000242885252985262AC2097F0022E549C3FD
:10229000941250037FB422E549B41239E550640327
:1022A0006033900214E0F522E54CC313FF7E00E496
:1022B000FCFD90021112122B900214E0FFE4FCFDD1
:1022C000FEE5472FF547EE3546F546ED3545F54534
:1022D000EC3544F544E549D39413400AE549B41478
:1022E000077874E67002C20A300A07122592EF607E
:1022F00001221227A12290BDF17440F090BCF0742D
:1023000055F07453F07442F004F090BDF17448F04D
:10231000E490BCF0F0ED25E0F0E4F0F0BB2A03FE21
:1023200080027E80EEF0E548F0740AF0EBF0E4F015
:10233000EFC8E6F008E6F008E6F008E6F0E4F0F0B2
:10234000EDF0E4F090BDF1740BF090BCF0741FF070
:102350000219D67F021227537D117F091228C71256
:1023600028F6EF30E50BE55164166005E549B40148
:10237000030227F9E549C39403401585513B7D12BB
:102380007F031226CC121D80853B517F02122753FA
:10239000E549B41205754903800AE549D394104014
:1023A00003754910E55170037F1022AF5122E4F507
:1023B000497D557F801228C77DAA0F1228C71F129A
:1023C00028F6BF550A7F811228F6EF64AA60037FC2
:1023D0008122E4FD7F061228C77F0E1228C7754EA2
:1023E00085E4F54F7D1F7F091228C77F071228F665
:1023F000EF54F04403FD7F071228C77D407F05128C
:1024000028C71227F97F0022555342430021FF00BD
:10241000000000000080060001000012000005021C
:1024200000000000008006000200000400A006007A
:1024300029000009000009000000000000A1FE00C2
:1024400000000001000201000000000000A30000E5
:102450000001000400230110000100000090BDF104
:10246000EFF090BCF005A28C838D827D0805A2E080
:1024700005A2F0A305A2E005A2F0A305A2E005A233
:10248000F0A305A2E005A2F0A305A2E005A2F0A337
:1024900005A2E005A2F0A305A2E005A2F0A305A213
:1024A000E005A2F0A3DDC6AE83AF8205A22290BDF7
:1024B000F1EFF090BCF005A28C838D827D08E0A343
:1024C00005A2F005A2E0A305A2F005A2E0A305A2E3
:1024D000F005A2E0A305A2F005A2E0A305A2F00585
:1024E000A2E0A305A2F005A2E0A305A2F005A2E0E8
:1024F000A305A2F005A2DDC6AE83AF8205A222121B
:102500001BC1EF600122E549C394035026120796D0
:10251000EF600C7F32122753120796EF60012212F0
:1025200026FDEF6003022353900006E0640260037F
:102530007F1222E4FDFF1226CC121D808F3AE53A6D
:102540007002FF22122811AF3A22E5496415600794
:1025500012272BEF60012278741212068F558E54C9
:102560008D538C52AB4DAA4CA94BA84AC31211CF24
:10257000500C854D55854C54854B53854A52AF556B
:10258000AE54AD53AC5212290B787412121F1220A4
:102590004622C20AE549C39414403B1216A5EF60D7
:1025A000012274002543FB74003542FAF583EB24C5
:1025B0000BF582E43583F583E020E41AAF4DAE4C91
:1025C000AD4BAC4A122915EB241CF582E43AF58395
:1025D00012122B02158A7F0022D294C2947F6412B9
:1025E0002753D2941228A27BFF7A1E79DB12049C17
:1025F0001227C1122869D2A8D2AF7BFF7A1E79E2D6
:1026000012049CE549C3940240F97BFF7A1E79F1DC
:1026100012049CE549C3940240E080F7E53424FEAF
:10262000FFE53334FFFEE53234FFFDE53134FFFCD6
:10263000A8301211F3EF2547FBEE3546FAED35458C
:10264000F9EC3544F8E4FCFDFEEB2539F526EE3ACD
:10265000F525ED39F524EC38F5232285513C7F0230
:10266000122753121BC18F51E5516003AF51227CD9
:10267000247D0D121CAAE551B416037F8222E55178
:10268000700AAF2B122696AF2C1226967F021227C5
:1026900053AF3C8F51228F3D7C247D457F0812280B
:1026A00028E53DC4540FFFBF090DE53D540F44809C
:1026B000F53D53567F800FE53DC4540FFFBF010623
:1026C000533D0F5356BFAD3D121CB422900217ED7F
:1026D000F060047E8080027E0090021BEEF090028B
:1026E0001D7406F0A3EFF0E4A3F0A3F0A3F0A3EDB4
:1026F000F0E4A3F0A3F0A3F0A3F0A3F022753B084D
:102700007D087F251226CC90021D740AF0E4900209
:1027100022F0121D808F3AE53A7002FF2212281132
:102720007F1E122753D53BD8AF3A22E54964146087
:10273000037FB422854134854033853F32853E3165
:10274000E4F555F554F553F552F5397D157F14121E
:1027500027A5228F3D7F041228F6EF20E5F7AF3D35
:10276000153DEF60147F041228F6EF30E5F77F0483
:102770001228F6EF30E5E780F522EFB40A07740D72
:10278000122785740A309811A899B8130CC2983092
:1027900098FDA899C298B811F63099FDC299F5999B
:1027A000227D107F10E549C39F40028D49E5496DA8
:1027B0007002FF22754901121BC1EF6001227F8365
:1027C00022E581D394EE40037FFC22E4900000F0E8
:1027D000122921EFC3941150037FFF221223AE224E
:1027E00090BDF1EFF0ED601090BCF0E08B828A8339
:1027F000F00BBB00010ADDF022754901E4900216DE
:10280000F0FD7F081228C77D807F061228C77F82CF
:10281000227F0A1227537D127F031226CC121D80BD
:102820007F02122753AF512290BDF17440F07E0019
:102830008D828C83EE9390BCF0F00EDFF32290BD7E
:10284000F1EFF08B828A83E090BCF0F00BBB0001CB
:102850000ADDF0227C247D557F081228289002157D
:10286000E0547FFD7F440228C7EF6010C2947F646C
:10287000122753D2947F6412275380F0227C247D48
:102880004D7F08122828900215E0547F121CB322B5
:1028900090BDF1740DF090BCF0E52BF0E556F0D250
:1028A0000B22759850758780758920758DF3D28EAF
:1028B000D299228F828E83E0FFA3E0FEA3E0FDA3E6
:1028C000E0FC227DC07F0690BDF1EFF090BCF0ED02
:1028D000F02274FFF52AF529F528F527C209227898
:1028E0007FE4F6D8FD7581910225D97F091228F67B
:1028F000EF540360F62290BDF1EFF090BCF0E0FFE2
:10290000228F828E83E0FFA3E0FE22C3E4CC13CDAE
:1029100013CE13FF22EFCCFFEECDFE227FFADFFEB7
:05292000227F112222BC
:00000001FF
