:10000000021D877F321222241222781221D07BFF18
:100010007A0E79501211C81221731222507BFF7A86
:100020000E79621211C8122267EF6003121FCE7F91
:100030000912225CEF30E5047F0180027F00EF604F
:10004000E57FFA122224122267EF6003121FCE7B93
:10005000FF7A0E79721211C8122195E4F5227F09F8
:1000600012225CEF30E5047F0180027F00EF700E0A
:100070007F011222240522E522C3946440E012226B
:1000800067EF6003121FCE7F0912225CEF30E50498
:100090007F0180027F00EF602C7F0412225CEF3032
:1000A000E3047F0180027F00EF7BFF600C7A0E7912
:1000B000801211C81221E880187A0E79991211C89D
:1000C000122211800C7BFF7A0E79B11211C8020046
:1000D0001A7FC8122224122267EF6003121FCEE497
:1000E0007853F618F67BFF7A0E79C01211C8121FEA
:1000F000038F23E52364146003020D52E4F522907C
:10010000114CE493FFE522C39F50187BFF7A0E79D0
:100110000674562522F8E6753200F5331211C8052B
:100120002280DC7BFF7A0E790E1211C8785AE664C1
:10013000096003020D25785306F52575F00EE525B7
:10014000A42400F582E5F03400F583E06004052581
:1001500080E9E52504789AF67BFF7A0E79D175322D
:1001600000F5331211C878967600087601789AE681
:10017000FF121CA98F23E52364146003020D527B38
:10018000FF7A0F790D1211C8789AE6FF75F00EE527
:1001900025A42400F582E5F03400F583EFF075F036
:1001A0000EE525A42401F582E5F03400F58374669C
:1001B000F075F00EE525A42402F582E5F03400F593
:1001C0008374FFF075F00EE525A42403F582E5F0B5
:1001D0003400F583E509F07855E6FF75F00EE52566
:1001E000A42404F582E5F03400F583EFF0789BE673
:1001F000FF75F00EE525A42405F582E5F03400F541
:1002000083EFF07851E6FF75F00EE525A42406F59E
:1002100082E5F03400F583EFF075F00EE525A424B7
:1002200007F582E5F03400F583E4F075F00EE5257E
:10023000A42408F582E5F03400F583E4F075F00EAF
:10024000E525A42409F582E5F03400F583E4F07592
:10025000F00EE525A4240AF582E5F03400F583E4E8
:10026000F075F00EE525A4240BF582E5F03400F5D9
:1002700083E4F075F00EE525A4240CF582E5F03456
:1002800000F583E4F075F00EE525A4240DF582E574
:10029000F03400F583E4F0E4784FF608F6789CF645
:1002A000F525F524E524C378539650EBE4784FF612
:1002B000789CF67850F675F00EE525A42401F582B9
:1002C000E5F03400F583E0B4661375F00EE525A47F
:1002D0002400F582E5F03400F583E070100525E593
:1002E00025D3943240D0E4F525F52480C975F00E6D
:1002F000E525A42400F582E5F03400F583E0789A42
:10030000F675F00EE525A42403F582E5F03400F53A
:1003100083E0F50975F00EE525A42404F582E5F0E7
:100320003400F583E07855F675F00EE525A4240534
:10033000F582E5F03400F583E0789BF675F00EE584
:1003400025A42406F582E5F03400F583E07851F623
:10035000121AA28F23E5236420600302065C789AB8
:10036000E6FF64017003020D527BFF7A0F7911756D
:1003700032008F331211C8789AE675F00EA424F279
:10038000F582E5F034FFF583E4F0785316F52A782A
:100390009AE6FE75F00EA424F9F582E5F034FFF537
:1003A00083E582252AF582E43583F583E070030234
:1003B000063F75F00EEEA424F9F582E5F034FFF562
:1003C00083E582252AF582E43583F583E0F52775F8
:1003D000F00EA424F3F582E5F034FFF583E06477B2
:1003E000703A75F00EE527A424F2F582E5F034FFAB
:1003F000F583E060277BFF7A0F794475320085270B
:10040000331211C875F00EE527A424F2F582E5F049
:1004100034FFF583E4F078521602063F75F00EE5DE
:1004200027A424F3F582E5F034FFF583E0646660E9
:100430000302063F75F00EE527A424F2F582E5F0ED
:1004400034FFF583E0700302063F7BFF7A0F7911DA
:100450007532008527331211C875F00EE527A424E4
:10046000F2F582E5F034FFF583E4F0785316F52BCE
:1004700075F00EE527A424F9F582E5F034FFF58345
:10048000E582252BF582E43583F583E070030206CF
:100490003375F00EE527A424F9F582E5F034FFF575
:1004A00083E582252BF582E43583F583E0F5287515
:1004B000F00EA424F3F582E5F034FFF583E06477D1
:1004C000703A75F00EE528A424F2F582E5F034FFC9
:1004D000F583E060277BFF7A0F7944753200852829
:1004E000331211C875F00EE528A424F2F582E5F068
:1004F00034FFF583E4F078521602063375F00EE50A
:1005000028A424F3F582E5F034FFF583E064666007
:100510000302063375F00EE528A424F2F582E5F017
:1005200034FFF583E070030206337BFF7A0F797A9C
:100530007532008528331211C875F00EE528A42401
:10054000F2F582E5F034FFF583E4F0785316F52CEC
:1005500075F00EE528A424F9F582E5F034FFF58363
:10056000E582252CF582E43583F583E070030206ED
:100570002775F00EE528A424F9F582E5F034FFF59F
:1005800083E582252CF582E43583F583E0F5297532
:10059000F00EA424F3F582E5F034FFF583E06477F0
:1005A000703975F00EE529A424F2F582E5F034FFE8
:1005B000F583E060267BFF7A0F7944753200852948
:1005C000331211C875F00EE529A424F2F582E5F086
:1005D00034FFF583E4F0785216804C75F00EE5296F
:1005E000A424F3F582E5F034FFF583E06466703708
:1005F00075F00EE529A424F2F582E5F034FFF583C9
:10060000E060247BFF7A0F7911753200852933125F
:1006100011C875F00EE529A424F2F582E5F034FF47
:10062000F583E4F0785316052CE52CC394075003AA
:10063000020550052BE52BC39407500302047005F7
:100640002AE52AC39407500302038FE4F525F52415
:10065000784FF6789CF67850F60202A4E5236414ED
:100660006008789AE66401020D52784FE670030242
:100670000D1E08E664AA600302098BFD7F081222A2
:1006800006789CE664996003020725F52A75F00E4A
:10069000E52AA42400F582E5F03400F583E0600447
:1006A000052A80E9E52A04FF784FE6FE75F00EE59D
:1006B00025A42406F582E5F03400F583E5822EF5C5
:1006C00082E43583F583EFF0789AE6FE75F00EE567
:1006D0002AA42402F582E5F03400F583EEF0EFF66B
:1006E0007852067BFF7A0F79AD753200F53312111F
:1006F000C87BFF7A0F790D1211C8789AE6FF75F062
:100700000EE52AA42400F582E5F03400F583EFF02D
:1007100075F00EE52AA42401F582E5F03400F58396
:100720007477020971789CE664886003020D1E12DA
:1007300021E87BFF7A0E79C01211C8121F038F23A4
:10074000E52364146003020D52E4F52290114CE499
:1007500093FFE522C39F50187BFF7A0E79067456EB
:100760002522F8E6753200F5331211C8052280DC27
:100770007BFF7A0E790E1211C8E4F52A75F00EE5AA
:100780002AA42400F582E5F03400F583E060040536
:100790002A80E9E52A04FF784FE6FE75F00EE5258C
:1007A000A42406F582E5F03400F583E5822EF58277
:1007B000E43583F583EFF0789AE6FE75F00EE52ACE
:1007C000A42402F582E5F03400F583EEF0A6077864
:1007D0005AE6640960030209077853067BFF7A0F23
:1007E00079E7789AE6753200F5331211C8789AE6FF
:1007F000FF121CA98F23E52364146003020D527BB2
:10080000FF7A0F790D1211C8789AE6FF75F00EE5A0
:100810002AA42400F582E5F03400F583EFF075F0AA
:100820000EE52AA42401F582E5F03400F583746610
:10083000F075F00EE52AA42403F582E5F03400F506
:1008400083E509F07855E6FF75F00EE52AA4240447
:10085000F582E5F03400F583EFF0789BE6FF75F064
:100860000EE52AA42405F582E5F03400F583EFF0C7
:100870007851E6FF75F00EE52AA42406F582E5F02E
:100880003400F583EFF075F00EE52AA42407F58215
:10089000E5F03400F583E4F075F00EE52AA42408B1
:1008A000F582E5F03400F583E4F075F00EE52AA456
:1008B0002409F582E5F03400F583E4F075F00EE5E7
:1008C0002AA4240AF582E5F03400F583E4F075F0FB
:1008D0000EE52AA4240BF582E5F03400F583E4F05C
:1008E00075F00EE52AA4240CF582E5F03400F583BA
:1008F000E4F075F00EE52AA4240DF582E5F034004D
:10090000F583E4F0020D1E7852067BFF7A10791E03
:10091000789AE6753200F5331211C8789AE6FF121C
:100920001E9D8F23E52364146003020D527BFF7A22
:100930000F790D1211C8789AE6FF75F00EE52AA41A
:100940002400F582E5F03400F583EFF075F00EE554
:100950002AA42401F582E5F03400F5837477F0755C
:10096000F00EE52AA42403F582E5F03400F583E5D2
:1009700009F0789CE6FF75F00EE52AA42404F582C0
:10098000E5F03400F583EFF0020D1E7850E664BB0D
:1009900060030202A4F525F52418E6FF789AE675AF
:1009A000F00EA424F8F582E5F034FFF583E5822FFC
:1009B000F582E43583F583E0F52670030202A47521
:1009C000F00EA424F3F582E5F034FFF583E06477BC
:1009D000703A75F00EE526A424F2F582E5F034FFB6
:1009E000F583E060277BFF7A0F7944753200852616
:1009F000331211C875F00EE526A424F2F582E5F055
:100A000034FFF583E4F07852160202A475F00EE587
:100A100026A424F3F582E5F034FFF583E0646660F4
:100A2000030202A475F00EE526A424F2F582E5F097
:100A300034FFF583E070030202A47BFF7A0F791183
:100A40007532008526331211C875F00EE526A424F0
:100A5000F2F582E5F034FFF583E4F0785316F52AD9
:100A6000E52AC3940740030202A475F00EE526A40C
:100A700024F9F582E5F034FFF583E582252AF58235
:100A8000E43583F583E07003020D1975F00EE52659
:100A9000A424F9F582E5F034FFF583E582252AF5F3
:100AA00082E43583F583E0F52775F00EA424F3F591
:100AB00082E5F034FFF583E06477703A75F00EE577
:100AC00027A424F2F582E5F034FFF583E060277B6C
:100AD000FF7A1079577532008527331211C875F0E7
:100AE0000EE527A424F2F582E5F034FFF583E4F067
:100AF000785216020D1975F00EE527A424F3F5823D
:100B0000E5F034FFF583E064666003020D1975F0CB
:100B10000EE526A424F2F582E5F034FFF583E070BB
:100B200003020D197BFF7A10798E75320085273309
:100B30001211C875F00EE527A424F2F582E5F03411
:100B4000FFF583E4F0785316F52B75F00EE527A436
:100B500024F9F582E5F034FFF583E582252BF58253
:100B6000E43583F583E07003020D0D75F00EE52783
:100B7000A424F9F582E5F034FFF583E582252BF511
:100B800082E43583F583E0F52875F00EA424F3F5AF
:100B900082E5F034FFF583E06477703A75F00EE596
:100BA00028A424F2F582E5F034FFF583E060277B8A
:100BB000FF7A0F79447532008528331211C875F019
:100BC0000EE528A424F2F582E5F034FFF583E4F085
:100BD000785216020D0D75F00EE528A424F3F58267
:100BE000E5F034FFF583E064666003020D0D75F0F7
:100BF0000EE528A424F2F582E5F034FFF583E070D9
:100C000003020D0D7BFF7A0F7911753200852833B1
:100C10001211C875F00EE528A424F2F582E5F0342F
:100C2000FFF583E4F0785316F52C75F00EE528A453
:100C300024F9F582E5F034FFF583E582252CF58271
:100C4000E43583F583E07003020D0175F00EE528AD
:100C5000A424F9F582E5F034FFF583E582252CF52F
:100C600082E43583F583E0F52975F00EA424F3F5CD
:100C700082E5F034FFF583E06477703975F00EE5B6
:100C800029A424F2F582E5F034FFF583E060267BA9
:100C9000FF7A0F79447532008529331211C875F037
:100CA0000EE529A424F2F582E5F034FFF583E4F0A3
:100CB000785216804C75F00EE529A424F3F582E5F0
:100CC000F034FFF583E06466703775F00EE529A413
:100CD00024F2F582E5F034FFF583E060247BFF7AAF
:100CE0000F79117532008529331211C875F00EE5A0
:100CF00029A424F2F582E5F034FFF583E4F078537B
:100D000016052CE52CC394075003020C2A052BE58D
:100D10002BC394075003020B4A052A020A600525DB
:100D200005240202A47BFF7A1079C31211C8E4786B
:100D300096F608F67F01121E9D8F23E523B4141248
:100D40007BFF7A1079EA1211C87BFF7A11790012C1
:100D500011C8E47898F608F67898E6FE08E6FFC32E
:100D600094BCEE9402501474002FF58274003EF58A
:100D700083E4F006E61870E00680DD7897E6184612
:100D80007BFF60067A11792380047A11793512117C
:100D9000C8E47896F608F6122267EF6003121FCEB9
:100DA0007F0912225CEF30E5047F0180027F00EFB3
:100DB00070E57F641222247F0912225CEF30E50483
:100DC0007F0180027F00EF7089E47898F608F6785A
:100DD00098E6FE08E6FFC394BCEE940240030200CE
:100DE0001A74002FF58274003EF583E4F006E618CD
:100DF00070DD0680DA476574436F6E666967446527
:100E00007363723A0A0030782530325820000A00A5
:100E100047657448756244657363726970746F7274
:100E20003A0A0030782530327820004C6F772073F2
:100E300070656564206465766963650A0046756C53
:100E40006C207370656564206465766963650A006B
:100E5000537461727420434833373420486F73747D
:100E60000A00576169742044657669636520496E9C
:100E70000A005265736574204465766963650A00EB
:100E800053746172742046756C6C2D537065656483
:100E9000204465766963650A005374617274204C5E
:100EA0006F772D5370656564204465766963650AC4
:100EB0000044657669636520676F6E6520210A00CE
:100EC00047657444657669636544657363723A2067
:100ED000002A2A2A2A2A2A2A2A204170706F696E3B
:100EE00074206164647265737320256420746F20BC
:100EF000617474616368656420526F6F7420487513
:100F00006220202A2A2A2A2A2A2A2A0A004F4B0A41
:100F10000023232323232323232054686520726581
:100F20006D6F7665642068756227732061646472F2
:100F300065737320697320256420232323232323CF
:100F400023230A00232323232323232320546865F8
:100F50002072656D6F7665642064657669636527C8
:100F60007320616464726573732069732025642043
:100F700023232323232323230A002323232323237D
:100F80002323205468652072656D6F76652068752F
:100F9000622773206164647265737320697320250E
:100FA00064202023232323232323230A002A2A2AFD
:100FB0002A2A2A2A2A204170706F696E742061647F
:100FC000647265737320256420746F20617474618A
:100FD000636865642064657669636520202A2A2A2F
:100FE0002A2A2A2A2A0A002A2A2A2A2A2A2A2A20B5
:100FF0004170706F696E74206164647265737320F0
:10100000256420746F20617474616368656420686E
:10101000756220202A2A2A2A2A2A2A2A0A002A2A0B
:101020002A2A2A2A2A2A204170706F696E74206148
:1010300064647265737320256420746F2061747416
:10104000616368656420646576696365202A2A2A7D
:101050002A2A2A2A2A0A002323232323232323207C
:10106000205468652072656D6F76656420646576CE
:1010700069636527732061646472657373206973A3
:101080002025642023232323232323230A0023232F
:1010900023232323232320205468652072656D6F4A
:1010A0007665642068756227732061646472657375
:1010B00073206973202564202023232323232323E3
:1010C000230A0046756E6374696F6E2064657669E5
:1010D0006365206174206164647265737320312CD0
:1010E000206E6F206875622E0A0055534220646599
:1010F00076696365207265616479206E6F770A0096
:10110000646F20736F6D657468696E672C207265FB
:101110006164202F207772697465202E2E2E2E2E6A
:101120002E0A00526F6F74206875622072656D6FB1
:101130007665640A00576169742044657669636561
:10114000204F75740A00800600010000120080061E
:101150000002000004000005020000000000000979
:10116000000000000000E53E2432F8E6053E22784B
:101170002F3007027832E475F001121A6C021A144B
:101180002000EB7F2ED2008018EF540F2490D4342F
:1011900040D4FF30040BEF24BFB41A005003246185
:1011A000FFE53F6002153F0542E542700205413010
:1011B000070D782FE475F001121A6CEF021A5A022B
:1011C000214C7403D2078003E4C207F53E8B2F8ABB
:1011D000308931E4F53FF541F542E53F60077F2076
:1011E0001211A180F57540FFC201C200C202C20304
:1011F000C205C206C20812116FFF700D3007057FCD
:10120000001211B2AF42AE4122B4255FC2D5C20472
:1012100012116FFF24D0B40A00501A75F00A783FFB
:1012200030D50508B6FF0106C6A426F620D5047001
:1012300002D20380D924CFB41A00EF5004C2E5D201
:10124000040213B2D20180C6D20080C0D20280BC98
:10125000D2D580BAD20580B47F201211A120020716
:101260007401B53F0040F1121166FF1211A1021185
:10127000DAD208D2068095121166FB121166FA12B4
:101280001166F94A4B700679837A147BFF20022E8F
:10129000E53F602A7E008E82758300121A2D60065B
:1012A0000EEE654070F0C2D5EBC0E0EAC0E0E9C0E8
:1012B000E0EE1213F9D0E0F9D0E0FAD0E0FB121A18
:1012C00014FF60AAEBC0E0EAC0E0E9C0E01211A19F
:1012D000D0E02401F9D0E03400FAD0E0FBE540048E
:1012E00060DCD540D980877BFF7A1379F5D2028004
:1012F0009C791080027908C206C2088008D2D5798C
:101300000A8004790AC2D5E540047002F540E4FA87
:10131000FDFEFF121166FC7B08200113121166FD11
:101320007B1030000A121166FE121166FF7B20EC62
:101330003382D592D55013C3E43000069FFFE49E5C
:10134000FEE42001039DFDE49CFCE4CBF8C201EC2B
:10135000700CCFCECDCCE824F8F870F38017C3EF33
:1013600033FFEE33FEED33FDEC33FCEB33FB994002
:1013700002FB0FD8E9EB300105F8D0E0C448B20118
:10138000C0E00AEC4D4E4F78207B0070C2EAB540B9
:101390000040BCC0E01213FBD0F0D0E0200104C438
:1013A000C0E0C4B201C0F012118AD0F0D5F0EB0257
:1013B00011DA121A7C12775312F15812484C124467
:1013C0004212F54F12FD4412FD49125D43130355BD
:1013D00012E74612E74512E74714A350124C2D12AC
:1013E000502E12732B125423127120148C2A120CBB
:1013F000480000126B3F3F3F00790AA2D52003143A
:10140000300509B910020404B9080104A2D5200668
:10141000025001042002689202B53F005034C0E03F
:101420007F203003197F30A20272067205500F121E
:101430001452C202C206C205C2087F30800F3005B6
:1014400003E9C0E01211A1300503D0E0F9D0E0B506
:101450003FCC3005177F30B9100C1211A17F5830E6
:1014600004077F788003B908031211A13002057FB9
:101470002D0211A17F202008F87F2B2006F3229255
:101480000280CF286E756C6C2900D2011211663073
:1014900001F8C201783F30D50108F602120C2D5038
:1014A0004349581211662403B405004001E4901426
:1014B0009E93121192743A121192D203753F040254
:1014C00012F101090862BC000000000000000000E9
:1014D000000000000000000000000000000000000C
:1014E00000000000000000000000000000000000FC
:1014F00000000000000000000000000000000000EC
:1015000000000000000000000000000000000000DB
:10178000000000000000F6F53E753F00754056F57C
:101790004175420075432FFB7A0079568B3B8A3C9A
:1017A000893D7D087F401220FA7D087F0B122206BA
:1017B0007FC812223C754B00754CC8E4FB7D0DFFC1
:1017C000121F8FAC07EC64146003021908754701FF
:1017D000AB3BAA3CA93D900006121A2DF5467003BA
:1017E0000218CEE53F4540453E70030218CE8546BF
:1017F00044121A1430E76BE54460627FC812223C41
:10180000754B00754CC8AB477D09E4FF121F8FACC8
:1018100007EC641470477F0B12225C8F45AB3EAA25
:101820003FA940AD457FC012207BE5452540F540EE
:10183000E4353FF53FE545D395445009C3E544956C
:1018400045F5448003E4F544E509145545700EE57B
:101850004760047F0080027F018F47809AE4F5474C
:101860008065E544605E7FC812223CE544C395096B
:101870004004AF098002AF448F45AB3EAA3FA94068
:10188000AD457F401220FAAD457F0B122206754B05
:1018900000754CC8AB477D01E4FF121F8FAC07EC0D
:1018A00064147020E5452540F540E4353FF53FC31D
:1018B000E5449545F544E54760047F0080027F01DB
:1018C0008F47809E754701C3E5469544F546EC6415
:1018D000147035FD7F0B1222067FC812223CE547AB
:1018E00060047D0980027D01754B00754CC87B0149
:1018F000E4FF121F8FAC07E547600DBC140A7F0B95
:1019000012225CEF60027C17E54245434541600BC3
:10191000AB41AA42A943E546121A5AAF0422E7098D
:10192000F608DFFA8046E709F208DFFA803E88828F
:101930008C83E709F0A3DFFA8032E309F608DFFAC7
:101940008078E309F208DFFA807088828C83E309EB
:10195000F0A3DFFA806489828A83E0A3F608DFFAC5
:10196000805889828A83E0A3F208DFFA804C80D213
:1019700080FA80C680D4806980F28033801080A68F
:1019800080EA809A80A880DA80E280CA80338982E7
:101990008A83ECFAE493A3C8C582C8CCC583CCF093
:1019A000A3C8C582C8CCC583CCDFE9DEE7800D893A
:1019B000828A83E493A3F608DFF9ECFAA9F0EDFB41
:1019C0002289828A83ECFAE0A3C8C582C8CCC58389
:1019D000CCF0A3C8C582C8CCC583CCDFEADEE880E2
:1019E000DB89828A83E493A3F208DFF980CC88F054
:1019F000EF60010E4E60C388F0ED2402B404005085
:101A0000B9F582EB2402B4040050AF2323458223AE
:101A100090196E73BB010689828A83E0225002E727
:101A200022BBFE02E32289828A83E49322BB010C5B
:101A3000E58229F582E5833AF583E0225006E9251F
:101A400082F8E622BBFE06E92582F8E222E5822939
:101A5000F582E5833AF583E49322BB010689828A05
:101A600083F0225002F722BBFE01F322FAE6FB08C4
:101A700008E6F925F0F618E6CA3AF622D083D082B5
:101A8000F8E4937012740193700DA3A393F874019A
:101A900093F5828883E4737402936860EFA3A3A331
:101AA00080DF789AE6FD7F08122206752E01E52E6A
:101AB000D37855964003021BA9AF2E1221238F2DF8
:101AC000E52D64146001227856E630E06F7858E620
:101AD00030E069784FA62E752EAAE6FF1221238FDB
:101AE0002DE52D64146001227857E67BFF30E10D6F
:101AF0007A0E792B1211C8789C7699800B7A0E7920
:101B00003D1211C8789C76887FC8122224784FE64F
:101B1000FF7D041220A68F2DE52D6414600122782C
:101B20004FE6FF1221238F2DE52D641460012278EA
:101B300058E630E4EA7F1412222480217856E62009
:101B4000E01B7858E630E015784FA62E752EBBE6E0
:101B5000FF1221238F2DE52D64146001227858E6B1
:101B600054116034784FE6FF7D141220D08F2DE59C
:101B70002D6414600122784FE6FF7D101220D08F73
:101B80002DE52D6414600122784FE6FF1221238F8A
:101B90002DE52D6414600122E52E64AA600BE52E6C
:101BA00064BB6005052E021AAE7850A62E7FC812BF
:101BB0002224AF2D228F4EAA05A903E4FBEAC454C8
:101BC000F0FFE54E540F4FFD7F0D122206E9600431
:101BD0007DC880027D087F0E1222061221B6AC0756
:101BE000BCFA01227F0912225CAC07EC30E1327FA3
:101BF000C812223C7D137F09122206EC30E51F7FBC
:101C00000612225CEC30E70BEF543060037F1322A6
:101C10007F1522EF543060037F15227F13227F1639
:101C200022EC30E0667D117F091222060F12225C41
:101C3000AC07EC540FFFEA24F7602524FC60042471
:101C40000C7045BF02037F1422EF640E6035BF0A9B
:101C5000028030EC54037003D38001C3403F8023E3
:101C6000EC5407FEBE0307EC30E4327F1422EF642D
:101C70000E6003BF0A02800BEC54037003D3800193
:101C8000C3401AEF4420FF227FFA227FC812223C71
:101C90007D1F7F09122206EB60037FFA220BEB64A3
:101CA000036003021BBD7F2022121F4A8F2DE52DEA
:101CB00064146001227BFF7A0D79F51211C8121E9F
:101CC000138F2DE52D6414600122786AE6789BF667
:101CD000FF786EE67851F6785BE67854F6EF547F3D
:101CE000789BF6E4F52EE52EC378589650187BFFC6
:101CF0007A0E79067456252EF8E6753200F5331201
:101D000011C8052E80E07BFF7A0E790E1211C87B78
:101D1000FF7A0E79101211C812200D8F2DE52D6457
:101D200014600122E4F52EE52EC378569650187BF8
:101D3000FF7A0E79237456252EF8E6753200F533B6
:101D40001211C8052E80E07BFF7A0E790E1211C8A1
:101D50007858E67855F618E6FF1220478F2DE52DC6
:101D60006414600122752E01E52ED3785596501427
:101D70007D08AF2E1220A68F2DE52D641460012260
:101D8000052E80E4AF2D22787FE4F6D8FD75819C86
:101D9000021DCE020003E493A3F8E493A34003F6EC
:101DA0008001F208DFF48029E493A3F85407240C9F
:101DB000C8C333C4540F4420C8834004F456800180
:101DC00046F6DFE4800B01020408102040809014E6
:101DD000C2E47E019360BCA3FF543F30E509541F69
:101DE000FEE493A360010ECF54C025E060A840B884
:101DF000E493A3FAE493A3F8E493A3C8C582C8CA02
:101E0000C583CAF0A3C8C582C8CAC583CADFE9DED4
:101E1000E780BE7B007A0079568B2F8A3089318B20
:101E20003E8A3F89407541007542007543327BFF11
:101E30007A11794E12179CEF6414706090115493CC
:101E4000FEE532C39E50047F17805178337C007DBD
:101E5000007BFF7A11794E7E007F081219EEAB2FBE
:101E6000AA30A931900002121A2DF5398B3E8A3F13
:101E700089407541007542007543327B007A0079D4
:101E80003312179CBF1415AB2FAA30A93190000252
:101E9000121A2DFEE532C39E50027F1722121F4AEE
:101EA0008F2DE52D64146001227BFF7A0D79F512E8
:101EB00011C8121E138F2DE52D6414600122785B6A
:101EC000E67854F6E4F52EE52EC378589650187B44
:101ED000FF7A0E79067456252EF8E6753200F53332
:101EE0001211C8052E80E07BFF7A0E790E1211C800
:101EF0007854E6FF1220478F2DE52D6414600122EF
:101F0000AF2D227B007A0079568B2D8A2E892F7572
:101F100009088B3E8A3F8940754100754200754330
:101F2000307BFF7A11794612179CBF141CAB2DAA87
:101F30002EA92F900007121A2DF50990114CE49349
:101F4000FEE530C39E50027F17228F2F78307C0031
:101F50007D007BFF7A1179567E007F081219EE858D
:101F60002F32753E00753F00754000754100754287
:101F7000007543007B007A00793012179CAC07BCD7
:101F80001405AF2F1222717F03122224AF04228F77
:101F9000488D498B4AE4F54DAB4AAD49AF48121B19
:101FA000B5BF2A06E54C454B7001227F1412223C36
:101FB000054DE54DC3942840DFC3E54C94FFE54B48
:101FC00094FF50D1E54C154C70CB154B80C77F0961
:101FD00012225CAE07EE30E12C7D127F0912220640
:101FE000EE30E51D7F0612225CEE30E707EF54303D
:101FF00060078009EF5430600475081522750813D6
:1020000022750816227D1D7F091222062278567637
:10201000A0087606E408F608762908F608F6087699
:102020000108121786EF6414701C7856E6785CF687
:10203000785676A0087606E408F608762908F608A9
:10204000F6785D121786228F2F78307C007D007B1A
:10205000FF7A11795E7E007F081219EE852F3275A6
:102060003E00753F007540007541007542007543A4
:10207000007B007A00793012179C228B488A4989AC
:102080004A90BDF1EFF0AF051DEF601990BCF0E094
:10209000FFAB48054AE54AAA497002054914F9EF21
:1020A000121A5A80E1227856762308760308A6058C
:1020B000E408F608A60708F608F608F6F53E753FA8
:1020C00000754056F54175420075432F121797224F
:1020D0007856762308760108A605E408F608A607D0
:1020E00008F608F608F6F53E753F00754056F541CE
:1020F00075420075432F121797228B488A49894AE7
:1021000090BDF1EFF0AF051DEF6017AB48054AE554
:102110004AAA497002054914F9121A1490BCF0F049
:1021200080E322785676A3E408F608F608F608A6B7
:102130000708F608760408F6F53E753F0075405628
:10214000F54175420075432F12179722EFB40A0725
:10215000740D122157740A309811A899B8130CC243
:10216000983098FDA899C298B811F63099FDC29997
:10217000F59922E4FD7F061222061221FD7D1F7FC4
:10218000091222067D037F071222067D407F051279
:1021900022060222507509081221FD7D817F061258
:1021A00022067F141222241222507F011222247D43
:1021B000167F09022206E4FDFC122267EF60037F0E
:1021C00000220DBD00010CBC27EFBD10EC7FFA22F0
:1021D00075985075878075CAF375CCF375CBFF750C
:1021E000CDFF75C834D299227F0612225CEF54CFFE
:1021F0004440FD7F061222067F01022224E4FF12E2
:102200002271E4FD7F0E90BDF1EFF090BCF0EDF097
:10221000227F0612225CEF4470FD7F061222067FA9
:1022200001022224AD07AF051DEF6008122235120E
:10223000223580F2227FFA12223C7FFAAE071FEE8F
:1022400070FA2290BDF1EFF0E05D4B90BCF0F0220F
:102250007D807F061222067DC002220690BDF1EF2E
:10226000F090BCF0E0FF2230B2047F0080027F01DA
:0922700022AD077F0802220622BC
:00000001FF
