:1000000002371AE540C394105007120B8AEF6001C3
:10001000221235A9EF600122C20A7850E6645C60C2
:1000200004E6B42F05752D5180177851E6643A60C7
:10003000030200EF18E6C3944350030200EF752D4E
:1000400053E547B4031090021EE0FCA3E0FDA3E0DB
:10005000FEA3E0FF8005E4FFFEFDFC8F3D8E3C8D9E
:100060003B8C3AA82DE660030200F274FFF544F5DC
:1000700043F542F541E54764036057753D02900240
:1000800012E0FCA3E0FDA3E0FEA3E0FF900221E06C
:10009000FBC3EF9BFFEE9400FEED9400FDEC94009B
:1000A000FC900212121429900220E0FEA3E0A83076
:1000B000088005C333CE33CED8F9FFE48F448E4396
:1000C000F542F541AF22FCFDFE90021E1214297587
:1000D0002280853D34853C33853B32853A31E4F5D9
:1000E0004EF54DF54CF54BF5357540127F412275B7
:1000F0002D50A82DE6B4E5027605E53D700CE53AF5
:100100007008E53B7004E53C6038852235E53D2408
:10011000FEFFE53C34FFFEE53B34FFFDE53A34FFEE
:10012000FC900209E0F81213F1900212E0F8A3E04B
:10013000F9A3E0FAA3E02FFFEA3EFEE93DFDE83C2B
:100140008024900221E0F535AF35CB900212E0FC1F
:10015000A3E0FDA3E0FEA3E0C39BFFEE9400FEED51
:100160009400FDEC9400FC900219121429E53570FE
:100170000302042212258FEF600122E4F53EF53FD1
:10018000D3900217E0953F900216E0953E5003028F
:1001900003FEE549253FF52FE548353EF52E852F31
:1001A00082F583E0FF700302044FEF64E570030201
:1001B00003F0BF05027FE5A82DE6FE6F6008EE6440
:1001C0002A60030203F0E4F539FFEFC3940B507883
:1001D000E52F2FF582E4352EF583E0FEAD39E52DD0
:1001E0002DF8EE66605DAD39E52D2DF8E66015ADB4
:1001F00039E52D2DF8E6645C600AAD39E52D2DF862
:10020000E6B42F1FEE6420703FEFC394085010E552
:100210002F2408F582E4352EF583E0642070297FD1
:100220000B8025AE39E52D2EF8E6B42E1BE539649A
:1002300008600EE52F2FF582E4352EF583E0B4201B
:10024000077F070F05398082EFC3940B5003020329
:1002500031E52F240BF582E4352EF583E030E303FE
:10026000020331C20BE52F241AFFE4352EFE1237AC
:1002700003E48F3D8E3CF53BF53AE547B40310E5CA
:100280002F2414FFE4352EFE1237038E3A8F3BAF36
:1002900039E52D2FF8E66006200B03020327853D84
:1002A00034853C33853B32853A31E4F54EF54DF5E6
:1002B0004CF54BF535E52F240BF582E4352EF5830F
:1002C000E030E41F74FFF544F543F542F5417D133A
:1002D0007F101235ADEF600122300B047F438002A6
:1002E0007F4122E52F241CFFE4352EFE12367A8F43
:1002F000448E438D428C41E53D7017E53A7013E51D
:100300003B700FE53C700B7535FFF544F543F54246
:10031000F5417D147F101235ADEF600122300B04E2
:100320007F4380027F0022E53904252DF52D020050
:10033000F2AF39E52D2FF8E6642A60030203F0E5F9
:100340002F240BF582E4352EF583E030E30302031E
:10035000F0E53904252DF8E67053E4FFF537E52F75
:100360002FF582E4352EF583E06420602FBF080A64
:10037000AE37E52D2EF8762E0537E52F2FF582E4E2
:10038000352EF583E0FEAD37E52D2DF8EEF6E53799
:100390007008A82DE6B4050276E505370FBF0BBE41
:1003A000AF37E52D2FF8E4F6D20B020265E53904EC
:1003B000252DF8E6F47032E544700CE5417008E54F
:1003C000427004E5436093E54130E70312375AE594
:1003D0004424FFF544E54334FFF543E54234FFF59B
:1003E00042E54134FFF5418007E53904252DF81633
:1003F0007420253FF53FE4353EF53E020180900232
:1004000019E0FCA3E0FDA3E0FEA3E02401FFE43E2D
:10041000FEE43DFDE43CFC9002191214291535025E
:10042000016DE53D700CE53A7008E53B7004E53C74
:10043000601D7F3AE4FD120EA3EF600122200B0F36
:1004400085363A85373B85383C85393D0200F2E4F4
:10045000FFE52D2FF8E6FE6013642A600FEE645C62
:100460006004EEB42F037FB3220F80E57F4222E5C4
:1004700040D394024003754002122A2EEF600122FD
:10048000900223E060030205787F0712373C8F3724
:10049000E53754F0FD7F071236BD90021DE0600481
:1004A0007DC080027D807F061236BDE4FD7F0E1286
:1004B00036BD7F0112340090021DE06034B4020C9E
:1004C0007F0312373CEF54F04402801190021DE08C
:1004D000B4030F7F0312373CEF540F4420FD7F031A
:1004E00080137F0212373CEF54F04402FD7F0280FC
:1004F000047D817F061236BD7F0112340012334D18
:10050000EF600612334DEF70057F19123400900230
:100510001DE06034B4020C7F0312373CEF54F0440A
:1005200001801190021DE0B4030F7F0312373CEFEE
:10053000540F4410FD7F0380137F0212373CEF54A9
:10054000F04401FD7F0280047D807F061236BD7D70
:10055000C07F061236BD7538327F051234007D1F0C
:100560007F091236BDAD377F071236BD122A2EEF36
:100570006054D538E47F82227F0A1234001236B4E8
:1005800012368A7D037F411236BD0D0F1236BD1221
:100590002C07E54A601012368A7D017F421236BD73
:1005A000122C0702072A1236C8E54A700C854982C8
:1005B000854883A3A3E030E4ED12368A7D147F42A0
:1005C0001236BD122C077F32123400E4FD7F081270
:1005D00036BD7C317DA3123649122C07E54A70B630
:1005E0007C317DAB7F0812364990021DE0FF600828
:1005F0002402FD7F421236BD900223E0600E90027D
:1006000022E0547F2410FD7F421236BD122C07E5F4
:100610004A70837F4212373CEFCD7F081236BD7F90
:100620000A1234007C317DB37F08123649122C0740
:10063000E54A600302072A854982854883A3A3E02F
:10064000FD7F461236BDE4FD0F1236BD122C07E5C4
:100650004A600302072AE5492405F582E43548F596
:1006600083E0F537E549240EF582E43548F583E06B
:10067000FD6408706AE549240FF582E43548F58386
:10068000E0B4060543452080035345DFE549240BCC
:10069000F582E43548F583E0900200F0E4F538AFE8
:1006A00038EF75F007A42549FFE5F03548CF24144D
:1006B000CF34008F82F583E0F539A3A3E064407066
:1006C0004DE53930E708540F4490F52B8008E539A3
:1006D000540F4410F52C0538E538B402C28034EDCF
:1006E0006409702A900223E070247C317DBB7F086E
:1006F000123649122C07E54A7030E4900222F08548
:100700004982854883A3A3E0900223F07005754ACF
:100710001F80177C317DC37F08123649AD377F4279
:100720001236BD122C07E54A6045900222E0603C7B
:1007300020E739854A37900223E0FF900222E0C388
:100740009F5021E004F0F538122A2E8F39E53970D8
:1007500003020578E539B48203AF3922900222E51D
:1007600038F080D285374AE4900222F0AF4A2290D6
:100770000223E06036900222E07030900222E00412
:10078000F012368A7D037F411236BD7D080F123686
:10079000BD122C07900223E0FF900222E0C39F408D
:1007A000DAE4F07FC8123400020479E54F540444BF
:1007B00008F54F7C317DCB122BF8E54A700B85494B
:1007C00082854883E0F5378012E54AB42E0AE4FFBB
:1007D000123437E4F5378003AF4A227F0212340027
:1007E000E4900218F07D247F1212346D122B248FB6
:1007F00039E5397023E5376018900218E0701285EA
:100800004982854883E0B405089002187401F0809D
:10081000D47D037F020235ADE537600E900218E00B
:10082000C394035005E004F080BB1232C722E518E0
:10083000240CF8E60518227809300702780CE475D4
:10084000F00112158F0215372000EB7F2ED20080A9
:1008500018EF540F2490D43440D4FF30040BEF240D
:10086000BFB41A0050032461FFE519600215190591
:100870001CE51C7002051B30070D7809E475F001BA
:1008800012158FEF02157D02351E7403D207800307
:10089000E4C207F5188B098A0A890BE4F519F51BE0
:1008A000F51CE51960077F2012086980F5751AFFAD
:1008B000C201C200C202C203C205C206C2081208B7
:1008C00037FF700D3007057F0012087AAF1CAE1B92
:1008D00022B4255FC2D5C204120837FF24D0B40A5F
:1008E00000501A75F00A781930D50508B6FF0106D0
:1008F000C6A426F620D5047002D20380D924CFB432
:100900001A00EF5004C2E5D204020A7AD20180C66E
:10091000D20080C0D20280BCD2D580BAD20580B4C9
:100920007F201208692002077401B5190040F112F6
:10093000082EFF1208690208A2D208D2068095127A
:10094000082EFB12082EFA12082EF94A4B7006796F
:100950004B7A0B7BFF20022EE519602A7E008E82E7
:1009600075830012155060060EEE651A70F0C2D540
:10097000EBC0E0EAC0E0E9C0E0EE120AC1D0E0F965
:10098000D0E0FAD0E0FB121537FF60AAEBC0E0EA36
:10099000C0E0E9C0E0120869D0E02401F9D0E034F9
:1009A00000FAD0E0FBE51A0460DCD51AD980877B19
:1009B000FF7A0A79BDD202809C791080027908C240
:1009C00006C2088008D2D5790A8004790AC2D5E522
:1009D0001A047002F51AE4FAFDFEFF12082EFC7BE1
:1009E0000820011312082EFD7B1030000A12082E79
:1009F000FE12082EFF7B20EC3382D592D55013C314
:100A0000E43000069FFFE49EFEE42001039DFDE428
:100A10009CFCE4CBF8C201EC700CCFCECDCCE8242A
:100A2000F8F870F38017C3EF33FFEE33FEED33FDBC
:100A3000EC33FCEB33FB994002FB0FD8E9EB3001C0
:100A400005F8D0E0C448B201C0E00AEC4D4E4F7842
:100A5000207B0070C2EAB51A0040BCC0E0120AC395
:100A6000D0F0D0E0200104C4C0E0C4B201C0F01254
:100A70000852D0F0D5F0EB0208A212159F093F539F
:100A800009B95809104C090C4209BD4F09C5440960
:100A9000C54909254309CB5509AF4609AF4509AFFB
:100AA000470B6B5009142D09182E093B2B091C23E9
:100AB0000939200B542A08D448000009333F3F3F2E
:100AC00000790AA2D5200314300509B910020404E4
:100AD000B9080104A2D52006025001042002689240
:100AE00002B519005034C0E07F203003197F30A2D6
:100AF0000272067205500F120B1AC202C206C2051C
:100B0000C2087F30800F300503E9C0E01208693069
:100B10000503D0E0F9D0E0B519CC3005177F30B926
:100B2000100C1208697F583004077F788003B908D9
:100B3000031208693002057F2D0208697F20200812
:100B4000F87F2B2006F322920280CF286E756C6C02
:100B50002900D20112082E3001F8C201781930D5CF
:100B60000108F60208D42D5043495812082E2403D8
:100B7000B405004001E4900B669312085A743A12CF
:100B8000085AD2037519040209B9E540C394035009
:100B90000A12046FEF600122122DF612370DE4F5F0
:100BA0002EE4F526F525F524F5231225A1EF600D99
:100BB00012338A122DF61225A1EF600122E52E7064
:100BC0000D854982854883E054FD64E96053E4FD66
:100BD000ED64406049E54924BEFFE5483401FEED7F
:100BE0007A002FFFEA3EF583EF2404F582E4358393
:100BF000F583E06023E54924BEFFE5483401FEEDBE
:100C00002FFFEA3ECF2408CF3400FE12367A8F261B
:100C10008E258D248C23800974102DFD80B27F9247
:100C200022AF26AE25AD24AC239002011214291266
:100C300025A1EF600122854982854883E054FD6447
:100C4000E960037FA122E549240DF582E43548F5EA
:100C500083E0F522F5479002097406F0E54720E6A7
:100C600011E54725E0F547900209E014F070ED75B5
:100C70002201E54924161236FE900207EEF0A3EF9A
:100C8000F04E702CE54924241236758F348E338D46
:100C9000328C31E4FBFA7901F8D31213CD5007E519
:100CA0002E60037FA222900207E533F0A3E534F023
:100CB000E5492414F582E43548F583E0FFE549244D
:100CC00013F582E43548F583E04F6012E5492413BB
:100CD0001236FEE48F3D8E3CF53BF53A800FE54938
:100CE00024201236758F3D8E3C8D3B8C3AE549248D
:100CF000111236FECCEECCCDEFCD900216E0FEA365
:100D0000E07805CEC313CE13D8F9147E002DFFEE84
:100D10003CFEE53024FBFDEFC8EDC8088005CEC3DE
:100D200013CE13D8F9FFE4FCFD90021E121429E53E
:100D300049240E1236FE8E3E8F3F900208E0253F7A
:100D4000FF900207E0353EFEE4FCFD90021EE0F855
:100D5000A3E0F9A3E0FAA3E02FF534EA3EF533ED82
:100D600039F532EC38F531E5492410F582E435489F
:100D7000F583E0D39401401E900207E0FEA3E0FF5C
:100D8000E5342FF534E5333EF533ED3532F532EC0D
:100D90003531F5318007E4900207F0A3F0C3E53D5B
:100DA0009534FFE53C9533FEE53B9532FDE53A95FC
:100DB00031FC900209E0F81213DE90020E121429A1
:100DC000E47BF57AFFF9F8D31213CD401FE49002CB
:100DD00005F0A3F0900210E0FEA3E094F5EE940F6E
:100DE00050057547018024754702801FE54924306E
:100DF0001236FE900205EEF0A3EFF0E549242C1226
:100E0000367590021E121429754703E53F453E6072
:100E10004E90021EE0FCA3E0FDA3E0FEA3E0FFEC89
:100E20004D4E4F603AE5492410F582E43548F5838C
:100E3000E0D39401400A900207E07002A3E0601F33
:100E4000E549240BF582E43548F583E07011E54966
:100E5000240CF582E43548F583E0C39402500AE59A
:100E60002E7006752E01020BA1E53F2526FFE53EFB
:100E70003525FEE43524FDE43523FC90020A1214E6
:100E800029E5342526FFE5333525FEE5323524FDF9
:100E9000E5313523FC9002121214297D107F0312D4
:100EA00035AD228D12EFC8E547B40207121404785D
:100EB000018008B4031212140478021213F18F1681
:100EC0008E158D148C13802B1214048E138F14EF37
:100ED00030E00543451080035345EFE513C313FE8F
:100EE000E514132514FFE5133EFEE48F168E15F569
:100EF00014F513900217E024FFFD900216E034FF72
:100F00005EFEED5F2549F52FEE3548F52EAF16AEA6
:100F100015AD14AC131235C990020AE0F8A3E0F93C
:100F2000A3E0FAA3E02FF516EA3EF515E93DF51426
:100F3000E83CF513E516652A7012E5156529700C75
:100F4000E51465287006E5136527601D3009071252
:100F50002FF8EF600122851323851424851525853C
:100F600016261225A1EF600122E5126023B4FF02CC
:100F70008006E512B4010BE4F516F515F514F5132A
:100F8000800C853116853215853314853413D209CA
:100F9000E5476402703F852F82852E83E0F536A3F6
:100FA000E0F537853639853738E4F536F537AE382C
:100FB000AF39C3EF94F7EE94FF4003D38001C3929F
:100FC0000BE512600D852F82852E83E513F0A3E5D6
:100FD00014F07F0022E5476403705A852F82852E26
:100FE00083E0FCA3E0FDA3E0FEA3E0F5398E388D9D
:100FF000378C36E53954F0FFE516540F4FF516E5FA
:1010000039540F853639F536AF388537388F37AFD5
:1010100036EFC3940F4003D38001C3920BE51260F7
:1010200011AF16AE15AD14AC13852F82852E831229
:1010300014297F002253140F900217E02549FF90D6
:101040000216E03548CF24FFCF34FFFEEF652F7046
:1010500003EE652E6056852F82852E83E0F536855A
:101060002F82852E83A3E0F537E512700302112B42
:10107000E54530E423E513C454F0FFE536540F4F43
:10108000852F82852E83F0E514C454F0FFE513C448
:10109000540F4FA3F002112B852F82852E83E51369
:1010A000F0E53754F04514A3F002112B852F82850B
:1010B0002E83E0F536E5126024E54530E40EE513B5
:1010C000C454F0FFE536540F4FFF8002AF13852F55
:1010D00082852E83EFF0122FF8EF600122E52A249B
:1010E00001F526E43529F525E43528F524E43527EE
:1010F000F5231225A1EF600122854982854883E00E
:10110000F537E5126025E54530E40FE514C454F0E9
:10111000FFE513C4540F4FFF8007E53754F0451423
:10112000FF854982854883EFF0D209E54530E41315
:10113000E537C454F0FFE536C4540F4FF539E537B1
:10114000C48005853639E537540FF538E4F536F5B2
:1011500037AE38AF39C3EF94F7EE940F4003D38026
:1011600001C3920B7F00221200038F35E535700A10
:10117000122CCBEF70030212DA22E53564426003D1
:10118000AF3522900217E024E0FF900216E034FF12
:10119000FEC3E53F9FE53E9E50030212DAE53D7037
:1011A0000FE53A700BE53B7007E53C7003021268EF
:1011B000900215E0FF90021CE0C39FFFE52214FEA1
:1011C0005FF535E53F6008EE653560030212DA7FB2
:1011D0003AE4FD120EA3EF600122200B030212DAA3
:1011E000123619EF6001227F3A7D02120EA3EF60E2
:1011F0000122122FF8EF60012212370DE4FFFE905A
:101200000216E06EFCA3E06F4C6013E5492FF582F7
:10121000E5483EF583E4F00FBF00010E80E1E4F500
:10122000351231EBE53F7012F53EF53FAF26AE25A6
:10123000AD24AC23900219121429852236E53660BC
:1012400020122454EF600122E5262401F526E4351E
:1012500025F525E43524F524E43523F523153680DA
:10126000DC122EFEEF607322E53F706E900219E0F3
:10127000FCA3E0FDA3E0FEA3E024FFFFEE34FFFEAD
:10128000ED34FFFDEC34FFFC9002191214291225F5
:101290008FEF600122E4F53EF53FD3900217E09511
:1012A0003F900216E0953E402EE549253FFFE54878
:1012B000353E8F82F583E0B4E510E582240BF5829C
:1012C000E43583F583E0540E60107420253FF53F2C
:1012D000E4353EF53E80C37FB222123619EF60013D
:1012E00022122FF8EF6001227F0612373CEF54BF25
:1012F000648060037F112285343D85333C85323B19
:1013000085313A122EFEEF60012212258FEF600127
:1013100022E549253FFFE548353EFEE4FDEDC39457
:101320000B50047C2080027C00EF2DF582E43EF51A
:1013300083ECF00DBD20E6EF2418F582E43EF58342
:101340007421F0A37430F0EF241CF582E43EF583A1
:101350007401F0E4FDEDC3940B5021A82DE6FC6070
:101360001BECB42E047D08052DA82DE6FCEF2DF511
:1013700082E43EF583ECF00D052D80D9853D368560
:101380003C37853B38853A39EF241AF582E43EF53F
:1013900083E536F0A3E537F0EF2414F582E43E123E
:1013A000244BEF600122853D34853C33853B3285FB
:1013B0003A31E4F544F543F542F541F54EF54DF586
:1013C0004CF54BF5357D147F101235AD22EB9FF5B2
:1013D000F0EA9E42F0E99D42F0E89C45F022E86088
:1013E0000FECC313FCED13FDEE13FEEF13FFD8F16A
:1013F00022E8600FEFC333FFEE33FEED33FDEC3335
:10140000FCD8F122E6FC08E6FD08E6FE08E6FF222D
:10141000E6FB08E6F908E6FA08E6CBF822ECF6085F
:10142000EDF608EEF608EFF622ECF0A3EDF0A3EEF1
:10143000F0A3EFF022D083D082E493F608740193F6
:10144000F608740293F608740393F6740473E709BC
:10145000F60870FA8046E709F20870FA803E888242
:101460008C83E709F0A370FA807EE309F60870FA2E
:101470008076E309F20870FA806E88828C83E30933
:10148000F0A370FA806289828A83E0A3F60870FA7A
:10149000805689828A83E0A3F20870FA804A80D25B
:1014A00080FA80C680D4806580F28031801080A66A
:1014B00080EA809A80A880DA80E280CA80318982BE
:1014C0008A83ECFAE493A3C8C582C8CCC583CCF068
:1014D000A3C8C582C8CCC583CC70E9800D89828A37
:1014E00083E493A3F60870F9ECFAA9F0EDFB2289E6
:1014F000828A83ECFAE0A3C8C582C8CCC583CCF04D
:10150000A3C8C582C8CCC583CC70EA80DD89828A35
:1015100083E493A3F20870F980CE88F0ED2402B43E
:10152000040050C4F582EB2402B4040050BA232313
:1015300045822390149E73BB010689828A83E02230
:101540005002E722BBFE02E32289828A83E49322CF
:10155000BB010CE58229F582E5833AF583E0225050
:1015600006E92582F8E622BBFE06E92582F8E2229A
:10157000E58229F582E5833AF583E49322BB0106EF
:1015800089828A83F0225002F722BBFE01F322FAFD
:10159000E6FB0808E6F925F0F618E6CA3AF622D086
:1015A00083D082F8E4937012740193700DA3A39317
:1015B000F8740193F5828883E4737402936860EF92
:1015C000A3A3A380DFE540D394145007E540C39460
:1015D0001250037FB4227850E6FF08F67006300AF6
:1015E00003023235E47850F67852F608F67851E680
:1015F000700302172DE535F4704AE53D700CE53AAD
:101600007008E53B7004E53C602DE540B41209E547
:1016100047640360037FB122AF34AE33AD32AC31E7
:10162000785A12141D123625EF6001227F5A7D026E
:10163000120EA3EF600822122F7DEF600122785373
:1016400016E4F5351231EB7852E66069E530B409FD
:10165000047F408014E530B40A047F20800BE5301D
:10166000B40B047F1080027F08EF3395E0FE7852C0
:10167000E6C39FEE6480F8748098502E7852E6FF9F
:10168000E4FCFDFE7854121410EF2BFFEE3AFEED51
:1016900039FDEC38FCEF6526FFEE6525FEED65248F
:1016A000FDEC6523FC4D4E4F600B1217A4EF60015B
:1016B00022E47852F67852E6700DAF26AE25AD24BE
:1016C000AC23785412141DC3E5229535FF7851E6FA
:1016D000FEEFD39E400CE60826F618E62535F535D4
:1016E000804B7852EF26F6C318E69FF6E67018781E
:1016F00059E66549700418E66548700B1217A4EFA7
:10170000600122E47852F67F31E4FD120EA3EF600F
:101710000122300B067535FF0215ED853631853710
:1017200032853833853934E4F5350215ED30090753
:10173000122FF8EF6001227852E660071217A4EF2B
:101740006001227853E66035AF34AE33AD32AC3150
:10175000785A12141D7853E6FFE4EFF53474FFF560
:1017600033F532F531122F08CBEFCB785A1214042F
:101770008F348E338D328C31EB6002FF22AF4EAE50
:101780004DAD4CAC4BAB44AA43A942A841C3121384
:10179000CD500E854E44854D43854C42854B41D2FC
:1017A0000A7F0022E4F5467F547852E6FD7B2A1238
:1017B0003066E54A602DE530B409047F088014E501
:1017C00030B40A047F10800BE530B40B047F208016
:1017D000027F407852E6FEEF8EF0A485F036F537B2
:1017E0000219457DC87F061236BDE54F30E6047FFD
:1017F0004080027F807858E6FC08E6FD1234CA7803
:1018000058EEF608EFF67D407F0B1236BD634F4071
:10181000AD4F7F0E1236BDC20BE530B409047F0810
:101820008014E530B40A047F10800BE530B40B045B
:101830007F2080027F407852E6FEEF8EF0A485F094
:1018400036F537E537B40104E536601CE54F30E680
:10185000047F4080027F807858E6FC08E6FD123461
:10186000CA7858EEF608EFF6122816E54A601B7D96
:10187000C07F061236BDE54A642E6003021945E5B5
:10188000466003021945AF2C805B634F40E537B4D7
:101890000104E5366007AD4F7F0E1236BDE53760B7
:1018A0000D1537AF37EF709BE5366008809515361C
:1018B0001537808F7DC07F061236BD90BDF1740D47
:1018C000F090BCF0E52BF0E54FF0D20B634F8012A7
:1018D0002816E54A6017634F80E54A642E7066E576
:1018E000467062AF2B12343775460180CE7F0B12E3
:1018F000373CEF640D704E7FCC12373CEF703C7874
:1019000052E6785026F67852E6FEE53024F8FDE4FB
:10191000C8EDC8088005C333CE33CED8F9FFE4FC48
:10192000FDE54E2FF54EE54D3EF54DED354CF54CB4
:10193000EC354BF54B12374E7F00227FCC12373CF3
:10194000EF6401600BE54AB416037F822212338AEA
:10195000E546C3940550121233C5E546C3940340CF
:10196000031232C705460217A7754A1F1235EC123B
:1019700032C722E540641560071234F6EF60012299
:101980007850E6F52D7006300A03023235E47850BF
:10199000F6E52D7003021B22E535F47077E53D7006
:1019A0000CE53A7008E53B7004E53C602585344E53
:1019B00085334D85324C85314B123625EF6001223F
:1019C0007F4B7D02120EA3EF600122122FF8EF6011
:1019D0000822122F7DEF60012285344E85334D851C
:1019E000324C85314B74FFF534F533F532F5311255
:1019F0002F08CBEFCB854E34854D33854C32854B4C
:101A000031EB60012285444E85434D85424C854132
:101A10004BE4F5351231EB1225A1EF600122900263
:101A200016E0FCA3E0FD24FFFBEC34FF554DFEEB7C
:101A3000554EFFC3ED9FFFEC9EFEC3EF952DEE9438
:101A4000004005852D368006E54EF404F5369002FB
:101A500017E024FFFD900216E034FF554DFEED55D2
:101A60004E2549F52FEE3548F52EAF36E4FCFDFE48
:101A7000E54E2FF54EEE354DF54DED354CF54CEC74
:101A8000354BF54BC3E52D9536F52D7850E62451B1
:101A9000FFE53626F6C8EFC8E6852F82852E83F04F
:101AA000052FE52F7002052E0FD536E9122454EFCD
:101AB000600122AF4EAE4DAD4CAC4BAB44AA43A936
:101AC00042A841C31213CD500E854E44854D438527
:101AD0004C42854B41D20A900217E024FFFD900250
:101AE00016E034FF554DFEED554E4E600302199140
:101AF0000535E535C3952250030219917F31E4FD88
:101B0000120EA3EF600122300B067535FF0219910A
:101B1000853631853732853833853934E4F53502F9
:101B200019917F00224572726F723A202530325827
:101B30000A002E202020202020202020201000001D
:101B40000000000000000000000021300000000044
:101B500000002E2E202020202020202020100000F9
:101B60000000000000000000000021300000000024
:101B700000000053746172740A0057616974205543
:101B80006469736B0A005265616479203F0A0044FE
:101B9000657669636520676F6E650A00556E6B6ECA
:101BA0006F776E206465766963650A00546F6F20F5
:101BB0006C6172676520736563746F722073697AF4
:101BC000650A00437265617465204C6576656C201A
:101BD00031204469726563746F7279202F594541D1
:101BE0005232303034200A002F59454152323030C1
:101BF0003400437265617465204E65772046696CD8
:101C000065202F59454152323030342F44454D4FD5
:101C1000323030342E545854200A002F5945415246
:101C2000323030342F44454D4F323030342E5458FA
:101C30005400577269746520736F6D652064617418
:101C40006120746F2066696C652044454D4F3230C9
:101C500030342E545854200A00D1DDCABECAFDBE0D
:101C6000DD0D0A00436C6F73652066696C65204466
:101C7000454D4F323030342E545854200A004372B0
:101C800065617465204C6576656C2032204469720C
:101C90006563746F7279202F594541523230303468
:101CA0002F4D4F4E54483035200A002F5945415290
:101CB000323030342F4D4F4E5448303500436C6F26
:101CC00073650A0054616B65206F75740A00E4F552
:101CD00034F533F532F53190020EE0FCA3E0FDA3BC
:101CE000E0FEA3E0FFAB34AA33A932A831D312132C
:101CF000CD40037FB122E5342401F534E43533F5DA
:101D000033E43532F532E43531F5317F31E4FD121B
:101D10000EA3EF600122E539700FE536700BE53751
:101D20007007E5387003021E59E547640160A88515
:101D3000482E85492FE54764027051900216E0C392
:101D400013FEA3E01324FFFFEE34FFF5368F37F5C3
:101D5000388F397402252FF52FF582E4352EF52EB4
:101D6000F583E07011A3E0700D852F82852E8374BA
:101D7000FFF0A3021DE1E5376009D537D6E53660EF
:101D80000880D01536153780CA021E40900216E032
:101D9000FEA3E07802CEC313CE13D8F924FFFFEEE2
:101DA00034FFF5368F37F5388F397404252FF52F2A
:101DB000F582E4352EF52EF583E06003021E25A39F
:101DC000E06003021E25A3E0705BA3E0540F705592
:101DD000852F82852E8374FFF0A3F0A3F0A3E04447
:101DE0000FF0AE38AF39EF4534FFEE4533FEE53244
:101DF000FDE531FCEEC0E0EFC0E0E53724FFFFE594
:101E00003634FFCBEFCBFAD0E0FFD0E0FEC3EF9B40
:101E1000F534EE9AF533ED9400F532EC9400F5319B
:101E2000D2097F0022E53760101537E537600302DD
:101E30001DAAE536600A021DAA15361537021DAA2D
:101E4000AE38AF39E5344FF534E5334EF533E5328E
:101E5000F532E531F531021CD77F317DFF120EA33B
:101E600022E4F5467F547852E6FD7B28123066E581
:101E70004A602DE530B409047F088014E530B40AC7
:101E8000047F10800BE530B40B047F2080027F407C
:101E90007852E6FEEF8EF0A485F036F537021FC3C8
:101EA00090BDF17406F090BCF074CCF090BDF1746C
:101EB0000DF090BCF0E52BF0E54FF0D20B634F40F6
:101EC000E530B409047F088014E530B40A047F10BB
:101ED000800BE530B40B047F2080027F407852E60F
:101EE000FEEF8EF0A485F036F537122816E54A602D
:101EF000097DC07F061236BD805D634F80E537B433
:101F00000104E5366007AD4F7F0E1236BDE54F3058
:101F1000E7047FC080027F807858E6FC08E6FD1267
:101F2000349E7858EEF608EFF6E5376009D537BAF3
:101F3000E536600880B41536153780AE7DC07F0663
:101F40001236BDAD4F7F0E1236BD634F801228167C
:101F5000E54A601A634F80E54A642E7066E5467074
:101F600062AF2B1234377546011236DB80DC7F0BF3
:101F700012373CEF640D704B7FCC12373CEF703959
:101F80007852E6785026F67852E6FEE53024F8FDE1
:101F9000E4C8EDC8088005C333CE33CED8F9FFE4DA
:101FA000FCFDE54E2FF54EE54D3EF54DED354CF57E
:101FB0004CEC354BF54B7F00227FCC12373CEF6465
:101FC00001600BE54AB416037F822212338AE5468C
:101FD000C3940550121233C5E546C394034003125F
:101FE00032C70546021E64754A1F1235EC1232C70D
:101FF000227509FFE4FB74502BF8E6601774502B30
:10200000F8E6645C600874502BF8E6B42F028B0984
:102010000BBB1EE2E4FBE5096009B402117851E64E
:10202000B43A0BE4F50DF50CF50BF50A8030E50933
:10203000F4601F74502509F8E4F6120003AB07EBB7
:1020400070047BB38005BB4102E4FB74502509F8A2
:10205000765C853D0D853C0C853B0B853A0AEB6033
:102060000302217C120003AB07EB70057B430221C6
:102070007CBB4105E4FB02217CEB6442600302214E
:102080007C121167AB07EB600302217C750E0875AB
:102090000F0075101B7511327B40851182851083EE
:1020A000E493850F82850E83F0050FE50F7002051E
:1020B0000E0511E51170020510DBDF783DE6900892
:1020C0001AF018E6A3F018E6900814F018E6A3F04A
:1020D000780DE690083AF018E6A3F018E690083478
:1020E000F018E6A3F0900217E024C0FF900216E07B
:1020F00034FFFEEF4E6017850F82850E83E4F005F6
:102100000FE50F7002050EEF1F70011E80E578507D
:102110007601785876080876001215C5AB07EB7083
:102120005B750E08750F007B40850F82850E83E47A
:10213000F0050FE50F7002050EDBEE750901E509EC
:102140006522601778507601785876080876001274
:1021500015C5AB07EB7004050980E3E509B5221C42
:1021600078501214350000000074FF7854F608F619
:1021700008F608F6087610122936AB07AF0322D20C
:1021800094C2947F64123400D2941236ED7BFF7AAD
:102190001B79731208901235898F081235457BFF21
:1021A0007A1B797A1208907F32123400122A2EEFAD
:1021B00070F5C2947FC8123400E4F5087F321234FF
:1021C000007BFF7A1B798612089012330DEF6009AD
:1021D0000508E508C3940540E3E540C394025008B0
:1021E0007BFF7A1B798F8024E540C3940350087BE2
:1021F000FF7A1B799C8015D3900217E0940090021F
:1022000016E09402400B7BFF7A1B79AC1208908099
:102210008DC2957BFF7A1B79C312089078507C00A1
:102220007D007BFF7A1B79E812151AC296121FF106
:102230008F081235457BFF7A1B79F212089078508F
:102240007C007D007BFF7A1C791B12151A12116726
:102250008F081235457BFF7A1C793212089078512D
:102260007C007D007BFF7A1C795912151A7B007A5D
:1022700000795112369F7850A6071219738F0812F1
:1022800035457BFF7A1C79641208907850760112EC
:102290002E7E8F081235457BFF7A1C797E120890BE
:1022A00078507C007D007BFF7A1C79AB12151A12E6
:1022B0001FF18F081235457BFF7A1C79BD120890FB
:1022C000E47850F6122E7E8F08D296D2957BFF7A54
:1022D0001C79C41208907F0A123400122A2EEF6073
:1022E000F5D2947FC812340002219EE540D39414A5
:1022F0005007E540C3941250037FB4227850E6089B
:10230000F6E418F67852F6C3E544954EFFE543959A
:102310004DFEE542954CFDE541954BFC1235C98FCC
:10232000398E388D378C36E5377004E5386006789D
:102330005376FF80047853A6397851E6700302245F
:10234000407853E67003022440E535F4700302241C
:10235000401231EB7852E66069E530B409047F4001
:102360008014E530B40A047F20800BE530B40B0400
:102370007F1080027F08EF3395E0FE7852E6C39F1E
:10238000EE6480F8748098502E7852E6FFE4FCFDED
:10239000FE7854121410EF2BFFEE3AFEED39FDECEF
:1023A00038FCEF6526FFEE6525FEED6524FDEC6546
:1023B00023FC4D4E4F600B121E61EF600122E4784A
:1023C00052F67852E6700DAF26AE25AD24AC2378D8
:1023D0005412141DC3E5229535FFF5367853E6FEF9
:1023E000EFD39E4003E6F536E536D3785196400CA0
:1023F000E60826F618E62535F5358049C37851E616
:102400009536F608E53626F6C308E69536F6E5363F
:102410002535F535652260030223397F31FD120E23
:10242000A3EF600122300B067535FF022339853694
:1024300031853732853833853934E4F5350223392F
:102440007852E66003021E617F0022F583E538F0D2
:10245000A3E539F0E4F5467F237B2A7D011230663F
:10246000E54A60030225677DC87F061236BDE54F49
:1024700030E6047F4080027F80AC48AD498C278DD8
:10248000281234CA8E278F287D407F0B1236BD63F9
:102490004F40AD4F7F0E1236BDE530B409047F08C2
:1024A0008010B40A047F108009B40B047F208002DE
:1024B0007F408F37E53764016016E54F30E6047FD3
:1024C0004080027F80AD28AC271234CA8E278F2827
:1024D000122816E54A60187DC07F061236BDE54A0F
:1024E000642E6003022567E546707CAF2C80506344
:1024F0004F40E53764016007AD4F7F0E1236BDD502
:1025000037B27DC07F061236BD90BDF1740DF090DC
:10251000BCF0E52BF0E54FF0D20B8523278524286E
:1025200085252985262A634F80122816E54A6017DB
:10253000634F80E54A642E702EE546702AAF2B1259
:10254000343775460180C27F0B12373CBF0D187FB0
:10255000CC12373CEF700612374E7F00227FCC1230
:10256000373CEF6401600BE54AB416037F82221208
:10257000338AE546C39405500FE546C394034003F0
:102580001232C705460224571235E61232C722908E
:102590000219E0F523A3E0F524A3E0F525A3E0F577
:1025A00026E526652A7015E5256529700FE5246561
:1025B000287009E523652770030226CAE4F5467FE3
:1025C000237B287D01123066E54A60030226A39032
:1025D000BDF17406F090BCF074CCF090BDF1740DB8
:1025E000F090BCF0E52BF0E54FF0D20B634F408547
:1025F0004827854928E530B409047F088010B40ACB
:10260000047F108009B40B047F2080027F408F3745
:10261000122816E54A60097DC07F061236BD80503B
:10262000634F80E53764016007AD4F7F0E1236BD02
:10263000E54F30E7047FC080027F80AD28AC2712D1
:10264000349E8E278F28D537C77DC07F061236BDB2
:10265000AD4F7F0E1236BD85232785242885252979
:1026600085262A634F80122816E54A601A634F8038
:10267000E54A642E702DE5467029AF2B123437756C
:1026800046011236DB80D07F0B12373CBF0D147F22
:10269000CC12373CEF7002FF227FCC12373CEF6444
:1026A00001600BE54AB416037F822212338AE546A5
:1026B000C39405500FE546C3940340031232C70587
:1026C000460225BF1235E60232C77F0022E540648C
:1026D0001560071234F6EF6001227850E6F52DE41C
:1026E000F6E52D7003022802900216E0FCA3E0FD3F
:1026F00024FFFBEC34FF554DFEEB554EFFC3ED9F21
:10270000FFEC9EFEC3EF952DEE94004005852D361F
:102710008006E54EF404F536AF36EF254EFFE4357E
:102720004DFEE4354CFDE4354BFCAB44AA43A942D5
:10273000A841D31213CD500CC3E544954EF5367025
:10274000030228021231EB1225A1EF600122900250
:1027500017E024FFFD900216E034FF554DFEED55C5
:102760004E2549F52FEE3548F52EAF36E4FCFDFE3B
:10277000E54E2FF54EEE354DF54DED354CF54CEC67
:10278000354BF54BC3E52D9536F52D7850E62451A4
:10279000FFE53626F6852F82852E83E0C8EFC8F642
:1027A0000F052FE52F7002052ED536E9900217E0B0
:1027B00024FFFD900216E034FF554DFEED554E4EC0
:1027C00060030226E10535E535C395225003022654
:1027D000E17F31E4FD120EA3EF600122300B117591
:1027E00035FF854E44854D43854C42854B418012D3
:1027F000853631853732853833853934E4F535020D
:1028000026E17F002290BDF1740DF090BCF0E52C24
:10281000F0E54FF0C20BE4F539E4F54A1237539076
:10282000BDF17409F0E030E06B90BCF07411F0E0A1
:10283000FF300B0E5407B40313EF30E436E4F54ACF
:10284000FF22540FB40205E4F54AFF22EF540FFEB5
:10285000BE0A05E54520E729EF54037003D3800144
:10286000C34007EE4420FFF54A227F0912373CEFB0
:1028700020E121E545540FFF0539AE39EED39F50D5
:102880000D7F0E12373CEF4408FD7F0E8027754AFE
:10289000207F2022754AFF7F0412373CD54AF87FFB
:1028A0000912373C8F39E53930E17312334DBF09D6
:1028B0000A7D027F091236BD022819754001E49095
:1028C0000223F07D137F091236BD90021DE06004E3
:1028D0007DC080027D807F061236BD12334DEF60D1
:1028E0003775400290021DE0D394015007E539543A
:1028F00080FF80157F0212373C90021DE0B4030474
:102900007E2080027E10EF5EFFEF6006754A157F25
:102910001522754A137F1322754A167F16227D1FD2
:102920007F091236BDE53930E306754A067F062277
:10293000754A057F0522E540C3941350037FB422F6
:1029400012258FEF600122C209E549253FFFE548C6
:10295000353ECBEFCBFA7858E6FFEB240BF582E45B
:102960003AF583E0F6EFF460138B828A83E58224E4
:102970000BF582E43583F583EFF0D2097856E6F55E
:102980003908E6F538EB2416FFE43AFE123703184F
:10299000EEF608EFF6E538F4FEE539F44E6012EB9A
:1029A0002416F582E43AF583E538F0A3E539F0D250
:1029B000097854E6F53908E6F538EB2418FFE43ACF
:1029C000FE12370318EEF608EFF6E538F4FEE539A7
:1029D000F44E6012EB2418F582E43AF583E538F002
:1029E000A3E539F0D2097850121404785C12141D52
:1029F000EB241CFFE43AFE12367A785012141D784C
:102A00005CE6F4601E1214048F448E438D428C41A8
:102A1000123747EB241CF582E43AF583121429D2CD
:102A200009C20A300905C2090224547F00227F0628
:102A300012373CEF54404480FD7F061236BD7F09BB
:102A400012373CEF30E11212334DEF64096003128C
:102A500035677D137F091236BD12334DEF700302C7
:102A60002B20E540C394025008754002E4900223F5
:102A7000F0900223E07002FF221236B4900222E0AE
:102A800060491236C8E54A702E854982854883A37D
:102A9000A3E030E00975400212368A122C078549FE
:102AA00082854883E030E01E900222E02410FD7F02
:102AB000081236BD7F0022E54A64166063E54A309D
:102AC000E5045403605A754002804D900222E004F0
:102AD000F01236C8E54A7024854982854883A3A34D
:102AE000E030E00612368A122C0785498285488339
:102AF000E030E017A3E020E1127F0022E54A6416EF
:102B0000601EE54A30E50454036015900223E0FF9F
:102B1000900222E0C39F40B3E4900222F07F84221F
:102B200012356722E4900225F0A3F0A3F09002187A
:102B3000E0900229F0E4F5387C317D967F0412366E
:102B4000497A027B247D117F4812365F7D1F7F0BFF
:102B50001236BD122805E54AB416037F8222E54AE3
:102B6000600FE5386003022BE912338A7538018063
:102B7000C7634F40900224E060491236DB122816EA
:102B8000E54A600DE54A642E705FAF2B1234378042
:102B900032634F807F0B12373C8F397F4F12373CA7
:102BA000BF030A7F5312373CEF6412600E12370DD9
:102BB000AB49AA48AD397FC0123600900224E0C369
:102BC0009539F01236DB122816E54A701C634F80E7
:102BD0007FCC12373C8F397F0B12373CBF0D07E596
:102BE00039C394024006754A1F02338AE5397002E0
:102BF000FF22754A1F7F1F227F081236499002006C
:102C0000E0FD7F441236BD7F011234007D087F0B4A
:102C10001236BD7DD07F0D1236BD7D0C0F1236BD34
:102C2000C20B122816E54A6003AF4A22D20B7F4638
:102C300012373CEF606C12370D7F011234007D902B
:102C40007F0D1236BD0F12373CEF6480440CFD7FC0
:102C50000E1236BD122816E54A6003AF4A227F0BDA
:102C600012373C8F4A7F4712373C8F39AF39EF25F7
:102C700049FBE43548FAAD4A7FC0123600E54A25E3
:102C800039F539AD397F471236BD1F12373CE5396A
:102C9000C39F500CE54A5407609F754A177F17225F
:102CA000C20B7F01123400E4FD7F0B1236BD300BE6
:102CB000047F0980027F01EFC454F0FD7F0D1236BE
:102CC000BD7DCC0F1236BD12281622E540C39413E9
:102CD0005007120003EF6001221235A9EF600122B4
:102CE00012258FEF600122E549253FFFE548353E7B
:102CF0008F82F58374E5F0122454EF600122AF3D1A
:102D0000AE3CAD3BAC3A8F398E388D378C36EC4DBE
:102D10004E4F604EE53D24FFF53DE53C34FFF53C6C
:102D2000E53B34FFF53BE53A34FFF53AE4F534F59D
:102D300033F532F5317F367D01120EA3EF600122AB
:102D4000E5342401F534E43533F533E43532F53236
:102D5000E43531F531300BDD122FF8EF600122023E
:102D60002F087F0022E53D700CE53A7008E53B70C6
:102D700004E53C6072853D34853C33853B32853AC1
:102D800031AF22E4FCFDFE7850121410C31213CDB3
:102D900040387F31E4FD120EA3EF600122200B4783
:102DA0008536318537328538338539347850121479
:102DB00004AB22C3EF9BFFEE9400FEED9400FDEC0C
:102DC0009400FC785012141D80B77853E6FFE5227A
:102DD000145FF5351231EBAF26AE25AD24AC237868
:102DE0005012141D7F00227535FF7850121435FFE4
:102DF000FFFFFF7F00227537647D087F2512346D49
:102E000090022A740AF0E490022FF0122B248F36DD
:102E1000E5367044E5492406F582E43548F583E05B
:102E2000FFB4040575300A8013B4080575300B80B3
:102E30000BB4100575300C800375300974017E00E9
:102E4000A830088005C333CE33CED8F9900217F0EE
:102E5000EE900216F07F0022E5366416601DE5361E
:102E600064156017E536641360111236327F321232
:102E700034001537E5376003022DF9AF3622E540FF
:102E8000C3941250037FB422E5406412704FE547AB
:102E900064036049900221E0F522AE43E544A83086
:102EA000088005CEC313CE13D8F9FFE4FCFD9002D1
:102EB0001E121429900212E0F8A3E0F9A3E0FAA38D
:102EC000E0FB900221E0FFE4FCFDFEEB2FFFEE3A79
:102ED000FEED39FDEC38FC900212121429E540D3C6
:102EE0009413400AE540B414077850E67002C20A11
:102EF000300A07123235EF6001221235A92274FF21
:102F0000F534F533F532F531900205E0FCA3E0FD30
:102F10004C7002FF22EDCFECCEE4FCFD900201E00C
:102F2000F8A3E0F9A3E0FAA3E02FF526EA3EF525A1
:102F3000ED39F524EC38F5231225A1EF600122E5E7
:102F40004924E8FFE5483401FE12367AE5342FF5CE
:102F500034E5333EF533E5323DF532E5313CF531CC
:102F6000AF34AE33AD32FC123747E54924E8F58281
:102F7000E5483401F58312142912245422121CD777
:102F8000EF600564B1600122EF6007121CCEEF60B4
:102F90000122122FF8EF60012285343D85333C85F4
:102FA000323B85313A12258FEF600122E549253FFA
:102FB000FFE548353EFEF583EF241CF582E43583BA
:102FC000F5837401F0853D36853C37853B38853A7D
:102FD000398F828E83E582241AF582E43583F58366
:102FE000E536F0A3E537F08F828E83E5822414F571
:102FF00082E4358312244B228527238528248529C2
:1030000025852A26122454EF600122900207E0FE53
:10301000A3E0FF4E604BE4FCFDE5262FF526E525F9
:103020003EF525ED3524F524EC3523F52312245403
:10303000EF600122900207E0FEA3E0FBCAEECAC3E4
:10304000E5269BF526E5259AF525E5249400F5244B
:10305000E5239400F523F527852428852529852651
:103060002AC2097F002290BDF17440F090BCF07438
:1030700055F07453F07442F004F090BDF17448F0D0
:10308000E490BCF0F0E53024F8F8ED088002C3339A
:10309000D8FCF0E4F0F0BB2A03FE80027E80EEF064
:1030A000900218E090BCF0F0740AF0EBF0E4F0EF5E
:1030B000C8E6F008E6F008E6F008E6F0E4F0F0ED27
:1030C000F0E4F090BDF1740BF090BCF0741FF002CE
:1030D0002805E4F5407D557F801236BD7DAA0F128C
:1030E00036BD1F12373CBF550A7F8112373CEF6453
:1030F000AA60037F8122E4FD7F061236BD7F0E1297
:1031000036BD754585E4F5469002167402F0A3E4D9
:10311000F090021DF0F54F7D1F7F091236BD7F072D
:1031200012373CEF54F04403FD7F071236BD7D405B
:103130007F051236BD1235677F0022E540C3941229
:1031400050037FB422AF44AE43AD42AC411235C907
:103150008F398E388D378C367850121410D3121365
:10316000CD400DAF39AE38AD37AC36785012141DA6
:103170007850121404E53024F8F9F81213F18F395D
:103180008E388D378C3685374B85384C85394DE4F4
:10319000F54E122D6522555342430021FF000000D9
:1031A000000000800600010000120000050200007F
:1031B0000000008006000200000400A006002900B4
:1031C0000009000009000000000000A1FE0000004E
:1031D0000001000201000000000000A30000000147
:1031E0000004002301100001000000E53424FEFF6C
:1031F000E53334FFFEE53234FFFDE53134FFFC906A
:103200000209E0F81213F1900212E0F8A3E0F9A32A
:10321000E0FAA3E02FFBEA3EFAE93DF9E83CF8E4E6
:10322000FCFDFEEB2535F526EE3AF525ED39F524C6
:10323000EC38F52322C20AE540C39414403E12251F
:103240008FEF600122E549253FFFE548353ECBEF92
:10325000CBFAF583EB240BF582E43583F583E0208C
:10326000E41AAF44AE43AD42AC41123747EB241CE5
:10327000F582E43AF5831214290224547F0022E5F2
:1032800040641560071234F6EF6001227850121482
:10329000048F4E8E4D8D4C8C4BAB44AA43A942A853
:1032A00041C31213CD500C85444E85434D85424C8D
:1032B00085414BAF4EAE4DAD4CAC4B1235C978503D
:1032C00012141D122D65227F021234007D117F0918
:1032D0001236BD12334DEF600BE54A64166005E50A
:1032E00040B40103023567E540C394034015854AA5
:1032F000377D127F0312346D122B2485374A7F02EB
:10330000123400E54A70037F1022AF4A22122A2E9F
:10331000EF600122E540C39403501B12046FEF607D
:103320000C7F3212340012046FEF600122122DF66E
:10333000EF60030232C7E4FDFF12346D122B248FBD
:1033400036E5367002FF22123632AF362290021D69
:10335000E0FEB401047F028006EEB4020A7F03128D
:10336000373CEF5409FF2290021DE0B4030D7F03A8
:1033700012373CEF5490C4540FFF22E490021DF02A
:103380007F0912373CEF5420FF22854A387F021212
:103390003400122A2E8F4AE54A6003AF4A227C315C
:1033A0007D9B122BF8E54AB416037F8222E54A7012
:1033B0000AAF2B123437AF2C1234377F021234008D
:1033C000AF388F4A227852E67E00A830088005C3C5
:1033D00033CE33CED8F9FDCCEECCE537AE36780619
:1033E000C333CE33CED8F9FFC3ED9FFFEC9EFEC3AF
:1033F000E49FFFE49EFE7859EF26F618EE36F6229B
:10340000CEEFCE7F0612373CEFF4602AEF30E7268E
:103410008E397F0412373CEF20E5F7AF391539EFCD
:1034200060147F0412373CEF30E5F77F0412373C1D
:10343000EF30E5E780F5228F397C317DD37F0812AC
:103440003649E539C4540FFFBF090DE539540F441F
:1034500080F539534F7F800FE539C4540FFFBF010A
:103460000653390F534FBFAD39122C02229002245C
:10347000EDF060047E8080027E00900228EEF090E5
:10348000022A7406F0A3EFF0E4A3F0A3F0A3F0A3E4
:10349000EDF0E4A3F0A3F0A3F0A3F0A3F02290BD1D
:1034A000F1EFF0ECFEEDFF7D1090BCF0E0FCE0FBF6
:1034B000E0FAE08E838F82CCF0A3EBF0A3EAF0A3D6
:1034C000ECF0A3AE83AF82DDE02290BDF1EFF0EC33
:1034D000FEEDFF7D108E838F82E0A3FCE0A3FBE076
:1034E000A3FAE0A3AE83AF8290BCF0CCF0EBF0EA9D
:1034F000F0ECF0DDE022E540641460037FB4228547
:103500003D34853C33853B32853A31E4F54EF54D0B
:10351000F54CF54BF5357D157F141235AD22EFB422
:103520000A07740D123529740A309811A899B81336
:103530000CC2983098FDA899C298B811F63099FD40
:10354000C299F59922EF601E7BFF7A1B7925750CD5
:10355000008F0D120890C2947FC8123400D2947F5D
:10356000C812340080F022754001E4900223F0FD7F
:103570007F081236BD90021DE060047DC080027D90
:10358000807F061236BD7F8222E581D394EE400310
:103590007FFC22123757EFC3941450037FFF22752C
:1035A00048007549001230D2227D107F10E540C3DB
:1035B0009F40028D40E5406D7002FF227540011270
:1035C0002A2EEF6001227F8322C3E4CC13CD13CED9
:1035D00013FFE53024F7600DF8C3ED13FDEE13FE85
:1035E000EF13FFD8F42212370D754A1FE540B412CD
:1035F0000475400322E540D3941040037540102227
:1036000090BDF1EFF0ED601090BCF0E08B828A830A
:10361000F00BBB00010ADDF022853D34853C33858B
:103620003B32853A31121CD7EF64B1600122121C83
:10363000CE227F0A1234007D127F0312346D122BCA
:10364000247F02123400AF4A2290BDF17440F07E14
:10365000008D828C83EE9390BCF0F00EDFF322900D
:10366000BDF1EFF08B828A83E090BCF0F00BBB00E1
:10367000010ADDF022FFE43548FE8F828E83E0FFF1
:10368000A3E0FEA3E0FDA3E0FC227C317DE37F0804
:10369000123649900222E0547FFD7F440236BDE499
:1036A000FFFE121537600C0FEF70010E09E970F282
:1036B0000A80EF2290021DE02402FD7F0890BDF1F8
:1036C000EFF090BCF0EDF0227C317DDB7F0812360C
:1036D00049900222E0547F122C012290BDF1740D1A
:1036E000F090BCF0E52BF0E54FF0D20B227598502E
:1036F000758780758921758DF3D28ED29922FFE46A
:103700003548FE8F828E83E0FFA3E0FE2274FFF532
:103710002AF529F528F527C20922787FE4F6D8FD95
:1037200075816D02217F785876080876001222EBA9
:1037300022785876080876001215C52290BDF1EF60
:10374000F090BCF0E0FF22EFCCFFEECDFE227FFA3E
:0B375000DFFE2220B2FD227F142222A7
:00000001FF
