:10000000022A92E540C394105007120B8AEF600158
:1000100022122929EF600122C20A7850E6645C604E
:1000200004E6B42F05752D5180177851E6643A60C7
:10003000030200EF18E6C3944350030200EF752D4E
:1000400053E547B4031090021EE0FCA3E0FDA3E0DB
:10005000FEA3E0FF8005E4FFFEFDFC8F3D8E3C8D9E
:100060003B8C3AA82DE660030200F274FFF544F5DC
:1000700043F542F541E54764036057753D02900240
:1000800012E0FCA3E0FDA3E0FEA3E0FF900221E06C
:10009000FBC3EF9BFFEE9400FEED9400FDEC94009B
:1000A000FC900212121429900220E0FEA3E0A83076
:1000B000088005C333CE33CED8F9FFE48F448E4396
:1000C000F542F541AF22FCFDFE90021E1214297587
:1000D0002280853D34853C33853B32853A31E4F5D9
:1000E0004EF54DF54CF54BF5357540127F412275B7
:1000F0002D50A82DE6B4E5027605E53D700CE53AF5
:100100007008E53B7004E53C6038852235E53D2408
:10011000FEFFE53C34FFFEE53B34FFFDE53A34FFEE
:10012000FC900209E0F81213F1900212E0F8A3E04B
:10013000F9A3E0FAA3E02FFFEA3EFEE93DFDE83C2B
:100140008024900221E0F535AF35CB900212E0FC1F
:10015000A3E0FDA3E0FEA3E0C39BFFEE9400FEED51
:100160009400FDEC9400FC900219121429E53570FE
:100170000302042212189CEF600122E4F53EF53FD1
:10018000D3900217E0953F900216E0953E5003028F
:1001900003FEE549253FF52FE548353EF52E852F31
:1001A00082F583E0FF700302044FEF64E570030201
:1001B00003F0BF05027FE5A82DE6FE6F6008EE6440
:1001C0002A60030203F0E4F539FFEFC3940B507883
:1001D000E52F2FF582E4352EF583E0FEAD39E52DD0
:1001E0002DF8EE66605DAD39E52D2DF8E66015ADB4
:1001F00039E52D2DF8E6645C600AAD39E52D2DF862
:10020000E6B42F1FEE6420703FEFC394085010E552
:100210002F2408F582E4352EF583E0642070297FD1
:100220000B8025AE39E52D2EF8E6B42E1BE539649A
:1002300008600EE52F2FF582E4352EF583E0B4201B
:10024000077F070F05398082EFC3940B5003020329
:1002500031E52F240BF582E4352EF583E030E303FE
:10026000020331C20BE52F241AFFE4352EFE122AB9
:100270006EE48F3D8E3CF53BF53AE547B40310E55F
:100280002F2414FFE4352EFE122A6E8E3A8F3BAFD8
:1002900039E52D2FF8E66006200B03020327853D84
:1002A00034853C33853B32853A31E4F54EF54DF5E6
:1002B0004CF54BF535E52F240BF582E4352EF5830F
:1002C000E030E41F74FFF544F543F542F5417D133A
:1002D0007F1012292DEF600122300B047F43800232
:1002E0007F4122E52F241CFFE4352EFE1229FA8FD0
:1002F000448E438D428C41E53D7017E53A7013E51D
:100300003B700FE53C700B7535FFF544F543F54246
:10031000F5417D147F1012292DEF600122300B046E
:100320007F4380027F0022E53904252DF52D020050
:10033000F2AF39E52D2FF8E6642A60030203F0E5F9
:100340002F240BF582E4352EF583E030E30302031E
:10035000F0E53904252DF8E67053E4FFF537E52F75
:100360002FF582E4352EF583E06420602FBF080A64
:10037000AE37E52D2EF8762E0537E52F2FF582E4E2
:10038000352EF583E0FEAD37E52D2DF8EEF6E53799
:100390007008A82DE6B4050276E505370FBF0BBE41
:1003A000AF37E52D2FF8E4F6D20B020265E53904EC
:1003B000252DF8E6F47032E544700CE5417008E54F
:1003C000427004E5436093E54130E703122AC5E536
:1003D0004424FFF544E54334FFF543E54234FFF59B
:1003E00042E54134FFF5418007E53904252DF81633
:1003F0007420253FF53FE4353EF53E020180900232
:1004000019E0FCA3E0FDA3E0FEA3E02401FFE43E2D
:10041000FEE43DFDE43CFC9002191214291535025E
:10042000016DE53D700CE53A7008E53B7004E53C74
:10043000601D7F3AE4FD120EA3EF600122200B0F36
:1004400085363A85373B85383C85393D0200F2E4F4
:10045000FFE52D2FF8E6FE6013642A600FEE645C62
:100460006004EEB42F037FB3220F80E57F4222E5C4
:1004700040D394024003754002121C03EF60012236
:10048000900223E060030205787F07122A9E8F37CF
:10049000E53754F0FD7F07122A2890021DE0600422
:1004A0007DC080027D807F06122A28E4FD7F0E1227
:1004B0002A287F011227A890021DE06034B4020CA4
:1004C0007F03122A9EEF54F04402801190021DE037
:1004D000B4030F7F03122A9EEF540F4420FD7F03C5
:1004E00080137F02122A9EEF54F04402FD7F0280A7
:1004F000047D817F06122A287F011227A812273047
:10050000EF6006122730EF70057F191227A89002BE
:100510001DE06034B4020C7F03122A9EEF54F044B5
:1005200001801190021DE0B4030F7F03122A9EEF99
:10053000540F4410FD7F0380137F02122A9EEF5454
:10054000F04401FD7F0280047D807F06122A287D11
:10055000C07F06122A287538327F051227A87D1F12
:100560007F09122A28AD377F07122A28121C03EFB1
:100570006054D538E47F82227F0A1227A8122A1FEE
:10058000122A0A7D037F41122A280D0F122A2812EF
:100590001EB6E54A6010122A0A7D017F42122A28FF
:1005A000121EB602072A122A33E54A700C854982C8
:1005B000854883A3A3E030E4ED122A0A7D147F422C
:1005C000122A28121EB67F321227A8E4FD7F0812D5
:1005D0002A287C257DCE1229C9121EB6E54A70B69E
:1005E0007C257DD67F081229C990021DE0FF600896
:1005F0002402FD7F42122A28900223E0600E90021E
:1006000022E0547F2410FD7F42122A28121EB6E5F4
:100610004A70837F42122A9EEFCD7F08122A287FDC
:100620000A1227A87C257DDE7F081229C9121EB672
:10063000E54A600302072A854982854883A3A3E02F
:10064000FD7F46122A28E4FD0F122A28121EB6E565
:100650004A600302072AE5492405F582E43548F596
:1006600083E0F537E549240EF582E43548F583E06B
:10067000FD6408706AE549240FF582E43548F58386
:10068000E0B4060543452080035345DFE549240BCC
:10069000F582E43548F583E0900200F0E4F538AFE8
:1006A00038EF75F007A42549FFE5F03548CF24144D
:1006B000CF34008F82F583E0F539A3A3E064407066
:1006C0004DE53930E708540F4490F52B8008E539A3
:1006D000540F4410F52C0538E538B402C28034EDCF
:1006E0006409702A900223E070247C257DE67F084F
:1006F0001229C9121EB6E54A7030E4900222F08534
:100700004982854883A3A3E0900223F07005754ACF
:100710001F80177C257DEE7F081229C9AD377F42E7
:10072000122A28121EB6E54A6045900222E0603C7B
:1007300020E739854A37900223E0FF900222E0C388
:100740009F5021E004F0F538121C038F39E5397011
:1007500003020578E539B48203AF3922900222E51D
:1007600038F080D285374AE4900222F0AF4A2290D6
:100770000223E06036900222E07030900222E00412
:10078000F0122A0A7D037F41122A287D080F122ABF
:1007900028121EB6900223E0FF900222E0C39F4081
:1007A000DAE4F07FC81227A8020479E54F54044424
:1007B00008F54F7C257DF6121EA7E54A700B85498A
:1007C00082854883E0F5378012E54AB42E0AE4FFBB
:1007D0001227DFE4F5378003AF4A227F021227A8F1
:1007E000E4900218F07D247F12122815121DD38F79
:1007F00039E5397023E5376018900218E0701285EA
:100800004982854883E0B405089002187401F0809D
:10081000D47D037F0202292DE537600E900218E097
:10082000C394035005E004F080BB1226AA22E51809
:10083000240CF8E60518227809300702780CE475D4
:10084000F00112158F0215372000EB7F2ED20080A9
:1008500018EF540F2490D43440D4FF30040BEF240D
:10086000BFB41A0050032461FFE519600215190591
:100870001CE51C7002051B30070D7809E475F001BA
:1008800012158FEF02157D02289E7403D207800394
:10089000E4C207F5188B098A0A890BE4F519F51BE0
:1008A000F51CE51960077F2012086980F5751AFFAD
:1008B000C201C200C202C203C205C206C2081208B7
:1008C00037FF700D3007057F0012087AAF1CAE1B92
:1008D00022B4255FC2D5C204120837FF24D0B40A5F
:1008E00000501A75F00A781930D50508B6FF0106D0
:1008F000C6A426F620D5047002D20380D924CFB432
:100900001A00EF5004C2E5D204020A7AD20180C66E
:10091000D20080C0D20280BCD2D580BAD20580B4C9
:100920007F201208692002077401B5190040F112F6
:10093000082EFF1208690208A2D208D2068095127A
:10094000082EFB12082EFA12082EF94A4B7006796F
:100950004B7A0B7BFF20022EE519602A7E008E82E7
:1009600075830012155060060EEE651A70F0C2D540
:10097000EBC0E0EAC0E0E9C0E0EE120AC1D0E0F965
:10098000D0E0FAD0E0FB121537FF60AAEBC0E0EA36
:10099000C0E0E9C0E0120869D0E02401F9D0E034F9
:1009A00000FAD0E0FBE51A0460DCD51AD980877B19
:1009B000FF7A0A79BDD202809C791080027908C240
:1009C00006C2088008D2D5790A8004790AC2D5E522
:1009D0001A047002F51AE4FAFDFEFF12082EFC7BE1
:1009E0000820011312082EFD7B1030000A12082E79
:1009F000FE12082EFF7B20EC3382D592D55013C314
:100A0000E43000069FFFE49EFEE42001039DFDE428
:100A10009CFCE4CBF8C201EC700CCFCECDCCE8242A
:100A2000F8F870F38017C3EF33FFEE33FEED33FDBC
:100A3000EC33FCEB33FB994002FB0FD8E9EB3001C0
:100A400005F8D0E0C448B201C0E00AEC4D4E4F7842
:100A5000207B0070C2EAB51A0040BCC0E0120AC395
:100A6000D0F0D0E0200104C4C0E0C4B201C0F01254
:100A70000852D0F0D5F0EB0208A212159F093F539F
:100A800009B95809104C090C4209BD4F09C5440960
:100A9000C54909254309CB5509AF4609AF4509AFFB
:100AA000470B6B5009142D09182E093B2B091C23E9
:100AB0000939200B542A08D448000009333F3F3F2E
:100AC00000790AA2D5200314300509B910020404E4
:100AD000B9080104A2D52006025001042002689240
:100AE00002B519005034C0E07F203003197F30A2D6
:100AF0000272067205500F120B1AC202C206C2051C
:100B0000C2087F30800F300503E9C0E01208693069
:100B10000503D0E0F9D0E0B519CC3005177F30B926
:100B2000100C1208697F583004077F788003B908D9
:100B3000031208693002057F2D0208697F20200812
:100B4000F87F2B2006F322920280CF286E756C6C02
:100B50002900D20112082E3001F8C201781930D5CF
:100B60000108F60208D42D5043495812082E2403D8
:100B7000B405004001E4900B669312085A743A12CF
:100B8000085AD2037519040209B9E540C394035009
:100B90000A12046FEF6001221221FD122A85E4F58A
:100BA0002EE4F526F525F524F5231218AEEF600D99
:100BB00012276D1221FD1218AEEF600122E52E7092
:100BC0000D854982854883E054FD64E96053E4FD66
:100BD000ED64406049E54924BEFFE5483401FEED7F
:100BE0007A002FFFEA3EF583EF2404F582E4358393
:100BF000F583E06023E54924BEFFE5483401FEEDBE
:100C00002FFFEA3ECF2408CF3400FE1229FA8F26A8
:100C10008E258D248C23800974102DFD80B27F9247
:100C200022AF26AE25AD24AC239002011214291266
:100C300018AEEF600122854982854883E054FD6447
:100C4000E960037FA122E549240DF582E43548F5EA
:100C500083E0F522F5479002097406F0E54720E6A7
:100C600011E54725E0F547900209E014F070ED75B5
:100C70002201E5492416122A69900207EEF0A3EF3B
:100C8000F04E702CE54924241229F58F348E338DD3
:100C9000328C31E4FBFA7901F8D31213CD5007E519
:100CA0002E60037FA222900207E533F0A3E534F023
:100CB000E5492414F582E43548F583E0FFE549244D
:100CC00013F582E43548F583E04F6012E5492413BB
:100CD000122A69E48F3D8E3CF53BF53A800FE549D9
:100CE00024201229F58F3D8E3C8D3B8C3AE549241A
:100CF00011122A69CCEECCCDEFCD900216E0FEA306
:100D0000E07805CEC313CE13D8F9147E002DFFEE84
:100D10003CFEE53024FBFDEFC8EDC8088005CEC3DE
:100D200013CE13D8F9FFE4FCFD90021E121429E53E
:100D300049240E122A698E3E8F3F900208E0253F1B
:100D4000FF900207E0353EFEE4FCFD90021EE0F855
:100D5000A3E0F9A3E0FAA3E02FF534EA3EF533ED82
:100D600039F532EC38F531E5492410F582E435489F
:100D7000F583E0D39401401E900207E0FEA3E0FF5C
:100D8000E5342FF534E5333EF533ED3532F532EC0D
:100D90003531F5318007E4900207F0A3F0C3E53D5B
:100DA0009534FFE53C9533FEE53B9532FDE53A95FC
:100DB00031FC900209E0F81213DE90020E121429A1
:100DC000E47BF57AFFF9F8D31213CD401FE49002CB
:100DD00005F0A3F0900210E0FEA3E094F5EE940F6E
:100DE00050057547018024754702801FE54924306E
:100DF000122A69900205EEF0A3EFF0E549242C12C7
:100E000029F590021E121429754703E53F453E60FF
:100E10004E90021EE0FCA3E0FDA3E0FEA3E0FFEC89
:100E20004D4E4F603AE5492410F582E43548F5838C
:100E3000E0D39401400A900207E07002A3E0601F33
:100E4000E549240BF582E43548F583E07011E54966
:100E5000240CF582E43548F583E0C39402500AE59A
:100E60002E7006752E01020BA1E53F2526FFE53EFB
:100E70003525FEE43524FDE43523FC90020A1214E6
:100E800029E5342526FFE5333525FEE5323524FDF9
:100E9000E5313523FC9002121214297D107F0312D4
:100EA000292D228D0FEFC8E547B4020712140478EC
:100EB000018008B4031212140478021213F18F1384
:100EC0008E128D118C10802B1214048E108F11EF46
:100ED00030E00543451080035345EFE510C313FE92
:100EE000E511132511FFE5103EFEE48F138E12F578
:100EF00011F510900217E024FFFD900216E034FF78
:100F00005EFEED5F2549F52FEE3548F52EAF13AEA9
:100F100012AD11AC1012294990020AE0F8A3E0F9D1
:100F2000A3E0FAA3E02FF513EA3EF512E93DF5112F
:100F3000E83CF510E513652A7012E5126529700C7E
:100F4000E51165287006E5106527601D3009071258
:100F5000247EEF60012285102385112485122585CA
:100F600013261218AEEF600122E50F6023B4FF02D2
:100F70008006E50FB4010BE4F513F512F511F51039
:100F8000800C853113853212853311853410D209D6
:100F9000E5476402703F852F82852E83E0F536A3F6
:100FA000E0F537853639853738E4F536F537AE382C
:100FB000AF39C3EF94F7EE94FF4003D38001C3929F
:100FC0000BE50F600D852F82852E83E510F0A3E5DC
:100FD00011F07F0022E5476403705A852F82852E29
:100FE00083E0FCA3E0FDA3E0FEA3E0F5398E388D9D
:100FF000378C36E53954F0FFE513540F4FF513E500
:1010000039540F853639F536AF388537388F37AFD5
:1010100036EFC3940F4003D38001C3920BE50F60FA
:1010200011AF13AE12AD11AC10852F82852E831235
:1010300014297F002253110F900217E02549FF90D9
:101040000216E03548CF24FFCF34FFFEEF652F7046
:1010500003EE652E6056852F82852E83E0F536855A
:101060002F82852E83A3E0F537E50F700302112B45
:10107000E54530E423E510C454F0FFE536540F4F46
:10108000852F82852E83F0E511C454F0FFE510C44E
:10109000540F4FA3F002112B852F82852E83E5106C
:1010A000F0E53754F04511A3F002112B852F82850E
:1010B0002E83E0F536E50F6024E54530E40EE510BB
:1010C000C454F0FFE536540F4FFF8002AF10852F58
:1010D00082852E83EFF012247EEF600122E52A2420
:1010E00001F526E43529F525E43528F524E43527EE
:1010F000F5231218AEEF600122854982854883E00E
:10110000F537E50F6025E54530E40FE511C454F0EF
:10111000FFE510C4540F4FFF8007E53754F0451129
:10112000FF854982854883EFF0D209E54530E41315
:10113000E537C454F0FFE536C4540F4FF539E537B1
:10114000C48005853639E537540FF538E4F536F5B2
:1011500037AE38AF39C3EF94F7EE940F4003D38026
:1011600001C3920B7F00221200038F35E535700A10
:10117000122039EF70030212DA22E535644260036F
:10118000AF3522900217E024E0FF900216E034FF12
:10119000FEC3E53F9FE53E9E50030212DAE53D7037
:1011A0000FE53A700BE53B7007E53C7003021268EF
:1011B000900215E0FF90021CE0C39FFFE52214FEA1
:1011C0005FF535E53F6008EE653560030212DA7FB2
:1011D0003AE4FD120EA3EF600122200B030212DAA3
:1011E000122999EF6001227F3A7D02120EA3EF606F
:1011F000012212247EEF600122122A85E4FFFE9074
:101200000216E06EFCA3E06F4C6013E5492FF582F7
:10121000E5483EF583E4F00FBF00010E80E1E4F500
:1012200035122616E53F7012F53EF53FAF26AE2586
:10123000AD24AC23900219121429852236E53660BC
:1012400020121761EF600122E5262401F526E4351E
:1012500025F525E43524F524E43523F523153680DA
:10126000DC122384EF607322E53F706E900219E078
:10127000FCA3E0FDA3E0FEA3E024FFFFEE34FFFEAD
:10128000ED34FFFDEC34FFFC900219121429121802
:101290009CEF600122E4F53EF53FD3900217E09504
:1012A0003F900216E0953E402EE549253FFFE54878
:1012B000353E8F82F583E0B4E510E582240BF5829C
:1012C000E43583F583E0540E60107420253FF53F2C
:1012D000E4353EF53E80C37FB222122999EF6001CA
:1012E0002212247EEF6001227F06122A9EEF54BF55
:1012F000648060037F112285343D85333C85323B19
:1013000085313A122384EF60012212189CEF6001AC
:1013100022E549253FFFE548353EFEE4FDEDC39457
:101320000B50047C2080027C00EF2DF582E43EF51A
:1013300083ECF00DBD20E6EF2418F582E43EF58342
:101340007421F0A37430F0EF241CF582E43EF583A1
:101350007401F0E4FDEDC3940B5021A82DE6FC6070
:101360001BECB42E047D08052DA82DE6FCEF2DF511
:1013700082E43EF583ECF00D052D80D9853D368560
:101380003C37853B38853A39EF241AF582E43EF53F
:1013900083E536F0A3E537F0EF2414F582E43E123E
:1013A0001758EF600122853D34853C33853B3285FB
:1013B0003A31E4F544F543F542F541F54EF54DF586
:1013C0004CF54BF5357D147F1012292D22EB9FF53E
:1013D000F0EA9E42F0E99D42F0E89C45F022E86088
:1013E0000FECC313FCED13FDEE13FEEF13FFD8F16A
:1013F00022E8600FEFC333FFEE33FEED33FDEC3335
:10140000FCD8F122E6FC08E6FD08E6FE08E6FF222D
:10141000E6FB08E6F908E6FA08E6CBF822ECF6085F
:10142000EDF608EEF608EFF622ECF0A3EDF0A3EEF1
:10143000F0A3EFF022D083D082E493F608740193F6
:10144000F608740293F608740393F6740473E709BC
:10145000F60870FA8046E709F20870FA803E888242
:101460008C83E709F0A370FA807EE309F60870FA2E
:101470008076E309F20870FA806E88828C83E30933
:10148000F0A370FA806289828A83E0A3F60870FA7A
:10149000805689828A83E0A3F20870FA804A80D25B
:1014A00080FA80C680D4806580F28031801080A66A
:1014B00080EA809A80A880DA80E280CA80318982BE
:1014C0008A83ECFAE493A3C8C582C8CCC583CCF068
:1014D000A3C8C582C8CCC583CC70E9800D89828A37
:1014E00083E493A3F60870F9ECFAA9F0EDFB2289E6
:1014F000828A83ECFAE0A3C8C582C8CCC583CCF04D
:10150000A3C8C582C8CCC583CC70EA80DD89828A35
:1015100083E493A3F20870F980CE88F0ED2402B43E
:10152000040050C4F582EB2402B4040050BA232313
:1015300045822390149E73BB010689828A83E02230
:101540005002E722BBFE02E32289828A83E49322CF
:10155000BB010CE58229F582E5833AF583E0225050
:1015600006E92582F8E622BBFE06E92582F8E2229A
:10157000E58229F582E5833AF583E49322BB0106EF
:1015800089828A83F0225002F722BBFE01F322FAFD
:10159000E6FB0808E6F925F0F618E6CA3AF622D086
:1015A00083D082F8E4937012740193700DA3A39317
:1015B000F8740193F5828883E4737402936860EF92
:1015C000A3A3A380DFE4F534F533F532F5319002BF
:1015D0000EE0FCA3E0FDA3E0FEA3E0FFAB34AA33E2
:1015E000A932A831D31213CD40037FB122E53424B0
:1015F00001F534E43533F533E43532F532E4353191
:10160000F5317F31E4FD120EA3EF600122E5397060
:101610000FE536700BE5377007E538700302175099
:10162000E547640160A885482E85492FE547640297
:101630007051900216E0C313FEA3E01324FFFFEEE7
:1016400034FFF5368F37F5388F397402252FF52F93
:10165000F582E4352EF52EF583E07011A3E0700DD0
:10166000852F82852E8374FFF0A30216D8E537609C
:1016700009D537D6E536600880D01536153780CACB
:10168000021737900216E0FEA3E07802CEC313CE15
:1016900013D8F924FFFFEE34FFF5368F37F5388F76
:1016A000397404252FF52FF582E4352EF52EF583B8
:1016B000E0600302171CA3E0600302171CA3E070A4
:1016C0005BA3E0540F7055852F82852E8374FFF045
:1016D000A3F0A3F0A3E0440FF0AE38AF39EF4534E8
:1016E000FFEE4533FEE532FDE531FCEEC0E0EFC034
:1016F000E0E53724FFFFE53634FFCBEFCBFAD0E04F
:10170000FFD0E0FEC3EF9BF534EE9AF533ED940085
:10171000F532EC9400F531D2097F0022E5376010F4
:101720001537E53760030216A1E536600A0216A1F7
:10173000153615370216A1AE38AF39E5344FF534FA
:10174000E5334EF533E532F532E531F5310215CEAC
:101750007F317DFF120EA322F583E538F0A3E53932
:10176000F0E4F5467F237B2A7D011224ECE54A60F4
:10177000030218747DC87F06122A28E54F30E6045C
:101780007F4080027F80AC48AD498C278D2812288D
:10179000728E278F287D407F0B122A28634F40AD21
:1017A0004F7F0E122A28E530B409047F088010B458
:1017B0000A047F108009B40B047F2080027F408FD1
:1017C00037E53764016016E54F30E6047F4080025C
:1017D0007F80AD28AC271228728E278F281219EB34
:1017E000E54A60187DC07F06122A28E54A642E600B
:1017F00003021874E546707CAF2C8050634F40E5BF
:101800003764016007AD4F7F0E122A28D537B27DAD
:10181000C07F06122A2890BDF1740DF090BCF0E54F
:101820002BF0E54FF0D20B85232785242885252929
:1018300085262A634F801219EBE54A6017634F80B3
:10184000E54A642E702EE546702AAF2B1227DF750D
:10185000460180C27F0B122A9EBF0D187FCC122A30
:101860009EEF7006122AB97F00227FCC122A9EEFCB
:101870006401600BE54AB416037F822212276DE5EE
:1018800046C39405500FE546C3940340031226AAAD
:1018900005460217641229661226AA22900219E050
:1018A000F523A3E0F524A3E0F525A3E0F526E5263E
:1018B000652A7015E5256529700FE52465287009EE
:1018C000E523652770030219D7E4F5467F237B28BB
:1018D0007D011224ECE54A60030219B090BDF17459
:1018E00006F090BCF074CCF090BDF1740DF090BC9B
:1018F000F0E52BF0E54FF0D20B634F40854827858C
:101900004928E530B409047F088010B40A047F1028
:101910008009B40B047F2080027F408F371219EBBF
:10192000E54A60097DC07F06122A288050634F80F7
:10193000E53764016007AD4F7F0E122A28E54F306E
:10194000E7047FC080027F80AD28AC271228468E36
:10195000278F28D537C77DC07F06122A28AD4F7F35
:101960000E122A2885232785242885252985262ABD
:10197000634F801219EBE54A601A634F80E54A64B1
:101980002E702DE5467029AF2B1227DF7546011208
:101990002A4680D07F0B122A9EBF0D147FCC122ABC
:1019A0009EEF7002FF227FCC122A9EEF6401600B33
:1019B000E54AB416037F822212276DE546C39405DB
:1019C000500FE546C3940340031226AA05460218A9
:1019D000CC1229660226AA7F002290BDF1740DF078
:1019E00090BCF0E52CF0E54FF0C20BE4F539E4F5DE
:1019F0004A122ABE90BDF17409F0E030E06B90BC51
:101A0000F07411F0E0FF300B0E5407B40313EF3005
:101A1000E436E4F54AFF22540FB40205E4F54AFF28
:101A200022EF540FFEBE0A05E54520E729EF5403D7
:101A30007003D38001C34007EE4420FFF54A227FA4
:101A400009122A9EEF20E121E545540FFF0539AE2A
:101A500039EED39F500D7F0E122A9EEF4408FD7F72
:101A60000E8027754A207F2022754AFF7F04122AA4
:101A70009ED54AF87F09122A9E8F39E53930E173E5
:101A8000122730BF090A7D027F09122A280219EEA7
:101A9000754001E4900223F07D137F09122A2890FB
:101AA000021DE060047DC080027D807F06122A282E
:101AB000122730EF603775400290021DE0D3940189
:101AC0005007E5395480FF80157F02122A9E90024C
:101AD0001DE0B403047E2080027E10EF5EFFEF6005
:101AE00006754A157F1522754A137F1322754A160B
:101AF0007F16227D1F7F09122A28E53930E30675FB
:101B00004A067F0622754A057F0522E540C39413E5
:101B100050037FB42212189CEF600122C209E549EC
:101B2000253FFFE548353ECBEFCBFA7858E6FFEB93
:101B3000240BF582E43AF583E0F6EFF460138B8230
:101B40008A83E582240BF582E43583F583EFF0D2B6
:101B5000097856E6F53908E6F538EB2416FFE43A3D
:101B6000FE122A6E18EEF608EFF6E538F4FEE539B7
:101B7000F44E6012EB2416F582E43AF583E538F072
:101B8000A3E539F0D2097854E6F53908E6F538EBE3
:101B90002418FFE43AFE122A6E18EEF608EFF6E576
:101BA00038F4FEE539F44E6012EB2418F582E43A7D
:101BB000F583E538F0A3E539F0D209785012140422
:101BC000785C12141DEB241CFFE43AFE1229FA780B
:101BD0005012141D785CE6F4601E1214048F448EBB
:101BE000438D428C41122AB2EB241CF582E43AF573
:101BF00083121429D209C20A300905C209021761E9
:101C00007F00227F06122A9EEF54404480FD7F060B
:101C1000122A287F09122A9EEF30E112122730EF94
:101C2000640960031228E77D137F09122A2812270E
:101C300030EF7003021CF5E540C394025008754074
:101C400002E4900223F0900223E07002FF22122AA5
:101C50001F900222E06049122A33E54A702E85491E
:101C600082854883A3A3E030E009754002122A0A66
:101C7000121EB6854982854883E030E01E9002221C
:101C8000E02410FD7F08122A287F0022E54A64160E
:101C90006063E54A30E5045403605A754002804DA4
:101CA000900222E004F0122A33E54A70248549822A
:101CB000854883A3A3E030E006122A0A121EB685E7
:101CC0004982854883E030E017A3E020E1127F00DD
:101CD00022E54A6416601EE54A30E50454036015A7
:101CE000900223E0FF900222E0C39F40B3E4900201
:101CF00022F07F84221228E722D294C2947F6412B9
:101D000027A8D294122A587BFF7A1F79871208904D
:101D10001229098F081228C57BFF7A1F798E1208B5
:101D2000907F321227A8121C03EF70F5C2947FC86F
:101D30001227A8E4F5087F321227A87BFF7A1F79C3
:101D40009A1208901226F0EF60090508E508C3947E
:101D50000540E3E540C39403500B7BFF7A1F79A352
:101D600012089080B3C2957BFF7A1F79B312089056
:101D700078507C007D007BFF7A1F79E012151AC233
:101D8000961220D38F081228C57BFF7A1F79EC1298
:101D9000089078507C007D007BFF7A207921121515
:101DA0001A7DEA7C7C7FC87E301223058F081228BA
:101DB000C5D296D2957BFF7A20792F1208907F0AA0
:101DC0001227A8121C03EF60F5D2947FC81227A82F
:101DD000021D18E4900225F0A3F0A3F0900218E091
:101DE000900229F0E4F5387C257DC17F041229C9D1
:101DF0007A027B247D117F481229DF7D1F7F0B1221
:101E00002A281219DAE54AB416037F8222E54A60CD
:101E10000FE5386003021E9812276D75380180C7E0
:101E2000634F40900224E06049122A461219EBE504
:101E30004A600DE54A642E705FAF2B1227DF8032B7
:101E4000634F807F0B122A9E8F397F4F122A9EBFCD
:101E5000030A7F53122A9EEF6412600E122A85AB8A
:101E600049AA48AD397FC0122980900224E0C39569
:101E700039F0122A461219EBE54A701C634F807F35
:101E8000CC122A9E8F397F0B122A9EBF0D07E5398F
:101E9000C394024006754A1F02276DE5397002FFA0
:101EA00022754A1F7F1F227F081229C9900200E075
:101EB000FD7F44122A287F011227A87D087F0B127C
:101EC0002A287DD07F0D122A287D0C0F122A28C2C5
:101ED0000B1219EBE54A6003AF4A22D20B7F461280
:101EE0002A9EEF606C122A857F011227A87D907FC1
:101EF0000D122A280F122A9EEF6480440CFD7F0EDB
:101F0000122A281219EBE54A6003AF4A227F0B120E
:101F10002A9E8F4A7F47122A9E8F39AF39EF254973
:101F2000FBE43548FAAD4A7FC0122980E54A2539DD
:101F3000F539AD397F47122A281F122A9EE539C389
:101F40009F500CE54A5407609F754A177F1722C2BD
:101F50000B7F011227A8E4FD7F0B122A28300B0407
:101F60007F0980027F01EFC454F0FD7F0D122A2803
:101F70007DCC0F122A281219EB224572726F723A29
:101F800020253032580A0053746172740A00576178
:101F9000697420556469736B0A0052656164792025
:101FA0003F0A00556E6B6E6F776E206465766963CD
:101FB000650A004F70656E20616E642072656E6107
:101FC0006D652043483337344846542E4320746FA0
:101FD0002043483337344846542E545854200A007E
:101FE0002F43483337344846542E430053657420FA
:101FF00066696C65206372656174652064617465EF
:1020000020262074696D6520746F20323030342EA4
:1020100030362E30382031353A33393A3230200AD2
:10202000002F43483337344846542E5458540054F4
:10203000616B65206F75740A00E540C39413500707
:10204000120003EF600122122929EF600122121809
:102050009CEF600122E549253FFFE548353E8F8230
:10206000F58374E5F0121761EF600122AF3DAE3CDD
:10207000AD3BAC3A8F398E388D378C36EC4D4E4FA8
:10208000604EE53D24FFF53DE53C34FFF53CE53B86
:1020900034FFF53BE53A34FFF53AE4F534F533F532
:1020A00032F5317F367D01120EA3EF600122E53457
:1020B0002401F534E43533F533E43532F532E435D3
:1020C00031F531300BDD12247EEF60012202238EC8
:1020D0007F0022120003EF600302216B122A78EFC7
:1020E000600302216BE549253FFDE548353EFCF5DF
:1020F00083ED2408F582E43583F583E06443703D85
:10210000ED2409F582E43CF583E0B42030ED2408A9
:10211000F582E43CF5837454F08D828C83E582244F
:1021200009F582E43583F5837458F08D828C83E55C
:1021300082240AF582E43583F5837454F0ED240B90
:10214000F582E43CF583E07858F674FF7856F6089B
:10215000F67854F608F67850121435FFFFFFFF1298
:102160001B0BEF70067850F612228522E53D700CAD
:10217000E53A7008E53B7004E53C6072853D3485C6
:102180003C33853B32853A31AF22E4FCFDFE78508A
:10219000121410C31213CD40387F31E4FD120EA388
:1021A000EF600122200B4785363185373285383381
:1021B0008539347850121404AB22C3EF9BFFEE94A0
:1021C00000FEED9400FDEC9400FC785012141D808C
:1021D000B77853E6FFE522145FF535122616AF26D1
:1021E000AE25AD24AC23785012141D7F0022753526
:1021F000FF7850121435FFFFFFFF7F002275376410
:102200007D087F2512281590022A740AF0E49002B6
:102210002FF0121DD38F36E5367044E5492406F5BC
:1022200082E43548F583E0FFB4040575300A801375
:10223000B4080575300B800BB4100575300C8003A5
:1022400075300974017E00A830088005C333CE3391
:10225000CED8F9900217F0EE900216F07F0022E53A
:10226000366416601DE53664156017E53664136044
:10227000111229B27F321227A81537E53760030201
:102280002200AF3622E540C3941250037FB422E50A
:10229000406412704FE54764036049900221E0F505
:1022A00022AE43E544A830088005CEC313CE13D830
:1022B000F9FFE4FCFD90021E121429900212E0F8CE
:1022C000A3E0F9A3E0FAA3E0FB900221E0FFE4FC25
:1022D000FDFEEB2FFFEE3AFEED39FDEC38FC9002EF
:1022E00012121429E540D39413400AE540B41407B0
:1022F0007850E67002C20A300A07122660EF6001C9
:1023000022122929228E098F0A8C0B8D0C120003B0
:10231000EF7070122A78EF706AE549253FF50EE5F7
:1023200048353EF50DAF0CAE0B122AA9E50E240E72
:10233000F582E4350DF583EEF0A3EFF0AF0AAE09B8
:10234000122AA9E50E2410F582E4350DF583EEF08E
:10235000A3EFF0E50E240BF582E4350DF583E0786C
:1023600058F674FF7856F608F67854F608F6785062
:10237000121435FFFFFFFF121B0BEF70067850F6AB
:102380001222852274FFF534F533F532F5319002CF
:1023900005E0FCA3E0FD4C7002FF22EDCFECCEE4A3
:1023A000FCFD900201E0F8A3E0F9A3E0FAA3E02F1E
:1023B000F526EA3EF525ED39F524EC38F52312181B
:1023C000AEEF600122E54924E8FFE5483401FE1242
:1023D00029FAE5342FF534E5333EF533E5323DF5A2
:1023E00032E5313CF531AF34AE33AD32FC122AB2B6
:1023F000E54924E8F582E5483401F58312142912F1
:102400001761221215CEEF600564B1600122EF6002
:10241000071215C5EF60012212247EEF60012285AC
:10242000343D85333C85323B85313A12189CEF6050
:102430000122E549253FFFE548353EFEF583EF24BF
:102440001CF582E43583F5837401F0853D36853CC7
:1024500037853B38853A398F828E83E582241AF599
:1024600082E43583F583E536F0A3E537F08F828E7D
:1024700083E5822414F582E43583121758228527D8
:1024800023852824852925852A26121761EF6001D6
:1024900022900207E0FEA3E0FF4E604BE4FCFDE566
:1024A000262FF526E5253EF525ED3524F524EC35DA
:1024B00023F523121761EF600122900207E0FEA3CB
:1024C000E0FBCAEECAC3E5269BF526E5259AF5256D
:1024D000E5249400F524E5239400F523F5278524CD
:1024E0002885252985262AC2097F002290BDF174FE
:1024F00040F090BCF07455F07453F07442F004F066
:1025000090BDF17448F0E490BCF0F0E53024F8F8A8
:10251000ED088002C333D8FCF0E4F0F0BB2A03FEE0
:1025200080027E80EEF0900218E090BCF0F0740A19
:10253000F0EBF0E4F0EFC8E6F008E6F008E6F008AB
:10254000E6F0E4F0F0EDF0E4F090BDF1740BF09003
:10255000BCF0741FF00219DAE4F5407D557F80125B
:102560002A287DAA0F122A281F122A9EBF550A7FE9
:1025700081122A9EEF64AA60037F8122E4FD7F0618
:10258000122A287F0E122A28754585E4F546900206
:10259000167402F0A3E4F090021DF0F54F7D1F7F4A
:1025A00009122A287F07122A9EEF54F04403FD7F68
:1025B00007122A287D407F05122A281228E77F006B
:1025C00022555342430021FF000000000000800616
:1025D000000100001200000502000000000080065B
:1025E000000200000400A006002900000900000904
:1025F000000000000000A1FE000000000100020138
:10260000000000000000A3000000010004002301FE
:10261000100001000000E53424FEFFE53334FFFE26
:10262000E53234FFFDE53134FFFC900209E0F81299
:1026300013F1900212E0F8A3E0F9A3E0FAA3E02F6F
:10264000FBEA3EFAE93DF9E83CF8E4FCFDFEEB2547
:1026500035F526EE3AF525ED39F524EC38F523224B
:10266000C20AE540C39414403E12189CEF60012258
:10267000E549253FFFE548353ECBEFCBFAF583EB47
:10268000240BF582E43583F583E020E41AAF44AEF1
:1026900043AD42AC41122AB2EB241CF582E43AF578
:1026A000831214290217617F00227F021227A87D5E
:1026B000117F09122A28122730EF600BE54A6416B1
:1026C0006005E540B401030228E7E540C3940340F8
:1026D00015854A377D127F03122815121DD38537C1
:1026E0004A7F021227A8E54A70037F1022AF4A22D0
:1026F000121C03EF600122E540C39403501B120437
:102700006FEF600C7F321227A812046FEF60012276
:102710001221FDEF60030226AAE4FDFF1228151224
:102720001DD38F36E5367002FF221229B2AF362252
:1027300090021DE0FEB401047F028006EEB4020A9E
:102740007F03122A9EEF5409FF2290021DE0B4037A
:102750000D7F03122A9EEF5490C4540FFF22E49081
:10276000021DF07F09122A9EEF5420FF22854A386D
:102770007F021227A8121C038F4AE54A6003AF4A62
:10278000227C257DC6121EA7E54AB416037F82224D
:10279000E54A700AAF2B1227DFAF2C1227DF7F022A
:1027A0001227A8AF388F4A22CEEFCE7F06122A9E7C
:1027B000EFF4602AEF30E7268E397F04122A9EEF6D
:1027C00020E5F7AF391539EF60147F04122A9EEF28
:1027D00030E5F77F04122A9EEF30E5E780F5228F7F
:1027E000397C257DFE7F081229C9E539C4540FFFC5
:1027F000BF090DE539540F4480F539534F7F800FE1
:10280000E539C4540FFFBF010653390F534FBFAD15
:1028100039121EB122900224EDF060047E80800205
:102820007E00900228EEF090022A7406F0A3EFF0EA
:10283000E4A3F0A3F0A3F0A3EDF0E4A3F0A3F0A3CE
:10284000F0A3F0A3F02290BDF1EFF0ECFEEDFF7DE0
:102850001090BCF0E0FCE0FBE0FAE08E838F82CCCD
:10286000F0A3EBF0A3EAF0A3ECF0A3AE83AF82DD1C
:10287000E02290BDF1EFF0ECFEEDFF7D108E838F36
:1028800082E0A3FCE0A3FBE0A3FAE0A3AE83AF8267
:1028900090BCF0CCF0EBF0EAF0ECF0DDE022EFB42D
:1028A0000A07740D1228A9740A309811A899B81350
:1028B0000CC2983098FDA899C298B811F63099FDCD
:1028C000C299F59922EF601E7BFF7A1F797A750C09
:1028D000008F0D120890C2947FC81227A8D2947F4F
:1028E000C81227A880F022754001E4900223F0FD71
:1028F0007F08122A2890021DE060047DC080027DBE
:10290000807F06122A287F8222E581D394EE40033D
:102910007FFC22122AC2EFC3941450037FFF22755A
:102920004800754900122558227D107F10E540C3EC
:102930009F40028D40E5406D7002FF2275400112FC
:102940001C03EF6001227F8322C3E4CC13CD13CE9E
:1029500013FFE53024F7600DF8C3ED13FDEE13FE11
:10296000EF13FFD8F422122A85754A1FE540B412EE
:102970000475400322E540D39410400375401022B3
:1029800090BDF1EFF0ED601090BCF0E08B828A8397
:10299000F00BBB00010ADDF022853D34853C338518
:1029A0003B32853A311215CEEF64B1600122121527
:1029B000C5227F0A1227A87D127F03122815121D37
:1029C000D37F021227A8AF4A2290BDF17440F07E57
:1029D000008D828C83EE9390BCF0F00EDFF322909A
:1029E000BDF1EFF08B828A83E090BCF0F00BBB006E
:1029F000010ADDF022FFE43548FE8F828E83E0FF7E
:102A0000A3E0FEA3E0FDA3E0FC227C267D0E7F0870
:102A10001229C9900222E0547FFD7F44022A2890A7
:102A2000021DE02402FD7F0890BDF1EFF090BCF0A4
:102A3000EDF0227C267D067F081229C9900222E053
:102A4000547F121EB02290BDF1740DF090BCF0E5E1
:102A50002BF0E54FF0D20B22759850758780758961
:102A600021758DF3D28ED29922FFE43548FE8F82F4
:102A70008E83E0FFA3E0FE2278507F0976FF08DF17
:102A8000FB121B0B2274FFF52AF529F528F527C246
:102A90000922787FE4F6D8FD75816D021CF990BD9E
:102AA000F1EFF090BCF0E0FF22AC06ECFBEFFEEBA8
:102AB000FF22EFCCFFEECDFE227FFADFFE2220B216
:062AC000FD227F1422221A
:00000001FF
