:10000000022DF3E540C394105007120B8AEF6001F4
:1000100022122C82EF600122C20A786DE6645C60D5
:1000200004E6B42F05752D6E8017786EE6643A608D
:10003000030200EF18E6C3944350030200EF752D4E
:1000400070E547B4031090021EE0FCA3E0FDA3E0BE
:10005000FEA3E0FF8005E4FFFEFDFC8F3D8E3C8D9E
:100060003B8C3AA82DE660030200F274FFF544F5DC
:1000700043F542F541E54764036057753D02900240
:1000800012E0FCA3E0FDA3E0FEA3E0FF900221E06C
:10009000FBC3EF9BFFEE9400FEED9400FDEC94009B
:1000A000FC900212121429900220E0FEA3E0A83076
:1000B000088005C333CE33CED8F9FFE48F448E4396
:1000C000F542F541AF22FCFDFE90021E1214297587
:1000D0002280853D34853C33853B32853A31E4F5D9
:1000E0004EF54DF54CF54BF5357540127F412275B7
:1000F0002D6DA82DE6B4E5027605E53D700CE53AD8
:100100007008E53B7004E53C6038852235E53D2408
:10011000FEFFE53C34FFFEE53B34FFFDE53A34FFEE
:10012000FC900209E0F81213F1900212E0F8A3E04B
:10013000F9A3E0FAA3E02FFFEA3EFEE93DFDE83C2B
:100140008024900221E0F535AF35CB900212E0FC1F
:10015000A3E0FDA3E0FEA3E0C39BFFEE9400FEED51
:100160009400FDEC9400FC900219121429E53570FE
:1001700003020422121C1BEF600122E4F53EF53F4E
:10018000D3900217E0953F900216E0953E5003028F
:1001900003FEE549253FF52FE548353EF52E852F31
:1001A00082F583E0FF700302044FEF64E570030201
:1001B00003F0BF05027FE5A82DE6FE6F6008EE6440
:1001C0002A60030203F0E4F539FFEFC3940B507883
:1001D000E52F2FF582E4352EF583E0FEAD39E52DD0
:1001E0002DF8EE66605DAD39E52D2DF8E66015ADB4
:1001F00039E52D2DF8E6645C600AAD39E52D2DF862
:10020000E6B42F1FEE6420703FEFC394085010E552
:100210002F2408F582E4352EF583E0642070297FD1
:100220000B8025AE39E52D2EF8E6B42E1BE539649A
:1002300008600EE52F2FF582E4352EF583E0B4201B
:10024000077F070F05398082EFC3940B5003020329
:1002500031E52F240BF582E4352EF583E030E303FE
:10026000020331C20BE52F241AFFE4352EFE122DB6
:10027000DCE48F3D8E3CF53BF53AE547B40310E5F1
:100280002F2414FFE4352EFE122DDC8E3A8F3BAF67
:1002900039E52D2FF8E66006200B03020327853D84
:1002A00034853C33853B32853A31E4F54EF54DF5E6
:1002B0004CF54BF535E52F240BF582E4352EF5830F
:1002C000E030E41F74FFF544F543F542F5417D133A
:1002D0007F10122C86EF600122300B047F438002D6
:1002E0007F4122E52F241CFFE4352EFE122D538F73
:1002F000448E438D428C41E53D7017E53A7013E51D
:100300003B700FE53C700B7535FFF544F543F54246
:10031000F5417D147F10122C86EF600122300B0412
:100320007F4380027F0022E53904252DF52D020050
:10033000F2AF39E52D2FF8E6642A60030203F0E5F9
:100340002F240BF582E4352EF583E030E30302031E
:10035000F0E53904252DF8E67053E4FFF537E52F75
:100360002FF582E4352EF583E06420602FBF080A64
:10037000AE37E52D2EF8762E0537E52F2FF582E4E2
:10038000352EF583E0FEAD37E52D2DF8EEF6E53799
:100390007008A82DE6B4050276E505370FBF0BBE41
:1003A000AF37E52D2FF8E4F6D20B020265E53904EC
:1003B000252DF8E6F47032E544700CE5417008E54F
:1003C000427004E5436093E54130E703122E1DE5DA
:1003D0004424FFF544E54334FFF543E54234FFF59B
:1003E00042E54134FFF5418007E53904252DF81633
:1003F0007420253FF53FE4353EF53E020180900232
:1004000019E0FCA3E0FDA3E0FEA3E02401FFE43E2D
:10041000FEE43DFDE43CFC9002191214291535025E
:10042000016DE53D700CE53A7008E53B7004E53C74
:10043000601D7F3AE4FD120EA3EF600122200B0F36
:1004400085363A85373B85383C85393D0200F2E4F4
:10045000FFE52D2FF8E6FE6013642A600FEE645C62
:100460006004EEB42F037FB3220F80E57F4222E5C4
:1004700040D3940240037540021220BAEF6001227B
:10048000900223E060030205787F07122DFF8F376B
:10049000E53754F0FD7F07122D9690021DE06004B1
:1004A0007DC080027D807F06122D96E4FD7F0E12B6
:1004B0002D967F01122AD990021DE06034B4020CFF
:1004C0007F03122DFFEF54F04402801190021DE0D3
:1004D000B4030F7F03122DFFEF540F4420FD7F0361
:1004E00080137F02122DFFEF54F04402FD7F028043
:1004F000047D817F06122D967F01122AD9122A616E
:10050000EF6006122A61EF70057F19122AD9900256
:100510001DE06034B4020C7F03122DFFEF54F04451
:1005200001801190021DE0B4030F7F03122DFFEF35
:10053000540F4410FD7F0380137F02122DFFEF54F0
:10054000F04401FD7F0280047D807F06122D967DA0
:10055000C07F06122D967538327F05122AD97D1F6D
:100560007F09122D96AD377F07122D961220BAEF14
:100570006054D538E47F82227F0A122AD9122D8D49
:10058000122D637D037F41122D960D0F122D9612B1
:100590002376E54A6010122D637D017F42122D966D
:1005A00012237602072A122DA1E54A700C85498292
:1005B000854883A3A3E030E4ED122D637D147F42D0
:1005C000122D961223767F32122AD9E4FD7F08126B
:1005D0002D967C287DB7122D22122376E54A70B61F
:1005E0007C287DBF7F08122D2290021DE0FF60084D
:1005F0002402FD7F42122D96900223E0600E9002AD
:1006000022E0547F2410FD7F42122D96122376E5BE
:100610004A70837F42122DFFEFCD7F08122D967F07
:100620000A122AD97C287DC77F08122D2212237630
:10063000E54A600302072A854982854883A3A3E02F
:10064000FD7F46122D96E4FD0F122D96122376E5BE
:100650004A600302072AE5492405F582E43548F596
:1006600083E0F537E549240EF582E43548F583E06B
:10067000FD6408706AE549240FF582E43548F58386
:10068000E0B4060543452080035345DFE549240BCC
:10069000F582E43548F583E0900200F0E4F538AFE8
:1006A00038EF75F007A42549FFE5F03548CF24144D
:1006B000CF34008F82F583E0F539A3A3E064407066
:1006C0004DE53930E708540F4490F52B8008E539A3
:1006D000540F4410F52C0538E538B402C28034EDCF
:1006E0006409702A900223E070247C287DCF7F0863
:1006F000122D22122376E54A7030E4900222F08512
:100700004982854883A3A3E0900223F07005754ACF
:100710001F80177C287DD77F08122D22AD377F429E
:10072000122D96122376E54A6045900222E0603C45
:1007300020E739854A37900223E0FF900222E0C388
:100740009F5021E004F0F5381220BA8F39E5397056
:1007500003020578E539B48203AF3922900222E51D
:1007600038F080D285374AE4900222F0AF4A2290D6
:100770000223E06036900222E07030900222E00412
:10078000F0122D637D037F41122D967D080F122DEF
:1007900096122376900223E0FF900222E0C39F404E
:1007A000DAE4F07FC8122AD9020479E54F540444F0
:1007B00008F54F7C287DDF122367E54A700B8549D9
:1007C00082854883E0F5378012E54AB42E0AE4FFBB
:1007D000122B10E4F5378003AF4A227F02122AD988
:1007E000E4900218F07D247F12122B461222938F80
:1007F00039E5397023E5376018900218E0701285EA
:100800004982854883E0B405089002187401F0809D
:10081000D47D037F02022C86E537600E900218E03B
:10082000C394035005E004F080BB1229DB22E56885
:10083000245CF8E60568227859300702785CE47594
:10084000F00112158F0215372000EB7F2ED20080A9
:1008500018EF540F2490D43440D4FF30040BEF240D
:10086000BFB41A0050032461FFE5696002156905F1
:100870006CE56C7002056B30070D7859E475F0017A
:1008800012158FEF02157D022BF77403D207800338
:10089000E4C207F5688B598A5A895BE4F569F56B00
:1008A000F56CE56960077F2012086980F5756AFFBD
:1008B000C201C200C202C203C205C206C2081208B7
:1008C00037FF700D3007057F0012087AAF6CAE6BF2
:1008D00022B4255FC2D5C204120837FF24D0B40A5F
:1008E00000501A75F00A786930D50508B6FF010680
:1008F000C6A426F620D5047002D20380D924CFB432
:100900001A00EF5004C2E5D204020A7AD20180C66E
:10091000D20080C0D20280BCD2D580BAD20580B4C9
:100920007F201208692002077401B5690040F112A6
:10093000082EFF1208690208A2D208D2068095127A
:10094000082EFB12082EFA12082EF94A4B7006796F
:100950004B7A0B7BFF20022EE569602A7E008E8297
:1009600075830012155060060EEE656A70F0C2D5F0
:10097000EBC0E0EAC0E0E9C0E0EE120AC1D0E0F965
:10098000D0E0FAD0E0FB121537FF60AAEBC0E0EA36
:10099000C0E0E9C0E0120869D0E02401F9D0E034F9
:1009A00000FAD0E0FBE56A0460DCD56AD980877B79
:1009B000FF7A0A79BDD202809C791080027908C240
:1009C00006C2088008D2D5790A8004790AC2D5E522
:1009D0006A047002F56AE4FAFDFEFF12082EFC7B41
:1009E0000820011312082EFD7B1030000A12082E79
:1009F000FE12082EFF7B20EC3382D592D55013C314
:100A0000E43000069FFFE49EFEE42001039DFDE428
:100A10009CFCE4CBF8C201EC700CCFCECDCCE8242A
:100A2000F8F870F38017C3EF33FFEE33FEED33FDBC
:100A3000EC33FCEB33FB994002FB0FD8E9EB3001C0
:100A400005F8D0E0C448B201C0E00AEC4D4E4F7842
:100A5000207B0070C2EAB56A0040BCC0E0120AC345
:100A6000D0F0D0E0200104C4C0E0C4B201C0F01254
:100A70000852D0F0D5F0EB0208A212159F093F539F
:100A800009B95809104C090C4209BD4F09C5440960
:100A9000C54909254309CB5509AF4609AF4509AFFB
:100AA000470B6B5009142D09182E093B2B091C23E9
:100AB0000939200B542A08D448000009333F3F3F2E
:100AC00000790AA2D5200314300509B910020404E4
:100AD000B9080104A2D52006025001042002689240
:100AE00002B569005034C0E07F203003197F30A286
:100AF0000272067205500F120B1AC202C206C2051C
:100B0000C2087F30800F300503E9C0E01208693069
:100B10000503D0E0F9D0E0B569CC3005177F30B9D6
:100B2000100C1208697F583004077F788003B908D9
:100B3000031208693002057F2D0208697F20200812
:100B4000F87F2B2006F322920280CF286E756C6C02
:100B50002900D20112082E3001F8C201786930D57F
:100B60000108F60208D42D5043495812082E2403D8
:100B7000B405004001E4900B669312085A743A12CF
:100B8000085AD2037569040209B9E540C3940350B9
:100B90000A12046FEF600122122565122DE6E4F5BA
:100BA0002EE4F526F525F524F523121C2DEF600D16
:100BB000122A9E122565121C2DEF600122E52E706F
:100BC0000D854982854883E054FD64E96053E4FD66
:100BD000ED64406049E54924BEFFE5483401FEED7F
:100BE0007A002FFFEA3EF583EF2404F582E4358393
:100BF000F583E06023E54924BEFFE5483401FEEDBE
:100C00002FFFEA3ECF2408CF3400FE122D538F264B
:100C10008E258D248C23800974102DFD80B27F9247
:100C200022AF26AE25AD24AC239002011214291266
:100C30001C2DEF600122854982854883E054FD64C4
:100C4000E960037FA122E549240DF582E43548F5EA
:100C500083E0F522F5479002097406F0E54720E6A7
:100C600011E54725E0F547900209E014F070ED75B5
:100C70002201E5492416122DD7900207EEF0A3EFCA
:100C8000F04E702CE5492424122D4E8F348E338D76
:100C9000328C31E4FBFA7901F8D31213CD5007E519
:100CA0002E60037FA222900207E533F0A3E534F023
:100CB000E5492414F582E43548F583E0FFE549244D
:100CC00013F582E43548F583E04F6012E5492413BB
:100CD000122DD7E48F3D8E3CF53BF53A800FE54968
:100CE0002420122D4E8F3D8E3C8D3B8C3AE54924BD
:100CF00011122DD7CCEECCCDEFCD900216E0FEA395
:100D0000E07805CEC313CE13D8F9147E002DFFEE84
:100D10003CFEE53024FBFDEFC8EDC8088005CEC3DE
:100D200013CE13D8F9FFE4FCFD90021E121429E53E
:100D300049240E122DD78E3E8F3F900208E0253FAA
:100D4000FF900207E0353EFEE4FCFD90021EE0F855
:100D5000A3E0F9A3E0FAA3E02FF534EA3EF533ED82
:100D600039F532EC38F531E5492410F582E435489F
:100D7000F583E0D39401401E900207E0FEA3E0FF5C
:100D8000E5342FF534E5333EF533ED3532F532EC0D
:100D90003531F5318007E4900207F0A3F0C3E53D5B
:100DA0009534FFE53C9533FEE53B9532FDE53A95FC
:100DB00031FC900209E0F81213DE90020E121429A1
:100DC000E47BF57AFFF9F8D31213CD401FE49002CB
:100DD00005F0A3F0900210E0FEA3E094F5EE940F6E
:100DE00050057547018024754702801FE54924306E
:100DF000122DD7900205EEF0A3EFF0E549242C1256
:100E00002D4E90021E121429754703E53F453E60A2
:100E10004E90021EE0FCA3E0FDA3E0FEA3E0FFEC89
:100E20004D4E4F603AE5492410F582E43548F5838C
:100E3000E0D39401400A900207E07002A3E0601F33
:100E4000E549240BF582E43548F583E07011E54966
:100E5000240CF582E43548F583E0C39402500AE59A
:100E60002E7006752E01020BA1E53F2526FFE53EFB
:100E70003525FEE43524FDE43523FC90020A1214E6
:100E800029E5342526FFE5333525FEE5323524FDF9
:100E9000E5313523FC9002121214297D107F0312D4
:100EA0002C86228D59EFC8E547B402071214047846
:100EB000018008B4031212140478021213F18F5D3A
:100EC0008E5C8D5B8C5A802B1214048E5A8F5BEFD4
:100ED00030E00543451080035345EFE55AC313FE48
:100EE000E55B13255BFFE55A3EFEE48F5D8E5CF506
:100EF0005BF55A900217E024FFFD900216E034FFE4
:100F00005EFEED5F2549F52FEE3548F52EAF5DAE5F
:100F10005CAD5BAC5A122CA290020AE0F8A3E0F997
:100F2000A3E0FAA3E02FF55DEA3EF55CE93DF55B51
:100F3000E83CF55AE55D652A7012E55C6529700CA0
:100F4000E55B65287006E55A6527601D30090712C4
:100F50002767EF600122855A23855B24855C258500
:100F60005D26121C2DEF600122E5596023B4FF02BB
:100F70008006E559B4010BE4F55DF55CF55BF55AC7
:100F8000800C85315D85325C85335B85345AD209AE
:100F9000E5476402703F852F82852E83E0F536A3F6
:100FA000E0F537853639853738E4F536F537AE382C
:100FB000AF39C3EF94F7EE94FF4003D38001C3929F
:100FC0000BE559600D852F82852E83E55AF0A3E548
:100FD0005BF07F0022E5476403705A852F82852EDF
:100FE00083E0FCA3E0FDA3E0FEA3E0F5398E388D9D
:100FF000378C36E53954F0FFE55D540F4FF55DE56C
:1010000039540F853639F536AF388537388F37AFD5
:1010100036EFC3940F4003D38001C3920BE55960B0
:1010200011AF5DAE5CAD5BAC5A852F82852E83120D
:1010300014297F0022535B0F900217E02549FF908F
:101040000216E03548CF24FFCF34FFFEEF652F7046
:1010500003EE652E6056852F82852E83E0F536855A
:101060002F82852E83A3E0F537E559700302112BFB
:10107000E54530E423E55AC454F0FFE536540F4FFC
:10108000852F82852E83F0E55BC454F0FFE55AC4BA
:10109000540F4FA3F002112B852F82852E83E55A22
:1010A000F0E53754F0455BA3F002112B852F8285C4
:1010B0002E83E0F536E5596024E54530E40EE55A27
:1010C000C454F0FFE536540F4FFF8002AF5A852F0E
:1010D00082852E83EFF0122767EF600122E52A2434
:1010E00001F526E43529F525E43528F524E43527EE
:1010F000F523121C2DEF600122854982854883E08B
:10110000F537E5596025E54530E40FE55BC454F05B
:10111000FFE55AC4540F4FFF8007E53754F0455B95
:10112000FF854982854883EFF0D209E54530E41315
:10113000E537C454F0FFE536C4540F4FF539E537B1
:10114000C48005853639E537540FF538E4F536F5B2
:1011500037AE38AF39C3EF94F7EE940F4003D38026
:1011600001C3920B7F00221200038F35E535700A10
:1011700012243AEF70030212DA22E535644260036A
:10118000AF3522900217E024E0FF900216E034FF12
:10119000FEC3E53F9FE53E9E50030212DAE53D7037
:1011A0000FE53A700BE53B7007E53C7003021268EF
:1011B000900215E0FF90021CE0C39FFFE52214FEA1
:1011C0005FF535E53F6008EE653560030212DA7FB2
:1011D0003AE4FD120EA3EF600122200B030212DAA3
:1011E000122CF2EF6001227F3A7D02120EA3EF6013
:1011F0000122122767EF600122122DE6E4FFFE9024
:101200000216E06EFCA3E06F4C6013E5492FF582F7
:10121000E5483EF583E4F00FBF00010E80E1E4F500
:10122000351228FFE53F7012F53EF53FAF26AE259B
:10123000AD24AC23900219121429852236E53660BC
:1012400020121AE0EF600122E5262401F526E4359C
:1012500025F525E43524F524E43523F523153680DA
:10126000DC12266DEF607322E53F706E900219E08C
:10127000FCA3E0FDA3E0FEA3E024FFFFEE34FFFEAD
:10128000ED34FFFDEC34FFFC900219121429121CFE
:101290001BEF600122E4F53EF53FD3900217E09585
:1012A0003F900216E0953E402EE549253FFFE54878
:1012B000353E8F82F583E0B4E510E582240BF5829C
:1012C000E43583F583E0540E60107420253FF53F2C
:1012D000E4353EF53E80C37FB222122CF2EF60016E
:1012E00022122767EF6001227F06122DFFEF54BF05
:1012F000648060037F112285343D85333C85323B19
:1013000085313A12266DEF600122121C1BEF60013D
:1013100022E549253FFFE548353EFEE4FDEDC39457
:101320000B50047C2080027C00EF2DF582E43EF51A
:1013300083ECF00DBD20E6EF2418F582E43EF58342
:101340007421F0A37430F0EF241CF582E43EF583A1
:101350007401F0E4FDEDC3940B5021A82DE6FC6070
:101360001BECB42E047D08052DA82DE6FCEF2DF511
:1013700082E43EF583ECF00D052D80D9853D368560
:101380003C37853B38853A39EF241AF582E43EF53F
:1013900083E536F0A3E537F0EF2414F582E43E123E
:1013A0001AD7EF600122853D34853C33853B328579
:1013B0003A31E4F544F543F542F541F54EF54DF586
:1013C0004CF54BF5357D147F10122C8622EB9FF5E2
:1013D000F0EA9E42F0E99D42F0E89C45F022E86088
:1013E0000FECC313FCED13FDEE13FEEF13FFD8F16A
:1013F00022E8600FEFC333FFEE33FEED33FDEC3335
:10140000FCD8F122E6FC08E6FD08E6FE08E6FF222D
:10141000E6FB08E6F908E6FA08E6CBF822ECF6085F
:10142000EDF608EEF608EFF622ECF0A3EDF0A3EEF1
:10143000F0A3EFF022D083D082E493F608740193F6
:10144000F608740293F608740393F6740473E709BC
:10145000F60870FA8046E709F20870FA803E888242
:101460008C83E709F0A370FA807EE309F60870FA2E
:101470008076E309F20870FA806E88828C83E30933
:10148000F0A370FA806289828A83E0A3F60870FA7A
:10149000805689828A83E0A3F20870FA804A80D25B
:1014A00080FA80C680D4806580F28031801080A66A
:1014B00080EA809A80A880DA80E280CA80318982BE
:1014C0008A83ECFAE493A3C8C582C8CCC583CCF068
:1014D000A3C8C582C8CCC583CC70E9800D89828A37
:1014E00083E493A3F60870F9ECFAA9F0EDFB2289E6
:1014F000828A83ECFAE0A3C8C582C8CCC583CCF04D
:10150000A3C8C582C8CCC583CC70EA80DD89828A35
:1015100083E493A3F20870F980CE88F0ED2402B43E
:10152000040050C4F582EB2402B4040050BA232313
:1015300045822390149E73BB010689828A83E02230
:101540005002E722BBFE02E32289828A83E49322CF
:10155000BB010CE58229F582E5833AF583E0225050
:1015600006E92582F8E622BBFE06E92582F8E2229A
:10157000E58229F582E5833AF583E49322BB0106EF
:1015800089828A83F0225002F722BBFE01F322FAFD
:10159000E6FB0808E6F925F0F618E6CA3AF622D086
:1015A00083D082F8E4937012740193700DA3A39317
:1015B000F8740193F5828883E4737402936860EF92
:1015C000A3A3A380DFD294C2947F64122AD9D294B9
:1015D000122DC67BFF7A2179BD120890122C628FE2
:1015E00050122C1E7BFF7A2179C41208907F0A12B8
:1015F0002AD91220BAEF70F5C2947FC8122AD9E412
:10160000F5507F64122AD97BFF7A2179D012089095
:10161000122A21EF60090550E550C3940540E3E527
:1016200040D3940240BEC2957BFF7A2179D912083B
:1016300090786D7C007D007BFF7A2179DF12151A8E
:101640001200038F50E550702C7BFF7A2179EB85D7
:10165000445F85435E85425D85415C1208907BFF57
:101660007A2179FC120890786D121435FFFFFFFF84
:101670001229938013E550B44212C2967BFF7A225E
:1016800079091208901211678F508002AF50122C06
:101690001EC2967BFF7A227911120890755CFF7545
:1016A0005D22755E1E854462854361854260854189
:1016B0005F7B007A00796E12088A8F50786DA65091
:1016C0001217928F50122C1E7BFF7A227937120844
:1016D00090755208D28C755105E58B541F755300D7
:1016E000F554AF8CEFAD8AF555EDF556755CFF7589
:1016F0005D22755E47755F00855160855361855435
:1017000062756300855264855565F5667B007A00D5
:10171000796E12088A8E578F58786DA60712179225
:101720008F50122C1E0552E552B414A87BFF7A226A
:10173000795F120890786E7C007D007BFF7A2279B9
:101740006A12151A7B007A00796E122D788F507804
:101750006DA6501217928F50122C1E7BFF7A2279A1
:1017600082120890786D76011225ED8F50122C1E92
:10177000D296D2957BFF7A2279891208907F0A123D
:101780002AD91220BAEF60F5D2947FC8122AD90262
:1017900015E4E54064156007122BCFEF6001227855
:1017A0006DE6F52D7006300A03022949E4786DF6DE
:1017B000E52D7003021941E535F47077E53D700CB5
:1017C000E53A7008E53B7004E53C602585344E85BC
:1017D000334D85324C85314B122CFEEF6001227F58
:1017E0004B7D02120EA3EF600122122767EF600803
:1017F000221226ECEF60012285344E85334D85326E
:101800004C85314B74FFF534F533F532F531122642
:1018100077CBEFCB854E34854D33854C32854B31BC
:10182000EB60012285444E85434D85424C85414BFA
:10183000E4F5351228FF121C2DEF600122900216EC
:10184000E0FCA3E0FD24FFFBEC34FF554DFEEB551F
:101850004EFFC3ED9FFFEC9EFEC3EF952DEE94006F
:101860004005852D368006E54EF404F536900217C6
:10187000E024FFFD900216E034FF554DFEED554E7D
:101880002549F52FEE3548F52EAF36E4FCFDFEE593
:101890004E2FF54EEE354DF54DED354CF54CEC3506
:1018A0004BF54BC3E52D9536F52D786DE6246EFF8F
:1018B000E53626F6C8EFC8E6852F82852E83F0052B
:1018C0002FE52F7002052E0FD536E9121AE0EF60D2
:1018D0000122AF4EAE4DAD4CAC4BAB44AA43A94236
:1018E000A841C31213CD500E854E44854D43854CFF
:1018F00042854B41D20A900217E024FFFD90021668
:10190000E034FF554DFEED554E4E60030217B00515
:1019100035E535C3952250030217B07F31E4FD123F
:101920000EA3EF600122300B067535FF0217B0855C
:101930003631853732853833853934E4F535021749
:10194000B07F0022E4F534F533F532F53190020E24
:10195000E0FCA3E0FDA3E0FEA3E0FFAB34AA33A9C3
:1019600032A831D31213CD40037FB122E5342401D4
:10197000F534E43533F533E43532F532E43531F519
:10198000317F31E4FD120EA3EF600122E539700FC3
:10199000E536700BE5377007E5387003021ACFE5BE
:1019A00047640160A885482E85492FE54764027089
:1019B00051900216E0C313FEA3E01324FFFFEE34A0
:1019C000FFF5368F37F5388F397402252FF52FF54F
:1019D00082E4352EF52EF583E07011A3E0700D85BD
:1019E0002F82852E8374FFF0A3021A57E537600912
:1019F000D537D6E536600880D01536153780CA024F
:101A00001AB6900216E0FEA3E07802CEC313CE13FE
:101A1000D8F924FFFFEE34FFF5368F37F5388F39CC
:101A20007404252FF52FF582E4352EF52EF583E08D
:101A30006003021A9BA3E06003021A9BA3E0705BA1
:101A4000A3E0540F7055852F82852E8374FFF0A379
:101A5000F0A3F0A3E0440FF0AE38AF39EF4534FF08
:101A6000EE4533FEE532FDE531FCEEC0E0EFC0E0CF
:101A7000E53724FFFFE53634FFCBEFCBFAD0E0FFAC
:101A8000D0E0FEC3EF9BF534EE9AF533ED9400F50C
:101A900032EC9400F531D2097F0022E53760101551
:101AA00037E5376003021A20E536600A021A20156E
:101AB000361537021A20AE38AF39E5344FF534E524
:101AC000334EF533E532F532E531F53102194D7F0C
:101AD000317DFF120EA322F583E538F0A3E539F03E
:101AE000E4F5467F237B2A7D011227D5E54A600372
:101AF000021BF37DC87F06122D96E54F30E6047F6A
:101B00004080027F80AC48AD498C278D28122BA3E2
:101B10008E278F287D407F0B122D96634F40AD4F4F
:101B20007F0E122D96E530B409047F088010B40AA8
:101B3000047F108009B40B047F2080027F408F3720
:101B4000E53764016016E54F30E6047F4080027F90
:101B500080AD28AC27122BA38E278F28121EA2E55A
:101B60004A60187DC07F06122D96E54A642E6003F8
:101B7000021BF3E546707CAF2C8050634F40E53785
:101B800064016007AD4F7F0E122D96D537B27DC030
:101B90007F06122D9690BDF1740DF090BCF0E52BF0
:101BA000F0E54FF0D20B852327852428852529854C
:101BB000262A634F80121EA2E54A6017634F80E514
:101BC0004A642E702EE546702AAF2B122B107546F4
:101BD0000180C27F0B122DFFBF0D187FCC122DFF8D
:101BE000EF7006122E117F00227FCC122DFFEF64C2
:101BF00001600BE54AB416037F8222122A9EE54655
:101C0000C39405500FE546C3940340031229DB0536
:101C100046021AE3122CBF1229DB22900219E0F5CA
:101C200023A3E0F524A3E0F525A3E0F526E526654A
:101C30002A7015E5256529700FE52465287009E5EA
:101C40002365277003021D56E4F5467F237B287D1C
:101C5000011227D5E54A6003021D2F90BDF17406DD
:101C6000F090BCF074CCF090BDF1740DF090BCF02D
:101C7000E52BF0E54FF0D20B634F408548278549AF
:101C800028E530B409047F088010B40A047F10806E
:101C900009B40B047F2080027F408F37121EA2E51B
:101CA0004A60097DC07F06122D968050634F80E503
:101CB0003764016007AD4F7F0E122D96E54F30E778
:101CC000047FC080027F80AD28AC27122B778E273F
:101CD0008F28D537C77DC07F06122D96AD4F7F0E5A
:101CE000122D9685232785242885252985262A6374
:101CF0004F80121EA2E54A601A634F80E54A642EA7
:101D0000702DE5467029AF2B122B10754601122D50
:101D1000B480D07F0B122DFFBF0D147FCC122DFF8E
:101D2000EF7002FF227FCC122DFFEF6401600BE504
:101D30004AB416037F8222122A9EE546C3940550B8
:101D40000FE546C3940340031229DB0546021C4BF2
:101D5000122CBF0229DB7F0022E5406415600712C8
:101D60002BCFEF600122786DE6F52DE4F6E52D70BE
:101D700003021E8E900216E0FCA3E0FD24FFFBECA4
:101D800034FF554DFEEB554EFFC3ED9FFFEC9EFE1D
:101D9000C3EF952DEE94004005852D368006E54E67
:101DA000F404F536AF36EF254EFFE4354DFEE4354D
:101DB0004CFDE4354BFCAB44AA43A942A841D312E5
:101DC00013CD500CC3E544954EF5367003021E8EBC
:101DD0001228FF121C2DEF600122900217E024FF51
:101DE000FD900216E034FF554DFEED554E2549F5A8
:101DF0002FEE3548F52EAF36E4FCFDFEE54E2FF50F
:101E00004EEE354DF54DED354CF54CEC354BF54B77
:101E1000C3E52D9536F52D786DE6246EFFE5362663
:101E2000F6852F82852E83E0C8EFC8F60F052FE5D3
:101E30002F7002052ED536E9900217E024FFFD90A1
:101E40000216E034FF554DFEED554E4E6003021D67
:101E50006D0535E535C395225003021D6D7F31E4D4
:101E6000FD120EA3EF600122300B117535FF854E78
:101E700044854D43854C42854B41801285363185E2
:101E80003732853833853934E4F535021D6D7F00EE
:101E90002290BDF1740DF090BCF0E52CF0E54FF010
:101EA000C20BE4F539E4F54A122E1690BDF174091F
:101EB000F0E030E06B90BCF07411F0E0FF300B0EFE
:101EC0005407B40313EF30E436E4F54AFF22540F0D
:101ED000B40205E4F54AFF22EF540FFEBE0A05E501
:101EE0004520E729EF54037003D38001C34007EE78
:101EF0004420FFF54A227F09122DFFEF20E121E562
:101F000045540FFF0539AE39EED39F500D7F0E12A9
:101F10002DFFEF4408FD7F0E8027754A207F202289
:101F2000754AFF7F04122DFFD54AF87F09122DFF55
:101F30008F39E53930E173122A61BF090A7D027FCA
:101F400009122D96021EA5754001E4900223F07D32
:101F5000137F09122D9690021DE060047DC080025F
:101F60007D807F06122D96122A61EF603775400240
:101F700090021DE0D394015007E5395480FF80158D
:101F80007F02122DFF90021DE0B403047E20800228
:101F90007E10EF5EFFEF6006754A157F1522754AC9
:101FA000137F1322754A167F16227D1F7F09122D7B
:101FB00096E53930E306754A067F0622754A057FA5
:101FC0000522E540C3941350037FB422121C1BEF7B
:101FD000600122C209E549253FFFE548353ECBEFC8
:101FE000CBFA7875E6FFEB240BF582E43AF583E053
:101FF000F6EFF460138B828A83E582240BF582E48A
:102000003583F583EFF0D2097873E6F53908E6F504
:1020100038EB2416FFE43AFE122DDC18EEF608EF3A
:10202000F6E538F4FEE539F44E6012EB2416F5823D
:10203000E43AF583E538F0A3E539F0D2097871E6A2
:10204000F53908E6F538EB2418FFE43AFE122DDCEA
:1020500018EEF608EFF6E538F4FEE539F44E6012B6
:10206000EB2418F582E43AF583E538F0A3E539F07E
:10207000D209786D121404787912141DEB241CFF18
:10208000E43AFE122D53786D12141D7879E6F4604F
:102090001E1214048F448E438D428C41122E0AEB83
:1020A000241CF582E43AF583121429D209C20A30BD
:1020B0000905C209021AE07F00227F06122DFFEFF8
:1020C00054404480FD7F06122D967F09122DFFEFAC
:1020D00030E112122A61EF64096003122C407D1373
:1020E0007F09122D96122A61EF70030221ACE540A0
:1020F000C394025008754002E4900223F09002233A
:10210000E07002FF22122D8D900222E06049122D14
:10211000A1E54A702E854982854883A3A3E030E07B
:1021200009754002122D6312237685498285488302
:10213000E030E01E900222E02410FD7F08122D9670
:102140007F0022E54A64166063E54A30E5045403E3
:10215000605A754002804D900222E004F0122DA1D9
:10216000E54A7024854982854883A3A3E030E006D0
:10217000122D63122376854982854883E030E0176B
:10218000A3E020E1127F0022E54A6416601EE54AC2
:1021900030E50454036015900223E0FF900222E032
:1021A000C39F40B3E4900222F07F8422122C40228D
:1021B0004572726F723A20253032580A00537461AA
:1021C00072740A005761697420556469736B0A0060
:1021D0005265616479203F0A004F70656E0A002FD6
:1021E0004D595F4144432E5458540046696C652054
:1021F00073697A65203D20256C640A004C6F636129
:102200007465207461696C0A004372656174650AC3
:1022100000577269746520626567696E0A00B4CB05
:10222000C7B0CEC4BCFEB3A4B6C83D20256C6420A4
:10223000D7D6BDDA0D0A0057726974652041444350
:1022400020646174610A00253032642E25303264C6
:102250002E25303264204144433D25750D0A005738
:102260007269746520656E640A00BDF1CCECB5C47A
:10227000414443CAFDBEDDB5BDB4CBBDE1CAF80DD6
:102280000A00436C6F73650A0054616B65206F75BB
:10229000740A00E4900225F0A3F0A3F0900218E085
:1022A000900229F0E4F5387C287DAA7F04122D22C3
:1022B0007A027B247D117F48122D387D1F7F0B12FF
:1022C0002D96121E91E54AB416037F8222E54A60DC
:1022D0000FE5386003022358122A9E75380180C723
:1022E000634F40900224E06049122DB4121EA2E513
:1022F0004A600DE54A642E705FAF2B122B108032BE
:10230000634F807F0B122DFF8F397F4F122DFFBF40
:10231000030A7F53122DFFEF6412600E122DE6ABFD
:1023200049AA48AD397FC0122CD9900224E0C39548
:1023300039F0122DB4121EA2E54A701C634F807F43
:10234000CC122DFF8F397F0B122DFFBF0D07E53902
:10235000C394024006754A1F022A9EE5397002FFA7
:1023600022754A1F7F1F227F08122D22900200E053
:10237000FD7F44122D967F01122AD97D087F0B1212
:102380002D967DD07F0D122D967D0C0F122D96C2AD
:102390000B121EA2E54A6003AF4A22D20B7F4612FF
:1023A0002DFFEF606C122DE67F01122AD97D907F00
:1023B0000D122D960F122DFFEF6480440CFD7F0E41
:1023C000122D96121EA2E54A6003AF4A227F0B121D
:1023D0002DFF8F4A7F47122DFF8F39AF39EF2549E7
:1023E000FBE43548FAAD4A7FC0122CD9E54A2539BD
:1023F000F539AD397F47122D961F122DFFE539C3F0
:102400009F500CE54A5407609F754A177F1722C2F8
:102410000B7F01122AD9E4FD7F0B122D96300B049D
:102420007F0980027F01EFC454F0FD7F0D122D96CD
:102430007DCC0F122D96121EA222E540C39413509C
:1024400007120003EF600122122C82EF60012212BA
:102450001C1BEF600122E549253FFFE548353E8F13
:1024600082F58374E5F0121AE0EF600122AF3DAE11
:102470003CAD3BAC3A8F398E388D378C36EC4D4EB7
:102480004F604EE53D24FFF53DE53C34FFF53CE56E
:102490003B34FFF53BE53A34FFF53AE4F534F533E8
:1024A000F532F5317F367D01120EA3EF600122E592
:1024B000342401F534E43533F533E43532F532E4D0
:1024C0003531F531300BDD122767EF60012202262E
:1024D000777F0022E53D700CE53A7008E53B70041B
:1024E000E53C6072853D34853C33853B32853A312D
:1024F000AF22E4FCFDFE786D121410C31213CD4020
:10250000387F31E4FD120EA3EF600122200B4785D6
:102510003631853732853833853934786D12140475
:10252000AB22C3EF9BFFEE9400FEED9400FDEC9414
:1025300000FC786D12141D80B77870E6FFE5221458
:102540005FF5351228FFAF26AE25AD24AC23786D9C
:1025500012141D7F00227535FF786D121435FFFFB0
:10256000FFFF7F00227537647D087F25122B469080
:10257000022A740AF0E490022FF01222938F36E5BB
:10258000367044E5492406F582E43548F583E0FFDA
:10259000B4040575300A8013B4080575300B800B40
:1025A000B4100575300C800375300974017E00A8E5
:1025B00030088005C333CE33CED8F9900217F0EE41
:1025C000900216F07F0022E5366416601DE5366441
:1025D000156017E53664136011122D0B7F32122A35
:1025E000D91537E5376003022568AF3622E540C3C9
:1025F000941250037FB422E5406412704FE54764A3
:10260000036049900221E0F522AE43E544A830087A
:102610008005CEC313CE13D8F9FFE4FCFD90021E53
:10262000121429900212E0F8A3E0F9A3E0FAA3E063
:10263000FB900221E0FFE4FCFDFEEB2FFFEE3AFEF3
:10264000ED39FDEC38FC900212121429E540D394C8
:1026500013400AE540B41407786DE67002C20A30F0
:102660000A07122949EF600122122C822274FFF519
:1026700034F533F532F531900205E0FCA3E0FD4C72
:102680007002FF22EDCFECCEE4FCFD900201E0F8F9
:10269000A3E0F9A3E0FAA3E02FF526EA3EF525ED45
:1026A00039F524EC38F523121C2DEF600122E549A1
:1026B00024E8FFE5483401FE122D53E5342FF534AC
:1026C000E5333EF533E5323DF532E5313CF531AFEA
:1026D00034AE33AD32FC122E0AE54924E8F582E52A
:1026E000483401F583121429121AE02212194DEF11
:1026F000600564B1600122EF6007121944EF6001C8
:1027000022122767EF60012285343D85333C8532F4
:102710003B85313A121C1BEF600122E549253FFF42
:10272000E548353EFEF583EF241CF582E43583F55C
:10273000837401F0853D36853C37853B38853A39D1
:102740008F828E83E582241AF582E43583F583E552
:1027500036F0A3E537F08F828E83E5822414F5826C
:10276000E43583121AD72285272385282485292535
:10277000852A26121AE0EF600122900207E0FEA3EC
:10278000E0FF4E604BE4FCFDE5262FF526E5253EF7
:10279000F525ED3524F524EC3523F523121AE0EF69
:1027A000600122900207E0FEA3E0FBCAEECAC3E587
:1027B000269BF526E5259AF525E5249400F524E5E4
:1027C000239400F523F52785242885252985262AA5
:1027D000C2097F002290BDF17440F090BCF07455A6
:1027E000F07453F07442F004F090BDF17448F0E4DA
:1027F00090BCF0F0E53024F8F8ED088002C333D83F
:10280000FCF0E4F0F0BB2A03FE80027E80EEF09044
:102810000218E090BCF0F0740AF0EBF0E4F0EFC8BE
:10282000E6F008E6F008E6F008E6F0E4F0F0EDF097
:10283000E4F090BDF1740BF090BCF0741FF0021E38
:1028400091E4F5407D557F80122D967DAA0F122DC3
:10285000961F122DFFBF550A7F81122DFFEF64AA2C
:1028600060037F8122E4FD7F06122D967F0E122DDC
:1028700096754585E4F5469002167402F0A3E4F0DF
:1028800090021DF0F54F7D1F7F09122D967F0712D4
:102890002DFFEF54F04403FD7F07122D967D407FFE
:1028A00005122D96122C407F0022555342430021E1
:1028B000FF00000000000080060001000012000080
:1028C000050200000000008006000200000400A0D5
:1028D000060029000009000009000000000000A116
:1028E000FE0000000001000201000000000000A343
:1028F000000000010004002301100001000000E5B9
:102900003424FEFFE53334FFFEE53234FFFDE531CC
:1029100034FFFC900209E0F81213F1900212E0F883
:10292000A3E0F9A3E0FAA3E02FFBEA3EFAE93DF9C0
:10293000E83CF8E4FCFDFEEB2535F526EE3AF525FE
:10294000ED39F524EC38F52322C20AE540C394148E
:10295000403E121C1BEF600122E549253FFFE54880
:10296000353ECBEFCBFAF583EB240BF582E43583D0
:10297000F583E020E41AAF44AE43AD42AC41122EE1
:102980000AEB241CF582E43AF583121429021AE0BA
:102990007F0022E54064156007122BCFEF60012213
:1029A000786D1214048F4E8E4D8D4C8C4BAB44AA17
:1029B00043A942A841C31213CD500C85444E854310
:1029C0004D85424C85414BAF4EAE4DAD4CAC4B129C
:1029D0002CA2786D12141D1224D4227F02122AD93F
:1029E0007D117F09122D96122A61EF600BE54A6472
:1029F000166005E540B40103022C40E540C3940392
:102A00004015854A377D127F03122B46122293858B
:102A1000374A7F02122AD9E54A70037F1022AF4A53
:102A2000221220BAEF600122E540C39403501B122A
:102A3000046FEF600C7F32122AD912046FEF60012D
:102A400022122565EF60030229DBE4FDFF122B460D
:102A50001222938F36E5367002FF22122D0BAF360D
:102A60002290021DE0FEB401047F028006EEB40253
:102A70000A7F03122DFFEF5409FF2290021DE0B4DC
:102A8000030D7F03122DFFEF5490C4540FFF22E477
:102A900090021DF07F09122DFFEF5420FF22854A7E
:102AA000387F02122AD91220BA8F4AE54A6003AF52
:102AB0004A227C287DAF122367E54AB416037F8241
:102AC00022E54A700AAF2B122B10AF2C122B107F6D
:102AD00002122AD9AF388F4A22CEEFCE7F06122DAE
:102AE000FFEFF4602AEF30E7268E397F04122DFFC6
:102AF000EF20E5F7AF391539EF60147F04122DFF91
:102B0000EF30E5F77F04122DFFEF30E5E780F52287
:102B10008F397C287DE77F08122D22E539C4540FB8
:102B2000FFBF090DE539540F4480F539534F7F80BD
:102B30000FE539C4540FFFBF010653390F534FBF80
:102B4000AD3912237122900224EDF060047E808062
:102B5000027E00900228EEF090022A7406F0A3EFA5
:102B6000F0E4A3F0A3F0A3F0A3EDF0E4A3F0A3F04E
:102B7000A3F0A3F0A3F02290BDF1EFF0ECFEEDFF87
:102B80007D1090BCF0E0FCE0FBE0FAE08E838F82E9
:102B9000CCF0A3EBF0A3EAF0A3ECF0A3AE83AF82FA
:102BA000DDE02290BDF1EFF0ECFEEDFF7D108E83B5
:102BB0008F82E0A3FCE0A3FBE0A3FAE0A3AE83AF27
:102BC0008290BCF0CCF0EBF0EAF0ECF0DDE022E536
:102BD00040641460037FB422853D34853C33853BDB
:102BE00032853A31E4F54EF54DF54CF54BF5357D32
:102BF000157F14122C8622EFB40A07740D122C02D2
:102C0000740A309811A899B8130CC2983098FDA88E
:102C100099C298B811F63099FDC299F59922EF60E2
:102C20001E7BFF7A2179B0755C008F5D120890C21F
:102C3000947F64122AD9D2947F64122AD980F02218
:102C4000754001E4900223F0FD7F08122D9690025A
:102C50001DE060047DC080027D807F06122D967F7E
:102C60008222E581D394EE40037FFC22122E1AEFDC
:102C7000C3941450037FFF22754800754900122841
:102C800041227D107F10E540C39F40028D40E5400A
:102C90006D7002FF227540011220BAEF6001227FA1
:102CA0008322C3E4CC13CD13CE13FFE53024F760A9
:102CB0000DF8C3ED13FDEE13FEEF13FFD8F422124F
:102CC0002DE6754A1FE540B4120475400322E54025
:102CD000D3941040037540102290BDF1EFF0ED60E9
:102CE0001090BCF0E08B828A83F00BBB00010ADD00
:102CF000F022853D34853C33853B32853A311219CB
:102D00004DEF64B1600122121944227F0A122AD9C0
:102D10007D127F03122B461222937F02122AD9AF13
:102D20004A2290BDF17440F07E008D828C83EE9338
:102D300090BCF0F00EDFF32290BDF1EFF08B828AB1
:102D400083E090BCF0F00BBB00010ADDF022FFE451
:102D50003548FE8F828E83E0FFA3E0FEA3E0FDA353
:102D6000E0FC227C287DF77F08122D22900222E0D1
:102D7000547FFD7F44022D96E4FFFE121537600C50
:102D80000FEF70010E09E970F20A80EF2290021D28
:102D9000E02402FD7F0890BDF1EFF090BCF0EDF073
:102DA000227C287DEF7F08122D22900222E0547FA2
:102DB0001223702290BDF1740DF090BCF0E52BF061
:102DC000E54FF0D20B227598507587807589207574
:102DD0008DF3D28ED29922FFE43548FE8F828E8306
:102DE000E0FFA3E0FE2274FFF52AF529F528F52778
:102DF000C20922787FE4F6D8FD7581900215C5904E
:102E0000BDF1EFF090BCF0E0FF22EFCCFFEECDFE85
:0E2E1000227FFADFFE2220B2FD227F14222252
:00000001FF
