:020000040800F2
:1000000028130020690200084D0200084F02000872
:1000100053020008570200085B02000800000000BD
:100020000000000000000000000000005F02000867
:100030006102000800000000630200086502000879
:10004000830200088302000883020008830200087C
:10005000830200088302000883020008830200086C
:10006000830200088302000883020008830200085C
:10007000830200088302000883020008830200084C
:10008000830200088302000883020008830200083C
:10009000830200088302000883020008830200082C
:1000A000830200088302000883020008830200081C
:1000B0008302000883020008000000008302000899
:1000C0008302000800000000000000008302000816
:1000D00000000000672900088302000800000000FB
:1000E000830200088302000883020008DFF80CD0B6
:1000F00002F0F6FC00480047010100082813002028
:1001000041F288350024482001F094FF01F07EFB85
:1001100001F060FA01F010FF02F0B6FB01F01EF9E9
:1001200001F09BFA01F0FBFA01F0B0FA002002F0B6
:1001300040FA29462DA002F0E5FC32A002F0E2FCD4
:1001400036A002F0DFFC4FE0002002F0A2FA002807
:1001500042D0132804D0172806D01C2843D137E0FA
:10016000002001F01DFC3EE0002002F089FA00F0C2
:10017000010018B10121002002F06AFB002002F00A
:10018000CDFA0446002C0DDD22462B49002001F05B
:1001900021FD294929A002F0B5FC2246264900206C
:1001A00001F0ACFC2748008800F4004078B12548F5
:1001B0000088C0F30D0422462349002001F09EFC74
:1001C000002020490880611C1F4802F018FC0AE04A
:1001D000002001F06BFB06E020232A4601210020CD
:1001E00001F07EFB00BF00BFAEE70000544350208B
:1001F00053657276657220506F72743A2025640DD3
:100200000A000000573535303020496E69742043AC
:100210006F6D706C657465210D0A00005374617216
:100220007420544350205365727665722054657370
:1002300074210D0A000000004800002025730D0AFB
:10024000000000003E0000205E0E0020704700BF4E
:10025000FEE700BFFEE700BFFEE700BFFEE7704716
:1002600070477047704700000648804706480047BF
:10027000FEE7FEE7FEE7FEE7FEE7FEE7FEE7FEE756
:10028000FEE7FEE76B030008ED0000080CB5002058
:10029000019000906C48006840F480306A49086022
:1002A00000BF6948006800F4003000900198401CCD
:1002B0000190009818B90198B0F5A06FF1D162488B
:1002C000006800F4003010B10120009001E000202F
:1002D00000900098012843D15C48006840F010006D
:1002E0005A4908600846006820F003000860084684
:1002F000006840F002000860534840685249486076
:100300000846406848600846406840F4806048609D
:100310000846406820F47C1048600846406840F475
:10032000E81048600846006840F08070086000BF30
:100330004548006800F000700028F9D04248406845
:1003400020F00300404948600846406840F0020041
:10035000486000BF3C48406800F00C000828F9D114
:100360000CBD10B5FFF792FF10BD10B53648006800
:1003700040F00100344908600846406834490840AC
:100380003149486008460068324908402E490860F3
:100390000846006820F4802008600846406820F481
:1003A000FE0048604FF41F008860FFF7DAFF4FF04F
:1003B00000602949086010BD10B50021002000220E
:1003C000214B5B6803F00C0121B1042906D00829F8
:1003D00028D107E0214B224C236027E01F4B204C03
:1003E000236023E0184B5B6803F47010164B5B68C6
:1003F00003F48032022303EB904022B9194B4343AC
:10040000174C23600DE0104B5B6803F4003323B1FD
:10041000144B4343124C236003E0104B4343104CF6
:10042000236003E00D4B0E4C236000BF00BF064B62
:100430005B68C3F303130C4CE15C094B1B68CB40B6
:10044000074C236010BD0000001002400020024055
:100450000000FFF8FFFFF6FE08ED00E000127A0052
:100460000000002000093D00040000203149014344
:10047000314A1160704770B5002100230F22C47803
:1004800004B32D4C246804F4E064C4F5E064210A4C
:10049000C1F10403CA40447804FA03F1847814409B
:1004A00021430901254C0678A155047804F01F0565
:1004B0000124AC4005786D11AD0005F1E025C5F8CB
:1004C000004109E0047804F01F050124AC401C4DF4
:1004D0000678761145F8264070BD1A4A0A40024354
:1004E000154B1B1F1A60704739B1134A121D126851
:1004F0000243114B1B1D1A6006E00F4A121D1268C1
:1005000082430D4B1B1D1A607047042808D14FF021
:10051000E021096941F004014FF0E022116107E098
:100520004FF0E021096921F004014FF0E022116150
:10053000704700000000FA050CED00E000E400E068
:1005400080E100E080FFFF1F10B50446CC488442E4
:1005500008D10121042000F0B7FE0021042000F0A2
:10056000B3FE46E0C748844208D10121082000F0CC
:10057000ABFE0021082000F0A7FE3AE0C24884420A
:1005800008D10121102000F09FFE0021102000F072
:100590009BFE2EE0BD48844208D10121202000F0BE
:1005A00093FE0021202000F08FFE22E0B848844214
:1005B00008D10121402000F087FE0021402000F0FA
:1005C00083FE16E0B348844208D10121802000F068
:1005D0007BFE0021802000F077FE0AE0AE488442D6
:1005E00007D10121801500F06FFE0021A01500F059
:1005F0006BFE10BD10B50121084600F065FE00211C
:10060000012000F061FE10BD2DE9F04102460025F9
:100610000026002000230024002791F803C00CF0DE
:100620000F0591F803C00CF0100CBCF1000F03D0C3
:1006300091F802C04CEA050591F800C0BCF1000F2A
:1006400031D0146800202BE04FF0010C0CFA00F3BD
:10065000B1F800C00CEA03069E4220D183004FF09F
:100660000F0C0CFA03F7BC4305FA03FC4CEA040434
:1006700091F803C0BCF1280F06D14FF0010C0CFA21
:1006800000FCC2F814C00AE091F803C0BCF1480FA6
:1006900005D14FF0010C0CFA00FCC2F810C0401C50
:1006A0000828D1D31460B1F800C0BCF1FF0F34DDCD
:1006B000546800202EE000F1080C4FF0010808FA01
:1006C0000CF3B1F800C00CEA03069E4221D183006E
:1006D0004FF00F0C0CFA03F7BC4305FA03FC4CEA8D
:1006E000040491F803C0BCF1280F05D100F1080CF7
:1006F00008FA0CF8C2F8148091F803C0BCF1480F56
:1007000007D100F1080C4FF0010808FA0CF8C2F804
:100710001080401C0828CED35460BDE8F0814FF60D
:10072000FF710180022181700421C170704702466F
:10073000002093680B400BB1012000E000207047BF
:100740000146886880B2704702460020D3680B409B
:100750000BB1012000E0002070470146C86880B25C
:10076000704701617047416170470AB1016100E063
:1007700041617047C16070474FF480320A43826123
:100780008161826182698269704702460020434B21
:1007900018684FF68073184040EA021008433F4B38
:1007A000186070473E49C8617047F0B50A4600239B
:1007B00000240021002500F00046B6F1004F02D1D0
:1007C000364EF16901E0354E7168C0F3034583B2DE
:1007D00000F44016B6F5401F08D121F070612F4E8D
:1007E000766826F070662D4F7E6012E000F4801669
:1007F000B6F5801F06D1032606FA05F4A14341F0A1
:10080000706106E0460D360103FA06F6B14341F089
:10081000706122B1460D360103FA06F6314300F04D
:100820000046B6F1004F02D11C4EF16101E01B4EB3
:100830007160F0BD30B500228B071C0F0F2303FA47
:1008400004F2164B08338C1053F824309343134CA6
:1008500008348D1044F8253023468C1053F824308A
:100860008C07240F00FA04F423430C4C08348D1039
:1008700044F8253030BD0A49DC310860704700007B
:1008800000080140000C014000100140001401402C
:1008900000180140001C0140002001400000014000
:1008A0000000204210B50446BE48844208D1012110
:1008B000801400F009FD0021A01400F005FD16E0F1
:1008C000B948844208D10121001400F00AFD00213A
:1008D000201400F006FD0AE0B448844207D101214B
:1008E000C01300F0FEFC0021E01300F0FAFC10BD84
:1008F00010B50022028802F441520B884C88234331
:100900008C882343CC8823430C8923434C8923437D
:100910008C892343CC8923431A430280838B4FF273
:10092000FF74234083830B8A038210BD2DE9F04FAF
:1009300085B005460C464FF0000902274FF000082D
:100940004FF0010B0026B246A88B4FF24001084041
:10095000A88302202884B5F81C90A068022801D141
:1009600000BF38E0A08810B94FF0010B01E04FF054
:10097000020B8D48854200D100E000BF684600F0C0
:100980001CFCDDF800A0E088B0F5007F0AD14FEA3A
:100990001A2000EB80004000A168B0FBF1F0401D80
:1009A00086B20BE04FEA4B10BAFBF0F000EB800090
:1009B0004000A168B0FBF1F0401D86B20A20B6FBF2
:1009C000F0F606F00108A6EB0800C0F34F074FF65B
:1009D000FF7000EA0828022F01DBFF2F02DD02274B
:1009E0004FF00008E08840EA080038432884A088D7
:1009F000A1890843618808432188084340F40060C6
:100A000040EA0909A5F81C9005B0BDE8F08F002167
:100A1000018041808180C180018141818181C181CA
:100A20000721018270470021018041808180C180BF
:100A30000221816000218181704721B1028842F04A
:100A40004002028004E002884FF6BF731A40028021
:100A5000704721B1828B42F48062828304E0828BF2
:100A60004FF6FF331A408283704730B500240023CD
:100A70000C110125A540ABB21AB185881D438580B4
:100A800002E085889D43858030BD1AB183880B4381
:100A9000838002E083888B43838070478181704725
:100AA0000146888970474FF6FF62914204D0028860
:100AB00042F48072028004E002884FF6FF631A401D
:100AC0000280704721B1828842F00402828004E0F3
:100AD00082884FF6FB731A408280704702884FF27B
:100AE000FF731A40028002880A430280704701881F
:100AF00041F480510180704721B1028842F40052D4
:100B0000028004E002884DF6FF731A4002807047AD
:100B100002460020012901D0108B00E0908A704726
:100B20000146088A7047B1F5804F04D1028842F42B
:100B30008042028004E002884BF6FF731A40028074
:100B400070470246002013890B400BB1012000E0E2
:100B500000207047CA4302817047F0B5024600206A
:100B600000240023002501F00F070126BE40B4B287
:100B70000B1101269E40B3B2968806EA030516893A
:100B8000264016B10DB1012000E00020F0BD10B5E7
:100B9000002201F00F040123A3409AB2D343038142
:100BA00010BD00000030014000380040003C004013
:100BB00010B50446FB48844209D10121880300F0A6
:100BC00083FB00214FF4804000F07EFB32E0F648CA
:100BD000844209D10121480400F083FB00214FF435
:100BE000003000F07EFB25E0F048844209D101216D
:100BF000880400F076FB00214FF4802000F071FBA8
:100C000018E0EB48844209D10121C80400F069FBD7
:100C100000214FF4002000F064FB0BE0E548844223
:100C200008D10121080500F05CFB00214FF4801081
:100C300000F057FB10BD2DE9F04786B005460E4683
:100C40000024A24600BFA1460027B08900B100BF22
:100C50002F462C8A4CF6FF700440F08804432C8207
:100C6000AC894EF6F3100440B0883189084371898D
:100C700008430443AC81AC8A4FF6FF400440B0897E
:100C80000443AC8201A800F098FAC648874202D11A
:100C9000DDF810A001E0DDF80CA0A88900F4004008
:100CA00040B10AEBCA0000EB0A1031684900B0FB02
:100CB000F1F807E00AEBCA0000EB0A10316889007E
:100CC000B0FBF1F86420B8FBF0F0040120096421C6
:100CD00001FB1089A88900F4004040B1322000EBEC
:100CE000C900B0FBF1F000F00700044308E0322037
:100CF00000EB09106421B0FBF1F000F00F00044399
:100D00002C8106B0BDE8F0874FF416510160002138
:100D10008180C18001810C21418100218181704746
:100D200010B502460020108A4FF2FF0318400B88CE
:100D30004C8823438C882343CC8823431843108258
:100D400010BD0021018041808180C180704721B1A8
:100D5000828942F40052828104E082894DF6FF7359
:100D60001A4082817047F0B5034600240026002512
:100D7000002040F66A17B94200D100BF1846C1F3FF
:100D8000421401F01F06012707FA06F5012C01D1D4
:100D90000C3004E0022C01D1103000E014301AB104
:100DA00007682F43076002E00768AF430760F0BDA4
:100DB0001AB1838A0B43838202E0838A8B43838246
:100DC0007047028A4FF6F0731A400282028A0A4381
:100DD0000282704782894FF2FF731A4082818289B2
:100DE0000A438281704721B1828942F002028281E6
:100DF00004E082894FF6FD731A4082817047028AAF
:100E00004FF6DF731A400282028A0A430282704759
:100E100021B1028A42F48042028204E0028A4BF647
:100E2000FF731A4002827047C1F308028280704744
:100E300001468888C0F308007047818941F00101AC
:100E400081817047028BD2B20283028B42EA012277
:100E500002837047028B02F47F420283028B0A43B3
:100E60000283704721B1828A42F02002828204E02C
:100E7000828A4FF6DF731A408282704721B1828ADC
:100E800042F01002828204E0828A4FF6EF731A4029
:100E90008282704721B1828A42F00802828204E095
:100EA000828A4FF6F7731A408282704721B1828995
:100EB00042F40042828103E08289C2F30E02828101
:100EC000704721B1828A42F40062828204E0828A01
:100ED0004FF2FF731A4082827047828A4FF6FB738B
:100EE0001A408282828A0A438282704721B1828AB2
:100EF00042F00202828204E0828A4FF6FD731A40B9
:100F00008282704702460020B1F5007F00D100BF09
:100F100013880B400BB1012000E00020704701F462
:100F20000072B2F5007F00D100BFCA430280704753
:100F300070B50246002400230025002040F66A1602
:100F4000B14200D100BFC1F3421501F01F030126D9
:100F500006FA03F3012D02D19689334006E0022DF3
:100F600002D1168A334001E0968A33400C120126E2
:100F700006FA04F41688344013B10CB1012000E0E5
:100F8000002070BD10B50022002340F66A14A14273
:100F900000D100BF0A1201249440A3B2DC430480B4
:100FA00010BD0000003801400044004000480040EF
:100FB000004C004000500040DF48006840F0010055
:100FC000DD49086008464068DC490840DA49486065
:100FD00008460068DA490840D749086008460068B2
:100FE00020F4802008600846406820F4FE00486035
:100FF0004FF41F0088607047CF49096821F48031A1
:10100000CD4A11601146096821F480211160B0F5C4
:10101000803F03D0B0F5802F0ED106E0C6490968A5
:1010200041F48031C44A116007E0C349096841F4C2
:10103000A021C14A116000E000BF00BF704710B599
:1010400001460022002300204A11012A02D1BA4C95
:10105000236806E0022A02D1B74C236A01E0B64CAD
:10106000636A01F01F02012494401C400CB101206E
:1010700000E0002010BD38B50020009000240025BD
:1010800000BF3120FFF7DBFF05460098401C0090B1
:101090000098B0F5A06F01D0002DF2D03120FFF7FD
:1010A000CEFF08B1012400E00024204638BD0146EF
:1010B0000020A14A106820F0F80040EAC10010604A
:1010C0007047A04908607047024600209A4B586854
:1010D00020F47C1042EA01031843974B5860704794
:1010E00098490866704701460020934A506820F0EE
:1010F00003000843506070478F48406800F00C00C0
:101100007047014600208C4A506820F0F0000843E8
:101110005060704701460020874A506820F4E06024
:1011200008435060704701460020834A506820F40D
:10113000605040EAC1005060704729B17E4A527A3F
:1011400002437D4B5A7204E07B4A527A82437A4BC7
:101150005A7270477B49D8310860704701460020B9
:10116000754A506820F440400843506070470021A1
:10117000714A20321170704A82F82010012802D082
:1011800004280AD104E001216B4A2032117005E0E5
:101190000521694A2032117000E000BF00BF70478E
:1011A0006949086070476449096A0143624A1162EB
:1011B0007047654944390860704730B50021002206
:1011C000002400235C4D6D6805F00C0121B1042959
:1011D00005D0082923D105E05C4D056022E05B4D78
:1011E00005601FE0544D6D6805F47012524D6D6836
:1011F00005F48034022505EB92421CB9544D554349
:1012000005600BE04C4D6D6805F400351DB1504D87
:101210005543056002E04D4D5543056002E04B4DDE
:10122000056000BF00BF444D6D6805F0F00109097D
:10123000484D6B5C0568DD4045603F4D6D6805F4C9
:10124000E061090A434D6B5C4568DD4085603A4DBD
:101250006D6805F46051C90A3E4D6B5C4568DD4020
:10126000C560354D6D6805F44041890B3A4D6B5CA6
:10127000C568B5FBF3F5056130BD29B12E4A526949
:1012800002432D4B5A6104E02B4A526982432A4B98
:101290005A61704729B1284A92690243264B9A61E4
:1012A00004E0254A92698243234B9A61704729B131
:1012B000214AD2690243204BDA6104E01E4AD26916
:1012C00082431D4BDA61704729B11B4AD268024341
:1012D000194BDA6004E0184AD2688243164BDA6090
:1012E000704729B1144A12690243134B1A6104E092
:1012F000114A12698243104B1A61704712494039F2
:10130000086070470F49C86470470B49C87170473F
:101310000948406A40F080700749486270470146BA
:101320000020054A92680A400AB1012000E000202E
:101330007047014988727047001002400000FFF8B2
:10134000FFFFF6FE000042428004424200127A0093
:1013500000093D00140000202400002008B50121F0
:101360000920FFF797FF8020ADF8000003208DF8DB
:10137000020014208DF8030069469548FFF744F9F0
:101380004020ADF8000003208DF8020010208DF8F9
:10139000030069468E48FFF737F908BD10B5802174
:1013A0008B48FFF7DEF940218948FFF7DAF9012081
:1013B00000F083FE80218648FFF7D5F9402184485C
:1013C000FFF7D1F910BD10B580218148FFF7CBF9A7
:1013D00040217F48FFF7C5F9012000F06EFE802113
:1013E0007B48FFF7BEF910BD70B505462E460024B8
:1013F00021E040217648FFF7B6F9012000F05DFEBC
:1014000006FA04F000F08000802804D180217048A2
:10141000FFF7A7F903E080216D48FFF7A4F9012049
:1014200000F04BFE40216A48FFF79BF9012000F0D5
:1014300044FE601CC4B2082CDBDB40216448FFF78B
:1014400092F9012000F039FE80216148FFF789F907
:10145000012000F032FE70BD70B5002540215C48CF
:10146000FFF781F9012000F028FE80215848FFF79E
:1014700078F900241BE0012000F01FFE40215448B1
:10148000FFF76FF9012000F018FE80215048FFF7A8
:101490004EF9012801D1012600E0002646EA450068
:1014A000C5B240214A48FFF75EF9601CC4B2082C5F
:1014B000E1DB012000F001FE284670BD10B50024DC
:1014C00040214348FFF74DF9012000F0F6FD01E00F
:1014D000601C84B280213E48FFF729F9012801D120
:1014E000FF2CF5DB40213A48FFF73DF9012000F0E1
:1014F000E4FD10BD70B504460D4672B6FFF74EFF11
:10150000FE2101EAE41141F0A000FFF76DFFFFF7B3
:10151000D5FF2046E11704EB11610912A4EB01216C
:10152000CEB23046FFF760FFFFF7C8FF2846FFF74F
:101530005BFFFFF7C3FFFFF746FF62B6052000F031
:1015400095FD70BD70B50446E6B272B6FFF726FF92
:10155000FE2101EAE41141F0A000FFF745FFFFF78B
:10156000ADFF3046FFF740FFFFF7A8FFFFF716FF7C
:10157000A120FFF739FFFFF7A1FFFFF76DFF054639
:10158000FFF721FF62B6284670BD2DE9F041054600
:101590000E4617469846002407E03A19B15C2A190E
:1015A00090B2FFF7A7FF601C84B24445F5DBBDE8AD
:1015B000F08170B504460E46254605E0FF21284619
:1015C000FFF798FF681C85B2A019A842F6DC70BD31
:1015D000000C014008B501211D20FFF75BFE0F2024
:1015E000ADF8000003208DF8020010208DF80300F4
:1015F00069469348FFF708F801219148FFF7B3F8CF
:1016000002218F48FFF7AFF804218D48FFF7A9F8B2
:1016100008218B48FFF7A5F84FF40070ADF80000E3
:1016200003208DF8020010208DF8030069468548DC
:10163000FEF7EAFF4FF400718248FFF792F840206E
:10164000ADF8000003208DF8020048208DF803005B
:1016500069467D48FEF7D8FF08BD10B54FF400710C
:101660007848FFF780F8022000F027FD4FF4007162
:101670007448FFF776F84FF4C86000F0F7FC10BD2F
:1016800070B5002044682546A84770BD1CB56F485A
:1016900000F07DFF6D480C3000F070FF6B4810309B
:1016A00000F05CFF6948083000F07AFF684969483B
:1016B00000F0BDFE4FF4FA6000F0AEFF032000F032
:1016C000B8FF01A800F099FF9DF8070000909DF871
:1016D00006309DF805209DF804105FA001F012FA75
:1016E00001A800F078FF9DF8070000909DF80630F3
:1016F0009DF805209DF804105CA001F003FA01A8F4
:1017000000F061FF9DF8070000909DF806309DF8FD
:1017100005209DF804105AA001F0F4F91CBD86B014
:101720005CA103C9CDE904015CA0006803905CA042
:10173000006802905BA0006801905BA000680090C8
:101740004248001F0399C1600299016101994161FA
:1017500004994160BDF81410018100998161002055
:101760003A49091F0877012048770020C88381F88B
:1017700020000120887200213448001FC17206B089
:1017800070472DE9F0410027002500260BE02F4887
:10179000845D21463846FFF7ADFE781C87B2701C89
:1017A00086B2681C85B21D2DF1DBBDE8F08170B5F5
:1017B0000025002407E02046FFF7C4FE0546234825
:1017C0000555601C84B21D2CF5D32048001F0079FC
:1017D000FF281AD11D48001F4079FF2815D11B484A
:1017E000001F8079FF2810D11848001FC079FF28FA
:1017F0000BD11648001F007AFF2806D11348001F9E
:10180000407AFF2801D1FFF78AFF70BD08B54FF479
:10181000C060FEF72BFE25208DF8000001208DF81A
:10182000010000208DF8020001208DF803006846B9
:10183000FEF721FE00214FF00060FEF74EFE08BDCE
:1018400000080140000C0140001001404C0800203D
:1018500030000020280000204950203A2025642E26
:1018600025642E25642E25640D0A0000534E203A6F
:101870002025642E25642E25642E25640D0A000083
:101880004757203A2025642E25642E25642E256492
:101890000D0A00000008DC1111110000C0A801961B
:1018A000FFFFFF00C0A801010808080810B50446A2
:1018B0004FF4847101EB4410102100F02BFD00BFA8
:1018C0004FF4847101EB441000F03DFD0028F7D186
:1018D0004FF4027101EB4410FF2100F01BFD10BD1D
:1018E0002DE9F04104460D461646984605F00F00D6
:1018F00001280FD005F00F0002280BD005F00F00D3
:10190000032807D005F00F00042803D005F00F00CE
:10191000052841D12046FFF7C9FF45EA0801082202
:1019200002EB441000F0F6FC76B1310A4FF481620C
:1019300002EB441000F0EEFCF1B24FF4A16202EBB6
:10194000441000F0E7FC15E0FE480088401CFD490B
:1019500008800A461288110A4FF4816202EB441093
:1019600000F0D8FCF74A11784FF4A16202EB441062
:1019700000F0D0FC4FF4847101EB4410012100F021
:10198000C9FC00BF4FF4847101EB441000F0DBFC94
:101990000028F7D1012700E000273846BDE8F08194
:1019A00070B504464FF4427101EB441000F0CBFCDB
:1019B000132811D14FF4847101EB4410022100F07F
:1019C000A9FC00BF4FF4847101EB441000F0BBFC94
:1019D0000028F7D1012500E00025284670BD2DE93B
:1019E000F04105460C4616462078FF2808D160785D
:1019F000FF2805D1A078FF2802D1E078FF2808D081
:101A0000207828B9607818B9A07808B9E07800B1D2
:101A10000EB900275CE00127217840F6084202EB6E
:101A2000451000F077FC617840F6085202EB451053
:101A300000F070FCA17840F6086202EB451000F05F
:101A400069FCE17840F6087202EB451000F062FC98
:101A5000310A41F2080202EB451000F05BFCF1B2E2
:101A600041F2081202EB451000F054FC4FF484716F
:101A700001EB4510042100F04DFC00BF4FF48471D0
:101A800001EB451000F05FFC0028F7D117E04FF4A0
:101A9000427101EB451000F056FC172800D116E00A
:101AA000284600F0EDFD00F0080040B14FF402714F
:101AB00001EB4510082100F02DFC002707E04FF452
:101AC000427101EB451000F03EFC1528DFD100BF4C
:101AD0003846BDE8F08110B504464FF4847101EB3F
:101AE0004410082100F016FC00BF4FF4847101EB94
:101AF000441000F028FC0028F7D110BD2DE9F04774
:101B000004468846164600250027A946204600F0D0
:101B1000ECFBB04204DA204600F0E7FB074600E0A9
:101B2000374600BF204600F0BDFD81464FF44271AC
:101B300001EB441000F007FC0546172D03D01C2DC7
:101B400001D0002701E0B945ECDB00BF3A46414631
:101B5000204600F00DFE4FF4847101EB441020216B
:101B600000F0D8FB00BF4FF4847101EB441000F08B
:101B7000EAFB0028F7D113E04FF4427101EB441067
:101B800000F0E1FB0546172D0AD01C2D08D06EA0F1
:101B900000F0B8FF2046FFF789FE0020BDE8F0877F
:101BA0004FF4027101EB441000F0CDFB00F0100087
:101BB0001028E1D14FF4027101EB4410102100F024
:101BC000A9FB4FF4027101EB4410102100F0A2FBBD
:101BD0003846E3E72DE9F04104460E461546002756
:101BE000002D15DD2A463146204600F0F7FD4FF462
:101BF000847101EB4410402100F08CFB00BF4FF4D6
:101C0000847101EB441000F09EFB0028F7D12F46B1
:101C10003846BDE8F0812DE9F0470446894616466E
:101C20001D46089F4FF00008204600F05EFBB042C2
:101C300004DA204600F059FB804600E0B0462878E0
:101C400028B9687818B9A87808B9E87800B117B940
:101C50004FF0000863E0297840F6084202EB441098
:101C600000F058FB697840F6085202EB441000F08F
:101C700051FBA97840F6086202EB441000F04AFBE1
:101C8000E97840F6087202EB441000F043FB390A91
:101C900041F2080202EB441000F03CFBF9B241F2C1
:101CA000081202EB441000F035FB4246494620463C
:101CB00000F05EFD4FF4847101EB4410202100F030
:101CC00029FB00BF4FF4847101EB441000F03BFB93
:101CD0000028F7D112E04FF4027101EB441000F03C
:101CE00032FB00F0080048B14FF4027101EB4410E0
:101CF000182100F00FFB0020BDE8F0874FF40271BF
:101D000001EB441000F01FFB00F010001028E2D19E
:101D10004FF4027101EB4410102100F0FBFA404631
:101D2000EAE72DE9FC5F05468A4691461E46DDF846
:101D3000308000270024A346B9F1000F71DD42F680
:101D400008010BE03800002053454E445F4F4B2004
:101D500050726F626C656D21210D0A0001EB451018
:101D600000F0F1FA044642F6081101EB451000F0CC
:101D7000EAFA00EB042084B2200200EB451000F1E7
:101D8000180B082101EB451000F0DDFA00F0070008
:101D9000022804D0032845D0042878D178E008220E
:101DA0006946584600F010FB04F1080084B29DF823
:101DB000000030709DF8010070709DF80200B07056
:101DC0009DF80300F0709DF80400A8F800009DF84D
:101DD000050098F8001000EB0120A8F800009DF81D
:101DE00006709DF8070000EB072087B2200200EB89
:101DF000451000F1180B3A465146584600F0E4FAF7
:101E0000E01984B2210A42F6080202EB451000F004
:101E100081FAE1B242F6081202EB451000F07AFABC
:101E20006AE07AE006226946584600F0CDFAA01D25
:101E300084B29DF8000030709DF8010070709DF82C
:101E40000200B0709DF80300F0709DF804709DF8DA
:101E5000050000EB072087B2200200EB451000F1DF
:101E6000180B3A465146584600F0AEFAE01984B2D3
:101E7000210A42F6080202EB451000F04BFAE1B2EB
:101E800042F6081202EB451000F044FA34E032E06A
:101E900002226946584600F097FAA01C84B29DF8C9
:101EA00000709DF8010000EB0720801E87B240F211
:101EB000EA50874204DD1AA000F024FE00BFFEE7CE
:101EC000200200EB451000F1180B3A4651465846E7
:101ED00000F07AFAE01984B2210A42F6080202EB15
:101EE000451000F017FAE1B242F6081202EB451075
:101EF00000F010FA00E000BF00BF4FF4847101EB66
:101F00004510402100F006FA00BF4FF4847101EB48
:101F1000451000F018FA0028F7D13846BDE8FC9FBC
:101F2000646174615F6C656E206F76657220313517
:101F300031340D0A0000000000B587B0012188038C
:101F4000FFF7B5F901210920FFF7A4F94FF48050FC
:101F5000ADF8040003208DF8060010208DF807006E
:101F600001A93248FEF750FB4FF480512F48FEF78D
:101F7000F8FB4FF46040ADF8040003208DF8060034
:101F800018208DF8070001A92848FEF73DFB002026
:101F9000ADF808004FF48270ADF80A000020ADF8EB
:101FA0000C00ADF80E00ADF810004FF40070ADF865
:101FB00012000820ADF814000020ADF8160007202C
:101FC000ADF8180002A91A48FEF792FC0121184842
:101FD000FEF733FD07B000BD10B504462CB94FF431
:101FE00080511248FEF7BFFB05E0012C03D121030D
:101FF0000E48FEF7B6FB10BD10B5044600BF022127
:102000000B48FEF79EFD0028F9D021460848FEF750
:1020100045FD00BF01210648FEF793FD0028F9D0D9
:102020000348FEF73DFDC0B210BD0000000C0140AA
:10203000003800404FF0E021096921F004014FF021
:10204000E0221161C21700EB5272C2F3C702A14B2A
:102050001A701946097801EB4102C2EBC1114FF623
:10206000FF7202EAC1019C4A1180704701469A4AF8
:1020700012884A434FF0E0235A6100229A610122FC
:102080001A6100BF4FF0E022106900F001021AB19E
:1020900000F48032002AF5D000224FF0E0231A61CC
:1020A0009A61704710B5044604E04FF47A70FFF768
:1020B000DDFF641E002CF8D110BD0146854A127860
:1020C0004A434FF0E0235A6100229A6101221A61CB
:1020D00000BF4FF0E022106900F001021AB100F4D5
:1020E0008032002AF5D000224FF0E0231A619A6175
:1020F00070470146302905DB392903DCA1F13000A6
:10210000C0B27047612905DB662903DCA1F15700E5
:10211000C0B2F6E7412905DB462903DCA1F137000F
:10212000C0B2EEE70846ECE730B502460B460024A5
:1021300005E012F8010BFFF7DCFF04FB0304107845
:102140000028F6D1A0B230BD30B502460B460024BF
:1021500005E012F8010BFFF7CCFF04FB0304107835
:102160000028F6D1204630BD2DE9F04104460D4649
:102170001646701EC7B220223146284600F038FCB1
:1021800000BF0A2094FBF0F100FB11403030C2B2D6
:102190003846791ECFB22A540A2094FBF0F080B260
:1021A000041EEEDCBDE8F0812DE9F04104460F4647
:1021B000904626460CB1207810B90020BDE8F08189
:1021C0000BE03078FFF795FF0546002D03DBBD429D
:1021D00001DA761C01E00020F0E730780028F0D129
:1021E000B9B22046FFF7A0FFC8F800000120E5E7DC
:1021F00010B50B46002104E0445C9C4200D14254DF
:10220000491C445C002CF7D110BD014600200A0691
:10221000100C40EA11207047014600200806C1F367
:10222000072240EA0240C1F3074240EA022040EAA6
:10223000116070472DE9F04781460E4617461D464E
:102240003146484600F0E6FB0446304600F000FC0C
:1022500004443946204600F0DDFB8246AAEB040028
:102260001FFA80F842462146284600F0E5FB002090
:1022700005F80800BDE8F0872DE9F04188B0064672
:102280000F463146684600F0EAFB6C4600251BE02D
:1022900012A1204600F0ECFB04462078302809D13A
:1022A0006078782806D11021A01CFFF73DFF00F0D0
:1022B000FF0805E00A212046FFF736FF00F0FF087F
:1022C00007F8058000246D1C042DE1DB08B0BDE893
:1022D000F08100003A0000203C0000202E000000A9
:1022E0000146FE4830F8110070470146FC4830F8BE
:1022F0001100704710B50020FFF76EFE10BD10B53D
:102300000120FFF769FE10BD10B504462046FFF717
:1023100073FE10BD70B504460D46FFF7EBFFC4F326
:102320000740FFF7F1FFC4F30720FFF7EDFF04F0CC
:10233000F801091DC8B2FFF7E7FF2846FFF7E4FFE1
:10234000FFF7DDFF70BD70B504460025FFF7D2FF33
:10235000C4F30740FFF7D8FFC4F30720FFF7D4FF0B
:1023600004F0F800FFF7D0FF0020FFF7CDFF05468F
:10237000FFF7C5FF284670BD2DE9F04104460F4622
:102380001546002615B9D7A000F0BCFBFFF7B2FF39
:10239000C4F30740FFF7B8FFC4F30720FFF7B4FF0B
:1023A00004F0F801091DC8B2FFF7AEFF002604E0F3
:1023B000B85DFFF7A9FF701C86B2AE42F8DBFFF7ED
:1023C0009EFF2846BDE8F0812DE9F04104460F4606
:1023D0001546002615B9C3A000F094FBFFF78AFF4D
:1023E000C4F30740FFF790FFC4F30720FFF78CFF0B
:1023F00004F0F800FFF788FF002605E00020FFF753
:1024000083FFB855701C86B2AE42F7DBFFF777FF4B
:102410002846BDE8F08110B5044621460020FFF7AC
:1024200079FF10BD10B58020FFF7F5FF10BD2DE935
:10243000F04105460E460027B846002489E0295D94
:1024400041F6087202EB4410FFF764FF315D41F67C
:10245000086202EB4410FFF75DFF0020A04921F85D
:1024600014009E4921F81400B7F5804F32DC285D36
:10247000042816D004DC012807D0022823D10AE062
:10248000082814D010281ED117E04FF4806094491A
:1024900021F814001DE04FF40060914921F8140068
:1024A00017E04FF480508E4921F8140011E04FF4EA
:1024B00000508B4921F814000BE04FF4804088490C
:1024C00021F8140005E04FF40060844921F814005D
:1024D00000BF00BFB8F5804F32DC305D042816D055
:1024E00004DC012807D0022823D10AE0082814D0F0
:1024F00010281ED117E04FF48060784921F81400AD
:102500001DE04FF40060754921F8140017E04FF406
:102510008050724921F8140011E04FF400506F49C7
:1025200021F814000BE04FF480406C4921F81400AE
:1025300005E04FF40060694921F8140000BF00BFB6
:10254000674830F814000744644830F814008044A9
:10255000641C082CFFF673AFBDE8F08110B504468B
:10256000042221469001FFF707FF10BD10B5044675
:10257000042221469001FFF727FF10BD10B5044645
:10258000042221464FF4A060FFF7F6FE10BD10B5FF
:102590000446062221464FF41060FFF7EDFE10BD01
:1025A00010B50446042221464FF47060FFF7E4FEA4
:1025B00010BD10B5044642F6087101EB441002212B
:1025C000FFF7A8FE10BD10B5044604222146900175
:1025D000FFF7FAFE10BD10B50446042221464FF461
:1025E000A060FFF7F1FE10BD10B50446062221469B
:1025F0004FF41060FFF7E8FE10BD10B5044604224A
:1026000021464FF47060FFF7DFFE10BD10B54FF4A8
:10261000A850FFF798FE10BD10B50446210A4FF4EC
:10262000C850FFF777FEE1B24FF4D050FFF772FECB
:1026300010BD10B5044621464FF4D850FFF76AFE8E
:1026400010BD70B50446FFF7E1FF60EA0400C5B2B3
:1026500029464FF4A850FFF75DFE70BD70B50446E3
:102660000D46290A41F2082202EB4410FFF752FE00
:10267000E9B241F2083202EB4410FFF74BFE70BDA5
:1026800010B504464FF4027101EB4410FFF75BFEF6
:1026900010BD10B504464FF4427101EB4410FFF732
:1026A00052FE10BD70B504460025002600BF42F260
:1026B000080101EB4410FFF746FE064642F20811FE
:1026C00001EB4410FFF73FFE00EB062086B20EB38D
:1026D00042F2080101EB441010E000004E0E002011
:1026E0003E0E0020556E6578706563746564322017
:1026F0006C656E67746820300D0A0000FFF723FEDA
:10270000054642F2081101EB4410FFF71CFE00EBF6
:10271000052085B2B542CAD1284670BD70B50446C1
:102720000025002600BF42F2086101EB4410FFF7CC
:102730000AFE064642F2087101EB4410FFF703FE61
:1027400000EB062086B27EB142F2086101EB441034
:10275000FFF7F9FD054642F2087101EB4410FFF75F
:10276000F2FD00EB052085B2B542DCD1284670BDF4
:102770002DE9F04104460F4616460025A8460EB93D
:10278000BDE8F08142F2084101EB4410FFF7DBFDA8
:10279000054642F2085101EB4410FFF7D4FD00EB6F
:1027A000052085B2280200EB441000F110083246E3
:1027B00039464046FFF7E0FDA81985B2290A42F2E2
:1027C000084202EB4410FFF7A5FDE9B242F20852BD
:1027D00002EB4410FFF79EFD00BFD1E72DE9F04169
:1027E00004460F4616460025A8462EB921461EA0CF
:1027F00000F088F9BDE8F08142F6080101EB4410D1
:10280000FFF7A1FD054642F6081101EB4410FFF762
:102810009AFD00EB052085B2280200EB441000F180
:102820001808324639464046FFF7CEFDA81985B252
:10283000290A42F6080202EB4410FFF76BFDE9B2E9
:1028400042F6081202EB4410FFF764FD00BFD1E727
:1028500070B504460D464FF4027101EB4410294651
:10286000FFF758FD70BD000043483A20256420550D
:102870006E657870656374656432206C656E67742C
:102880006820300D0A00000000B585B0012144F237
:102890000500FEF7FFFC18208DF803004FF40070D0
:1028A000ADF8000003208DF8020069464C48FDF7A2
:1028B000ABFE04208DF803000002ADF8000069466D
:1028C0004748FDF7A1FE4FF4E13001900020ADF83C
:1028D0000800ADF80A00ADF80C00ADF810000C20AF
:1028E000ADF80E00012240F225513E48FEF73BFABA
:1028F00001A93C48FEF79FF901213A48FEF727FA63
:1029000005B000BD70B504460D46E1B23548FEF78E
:102910008BFA00BF80213348FEF7F4FA0028F9D083
:10292000204670BD10B5044621462E48FEF77CFABD
:1029300000BF80212B48FEF7E5FA0028F9D010BD32
:1029400010B504460BE014F8011B2648FEF76CFA9C
:1029500000BF80212348FEF7D5FA0028F9D020785F
:102960000028F0D110BD10B540F225511D48FEF7EA
:10297000DFFA10B31B48FEF75BFAC4B21A480088AE
:1029800000F40040C8B91848008800F4804060B1E5
:102990000A2C03D000201449088020E01248008847
:1029A00040F400401049088019E00D2C06D10E4873
:1029B000008840F480400C49088010E00A480088F4
:1029C000C0F30D0009490C5407480088401C064913
:1029D000088008460088C72801DD0020088010BD57
:1029E00000080140003801403E0000205E0E00203B
:1029F000D2B201E000F8012B491EFBD27047002241
:102A0000F6E710B513460A4604461946FFF7F0FFED
:102A1000204610BD30B505462A460B4612F8010B7C
:102A200013F8014B08B1A042F8D01CB1002802D025
:102A30006D1CF1E7284630BD10B5044604E00B7864
:102A400000F8013B03B1491C521EF8D2204610BDCC
:102A5000421C10F8011B0029FBD1801A7047034665
:102A600011F8012B00F8012B002AF9D11846704704
:102A700070B50F4D00B92868002412E00A4602E044
:102A80009E4203D0521C1378002BF9D1DAB22243B4
:102A900005D02BB124B1002100F8011B04E004464D
:102AA000401C0678002EE9D12860204670BD000049
:102AB0004000002030B50B460146002020220124B2
:102AC00009E021FA02F59D4205D303FA02F5491BFC
:102AD00004FA02F52844151EA2F10102F1DC30BD12
:102AE000064C074D06E0E06840F0010394E807005B
:102AF00098471034AC42F6D3FDF7FCFAFC2C0008E2
:102B00001C2D00080FB4054B10B503A9044A029808
:102B100000F018F810BC5DF814FB0000052900084F
:102B20004400002002E008C8121F08C1002AFAD1A0
:102B300070477047002001E001C1121F002AFBD13D
:102B4000704700002DE9FF4F8BB09A460F460546AF
:102B5000002606E025280BD052460D9990476D1CA3
:102B6000761C28780028F5D10FB03046BDE8F08FEC
:102B70000024A0460122604900E0044315F8013F0B
:102B8000203B02FA03F00842F7D128782E2817D10B
:102B900015F8010F44F004042A280ED06FF02F021C
:102BA0002878A0F1300109290AD808EB880102EB46
:102BB000410100EB01086D1CF2E757F8048B6D1C16
:102BC000287869283ED006DC0028CDD063280BD0B9
:102BD000642804D136E0732810D075284BD05246B3
:102BE0000D999047761C85E017F8040B8DF80000CE
:102BF00000208DF80100E946012003E057F8049B0E
:102C00004FF0FF3061074FF0000401D40AE0641C6C
:102C100044450DDA8442FADB19F804100029F6D194
:102C200006E0641C8442FCDB19F804100029F8D18A
:102C3000264404E019F8010B52460D999047641E92
:102C4000F8D257E001CF4FF00A0B002802DA4042D9
:102C50002D2102E0210504D52B218DF8241001211E
:102C600003E0E10705D02021F7E70DF120090891E5
:102C70000CE00021F9E701CF4FF00A0BF9E75946C4
:102C8000FFF718FF01F1300209F8012D0028F6D1F5
:102C9000ADEB090000F1200B600701D44FF00108F3
:102CA000D84502DDA8EB0B0000E0002080460024A0
:102CB00006E009A85246005D0D999047641C761CF9
:102CC00008988442F5DB04E0302052460D99904785
:102CD000761CB8F10001A8F10108F5DC05E019F84F
:102CE000010B52460D999047761CBBF10001ABF1E8
:102CF000010BF4DC6D1C34E7092801001C2D0008D1
:102D00000000002048000000242B0008642D00086B
:102D100048000020E0120000342B000800A24A0402
:102D2000000000000000000001020304060708097B
:102D30000000000001020304010203040607080961
:102D40000204060802020202020202020202020257
:102D5000020202020000000000000000000000006B
:042D6000000000006F
:04000005080000ED02
:00000001FF
